{
    "contractName": "Producer",
    "abi": [
        {
            "constant": false,
            "inputs": [
                {
                    "name": "account",
                    "type": "address"
                }
            ],
            "name": "addProducer",
            "outputs": [],
            "payable": false,
            "stateMutability": "nonpayable",
            "type": "function"
        },
        {
            "constant": true,
            "inputs": [
                {
                    "name": "account",
                    "type": "address"
                }
            ],
            "name": "isProducer",
            "outputs": [
                {
                    "name": "",
                    "type": "bool"
                }
            ],
            "payable": false,
            "stateMutability": "view",
            "type": "function"
        },
        {
            "constant": false,
            "inputs": [],
            "name": "renounceProducer",
            "outputs": [],
            "payable": false,
            "stateMutability": "nonpayable",
            "type": "function"
        },
        {
            "inputs": [
                {
                    "name": "producer",
                    "type": "address"
                }
            ],
            "payable": false,
            "stateMutability": "nonpayable",
            "type": "constructor"
        },
        {
            "anonymous": false,
            "inputs": [
                {
                    "indexed": true,
                    "name": "account",
                    "type": "address"
                }
            ],
            "name": "ProducerAdded",
            "type": "event"
        },
        {
            "anonymous": false,
            "inputs": [
                {
                    "indexed": true,
                    "name": "account",
                    "type": "address"
                }
            ],
            "name": "ProducerRemoved",
            "type": "event"
        }
    ],
    "bytecode": "608060405234801561001057600080fd5b506040516020806105e183398101604052516100348164010000000061003a810204565b506101ec565b6100526000826401000000006102b461008982021704565b604051600160a060020a038216907f2977383b0207d39ef14220620b6cf3e6c9b6e78592af90baeef6614ed2fcd2c690600090a250565b61009c828264010000000061012d810204565b1561010857604080517f08c379a000000000000000000000000000000000000000000000000000000000815260206004820152601d60248201527f526f6c65733a206163636f756e7420616c726561647920657869737473000000604482015290519081900360640190fd5b600160a060020a0316600090815260209190915260409020805460ff19166001179055565b6000600160a060020a03821615156101cc57604080517f08c379a000000000000000000000000000000000000000000000000000000000815260206004820152602160248201527f526f6c65733a6163636f756e7420697320746865207a65726f2061646472657360448201527f7300000000000000000000000000000000000000000000000000000000000000606482015290519081900360840190fd5b50600160a060020a03166000908152602091909152604090205460ff1690565b6103e6806101fb6000396000f3006080604052600436106100565763ffffffff7c0100000000000000000000000000000000000000000000000000000000600035041663ddf80166811461005b578063f55210221461007e578063f9b867d8146100b3575b600080fd5b34801561006757600080fd5b5061007c600160a060020a03600435166100c8565b005b34801561008a57600080fd5b5061009f600160a060020a0360043516610159565b604080519115158252519081900360200190f35b3480156100bf57600080fd5b5061007c610171565b6100d133610159565b151561014d576040805160e560020a62461bcd02815260206004820152603360248201527f50726f6475636572526f6c653a63616c6c657220646f6573206e6f742068617660448201527f65207468652050726f647563657220726f6c6500000000000000000000000000606482015290519081900360840190fd5b6101568161017c565b50565b600061016b818363ffffffff6101c416565b92915050565b61017a3361026c565b565b61018d60008263ffffffff6102b416565b604051600160a060020a038216907f2977383b0207d39ef14220620b6cf3e6c9b6e78592af90baeef6614ed2fcd2c690600090a250565b6000600160a060020a038216151561024c576040805160e560020a62461bcd02815260206004820152602160248201527f526f6c65733a6163636f756e7420697320746865207a65726f2061646472657360448201527f7300000000000000000000000000000000000000000000000000000000000000606482015290519081900360840190fd5b50600160a060020a03166000908152602091909152604090205460ff1690565b61027d60008263ffffffff61033816565b604051600160a060020a038216907fb78e9906c5bae930ccf756a5214c9855b1782f0eb30f9566de2384f034af48f390600090a250565b6102be82826101c4565b15610313576040805160e560020a62461bcd02815260206004820152601d60248201527f526f6c65733a206163636f756e7420616c726561647920657869737473000000604482015290519081900360640190fd5b600160a060020a0316600090815260209190915260409020805460ff19166001179055565b61034282826101c4565b1515610398576040805160e560020a62461bcd02815260206004820181905260248201527f526f6c65733a6163636f756e7420646f6573206e6f74206861766520726f6c65604482015290519081900360640190fd5b600160a060020a0316600090815260209190915260409020805460ff191690555600a165627a7a723058208442bfc9c3d5b79c0d9afb648a7ccd3a53eb3d0a487df12fe5d9ca916f420d880029",
    "sourcePath": "/Users/gdhjx/Documents/helloworld/fisco/Producer.sol",
    "compiler": {
        "name": "solc",
        "version": "0.4.26+commit.4563c3fc"
    },
    "functionHashes": {
        "addProducer(address)": "ddf80166",
        "isProducer(address)": "f5521022",
        "renounceProducer()": "f9b867d8"
    },
    "gasEstimates": {
        "creation": {
            "codeDepositCost": "199600",
            "executionCost": "infinite",
            "totalCost": "infinite"
        },
        "external": {
            "addProducer(address)": "infinite",
            "isProducer(address)": "infinite",
            "renounceProducer()": "infinite"
        },
        "internal": {
            "_addProducer(address)": "infinite",
            "_removeProducer(address)": "infinite"
        }
    }
}