{
    "contractName": "HelloWorld",
    "abi": [
        {
            "inputs": [],
            "name": "returnHelloWorld",
            "outputs": [
                {
                    "internalType": "string",
                    "name": "",
                    "type": "string"
                },
                {
                    "internalType": "string",
                    "name": "",
                    "type": "string"
                }
            ],
            "stateMutability": "pure",
            "type": "function"
        }
    ],
    "bytecode": "6080806040523460155761012e908161001a8239f35b5f80fdfe608060405260043610156010575f80fd5b5f3560e01c63e04eae45146022575f80fd5b3460d0575f36600319011260d0576040516040810181811067ffffffffffffffff82111760bc57604052600581526468656c6c6f60d81b60208201526040516040810181811067ffffffffffffffff82111760bc5760ab9260b891604052600b83526a12195b1b1bc815dbdc9b1960aa1b602084015260405193849360408552604085019060d4565b90838203602085015260d4565b0390f35b634e487b7160e01b5f52604160045260245ffd5b5f80fd5b805180835260209291819084018484015e5f828201840152601f01601f191601019056fea2646970667358221220df63b722caae9433d15029414b2877b5cf4f73847ea4ea4341306b4d5fbed2d864736f6c634300081c0033",
    "sourcePath": "/Users/gdhjx/Documents/helloworld/FirstHelloWorld.sol",
    "compiler": {
        "name": "solc",
        "version": "0.8.28+commit.7893614a"
    },
    "functionHashes": {
        "returnHelloWorld()": "e04eae45"
    },
    "gasEstimates": {
        "creation": {
            "codeDepositCost": "60400",
            "executionCost": "117",
            "totalCost": "60517"
        },
        "external": {
            "returnHelloWorld()": "infinite"
        }
    }
}