{
    "contractName": "Storage",
    "abi": [
        {
            "inputs": [
                {
                    "internalType": "uint256[]",
                    "name": "_value",
                    "type": "uint256[]"
                }
            ],
            "name": "doSomething",
            "outputs": [
                {
                    "internalType": "uint256",
                    "name": "",
                    "type": "uint256"
                },
                {
                    "internalType": "uint256[]",
                    "name": "",
                    "type": "uint256[]"
                }
            ],
            "stateMutability": "pure",
            "type": "function"
        },
        {
            "inputs": [],
            "name": "getNumber",
            "outputs": [
                {
                    "internalType": "uint256",
                    "name": "",
                    "type": "uint256"
                }
            ],
            "stateMutability": "view",
            "type": "function"
        },
        {
            "inputs": [],
            "name": "number",
            "outputs": [
                {
                    "internalType": "uint256",
                    "name": "",
                    "type": "uint256"
                }
            ],
            "stateMutability": "view",
            "type": "function"
        },
        {
            "inputs": [
                {
                    "internalType": "uint256",
                    "name": "_number",
                    "type": "uint256"
                }
            ],
            "name": "setNumber",
            "outputs": [],
            "stateMutability": "nonpayable",
            "type": "function"
        }
    ],
    "bytecode": "6080806040523460155761023b908161001a8239f35b5f80fdfe6080806040526004361015610012575f80fd5b5f3560e01c908163383775b214610080575080633fb5c1cb146100685780638381f58a146100485763f2c9ecd814610048575f80fd5b34610064575f3660031901126100645760205f54604051908152f35b5f80fd5b34610064576020366003190112610064576004355f55005b346100645760203660031901126100645760043567ffffffffffffffff811161006457366023820112156100645780600401359067ffffffffffffffff82116101c9578160051b91601f19603f840116840184811067ffffffffffffffff8211176101c957604052835260208301602481938301019136831161006457602401905b8282106101b9575050505f5f905b835182101561016e5761012382856101dd565b51810180911161015a579061013881856101dd565b51906001820180921161015a5760019161015282876101dd565b520190610110565b634e487b7160e01b5f52601160045260245ffd5b929190506040519283926040840191845260406020850152518091526060830191905f5b8181106101a0575050500390f35b8251845285945060209384019390920191600101610192565b8135815260209182019101610102565b634e487b7160e01b5f52604160045260245ffd5b80518210156101f15760209160051b010190565b634e487b7160e01b5f52603260045260245ffdfea2646970667358221220dbb6f115c87ecf2f9148a9347e9f00b42e16a9f546cb837366a343fe93b85c1b64736f6c634300081c0033",
    "sourcePath": "/Users/gdhjx/Documents/helloworld/Storage.sol",
    "compiler": {
        "name": "solc",
        "version": "0.8.28+commit.7893614a"
    },
    "functionHashes": {
        "doSomething(uint256[])": "383775b2",
        "getNumber()": "f2c9ecd8",
        "number()": "8381f58a",
        "setNumber(uint256)": "3fb5c1cb"
    },
    "gasEstimates": {
        "creation": {
            "codeDepositCost": "114200",
            "executionCost": "165",
            "totalCost": "114365"
        },
        "external": {
            "doSomething(uint256[])": "infinite",
            "getNumber()": "2318",
            "number()": "2299",
            "setNumber(uint256)": "22260"
        }
    }
}