{
	"ArrayReplaceFromEnd.sol": {
		"ArrayReplaceFromEnd": {
			"abi": [
				{
					"inputs": [
						{
							"internalType": "uint256",
							"name": "",
							"type": "uint256"
						}
					],
					"name": "arr",
					"outputs": [
						{
							"internalType": "uint256",
							"name": "",
							"type": "uint256"
						}
					],
					"stateMutability": "view",
					"type": "function"
				},
				{
					"inputs": [
						{
							"internalType": "uint256",
							"name": "index",
							"type": "uint256"
						}
					],
					"name": "remove",
					"outputs": [],
					"stateMutability": "nonpayable",
					"type": "function"
				},
				{
					"inputs": [
						{
							"internalType": "uint256",
							"name": "_index",
							"type": "uint256"
						}
					],
					"name": "test",
					"outputs": [
						{
							"internalType": "string",
							"name": "",
							"type": "string"
						},
						{
							"internalType": "uint256[]",
							"name": "",
							"type": "uint256[]"
						}
					],
					"stateMutability": "nonpayable",
					"type": "function"
				}
			],
			"devdoc": {
				"kind": "dev",
				"methods": {},
				"version": 1
			},
			"evm": {
				"assembly": "    /* \"ArrayReplaceFromEnd.sol\":57:440  contract ArrayReplaceFromEnd{... */\n  mstore(0x40, 0x80)\n  callvalue\n  dup1\n  iszero\n  tag_1\n  jumpi\n  0x00\n  dup1\n  revert\ntag_1:\n  pop\n  dataSize(sub_0)\n  dup1\n  dataOffset(sub_0)\n  0x00\n  codecopy\n  0x00\n  return\nstop\n\nsub_0: assembly {\n        /* \"ArrayReplaceFromEnd.sol\":57:440  contract ArrayReplaceFromEnd{... */\n      mstore(0x40, 0x80)\n      callvalue\n      dup1\n      iszero\n      tag_1\n      jumpi\n      0x00\n      dup1\n      revert\n    tag_1:\n      pop\n      jumpi(tag_2, lt(calldatasize, 0x04))\n      shr(0xe0, calldataload(0x00))\n      dup1\n      0x29e99f07\n      eq\n      tag_3\n      jumpi\n      dup1\n      0x4cc82215\n      eq\n      tag_4\n      jumpi\n      dup1\n      0x71e5ee5f\n      eq\n      tag_5\n      jumpi\n    tag_2:\n      0x00\n      dup1\n      revert\n        /* \"ArrayReplaceFromEnd.sol\":276:437  function test(uint _index)public returns(string memory,uint[]memory){  ... */\n    tag_3:\n      tag_6\n      0x04\n      dup1\n      calldatasize\n      sub\n      dup2\n      add\n      swap1\n      tag_7\n      swap2\n      swap1\n      tag_8\n      jump\t// in\n    tag_7:\n      tag_9\n      jump\t// in\n    tag_6:\n      mload(0x40)\n      tag_10\n      swap3\n      swap2\n      swap1\n      tag_11\n      jump\t// in\n    tag_10:\n      mload(0x40)\n      dup1\n      swap2\n      sub\n      swap1\n      return\n        /* \"ArrayReplaceFromEnd.sol\":120:270  function remove(uint index)public{... */\n    tag_4:\n      tag_12\n      0x04\n      dup1\n      calldatasize\n      sub\n      dup2\n      add\n      swap1\n      tag_13\n      swap2\n      swap1\n      tag_8\n      jump\t// in\n    tag_13:\n      tag_14\n      jump\t// in\n    tag_12:\n      stop\n        /* \"ArrayReplaceFromEnd.sol\":92:112  uint256[] public arr */\n    tag_5:\n      tag_15\n      0x04\n      dup1\n      calldatasize\n      sub\n      dup2\n      add\n      swap1\n      tag_16\n      swap2\n      swap1\n      tag_8\n      jump\t// in\n    tag_16:\n      tag_17\n      jump\t// in\n    tag_15:\n      mload(0x40)\n      tag_18\n      swap2\n      swap1\n      tag_19\n      jump\t// in\n    tag_18:\n      mload(0x40)\n      dup1\n      swap2\n      sub\n      swap1\n      return\n        /* \"ArrayReplaceFromEnd.sol\":276:437  function test(uint _index)public returns(string memory,uint[]memory){  ... */\n    tag_9:\n        /* \"ArrayReplaceFromEnd.sol\":317:330  string memory */\n      0x60\n        /* \"ArrayReplaceFromEnd.sol\":331:343  uint[]memory */\n      dup1\n        /* \"ArrayReplaceFromEnd.sol\":356:369  arr=[1,2,3,4] */\n      mload(0x40)\n      dup1\n      0x80\n      add\n      0x40\n      mstore\n      dup1\n        /* \"ArrayReplaceFromEnd.sol\":361:362  1 */\n      0x01\n        /* \"ArrayReplaceFromEnd.sol\":356:369  arr=[1,2,3,4] */\n      0xff\n      and\n      dup2\n      mstore\n      0x20\n      add\n        /* \"ArrayReplaceFromEnd.sol\":363:364  2 */\n      0x02\n        /* \"ArrayReplaceFromEnd.sol\":356:369  arr=[1,2,3,4] */\n      0xff\n      and\n      dup2\n      mstore\n      0x20\n      add\n        /* \"ArrayReplaceFromEnd.sol\":365:366  3 */\n      0x03\n        /* \"ArrayReplaceFromEnd.sol\":356:369  arr=[1,2,3,4] */\n      0xff\n      and\n      dup2\n      mstore\n      0x20\n      add\n        /* \"ArrayReplaceFromEnd.sol\":367:368  4 */\n      0x04\n        /* \"ArrayReplaceFromEnd.sol\":356:369  arr=[1,2,3,4] */\n      0xff\n      and\n      dup2\n      mstore\n      pop\n        /* \"ArrayReplaceFromEnd.sol\":356:359  arr */\n      0x00\n        /* \"ArrayReplaceFromEnd.sol\":356:369  arr=[1,2,3,4] */\n      swap1\n      0x04\n      tag_21\n      swap3\n      swap2\n      swap1\n      tag_22\n      jump\t// in\n    tag_21:\n      pop\n        /* \"ArrayReplaceFromEnd.sol\":379:393  remove(_index) */\n      tag_23\n        /* \"ArrayReplaceFromEnd.sol\":386:392  _index */\n      dup4\n        /* \"ArrayReplaceFromEnd.sol\":379:385  remove */\n      tag_14\n        /* \"ArrayReplaceFromEnd.sol\":379:393  remove(_index) */\n      jump\t// in\n    tag_23:\n        /* \"ArrayReplaceFromEnd.sol\":421:424  arr */\n      0x00\n        /* \"ArrayReplaceFromEnd.sol\":403:425  return (\"success\",arr) */\n      mload(0x40)\n      dup1\n      0x40\n      add\n      0x40\n      mstore\n      dup1\n      0x07\n      dup2\n      mstore\n      0x20\n      add\n      0x7375636365737300000000000000000000000000000000000000000000000000\n      dup2\n      mstore\n      pop\n      swap1\n      dup1\n      dup1\n      sload\n      dup1\n      0x20\n      mul\n      0x20\n      add\n      mload(0x40)\n      swap1\n      dup2\n      add\n      0x40\n      mstore\n      dup1\n      swap3\n      swap2\n      swap1\n      dup2\n      dup2\n      mstore\n      0x20\n      add\n      dup3\n      dup1\n      sload\n      dup1\n      iszero\n      tag_24\n      jumpi\n      0x20\n      mul\n      dup3\n      add\n      swap2\n      swap1\n      0x00\n      mstore\n      keccak256(0x00, 0x20)\n      swap1\n    tag_25:\n      dup2\n      sload\n      dup2\n      mstore\n      0x20\n      add\n      swap1\n      0x01\n      add\n      swap1\n      dup1\n      dup4\n      gt\n      tag_25\n      jumpi\n    tag_24:\n      pop\n      pop\n      pop\n      pop\n      pop\n      swap1\n      pop\n      swap2\n      pop\n      swap2\n      pop\n        /* \"ArrayReplaceFromEnd.sol\":276:437  function test(uint _index)public returns(string memory,uint[]memory){  ... */\n      swap2\n      pop\n      swap2\n      jump\t// out\n        /* \"ArrayReplaceFromEnd.sol\":120:270  function remove(uint index)public{... */\n    tag_14:\n        /* \"ArrayReplaceFromEnd.sol\":178:181  arr */\n      0x00\n        /* \"ArrayReplaceFromEnd.sol\":178:188  arr.length */\n      dup1\n      sload\n      swap1\n      pop\n        /* \"ArrayReplaceFromEnd.sol\":172:177  index */\n      dup2\n        /* \"ArrayReplaceFromEnd.sol\":172:188  index<arr.length */\n      lt\n        /* \"ArrayReplaceFromEnd.sol\":164:206  require(index<arr.length,'out of boundry') */\n      tag_27\n      jumpi\n      mload(0x40)\n      0x08c379a000000000000000000000000000000000000000000000000000000000\n      dup2\n      mstore\n      0x04\n      add\n      tag_28\n      swap1\n      tag_29\n      jump\t// in\n    tag_28:\n      mload(0x40)\n      dup1\n      swap2\n      sub\n      swap1\n      revert\n    tag_27:\n        /* \"ArrayReplaceFromEnd.sol\":227:230  arr */\n      0x00\n        /* \"ArrayReplaceFromEnd.sol\":242:243  1 */\n      0x01\n        /* \"ArrayReplaceFromEnd.sol\":231:234  arr */\n      0x00\n        /* \"ArrayReplaceFromEnd.sol\":231:241  arr.length */\n      dup1\n      sload\n      swap1\n      pop\n        /* \"ArrayReplaceFromEnd.sol\":231:243  arr.length-1 */\n      tag_30\n      swap2\n      swap1\n      tag_31\n      jump\t// in\n    tag_30:\n        /* \"ArrayReplaceFromEnd.sol\":227:244  arr[arr.length-1] */\n      dup2\n      sload\n      dup2\n      lt\n      tag_32\n      jumpi\n      tag_33\n      tag_34\n      jump\t// in\n    tag_33:\n    tag_32:\n      swap1\n      0x00\n      mstore\n      keccak256(0x00, 0x20)\n      add\n      sload\n        /* \"ArrayReplaceFromEnd.sol\":216:219  arr */\n      0x00\n        /* \"ArrayReplaceFromEnd.sol\":220:225  index */\n      dup3\n        /* \"ArrayReplaceFromEnd.sol\":216:226  arr[index] */\n      dup2\n      sload\n      dup2\n      lt\n      tag_36\n      jumpi\n      tag_37\n      tag_34\n      jump\t// in\n    tag_37:\n    tag_36:\n      swap1\n      0x00\n      mstore\n      keccak256(0x00, 0x20)\n      add\n        /* \"ArrayReplaceFromEnd.sol\":216:244  arr[index]=arr[arr.length-1] */\n      dup2\n      swap1\n      sstore\n      pop\n        /* \"ArrayReplaceFromEnd.sol\":254:257  arr */\n      0x00\n        /* \"ArrayReplaceFromEnd.sol\":254:263  arr.pop() */\n      dup1\n      sload\n      dup1\n      tag_39\n      jumpi\n      tag_40\n      tag_41\n      jump\t// in\n    tag_40:\n    tag_39:\n      0x01\n      swap1\n      sub\n      dup2\n      dup2\n      swap1\n      0x00\n      mstore\n      keccak256(0x00, 0x20)\n      add\n      0x00\n      swap1\n      sstore\n      swap1\n      sstore\n        /* \"ArrayReplaceFromEnd.sol\":120:270  function remove(uint index)public{... */\n      pop\n      jump\t// out\n        /* \"ArrayReplaceFromEnd.sol\":92:112  uint256[] public arr */\n    tag_17:\n      0x00\n      dup2\n      dup2\n      sload\n      dup2\n      lt\n      tag_43\n      jumpi\n      0x00\n      dup1\n      revert\n    tag_43:\n      swap1\n      0x00\n      mstore\n      keccak256(0x00, 0x20)\n      add\n      0x00\n      swap2\n      pop\n      swap1\n      pop\n      sload\n      dup2\n      jump\t// out\n    tag_22:\n      dup3\n      dup1\n      sload\n      dup3\n      dup3\n      sstore\n      swap1\n      0x00\n      mstore\n      keccak256(0x00, 0x20)\n      swap1\n      dup2\n      add\n      swap3\n      dup3\n      iszero\n      tag_45\n      jumpi\n      swap2\n      0x20\n      mul\n      dup3\n      add\n    tag_46:\n      dup3\n      dup2\n      gt\n      iszero\n      tag_47\n      jumpi\n      dup3\n      mload\n      dup3\n      swap1\n      0xff\n      and\n      swap1\n      sstore\n      swap2\n      0x20\n      add\n      swap2\n      swap1\n      0x01\n      add\n      swap1\n      jump(tag_46)\n    tag_47:\n    tag_45:\n      pop\n      swap1\n      pop\n      tag_48\n      swap2\n      swap1\n      tag_49\n      jump\t// in\n    tag_48:\n      pop\n      swap1\n      jump\t// out\n    tag_49:\n    tag_50:\n      dup1\n      dup3\n      gt\n      iszero\n      tag_51\n      jumpi\n      0x00\n      dup2\n      0x00\n      swap1\n      sstore\n      pop\n      0x01\n      add\n      jump(tag_50)\n    tag_51:\n      pop\n      swap1\n      jump\t// out\n        /* \"#utility.yul\":88:205   */\n    tag_53:\n        /* \"#utility.yul\":197:198   */\n      0x00\n        /* \"#utility.yul\":194:195   */\n      dup1\n        /* \"#utility.yul\":187:199   */\n      revert\n        /* \"#utility.yul\":334:411   */\n    tag_55:\n        /* \"#utility.yul\":371:378   */\n      0x00\n        /* \"#utility.yul\":400:405   */\n      dup2\n        /* \"#utility.yul\":389:405   */\n      swap1\n      pop\n        /* \"#utility.yul\":334:411   */\n      swap2\n      swap1\n      pop\n      jump\t// out\n        /* \"#utility.yul\":417:539   */\n    tag_56:\n        /* \"#utility.yul\":490:514   */\n      tag_80\n        /* \"#utility.yul\":508:513   */\n      dup2\n        /* \"#utility.yul\":490:514   */\n      tag_55\n      jump\t// in\n    tag_80:\n        /* \"#utility.yul\":483:488   */\n      dup2\n        /* \"#utility.yul\":480:515   */\n      eq\n        /* \"#utility.yul\":470:533   */\n      tag_81\n      jumpi\n        /* \"#utility.yul\":529:530   */\n      0x00\n        /* \"#utility.yul\":526:527   */\n      dup1\n        /* \"#utility.yul\":519:531   */\n      revert\n        /* \"#utility.yul\":470:533   */\n    tag_81:\n        /* \"#utility.yul\":417:539   */\n      pop\n      jump\t// out\n        /* \"#utility.yul\":545:684   */\n    tag_57:\n        /* \"#utility.yul\":591:596   */\n      0x00\n        /* \"#utility.yul\":629:635   */\n      dup2\n        /* \"#utility.yul\":616:636   */\n      calldataload\n        /* \"#utility.yul\":607:636   */\n      swap1\n      pop\n        /* \"#utility.yul\":645:678   */\n      tag_83\n        /* \"#utility.yul\":672:677   */\n      dup2\n        /* \"#utility.yul\":645:678   */\n      tag_56\n      jump\t// in\n    tag_83:\n        /* \"#utility.yul\":545:684   */\n      swap3\n      swap2\n      pop\n      pop\n      jump\t// out\n        /* \"#utility.yul\":690:1019   */\n    tag_8:\n        /* \"#utility.yul\":749:755   */\n      0x00\n        /* \"#utility.yul\":798:800   */\n      0x20\n        /* \"#utility.yul\":786:795   */\n      dup3\n        /* \"#utility.yul\":777:784   */\n      dup5\n        /* \"#utility.yul\":773:796   */\n      sub\n        /* \"#utility.yul\":769:801   */\n      slt\n        /* \"#utility.yul\":766:885   */\n      iszero\n      tag_85\n      jumpi\n        /* \"#utility.yul\":804:883   */\n      tag_86\n      tag_53\n      jump\t// in\n    tag_86:\n        /* \"#utility.yul\":766:885   */\n    tag_85:\n        /* \"#utility.yul\":924:925   */\n      0x00\n        /* \"#utility.yul\":949:1002   */\n      tag_87\n        /* \"#utility.yul\":994:1001   */\n      dup5\n        /* \"#utility.yul\":985:991   */\n      dup3\n        /* \"#utility.yul\":974:983   */\n      dup6\n        /* \"#utility.yul\":970:992   */\n      add\n        /* \"#utility.yul\":949:1002   */\n      tag_57\n      jump\t// in\n    tag_87:\n        /* \"#utility.yul\":939:1002   */\n      swap2\n      pop\n        /* \"#utility.yul\":895:1012   */\n      pop\n        /* \"#utility.yul\":690:1019   */\n      swap3\n      swap2\n      pop\n      pop\n      jump\t// out\n        /* \"#utility.yul\":1025:1124   */\n    tag_58:\n        /* \"#utility.yul\":1077:1083   */\n      0x00\n        /* \"#utility.yul\":1111:1116   */\n      dup2\n        /* \"#utility.yul\":1105:1117   */\n      mload\n        /* \"#utility.yul\":1095:1117   */\n      swap1\n      pop\n        /* \"#utility.yul\":1025:1124   */\n      swap2\n      swap1\n      pop\n      jump\t// out\n        /* \"#utility.yul\":1130:1299   */\n    tag_59:\n        /* \"#utility.yul\":1214:1225   */\n      0x00\n        /* \"#utility.yul\":1248:1254   */\n      dup3\n        /* \"#utility.yul\":1243:1246   */\n      dup3\n        /* \"#utility.yul\":1236:1255   */\n      mstore\n        /* \"#utility.yul\":1288:1292   */\n      0x20\n        /* \"#utility.yul\":1283:1286   */\n      dup3\n        /* \"#utility.yul\":1279:1293   */\n      add\n        /* \"#utility.yul\":1264:1293   */\n      swap1\n      pop\n        /* \"#utility.yul\":1130:1299   */\n      swap3\n      swap2\n      pop\n      pop\n      jump\t// out\n        /* \"#utility.yul\":1305:1444   */\n    tag_60:\n        /* \"#utility.yul\":1394:1400   */\n      dup3\n        /* \"#utility.yul\":1389:1392   */\n      dup2\n        /* \"#utility.yul\":1384:1387   */\n      dup4\n        /* \"#utility.yul\":1378:1401   */\n      mcopy\n        /* \"#utility.yul\":1435:1436   */\n      0x00\n        /* \"#utility.yul\":1426:1432   */\n      dup4\n        /* \"#utility.yul\":1421:1424   */\n      dup4\n        /* \"#utility.yul\":1417:1433   */\n      add\n        /* \"#utility.yul\":1410:1437   */\n      mstore\n        /* \"#utility.yul\":1305:1444   */\n      pop\n      pop\n      pop\n      jump\t// out\n        /* \"#utility.yul\":1450:1552   */\n    tag_61:\n        /* \"#utility.yul\":1491:1497   */\n      0x00\n        /* \"#utility.yul\":1542:1544   */\n      0x1f\n        /* \"#utility.yul\":1538:1545   */\n      not\n        /* \"#utility.yul\":1533:1535   */\n      0x1f\n        /* \"#utility.yul\":1526:1531   */\n      dup4\n        /* \"#utility.yul\":1522:1536   */\n      add\n        /* \"#utility.yul\":1518:1546   */\n      and\n        /* \"#utility.yul\":1508:1546   */\n      swap1\n      pop\n        /* \"#utility.yul\":1450:1552   */\n      swap2\n      swap1\n      pop\n      jump\t// out\n        /* \"#utility.yul\":1558:1935   */\n    tag_62:\n        /* \"#utility.yul\":1646:1649   */\n      0x00\n        /* \"#utility.yul\":1674:1713   */\n      tag_93\n        /* \"#utility.yul\":1707:1712   */\n      dup3\n        /* \"#utility.yul\":1674:1713   */\n      tag_58\n      jump\t// in\n    tag_93:\n        /* \"#utility.yul\":1729:1800   */\n      tag_94\n        /* \"#utility.yul\":1793:1799   */\n      dup2\n        /* \"#utility.yul\":1788:1791   */\n      dup6\n        /* \"#utility.yul\":1729:1800   */\n      tag_59\n      jump\t// in\n    tag_94:\n        /* \"#utility.yul\":1722:1800   */\n      swap4\n      pop\n        /* \"#utility.yul\":1809:1874   */\n      tag_95\n        /* \"#utility.yul\":1867:1873   */\n      dup2\n        /* \"#utility.yul\":1862:1865   */\n      dup6\n        /* \"#utility.yul\":1855:1859   */\n      0x20\n        /* \"#utility.yul\":1848:1853   */\n      dup7\n        /* \"#utility.yul\":1844:1860   */\n      add\n        /* \"#utility.yul\":1809:1874   */\n      tag_60\n      jump\t// in\n    tag_95:\n        /* \"#utility.yul\":1899:1928   */\n      tag_96\n        /* \"#utility.yul\":1921:1927   */\n      dup2\n        /* \"#utility.yul\":1899:1928   */\n      tag_61\n      jump\t// in\n    tag_96:\n        /* \"#utility.yul\":1894:1897   */\n      dup5\n        /* \"#utility.yul\":1890:1929   */\n      add\n        /* \"#utility.yul\":1883:1929   */\n      swap2\n      pop\n        /* \"#utility.yul\":1650:1935   */\n      pop\n        /* \"#utility.yul\":1558:1935   */\n      swap3\n      swap2\n      pop\n      pop\n      jump\t// out\n        /* \"#utility.yul\":1941:2055   */\n    tag_63:\n        /* \"#utility.yul\":2008:2014   */\n      0x00\n        /* \"#utility.yul\":2042:2047   */\n      dup2\n        /* \"#utility.yul\":2036:2048   */\n      mload\n        /* \"#utility.yul\":2026:2048   */\n      swap1\n      pop\n        /* \"#utility.yul\":1941:2055   */\n      swap2\n      swap1\n      pop\n      jump\t// out\n        /* \"#utility.yul\":2061:2245   */\n    tag_64:\n        /* \"#utility.yul\":2160:2171   */\n      0x00\n        /* \"#utility.yul\":2194:2200   */\n      dup3\n        /* \"#utility.yul\":2189:2192   */\n      dup3\n        /* \"#utility.yul\":2182:2201   */\n      mstore\n        /* \"#utility.yul\":2234:2238   */\n      0x20\n        /* \"#utility.yul\":2229:2232   */\n      dup3\n        /* \"#utility.yul\":2225:2239   */\n      add\n        /* \"#utility.yul\":2210:2239   */\n      swap1\n      pop\n        /* \"#utility.yul\":2061:2245   */\n      swap3\n      swap2\n      pop\n      pop\n      jump\t// out\n        /* \"#utility.yul\":2251:2383   */\n    tag_65:\n        /* \"#utility.yul\":2318:2322   */\n      0x00\n        /* \"#utility.yul\":2341:2344   */\n      dup2\n        /* \"#utility.yul\":2333:2344   */\n      swap1\n      pop\n        /* \"#utility.yul\":2371:2375   */\n      0x20\n        /* \"#utility.yul\":2366:2369   */\n      dup3\n        /* \"#utility.yul\":2362:2376   */\n      add\n        /* \"#utility.yul\":2354:2376   */\n      swap1\n      pop\n        /* \"#utility.yul\":2251:2383   */\n      swap2\n      swap1\n      pop\n      jump\t// out\n        /* \"#utility.yul\":2389:2497   */\n    tag_66:\n        /* \"#utility.yul\":2466:2490   */\n      tag_101\n        /* \"#utility.yul\":2484:2489   */\n      dup2\n        /* \"#utility.yul\":2466:2490   */\n      tag_55\n      jump\t// in\n    tag_101:\n        /* \"#utility.yul\":2461:2464   */\n      dup3\n        /* \"#utility.yul\":2454:2491   */\n      mstore\n        /* \"#utility.yul\":2389:2497   */\n      pop\n      pop\n      jump\t// out\n        /* \"#utility.yul\":2503:2682   */\n    tag_67:\n        /* \"#utility.yul\":2572:2582   */\n      0x00\n        /* \"#utility.yul\":2593:2639   */\n      tag_103\n        /* \"#utility.yul\":2635:2638   */\n      dup4\n        /* \"#utility.yul\":2627:2633   */\n      dup4\n        /* \"#utility.yul\":2593:2639   */\n      tag_66\n      jump\t// in\n    tag_103:\n        /* \"#utility.yul\":2671:2675   */\n      0x20\n        /* \"#utility.yul\":2666:2669   */\n      dup4\n        /* \"#utility.yul\":2662:2676   */\n      add\n        /* \"#utility.yul\":2648:2676   */\n      swap1\n      pop\n        /* \"#utility.yul\":2503:2682   */\n      swap3\n      swap2\n      pop\n      pop\n      jump\t// out\n        /* \"#utility.yul\":2688:2801   */\n    tag_68:\n        /* \"#utility.yul\":2758:2762   */\n      0x00\n        /* \"#utility.yul\":2790:2794   */\n      0x20\n        /* \"#utility.yul\":2785:2788   */\n      dup3\n        /* \"#utility.yul\":2781:2795   */\n      add\n        /* \"#utility.yul\":2773:2795   */\n      swap1\n      pop\n        /* \"#utility.yul\":2688:2801   */\n      swap2\n      swap1\n      pop\n      jump\t// out\n        /* \"#utility.yul\":2837:3569   */\n    tag_69:\n        /* \"#utility.yul\":2956:2959   */\n      0x00\n        /* \"#utility.yul\":2985:3039   */\n      tag_106\n        /* \"#utility.yul\":3033:3038   */\n      dup3\n        /* \"#utility.yul\":2985:3039   */\n      tag_63\n      jump\t// in\n    tag_106:\n        /* \"#utility.yul\":3055:3141   */\n      tag_107\n        /* \"#utility.yul\":3134:3140   */\n      dup2\n        /* \"#utility.yul\":3129:3132   */\n      dup6\n        /* \"#utility.yul\":3055:3141   */\n      tag_64\n      jump\t// in\n    tag_107:\n        /* \"#utility.yul\":3048:3141   */\n      swap4\n      pop\n        /* \"#utility.yul\":3165:3221   */\n      tag_108\n        /* \"#utility.yul\":3215:3220   */\n      dup4\n        /* \"#utility.yul\":3165:3221   */\n      tag_65\n      jump\t// in\n    tag_108:\n        /* \"#utility.yul\":3244:3251   */\n      dup1\n        /* \"#utility.yul\":3275:3276   */\n      0x00\n        /* \"#utility.yul\":3260:3544   */\n    tag_109:\n        /* \"#utility.yul\":3285:3291   */\n      dup4\n        /* \"#utility.yul\":3282:3283   */\n      dup2\n        /* \"#utility.yul\":3279:3292   */\n      lt\n        /* \"#utility.yul\":3260:3544   */\n      iszero\n      tag_111\n      jumpi\n        /* \"#utility.yul\":3361:3367   */\n      dup2\n        /* \"#utility.yul\":3355:3368   */\n      mload\n        /* \"#utility.yul\":3388:3451   */\n      tag_112\n        /* \"#utility.yul\":3447:3450   */\n      dup9\n        /* \"#utility.yul\":3432:3445   */\n      dup3\n        /* \"#utility.yul\":3388:3451   */\n      tag_67\n      jump\t// in\n    tag_112:\n        /* \"#utility.yul\":3381:3451   */\n      swap8\n      pop\n        /* \"#utility.yul\":3474:3534   */\n      tag_113\n        /* \"#utility.yul\":3527:3533   */\n      dup4\n        /* \"#utility.yul\":3474:3534   */\n      tag_68\n      jump\t// in\n    tag_113:\n        /* \"#utility.yul\":3464:3534   */\n      swap3\n      pop\n        /* \"#utility.yul\":3320:3544   */\n      pop\n        /* \"#utility.yul\":3307:3308   */\n      0x01\n        /* \"#utility.yul\":3304:3305   */\n      dup2\n        /* \"#utility.yul\":3300:3309   */\n      add\n        /* \"#utility.yul\":3295:3309   */\n      swap1\n      pop\n        /* \"#utility.yul\":3260:3544   */\n      jump(tag_109)\n    tag_111:\n        /* \"#utility.yul\":3264:3278   */\n      pop\n        /* \"#utility.yul\":3560:3563   */\n      dup6\n        /* \"#utility.yul\":3553:3563   */\n      swap4\n      pop\n        /* \"#utility.yul\":2961:3569   */\n      pop\n      pop\n      pop\n        /* \"#utility.yul\":2837:3569   */\n      swap3\n      swap2\n      pop\n      pop\n      jump\t// out\n        /* \"#utility.yul\":3575:4149   */\n    tag_11:\n        /* \"#utility.yul\":3766:3770   */\n      0x00\n        /* \"#utility.yul\":3804:3806   */\n      0x40\n        /* \"#utility.yul\":3793:3802   */\n      dup3\n        /* \"#utility.yul\":3789:3807   */\n      add\n        /* \"#utility.yul\":3781:3807   */\n      swap1\n      pop\n        /* \"#utility.yul\":3853:3862   */\n      dup2\n        /* \"#utility.yul\":3847:3851   */\n      dup2\n        /* \"#utility.yul\":3843:3863   */\n      sub\n        /* \"#utility.yul\":3839:3840   */\n      0x00\n        /* \"#utility.yul\":3828:3837   */\n      dup4\n        /* \"#utility.yul\":3824:3841   */\n      add\n        /* \"#utility.yul\":3817:3864   */\n      mstore\n        /* \"#utility.yul\":3881:3959   */\n      tag_115\n        /* \"#utility.yul\":3954:3958   */\n      dup2\n        /* \"#utility.yul\":3945:3951   */\n      dup6\n        /* \"#utility.yul\":3881:3959   */\n      tag_62\n      jump\t// in\n    tag_115:\n        /* \"#utility.yul\":3873:3959   */\n      swap1\n      pop\n        /* \"#utility.yul\":4006:4015   */\n      dup2\n        /* \"#utility.yul\":4000:4004   */\n      dup2\n        /* \"#utility.yul\":3996:4016   */\n      sub\n        /* \"#utility.yul\":3991:3993   */\n      0x20\n        /* \"#utility.yul\":3980:3989   */\n      dup4\n        /* \"#utility.yul\":3976:3994   */\n      add\n        /* \"#utility.yul\":3969:4017   */\n      mstore\n        /* \"#utility.yul\":4034:4142   */\n      tag_116\n        /* \"#utility.yul\":4137:4141   */\n      dup2\n        /* \"#utility.yul\":4128:4134   */\n      dup5\n        /* \"#utility.yul\":4034:4142   */\n      tag_69\n      jump\t// in\n    tag_116:\n        /* \"#utility.yul\":4026:4142   */\n      swap1\n      pop\n        /* \"#utility.yul\":3575:4149   */\n      swap4\n      swap3\n      pop\n      pop\n      pop\n      jump\t// out\n        /* \"#utility.yul\":4155:4273   */\n    tag_70:\n        /* \"#utility.yul\":4242:4266   */\n      tag_118\n        /* \"#utility.yul\":4260:4265   */\n      dup2\n        /* \"#utility.yul\":4242:4266   */\n      tag_55\n      jump\t// in\n    tag_118:\n        /* \"#utility.yul\":4237:4240   */\n      dup3\n        /* \"#utility.yul\":4230:4267   */\n      mstore\n        /* \"#utility.yul\":4155:4273   */\n      pop\n      pop\n      jump\t// out\n        /* \"#utility.yul\":4279:4501   */\n    tag_19:\n        /* \"#utility.yul\":4372:4376   */\n      0x00\n        /* \"#utility.yul\":4410:4412   */\n      0x20\n        /* \"#utility.yul\":4399:4408   */\n      dup3\n        /* \"#utility.yul\":4395:4413   */\n      add\n        /* \"#utility.yul\":4387:4413   */\n      swap1\n      pop\n        /* \"#utility.yul\":4423:4494   */\n      tag_120\n        /* \"#utility.yul\":4491:4492   */\n      0x00\n        /* \"#utility.yul\":4480:4489   */\n      dup4\n        /* \"#utility.yul\":4476:4493   */\n      add\n        /* \"#utility.yul\":4467:4473   */\n      dup5\n        /* \"#utility.yul\":4423:4494   */\n      tag_70\n      jump\t// in\n    tag_120:\n        /* \"#utility.yul\":4279:4501   */\n      swap3\n      swap2\n      pop\n      pop\n      jump\t// out\n        /* \"#utility.yul\":4507:4671   */\n    tag_71:\n        /* \"#utility.yul\":4647:4663   */\n      0x6f7574206f6620626f756e647279000000000000000000000000000000000000\n        /* \"#utility.yul\":4643:4644   */\n      0x00\n        /* \"#utility.yul\":4635:4641   */\n      dup3\n        /* \"#utility.yul\":4631:4645   */\n      add\n        /* \"#utility.yul\":4624:4664   */\n      mstore\n        /* \"#utility.yul\":4507:4671   */\n      pop\n      jump\t// out\n        /* \"#utility.yul\":4677:5043   */\n    tag_72:\n        /* \"#utility.yul\":4819:4822   */\n      0x00\n        /* \"#utility.yul\":4840:4907   */\n      tag_123\n        /* \"#utility.yul\":4904:4906   */\n      0x0e\n        /* \"#utility.yul\":4899:4902   */\n      dup4\n        /* \"#utility.yul\":4840:4907   */\n      tag_59\n      jump\t// in\n    tag_123:\n        /* \"#utility.yul\":4833:4907   */\n      swap2\n      pop\n        /* \"#utility.yul\":4916:5009   */\n      tag_124\n        /* \"#utility.yul\":5005:5008   */\n      dup3\n        /* \"#utility.yul\":4916:5009   */\n      tag_71\n      jump\t// in\n    tag_124:\n        /* \"#utility.yul\":5034:5036   */\n      0x20\n        /* \"#utility.yul\":5029:5032   */\n      dup3\n        /* \"#utility.yul\":5025:5037   */\n      add\n        /* \"#utility.yul\":5018:5037   */\n      swap1\n      pop\n        /* \"#utility.yul\":4677:5043   */\n      swap2\n      swap1\n      pop\n      jump\t// out\n        /* \"#utility.yul\":5049:5468   */\n    tag_29:\n        /* \"#utility.yul\":5215:5219   */\n      0x00\n        /* \"#utility.yul\":5253:5255   */\n      0x20\n        /* \"#utility.yul\":5242:5251   */\n      dup3\n        /* \"#utility.yul\":5238:5256   */\n      add\n        /* \"#utility.yul\":5230:5256   */\n      swap1\n      pop\n        /* \"#utility.yul\":5302:5311   */\n      dup2\n        /* \"#utility.yul\":5296:5300   */\n      dup2\n        /* \"#utility.yul\":5292:5312   */\n      sub\n        /* \"#utility.yul\":5288:5289   */\n      0x00\n        /* \"#utility.yul\":5277:5286   */\n      dup4\n        /* \"#utility.yul\":5273:5290   */\n      add\n        /* \"#utility.yul\":5266:5313   */\n      mstore\n        /* \"#utility.yul\":5330:5461   */\n      tag_126\n        /* \"#utility.yul\":5456:5460   */\n      dup2\n        /* \"#utility.yul\":5330:5461   */\n      tag_72\n      jump\t// in\n    tag_126:\n        /* \"#utility.yul\":5322:5461   */\n      swap1\n      pop\n        /* \"#utility.yul\":5049:5468   */\n      swap2\n      swap1\n      pop\n      jump\t// out\n        /* \"#utility.yul\":5474:5654   */\n    tag_73:\n        /* \"#utility.yul\":5522:5599   */\n      0x4e487b7100000000000000000000000000000000000000000000000000000000\n        /* \"#utility.yul\":5519:5520   */\n      0x00\n        /* \"#utility.yul\":5512:5600   */\n      mstore\n        /* \"#utility.yul\":5619:5623   */\n      0x11\n        /* \"#utility.yul\":5616:5617   */\n      0x04\n        /* \"#utility.yul\":5609:5624   */\n      mstore\n        /* \"#utility.yul\":5643:5647   */\n      0x24\n        /* \"#utility.yul\":5640:5641   */\n      0x00\n        /* \"#utility.yul\":5633:5648   */\n      revert\n        /* \"#utility.yul\":5660:5854   */\n    tag_31:\n        /* \"#utility.yul\":5700:5704   */\n      0x00\n        /* \"#utility.yul\":5720:5740   */\n      tag_129\n        /* \"#utility.yul\":5738:5739   */\n      dup3\n        /* \"#utility.yul\":5720:5740   */\n      tag_55\n      jump\t// in\n    tag_129:\n        /* \"#utility.yul\":5715:5740   */\n      swap2\n      pop\n        /* \"#utility.yul\":5754:5774   */\n      tag_130\n        /* \"#utility.yul\":5772:5773   */\n      dup4\n        /* \"#utility.yul\":5754:5774   */\n      tag_55\n      jump\t// in\n    tag_130:\n        /* \"#utility.yul\":5749:5774   */\n      swap3\n      pop\n        /* \"#utility.yul\":5798:5799   */\n      dup3\n        /* \"#utility.yul\":5795:5796   */\n      dup3\n        /* \"#utility.yul\":5791:5800   */\n      sub\n        /* \"#utility.yul\":5783:5800   */\n      swap1\n      pop\n        /* \"#utility.yul\":5822:5823   */\n      dup2\n        /* \"#utility.yul\":5816:5820   */\n      dup2\n        /* \"#utility.yul\":5813:5824   */\n      gt\n        /* \"#utility.yul\":5810:5847   */\n      iszero\n      tag_131\n      jumpi\n        /* \"#utility.yul\":5827:5845   */\n      tag_132\n      tag_73\n      jump\t// in\n    tag_132:\n        /* \"#utility.yul\":5810:5847   */\n    tag_131:\n        /* \"#utility.yul\":5660:5854   */\n      swap3\n      swap2\n      pop\n      pop\n      jump\t// out\n        /* \"#utility.yul\":5860:6040   */\n    tag_34:\n        /* \"#utility.yul\":5908:5985   */\n      0x4e487b7100000000000000000000000000000000000000000000000000000000\n        /* \"#utility.yul\":5905:5906   */\n      0x00\n        /* \"#utility.yul\":5898:5986   */\n      mstore\n        /* \"#utility.yul\":6005:6009   */\n      0x32\n        /* \"#utility.yul\":6002:6003   */\n      0x04\n        /* \"#utility.yul\":5995:6010   */\n      mstore\n        /* \"#utility.yul\":6029:6033   */\n      0x24\n        /* \"#utility.yul\":6026:6027   */\n      0x00\n        /* \"#utility.yul\":6019:6034   */\n      revert\n        /* \"#utility.yul\":6046:6226   */\n    tag_41:\n        /* \"#utility.yul\":6094:6171   */\n      0x4e487b7100000000000000000000000000000000000000000000000000000000\n        /* \"#utility.yul\":6091:6092   */\n      0x00\n        /* \"#utility.yul\":6084:6172   */\n      mstore\n        /* \"#utility.yul\":6191:6195   */\n      0x31\n        /* \"#utility.yul\":6188:6189   */\n      0x04\n        /* \"#utility.yul\":6181:6196   */\n      mstore\n        /* \"#utility.yul\":6215:6219   */\n      0x24\n        /* \"#utility.yul\":6212:6213   */\n      0x00\n        /* \"#utility.yul\":6205:6220   */\n      revert\n\n    auxdata: 0xa264697066735822122005fbb9158083afdf96f97f75c49c6352fe026b93b6ef111a50c832f5e30fc53464736f6c634300081a0033\n}\n",
				"bytecode": {
					"linkReferences": {},
					"object": "6080604052348015600e575f80fd5b5061061e8061001c5f395ff3fe608060405234801561000f575f80fd5b506004361061003f575f3560e01c806329e99f07146100435780634cc822151461007457806371e5ee5f14610090575b5f80fd5b61005d60048036038101906100589190610317565b6100c0565b60405161006b929190610469565b60405180910390f35b61008e60048036038101906100899190610317565b61019e565b005b6100aa60048036038101906100a59190610317565b610256565b6040516100b791906104ad565b60405180910390f35b6060806040518060800160405280600160ff168152602001600260ff168152602001600360ff168152602001600460ff168152505f906004610103929190610275565b5061010d8361019e565b5f6040518060400160405280600781526020017f7375636365737300000000000000000000000000000000000000000000000000815250908080548060200260200160405190810160405280929190818152602001828054801561018e57602002820191905f5260205f20905b81548152602001906001019080831161017a575b5050505050905091509150915091565b5f8054905081106101e4576040517f08c379a00000000000000000000000000000000000000000000000000000000081526004016101db90610510565b60405180910390fd5b5f60015f805490506101f6919061055b565b815481106102075761020661058e565b5b905f5260205f2001545f82815481106102235761022261058e565b5b905f5260205f2001819055505f8054806102405761023f6105bb565b5b600190038181905f5260205f20015f9055905550565b5f8181548110610264575f80fd5b905f5260205f20015f915090505481565b828054828255905f5260205f209081019282156102b4579160200282015b828111156102b3578251829060ff16905591602001919060010190610293565b5b5090506102c191906102c5565b5090565b5b808211156102dc575f815f9055506001016102c6565b5090565b5f80fd5b5f819050919050565b6102f6816102e4565b8114610300575f80fd5b50565b5f81359050610311816102ed565b92915050565b5f6020828403121561032c5761032b6102e0565b5b5f61033984828501610303565b91505092915050565b5f81519050919050565b5f82825260208201905092915050565b8281835e5f83830152505050565b5f601f19601f8301169050919050565b5f61038482610342565b61038e818561034c565b935061039e81856020860161035c565b6103a78161036a565b840191505092915050565b5f81519050919050565b5f82825260208201905092915050565b5f819050602082019050919050565b6103e4816102e4565b82525050565b5f6103f583836103db565b60208301905092915050565b5f602082019050919050565b5f610417826103b2565b61042181856103bc565b935061042c836103cc565b805f5b8381101561045c57815161044388826103ea565b975061044e83610401565b92505060018101905061042f565b5085935050505092915050565b5f6040820190508181035f830152610481818561037a565b90508181036020830152610495818461040d565b90509392505050565b6104a7816102e4565b82525050565b5f6020820190506104c05f83018461049e565b92915050565b7f6f7574206f6620626f756e6472790000000000000000000000000000000000005f82015250565b5f6104fa600e8361034c565b9150610505826104c6565b602082019050919050565b5f6020820190508181035f830152610527816104ee565b9050919050565b7f4e487b71000000000000000000000000000000000000000000000000000000005f52601160045260245ffd5b5f610565826102e4565b9150610570836102e4565b92508282039050818111156105885761058761052e565b5b92915050565b7f4e487b71000000000000000000000000000000000000000000000000000000005f52603260045260245ffd5b7f4e487b71000000000000000000000000000000000000000000000000000000005f52603160045260245ffdfea264697066735822122005fbb9158083afdf96f97f75c49c6352fe026b93b6ef111a50c832f5e30fc53464736f6c634300081a0033",
					"opcodes": "PUSH1 0x80 PUSH1 0x40 MSTORE CALLVALUE DUP1 ISZERO PUSH1 0xE JUMPI PUSH0 DUP1 REVERT JUMPDEST POP PUSH2 0x61E DUP1 PUSH2 0x1C PUSH0 CODECOPY PUSH0 RETURN INVALID PUSH1 0x80 PUSH1 0x40 MSTORE CALLVALUE DUP1 ISZERO PUSH2 0xF JUMPI PUSH0 DUP1 REVERT JUMPDEST POP PUSH1 0x4 CALLDATASIZE LT PUSH2 0x3F JUMPI PUSH0 CALLDATALOAD PUSH1 0xE0 SHR DUP1 PUSH4 0x29E99F07 EQ PUSH2 0x43 JUMPI DUP1 PUSH4 0x4CC82215 EQ PUSH2 0x74 JUMPI DUP1 PUSH4 0x71E5EE5F EQ PUSH2 0x90 JUMPI JUMPDEST PUSH0 DUP1 REVERT JUMPDEST PUSH2 0x5D PUSH1 0x4 DUP1 CALLDATASIZE SUB DUP2 ADD SWAP1 PUSH2 0x58 SWAP2 SWAP1 PUSH2 0x317 JUMP JUMPDEST PUSH2 0xC0 JUMP JUMPDEST PUSH1 0x40 MLOAD PUSH2 0x6B SWAP3 SWAP2 SWAP1 PUSH2 0x469 JUMP JUMPDEST PUSH1 0x40 MLOAD DUP1 SWAP2 SUB SWAP1 RETURN JUMPDEST PUSH2 0x8E PUSH1 0x4 DUP1 CALLDATASIZE SUB DUP2 ADD SWAP1 PUSH2 0x89 SWAP2 SWAP1 PUSH2 0x317 JUMP JUMPDEST PUSH2 0x19E JUMP JUMPDEST STOP JUMPDEST PUSH2 0xAA PUSH1 0x4 DUP1 CALLDATASIZE SUB DUP2 ADD SWAP1 PUSH2 0xA5 SWAP2 SWAP1 PUSH2 0x317 JUMP JUMPDEST PUSH2 0x256 JUMP JUMPDEST PUSH1 0x40 MLOAD PUSH2 0xB7 SWAP2 SWAP1 PUSH2 0x4AD JUMP JUMPDEST PUSH1 0x40 MLOAD DUP1 SWAP2 SUB SWAP1 RETURN JUMPDEST PUSH1 0x60 DUP1 PUSH1 0x40 MLOAD DUP1 PUSH1 0x80 ADD PUSH1 0x40 MSTORE DUP1 PUSH1 0x1 PUSH1 0xFF AND DUP2 MSTORE PUSH1 0x20 ADD PUSH1 0x2 PUSH1 0xFF AND DUP2 MSTORE PUSH1 0x20 ADD PUSH1 0x3 PUSH1 0xFF AND DUP2 MSTORE PUSH1 0x20 ADD PUSH1 0x4 PUSH1 0xFF AND DUP2 MSTORE POP PUSH0 SWAP1 PUSH1 0x4 PUSH2 0x103 SWAP3 SWAP2 SWAP1 PUSH2 0x275 JUMP JUMPDEST POP PUSH2 0x10D DUP4 PUSH2 0x19E JUMP JUMPDEST PUSH0 PUSH1 0x40 MLOAD DUP1 PUSH1 0x40 ADD PUSH1 0x40 MSTORE DUP1 PUSH1 0x7 DUP2 MSTORE PUSH1 0x20 ADD PUSH32 0x7375636365737300000000000000000000000000000000000000000000000000 DUP2 MSTORE POP SWAP1 DUP1 DUP1 SLOAD DUP1 PUSH1 0x20 MUL PUSH1 0x20 ADD PUSH1 0x40 MLOAD SWAP1 DUP2 ADD PUSH1 0x40 MSTORE DUP1 SWAP3 SWAP2 SWAP1 DUP2 DUP2 MSTORE PUSH1 0x20 ADD DUP3 DUP1 SLOAD DUP1 ISZERO PUSH2 0x18E JUMPI PUSH1 0x20 MUL DUP3 ADD SWAP2 SWAP1 PUSH0 MSTORE PUSH1 0x20 PUSH0 KECCAK256 SWAP1 JUMPDEST DUP2 SLOAD DUP2 MSTORE PUSH1 0x20 ADD SWAP1 PUSH1 0x1 ADD SWAP1 DUP1 DUP4 GT PUSH2 0x17A JUMPI JUMPDEST POP POP POP POP POP SWAP1 POP SWAP2 POP SWAP2 POP SWAP2 POP SWAP2 JUMP JUMPDEST PUSH0 DUP1 SLOAD SWAP1 POP DUP2 LT PUSH2 0x1E4 JUMPI PUSH1 0x40 MLOAD PUSH32 0x8C379A000000000000000000000000000000000000000000000000000000000 DUP2 MSTORE PUSH1 0x4 ADD PUSH2 0x1DB SWAP1 PUSH2 0x510 JUMP JUMPDEST PUSH1 0x40 MLOAD DUP1 SWAP2 SUB SWAP1 REVERT JUMPDEST PUSH0 PUSH1 0x1 PUSH0 DUP1 SLOAD SWAP1 POP PUSH2 0x1F6 SWAP2 SWAP1 PUSH2 0x55B JUMP JUMPDEST DUP2 SLOAD DUP2 LT PUSH2 0x207 JUMPI PUSH2 0x206 PUSH2 0x58E JUMP JUMPDEST JUMPDEST SWAP1 PUSH0 MSTORE PUSH1 0x20 PUSH0 KECCAK256 ADD SLOAD PUSH0 DUP3 DUP2 SLOAD DUP2 LT PUSH2 0x223 JUMPI PUSH2 0x222 PUSH2 0x58E JUMP JUMPDEST JUMPDEST SWAP1 PUSH0 MSTORE PUSH1 0x20 PUSH0 KECCAK256 ADD DUP2 SWAP1 SSTORE POP PUSH0 DUP1 SLOAD DUP1 PUSH2 0x240 JUMPI PUSH2 0x23F PUSH2 0x5BB JUMP JUMPDEST JUMPDEST PUSH1 0x1 SWAP1 SUB DUP2 DUP2 SWAP1 PUSH0 MSTORE PUSH1 0x20 PUSH0 KECCAK256 ADD PUSH0 SWAP1 SSTORE SWAP1 SSTORE POP JUMP JUMPDEST PUSH0 DUP2 DUP2 SLOAD DUP2 LT PUSH2 0x264 JUMPI PUSH0 DUP1 REVERT JUMPDEST SWAP1 PUSH0 MSTORE PUSH1 0x20 PUSH0 KECCAK256 ADD PUSH0 SWAP2 POP SWAP1 POP SLOAD DUP2 JUMP JUMPDEST DUP3 DUP1 SLOAD DUP3 DUP3 SSTORE SWAP1 PUSH0 MSTORE PUSH1 0x20 PUSH0 KECCAK256 SWAP1 DUP2 ADD SWAP3 DUP3 ISZERO PUSH2 0x2B4 JUMPI SWAP2 PUSH1 0x20 MUL DUP3 ADD JUMPDEST DUP3 DUP2 GT ISZERO PUSH2 0x2B3 JUMPI DUP3 MLOAD DUP3 SWAP1 PUSH1 0xFF AND SWAP1 SSTORE SWAP2 PUSH1 0x20 ADD SWAP2 SWAP1 PUSH1 0x1 ADD SWAP1 PUSH2 0x293 JUMP JUMPDEST JUMPDEST POP SWAP1 POP PUSH2 0x2C1 SWAP2 SWAP1 PUSH2 0x2C5 JUMP JUMPDEST POP SWAP1 JUMP JUMPDEST JUMPDEST DUP1 DUP3 GT ISZERO PUSH2 0x2DC JUMPI PUSH0 DUP2 PUSH0 SWAP1 SSTORE POP PUSH1 0x1 ADD PUSH2 0x2C6 JUMP JUMPDEST POP SWAP1 JUMP JUMPDEST PUSH0 DUP1 REVERT JUMPDEST PUSH0 DUP2 SWAP1 POP SWAP2 SWAP1 POP JUMP JUMPDEST PUSH2 0x2F6 DUP2 PUSH2 0x2E4 JUMP JUMPDEST DUP2 EQ PUSH2 0x300 JUMPI PUSH0 DUP1 REVERT JUMPDEST POP JUMP JUMPDEST PUSH0 DUP2 CALLDATALOAD SWAP1 POP PUSH2 0x311 DUP2 PUSH2 0x2ED JUMP JUMPDEST SWAP3 SWAP2 POP POP JUMP JUMPDEST PUSH0 PUSH1 0x20 DUP3 DUP5 SUB SLT ISZERO PUSH2 0x32C JUMPI PUSH2 0x32B PUSH2 0x2E0 JUMP JUMPDEST JUMPDEST PUSH0 PUSH2 0x339 DUP5 DUP3 DUP6 ADD PUSH2 0x303 JUMP JUMPDEST SWAP2 POP POP SWAP3 SWAP2 POP POP JUMP JUMPDEST PUSH0 DUP2 MLOAD SWAP1 POP SWAP2 SWAP1 POP JUMP JUMPDEST PUSH0 DUP3 DUP3 MSTORE PUSH1 0x20 DUP3 ADD SWAP1 POP SWAP3 SWAP2 POP POP JUMP JUMPDEST DUP3 DUP2 DUP4 MCOPY PUSH0 DUP4 DUP4 ADD MSTORE POP POP POP JUMP JUMPDEST PUSH0 PUSH1 0x1F NOT PUSH1 0x1F DUP4 ADD AND SWAP1 POP SWAP2 SWAP1 POP JUMP JUMPDEST PUSH0 PUSH2 0x384 DUP3 PUSH2 0x342 JUMP JUMPDEST PUSH2 0x38E DUP2 DUP6 PUSH2 0x34C JUMP JUMPDEST SWAP4 POP PUSH2 0x39E DUP2 DUP6 PUSH1 0x20 DUP7 ADD PUSH2 0x35C JUMP JUMPDEST PUSH2 0x3A7 DUP2 PUSH2 0x36A JUMP JUMPDEST DUP5 ADD SWAP2 POP POP SWAP3 SWAP2 POP POP JUMP JUMPDEST PUSH0 DUP2 MLOAD SWAP1 POP SWAP2 SWAP1 POP JUMP JUMPDEST PUSH0 DUP3 DUP3 MSTORE PUSH1 0x20 DUP3 ADD SWAP1 POP SWAP3 SWAP2 POP POP JUMP JUMPDEST PUSH0 DUP2 SWAP1 POP PUSH1 0x20 DUP3 ADD SWAP1 POP SWAP2 SWAP1 POP JUMP JUMPDEST PUSH2 0x3E4 DUP2 PUSH2 0x2E4 JUMP JUMPDEST DUP3 MSTORE POP POP JUMP JUMPDEST PUSH0 PUSH2 0x3F5 DUP4 DUP4 PUSH2 0x3DB JUMP JUMPDEST PUSH1 0x20 DUP4 ADD SWAP1 POP SWAP3 SWAP2 POP POP JUMP JUMPDEST PUSH0 PUSH1 0x20 DUP3 ADD SWAP1 POP SWAP2 SWAP1 POP JUMP JUMPDEST PUSH0 PUSH2 0x417 DUP3 PUSH2 0x3B2 JUMP JUMPDEST PUSH2 0x421 DUP2 DUP6 PUSH2 0x3BC JUMP JUMPDEST SWAP4 POP PUSH2 0x42C DUP4 PUSH2 0x3CC JUMP JUMPDEST DUP1 PUSH0 JUMPDEST DUP4 DUP2 LT ISZERO PUSH2 0x45C JUMPI DUP2 MLOAD PUSH2 0x443 DUP9 DUP3 PUSH2 0x3EA JUMP JUMPDEST SWAP8 POP PUSH2 0x44E DUP4 PUSH2 0x401 JUMP JUMPDEST SWAP3 POP POP PUSH1 0x1 DUP2 ADD SWAP1 POP PUSH2 0x42F JUMP JUMPDEST POP DUP6 SWAP4 POP POP POP POP SWAP3 SWAP2 POP POP JUMP JUMPDEST PUSH0 PUSH1 0x40 DUP3 ADD SWAP1 POP DUP2 DUP2 SUB PUSH0 DUP4 ADD MSTORE PUSH2 0x481 DUP2 DUP6 PUSH2 0x37A JUMP JUMPDEST SWAP1 POP DUP2 DUP2 SUB PUSH1 0x20 DUP4 ADD MSTORE PUSH2 0x495 DUP2 DUP5 PUSH2 0x40D JUMP JUMPDEST SWAP1 POP SWAP4 SWAP3 POP POP POP JUMP JUMPDEST PUSH2 0x4A7 DUP2 PUSH2 0x2E4 JUMP JUMPDEST DUP3 MSTORE POP POP JUMP JUMPDEST PUSH0 PUSH1 0x20 DUP3 ADD SWAP1 POP PUSH2 0x4C0 PUSH0 DUP4 ADD DUP5 PUSH2 0x49E JUMP JUMPDEST SWAP3 SWAP2 POP POP JUMP JUMPDEST PUSH32 0x6F7574206F6620626F756E647279000000000000000000000000000000000000 PUSH0 DUP3 ADD MSTORE POP JUMP JUMPDEST PUSH0 PUSH2 0x4FA PUSH1 0xE DUP4 PUSH2 0x34C JUMP JUMPDEST SWAP2 POP PUSH2 0x505 DUP3 PUSH2 0x4C6 JUMP JUMPDEST PUSH1 0x20 DUP3 ADD SWAP1 POP SWAP2 SWAP1 POP JUMP JUMPDEST PUSH0 PUSH1 0x20 DUP3 ADD SWAP1 POP DUP2 DUP2 SUB PUSH0 DUP4 ADD MSTORE PUSH2 0x527 DUP2 PUSH2 0x4EE JUMP JUMPDEST SWAP1 POP SWAP2 SWAP1 POP JUMP JUMPDEST PUSH32 0x4E487B7100000000000000000000000000000000000000000000000000000000 PUSH0 MSTORE PUSH1 0x11 PUSH1 0x4 MSTORE PUSH1 0x24 PUSH0 REVERT JUMPDEST PUSH0 PUSH2 0x565 DUP3 PUSH2 0x2E4 JUMP JUMPDEST SWAP2 POP PUSH2 0x570 DUP4 PUSH2 0x2E4 JUMP JUMPDEST SWAP3 POP DUP3 DUP3 SUB SWAP1 POP DUP2 DUP2 GT ISZERO PUSH2 0x588 JUMPI PUSH2 0x587 PUSH2 0x52E JUMP JUMPDEST JUMPDEST SWAP3 SWAP2 POP POP JUMP JUMPDEST PUSH32 0x4E487B7100000000000000000000000000000000000000000000000000000000 PUSH0 MSTORE PUSH1 0x32 PUSH1 0x4 MSTORE PUSH1 0x24 PUSH0 REVERT JUMPDEST PUSH32 0x4E487B7100000000000000000000000000000000000000000000000000000000 PUSH0 MSTORE PUSH1 0x31 PUSH1 0x4 MSTORE PUSH1 0x24 PUSH0 REVERT INVALID LOG2 PUSH5 0x6970667358 0x22 SLT KECCAK256 SDIV 0xFB 0xB9 ISZERO DUP1 DUP4 0xAF 0xDF SWAP7 0xF9 PUSH32 0x75C49C6352FE026B93B6EF111A50C832F5E30FC53464736F6C634300081A0033 "
				},
				"gasEstimates": {
					"creation": {
						"codeDepositCost": "313200",
						"executionCost": "347",
						"totalCost": "313547"
					},
					"external": {
						"arr(uint256)": "infinite",
						"remove(uint256)": "infinite",
						"test(uint256)": "infinite"
					}
				},
				"methodIdentifiers": {
					"arr(uint256)": "71e5ee5f",
					"remove(uint256)": "4cc82215",
					"test(uint256)": "29e99f07"
				}
			},
			"storageLayout": {
				"storage": [
					{
						"astId": 4,
						"contract": "ArrayReplaceFromEnd.sol:ArrayReplaceFromEnd",
						"label": "arr",
						"offset": 0,
						"slot": "0",
						"type": "t_array(t_uint256)dyn_storage"
					}
				],
				"types": {
					"t_array(t_uint256)dyn_storage": {
						"base": "t_uint256",
						"encoding": "dynamic_array",
						"label": "uint256[]",
						"numberOfBytes": "32"
					},
					"t_uint256": {
						"encoding": "inplace",
						"label": "uint256",
						"numberOfBytes": "32"
					}
				}
			},
			"userdoc": {
				"kind": "user",
				"methods": {},
				"version": 1
			}
		}
	}
}