{
	"MsgData.sol": {
		"MsgData": {
			"abi": [
				{
					"anonymous": false,
					"inputs": [
						{
							"indexed": false,
							"internalType": "bytes",
							"name": "data",
							"type": "bytes"
						}
					],
					"name": "Log",
					"type": "event"
				},
				{
					"inputs": [
						{
							"internalType": "uint256",
							"name": "a",
							"type": "uint256"
						},
						{
							"internalType": "uint256",
							"name": "b",
							"type": "uint256"
						}
					],
					"name": "Add",
					"outputs": [
						{
							"internalType": "uint256",
							"name": "",
							"type": "uint256"
						},
						{
							"internalType": "bytes4",
							"name": "",
							"type": "bytes4"
						},
						{
							"internalType": "bytes4",
							"name": "",
							"type": "bytes4"
						}
					],
					"stateMutability": "nonpayable",
					"type": "function"
				}
			],
			"devdoc": {
				"kind": "dev",
				"methods": {},
				"version": 1
			},
			"evm": {
				"assembly": "    /* \"MsgData.sol\":57:384  contract MsgData{... */\n  mstore(0x40, 0x80)\n  callvalue\n  dup1\n  iszero\n  tag_1\n  jumpi\n  0x00\n  dup1\n  revert\ntag_1:\n  pop\n  dataSize(sub_0)\n  dup1\n  dataOffset(sub_0)\n  0x00\n  codecopy\n  0x00\n  return\nstop\n\nsub_0: assembly {\n        /* \"MsgData.sol\":57:384  contract MsgData{... */\n      mstore(0x40, 0x80)\n      callvalue\n      dup1\n      iszero\n      tag_1\n      jumpi\n      0x00\n      dup1\n      revert\n    tag_1:\n      pop\n      jumpi(tag_2, lt(calldatasize, 0x04))\n      shr(0xe0, calldataload(0x00))\n      dup1\n      0x7afbe4f1\n      eq\n      tag_3\n      jumpi\n    tag_2:\n      0x00\n      dup1\n      revert\n        /* \"MsgData.sol\":109:382  function Add(uint a,uint b)public returns(uint,bytes4,bytes4){... */\n    tag_3:\n      tag_4\n      0x04\n      dup1\n      calldatasize\n      sub\n      dup2\n      add\n      swap1\n      tag_5\n      swap2\n      swap1\n      tag_6\n      jump\t// in\n    tag_5:\n      tag_7\n      jump\t// in\n    tag_4:\n      mload(0x40)\n      tag_8\n      swap4\n      swap3\n      swap2\n      swap1\n      tag_9\n      jump\t// in\n    tag_8:\n      mload(0x40)\n      dup1\n      swap2\n      sub\n      swap1\n      return\n    tag_7:\n        /* \"MsgData.sol\":151:155  uint */\n      0x00\n        /* \"MsgData.sol\":156:162  bytes4 */\n      dup1\n        /* \"MsgData.sol\":163:169  bytes4 */\n      0x00\n        /* \"MsgData.sol\":186:199  Log(msg.data) */\n      0xafabcf2dd47e06a477a89e49c03f8ebe8e0a7e94f775b25bbb24227c9d0110b2\n        /* \"MsgData.sol\":190:198  msg.data */\n      0x00\n      calldatasize\n        /* \"MsgData.sol\":186:199  Log(msg.data) */\n      mload(0x40)\n      tag_11\n      swap3\n      swap2\n      swap1\n      tag_12\n      jump\t// in\n    tag_11:\n      mload(0x40)\n      dup1\n      swap2\n      sub\n      swap1\n      log1\n        /* \"MsgData.sol\":219:220  b */\n      dup4\n        /* \"MsgData.sol\":217:218  a */\n      dup6\n        /* \"MsgData.sol\":217:220  a+b */\n      tag_13\n      swap2\n      swap1\n      tag_14\n      jump\t// in\n    tag_13:\n        /* \"MsgData.sol\":238:267  bytes(\"Add(uint256,uint256)\") */\n      mload(0x40)\n      dup1\n      0x40\n      add\n      0x40\n      mstore\n      dup1\n      0x14\n      dup2\n      mstore\n      0x20\n      add\n      0x4164642875696e743235362c75696e7432353629000000000000000000000000\n      dup2\n      mstore\n      pop\n        /* \"MsgData.sol\":228:268  keccak256(bytes(\"Add(uint256,uint256)\")) */\n      dup1\n      mload\n      swap1\n      0x20\n      add\n      keccak256\n        /* \"MsgData.sol\":287:310  bytes(\"Add(uint,uint)\") */\n      mload(0x40)\n      dup1\n      0x40\n      add\n      0x40\n      mstore\n      dup1\n      0x0e\n      dup2\n      mstore\n      0x20\n      add\n      0x4164642875696e742c75696e7429000000000000000000000000000000000000\n      dup2\n      mstore\n      pop\n        /* \"MsgData.sol\":277:311  keccak256(bytes(\"Add(uint,uint)\")) */\n      dup1\n      mload\n      swap1\n      0x20\n      add\n      keccak256\n        /* \"MsgData.sol\":209:313  return (a+b,bytes4(keccak256(bytes(\"Add(uint256,uint256)\"))),bytes4(keccak256(bytes(\"Add(uint,uint)\")))) */\n      swap3\n      pop\n      swap3\n      pop\n      swap3\n      pop\n        /* \"MsgData.sol\":109:382  function Add(uint a,uint b)public returns(uint,bytes4,bytes4){... */\n      swap3\n      pop\n      swap3\n      pop\n      swap3\n      jump\t// out\n        /* \"#utility.yul\":88:205   */\n    tag_16:\n        /* \"#utility.yul\":197:198   */\n      0x00\n        /* \"#utility.yul\":194:195   */\n      dup1\n        /* \"#utility.yul\":187:199   */\n      revert\n        /* \"#utility.yul\":334:411   */\n    tag_18:\n        /* \"#utility.yul\":371:378   */\n      0x00\n        /* \"#utility.yul\":400:405   */\n      dup2\n        /* \"#utility.yul\":389:405   */\n      swap1\n      pop\n        /* \"#utility.yul\":334:411   */\n      swap2\n      swap1\n      pop\n      jump\t// out\n        /* \"#utility.yul\":417:539   */\n    tag_19:\n        /* \"#utility.yul\":490:514   */\n      tag_35\n        /* \"#utility.yul\":508:513   */\n      dup2\n        /* \"#utility.yul\":490:514   */\n      tag_18\n      jump\t// in\n    tag_35:\n        /* \"#utility.yul\":483:488   */\n      dup2\n        /* \"#utility.yul\":480:515   */\n      eq\n        /* \"#utility.yul\":470:533   */\n      tag_36\n      jumpi\n        /* \"#utility.yul\":529:530   */\n      0x00\n        /* \"#utility.yul\":526:527   */\n      dup1\n        /* \"#utility.yul\":519:531   */\n      revert\n        /* \"#utility.yul\":470:533   */\n    tag_36:\n        /* \"#utility.yul\":417:539   */\n      pop\n      jump\t// out\n        /* \"#utility.yul\":545:684   */\n    tag_20:\n        /* \"#utility.yul\":591:596   */\n      0x00\n        /* \"#utility.yul\":629:635   */\n      dup2\n        /* \"#utility.yul\":616:636   */\n      calldataload\n        /* \"#utility.yul\":607:636   */\n      swap1\n      pop\n        /* \"#utility.yul\":645:678   */\n      tag_38\n        /* \"#utility.yul\":672:677   */\n      dup2\n        /* \"#utility.yul\":645:678   */\n      tag_19\n      jump\t// in\n    tag_38:\n        /* \"#utility.yul\":545:684   */\n      swap3\n      swap2\n      pop\n      pop\n      jump\t// out\n        /* \"#utility.yul\":690:1164   */\n    tag_6:\n        /* \"#utility.yul\":758:764   */\n      0x00\n        /* \"#utility.yul\":766:772   */\n      dup1\n        /* \"#utility.yul\":815:817   */\n      0x40\n        /* \"#utility.yul\":803:812   */\n      dup4\n        /* \"#utility.yul\":794:801   */\n      dup6\n        /* \"#utility.yul\":790:813   */\n      sub\n        /* \"#utility.yul\":786:818   */\n      slt\n        /* \"#utility.yul\":783:902   */\n      iszero\n      tag_40\n      jumpi\n        /* \"#utility.yul\":821:900   */\n      tag_41\n      tag_16\n      jump\t// in\n    tag_41:\n        /* \"#utility.yul\":783:902   */\n    tag_40:\n        /* \"#utility.yul\":941:942   */\n      0x00\n        /* \"#utility.yul\":966:1019   */\n      tag_42\n        /* \"#utility.yul\":1011:1018   */\n      dup6\n        /* \"#utility.yul\":1002:1008   */\n      dup3\n        /* \"#utility.yul\":991:1000   */\n      dup7\n        /* \"#utility.yul\":987:1009   */\n      add\n        /* \"#utility.yul\":966:1019   */\n      tag_20\n      jump\t// in\n    tag_42:\n        /* \"#utility.yul\":956:1019   */\n      swap3\n      pop\n        /* \"#utility.yul\":912:1029   */\n      pop\n        /* \"#utility.yul\":1068:1070   */\n      0x20\n        /* \"#utility.yul\":1094:1147   */\n      tag_43\n        /* \"#utility.yul\":1139:1146   */\n      dup6\n        /* \"#utility.yul\":1130:1136   */\n      dup3\n        /* \"#utility.yul\":1119:1128   */\n      dup7\n        /* \"#utility.yul\":1115:1137   */\n      add\n        /* \"#utility.yul\":1094:1147   */\n      tag_20\n      jump\t// in\n    tag_43:\n        /* \"#utility.yul\":1084:1147   */\n      swap2\n      pop\n        /* \"#utility.yul\":1039:1157   */\n      pop\n        /* \"#utility.yul\":690:1164   */\n      swap3\n      pop\n      swap3\n      swap1\n      pop\n      jump\t// out\n        /* \"#utility.yul\":1170:1288   */\n    tag_21:\n        /* \"#utility.yul\":1257:1281   */\n      tag_45\n        /* \"#utility.yul\":1275:1280   */\n      dup2\n        /* \"#utility.yul\":1257:1281   */\n      tag_18\n      jump\t// in\n    tag_45:\n        /* \"#utility.yul\":1252:1255   */\n      dup3\n        /* \"#utility.yul\":1245:1282   */\n      mstore\n        /* \"#utility.yul\":1170:1288   */\n      pop\n      pop\n      jump\t// out\n        /* \"#utility.yul\":1294:1443   */\n    tag_22:\n        /* \"#utility.yul\":1330:1337   */\n      0x00\n        /* \"#utility.yul\":1370:1436   */\n      0xffffffff00000000000000000000000000000000000000000000000000000000\n        /* \"#utility.yul\":1363:1368   */\n      dup3\n        /* \"#utility.yul\":1359:1437   */\n      and\n        /* \"#utility.yul\":1348:1437   */\n      swap1\n      pop\n        /* \"#utility.yul\":1294:1443   */\n      swap2\n      swap1\n      pop\n      jump\t// out\n        /* \"#utility.yul\":1449:1564   */\n    tag_23:\n        /* \"#utility.yul\":1534:1557   */\n      tag_48\n        /* \"#utility.yul\":1551:1556   */\n      dup2\n        /* \"#utility.yul\":1534:1557   */\n      tag_22\n      jump\t// in\n    tag_48:\n        /* \"#utility.yul\":1529:1532   */\n      dup3\n        /* \"#utility.yul\":1522:1558   */\n      mstore\n        /* \"#utility.yul\":1449:1564   */\n      pop\n      pop\n      jump\t// out\n        /* \"#utility.yul\":1570:2004   */\n    tag_9:\n        /* \"#utility.yul\":1715:1719   */\n      0x00\n        /* \"#utility.yul\":1753:1755   */\n      0x60\n        /* \"#utility.yul\":1742:1751   */\n      dup3\n        /* \"#utility.yul\":1738:1756   */\n      add\n        /* \"#utility.yul\":1730:1756   */\n      swap1\n      pop\n        /* \"#utility.yul\":1766:1837   */\n      tag_50\n        /* \"#utility.yul\":1834:1835   */\n      0x00\n        /* \"#utility.yul\":1823:1832   */\n      dup4\n        /* \"#utility.yul\":1819:1836   */\n      add\n        /* \"#utility.yul\":1810:1816   */\n      dup7\n        /* \"#utility.yul\":1766:1837   */\n      tag_21\n      jump\t// in\n    tag_50:\n        /* \"#utility.yul\":1847:1917   */\n      tag_51\n        /* \"#utility.yul\":1913:1915   */\n      0x20\n        /* \"#utility.yul\":1902:1911   */\n      dup4\n        /* \"#utility.yul\":1898:1916   */\n      add\n        /* \"#utility.yul\":1889:1895   */\n      dup6\n        /* \"#utility.yul\":1847:1917   */\n      tag_23\n      jump\t// in\n    tag_51:\n        /* \"#utility.yul\":1927:1997   */\n      tag_52\n        /* \"#utility.yul\":1993:1995   */\n      0x40\n        /* \"#utility.yul\":1982:1991   */\n      dup4\n        /* \"#utility.yul\":1978:1996   */\n      add\n        /* \"#utility.yul\":1969:1975   */\n      dup5\n        /* \"#utility.yul\":1927:1997   */\n      tag_23\n      jump\t// in\n    tag_52:\n        /* \"#utility.yul\":1570:2004   */\n      swap5\n      swap4\n      pop\n      pop\n      pop\n      pop\n      jump\t// out\n        /* \"#utility.yul\":2010:2178   */\n    tag_24:\n        /* \"#utility.yul\":2093:2104   */\n      0x00\n        /* \"#utility.yul\":2127:2133   */\n      dup3\n        /* \"#utility.yul\":2122:2125   */\n      dup3\n        /* \"#utility.yul\":2115:2134   */\n      mstore\n        /* \"#utility.yul\":2167:2171   */\n      0x20\n        /* \"#utility.yul\":2162:2165   */\n      dup3\n        /* \"#utility.yul\":2158:2172   */\n      add\n        /* \"#utility.yul\":2143:2172   */\n      swap1\n      pop\n        /* \"#utility.yul\":2010:2178   */\n      swap3\n      swap2\n      pop\n      pop\n      jump\t// out\n        /* \"#utility.yul\":2184:2332   */\n    tag_25:\n        /* \"#utility.yul\":2282:2288   */\n      dup3\n        /* \"#utility.yul\":2277:2280   */\n      dup2\n        /* \"#utility.yul\":2272:2275   */\n      dup4\n        /* \"#utility.yul\":2259:2289   */\n      calldatacopy\n        /* \"#utility.yul\":2323:2324   */\n      0x00\n        /* \"#utility.yul\":2314:2320   */\n      dup4\n        /* \"#utility.yul\":2309:2312   */\n      dup4\n        /* \"#utility.yul\":2305:2321   */\n      add\n        /* \"#utility.yul\":2298:2325   */\n      mstore\n        /* \"#utility.yul\":2184:2332   */\n      pop\n      pop\n      pop\n      jump\t// out\n        /* \"#utility.yul\":2338:2440   */\n    tag_26:\n        /* \"#utility.yul\":2379:2385   */\n      0x00\n        /* \"#utility.yul\":2430:2432   */\n      0x1f\n        /* \"#utility.yul\":2426:2433   */\n      not\n        /* \"#utility.yul\":2421:2423   */\n      0x1f\n        /* \"#utility.yul\":2414:2419   */\n      dup4\n        /* \"#utility.yul\":2410:2424   */\n      add\n        /* \"#utility.yul\":2406:2434   */\n      and\n        /* \"#utility.yul\":2396:2434   */\n      swap1\n      pop\n        /* \"#utility.yul\":2338:2440   */\n      swap2\n      swap1\n      pop\n      jump\t// out\n        /* \"#utility.yul\":2468:2782   */\n    tag_27:\n        /* \"#utility.yul\":2564:2567   */\n      0x00\n        /* \"#utility.yul\":2585:2655   */\n      tag_57\n        /* \"#utility.yul\":2648:2654   */\n      dup4\n        /* \"#utility.yul\":2643:2646   */\n      dup6\n        /* \"#utility.yul\":2585:2655   */\n      tag_24\n      jump\t// in\n    tag_57:\n        /* \"#utility.yul\":2578:2655   */\n      swap4\n      pop\n        /* \"#utility.yul\":2665:2721   */\n      tag_58\n        /* \"#utility.yul\":2714:2720   */\n      dup4\n        /* \"#utility.yul\":2709:2712   */\n      dup6\n        /* \"#utility.yul\":2702:2707   */\n      dup5\n        /* \"#utility.yul\":2665:2721   */\n      tag_25\n      jump\t// in\n    tag_58:\n        /* \"#utility.yul\":2746:2775   */\n      tag_59\n        /* \"#utility.yul\":2768:2774   */\n      dup4\n        /* \"#utility.yul\":2746:2775   */\n      tag_26\n      jump\t// in\n    tag_59:\n        /* \"#utility.yul\":2741:2744   */\n      dup5\n        /* \"#utility.yul\":2737:2776   */\n      add\n        /* \"#utility.yul\":2730:2776   */\n      swap1\n      pop\n        /* \"#utility.yul\":2468:2782   */\n      swap4\n      swap3\n      pop\n      pop\n      pop\n      jump\t// out\n        /* \"#utility.yul\":2788:3117   */\n    tag_12:\n        /* \"#utility.yul\":2909:2913   */\n      0x00\n        /* \"#utility.yul\":2947:2949   */\n      0x20\n        /* \"#utility.yul\":2936:2945   */\n      dup3\n        /* \"#utility.yul\":2932:2950   */\n      add\n        /* \"#utility.yul\":2924:2950   */\n      swap1\n      pop\n        /* \"#utility.yul\":2996:3005   */\n      dup2\n        /* \"#utility.yul\":2990:2994   */\n      dup2\n        /* \"#utility.yul\":2986:3006   */\n      sub\n        /* \"#utility.yul\":2982:2983   */\n      0x00\n        /* \"#utility.yul\":2971:2980   */\n      dup4\n        /* \"#utility.yul\":2967:2984   */\n      add\n        /* \"#utility.yul\":2960:3007   */\n      mstore\n        /* \"#utility.yul\":3024:3110   */\n      tag_61\n        /* \"#utility.yul\":3105:3109   */\n      dup2\n        /* \"#utility.yul\":3096:3102   */\n      dup5\n        /* \"#utility.yul\":3088:3094   */\n      dup7\n        /* \"#utility.yul\":3024:3110   */\n      tag_27\n      jump\t// in\n    tag_61:\n        /* \"#utility.yul\":3016:3110   */\n      swap1\n      pop\n        /* \"#utility.yul\":2788:3117   */\n      swap4\n      swap3\n      pop\n      pop\n      pop\n      jump\t// out\n        /* \"#utility.yul\":3123:3303   */\n    tag_28:\n        /* \"#utility.yul\":3171:3248   */\n      0x4e487b7100000000000000000000000000000000000000000000000000000000\n        /* \"#utility.yul\":3168:3169   */\n      0x00\n        /* \"#utility.yul\":3161:3249   */\n      mstore\n        /* \"#utility.yul\":3268:3272   */\n      0x11\n        /* \"#utility.yul\":3265:3266   */\n      0x04\n        /* \"#utility.yul\":3258:3273   */\n      mstore\n        /* \"#utility.yul\":3292:3296   */\n      0x24\n        /* \"#utility.yul\":3289:3290   */\n      0x00\n        /* \"#utility.yul\":3282:3297   */\n      revert\n        /* \"#utility.yul\":3309:3500   */\n    tag_14:\n        /* \"#utility.yul\":3349:3352   */\n      0x00\n        /* \"#utility.yul\":3368:3388   */\n      tag_64\n        /* \"#utility.yul\":3386:3387   */\n      dup3\n        /* \"#utility.yul\":3368:3388   */\n      tag_18\n      jump\t// in\n    tag_64:\n        /* \"#utility.yul\":3363:3388   */\n      swap2\n      pop\n        /* \"#utility.yul\":3402:3422   */\n      tag_65\n        /* \"#utility.yul\":3420:3421   */\n      dup4\n        /* \"#utility.yul\":3402:3422   */\n      tag_18\n      jump\t// in\n    tag_65:\n        /* \"#utility.yul\":3397:3422   */\n      swap3\n      pop\n        /* \"#utility.yul\":3445:3446   */\n      dup3\n        /* \"#utility.yul\":3442:3443   */\n      dup3\n        /* \"#utility.yul\":3438:3447   */\n      add\n        /* \"#utility.yul\":3431:3447   */\n      swap1\n      pop\n        /* \"#utility.yul\":3466:3469   */\n      dup1\n        /* \"#utility.yul\":3463:3464   */\n      dup3\n        /* \"#utility.yul\":3460:3470   */\n      gt\n        /* \"#utility.yul\":3457:3493   */\n      iszero\n      tag_66\n      jumpi\n        /* \"#utility.yul\":3473:3491   */\n      tag_67\n      tag_28\n      jump\t// in\n    tag_67:\n        /* \"#utility.yul\":3457:3493   */\n    tag_66:\n        /* \"#utility.yul\":3309:3500   */\n      swap3\n      swap2\n      pop\n      pop\n      jump\t// out\n\n    auxdata: 0xa26469706673582212209fe320c51994616da2fff9c42423cbf58c49b095241253d67b0442f0cb66d97464736f6c634300081a0033\n}\n",
				"bytecode": {
					"linkReferences": {},
					"object": "6080604052348015600e575f80fd5b506103338061001c5f395ff3fe608060405234801561000f575f80fd5b5060043610610029575f3560e01c80637afbe4f11461002d575b5f80fd5b61004760048036038101906100429190610165565b61005f565b604051610056939291906101ec565b60405180910390f35b5f805f7fafabcf2dd47e06a477a89e49c03f8ebe8e0a7e94f775b25bbb24227c9d0110b25f3660405161009392919061027b565b60405180910390a183856100a791906102ca565b6040518060400160405280601481526020017f4164642875696e743235362c75696e7432353629000000000000000000000000815250805190602001206040518060400160405280600e81526020017f4164642875696e742c75696e7429000000000000000000000000000000000000815250805190602001209250925092509250925092565b5f80fd5b5f819050919050565b61014481610132565b811461014e575f80fd5b50565b5f8135905061015f8161013b565b92915050565b5f806040838503121561017b5761017a61012e565b5b5f61018885828601610151565b925050602061019985828601610151565b9150509250929050565b6101ac81610132565b82525050565b5f7fffffffff0000000000000000000000000000000000000000000000000000000082169050919050565b6101e6816101b2565b82525050565b5f6060820190506101ff5f8301866101a3565b61020c60208301856101dd565b61021960408301846101dd565b949350505050565b5f82825260208201905092915050565b828183375f83830152505050565b5f601f19601f8301169050919050565b5f61025a8385610221565b9350610267838584610231565b6102708361023f565b840190509392505050565b5f6020820190508181035f83015261029481848661024f565b90509392505050565b7f4e487b71000000000000000000000000000000000000000000000000000000005f52601160045260245ffd5b5f6102d482610132565b91506102df83610132565b92508282019050808211156102f7576102f661029d565b5b9291505056fea26469706673582212209fe320c51994616da2fff9c42423cbf58c49b095241253d67b0442f0cb66d97464736f6c634300081a0033",
					"opcodes": "PUSH1 0x80 PUSH1 0x40 MSTORE CALLVALUE DUP1 ISZERO PUSH1 0xE JUMPI PUSH0 DUP1 REVERT JUMPDEST POP PUSH2 0x333 DUP1 PUSH2 0x1C PUSH0 CODECOPY PUSH0 RETURN INVALID PUSH1 0x80 PUSH1 0x40 MSTORE CALLVALUE DUP1 ISZERO PUSH2 0xF JUMPI PUSH0 DUP1 REVERT JUMPDEST POP PUSH1 0x4 CALLDATASIZE LT PUSH2 0x29 JUMPI PUSH0 CALLDATALOAD PUSH1 0xE0 SHR DUP1 PUSH4 0x7AFBE4F1 EQ PUSH2 0x2D JUMPI JUMPDEST PUSH0 DUP1 REVERT JUMPDEST PUSH2 0x47 PUSH1 0x4 DUP1 CALLDATASIZE SUB DUP2 ADD SWAP1 PUSH2 0x42 SWAP2 SWAP1 PUSH2 0x165 JUMP JUMPDEST PUSH2 0x5F JUMP JUMPDEST PUSH1 0x40 MLOAD PUSH2 0x56 SWAP4 SWAP3 SWAP2 SWAP1 PUSH2 0x1EC JUMP JUMPDEST PUSH1 0x40 MLOAD DUP1 SWAP2 SUB SWAP1 RETURN JUMPDEST PUSH0 DUP1 PUSH0 PUSH32 0xAFABCF2DD47E06A477A89E49C03F8EBE8E0A7E94F775B25BBB24227C9D0110B2 PUSH0 CALLDATASIZE PUSH1 0x40 MLOAD PUSH2 0x93 SWAP3 SWAP2 SWAP1 PUSH2 0x27B JUMP JUMPDEST PUSH1 0x40 MLOAD DUP1 SWAP2 SUB SWAP1 LOG1 DUP4 DUP6 PUSH2 0xA7 SWAP2 SWAP1 PUSH2 0x2CA JUMP JUMPDEST PUSH1 0x40 MLOAD DUP1 PUSH1 0x40 ADD PUSH1 0x40 MSTORE DUP1 PUSH1 0x14 DUP2 MSTORE PUSH1 0x20 ADD PUSH32 0x4164642875696E743235362C75696E7432353629000000000000000000000000 DUP2 MSTORE POP DUP1 MLOAD SWAP1 PUSH1 0x20 ADD KECCAK256 PUSH1 0x40 MLOAD DUP1 PUSH1 0x40 ADD PUSH1 0x40 MSTORE DUP1 PUSH1 0xE DUP2 MSTORE PUSH1 0x20 ADD PUSH32 0x4164642875696E742C75696E7429000000000000000000000000000000000000 DUP2 MSTORE POP DUP1 MLOAD SWAP1 PUSH1 0x20 ADD KECCAK256 SWAP3 POP SWAP3 POP SWAP3 POP SWAP3 POP SWAP3 POP SWAP3 JUMP JUMPDEST PUSH0 DUP1 REVERT JUMPDEST PUSH0 DUP2 SWAP1 POP SWAP2 SWAP1 POP JUMP JUMPDEST PUSH2 0x144 DUP2 PUSH2 0x132 JUMP JUMPDEST DUP2 EQ PUSH2 0x14E JUMPI PUSH0 DUP1 REVERT JUMPDEST POP JUMP JUMPDEST PUSH0 DUP2 CALLDATALOAD SWAP1 POP PUSH2 0x15F DUP2 PUSH2 0x13B JUMP JUMPDEST SWAP3 SWAP2 POP POP JUMP JUMPDEST PUSH0 DUP1 PUSH1 0x40 DUP4 DUP6 SUB SLT ISZERO PUSH2 0x17B JUMPI PUSH2 0x17A PUSH2 0x12E JUMP JUMPDEST JUMPDEST PUSH0 PUSH2 0x188 DUP6 DUP3 DUP7 ADD PUSH2 0x151 JUMP JUMPDEST SWAP3 POP POP PUSH1 0x20 PUSH2 0x199 DUP6 DUP3 DUP7 ADD PUSH2 0x151 JUMP JUMPDEST SWAP2 POP POP SWAP3 POP SWAP3 SWAP1 POP JUMP JUMPDEST PUSH2 0x1AC DUP2 PUSH2 0x132 JUMP JUMPDEST DUP3 MSTORE POP POP JUMP JUMPDEST PUSH0 PUSH32 0xFFFFFFFF00000000000000000000000000000000000000000000000000000000 DUP3 AND SWAP1 POP SWAP2 SWAP1 POP JUMP JUMPDEST PUSH2 0x1E6 DUP2 PUSH2 0x1B2 JUMP JUMPDEST DUP3 MSTORE POP POP JUMP JUMPDEST PUSH0 PUSH1 0x60 DUP3 ADD SWAP1 POP PUSH2 0x1FF PUSH0 DUP4 ADD DUP7 PUSH2 0x1A3 JUMP JUMPDEST PUSH2 0x20C PUSH1 0x20 DUP4 ADD DUP6 PUSH2 0x1DD JUMP JUMPDEST PUSH2 0x219 PUSH1 0x40 DUP4 ADD DUP5 PUSH2 0x1DD JUMP JUMPDEST SWAP5 SWAP4 POP POP POP POP JUMP JUMPDEST PUSH0 DUP3 DUP3 MSTORE PUSH1 0x20 DUP3 ADD SWAP1 POP SWAP3 SWAP2 POP POP JUMP JUMPDEST DUP3 DUP2 DUP4 CALLDATACOPY PUSH0 DUP4 DUP4 ADD MSTORE POP POP POP JUMP JUMPDEST PUSH0 PUSH1 0x1F NOT PUSH1 0x1F DUP4 ADD AND SWAP1 POP SWAP2 SWAP1 POP JUMP JUMPDEST PUSH0 PUSH2 0x25A DUP4 DUP6 PUSH2 0x221 JUMP JUMPDEST SWAP4 POP PUSH2 0x267 DUP4 DUP6 DUP5 PUSH2 0x231 JUMP JUMPDEST PUSH2 0x270 DUP4 PUSH2 0x23F JUMP JUMPDEST DUP5 ADD SWAP1 POP SWAP4 SWAP3 POP POP POP JUMP JUMPDEST PUSH0 PUSH1 0x20 DUP3 ADD SWAP1 POP DUP2 DUP2 SUB PUSH0 DUP4 ADD MSTORE PUSH2 0x294 DUP2 DUP5 DUP7 PUSH2 0x24F JUMP JUMPDEST SWAP1 POP SWAP4 SWAP3 POP POP POP JUMP JUMPDEST PUSH32 0x4E487B7100000000000000000000000000000000000000000000000000000000 PUSH0 MSTORE PUSH1 0x11 PUSH1 0x4 MSTORE PUSH1 0x24 PUSH0 REVERT JUMPDEST PUSH0 PUSH2 0x2D4 DUP3 PUSH2 0x132 JUMP JUMPDEST SWAP2 POP PUSH2 0x2DF DUP4 PUSH2 0x132 JUMP JUMPDEST SWAP3 POP DUP3 DUP3 ADD SWAP1 POP DUP1 DUP3 GT ISZERO PUSH2 0x2F7 JUMPI PUSH2 0x2F6 PUSH2 0x29D JUMP JUMPDEST JUMPDEST SWAP3 SWAP2 POP POP JUMP INVALID LOG2 PUSH5 0x6970667358 0x22 SLT KECCAK256 SWAP16 0xE3 KECCAK256 0xC5 NOT SWAP5 PUSH2 0x6DA2 SELFDESTRUCT 0xF9 0xC4 0x24 0x23 0xCB CREATE2 DUP13 BLOBHASH 0xB0 SWAP6 0x24 SLT MSTORE8 0xD6 PUSH28 0x442F0CB66D97464736F6C634300081A003300000000000000000000 "
				},
				"gasEstimates": {
					"creation": {
						"codeDepositCost": "163800",
						"executionCost": "206",
						"totalCost": "164006"
					},
					"external": {
						"Add(uint256,uint256)": "infinite"
					}
				},
				"methodIdentifiers": {
					"Add(uint256,uint256)": "7afbe4f1"
				}
			},
			"storageLayout": {
				"storage": [],
				"types": null
			},
			"userdoc": {
				"kind": "user",
				"methods": {},
				"version": 1
			}
		}
	}
}