{
	"JiCheng.sol": {
		"Child2": {
			"abi": [
				{
					"inputs": [
						{
							"internalType": "uint256",
							"name": "_data",
							"type": "uint256"
						}
					],
					"stateMutability": "nonpayable",
					"type": "constructor"
				},
				{
					"inputs": [],
					"name": "data",
					"outputs": [
						{
							"internalType": "uint256",
							"name": "",
							"type": "uint256"
						}
					],
					"stateMutability": "view",
					"type": "function"
				},
				{
					"inputs": [],
					"name": "getJiChengSalaryByName",
					"outputs": [
						{
							"internalType": "uint256",
							"name": "",
							"type": "uint256"
						}
					],
					"stateMutability": "pure",
					"type": "function"
				},
				{
					"inputs": [],
					"name": "getJiChengSalaryBySuper",
					"outputs": [
						{
							"internalType": "uint256",
							"name": "",
							"type": "uint256"
						}
					],
					"stateMutability": "pure",
					"type": "function"
				},
				{
					"inputs": [],
					"name": "getSalary",
					"outputs": [
						{
							"internalType": "uint256",
							"name": "",
							"type": "uint256"
						}
					],
					"stateMutability": "pure",
					"type": "function"
				}
			],
			"devdoc": {
				"kind": "dev",
				"methods": {},
				"version": 1
			},
			"evm": {
				"assembly": "    /* \"JiCheng.sol\":403:764  contract Child2 is JiCheng{ // 传入参数... */\n  mstore(0x40, 0x80)\n    /* \"JiCheng.sol\":448:492  constructor(uint _data) JiCheng( _data) {... */\n  callvalue\n  dup1\n  iszero\n  tag_1\n  jumpi\n  revert(0x00, 0x00)\ntag_1:\n  pop\n  mload(0x40)\n  sub(codesize, bytecodeSize)\n  dup1\n  bytecodeSize\n  dup4\n  codecopy\n  dup2\n  dup2\n  add\n  0x40\n  mstore\n  dup2\n  add\n  swap1\n  tag_2\n  swap2\n  swap1\n  tag_3\n  jump\t// in\ntag_2:\n    /* \"JiCheng.sol\":481:486  _data */\n  dup1\n    /* \"JiCheng.sol\":128:133  _data */\n  dup1\n    /* \"JiCheng.sol\":123:127  data */\n  0x00\n    /* \"JiCheng.sol\":123:133  data=_data */\n  dup2\n  swap1\n  sstore\n  pop\n    /* \"JiCheng.sol\":93:136  constructor(uint _data){... */\n  pop\n    /* \"JiCheng.sol\":448:492  constructor(uint _data) JiCheng( _data) {... */\n  pop\n    /* \"JiCheng.sol\":403:764  contract Child2 is JiCheng{ // 传入参数... */\n  jump(tag_8)\n    /* \"#utility.yul\":88:205   */\ntag_10:\n    /* \"#utility.yul\":197:198   */\n  0x00\n    /* \"#utility.yul\":194:195   */\n  0x00\n    /* \"#utility.yul\":187:199   */\n  revert\n    /* \"#utility.yul\":334:411   */\ntag_12:\n    /* \"#utility.yul\":371:378   */\n  0x00\n    /* \"#utility.yul\":400:405   */\n  dup2\n    /* \"#utility.yul\":389:405   */\n  swap1\n  pop\n    /* \"#utility.yul\":334:411   */\n  swap2\n  swap1\n  pop\n  jump\t// out\n    /* \"#utility.yul\":417:539   */\ntag_13:\n    /* \"#utility.yul\":490:514   */\n  tag_21\n    /* \"#utility.yul\":508:513   */\n  dup2\n    /* \"#utility.yul\":490:514   */\n  tag_12\n  jump\t// in\ntag_21:\n    /* \"#utility.yul\":483:488   */\n  dup2\n    /* \"#utility.yul\":480:515   */\n  eq\n    /* \"#utility.yul\":470:533   */\n  tag_22\n  jumpi\n    /* \"#utility.yul\":529:530   */\n  0x00\n    /* \"#utility.yul\":526:527   */\n  0x00\n    /* \"#utility.yul\":519:531   */\n  revert\n    /* \"#utility.yul\":470:533   */\ntag_22:\n    /* \"#utility.yul\":417:539   */\n  pop\n  jump\t// out\n    /* \"#utility.yul\":545:688   */\ntag_14:\n    /* \"#utility.yul\":602:607   */\n  0x00\n    /* \"#utility.yul\":633:639   */\n  dup2\n    /* \"#utility.yul\":627:640   */\n  mload\n    /* \"#utility.yul\":618:640   */\n  swap1\n  pop\n    /* \"#utility.yul\":649:682   */\n  tag_24\n    /* \"#utility.yul\":676:681   */\n  dup2\n    /* \"#utility.yul\":649:682   */\n  tag_13\n  jump\t// in\ntag_24:\n    /* \"#utility.yul\":545:688   */\n  swap3\n  swap2\n  pop\n  pop\n  jump\t// out\n    /* \"#utility.yul\":694:1045   */\ntag_3:\n    /* \"#utility.yul\":764:770   */\n  0x00\n    /* \"#utility.yul\":813:815   */\n  0x20\n    /* \"#utility.yul\":801:810   */\n  dup3\n    /* \"#utility.yul\":792:799   */\n  dup5\n    /* \"#utility.yul\":788:811   */\n  sub\n    /* \"#utility.yul\":784:816   */\n  slt\n    /* \"#utility.yul\":781:900   */\n  iszero\n  tag_26\n  jumpi\n    /* \"#utility.yul\":819:898   */\n  tag_27\n  tag_10\n  jump\t// in\ntag_27:\n    /* \"#utility.yul\":781:900   */\ntag_26:\n    /* \"#utility.yul\":939:940   */\n  0x00\n    /* \"#utility.yul\":964:1028   */\n  tag_28\n    /* \"#utility.yul\":1020:1027   */\n  dup5\n    /* \"#utility.yul\":1011:1017   */\n  dup3\n    /* \"#utility.yul\":1000:1009   */\n  dup6\n    /* \"#utility.yul\":996:1018   */\n  add\n    /* \"#utility.yul\":964:1028   */\n  tag_14\n  jump\t// in\ntag_28:\n    /* \"#utility.yul\":954:1028   */\n  swap2\n  pop\n    /* \"#utility.yul\":910:1038   */\n  pop\n    /* \"#utility.yul\":694:1045   */\n  swap3\n  swap2\n  pop\n  pop\n  jump\t// out\n    /* \"JiCheng.sol\":403:764  contract Child2 is JiCheng{ // 传入参数... */\ntag_8:\n  dataSize(sub_0)\n  dup1\n  dataOffset(sub_0)\n  0x00\n  codecopy\n  0x00\n  return\nstop\n\nsub_0: assembly {\n        /* \"JiCheng.sol\":403:764  contract Child2 is JiCheng{ // 传入参数... */\n      mstore(0x40, 0x80)\n      callvalue\n      dup1\n      iszero\n      tag_1\n      jumpi\n      revert(0x00, 0x00)\n    tag_1:\n      pop\n      jumpi(tag_2, lt(calldatasize, 0x04))\n      shr(0xe0, calldataload(0x00))\n      dup1\n      0x54f7c07a\n      eq\n      tag_3\n      jumpi\n      dup1\n      0x58b08d2e\n      eq\n      tag_4\n      jumpi\n      dup1\n      0x73d4a13a\n      eq\n      tag_5\n      jumpi\n      dup1\n      0xd637572b\n      eq\n      tag_6\n      jumpi\n    tag_2:\n      revert(0x00, 0x00)\n        /* \"JiCheng.sol\":571:665  function getJiChengSalaryBySuper()public pure returns(uint){... */\n    tag_3:\n      tag_7\n      tag_8\n      jump\t// in\n    tag_7:\n      mload(0x40)\n      tag_9\n      swap2\n      swap1\n      tag_10\n      jump\t// in\n    tag_9:\n      mload(0x40)\n      dup1\n      swap2\n      sub\n      swap1\n      return\n        /* \"JiCheng.sol\":494:570  function getSalary()public pure override returns(uint){... */\n    tag_4:\n      tag_11\n      tag_12\n      jump\t// in\n    tag_11:\n      mload(0x40)\n      tag_13\n      swap2\n      swap1\n      tag_10\n      jump\t// in\n    tag_13:\n      mload(0x40)\n      dup1\n      swap2\n      sub\n      swap1\n      return\n        /* \"JiCheng.sol\":75:91  uint public data */\n    tag_5:\n      tag_14\n      tag_15\n      jump\t// in\n    tag_14:\n      mload(0x40)\n      tag_16\n      swap2\n      swap1\n      tag_10\n      jump\t// in\n    tag_16:\n      mload(0x40)\n      dup1\n      swap2\n      sub\n      swap1\n      return\n        /* \"JiCheng.sol\":667:761  function getJiChengSalaryByName()public pure returns(uint){... */\n    tag_6:\n      tag_17\n      tag_18\n      jump\t// in\n    tag_17:\n      mload(0x40)\n      tag_19\n      swap2\n      swap1\n      tag_10\n      jump\t// in\n    tag_19:\n      mload(0x40)\n      dup1\n      swap2\n      sub\n      swap1\n      return\n        /* \"JiCheng.sol\":571:665  function getJiChengSalaryBySuper()public pure returns(uint){... */\n    tag_8:\n        /* \"JiCheng.sol\":625:629  uint */\n      0x00\n        /* \"JiCheng.sol\":645:662  super.getSalary() */\n      tag_21\n        /* \"JiCheng.sol\":645:660  super.getSalary */\n      tag_22\n        /* \"JiCheng.sol\":645:662  super.getSalary() */\n      jump\t// in\n    tag_21:\n        /* \"JiCheng.sol\":638:662  return super.getSalary() */\n      swap1\n      pop\n        /* \"JiCheng.sol\":571:665  function getJiChengSalaryBySuper()public pure returns(uint){... */\n      swap1\n      jump\t// out\n        /* \"JiCheng.sol\":494:570  function getSalary()public pure override returns(uint){... */\n    tag_12:\n        /* \"JiCheng.sol\":543:547  uint */\n      0x00\n        /* \"JiCheng.sol\":563:567  4000 */\n      0x0fa0\n        /* \"JiCheng.sol\":556:567  return 4000 */\n      swap1\n      pop\n        /* \"JiCheng.sol\":494:570  function getSalary()public pure override returns(uint){... */\n      swap1\n      jump\t// out\n        /* \"JiCheng.sol\":75:91  uint public data */\n    tag_15:\n      sload(0x00)\n      dup2\n      jump\t// out\n        /* \"JiCheng.sol\":667:761  function getJiChengSalaryByName()public pure returns(uint){... */\n    tag_18:\n        /* \"JiCheng.sol\":720:724  uint */\n      0x00\n        /* \"JiCheng.sol\":738:757  JiCheng.getSalary() */\n      tag_25\n        /* \"JiCheng.sol\":738:755  JiCheng.getSalary */\n      tag_22\n        /* \"JiCheng.sol\":738:757  JiCheng.getSalary() */\n      jump\t// in\n    tag_25:\n        /* \"JiCheng.sol\":731:757  return JiCheng.getSalary() */\n      swap1\n      pop\n        /* \"JiCheng.sol\":667:761  function getJiChengSalaryByName()public pure returns(uint){... */\n      swap1\n      jump\t// out\n        /* \"JiCheng.sol\":137:210  function getSalary()public pure virtual returns(uint){... */\n    tag_22:\n        /* \"JiCheng.sol\":185:189  uint */\n      0x00\n        /* \"JiCheng.sol\":203:207  1000 */\n      0x03e8\n        /* \"JiCheng.sol\":196:207  return 1000 */\n      swap1\n      pop\n        /* \"JiCheng.sol\":137:210  function getSalary()public pure virtual returns(uint){... */\n      swap1\n      jump\t// out\n        /* \"#utility.yul\":7:84   */\n    tag_27:\n        /* \"#utility.yul\":44:51   */\n      0x00\n        /* \"#utility.yul\":73:78   */\n      dup2\n        /* \"#utility.yul\":62:78   */\n      swap1\n      pop\n        /* \"#utility.yul\":7:84   */\n      swap2\n      swap1\n      pop\n      jump\t// out\n        /* \"#utility.yul\":90:208   */\n    tag_28:\n        /* \"#utility.yul\":177:201   */\n      tag_32\n        /* \"#utility.yul\":195:200   */\n      dup2\n        /* \"#utility.yul\":177:201   */\n      tag_27\n      jump\t// in\n    tag_32:\n        /* \"#utility.yul\":172:175   */\n      dup3\n        /* \"#utility.yul\":165:202   */\n      mstore\n        /* \"#utility.yul\":90:208   */\n      pop\n      pop\n      jump\t// out\n        /* \"#utility.yul\":214:436   */\n    tag_10:\n        /* \"#utility.yul\":307:311   */\n      0x00\n        /* \"#utility.yul\":345:347   */\n      0x20\n        /* \"#utility.yul\":334:343   */\n      dup3\n        /* \"#utility.yul\":330:348   */\n      add\n        /* \"#utility.yul\":322:348   */\n      swap1\n      pop\n        /* \"#utility.yul\":358:429   */\n      tag_34\n        /* \"#utility.yul\":426:427   */\n      0x00\n        /* \"#utility.yul\":415:424   */\n      dup4\n        /* \"#utility.yul\":411:428   */\n      add\n        /* \"#utility.yul\":402:408   */\n      dup5\n        /* \"#utility.yul\":358:429   */\n      tag_28\n      jump\t// in\n    tag_34:\n        /* \"#utility.yul\":214:436   */\n      swap3\n      swap2\n      pop\n      pop\n      jump\t// out\n\n    auxdata: 0xa26469706673582212205f6445153b68efe67d36af8eae322a7caacc1f7bae92f72c8b985fdba8c0884e64736f6c634300081c0033\n}\n",
				"bytecode": {
					"linkReferences": {},
					"object": "6080604052348015600e575f5ffd5b506040516102003803806102008339818101604052810190602e9190606d565b80805f8190555050506093565b5f5ffd5b5f819050919050565b604f81603f565b81146058575f5ffd5b50565b5f815190506067816048565b92915050565b5f60208284031215607f57607e603b565b5b5f608a84828501605b565b91505092915050565b610160806100a05f395ff3fe608060405234801561000f575f5ffd5b506004361061004a575f3560e01c806354f7c07a1461004e57806358b08d2e1461006c57806373d4a13a1461008a578063d637572b146100a8575b5f5ffd5b6100566100c6565b6040516100639190610111565b60405180910390f35b6100746100d4565b6040516100819190610111565b60405180910390f35b6100926100dd565b60405161009f9190610111565b60405180910390f35b6100b06100e2565b6040516100bd9190610111565b60405180910390f35b5f6100cf6100f0565b905090565b5f610fa0905090565b5f5481565b5f6100eb6100f0565b905090565b5f6103e8905090565b5f819050919050565b61010b816100f9565b82525050565b5f6020820190506101245f830184610102565b9291505056fea26469706673582212205f6445153b68efe67d36af8eae322a7caacc1f7bae92f72c8b985fdba8c0884e64736f6c634300081c0033",
					"opcodes": "PUSH1 0x80 PUSH1 0x40 MSTORE CALLVALUE DUP1 ISZERO PUSH1 0xE JUMPI PUSH0 PUSH0 REVERT JUMPDEST POP PUSH1 0x40 MLOAD PUSH2 0x200 CODESIZE SUB DUP1 PUSH2 0x200 DUP4 CODECOPY DUP2 DUP2 ADD PUSH1 0x40 MSTORE DUP2 ADD SWAP1 PUSH1 0x2E SWAP2 SWAP1 PUSH1 0x6D JUMP JUMPDEST DUP1 DUP1 PUSH0 DUP2 SWAP1 SSTORE POP POP POP PUSH1 0x93 JUMP JUMPDEST PUSH0 PUSH0 REVERT JUMPDEST PUSH0 DUP2 SWAP1 POP SWAP2 SWAP1 POP JUMP JUMPDEST PUSH1 0x4F DUP2 PUSH1 0x3F JUMP JUMPDEST DUP2 EQ PUSH1 0x58 JUMPI PUSH0 PUSH0 REVERT JUMPDEST POP JUMP JUMPDEST PUSH0 DUP2 MLOAD SWAP1 POP PUSH1 0x67 DUP2 PUSH1 0x48 JUMP JUMPDEST SWAP3 SWAP2 POP POP JUMP JUMPDEST PUSH0 PUSH1 0x20 DUP3 DUP5 SUB SLT ISZERO PUSH1 0x7F JUMPI PUSH1 0x7E PUSH1 0x3B JUMP JUMPDEST JUMPDEST PUSH0 PUSH1 0x8A DUP5 DUP3 DUP6 ADD PUSH1 0x5B JUMP JUMPDEST SWAP2 POP POP SWAP3 SWAP2 POP POP JUMP JUMPDEST PUSH2 0x160 DUP1 PUSH2 0xA0 PUSH0 CODECOPY PUSH0 RETURN INVALID PUSH1 0x80 PUSH1 0x40 MSTORE CALLVALUE DUP1 ISZERO PUSH2 0xF JUMPI PUSH0 PUSH0 REVERT JUMPDEST POP PUSH1 0x4 CALLDATASIZE LT PUSH2 0x4A JUMPI PUSH0 CALLDATALOAD PUSH1 0xE0 SHR DUP1 PUSH4 0x54F7C07A EQ PUSH2 0x4E JUMPI DUP1 PUSH4 0x58B08D2E EQ PUSH2 0x6C JUMPI DUP1 PUSH4 0x73D4A13A EQ PUSH2 0x8A JUMPI DUP1 PUSH4 0xD637572B EQ PUSH2 0xA8 JUMPI JUMPDEST PUSH0 PUSH0 REVERT JUMPDEST PUSH2 0x56 PUSH2 0xC6 JUMP JUMPDEST PUSH1 0x40 MLOAD PUSH2 0x63 SWAP2 SWAP1 PUSH2 0x111 JUMP JUMPDEST PUSH1 0x40 MLOAD DUP1 SWAP2 SUB SWAP1 RETURN JUMPDEST PUSH2 0x74 PUSH2 0xD4 JUMP JUMPDEST PUSH1 0x40 MLOAD PUSH2 0x81 SWAP2 SWAP1 PUSH2 0x111 JUMP JUMPDEST PUSH1 0x40 MLOAD DUP1 SWAP2 SUB SWAP1 RETURN JUMPDEST PUSH2 0x92 PUSH2 0xDD JUMP JUMPDEST PUSH1 0x40 MLOAD PUSH2 0x9F SWAP2 SWAP1 PUSH2 0x111 JUMP JUMPDEST PUSH1 0x40 MLOAD DUP1 SWAP2 SUB SWAP1 RETURN JUMPDEST PUSH2 0xB0 PUSH2 0xE2 JUMP JUMPDEST PUSH1 0x40 MLOAD PUSH2 0xBD SWAP2 SWAP1 PUSH2 0x111 JUMP JUMPDEST PUSH1 0x40 MLOAD DUP1 SWAP2 SUB SWAP1 RETURN JUMPDEST PUSH0 PUSH2 0xCF PUSH2 0xF0 JUMP JUMPDEST SWAP1 POP SWAP1 JUMP JUMPDEST PUSH0 PUSH2 0xFA0 SWAP1 POP SWAP1 JUMP JUMPDEST PUSH0 SLOAD DUP2 JUMP JUMPDEST PUSH0 PUSH2 0xEB PUSH2 0xF0 JUMP JUMPDEST SWAP1 POP SWAP1 JUMP JUMPDEST PUSH0 PUSH2 0x3E8 SWAP1 POP SWAP1 JUMP JUMPDEST PUSH0 DUP2 SWAP1 POP SWAP2 SWAP1 POP JUMP JUMPDEST PUSH2 0x10B DUP2 PUSH2 0xF9 JUMP JUMPDEST DUP3 MSTORE POP POP JUMP JUMPDEST PUSH0 PUSH1 0x20 DUP3 ADD SWAP1 POP PUSH2 0x124 PUSH0 DUP4 ADD DUP5 PUSH2 0x102 JUMP JUMPDEST SWAP3 SWAP2 POP POP JUMP INVALID LOG2 PUSH5 0x6970667358 0x22 SLT KECCAK256 PUSH0 PUSH5 0x45153B68EF 0xE6 PUSH30 0x36AF8EAE322A7CAACC1F7BAE92F72C8B985FDBA8C0884E64736F6C634300 ADDMOD SHR STOP CALLER "
				},
				"gasEstimates": {
					"creation": {
						"codeDepositCost": "70400",
						"executionCost": "infinite",
						"totalCost": "infinite"
					},
					"external": {
						"data()": "2446",
						"getJiChengSalaryByName()": "410",
						"getJiChengSalaryBySuper()": "344",
						"getSalary()": "332"
					}
				},
				"methodIdentifiers": {
					"data()": "73d4a13a",
					"getJiChengSalaryByName()": "d637572b",
					"getJiChengSalaryBySuper()": "54f7c07a",
					"getSalary()": "58b08d2e"
				}
			},
			"storageLayout": {
				"storage": [
					{
						"astId": 3,
						"contract": "JiCheng.sol:Child2",
						"label": "data",
						"offset": 0,
						"slot": "0",
						"type": "t_uint256"
					}
				],
				"types": {
					"t_uint256": {
						"encoding": "inplace",
						"label": "uint256",
						"numberOfBytes": "32"
					}
				}
			},
			"userdoc": {
				"kind": "user",
				"methods": {},
				"version": 1
			}
		}
	}
}