{
	"DataLocations.sol": {
		"DataLocations": {
			"abi": [
				{
					"inputs": [],
					"stateMutability": "nonpayable",
					"type": "constructor"
				},
				{
					"inputs": [
						{
							"internalType": "uint256",
							"name": "",
							"type": "uint256"
						}
					],
					"name": "arr",
					"outputs": [
						{
							"internalType": "uint256",
							"name": "",
							"type": "uint256"
						}
					],
					"stateMutability": "view",
					"type": "function"
				},
				{
					"inputs": [
						{
							"internalType": "uint256[]",
							"name": "_arr",
							"type": "uint256[]"
						}
					],
					"name": "f",
					"outputs": [
						{
							"internalType": "uint256[]",
							"name": "",
							"type": "uint256[]"
						}
					],
					"stateMutability": "payable",
					"type": "function"
				},
				{
					"inputs": [
						{
							"internalType": "uint256[]",
							"name": "_arr",
							"type": "uint256[]"
						}
					],
					"name": "g",
					"outputs": [
						{
							"internalType": "uint256[]",
							"name": "",
							"type": "uint256[]"
						}
					],
					"stateMutability": "pure",
					"type": "function"
				},
				{
					"inputs": [
						{
							"internalType": "uint256[]",
							"name": "_arr",
							"type": "uint256[]"
						}
					],
					"name": "h",
					"outputs": [],
					"stateMutability": "nonpayable",
					"type": "function"
				}
			],
			"devdoc": {
				"kind": "dev",
				"methods": {},
				"version": 1
			},
			"evm": {
				"assembly": "    /* \"DataLocations.sol\":57:783  contract DataLocations{... */\n  mstore(0x40, 0x80)\n    /* \"DataLocations.sol\":305:323  MyStruct({foo:10}) */\n  mload(0x40)\n  dup1\n  0x20\n  add\n  0x40\n  mstore\n  dup1\n    /* \"DataLocations.sol\":319:321  10 */\n  0x0a\n    /* \"DataLocations.sol\":305:323  MyStruct({foo:10}) */\n  dup2\n  mstore\n  pop\n    /* \"DataLocations.sol\":291:323  MyStruct s1 = MyStruct({foo:10}) */\n  0x02\n  0x00\n  dup3\n  add\n  mload\n  dup2\n  0x00\n  add\n  sstore\n  pop\n  pop\n    /* \"DataLocations.sol\":423:461  constructor(){... */\n  callvalue\n  dup1\n  iszero\n  tag_1\n  jumpi\n  0x00\n  dup1\n  revert\ntag_1:\n  pop\n    /* \"DataLocations.sol\":456:458  s1 */\n  0x02\n    /* \"DataLocations.sol\":443:452  myStructs */\n  0x03\n    /* \"DataLocations.sol\":443:455  myStructs[1] */\n  0x00\n    /* \"DataLocations.sol\":453:454  1 */\n  0x01\n    /* \"DataLocations.sol\":443:455  myStructs[1] */\n  dup2\n  mstore\n  0x20\n  add\n  swap1\n  dup2\n  mstore\n  0x20\n  add\n  0x00\n  keccak256\n    /* \"DataLocations.sol\":443:458  myStructs[1]=s1 */\n  0x00\n  dup3\n  add\n  sload\n  dup2\n  0x00\n  add\n  sstore\n  swap1\n  pop\n  pop\n    /* \"DataLocations.sol\":57:783  contract DataLocations{... */\n  dataSize(sub_0)\n  dup1\n  dataOffset(sub_0)\n  0x00\n  codecopy\n  0x00\n  return\nstop\n\nsub_0: assembly {\n        /* \"DataLocations.sol\":57:783  contract DataLocations{... */\n      mstore(0x40, 0x80)\n      jumpi(tag_1, lt(calldatasize, 0x04))\n      shr(0xe0, calldataload(0x00))\n      dup1\n      0x40dcbb08\n      eq\n      tag_2\n      jumpi\n      dup1\n      0x71e5ee5f\n      eq\n      tag_3\n      jumpi\n      dup1\n      0x7bc5bbbf\n      eq\n      tag_4\n      jumpi\n      dup1\n      0xbaf71609\n      eq\n      tag_5\n      jumpi\n    tag_1:\n      0x00\n      dup1\n      revert\n        /* \"DataLocations.sol\":701:781  function h(uint[]calldata _arr)external {... */\n    tag_2:\n      callvalue\n      dup1\n      iszero\n      tag_6\n      jumpi\n      0x00\n      dup1\n      revert\n    tag_6:\n      pop\n      tag_7\n      0x04\n      dup1\n      calldatasize\n      sub\n      dup2\n      add\n      swap1\n      tag_8\n      swap2\n      swap1\n      tag_9\n      jump\t// in\n    tag_8:\n      tag_10\n      jump\t// in\n    tag_7:\n      stop\n        /* \"DataLocations.sol\":85:102  uint[] public arr */\n    tag_3:\n      callvalue\n      dup1\n      iszero\n      tag_11\n      jumpi\n      0x00\n      dup1\n      revert\n    tag_11:\n      pop\n      tag_12\n      0x04\n      dup1\n      calldatasize\n      sub\n      dup2\n      add\n      swap1\n      tag_13\n      swap2\n      swap1\n      tag_14\n      jump\t// in\n    tag_13:\n      tag_15\n      jump\t// in\n    tag_12:\n      mload(0x40)\n      tag_16\n      swap2\n      swap1\n      tag_17\n      jump\t// in\n    tag_16:\n      mload(0x40)\n      dup1\n      swap2\n      sub\n      swap1\n      return\n        /* \"DataLocations.sol\":463:606  function f(... */\n    tag_4:\n      tag_18\n      0x04\n      dup1\n      calldatasize\n      sub\n      dup2\n      add\n      swap1\n      tag_19\n      swap2\n      swap1\n      tag_20\n      jump\t// in\n    tag_19:\n      tag_21\n      jump\t// in\n    tag_18:\n      mload(0x40)\n      tag_22\n      swap2\n      swap1\n      tag_23\n      jump\t// in\n    tag_22:\n      mload(0x40)\n      dup1\n      swap2\n      sub\n      swap1\n      return\n        /* \"DataLocations.sol\":607:700  function g(uint[] memory _arr)public pure returns(uint[]memory){... */\n    tag_5:\n      callvalue\n      dup1\n      iszero\n      tag_24\n      jumpi\n      0x00\n      dup1\n      revert\n    tag_24:\n      pop\n      tag_25\n      0x04\n      dup1\n      calldatasize\n      sub\n      dup2\n      add\n      swap1\n      tag_26\n      swap2\n      swap1\n      tag_20\n      jump\t// in\n    tag_26:\n      tag_27\n      jump\t// in\n    tag_25:\n      mload(0x40)\n      tag_28\n      swap2\n      swap1\n      tag_23\n      jump\t// in\n    tag_28:\n      mload(0x40)\n      dup1\n      swap2\n      sub\n      swap1\n      return\n        /* \"DataLocations.sol\":701:781  function h(uint[]calldata _arr)external {... */\n    tag_10:\n      pop\n      pop\n      jump\t// out\n        /* \"DataLocations.sol\":85:102  uint[] public arr */\n    tag_15:\n      0x00\n      dup2\n      dup2\n      sload\n      dup2\n      lt\n      tag_30\n      jumpi\n      0x00\n      dup1\n      revert\n    tag_30:\n      swap1\n      0x00\n      mstore\n      keccak256(0x00, 0x20)\n      add\n      0x00\n      swap2\n      pop\n      swap1\n      pop\n      sload\n      dup2\n      jump\t// out\n        /* \"DataLocations.sol\":463:606  function f(... */\n    tag_21:\n        /* \"DataLocations.sol\":519:532  uint[] memory */\n      0x60\n        /* \"DataLocations.sol\":545:551  uint i */\n      0x00\n        /* \"DataLocations.sol\":541:591  for(uint i=0;i<=_arr.length;i++){... */\n    tag_33:\n        /* \"DataLocations.sol\":557:561  _arr */\n      dup3\n        /* \"DataLocations.sol\":557:568  _arr.length */\n      mload\n        /* \"DataLocations.sol\":554:555  i */\n      dup2\n        /* \"DataLocations.sol\":554:568  i<=_arr.length */\n      gt\n        /* \"DataLocations.sol\":541:591  for(uint i=0;i<=_arr.length;i++){... */\n      tag_34\n      jumpi\n        /* \"DataLocations.sol\":587:588  i */\n      dup1\n        /* \"DataLocations.sol\":579:583  _arr */\n      dup4\n        /* \"DataLocations.sol\":584:585  i */\n      dup3\n        /* \"DataLocations.sol\":579:586  _arr[i] */\n      dup2\n      mload\n      dup2\n      lt\n      tag_36\n      jumpi\n      tag_37\n      tag_38\n      jump\t// in\n    tag_37:\n    tag_36:\n      0x20\n      mul\n      0x20\n      add\n      add\n        /* \"DataLocations.sol\":579:588  _arr[i]=i */\n      dup2\n      dup2\n      mstore\n      pop\n      pop\n        /* \"DataLocations.sol\":569:572  i++ */\n      dup1\n      dup1\n      tag_39\n      swap1\n      tag_40\n      jump\t// in\n    tag_39:\n      swap2\n      pop\n      pop\n        /* \"DataLocations.sol\":541:591  for(uint i=0;i<=_arr.length;i++){... */\n      jump(tag_33)\n    tag_34:\n      pop\n        /* \"DataLocations.sol\":599:603  _arr */\n      dup2\n        /* \"DataLocations.sol\":592:603  return _arr */\n      swap1\n      pop\n        /* \"DataLocations.sol\":463:606  function f(... */\n      swap2\n      swap1\n      pop\n      jump\t// out\n        /* \"DataLocations.sol\":607:700  function g(uint[] memory _arr)public pure returns(uint[]memory){... */\n    tag_27:\n        /* \"DataLocations.sol\":657:669  uint[]memory */\n      0x60\n        /* \"DataLocations.sol\":693:697  _arr */\n      dup2\n        /* \"DataLocations.sol\":686:697  return _arr */\n      swap1\n      pop\n        /* \"DataLocations.sol\":607:700  function g(uint[] memory _arr)public pure returns(uint[]memory){... */\n      swap2\n      swap1\n      pop\n      jump\t// out\n        /* \"#utility.yul\":7:82   */\n    tag_42:\n        /* \"#utility.yul\":40:46   */\n      0x00\n        /* \"#utility.yul\":73:75   */\n      0x40\n        /* \"#utility.yul\":67:76   */\n      mload\n        /* \"#utility.yul\":57:76   */\n      swap1\n      pop\n        /* \"#utility.yul\":7:82   */\n      swap1\n      jump\t// out\n        /* \"#utility.yul\":88:205   */\n    tag_43:\n        /* \"#utility.yul\":197:198   */\n      0x00\n        /* \"#utility.yul\":194:195   */\n      dup1\n        /* \"#utility.yul\":187:199   */\n      revert\n        /* \"#utility.yul\":211:328   */\n    tag_44:\n        /* \"#utility.yul\":320:321   */\n      0x00\n        /* \"#utility.yul\":317:318   */\n      dup1\n        /* \"#utility.yul\":310:322   */\n      revert\n        /* \"#utility.yul\":334:451   */\n    tag_45:\n        /* \"#utility.yul\":443:444   */\n      0x00\n        /* \"#utility.yul\":440:441   */\n      dup1\n        /* \"#utility.yul\":433:445   */\n      revert\n        /* \"#utility.yul\":457:574   */\n    tag_46:\n        /* \"#utility.yul\":566:567   */\n      0x00\n        /* \"#utility.yul\":563:564   */\n      dup1\n        /* \"#utility.yul\":556:568   */\n      revert\n        /* \"#utility.yul\":580:697   */\n    tag_47:\n        /* \"#utility.yul\":689:690   */\n      0x00\n        /* \"#utility.yul\":686:687   */\n      dup1\n        /* \"#utility.yul\":679:691   */\n      revert\n        /* \"#utility.yul\":720:1288   */\n    tag_48:\n        /* \"#utility.yul\":793:801   */\n      0x00\n        /* \"#utility.yul\":803:809   */\n      dup1\n        /* \"#utility.yul\":853:856   */\n      dup4\n        /* \"#utility.yul\":846:850   */\n      0x1f\n        /* \"#utility.yul\":838:844   */\n      dup5\n        /* \"#utility.yul\":834:851   */\n      add\n        /* \"#utility.yul\":830:857   */\n      slt\n        /* \"#utility.yul\":820:942   */\n      tag_76\n      jumpi\n        /* \"#utility.yul\":861:940   */\n      tag_77\n      tag_45\n      jump\t// in\n    tag_77:\n        /* \"#utility.yul\":820:942   */\n    tag_76:\n        /* \"#utility.yul\":974:980   */\n      dup3\n        /* \"#utility.yul\":961:981   */\n      calldataload\n        /* \"#utility.yul\":951:981   */\n      swap1\n      pop\n        /* \"#utility.yul\":1004:1022   */\n      0xffffffffffffffff\n        /* \"#utility.yul\":996:1002   */\n      dup2\n        /* \"#utility.yul\":993:1023   */\n      gt\n        /* \"#utility.yul\":990:1107   */\n      iszero\n      tag_78\n      jumpi\n        /* \"#utility.yul\":1026:1105   */\n      tag_79\n      tag_46\n      jump\t// in\n    tag_79:\n        /* \"#utility.yul\":990:1107   */\n    tag_78:\n        /* \"#utility.yul\":1140:1144   */\n      0x20\n        /* \"#utility.yul\":1132:1138   */\n      dup4\n        /* \"#utility.yul\":1128:1145   */\n      add\n        /* \"#utility.yul\":1116:1145   */\n      swap2\n      pop\n        /* \"#utility.yul\":1194:1197   */\n      dup4\n        /* \"#utility.yul\":1186:1190   */\n      0x20\n        /* \"#utility.yul\":1178:1184   */\n      dup3\n        /* \"#utility.yul\":1174:1191   */\n      mul\n        /* \"#utility.yul\":1164:1172   */\n      dup4\n        /* \"#utility.yul\":1160:1192   */\n      add\n        /* \"#utility.yul\":1157:1198   */\n      gt\n        /* \"#utility.yul\":1154:1282   */\n      iszero\n      tag_80\n      jumpi\n        /* \"#utility.yul\":1201:1280   */\n      tag_81\n      tag_47\n      jump\t// in\n    tag_81:\n        /* \"#utility.yul\":1154:1282   */\n    tag_80:\n        /* \"#utility.yul\":720:1288   */\n      swap3\n      pop\n      swap3\n      swap1\n      pop\n      jump\t// out\n        /* \"#utility.yul\":1294:1853   */\n    tag_9:\n        /* \"#utility.yul\":1380:1386   */\n      0x00\n        /* \"#utility.yul\":1388:1394   */\n      dup1\n        /* \"#utility.yul\":1437:1439   */\n      0x20\n        /* \"#utility.yul\":1425:1434   */\n      dup4\n        /* \"#utility.yul\":1416:1423   */\n      dup6\n        /* \"#utility.yul\":1412:1435   */\n      sub\n        /* \"#utility.yul\":1408:1440   */\n      slt\n        /* \"#utility.yul\":1405:1524   */\n      iszero\n      tag_83\n      jumpi\n        /* \"#utility.yul\":1443:1522   */\n      tag_84\n      tag_43\n      jump\t// in\n    tag_84:\n        /* \"#utility.yul\":1405:1524   */\n    tag_83:\n        /* \"#utility.yul\":1591:1592   */\n      0x00\n        /* \"#utility.yul\":1580:1589   */\n      dup4\n        /* \"#utility.yul\":1576:1593   */\n      add\n        /* \"#utility.yul\":1563:1594   */\n      calldataload\n        /* \"#utility.yul\":1621:1639   */\n      0xffffffffffffffff\n        /* \"#utility.yul\":1613:1619   */\n      dup2\n        /* \"#utility.yul\":1610:1640   */\n      gt\n        /* \"#utility.yul\":1607:1724   */\n      iszero\n      tag_85\n      jumpi\n        /* \"#utility.yul\":1643:1722   */\n      tag_86\n      tag_44\n      jump\t// in\n    tag_86:\n        /* \"#utility.yul\":1607:1724   */\n    tag_85:\n        /* \"#utility.yul\":1756:1836   */\n      tag_87\n        /* \"#utility.yul\":1828:1835   */\n      dup6\n        /* \"#utility.yul\":1819:1825   */\n      dup3\n        /* \"#utility.yul\":1808:1817   */\n      dup7\n        /* \"#utility.yul\":1804:1826   */\n      add\n        /* \"#utility.yul\":1756:1836   */\n      tag_48\n      jump\t// in\n    tag_87:\n        /* \"#utility.yul\":1738:1836   */\n      swap3\n      pop\n      swap3\n      pop\n        /* \"#utility.yul\":1534:1846   */\n      pop\n        /* \"#utility.yul\":1294:1853   */\n      swap3\n      pop\n      swap3\n      swap1\n      pop\n      jump\t// out\n        /* \"#utility.yul\":1859:1936   */\n    tag_49:\n        /* \"#utility.yul\":1896:1903   */\n      0x00\n        /* \"#utility.yul\":1925:1930   */\n      dup2\n        /* \"#utility.yul\":1914:1930   */\n      swap1\n      pop\n        /* \"#utility.yul\":1859:1936   */\n      swap2\n      swap1\n      pop\n      jump\t// out\n        /* \"#utility.yul\":1942:2064   */\n    tag_50:\n        /* \"#utility.yul\":2015:2039   */\n      tag_90\n        /* \"#utility.yul\":2033:2038   */\n      dup2\n        /* \"#utility.yul\":2015:2039   */\n      tag_49\n      jump\t// in\n    tag_90:\n        /* \"#utility.yul\":2008:2013   */\n      dup2\n        /* \"#utility.yul\":2005:2040   */\n      eq\n        /* \"#utility.yul\":1995:2058   */\n      tag_91\n      jumpi\n        /* \"#utility.yul\":2054:2055   */\n      0x00\n        /* \"#utility.yul\":2051:2052   */\n      dup1\n        /* \"#utility.yul\":2044:2056   */\n      revert\n        /* \"#utility.yul\":1995:2058   */\n    tag_91:\n        /* \"#utility.yul\":1942:2064   */\n      pop\n      jump\t// out\n        /* \"#utility.yul\":2070:2209   */\n    tag_51:\n        /* \"#utility.yul\":2116:2121   */\n      0x00\n        /* \"#utility.yul\":2154:2160   */\n      dup2\n        /* \"#utility.yul\":2141:2161   */\n      calldataload\n        /* \"#utility.yul\":2132:2161   */\n      swap1\n      pop\n        /* \"#utility.yul\":2170:2203   */\n      tag_93\n        /* \"#utility.yul\":2197:2202   */\n      dup2\n        /* \"#utility.yul\":2170:2203   */\n      tag_50\n      jump\t// in\n    tag_93:\n        /* \"#utility.yul\":2070:2209   */\n      swap3\n      swap2\n      pop\n      pop\n      jump\t// out\n        /* \"#utility.yul\":2215:2544   */\n    tag_14:\n        /* \"#utility.yul\":2274:2280   */\n      0x00\n        /* \"#utility.yul\":2323:2325   */\n      0x20\n        /* \"#utility.yul\":2311:2320   */\n      dup3\n        /* \"#utility.yul\":2302:2309   */\n      dup5\n        /* \"#utility.yul\":2298:2321   */\n      sub\n        /* \"#utility.yul\":2294:2326   */\n      slt\n        /* \"#utility.yul\":2291:2410   */\n      iszero\n      tag_95\n      jumpi\n        /* \"#utility.yul\":2329:2408   */\n      tag_96\n      tag_43\n      jump\t// in\n    tag_96:\n        /* \"#utility.yul\":2291:2410   */\n    tag_95:\n        /* \"#utility.yul\":2449:2450   */\n      0x00\n        /* \"#utility.yul\":2474:2527   */\n      tag_97\n        /* \"#utility.yul\":2519:2526   */\n      dup5\n        /* \"#utility.yul\":2510:2516   */\n      dup3\n        /* \"#utility.yul\":2499:2508   */\n      dup6\n        /* \"#utility.yul\":2495:2517   */\n      add\n        /* \"#utility.yul\":2474:2527   */\n      tag_51\n      jump\t// in\n    tag_97:\n        /* \"#utility.yul\":2464:2527   */\n      swap2\n      pop\n        /* \"#utility.yul\":2420:2537   */\n      pop\n        /* \"#utility.yul\":2215:2544   */\n      swap3\n      swap2\n      pop\n      pop\n      jump\t// out\n        /* \"#utility.yul\":2550:2668   */\n    tag_52:\n        /* \"#utility.yul\":2637:2661   */\n      tag_99\n        /* \"#utility.yul\":2655:2660   */\n      dup2\n        /* \"#utility.yul\":2637:2661   */\n      tag_49\n      jump\t// in\n    tag_99:\n        /* \"#utility.yul\":2632:2635   */\n      dup3\n        /* \"#utility.yul\":2625:2662   */\n      mstore\n        /* \"#utility.yul\":2550:2668   */\n      pop\n      pop\n      jump\t// out\n        /* \"#utility.yul\":2674:2896   */\n    tag_17:\n        /* \"#utility.yul\":2767:2771   */\n      0x00\n        /* \"#utility.yul\":2805:2807   */\n      0x20\n        /* \"#utility.yul\":2794:2803   */\n      dup3\n        /* \"#utility.yul\":2790:2808   */\n      add\n        /* \"#utility.yul\":2782:2808   */\n      swap1\n      pop\n        /* \"#utility.yul\":2818:2889   */\n      tag_101\n        /* \"#utility.yul\":2886:2887   */\n      0x00\n        /* \"#utility.yul\":2875:2884   */\n      dup4\n        /* \"#utility.yul\":2871:2888   */\n      add\n        /* \"#utility.yul\":2862:2868   */\n      dup5\n        /* \"#utility.yul\":2818:2889   */\n      tag_52\n      jump\t// in\n    tag_101:\n        /* \"#utility.yul\":2674:2896   */\n      swap3\n      swap2\n      pop\n      pop\n      jump\t// out\n        /* \"#utility.yul\":2902:3004   */\n    tag_53:\n        /* \"#utility.yul\":2943:2949   */\n      0x00\n        /* \"#utility.yul\":2994:2996   */\n      0x1f\n        /* \"#utility.yul\":2990:2997   */\n      not\n        /* \"#utility.yul\":2985:2987   */\n      0x1f\n        /* \"#utility.yul\":2978:2983   */\n      dup4\n        /* \"#utility.yul\":2974:2988   */\n      add\n        /* \"#utility.yul\":2970:2998   */\n      and\n        /* \"#utility.yul\":2960:2998   */\n      swap1\n      pop\n        /* \"#utility.yul\":2902:3004   */\n      swap2\n      swap1\n      pop\n      jump\t// out\n        /* \"#utility.yul\":3010:3190   */\n    tag_54:\n        /* \"#utility.yul\":3058:3135   */\n      0x4e487b7100000000000000000000000000000000000000000000000000000000\n        /* \"#utility.yul\":3055:3056   */\n      0x00\n        /* \"#utility.yul\":3048:3136   */\n      mstore\n        /* \"#utility.yul\":3155:3159   */\n      0x41\n        /* \"#utility.yul\":3152:3153   */\n      0x04\n        /* \"#utility.yul\":3145:3160   */\n      mstore\n        /* \"#utility.yul\":3179:3183   */\n      0x24\n        /* \"#utility.yul\":3176:3177   */\n      0x00\n        /* \"#utility.yul\":3169:3184   */\n      revert\n        /* \"#utility.yul\":3196:3477   */\n    tag_55:\n        /* \"#utility.yul\":3279:3306   */\n      tag_105\n        /* \"#utility.yul\":3301:3305   */\n      dup3\n        /* \"#utility.yul\":3279:3306   */\n      tag_53\n      jump\t// in\n    tag_105:\n        /* \"#utility.yul\":3271:3277   */\n      dup2\n        /* \"#utility.yul\":3267:3307   */\n      add\n        /* \"#utility.yul\":3409:3415   */\n      dup2\n        /* \"#utility.yul\":3397:3407   */\n      dup2\n        /* \"#utility.yul\":3394:3416   */\n      lt\n        /* \"#utility.yul\":3373:3391   */\n      0xffffffffffffffff\n        /* \"#utility.yul\":3361:3371   */\n      dup3\n        /* \"#utility.yul\":3358:3392   */\n      gt\n        /* \"#utility.yul\":3355:3417   */\n      or\n        /* \"#utility.yul\":3352:3440   */\n      iszero\n      tag_106\n      jumpi\n        /* \"#utility.yul\":3420:3438   */\n      tag_107\n      tag_54\n      jump\t// in\n    tag_107:\n        /* \"#utility.yul\":3352:3440   */\n    tag_106:\n        /* \"#utility.yul\":3460:3470   */\n      dup1\n        /* \"#utility.yul\":3456:3458   */\n      0x40\n        /* \"#utility.yul\":3449:3471   */\n      mstore\n        /* \"#utility.yul\":3239:3477   */\n      pop\n        /* \"#utility.yul\":3196:3477   */\n      pop\n      pop\n      jump\t// out\n        /* \"#utility.yul\":3483:3612   */\n    tag_56:\n        /* \"#utility.yul\":3517:3523   */\n      0x00\n        /* \"#utility.yul\":3544:3564   */\n      tag_109\n      tag_42\n      jump\t// in\n    tag_109:\n        /* \"#utility.yul\":3534:3564   */\n      swap1\n      pop\n        /* \"#utility.yul\":3573:3606   */\n      tag_110\n        /* \"#utility.yul\":3601:3605   */\n      dup3\n        /* \"#utility.yul\":3593:3599   */\n      dup3\n        /* \"#utility.yul\":3573:3606   */\n      tag_55\n      jump\t// in\n    tag_110:\n        /* \"#utility.yul\":3483:3612   */\n      swap2\n      swap1\n      pop\n      jump\t// out\n        /* \"#utility.yul\":3618:3929   */\n    tag_57:\n        /* \"#utility.yul\":3695:3699   */\n      0x00\n        /* \"#utility.yul\":3785:3803   */\n      0xffffffffffffffff\n        /* \"#utility.yul\":3777:3783   */\n      dup3\n        /* \"#utility.yul\":3774:3804   */\n      gt\n        /* \"#utility.yul\":3771:3827   */\n      iszero\n      tag_112\n      jumpi\n        /* \"#utility.yul\":3807:3825   */\n      tag_113\n      tag_54\n      jump\t// in\n    tag_113:\n        /* \"#utility.yul\":3771:3827   */\n    tag_112:\n        /* \"#utility.yul\":3857:3861   */\n      0x20\n        /* \"#utility.yul\":3849:3855   */\n      dup3\n        /* \"#utility.yul\":3845:3862   */\n      mul\n        /* \"#utility.yul\":3837:3862   */\n      swap1\n      pop\n        /* \"#utility.yul\":3917:3921   */\n      0x20\n        /* \"#utility.yul\":3911:3915   */\n      dup2\n        /* \"#utility.yul\":3907:3922   */\n      add\n        /* \"#utility.yul\":3899:3922   */\n      swap1\n      pop\n        /* \"#utility.yul\":3618:3929   */\n      swap2\n      swap1\n      pop\n      jump\t// out\n        /* \"#utility.yul\":3952:4662   */\n    tag_58:\n        /* \"#utility.yul\":4048:4053   */\n      0x00\n        /* \"#utility.yul\":4073:4154   */\n      tag_115\n        /* \"#utility.yul\":4089:4153   */\n      tag_116\n        /* \"#utility.yul\":4146:4152   */\n      dup5\n        /* \"#utility.yul\":4089:4153   */\n      tag_57\n      jump\t// in\n    tag_116:\n        /* \"#utility.yul\":4073:4154   */\n      tag_56\n      jump\t// in\n    tag_115:\n        /* \"#utility.yul\":4064:4154   */\n      swap1\n      pop\n        /* \"#utility.yul\":4174:4179   */\n      dup1\n        /* \"#utility.yul\":4203:4209   */\n      dup4\n        /* \"#utility.yul\":4196:4201   */\n      dup3\n        /* \"#utility.yul\":4189:4210   */\n      mstore\n        /* \"#utility.yul\":4237:4241   */\n      0x20\n        /* \"#utility.yul\":4230:4235   */\n      dup3\n        /* \"#utility.yul\":4226:4242   */\n      add\n        /* \"#utility.yul\":4219:4242   */\n      swap1\n      pop\n        /* \"#utility.yul\":4290:4294   */\n      0x20\n        /* \"#utility.yul\":4282:4288   */\n      dup5\n        /* \"#utility.yul\":4278:4295   */\n      mul\n        /* \"#utility.yul\":4270:4276   */\n      dup4\n        /* \"#utility.yul\":4266:4296   */\n      add\n        /* \"#utility.yul\":4319:4322   */\n      dup6\n        /* \"#utility.yul\":4311:4317   */\n      dup2\n        /* \"#utility.yul\":4308:4323   */\n      gt\n        /* \"#utility.yul\":4305:4427   */\n      iszero\n      tag_117\n      jumpi\n        /* \"#utility.yul\":4338:4417   */\n      tag_118\n      tag_47\n      jump\t// in\n    tag_118:\n        /* \"#utility.yul\":4305:4427   */\n    tag_117:\n        /* \"#utility.yul\":4453:4459   */\n      dup4\n        /* \"#utility.yul\":4436:4656   */\n    tag_119:\n        /* \"#utility.yul\":4470:4476   */\n      dup2\n        /* \"#utility.yul\":4465:4468   */\n      dup2\n        /* \"#utility.yul\":4462:4477   */\n      lt\n        /* \"#utility.yul\":4436:4656   */\n      iszero\n      tag_121\n      jumpi\n        /* \"#utility.yul\":4545:4548   */\n      dup1\n        /* \"#utility.yul\":4574:4611   */\n      tag_122\n        /* \"#utility.yul\":4607:4610   */\n      dup9\n        /* \"#utility.yul\":4595:4605   */\n      dup3\n        /* \"#utility.yul\":4574:4611   */\n      tag_51\n      jump\t// in\n    tag_122:\n        /* \"#utility.yul\":4569:4572   */\n      dup5\n        /* \"#utility.yul\":4562:4612   */\n      mstore\n        /* \"#utility.yul\":4641:4645   */\n      0x20\n        /* \"#utility.yul\":4636:4639   */\n      dup5\n        /* \"#utility.yul\":4632:4646   */\n      add\n        /* \"#utility.yul\":4625:4646   */\n      swap4\n      pop\n        /* \"#utility.yul\":4512:4656   */\n      pop\n        /* \"#utility.yul\":4496:4500   */\n      0x20\n        /* \"#utility.yul\":4491:4494   */\n      dup2\n        /* \"#utility.yul\":4487:4501   */\n      add\n        /* \"#utility.yul\":4480:4501   */\n      swap1\n      pop\n        /* \"#utility.yul\":4436:4656   */\n      jump(tag_119)\n    tag_121:\n        /* \"#utility.yul\":4440:4461   */\n      pop\n        /* \"#utility.yul\":4054:4662   */\n      pop\n      pop\n        /* \"#utility.yul\":3952:4662   */\n      swap4\n      swap3\n      pop\n      pop\n      pop\n      jump\t// out\n        /* \"#utility.yul\":4685:5055   */\n    tag_59:\n        /* \"#utility.yul\":4756:4761   */\n      0x00\n        /* \"#utility.yul\":4805:4808   */\n      dup3\n        /* \"#utility.yul\":4798:4802   */\n      0x1f\n        /* \"#utility.yul\":4790:4796   */\n      dup4\n        /* \"#utility.yul\":4786:4803   */\n      add\n        /* \"#utility.yul\":4782:4809   */\n      slt\n        /* \"#utility.yul\":4772:4894   */\n      tag_124\n      jumpi\n        /* \"#utility.yul\":4813:4892   */\n      tag_125\n      tag_45\n      jump\t// in\n    tag_125:\n        /* \"#utility.yul\":4772:4894   */\n    tag_124:\n        /* \"#utility.yul\":4930:4936   */\n      dup2\n        /* \"#utility.yul\":4917:4937   */\n      calldataload\n        /* \"#utility.yul\":4955:5049   */\n      tag_126\n        /* \"#utility.yul\":5045:5048   */\n      dup5\n        /* \"#utility.yul\":5037:5043   */\n      dup3\n        /* \"#utility.yul\":5030:5034   */\n      0x20\n        /* \"#utility.yul\":5022:5028   */\n      dup7\n        /* \"#utility.yul\":5018:5035   */\n      add\n        /* \"#utility.yul\":4955:5049   */\n      tag_58\n      jump\t// in\n    tag_126:\n        /* \"#utility.yul\":4946:5049   */\n      swap2\n      pop\n        /* \"#utility.yul\":4762:5055   */\n      pop\n        /* \"#utility.yul\":4685:5055   */\n      swap3\n      swap2\n      pop\n      pop\n      jump\t// out\n        /* \"#utility.yul\":5061:5600   */\n    tag_20:\n        /* \"#utility.yul\":5145:5151   */\n      0x00\n        /* \"#utility.yul\":5194:5196   */\n      0x20\n        /* \"#utility.yul\":5182:5191   */\n      dup3\n        /* \"#utility.yul\":5173:5180   */\n      dup5\n        /* \"#utility.yul\":5169:5192   */\n      sub\n        /* \"#utility.yul\":5165:5197   */\n      slt\n        /* \"#utility.yul\":5162:5281   */\n      iszero\n      tag_128\n      jumpi\n        /* \"#utility.yul\":5200:5279   */\n      tag_129\n      tag_43\n      jump\t// in\n    tag_129:\n        /* \"#utility.yul\":5162:5281   */\n    tag_128:\n        /* \"#utility.yul\":5348:5349   */\n      0x00\n        /* \"#utility.yul\":5337:5346   */\n      dup3\n        /* \"#utility.yul\":5333:5350   */\n      add\n        /* \"#utility.yul\":5320:5351   */\n      calldataload\n        /* \"#utility.yul\":5378:5396   */\n      0xffffffffffffffff\n        /* \"#utility.yul\":5370:5376   */\n      dup2\n        /* \"#utility.yul\":5367:5397   */\n      gt\n        /* \"#utility.yul\":5364:5481   */\n      iszero\n      tag_130\n      jumpi\n        /* \"#utility.yul\":5400:5479   */\n      tag_131\n      tag_44\n      jump\t// in\n    tag_131:\n        /* \"#utility.yul\":5364:5481   */\n    tag_130:\n        /* \"#utility.yul\":5505:5583   */\n      tag_132\n        /* \"#utility.yul\":5575:5582   */\n      dup5\n        /* \"#utility.yul\":5566:5572   */\n      dup3\n        /* \"#utility.yul\":5555:5564   */\n      dup6\n        /* \"#utility.yul\":5551:5573   */\n      add\n        /* \"#utility.yul\":5505:5583   */\n      tag_59\n      jump\t// in\n    tag_132:\n        /* \"#utility.yul\":5495:5583   */\n      swap2\n      pop\n        /* \"#utility.yul\":5291:5593   */\n      pop\n        /* \"#utility.yul\":5061:5600   */\n      swap3\n      swap2\n      pop\n      pop\n      jump\t// out\n        /* \"#utility.yul\":5606:5720   */\n    tag_60:\n        /* \"#utility.yul\":5673:5679   */\n      0x00\n        /* \"#utility.yul\":5707:5712   */\n      dup2\n        /* \"#utility.yul\":5701:5713   */\n      mload\n        /* \"#utility.yul\":5691:5713   */\n      swap1\n      pop\n        /* \"#utility.yul\":5606:5720   */\n      swap2\n      swap1\n      pop\n      jump\t// out\n        /* \"#utility.yul\":5726:5910   */\n    tag_61:\n        /* \"#utility.yul\":5825:5836   */\n      0x00\n        /* \"#utility.yul\":5859:5865   */\n      dup3\n        /* \"#utility.yul\":5854:5857   */\n      dup3\n        /* \"#utility.yul\":5847:5866   */\n      mstore\n        /* \"#utility.yul\":5899:5903   */\n      0x20\n        /* \"#utility.yul\":5894:5897   */\n      dup3\n        /* \"#utility.yul\":5890:5904   */\n      add\n        /* \"#utility.yul\":5875:5904   */\n      swap1\n      pop\n        /* \"#utility.yul\":5726:5910   */\n      swap3\n      swap2\n      pop\n      pop\n      jump\t// out\n        /* \"#utility.yul\":5916:6048   */\n    tag_62:\n        /* \"#utility.yul\":5983:5987   */\n      0x00\n        /* \"#utility.yul\":6006:6009   */\n      dup2\n        /* \"#utility.yul\":5998:6009   */\n      swap1\n      pop\n        /* \"#utility.yul\":6036:6040   */\n      0x20\n        /* \"#utility.yul\":6031:6034   */\n      dup3\n        /* \"#utility.yul\":6027:6041   */\n      add\n        /* \"#utility.yul\":6019:6041   */\n      swap1\n      pop\n        /* \"#utility.yul\":5916:6048   */\n      swap2\n      swap1\n      pop\n      jump\t// out\n        /* \"#utility.yul\":6054:6162   */\n    tag_63:\n        /* \"#utility.yul\":6131:6155   */\n      tag_137\n        /* \"#utility.yul\":6149:6154   */\n      dup2\n        /* \"#utility.yul\":6131:6155   */\n      tag_49\n      jump\t// in\n    tag_137:\n        /* \"#utility.yul\":6126:6129   */\n      dup3\n        /* \"#utility.yul\":6119:6156   */\n      mstore\n        /* \"#utility.yul\":6054:6162   */\n      pop\n      pop\n      jump\t// out\n        /* \"#utility.yul\":6168:6347   */\n    tag_64:\n        /* \"#utility.yul\":6237:6247   */\n      0x00\n        /* \"#utility.yul\":6258:6304   */\n      tag_139\n        /* \"#utility.yul\":6300:6303   */\n      dup4\n        /* \"#utility.yul\":6292:6298   */\n      dup4\n        /* \"#utility.yul\":6258:6304   */\n      tag_63\n      jump\t// in\n    tag_139:\n        /* \"#utility.yul\":6336:6340   */\n      0x20\n        /* \"#utility.yul\":6331:6334   */\n      dup4\n        /* \"#utility.yul\":6327:6341   */\n      add\n        /* \"#utility.yul\":6313:6341   */\n      swap1\n      pop\n        /* \"#utility.yul\":6168:6347   */\n      swap3\n      swap2\n      pop\n      pop\n      jump\t// out\n        /* \"#utility.yul\":6353:6466   */\n    tag_65:\n        /* \"#utility.yul\":6423:6427   */\n      0x00\n        /* \"#utility.yul\":6455:6459   */\n      0x20\n        /* \"#utility.yul\":6450:6453   */\n      dup3\n        /* \"#utility.yul\":6446:6460   */\n      add\n        /* \"#utility.yul\":6438:6460   */\n      swap1\n      pop\n        /* \"#utility.yul\":6353:6466   */\n      swap2\n      swap1\n      pop\n      jump\t// out\n        /* \"#utility.yul\":6502:7234   */\n    tag_66:\n        /* \"#utility.yul\":6621:6624   */\n      0x00\n        /* \"#utility.yul\":6650:6704   */\n      tag_142\n        /* \"#utility.yul\":6698:6703   */\n      dup3\n        /* \"#utility.yul\":6650:6704   */\n      tag_60\n      jump\t// in\n    tag_142:\n        /* \"#utility.yul\":6720:6806   */\n      tag_143\n        /* \"#utility.yul\":6799:6805   */\n      dup2\n        /* \"#utility.yul\":6794:6797   */\n      dup6\n        /* \"#utility.yul\":6720:6806   */\n      tag_61\n      jump\t// in\n    tag_143:\n        /* \"#utility.yul\":6713:6806   */\n      swap4\n      pop\n        /* \"#utility.yul\":6830:6886   */\n      tag_144\n        /* \"#utility.yul\":6880:6885   */\n      dup4\n        /* \"#utility.yul\":6830:6886   */\n      tag_62\n      jump\t// in\n    tag_144:\n        /* \"#utility.yul\":6909:6916   */\n      dup1\n        /* \"#utility.yul\":6940:6941   */\n      0x00\n        /* \"#utility.yul\":6925:7209   */\n    tag_145:\n        /* \"#utility.yul\":6950:6956   */\n      dup4\n        /* \"#utility.yul\":6947:6948   */\n      dup2\n        /* \"#utility.yul\":6944:6957   */\n      lt\n        /* \"#utility.yul\":6925:7209   */\n      iszero\n      tag_147\n      jumpi\n        /* \"#utility.yul\":7026:7032   */\n      dup2\n        /* \"#utility.yul\":7020:7033   */\n      mload\n        /* \"#utility.yul\":7053:7116   */\n      tag_148\n        /* \"#utility.yul\":7112:7115   */\n      dup9\n        /* \"#utility.yul\":7097:7110   */\n      dup3\n        /* \"#utility.yul\":7053:7116   */\n      tag_64\n      jump\t// in\n    tag_148:\n        /* \"#utility.yul\":7046:7116   */\n      swap8\n      pop\n        /* \"#utility.yul\":7139:7199   */\n      tag_149\n        /* \"#utility.yul\":7192:7198   */\n      dup4\n        /* \"#utility.yul\":7139:7199   */\n      tag_65\n      jump\t// in\n    tag_149:\n        /* \"#utility.yul\":7129:7199   */\n      swap3\n      pop\n        /* \"#utility.yul\":6985:7209   */\n      pop\n        /* \"#utility.yul\":6972:6973   */\n      0x01\n        /* \"#utility.yul\":6969:6970   */\n      dup2\n        /* \"#utility.yul\":6965:6974   */\n      add\n        /* \"#utility.yul\":6960:6974   */\n      swap1\n      pop\n        /* \"#utility.yul\":6925:7209   */\n      jump(tag_145)\n    tag_147:\n        /* \"#utility.yul\":6929:6943   */\n      pop\n        /* \"#utility.yul\":7225:7228   */\n      dup6\n        /* \"#utility.yul\":7218:7228   */\n      swap4\n      pop\n        /* \"#utility.yul\":6626:7234   */\n      pop\n      pop\n      pop\n        /* \"#utility.yul\":6502:7234   */\n      swap3\n      swap2\n      pop\n      pop\n      jump\t// out\n        /* \"#utility.yul\":7240:7613   */\n    tag_23:\n        /* \"#utility.yul\":7383:7387   */\n      0x00\n        /* \"#utility.yul\":7421:7423   */\n      0x20\n        /* \"#utility.yul\":7410:7419   */\n      dup3\n        /* \"#utility.yul\":7406:7424   */\n      add\n        /* \"#utility.yul\":7398:7424   */\n      swap1\n      pop\n        /* \"#utility.yul\":7470:7479   */\n      dup2\n        /* \"#utility.yul\":7464:7468   */\n      dup2\n        /* \"#utility.yul\":7460:7480   */\n      sub\n        /* \"#utility.yul\":7456:7457   */\n      0x00\n        /* \"#utility.yul\":7445:7454   */\n      dup4\n        /* \"#utility.yul\":7441:7458   */\n      add\n        /* \"#utility.yul\":7434:7481   */\n      mstore\n        /* \"#utility.yul\":7498:7606   */\n      tag_151\n        /* \"#utility.yul\":7601:7605   */\n      dup2\n        /* \"#utility.yul\":7592:7598   */\n      dup5\n        /* \"#utility.yul\":7498:7606   */\n      tag_66\n      jump\t// in\n    tag_151:\n        /* \"#utility.yul\":7490:7606   */\n      swap1\n      pop\n        /* \"#utility.yul\":7240:7613   */\n      swap3\n      swap2\n      pop\n      pop\n      jump\t// out\n        /* \"#utility.yul\":7619:7799   */\n    tag_38:\n        /* \"#utility.yul\":7667:7744   */\n      0x4e487b7100000000000000000000000000000000000000000000000000000000\n        /* \"#utility.yul\":7664:7665   */\n      0x00\n        /* \"#utility.yul\":7657:7745   */\n      mstore\n        /* \"#utility.yul\":7764:7768   */\n      0x32\n        /* \"#utility.yul\":7761:7762   */\n      0x04\n        /* \"#utility.yul\":7754:7769   */\n      mstore\n        /* \"#utility.yul\":7788:7792   */\n      0x24\n        /* \"#utility.yul\":7785:7786   */\n      0x00\n        /* \"#utility.yul\":7778:7793   */\n      revert\n        /* \"#utility.yul\":7805:7985   */\n    tag_67:\n        /* \"#utility.yul\":7853:7930   */\n      0x4e487b7100000000000000000000000000000000000000000000000000000000\n        /* \"#utility.yul\":7850:7851   */\n      0x00\n        /* \"#utility.yul\":7843:7931   */\n      mstore\n        /* \"#utility.yul\":7950:7954   */\n      0x11\n        /* \"#utility.yul\":7947:7948   */\n      0x04\n        /* \"#utility.yul\":7940:7955   */\n      mstore\n        /* \"#utility.yul\":7974:7978   */\n      0x24\n        /* \"#utility.yul\":7971:7972   */\n      0x00\n        /* \"#utility.yul\":7964:7979   */\n      revert\n        /* \"#utility.yul\":7991:8224   */\n    tag_40:\n        /* \"#utility.yul\":8030:8033   */\n      0x00\n        /* \"#utility.yul\":8053:8077   */\n      tag_155\n        /* \"#utility.yul\":8071:8076   */\n      dup3\n        /* \"#utility.yul\":8053:8077   */\n      tag_49\n      jump\t// in\n    tag_155:\n        /* \"#utility.yul\":8044:8077   */\n      swap2\n      pop\n        /* \"#utility.yul\":8099:8165   */\n      0xffffffffffffffffffffffffffffffffffffffffffffffffffffffffffffffff\n        /* \"#utility.yul\":8092:8097   */\n      dup3\n        /* \"#utility.yul\":8089:8166   */\n      sub\n        /* \"#utility.yul\":8086:8189   */\n      tag_156\n      jumpi\n        /* \"#utility.yul\":8169:8187   */\n      tag_157\n      tag_67\n      jump\t// in\n    tag_157:\n        /* \"#utility.yul\":8086:8189   */\n    tag_156:\n        /* \"#utility.yul\":8216:8217   */\n      0x01\n        /* \"#utility.yul\":8209:8214   */\n      dup3\n        /* \"#utility.yul\":8205:8218   */\n      add\n        /* \"#utility.yul\":8198:8218   */\n      swap1\n      pop\n        /* \"#utility.yul\":7991:8224   */\n      swap2\n      swap1\n      pop\n      jump\t// out\n\n    auxdata: 0xa26469706673582212202650943f3ed246c53939235b4e195ece806e30a86fe7f85510e449770a14296764736f6c634300081a0033\n}\n",
				"bytecode": {
					"linkReferences": {},
					"object": "60806040526040518060200160405280600a81525060025f820151815f01555050348015602a575f80fd5b50600260035f600181526020019081526020015f205f820154815f0155905050610607806100575f395ff3fe60806040526004361061003e575f3560e01c806340dcbb081461004257806371e5ee5f1461006a5780637bc5bbbf146100a6578063baf71609146100d6575b5f80fd5b34801561004d575f80fd5b50610068600480360381019061006391906101f9565b610112565b005b348015610075575f80fd5b50610090600480360381019061008b9190610277565b610116565b60405161009d91906102b1565b60405180910390f35b6100c060048036038101906100bb9190610412565b610135565b6040516100cd9190610510565b60405180910390f35b3480156100e1575f80fd5b506100fc60048036038101906100f79190610412565b61017d565b6040516101099190610510565b60405180910390f35b5050565b5f8181548110610124575f80fd5b905f5260205f20015f915090505481565b60605f5b82518111610174578083828151811061015557610154610530565b5b602002602001018181525050808061016c9061058a565b915050610139565b50819050919050565b6060819050919050565b5f604051905090565b5f80fd5b5f80fd5b5f80fd5b5f80fd5b5f80fd5b5f8083601f8401126101b9576101b8610198565b5b8235905067ffffffffffffffff8111156101d6576101d561019c565b5b6020830191508360208202830111156101f2576101f16101a0565b5b9250929050565b5f806020838503121561020f5761020e610190565b5b5f83013567ffffffffffffffff81111561022c5761022b610194565b5b610238858286016101a4565b92509250509250929050565b5f819050919050565b61025681610244565b8114610260575f80fd5b50565b5f813590506102718161024d565b92915050565b5f6020828403121561028c5761028b610190565b5b5f61029984828501610263565b91505092915050565b6102ab81610244565b82525050565b5f6020820190506102c45f8301846102a2565b92915050565b5f601f19601f8301169050919050565b7f4e487b71000000000000000000000000000000000000000000000000000000005f52604160045260245ffd5b610310826102ca565b810181811067ffffffffffffffff8211171561032f5761032e6102da565b5b80604052505050565b5f610341610187565b905061034d8282610307565b919050565b5f67ffffffffffffffff82111561036c5761036b6102da565b5b602082029050602081019050919050565b5f61038f61038a84610352565b610338565b905080838252602082019050602084028301858111156103b2576103b16101a0565b5b835b818110156103db57806103c78882610263565b8452602084019350506020810190506103b4565b5050509392505050565b5f82601f8301126103f9576103f8610198565b5b813561040984826020860161037d565b91505092915050565b5f6020828403121561042757610426610190565b5b5f82013567ffffffffffffffff81111561044457610443610194565b5b610450848285016103e5565b91505092915050565b5f81519050919050565b5f82825260208201905092915050565b5f819050602082019050919050565b61048b81610244565b82525050565b5f61049c8383610482565b60208301905092915050565b5f602082019050919050565b5f6104be82610459565b6104c88185610463565b93506104d383610473565b805f5b838110156105035781516104ea8882610491565b97506104f5836104a8565b9250506001810190506104d6565b5085935050505092915050565b5f6020820190508181035f83015261052881846104b4565b905092915050565b7f4e487b71000000000000000000000000000000000000000000000000000000005f52603260045260245ffd5b7f4e487b71000000000000000000000000000000000000000000000000000000005f52601160045260245ffd5b5f61059482610244565b91507fffffffffffffffffffffffffffffffffffffffffffffffffffffffffffffffff82036105c6576105c561055d565b5b60018201905091905056fea26469706673582212202650943f3ed246c53939235b4e195ece806e30a86fe7f85510e449770a14296764736f6c634300081a0033",
					"opcodes": "PUSH1 0x80 PUSH1 0x40 MSTORE PUSH1 0x40 MLOAD DUP1 PUSH1 0x20 ADD PUSH1 0x40 MSTORE DUP1 PUSH1 0xA DUP2 MSTORE POP PUSH1 0x2 PUSH0 DUP3 ADD MLOAD DUP2 PUSH0 ADD SSTORE POP POP CALLVALUE DUP1 ISZERO PUSH1 0x2A JUMPI PUSH0 DUP1 REVERT JUMPDEST POP PUSH1 0x2 PUSH1 0x3 PUSH0 PUSH1 0x1 DUP2 MSTORE PUSH1 0x20 ADD SWAP1 DUP2 MSTORE PUSH1 0x20 ADD PUSH0 KECCAK256 PUSH0 DUP3 ADD SLOAD DUP2 PUSH0 ADD SSTORE SWAP1 POP POP PUSH2 0x607 DUP1 PUSH2 0x57 PUSH0 CODECOPY PUSH0 RETURN INVALID PUSH1 0x80 PUSH1 0x40 MSTORE PUSH1 0x4 CALLDATASIZE LT PUSH2 0x3E JUMPI PUSH0 CALLDATALOAD PUSH1 0xE0 SHR DUP1 PUSH4 0x40DCBB08 EQ PUSH2 0x42 JUMPI DUP1 PUSH4 0x71E5EE5F EQ PUSH2 0x6A JUMPI DUP1 PUSH4 0x7BC5BBBF EQ PUSH2 0xA6 JUMPI DUP1 PUSH4 0xBAF71609 EQ PUSH2 0xD6 JUMPI JUMPDEST PUSH0 DUP1 REVERT JUMPDEST CALLVALUE DUP1 ISZERO PUSH2 0x4D JUMPI PUSH0 DUP1 REVERT JUMPDEST POP PUSH2 0x68 PUSH1 0x4 DUP1 CALLDATASIZE SUB DUP2 ADD SWAP1 PUSH2 0x63 SWAP2 SWAP1 PUSH2 0x1F9 JUMP JUMPDEST PUSH2 0x112 JUMP JUMPDEST STOP JUMPDEST CALLVALUE DUP1 ISZERO PUSH2 0x75 JUMPI PUSH0 DUP1 REVERT JUMPDEST POP PUSH2 0x90 PUSH1 0x4 DUP1 CALLDATASIZE SUB DUP2 ADD SWAP1 PUSH2 0x8B SWAP2 SWAP1 PUSH2 0x277 JUMP JUMPDEST PUSH2 0x116 JUMP JUMPDEST PUSH1 0x40 MLOAD PUSH2 0x9D SWAP2 SWAP1 PUSH2 0x2B1 JUMP JUMPDEST PUSH1 0x40 MLOAD DUP1 SWAP2 SUB SWAP1 RETURN JUMPDEST PUSH2 0xC0 PUSH1 0x4 DUP1 CALLDATASIZE SUB DUP2 ADD SWAP1 PUSH2 0xBB SWAP2 SWAP1 PUSH2 0x412 JUMP JUMPDEST PUSH2 0x135 JUMP JUMPDEST PUSH1 0x40 MLOAD PUSH2 0xCD SWAP2 SWAP1 PUSH2 0x510 JUMP JUMPDEST PUSH1 0x40 MLOAD DUP1 SWAP2 SUB SWAP1 RETURN JUMPDEST CALLVALUE DUP1 ISZERO PUSH2 0xE1 JUMPI PUSH0 DUP1 REVERT JUMPDEST POP PUSH2 0xFC PUSH1 0x4 DUP1 CALLDATASIZE SUB DUP2 ADD SWAP1 PUSH2 0xF7 SWAP2 SWAP1 PUSH2 0x412 JUMP JUMPDEST PUSH2 0x17D JUMP JUMPDEST PUSH1 0x40 MLOAD PUSH2 0x109 SWAP2 SWAP1 PUSH2 0x510 JUMP JUMPDEST PUSH1 0x40 MLOAD DUP1 SWAP2 SUB SWAP1 RETURN JUMPDEST POP POP JUMP JUMPDEST PUSH0 DUP2 DUP2 SLOAD DUP2 LT PUSH2 0x124 JUMPI PUSH0 DUP1 REVERT JUMPDEST SWAP1 PUSH0 MSTORE PUSH1 0x20 PUSH0 KECCAK256 ADD PUSH0 SWAP2 POP SWAP1 POP SLOAD DUP2 JUMP JUMPDEST PUSH1 0x60 PUSH0 JUMPDEST DUP3 MLOAD DUP2 GT PUSH2 0x174 JUMPI DUP1 DUP4 DUP3 DUP2 MLOAD DUP2 LT PUSH2 0x155 JUMPI PUSH2 0x154 PUSH2 0x530 JUMP JUMPDEST JUMPDEST PUSH1 0x20 MUL PUSH1 0x20 ADD ADD DUP2 DUP2 MSTORE POP POP DUP1 DUP1 PUSH2 0x16C SWAP1 PUSH2 0x58A JUMP JUMPDEST SWAP2 POP POP PUSH2 0x139 JUMP JUMPDEST POP DUP2 SWAP1 POP SWAP2 SWAP1 POP JUMP JUMPDEST PUSH1 0x60 DUP2 SWAP1 POP SWAP2 SWAP1 POP JUMP JUMPDEST PUSH0 PUSH1 0x40 MLOAD SWAP1 POP SWAP1 JUMP JUMPDEST PUSH0 DUP1 REVERT JUMPDEST PUSH0 DUP1 REVERT JUMPDEST PUSH0 DUP1 REVERT JUMPDEST PUSH0 DUP1 REVERT JUMPDEST PUSH0 DUP1 REVERT JUMPDEST PUSH0 DUP1 DUP4 PUSH1 0x1F DUP5 ADD SLT PUSH2 0x1B9 JUMPI PUSH2 0x1B8 PUSH2 0x198 JUMP JUMPDEST JUMPDEST DUP3 CALLDATALOAD SWAP1 POP PUSH8 0xFFFFFFFFFFFFFFFF DUP2 GT ISZERO PUSH2 0x1D6 JUMPI PUSH2 0x1D5 PUSH2 0x19C JUMP JUMPDEST JUMPDEST PUSH1 0x20 DUP4 ADD SWAP2 POP DUP4 PUSH1 0x20 DUP3 MUL DUP4 ADD GT ISZERO PUSH2 0x1F2 JUMPI PUSH2 0x1F1 PUSH2 0x1A0 JUMP JUMPDEST JUMPDEST SWAP3 POP SWAP3 SWAP1 POP JUMP JUMPDEST PUSH0 DUP1 PUSH1 0x20 DUP4 DUP6 SUB SLT ISZERO PUSH2 0x20F JUMPI PUSH2 0x20E PUSH2 0x190 JUMP JUMPDEST JUMPDEST PUSH0 DUP4 ADD CALLDATALOAD PUSH8 0xFFFFFFFFFFFFFFFF DUP2 GT ISZERO PUSH2 0x22C JUMPI PUSH2 0x22B PUSH2 0x194 JUMP JUMPDEST JUMPDEST PUSH2 0x238 DUP6 DUP3 DUP7 ADD PUSH2 0x1A4 JUMP JUMPDEST SWAP3 POP SWAP3 POP POP SWAP3 POP SWAP3 SWAP1 POP JUMP JUMPDEST PUSH0 DUP2 SWAP1 POP SWAP2 SWAP1 POP JUMP JUMPDEST PUSH2 0x256 DUP2 PUSH2 0x244 JUMP JUMPDEST DUP2 EQ PUSH2 0x260 JUMPI PUSH0 DUP1 REVERT JUMPDEST POP JUMP JUMPDEST PUSH0 DUP2 CALLDATALOAD SWAP1 POP PUSH2 0x271 DUP2 PUSH2 0x24D JUMP JUMPDEST SWAP3 SWAP2 POP POP JUMP JUMPDEST PUSH0 PUSH1 0x20 DUP3 DUP5 SUB SLT ISZERO PUSH2 0x28C JUMPI PUSH2 0x28B PUSH2 0x190 JUMP JUMPDEST JUMPDEST PUSH0 PUSH2 0x299 DUP5 DUP3 DUP6 ADD PUSH2 0x263 JUMP JUMPDEST SWAP2 POP POP SWAP3 SWAP2 POP POP JUMP JUMPDEST PUSH2 0x2AB DUP2 PUSH2 0x244 JUMP JUMPDEST DUP3 MSTORE POP POP JUMP JUMPDEST PUSH0 PUSH1 0x20 DUP3 ADD SWAP1 POP PUSH2 0x2C4 PUSH0 DUP4 ADD DUP5 PUSH2 0x2A2 JUMP JUMPDEST SWAP3 SWAP2 POP POP JUMP JUMPDEST PUSH0 PUSH1 0x1F NOT PUSH1 0x1F DUP4 ADD AND SWAP1 POP SWAP2 SWAP1 POP JUMP JUMPDEST PUSH32 0x4E487B7100000000000000000000000000000000000000000000000000000000 PUSH0 MSTORE PUSH1 0x41 PUSH1 0x4 MSTORE PUSH1 0x24 PUSH0 REVERT JUMPDEST PUSH2 0x310 DUP3 PUSH2 0x2CA JUMP JUMPDEST DUP2 ADD DUP2 DUP2 LT PUSH8 0xFFFFFFFFFFFFFFFF DUP3 GT OR ISZERO PUSH2 0x32F JUMPI PUSH2 0x32E PUSH2 0x2DA JUMP JUMPDEST JUMPDEST DUP1 PUSH1 0x40 MSTORE POP POP POP JUMP JUMPDEST PUSH0 PUSH2 0x341 PUSH2 0x187 JUMP JUMPDEST SWAP1 POP PUSH2 0x34D DUP3 DUP3 PUSH2 0x307 JUMP JUMPDEST SWAP2 SWAP1 POP JUMP JUMPDEST PUSH0 PUSH8 0xFFFFFFFFFFFFFFFF DUP3 GT ISZERO PUSH2 0x36C JUMPI PUSH2 0x36B PUSH2 0x2DA JUMP JUMPDEST JUMPDEST PUSH1 0x20 DUP3 MUL SWAP1 POP PUSH1 0x20 DUP2 ADD SWAP1 POP SWAP2 SWAP1 POP JUMP JUMPDEST PUSH0 PUSH2 0x38F PUSH2 0x38A DUP5 PUSH2 0x352 JUMP JUMPDEST PUSH2 0x338 JUMP JUMPDEST SWAP1 POP DUP1 DUP4 DUP3 MSTORE PUSH1 0x20 DUP3 ADD SWAP1 POP PUSH1 0x20 DUP5 MUL DUP4 ADD DUP6 DUP2 GT ISZERO PUSH2 0x3B2 JUMPI PUSH2 0x3B1 PUSH2 0x1A0 JUMP JUMPDEST JUMPDEST DUP4 JUMPDEST DUP2 DUP2 LT ISZERO PUSH2 0x3DB JUMPI DUP1 PUSH2 0x3C7 DUP9 DUP3 PUSH2 0x263 JUMP JUMPDEST DUP5 MSTORE PUSH1 0x20 DUP5 ADD SWAP4 POP POP PUSH1 0x20 DUP2 ADD SWAP1 POP PUSH2 0x3B4 JUMP JUMPDEST POP POP POP SWAP4 SWAP3 POP POP POP JUMP JUMPDEST PUSH0 DUP3 PUSH1 0x1F DUP4 ADD SLT PUSH2 0x3F9 JUMPI PUSH2 0x3F8 PUSH2 0x198 JUMP JUMPDEST JUMPDEST DUP2 CALLDATALOAD PUSH2 0x409 DUP5 DUP3 PUSH1 0x20 DUP7 ADD PUSH2 0x37D JUMP JUMPDEST SWAP2 POP POP SWAP3 SWAP2 POP POP JUMP JUMPDEST PUSH0 PUSH1 0x20 DUP3 DUP5 SUB SLT ISZERO PUSH2 0x427 JUMPI PUSH2 0x426 PUSH2 0x190 JUMP JUMPDEST JUMPDEST PUSH0 DUP3 ADD CALLDATALOAD PUSH8 0xFFFFFFFFFFFFFFFF DUP2 GT ISZERO PUSH2 0x444 JUMPI PUSH2 0x443 PUSH2 0x194 JUMP JUMPDEST JUMPDEST PUSH2 0x450 DUP5 DUP3 DUP6 ADD PUSH2 0x3E5 JUMP JUMPDEST SWAP2 POP POP SWAP3 SWAP2 POP POP JUMP JUMPDEST PUSH0 DUP2 MLOAD SWAP1 POP SWAP2 SWAP1 POP JUMP JUMPDEST PUSH0 DUP3 DUP3 MSTORE PUSH1 0x20 DUP3 ADD SWAP1 POP SWAP3 SWAP2 POP POP JUMP JUMPDEST PUSH0 DUP2 SWAP1 POP PUSH1 0x20 DUP3 ADD SWAP1 POP SWAP2 SWAP1 POP JUMP JUMPDEST PUSH2 0x48B DUP2 PUSH2 0x244 JUMP JUMPDEST DUP3 MSTORE POP POP JUMP JUMPDEST PUSH0 PUSH2 0x49C DUP4 DUP4 PUSH2 0x482 JUMP JUMPDEST PUSH1 0x20 DUP4 ADD SWAP1 POP SWAP3 SWAP2 POP POP JUMP JUMPDEST PUSH0 PUSH1 0x20 DUP3 ADD SWAP1 POP SWAP2 SWAP1 POP JUMP JUMPDEST PUSH0 PUSH2 0x4BE DUP3 PUSH2 0x459 JUMP JUMPDEST PUSH2 0x4C8 DUP2 DUP6 PUSH2 0x463 JUMP JUMPDEST SWAP4 POP PUSH2 0x4D3 DUP4 PUSH2 0x473 JUMP JUMPDEST DUP1 PUSH0 JUMPDEST DUP4 DUP2 LT ISZERO PUSH2 0x503 JUMPI DUP2 MLOAD PUSH2 0x4EA DUP9 DUP3 PUSH2 0x491 JUMP JUMPDEST SWAP8 POP PUSH2 0x4F5 DUP4 PUSH2 0x4A8 JUMP JUMPDEST SWAP3 POP POP PUSH1 0x1 DUP2 ADD SWAP1 POP PUSH2 0x4D6 JUMP JUMPDEST POP DUP6 SWAP4 POP POP POP POP SWAP3 SWAP2 POP POP JUMP JUMPDEST PUSH0 PUSH1 0x20 DUP3 ADD SWAP1 POP DUP2 DUP2 SUB PUSH0 DUP4 ADD MSTORE PUSH2 0x528 DUP2 DUP5 PUSH2 0x4B4 JUMP JUMPDEST SWAP1 POP SWAP3 SWAP2 POP POP JUMP JUMPDEST PUSH32 0x4E487B7100000000000000000000000000000000000000000000000000000000 PUSH0 MSTORE PUSH1 0x32 PUSH1 0x4 MSTORE PUSH1 0x24 PUSH0 REVERT JUMPDEST PUSH32 0x4E487B7100000000000000000000000000000000000000000000000000000000 PUSH0 MSTORE PUSH1 0x11 PUSH1 0x4 MSTORE PUSH1 0x24 PUSH0 REVERT JUMPDEST PUSH0 PUSH2 0x594 DUP3 PUSH2 0x244 JUMP JUMPDEST SWAP2 POP PUSH32 0xFFFFFFFFFFFFFFFFFFFFFFFFFFFFFFFFFFFFFFFFFFFFFFFFFFFFFFFFFFFFFFFF DUP3 SUB PUSH2 0x5C6 JUMPI PUSH2 0x5C5 PUSH2 0x55D JUMP JUMPDEST JUMPDEST PUSH1 0x1 DUP3 ADD SWAP1 POP SWAP2 SWAP1 POP JUMP INVALID LOG2 PUSH5 0x6970667358 0x22 SLT KECCAK256 0x26 POP SWAP5 EXTCODEHASH RETURNDATACOPY 0xD2 CHAINID 0xC5 CODECOPY CODECOPY 0x23 JUMPDEST 0x4E NOT MCOPY 0xCE DUP1 PUSH15 0x30A86FE7F85510E449770A14296764 PUSH20 0x6F6C634300081A00330000000000000000000000 "
				},
				"gasEstimates": {
					"creation": {
						"codeDepositCost": "308600",
						"executionCost": "46813",
						"totalCost": "355413"
					},
					"external": {
						"arr(uint256)": "infinite",
						"f(uint256[])": "infinite",
						"g(uint256[])": "infinite",
						"h(uint256[])": "448"
					}
				},
				"methodIdentifiers": {
					"arr(uint256)": "71e5ee5f",
					"f(uint256[])": "7bc5bbbf",
					"g(uint256[])": "baf71609",
					"h(uint256[])": "40dcbb08"
				}
			},
			"storageLayout": {
				"storage": [
					{
						"astId": 4,
						"contract": "DataLocations.sol:DataLocations",
						"label": "arr",
						"offset": 0,
						"slot": "0",
						"type": "t_array(t_uint256)dyn_storage"
					},
					{
						"astId": 8,
						"contract": "DataLocations.sol:DataLocations",
						"label": "myMap",
						"offset": 0,
						"slot": "1",
						"type": "t_mapping(t_uint256,t_address)"
					},
					{
						"astId": 17,
						"contract": "DataLocations.sol:DataLocations",
						"label": "s1",
						"offset": 0,
						"slot": "2",
						"type": "t_struct(MyStruct)11_storage"
					},
					{
						"astId": 22,
						"contract": "DataLocations.sol:DataLocations",
						"label": "myStructs",
						"offset": 0,
						"slot": "3",
						"type": "t_mapping(t_uint256,t_struct(MyStruct)11_storage)"
					}
				],
				"types": {
					"t_address": {
						"encoding": "inplace",
						"label": "address",
						"numberOfBytes": "20"
					},
					"t_array(t_uint256)dyn_storage": {
						"base": "t_uint256",
						"encoding": "dynamic_array",
						"label": "uint256[]",
						"numberOfBytes": "32"
					},
					"t_mapping(t_uint256,t_address)": {
						"encoding": "mapping",
						"key": "t_uint256",
						"label": "mapping(uint256 => address)",
						"numberOfBytes": "32",
						"value": "t_address"
					},
					"t_mapping(t_uint256,t_struct(MyStruct)11_storage)": {
						"encoding": "mapping",
						"key": "t_uint256",
						"label": "mapping(uint256 => struct DataLocations.MyStruct)",
						"numberOfBytes": "32",
						"value": "t_struct(MyStruct)11_storage"
					},
					"t_struct(MyStruct)11_storage": {
						"encoding": "inplace",
						"label": "struct DataLocations.MyStruct",
						"members": [
							{
								"astId": 10,
								"contract": "DataLocations.sol:DataLocations",
								"label": "foo",
								"offset": 0,
								"slot": "0",
								"type": "t_uint256"
							}
						],
						"numberOfBytes": "32"
					},
					"t_uint256": {
						"encoding": "inplace",
						"label": "uint256",
						"numberOfBytes": "32"
					}
				}
			},
			"userdoc": {
				"kind": "user",
				"methods": {},
				"version": 1
			}
		}
	}
}