{
	"EtherUints.sol": {
		"EtherUints": {
			"abi": [
				{
					"inputs": [],
					"name": "get_isOneEther",
					"outputs": [
						{
							"internalType": "bool",
							"name": "",
							"type": "bool"
						},
						{
							"internalType": "bool",
							"name": "",
							"type": "bool"
						}
					],
					"stateMutability": "view",
					"type": "function"
				},
				{
					"inputs": [],
					"name": "isOneEther",
					"outputs": [
						{
							"internalType": "bool",
							"name": "",
							"type": "bool"
						}
					],
					"stateMutability": "view",
					"type": "function"
				},
				{
					"inputs": [],
					"name": "isOneWei",
					"outputs": [
						{
							"internalType": "bool",
							"name": "",
							"type": "bool"
						}
					],
					"stateMutability": "view",
					"type": "function"
				},
				{
					"inputs": [],
					"name": "oenWei",
					"outputs": [
						{
							"internalType": "uint256",
							"name": "",
							"type": "uint256"
						}
					],
					"stateMutability": "view",
					"type": "function"
				},
				{
					"inputs": [],
					"name": "oneEther",
					"outputs": [
						{
							"internalType": "uint256",
							"name": "",
							"type": "uint256"
						}
					],
					"stateMutability": "view",
					"type": "function"
				}
			],
			"devdoc": {
				"kind": "dev",
				"methods": {},
				"version": 1
			},
			"evm": {
				"assembly": "    /* \"EtherUints.sol\":57:306  contract EtherUints{... */\n  mstore(0x40, 0x80)\n    /* \"EtherUints.sol\":97:102  1 wei */\n  0x01\n    /* \"EtherUints.sol\":78:102  uint public oenWei=1 wei */\n  0x00\n  sstore\n    /* \"EtherUints.sol\":134:135  1 */\n  0x01\n    /* \"EtherUints.sol\":126:131  1 wei */\n  dup1\n    /* \"EtherUints.sol\":126:135  1 wei ==1 */\n  eq\n    /* \"EtherUints.sol\":104:135  bool public isOneWei= 1 wei ==1 */\n  0x01\n  exp(0x0100, 0x00)\n  dup2\n  sload\n  dup2\n  0xff\n  mul\n  not\n  and\n  swap1\n  dup4\n  iszero\n  iszero\n  mul\n  or\n  swap1\n  sstore\n  pop\n    /* \"EtherUints.sol\":159:166  1 ether */\n  0x0de0b6b3a7640000\n    /* \"EtherUints.sol\":138:166  uint public oneEther=1 ether */\n  0x02\n  sstore\n    /* \"EtherUints.sol\":202:206  1e18 */\n  0x0de0b6b3a7640000\n    /* \"EtherUints.sol\":192:199  1 ether */\n  dup1\n    /* \"EtherUints.sol\":192:206  1 ether ==1e18 */\n  eq\n    /* \"EtherUints.sol\":168:206  bool public isOneEther= 1 ether ==1e18 */\n  0x03\n  exp(0x0100, 0x00)\n  dup2\n  sload\n  dup2\n  0xff\n  mul\n  not\n  and\n  swap1\n  dup4\n  iszero\n  iszero\n  mul\n  or\n  swap1\n  sstore\n  pop\n    /* \"EtherUints.sol\":57:306  contract EtherUints{... */\n  callvalue\n  dup1\n  iszero\n  tag_1\n  jumpi\n  revert(0x00, 0x00)\ntag_1:\n  pop\n  dataSize(sub_0)\n  dup1\n  dataOffset(sub_0)\n  0x00\n  codecopy\n  0x00\n  return\nstop\n\nsub_0: assembly {\n        /* \"EtherUints.sol\":57:306  contract EtherUints{... */\n      mstore(0x40, 0x80)\n      callvalue\n      dup1\n      iszero\n      tag_1\n      jumpi\n      revert(0x00, 0x00)\n    tag_1:\n      pop\n      jumpi(tag_2, lt(calldatasize, 0x04))\n      shr(0xe0, calldataload(0x00))\n      dup1\n      0x28dc556f\n      eq\n      tag_3\n      jumpi\n      dup1\n      0xcf0f5d29\n      eq\n      tag_4\n      jumpi\n      dup1\n      0xd297a89f\n      eq\n      tag_5\n      jumpi\n      dup1\n      0xd5589097\n      eq\n      tag_6\n      jumpi\n      dup1\n      0xde121ca3\n      eq\n      tag_7\n      jumpi\n    tag_2:\n      revert(0x00, 0x00)\n        /* \"EtherUints.sol\":104:135  bool public isOneWei= 1 wei ==1 */\n    tag_3:\n      tag_8\n      tag_9\n      jump\t// in\n    tag_8:\n      mload(0x40)\n      tag_10\n      swap2\n      swap1\n      tag_11\n      jump\t// in\n    tag_10:\n      mload(0x40)\n      dup1\n      swap2\n      sub\n      swap1\n      return\n        /* \"EtherUints.sol\":168:206  bool public isOneEther= 1 ether ==1e18 */\n    tag_4:\n      tag_12\n      tag_13\n      jump\t// in\n    tag_12:\n      mload(0x40)\n      tag_14\n      swap2\n      swap1\n      tag_11\n      jump\t// in\n    tag_14:\n      mload(0x40)\n      dup1\n      swap2\n      sub\n      swap1\n      return\n        /* \"EtherUints.sol\":138:166  uint public oneEther=1 ether */\n    tag_5:\n      tag_15\n      tag_16\n      jump\t// in\n    tag_15:\n      mload(0x40)\n      tag_17\n      swap2\n      swap1\n      tag_18\n      jump\t// in\n    tag_17:\n      mload(0x40)\n      dup1\n      swap2\n      sub\n      swap1\n      return\n        /* \"EtherUints.sol\":209:302  function get_isOneEther()public view returns(bool,bool){... */\n    tag_6:\n      tag_19\n      tag_20\n      jump\t// in\n    tag_19:\n      mload(0x40)\n      tag_21\n      swap3\n      swap2\n      swap1\n      tag_22\n      jump\t// in\n    tag_21:\n      mload(0x40)\n      dup1\n      swap2\n      sub\n      swap1\n      return\n        /* \"EtherUints.sol\":78:102  uint public oenWei=1 wei */\n    tag_7:\n      tag_23\n      tag_24\n      jump\t// in\n    tag_23:\n      mload(0x40)\n      tag_25\n      swap2\n      swap1\n      tag_18\n      jump\t// in\n    tag_25:\n      mload(0x40)\n      dup1\n      swap2\n      sub\n      swap1\n      return\n        /* \"EtherUints.sol\":104:135  bool public isOneWei= 1 wei ==1 */\n    tag_9:\n      0x01\n      0x00\n      swap1\n      sload\n      swap1\n      0x0100\n      exp\n      swap1\n      div\n      0xff\n      and\n      dup2\n      jump\t// out\n        /* \"EtherUints.sol\":168:206  bool public isOneEther= 1 ether ==1e18 */\n    tag_13:\n      0x03\n      0x00\n      swap1\n      sload\n      swap1\n      0x0100\n      exp\n      swap1\n      div\n      0xff\n      and\n      dup2\n      jump\t// out\n        /* \"EtherUints.sol\":138:166  uint public oneEther=1 ether */\n    tag_16:\n      sload(0x02)\n      dup2\n      jump\t// out\n        /* \"EtherUints.sol\":209:302  function get_isOneEther()public view returns(bool,bool){... */\n    tag_20:\n        /* \"EtherUints.sol\":254:258  bool */\n      0x00\n        /* \"EtherUints.sol\":259:263  bool */\n      0x00\n        /* \"EtherUints.sol\":279:289  isOneEther */\n      0x03\n      0x00\n      swap1\n      sload\n      swap1\n      0x0100\n      exp\n      swap1\n      div\n      0xff\n      and\n        /* \"EtherUints.sol\":290:298  isOneWei */\n      0x01\n      0x00\n      swap1\n      sload\n      swap1\n      0x0100\n      exp\n      swap1\n      div\n      0xff\n      and\n        /* \"EtherUints.sol\":271:299  return (isOneEther,isOneWei) */\n      swap2\n      pop\n      swap2\n      pop\n        /* \"EtherUints.sol\":209:302  function get_isOneEther()public view returns(bool,bool){... */\n      swap1\n      swap2\n      jump\t// out\n        /* \"EtherUints.sol\":78:102  uint public oenWei=1 wei */\n    tag_24:\n      sload(0x00)\n      dup2\n      jump\t// out\n        /* \"#utility.yul\":7:97   */\n    tag_27:\n        /* \"#utility.yul\":41:48   */\n      0x00\n        /* \"#utility.yul\":84:89   */\n      dup2\n        /* \"#utility.yul\":77:90   */\n      iszero\n        /* \"#utility.yul\":70:91   */\n      iszero\n        /* \"#utility.yul\":59:91   */\n      swap1\n      pop\n        /* \"#utility.yul\":7:97   */\n      swap2\n      swap1\n      pop\n      jump\t// out\n        /* \"#utility.yul\":103:212   */\n    tag_28:\n        /* \"#utility.yul\":184:205   */\n      tag_34\n        /* \"#utility.yul\":199:204   */\n      dup2\n        /* \"#utility.yul\":184:205   */\n      tag_27\n      jump\t// in\n    tag_34:\n        /* \"#utility.yul\":179:182   */\n      dup3\n        /* \"#utility.yul\":172:206   */\n      mstore\n        /* \"#utility.yul\":103:212   */\n      pop\n      pop\n      jump\t// out\n        /* \"#utility.yul\":218:428   */\n    tag_11:\n        /* \"#utility.yul\":305:309   */\n      0x00\n        /* \"#utility.yul\":343:345   */\n      0x20\n        /* \"#utility.yul\":332:341   */\n      dup3\n        /* \"#utility.yul\":328:346   */\n      add\n        /* \"#utility.yul\":320:346   */\n      swap1\n      pop\n        /* \"#utility.yul\":356:421   */\n      tag_36\n        /* \"#utility.yul\":418:419   */\n      0x00\n        /* \"#utility.yul\":407:416   */\n      dup4\n        /* \"#utility.yul\":403:420   */\n      add\n        /* \"#utility.yul\":394:400   */\n      dup5\n        /* \"#utility.yul\":356:421   */\n      tag_28\n      jump\t// in\n    tag_36:\n        /* \"#utility.yul\":218:428   */\n      swap3\n      swap2\n      pop\n      pop\n      jump\t// out\n        /* \"#utility.yul\":434:511   */\n    tag_29:\n        /* \"#utility.yul\":471:478   */\n      0x00\n        /* \"#utility.yul\":500:505   */\n      dup2\n        /* \"#utility.yul\":489:505   */\n      swap1\n      pop\n        /* \"#utility.yul\":434:511   */\n      swap2\n      swap1\n      pop\n      jump\t// out\n        /* \"#utility.yul\":517:635   */\n    tag_30:\n        /* \"#utility.yul\":604:628   */\n      tag_39\n        /* \"#utility.yul\":622:627   */\n      dup2\n        /* \"#utility.yul\":604:628   */\n      tag_29\n      jump\t// in\n    tag_39:\n        /* \"#utility.yul\":599:602   */\n      dup3\n        /* \"#utility.yul\":592:629   */\n      mstore\n        /* \"#utility.yul\":517:635   */\n      pop\n      pop\n      jump\t// out\n        /* \"#utility.yul\":641:863   */\n    tag_18:\n        /* \"#utility.yul\":734:738   */\n      0x00\n        /* \"#utility.yul\":772:774   */\n      0x20\n        /* \"#utility.yul\":761:770   */\n      dup3\n        /* \"#utility.yul\":757:775   */\n      add\n        /* \"#utility.yul\":749:775   */\n      swap1\n      pop\n        /* \"#utility.yul\":785:856   */\n      tag_41\n        /* \"#utility.yul\":853:854   */\n      0x00\n        /* \"#utility.yul\":842:851   */\n      dup4\n        /* \"#utility.yul\":838:855   */\n      add\n        /* \"#utility.yul\":829:835   */\n      dup5\n        /* \"#utility.yul\":785:856   */\n      tag_30\n      jump\t// in\n    tag_41:\n        /* \"#utility.yul\":641:863   */\n      swap3\n      swap2\n      pop\n      pop\n      jump\t// out\n        /* \"#utility.yul\":869:1177   */\n    tag_22:\n        /* \"#utility.yul\":978:982   */\n      0x00\n        /* \"#utility.yul\":1016:1018   */\n      0x40\n        /* \"#utility.yul\":1005:1014   */\n      dup3\n        /* \"#utility.yul\":1001:1019   */\n      add\n        /* \"#utility.yul\":993:1019   */\n      swap1\n      pop\n        /* \"#utility.yul\":1029:1094   */\n      tag_43\n        /* \"#utility.yul\":1091:1092   */\n      0x00\n        /* \"#utility.yul\":1080:1089   */\n      dup4\n        /* \"#utility.yul\":1076:1093   */\n      add\n        /* \"#utility.yul\":1067:1073   */\n      dup6\n        /* \"#utility.yul\":1029:1094   */\n      tag_28\n      jump\t// in\n    tag_43:\n        /* \"#utility.yul\":1104:1170   */\n      tag_44\n        /* \"#utility.yul\":1166:1168   */\n      0x20\n        /* \"#utility.yul\":1155:1164   */\n      dup4\n        /* \"#utility.yul\":1151:1169   */\n      add\n        /* \"#utility.yul\":1142:1148   */\n      dup5\n        /* \"#utility.yul\":1104:1170   */\n      tag_28\n      jump\t// in\n    tag_44:\n        /* \"#utility.yul\":869:1177   */\n      swap4\n      swap3\n      pop\n      pop\n      pop\n      jump\t// out\n\n    auxdata: 0xa2646970667358221220cbe3b64ff56f9e11f6f040abff5d804e86cc58a6b565ff1191dcabf87b514b6964736f6c634300081c0033\n}\n",
				"bytecode": {
					"linkReferences": {},
					"object": "608060405260015f556001801460015f6101000a81548160ff021916908315150217905550670de0b6b3a7640000600255670de0b6b3a7640000801460035f6101000a81548160ff021916908315150217905550348015605d575f5ffd5b506102088061006b5f395ff3fe608060405234801561000f575f5ffd5b5060043610610055575f3560e01c806328dc556f14610059578063cf0f5d2914610077578063d297a89f14610095578063d5589097146100b3578063de121ca3146100d2575b5f5ffd5b6100616100f0565b60405161006e9190610161565b60405180910390f35b61007f610102565b60405161008c9190610161565b60405180910390f35b61009d610114565b6040516100aa9190610192565b60405180910390f35b6100bb61011a565b6040516100c99291906101ab565b60405180910390f35b6100da610142565b6040516100e79190610192565b60405180910390f35b60015f9054906101000a900460ff1681565b60035f9054906101000a900460ff1681565b60025481565b5f5f60035f9054906101000a900460ff1660015f9054906101000a900460ff16915091509091565b5f5481565b5f8115159050919050565b61015b81610147565b82525050565b5f6020820190506101745f830184610152565b92915050565b5f819050919050565b61018c8161017a565b82525050565b5f6020820190506101a55f830184610183565b92915050565b5f6040820190506101be5f830185610152565b6101cb6020830184610152565b939250505056fea2646970667358221220cbe3b64ff56f9e11f6f040abff5d804e86cc58a6b565ff1191dcabf87b514b6964736f6c634300081c0033",
					"opcodes": "PUSH1 0x80 PUSH1 0x40 MSTORE PUSH1 0x1 PUSH0 SSTORE PUSH1 0x1 DUP1 EQ PUSH1 0x1 PUSH0 PUSH2 0x100 EXP DUP2 SLOAD DUP2 PUSH1 0xFF MUL NOT AND SWAP1 DUP4 ISZERO ISZERO MUL OR SWAP1 SSTORE POP PUSH8 0xDE0B6B3A7640000 PUSH1 0x2 SSTORE PUSH8 0xDE0B6B3A7640000 DUP1 EQ PUSH1 0x3 PUSH0 PUSH2 0x100 EXP DUP2 SLOAD DUP2 PUSH1 0xFF MUL NOT AND SWAP1 DUP4 ISZERO ISZERO MUL OR SWAP1 SSTORE POP CALLVALUE DUP1 ISZERO PUSH1 0x5D JUMPI PUSH0 PUSH0 REVERT JUMPDEST POP PUSH2 0x208 DUP1 PUSH2 0x6B PUSH0 CODECOPY PUSH0 RETURN INVALID PUSH1 0x80 PUSH1 0x40 MSTORE CALLVALUE DUP1 ISZERO PUSH2 0xF JUMPI PUSH0 PUSH0 REVERT JUMPDEST POP PUSH1 0x4 CALLDATASIZE LT PUSH2 0x55 JUMPI PUSH0 CALLDATALOAD PUSH1 0xE0 SHR DUP1 PUSH4 0x28DC556F EQ PUSH2 0x59 JUMPI DUP1 PUSH4 0xCF0F5D29 EQ PUSH2 0x77 JUMPI DUP1 PUSH4 0xD297A89F EQ PUSH2 0x95 JUMPI DUP1 PUSH4 0xD5589097 EQ PUSH2 0xB3 JUMPI DUP1 PUSH4 0xDE121CA3 EQ PUSH2 0xD2 JUMPI JUMPDEST PUSH0 PUSH0 REVERT JUMPDEST PUSH2 0x61 PUSH2 0xF0 JUMP JUMPDEST PUSH1 0x40 MLOAD PUSH2 0x6E SWAP2 SWAP1 PUSH2 0x161 JUMP JUMPDEST PUSH1 0x40 MLOAD DUP1 SWAP2 SUB SWAP1 RETURN JUMPDEST PUSH2 0x7F PUSH2 0x102 JUMP JUMPDEST PUSH1 0x40 MLOAD PUSH2 0x8C SWAP2 SWAP1 PUSH2 0x161 JUMP JUMPDEST PUSH1 0x40 MLOAD DUP1 SWAP2 SUB SWAP1 RETURN JUMPDEST PUSH2 0x9D PUSH2 0x114 JUMP JUMPDEST PUSH1 0x40 MLOAD PUSH2 0xAA SWAP2 SWAP1 PUSH2 0x192 JUMP JUMPDEST PUSH1 0x40 MLOAD DUP1 SWAP2 SUB SWAP1 RETURN JUMPDEST PUSH2 0xBB PUSH2 0x11A JUMP JUMPDEST PUSH1 0x40 MLOAD PUSH2 0xC9 SWAP3 SWAP2 SWAP1 PUSH2 0x1AB JUMP JUMPDEST PUSH1 0x40 MLOAD DUP1 SWAP2 SUB SWAP1 RETURN JUMPDEST PUSH2 0xDA PUSH2 0x142 JUMP JUMPDEST PUSH1 0x40 MLOAD PUSH2 0xE7 SWAP2 SWAP1 PUSH2 0x192 JUMP JUMPDEST PUSH1 0x40 MLOAD DUP1 SWAP2 SUB SWAP1 RETURN JUMPDEST PUSH1 0x1 PUSH0 SWAP1 SLOAD SWAP1 PUSH2 0x100 EXP SWAP1 DIV PUSH1 0xFF AND DUP2 JUMP JUMPDEST PUSH1 0x3 PUSH0 SWAP1 SLOAD SWAP1 PUSH2 0x100 EXP SWAP1 DIV PUSH1 0xFF AND DUP2 JUMP JUMPDEST PUSH1 0x2 SLOAD DUP2 JUMP JUMPDEST PUSH0 PUSH0 PUSH1 0x3 PUSH0 SWAP1 SLOAD SWAP1 PUSH2 0x100 EXP SWAP1 DIV PUSH1 0xFF AND PUSH1 0x1 PUSH0 SWAP1 SLOAD SWAP1 PUSH2 0x100 EXP SWAP1 DIV PUSH1 0xFF AND SWAP2 POP SWAP2 POP SWAP1 SWAP2 JUMP JUMPDEST PUSH0 SLOAD DUP2 JUMP JUMPDEST PUSH0 DUP2 ISZERO ISZERO SWAP1 POP SWAP2 SWAP1 POP JUMP JUMPDEST PUSH2 0x15B DUP2 PUSH2 0x147 JUMP JUMPDEST DUP3 MSTORE POP POP JUMP JUMPDEST PUSH0 PUSH1 0x20 DUP3 ADD SWAP1 POP PUSH2 0x174 PUSH0 DUP4 ADD DUP5 PUSH2 0x152 JUMP JUMPDEST SWAP3 SWAP2 POP POP JUMP JUMPDEST PUSH0 DUP2 SWAP1 POP SWAP2 SWAP1 POP JUMP JUMPDEST PUSH2 0x18C DUP2 PUSH2 0x17A JUMP JUMPDEST DUP3 MSTORE POP POP JUMP JUMPDEST PUSH0 PUSH1 0x20 DUP3 ADD SWAP1 POP PUSH2 0x1A5 PUSH0 DUP4 ADD DUP5 PUSH2 0x183 JUMP JUMPDEST SWAP3 SWAP2 POP POP JUMP JUMPDEST PUSH0 PUSH1 0x40 DUP3 ADD SWAP1 POP PUSH2 0x1BE PUSH0 DUP4 ADD DUP6 PUSH2 0x152 JUMP JUMPDEST PUSH2 0x1CB PUSH1 0x20 DUP4 ADD DUP5 PUSH2 0x152 JUMP JUMPDEST SWAP4 SWAP3 POP POP POP JUMP INVALID LOG2 PUSH5 0x6970667358 0x22 SLT KECCAK256 0xCB 0xE3 0xB6 0x4F CREATE2 PUSH16 0x9E11F6F040ABFF5D804E86CC58A6B565 SELFDESTRUCT GT SWAP2 0xDC 0xAB 0xF8 PUSH28 0x514B6964736F6C634300081C00330000000000000000000000000000 "
				},
				"gasEstimates": {
					"creation": {
						"codeDepositCost": "104000",
						"executionCost": "92906",
						"totalCost": "196906"
					},
					"external": {
						"get_isOneEther()": "infinite",
						"isOneEther()": "2466",
						"isOneWei()": "2444",
						"oenWei()": "2490",
						"oneEther()": "2447"
					}
				},
				"methodIdentifiers": {
					"get_isOneEther()": "d5589097",
					"isOneEther()": "cf0f5d29",
					"isOneWei()": "28dc556f",
					"oenWei()": "de121ca3",
					"oneEther()": "d297a89f"
				}
			},
			"storageLayout": {
				"storage": [
					{
						"astId": 4,
						"contract": "EtherUints.sol:EtherUints",
						"label": "oenWei",
						"offset": 0,
						"slot": "0",
						"type": "t_uint256"
					},
					{
						"astId": 9,
						"contract": "EtherUints.sol:EtherUints",
						"label": "isOneWei",
						"offset": 0,
						"slot": "1",
						"type": "t_bool"
					},
					{
						"astId": 12,
						"contract": "EtherUints.sol:EtherUints",
						"label": "oneEther",
						"offset": 0,
						"slot": "2",
						"type": "t_uint256"
					},
					{
						"astId": 17,
						"contract": "EtherUints.sol:EtherUints",
						"label": "isOneEther",
						"offset": 0,
						"slot": "3",
						"type": "t_bool"
					}
				],
				"types": {
					"t_bool": {
						"encoding": "inplace",
						"label": "bool",
						"numberOfBytes": "1"
					},
					"t_uint256": {
						"encoding": "inplace",
						"label": "uint256",
						"numberOfBytes": "32"
					}
				}
			},
			"userdoc": {
				"kind": "user",
				"methods": {},
				"version": 1
			}
		}
	}
}