{
	"Struct.sol": {
		"Struct": {
			"abi": [
				{
					"inputs": [],
					"name": "creatAccount",
					"outputs": [],
					"stateMutability": "nonpayable",
					"type": "function"
				},
				{
					"inputs": [
						{
							"internalType": "uint256",
							"name": "amount",
							"type": "uint256"
						}
					],
					"name": "deposit",
					"outputs": [
						{
							"internalType": "uint256",
							"name": "",
							"type": "uint256"
						}
					],
					"stateMutability": "nonpayable",
					"type": "function"
				},
				{
					"inputs": [],
					"name": "getAccount",
					"outputs": [
						{
							"components": [
								{
									"internalType": "address",
									"name": "owner",
									"type": "address"
								},
								{
									"internalType": "uint256",
									"name": "balance",
									"type": "uint256"
								}
							],
							"internalType": "struct Struct.Account[]",
							"name": "",
							"type": "tuple[]"
						},
						{
							"internalType": "uint256",
							"name": "",
							"type": "uint256"
						},
						{
							"internalType": "uint256",
							"name": "",
							"type": "uint256"
						}
					],
					"stateMutability": "view",
					"type": "function"
				}
			],
			"devdoc": {
				"kind": "dev",
				"methods": {},
				"version": 1
			},
			"evm": {
				"assembly": "    /* \"Struct.sol\":57:636  contract Struct{... */\n  mstore(0x40, 0x80)\n    /* \"Struct.sol\":146:173  Account(msg.sender,2 ether) */\n  mload(0x40)\n  dup1\n  0x40\n  add\n  0x40\n  mstore\n  dup1\n    /* \"Struct.sol\":154:164  msg.sender */\n  caller\n    /* \"Struct.sol\":146:173  Account(msg.sender,2 ether) */\n  0xffffffffffffffffffffffffffffffffffffffff\n  and\n  dup2\n  mstore\n  0x20\n  add\n    /* \"Struct.sol\":165:172  2 ether */\n  0x1bc16d674ec80000\n    /* \"Struct.sol\":146:173  Account(msg.sender,2 ether) */\n  dup2\n  mstore\n  pop\n    /* \"Struct.sol\":130:173  Account account=Account(msg.sender,2 ether) */\n  0x00\n  0x00\n  dup3\n  add\n  mload\n  dup2\n  0x00\n  add\n  exp(0x0100, 0x00)\n  dup2\n  sload\n  dup2\n  0xffffffffffffffffffffffffffffffffffffffff\n  mul\n  not\n  and\n  swap1\n  dup4\n  0xffffffffffffffffffffffffffffffffffffffff\n  and\n  mul\n  or\n  swap1\n  sstore\n  pop\n  0x20\n  dup3\n  add\n  mload\n  dup2\n  0x01\n  add\n  sstore\n  pop\n  pop\n    /* \"Struct.sol\":57:636  contract Struct{... */\n  callvalue\n  dup1\n  iszero\n  tag_1\n  jumpi\n  revert(0x00, 0x00)\ntag_1:\n  pop\n  dataSize(sub_0)\n  dup1\n  dataOffset(sub_0)\n  0x00\n  codecopy\n  0x00\n  return\nstop\n\nsub_0: assembly {\n        /* \"Struct.sol\":57:636  contract Struct{... */\n      mstore(0x40, 0x80)\n      callvalue\n      dup1\n      iszero\n      tag_1\n      jumpi\n      revert(0x00, 0x00)\n    tag_1:\n      pop\n      jumpi(tag_2, lt(calldatasize, 0x04))\n      shr(0xe0, calldataload(0x00))\n      dup1\n      0x3b2c2008\n      eq\n      tag_3\n      jumpi\n      dup1\n      0xb6b55f25\n      eq\n      tag_4\n      jumpi\n      dup1\n      0xdb613e81\n      eq\n      tag_5\n      jumpi\n    tag_2:\n      revert(0x00, 0x00)\n        /* \"Struct.sol\":195:379  function creatAccount()public{... */\n    tag_3:\n      tag_6\n      tag_7\n      jump\t// in\n    tag_6:\n      stop\n        /* \"Struct.sol\":381:505  function deposit(uint amount)public returns(uint){... */\n    tag_4:\n      tag_8\n      0x04\n      dup1\n      calldatasize\n      sub\n      dup2\n      add\n      swap1\n      tag_9\n      swap2\n      swap1\n      tag_10\n      jump\t// in\n    tag_9:\n      tag_11\n      jump\t// in\n    tag_8:\n      mload(0x40)\n      tag_12\n      swap2\n      swap1\n      tag_13\n      jump\t// in\n    tag_12:\n      mload(0x40)\n      dup1\n      swap2\n      sub\n      swap1\n      return\n        /* \"Struct.sol\":506:633  function getAccount()public view returns(Account[] memory,uint,uint){... */\n    tag_5:\n      tag_14\n      tag_15\n      jump\t// in\n    tag_14:\n      mload(0x40)\n      tag_16\n      swap4\n      swap3\n      swap2\n      swap1\n      tag_17\n      jump\t// in\n    tag_16:\n      mload(0x40)\n      dup1\n      swap2\n      sub\n      swap1\n      return\n        /* \"Struct.sol\":195:379  function creatAccount()public{... */\n    tag_7:\n        /* \"Struct.sol\":334:342  accounts */\n      0x02\n        /* \"Struct.sol\":348:375  Account(msg.sender,2 ether) */\n      mload(0x40)\n      dup1\n      0x40\n      add\n      0x40\n      mstore\n      dup1\n        /* \"Struct.sol\":356:366  msg.sender */\n      caller\n        /* \"Struct.sol\":348:375  Account(msg.sender,2 ether) */\n      0xffffffffffffffffffffffffffffffffffffffff\n      and\n      dup2\n      mstore\n      0x20\n      add\n        /* \"Struct.sol\":367:374  2 ether */\n      0x1bc16d674ec80000\n        /* \"Struct.sol\":348:375  Account(msg.sender,2 ether) */\n      dup2\n      mstore\n      pop\n        /* \"Struct.sol\":334:376  accounts.push(Account(msg.sender,2 ether)) */\n      swap1\n      dup1\n      0x01\n      dup2\n      sload\n      add\n      dup1\n      dup3\n      sstore\n      dup1\n      swap2\n      pop\n      pop\n      0x01\n      swap1\n      sub\n      swap1\n      0x00\n      mstore\n      keccak256(0x00, 0x20)\n      swap1\n      0x02\n      mul\n      add\n      0x00\n      swap1\n      swap2\n      swap1\n      swap2\n      swap1\n      swap2\n      pop\n      0x00\n      dup3\n      add\n      mload\n      dup2\n      0x00\n      add\n      exp(0x0100, 0x00)\n      dup2\n      sload\n      dup2\n      0xffffffffffffffffffffffffffffffffffffffff\n      mul\n      not\n      and\n      swap1\n      dup4\n      0xffffffffffffffffffffffffffffffffffffffff\n      and\n      mul\n      or\n      swap1\n      sstore\n      pop\n      0x20\n      dup3\n      add\n      mload\n      dup2\n      0x01\n      add\n      sstore\n      pop\n      pop\n        /* \"Struct.sol\":195:379  function creatAccount()public{... */\n      jump\t// out\n        /* \"Struct.sol\":381:505  function deposit(uint amount)public returns(uint){... */\n    tag_11:\n        /* \"Struct.sol\":425:429  uint */\n      0x00\n        /* \"Struct.sol\":468:474  amount */\n      dup2\n        /* \"Struct.sol\":452:459  account */\n      0x00\n        /* \"Struct.sol\":452:467  account.balance */\n      0x01\n      add\n      sload\n        /* \"Struct.sol\":452:474  account.balance+amount */\n      tag_21\n      swap2\n      swap1\n      tag_22\n      jump\t// in\n    tag_21:\n        /* \"Struct.sol\":436:443  account */\n      0x00\n        /* \"Struct.sol\":436:451  account.balance */\n      0x01\n      add\n        /* \"Struct.sol\":436:474  account.balance=account.balance+amount */\n      dup2\n      swap1\n      sstore\n      pop\n        /* \"Struct.sol\":486:493  account */\n      0x00\n        /* \"Struct.sol\":486:501  account.balance */\n      0x01\n      add\n      sload\n        /* \"Struct.sol\":479:501  return account.balance */\n      swap1\n      pop\n        /* \"Struct.sol\":381:505  function deposit(uint amount)public returns(uint){... */\n      swap2\n      swap1\n      pop\n      jump\t// out\n        /* \"Struct.sol\":506:633  function getAccount()public view returns(Account[] memory,uint,uint){... */\n    tag_15:\n        /* \"Struct.sol\":547:563  Account[] memory */\n      0x60\n        /* \"Struct.sol\":564:568  uint */\n      0x00\n        /* \"Struct.sol\":569:573  uint */\n      0x00\n        /* \"Struct.sol\":589:597  accounts */\n      0x02\n        /* \"Struct.sol\":598:606  accounts */\n      dup1\n        /* \"Struct.sol\":598:613  accounts.length */\n      dup1\n      sload\n      swap1\n      pop\n        /* \"Struct.sol\":614:621  account */\n      0x00\n        /* \"Struct.sol\":614:629  account.balance */\n      0x01\n      add\n      sload\n        /* \"Struct.sol\":581:630  return (accounts,accounts.length,account.balance) */\n      dup3\n      dup1\n      sload\n      dup1\n      0x20\n      mul\n      0x20\n      add\n      mload(0x40)\n      swap1\n      dup2\n      add\n      0x40\n      mstore\n      dup1\n      swap3\n      swap2\n      swap1\n      dup2\n      dup2\n      mstore\n      0x20\n      add\n      0x00\n      swap1\n    tag_24:\n      dup3\n      dup3\n      lt\n      iszero\n      tag_25\n      jumpi\n      dup4\n      dup3\n      swap1\n      0x00\n      mstore\n      keccak256(0x00, 0x20)\n      swap1\n      0x02\n      mul\n      add\n      mload(0x40)\n      dup1\n      0x40\n      add\n      0x40\n      mstore\n      swap1\n      dup2\n      0x00\n      dup3\n      add\n      0x00\n      swap1\n      sload\n      swap1\n      0x0100\n      exp\n      swap1\n      div\n      0xffffffffffffffffffffffffffffffffffffffff\n      and\n      0xffffffffffffffffffffffffffffffffffffffff\n      and\n      0xffffffffffffffffffffffffffffffffffffffff\n      and\n      dup2\n      mstore\n      0x20\n      add\n      0x01\n      dup3\n      add\n      sload\n      dup2\n      mstore\n      pop\n      pop\n      dup2\n      mstore\n      0x20\n      add\n      swap1\n      0x01\n      add\n      swap1\n      jump(tag_24)\n    tag_25:\n      pop\n      pop\n      pop\n      pop\n      swap3\n      pop\n      swap3\n      pop\n      swap3\n      pop\n      swap3\n      pop\n        /* \"Struct.sol\":506:633  function getAccount()public view returns(Account[] memory,uint,uint){... */\n      swap1\n      swap2\n      swap3\n      jump\t// out\n        /* \"#utility.yul\":88:205   */\n    tag_28:\n        /* \"#utility.yul\":197:198   */\n      0x00\n        /* \"#utility.yul\":194:195   */\n      0x00\n        /* \"#utility.yul\":187:199   */\n      revert\n        /* \"#utility.yul\":334:411   */\n    tag_30:\n        /* \"#utility.yul\":371:378   */\n      0x00\n        /* \"#utility.yul\":400:405   */\n      dup2\n        /* \"#utility.yul\":389:405   */\n      swap1\n      pop\n        /* \"#utility.yul\":334:411   */\n      swap2\n      swap1\n      pop\n      jump\t// out\n        /* \"#utility.yul\":417:539   */\n    tag_31:\n        /* \"#utility.yul\":490:514   */\n      tag_52\n        /* \"#utility.yul\":508:513   */\n      dup2\n        /* \"#utility.yul\":490:514   */\n      tag_30\n      jump\t// in\n    tag_52:\n        /* \"#utility.yul\":483:488   */\n      dup2\n        /* \"#utility.yul\":480:515   */\n      eq\n        /* \"#utility.yul\":470:533   */\n      tag_53\n      jumpi\n        /* \"#utility.yul\":529:530   */\n      0x00\n        /* \"#utility.yul\":526:527   */\n      0x00\n        /* \"#utility.yul\":519:531   */\n      revert\n        /* \"#utility.yul\":470:533   */\n    tag_53:\n        /* \"#utility.yul\":417:539   */\n      pop\n      jump\t// out\n        /* \"#utility.yul\":545:684   */\n    tag_32:\n        /* \"#utility.yul\":591:596   */\n      0x00\n        /* \"#utility.yul\":629:635   */\n      dup2\n        /* \"#utility.yul\":616:636   */\n      calldataload\n        /* \"#utility.yul\":607:636   */\n      swap1\n      pop\n        /* \"#utility.yul\":645:678   */\n      tag_55\n        /* \"#utility.yul\":672:677   */\n      dup2\n        /* \"#utility.yul\":645:678   */\n      tag_31\n      jump\t// in\n    tag_55:\n        /* \"#utility.yul\":545:684   */\n      swap3\n      swap2\n      pop\n      pop\n      jump\t// out\n        /* \"#utility.yul\":690:1019   */\n    tag_10:\n        /* \"#utility.yul\":749:755   */\n      0x00\n        /* \"#utility.yul\":798:800   */\n      0x20\n        /* \"#utility.yul\":786:795   */\n      dup3\n        /* \"#utility.yul\":777:784   */\n      dup5\n        /* \"#utility.yul\":773:796   */\n      sub\n        /* \"#utility.yul\":769:801   */\n      slt\n        /* \"#utility.yul\":766:885   */\n      iszero\n      tag_57\n      jumpi\n        /* \"#utility.yul\":804:883   */\n      tag_58\n      tag_28\n      jump\t// in\n    tag_58:\n        /* \"#utility.yul\":766:885   */\n    tag_57:\n        /* \"#utility.yul\":924:925   */\n      0x00\n        /* \"#utility.yul\":949:1002   */\n      tag_59\n        /* \"#utility.yul\":994:1001   */\n      dup5\n        /* \"#utility.yul\":985:991   */\n      dup3\n        /* \"#utility.yul\":974:983   */\n      dup6\n        /* \"#utility.yul\":970:992   */\n      add\n        /* \"#utility.yul\":949:1002   */\n      tag_32\n      jump\t// in\n    tag_59:\n        /* \"#utility.yul\":939:1002   */\n      swap2\n      pop\n        /* \"#utility.yul\":895:1012   */\n      pop\n        /* \"#utility.yul\":690:1019   */\n      swap3\n      swap2\n      pop\n      pop\n      jump\t// out\n        /* \"#utility.yul\":1025:1143   */\n    tag_33:\n        /* \"#utility.yul\":1112:1136   */\n      tag_61\n        /* \"#utility.yul\":1130:1135   */\n      dup2\n        /* \"#utility.yul\":1112:1136   */\n      tag_30\n      jump\t// in\n    tag_61:\n        /* \"#utility.yul\":1107:1110   */\n      dup3\n        /* \"#utility.yul\":1100:1137   */\n      mstore\n        /* \"#utility.yul\":1025:1143   */\n      pop\n      pop\n      jump\t// out\n        /* \"#utility.yul\":1149:1371   */\n    tag_13:\n        /* \"#utility.yul\":1242:1246   */\n      0x00\n        /* \"#utility.yul\":1280:1282   */\n      0x20\n        /* \"#utility.yul\":1269:1278   */\n      dup3\n        /* \"#utility.yul\":1265:1283   */\n      add\n        /* \"#utility.yul\":1257:1283   */\n      swap1\n      pop\n        /* \"#utility.yul\":1293:1364   */\n      tag_63\n        /* \"#utility.yul\":1361:1362   */\n      0x00\n        /* \"#utility.yul\":1350:1359   */\n      dup4\n        /* \"#utility.yul\":1346:1363   */\n      add\n        /* \"#utility.yul\":1337:1343   */\n      dup5\n        /* \"#utility.yul\":1293:1364   */\n      tag_33\n      jump\t// in\n    tag_63:\n        /* \"#utility.yul\":1149:1371   */\n      swap3\n      swap2\n      pop\n      pop\n      jump\t// out\n        /* \"#utility.yul\":1377:1513   */\n    tag_34:\n        /* \"#utility.yul\":1466:1472   */\n      0x00\n        /* \"#utility.yul\":1500:1505   */\n      dup2\n        /* \"#utility.yul\":1494:1506   */\n      mload\n        /* \"#utility.yul\":1484:1506   */\n      swap1\n      pop\n        /* \"#utility.yul\":1377:1513   */\n      swap2\n      swap1\n      pop\n      jump\t// out\n        /* \"#utility.yul\":1519:1725   */\n    tag_35:\n        /* \"#utility.yul\":1640:1651   */\n      0x00\n        /* \"#utility.yul\":1674:1680   */\n      dup3\n        /* \"#utility.yul\":1669:1672   */\n      dup3\n        /* \"#utility.yul\":1662:1681   */\n      mstore\n        /* \"#utility.yul\":1714:1718   */\n      0x20\n        /* \"#utility.yul\":1709:1712   */\n      dup3\n        /* \"#utility.yul\":1705:1719   */\n      add\n        /* \"#utility.yul\":1690:1719   */\n      swap1\n      pop\n        /* \"#utility.yul\":1519:1725   */\n      swap3\n      swap2\n      pop\n      pop\n      jump\t// out\n        /* \"#utility.yul\":1731:1885   */\n    tag_36:\n        /* \"#utility.yul\":1820:1824   */\n      0x00\n        /* \"#utility.yul\":1843:1846   */\n      dup2\n        /* \"#utility.yul\":1835:1846   */\n      swap1\n      pop\n        /* \"#utility.yul\":1873:1877   */\n      0x20\n        /* \"#utility.yul\":1868:1871   */\n      dup3\n        /* \"#utility.yul\":1864:1878   */\n      add\n        /* \"#utility.yul\":1856:1878   */\n      swap1\n      pop\n        /* \"#utility.yul\":1731:1885   */\n      swap2\n      swap1\n      pop\n      jump\t// out\n        /* \"#utility.yul\":1891:2017   */\n    tag_37:\n        /* \"#utility.yul\":1928:1935   */\n      0x00\n        /* \"#utility.yul\":1968:2010   */\n      0xffffffffffffffffffffffffffffffffffffffff\n        /* \"#utility.yul\":1961:1966   */\n      dup3\n        /* \"#utility.yul\":1957:2011   */\n      and\n        /* \"#utility.yul\":1946:2011   */\n      swap1\n      pop\n        /* \"#utility.yul\":1891:2017   */\n      swap2\n      swap1\n      pop\n      jump\t// out\n        /* \"#utility.yul\":2023:2119   */\n    tag_38:\n        /* \"#utility.yul\":2060:2067   */\n      0x00\n        /* \"#utility.yul\":2089:2113   */\n      tag_69\n        /* \"#utility.yul\":2107:2112   */\n      dup3\n        /* \"#utility.yul\":2089:2113   */\n      tag_37\n      jump\t// in\n    tag_69:\n        /* \"#utility.yul\":2078:2113   */\n      swap1\n      pop\n        /* \"#utility.yul\":2023:2119   */\n      swap2\n      swap1\n      pop\n      jump\t// out\n        /* \"#utility.yul\":2125:2233   */\n    tag_39:\n        /* \"#utility.yul\":2202:2226   */\n      tag_71\n        /* \"#utility.yul\":2220:2225   */\n      dup2\n        /* \"#utility.yul\":2202:2226   */\n      tag_38\n      jump\t// in\n    tag_71:\n        /* \"#utility.yul\":2197:2200   */\n      dup3\n        /* \"#utility.yul\":2190:2227   */\n      mstore\n        /* \"#utility.yul\":2125:2233   */\n      pop\n      pop\n      jump\t// out\n        /* \"#utility.yul\":2239:2347   */\n    tag_40:\n        /* \"#utility.yul\":2316:2340   */\n      tag_73\n        /* \"#utility.yul\":2334:2339   */\n      dup2\n        /* \"#utility.yul\":2316:2340   */\n      tag_30\n      jump\t// in\n    tag_73:\n        /* \"#utility.yul\":2311:2314   */\n      dup3\n        /* \"#utility.yul\":2304:2341   */\n      mstore\n        /* \"#utility.yul\":2239:2347   */\n      pop\n      pop\n      jump\t// out\n        /* \"#utility.yul\":2407:2902   */\n    tag_41:\n        /* \"#utility.yul\":2538:2542   */\n      0x40\n        /* \"#utility.yul\":2533:2536   */\n      dup3\n        /* \"#utility.yul\":2529:2543   */\n      add\n        /* \"#utility.yul\":2626:2630   */\n      0x00\n        /* \"#utility.yul\":2619:2624   */\n      dup3\n        /* \"#utility.yul\":2615:2631   */\n      add\n        /* \"#utility.yul\":2609:2632   */\n      mload\n        /* \"#utility.yul\":2645:2708   */\n      tag_75\n        /* \"#utility.yul\":2702:2706   */\n      0x00\n        /* \"#utility.yul\":2697:2700   */\n      dup6\n        /* \"#utility.yul\":2693:2707   */\n      add\n        /* \"#utility.yul\":2679:2691   */\n      dup3\n        /* \"#utility.yul\":2645:2708   */\n      tag_39\n      jump\t// in\n    tag_75:\n        /* \"#utility.yul\":2553:2718   */\n      pop\n        /* \"#utility.yul\":2803:2807   */\n      0x20\n        /* \"#utility.yul\":2796:2801   */\n      dup3\n        /* \"#utility.yul\":2792:2808   */\n      add\n        /* \"#utility.yul\":2786:2809   */\n      mload\n        /* \"#utility.yul\":2822:2885   */\n      tag_76\n        /* \"#utility.yul\":2879:2883   */\n      0x20\n        /* \"#utility.yul\":2874:2877   */\n      dup6\n        /* \"#utility.yul\":2870:2884   */\n      add\n        /* \"#utility.yul\":2856:2868   */\n      dup3\n        /* \"#utility.yul\":2822:2885   */\n      tag_40\n      jump\t// in\n    tag_76:\n        /* \"#utility.yul\":2728:2895   */\n      pop\n        /* \"#utility.yul\":2507:2902   */\n      pop\n        /* \"#utility.yul\":2407:2902   */\n      pop\n      pop\n      jump\t// out\n        /* \"#utility.yul\":2908:3175   */\n    tag_42:\n        /* \"#utility.yul\":3021:3031   */\n      0x00\n        /* \"#utility.yul\":3042:3132   */\n      tag_78\n        /* \"#utility.yul\":3128:3131   */\n      dup4\n        /* \"#utility.yul\":3120:3126   */\n      dup4\n        /* \"#utility.yul\":3042:3132   */\n      tag_41\n      jump\t// in\n    tag_78:\n        /* \"#utility.yul\":3164:3168   */\n      0x40\n        /* \"#utility.yul\":3159:3162   */\n      dup4\n        /* \"#utility.yul\":3155:3169   */\n      add\n        /* \"#utility.yul\":3141:3169   */\n      swap1\n      pop\n        /* \"#utility.yul\":2908:3175   */\n      swap3\n      swap2\n      pop\n      pop\n      jump\t// out\n        /* \"#utility.yul\":3181:3316   */\n    tag_43:\n        /* \"#utility.yul\":3273:3277   */\n      0x00\n        /* \"#utility.yul\":3305:3309   */\n      0x20\n        /* \"#utility.yul\":3300:3303   */\n      dup3\n        /* \"#utility.yul\":3296:3310   */\n      add\n        /* \"#utility.yul\":3288:3310   */\n      swap1\n      pop\n        /* \"#utility.yul\":3181:3316   */\n      swap2\n      swap1\n      pop\n      jump\t// out\n        /* \"#utility.yul\":3380:4288   */\n    tag_44:\n        /* \"#utility.yul\":3543:3546   */\n      0x00\n        /* \"#utility.yul\":3572:3648   */\n      tag_81\n        /* \"#utility.yul\":3642:3647   */\n      dup3\n        /* \"#utility.yul\":3572:3648   */\n      tag_34\n      jump\t// in\n    tag_81:\n        /* \"#utility.yul\":3664:3772   */\n      tag_82\n        /* \"#utility.yul\":3765:3771   */\n      dup2\n        /* \"#utility.yul\":3760:3763   */\n      dup6\n        /* \"#utility.yul\":3664:3772   */\n      tag_35\n      jump\t// in\n    tag_82:\n        /* \"#utility.yul\":3657:3772   */\n      swap4\n      pop\n        /* \"#utility.yul\":3796:3874   */\n      tag_83\n        /* \"#utility.yul\":3868:3873   */\n      dup4\n        /* \"#utility.yul\":3796:3874   */\n      tag_36\n      jump\t// in\n    tag_83:\n        /* \"#utility.yul\":3897:3904   */\n      dup1\n        /* \"#utility.yul\":3928:3929   */\n      0x00\n        /* \"#utility.yul\":3913:4263   */\n    tag_84:\n        /* \"#utility.yul\":3938:3944   */\n      dup4\n        /* \"#utility.yul\":3935:3936   */\n      dup2\n        /* \"#utility.yul\":3932:3945   */\n      lt\n        /* \"#utility.yul\":3913:4263   */\n      iszero\n      tag_86\n      jumpi\n        /* \"#utility.yul\":4014:4020   */\n      dup2\n        /* \"#utility.yul\":4008:4021   */\n      mload\n        /* \"#utility.yul\":4041:4148   */\n      tag_87\n        /* \"#utility.yul\":4144:4147   */\n      dup9\n        /* \"#utility.yul\":4129:4142   */\n      dup3\n        /* \"#utility.yul\":4041:4148   */\n      tag_42\n      jump\t// in\n    tag_87:\n        /* \"#utility.yul\":4034:4148   */\n      swap8\n      pop\n        /* \"#utility.yul\":4171:4253   */\n      tag_88\n        /* \"#utility.yul\":4246:4252   */\n      dup4\n        /* \"#utility.yul\":4171:4253   */\n      tag_43\n      jump\t// in\n    tag_88:\n        /* \"#utility.yul\":4161:4253   */\n      swap3\n      pop\n        /* \"#utility.yul\":3973:4263   */\n      pop\n        /* \"#utility.yul\":3960:3961   */\n      0x01\n        /* \"#utility.yul\":3957:3958   */\n      dup2\n        /* \"#utility.yul\":3953:3962   */\n      add\n        /* \"#utility.yul\":3948:3962   */\n      swap1\n      pop\n        /* \"#utility.yul\":3913:4263   */\n      jump(tag_84)\n    tag_86:\n        /* \"#utility.yul\":3917:3931   */\n      pop\n        /* \"#utility.yul\":4279:4282   */\n      dup6\n        /* \"#utility.yul\":4272:4282   */\n      swap4\n      pop\n        /* \"#utility.yul\":3548:4288   */\n      pop\n      pop\n      pop\n        /* \"#utility.yul\":3380:4288   */\n      swap3\n      swap2\n      pop\n      pop\n      jump\t// out\n        /* \"#utility.yul\":4294:4975   */\n    tag_17:\n        /* \"#utility.yul\":4537:4541   */\n      0x00\n        /* \"#utility.yul\":4575:4577   */\n      0x60\n        /* \"#utility.yul\":4564:4573   */\n      dup3\n        /* \"#utility.yul\":4560:4578   */\n      add\n        /* \"#utility.yul\":4552:4578   */\n      swap1\n      pop\n        /* \"#utility.yul\":4624:4633   */\n      dup2\n        /* \"#utility.yul\":4618:4622   */\n      dup2\n        /* \"#utility.yul\":4614:4634   */\n      sub\n        /* \"#utility.yul\":4610:4611   */\n      0x00\n        /* \"#utility.yul\":4599:4608   */\n      dup4\n        /* \"#utility.yul\":4595:4612   */\n      add\n        /* \"#utility.yul\":4588:4635   */\n      mstore\n        /* \"#utility.yul\":4652:4804   */\n      tag_90\n        /* \"#utility.yul\":4799:4803   */\n      dup2\n        /* \"#utility.yul\":4790:4796   */\n      dup7\n        /* \"#utility.yul\":4652:4804   */\n      tag_44\n      jump\t// in\n    tag_90:\n        /* \"#utility.yul\":4644:4804   */\n      swap1\n      pop\n        /* \"#utility.yul\":4814:4886   */\n      tag_91\n        /* \"#utility.yul\":4882:4884   */\n      0x20\n        /* \"#utility.yul\":4871:4880   */\n      dup4\n        /* \"#utility.yul\":4867:4885   */\n      add\n        /* \"#utility.yul\":4858:4864   */\n      dup6\n        /* \"#utility.yul\":4814:4886   */\n      tag_33\n      jump\t// in\n    tag_91:\n        /* \"#utility.yul\":4896:4968   */\n      tag_92\n        /* \"#utility.yul\":4964:4966   */\n      0x40\n        /* \"#utility.yul\":4953:4962   */\n      dup4\n        /* \"#utility.yul\":4949:4967   */\n      add\n        /* \"#utility.yul\":4940:4946   */\n      dup5\n        /* \"#utility.yul\":4896:4968   */\n      tag_33\n      jump\t// in\n    tag_92:\n        /* \"#utility.yul\":4294:4975   */\n      swap5\n      swap4\n      pop\n      pop\n      pop\n      pop\n      jump\t// out\n        /* \"#utility.yul\":4981:5161   */\n    tag_45:\n        /* \"#utility.yul\":5029:5106   */\n      0x4e487b7100000000000000000000000000000000000000000000000000000000\n        /* \"#utility.yul\":5026:5027   */\n      0x00\n        /* \"#utility.yul\":5019:5107   */\n      mstore\n        /* \"#utility.yul\":5126:5130   */\n      0x11\n        /* \"#utility.yul\":5123:5124   */\n      0x04\n        /* \"#utility.yul\":5116:5131   */\n      mstore\n        /* \"#utility.yul\":5150:5154   */\n      0x24\n        /* \"#utility.yul\":5147:5148   */\n      0x00\n        /* \"#utility.yul\":5140:5155   */\n      revert\n        /* \"#utility.yul\":5167:5358   */\n    tag_22:\n        /* \"#utility.yul\":5207:5210   */\n      0x00\n        /* \"#utility.yul\":5226:5246   */\n      tag_95\n        /* \"#utility.yul\":5244:5245   */\n      dup3\n        /* \"#utility.yul\":5226:5246   */\n      tag_30\n      jump\t// in\n    tag_95:\n        /* \"#utility.yul\":5221:5246   */\n      swap2\n      pop\n        /* \"#utility.yul\":5260:5280   */\n      tag_96\n        /* \"#utility.yul\":5278:5279   */\n      dup4\n        /* \"#utility.yul\":5260:5280   */\n      tag_30\n      jump\t// in\n    tag_96:\n        /* \"#utility.yul\":5255:5280   */\n      swap3\n      pop\n        /* \"#utility.yul\":5303:5304   */\n      dup3\n        /* \"#utility.yul\":5300:5301   */\n      dup3\n        /* \"#utility.yul\":5296:5305   */\n      add\n        /* \"#utility.yul\":5289:5305   */\n      swap1\n      pop\n        /* \"#utility.yul\":5324:5327   */\n      dup1\n        /* \"#utility.yul\":5321:5322   */\n      dup3\n        /* \"#utility.yul\":5318:5328   */\n      gt\n        /* \"#utility.yul\":5315:5351   */\n      iszero\n      tag_97\n      jumpi\n        /* \"#utility.yul\":5331:5349   */\n      tag_98\n      tag_45\n      jump\t// in\n    tag_98:\n        /* \"#utility.yul\":5315:5351   */\n    tag_97:\n        /* \"#utility.yul\":5167:5358   */\n      swap3\n      swap2\n      pop\n      pop\n      jump\t// out\n\n    auxdata: 0xa2646970667358221220c4a54604d5a85203c4fb80669e586da812be0c04ca923d518f3b00debcb8a9c564736f6c634300081c0033\n}\n",
				"bytecode": {
					"linkReferences": {},
					"object": "608060405260405180604001604052803373ffffffffffffffffffffffffffffffffffffffff168152602001671bc16d674ec800008152505f5f820151815f015f6101000a81548173ffffffffffffffffffffffffffffffffffffffff021916908373ffffffffffffffffffffffffffffffffffffffff1602179055506020820151816001015550503480156092575f5ffd5b506104bd806100a05f395ff3fe608060405234801561000f575f5ffd5b506004361061003f575f3560e01c80633b2c200814610043578063b6b55f251461004d578063db613e811461007d575b5f5ffd5b61004b61009d565b005b61006760048036038101906100629190610275565b61014a565b60405161007491906102af565b60405180910390f35b61008561016f565b604051610094939291906103eb565b60405180910390f35b600260405180604001604052803373ffffffffffffffffffffffffffffffffffffffff168152602001671bc16d674ec80000815250908060018154018082558091505060019003905f5260205f2090600202015f909190919091505f820151815f015f6101000a81548173ffffffffffffffffffffffffffffffffffffffff021916908373ffffffffffffffffffffffffffffffffffffffff160217905550602082015181600101555050565b5f815f6001015461015b9190610454565b5f600101819055505f600101549050919050565b60605f5f600280805490505f6001015482805480602002602001604051908101604052809291908181526020015f905b8282101561022d578382905f5260205f2090600202016040518060400160405290815f82015f9054906101000a900473ffffffffffffffffffffffffffffffffffffffff1673ffffffffffffffffffffffffffffffffffffffff1673ffffffffffffffffffffffffffffffffffffffff1681526020016001820154815250508152602001906001019061019f565b505050509250925092509250909192565b5f5ffd5b5f819050919050565b61025481610242565b811461025e575f5ffd5b50565b5f8135905061026f8161024b565b92915050565b5f6020828403121561028a5761028961023e565b5b5f61029784828501610261565b91505092915050565b6102a981610242565b82525050565b5f6020820190506102c25f8301846102a0565b92915050565b5f81519050919050565b5f82825260208201905092915050565b5f819050602082019050919050565b5f73ffffffffffffffffffffffffffffffffffffffff82169050919050565b5f61031a826102f1565b9050919050565b61032a81610310565b82525050565b61033981610242565b82525050565b604082015f8201516103535f850182610321565b5060208201516103666020850182610330565b50505050565b5f610377838361033f565b60408301905092915050565b5f602082019050919050565b5f610399826102c8565b6103a381856102d2565b93506103ae836102e2565b805f5b838110156103de5781516103c5888261036c565b97506103d083610383565b9250506001810190506103b1565b5085935050505092915050565b5f6060820190508181035f830152610403818661038f565b905061041260208301856102a0565b61041f60408301846102a0565b949350505050565b7f4e487b71000000000000000000000000000000000000000000000000000000005f52601160045260245ffd5b5f61045e82610242565b915061046983610242565b925082820190508082111561048157610480610427565b5b9291505056fea2646970667358221220c4a54604d5a85203c4fb80669e586da812be0c04ca923d518f3b00debcb8a9c564736f6c634300081c0033",
					"opcodes": "PUSH1 0x80 PUSH1 0x40 MSTORE PUSH1 0x40 MLOAD DUP1 PUSH1 0x40 ADD PUSH1 0x40 MSTORE DUP1 CALLER PUSH20 0xFFFFFFFFFFFFFFFFFFFFFFFFFFFFFFFFFFFFFFFF AND DUP2 MSTORE PUSH1 0x20 ADD PUSH8 0x1BC16D674EC80000 DUP2 MSTORE POP PUSH0 PUSH0 DUP3 ADD MLOAD DUP2 PUSH0 ADD PUSH0 PUSH2 0x100 EXP DUP2 SLOAD DUP2 PUSH20 0xFFFFFFFFFFFFFFFFFFFFFFFFFFFFFFFFFFFFFFFF MUL NOT AND SWAP1 DUP4 PUSH20 0xFFFFFFFFFFFFFFFFFFFFFFFFFFFFFFFFFFFFFFFF AND MUL OR SWAP1 SSTORE POP PUSH1 0x20 DUP3 ADD MLOAD DUP2 PUSH1 0x1 ADD SSTORE POP POP CALLVALUE DUP1 ISZERO PUSH1 0x92 JUMPI PUSH0 PUSH0 REVERT JUMPDEST POP PUSH2 0x4BD DUP1 PUSH2 0xA0 PUSH0 CODECOPY PUSH0 RETURN INVALID PUSH1 0x80 PUSH1 0x40 MSTORE CALLVALUE DUP1 ISZERO PUSH2 0xF JUMPI PUSH0 PUSH0 REVERT JUMPDEST POP PUSH1 0x4 CALLDATASIZE LT PUSH2 0x3F JUMPI PUSH0 CALLDATALOAD PUSH1 0xE0 SHR DUP1 PUSH4 0x3B2C2008 EQ PUSH2 0x43 JUMPI DUP1 PUSH4 0xB6B55F25 EQ PUSH2 0x4D JUMPI DUP1 PUSH4 0xDB613E81 EQ PUSH2 0x7D JUMPI JUMPDEST PUSH0 PUSH0 REVERT JUMPDEST PUSH2 0x4B PUSH2 0x9D JUMP JUMPDEST STOP JUMPDEST PUSH2 0x67 PUSH1 0x4 DUP1 CALLDATASIZE SUB DUP2 ADD SWAP1 PUSH2 0x62 SWAP2 SWAP1 PUSH2 0x275 JUMP JUMPDEST PUSH2 0x14A JUMP JUMPDEST PUSH1 0x40 MLOAD PUSH2 0x74 SWAP2 SWAP1 PUSH2 0x2AF JUMP JUMPDEST PUSH1 0x40 MLOAD DUP1 SWAP2 SUB SWAP1 RETURN JUMPDEST PUSH2 0x85 PUSH2 0x16F JUMP JUMPDEST PUSH1 0x40 MLOAD PUSH2 0x94 SWAP4 SWAP3 SWAP2 SWAP1 PUSH2 0x3EB JUMP JUMPDEST PUSH1 0x40 MLOAD DUP1 SWAP2 SUB SWAP1 RETURN JUMPDEST PUSH1 0x2 PUSH1 0x40 MLOAD DUP1 PUSH1 0x40 ADD PUSH1 0x40 MSTORE DUP1 CALLER PUSH20 0xFFFFFFFFFFFFFFFFFFFFFFFFFFFFFFFFFFFFFFFF AND DUP2 MSTORE PUSH1 0x20 ADD PUSH8 0x1BC16D674EC80000 DUP2 MSTORE POP SWAP1 DUP1 PUSH1 0x1 DUP2 SLOAD ADD DUP1 DUP3 SSTORE DUP1 SWAP2 POP POP PUSH1 0x1 SWAP1 SUB SWAP1 PUSH0 MSTORE PUSH1 0x20 PUSH0 KECCAK256 SWAP1 PUSH1 0x2 MUL ADD PUSH0 SWAP1 SWAP2 SWAP1 SWAP2 SWAP1 SWAP2 POP PUSH0 DUP3 ADD MLOAD DUP2 PUSH0 ADD PUSH0 PUSH2 0x100 EXP DUP2 SLOAD DUP2 PUSH20 0xFFFFFFFFFFFFFFFFFFFFFFFFFFFFFFFFFFFFFFFF MUL NOT AND SWAP1 DUP4 PUSH20 0xFFFFFFFFFFFFFFFFFFFFFFFFFFFFFFFFFFFFFFFF AND MUL OR SWAP1 SSTORE POP PUSH1 0x20 DUP3 ADD MLOAD DUP2 PUSH1 0x1 ADD SSTORE POP POP JUMP JUMPDEST PUSH0 DUP2 PUSH0 PUSH1 0x1 ADD SLOAD PUSH2 0x15B SWAP2 SWAP1 PUSH2 0x454 JUMP JUMPDEST PUSH0 PUSH1 0x1 ADD DUP2 SWAP1 SSTORE POP PUSH0 PUSH1 0x1 ADD SLOAD SWAP1 POP SWAP2 SWAP1 POP JUMP JUMPDEST PUSH1 0x60 PUSH0 PUSH0 PUSH1 0x2 DUP1 DUP1 SLOAD SWAP1 POP PUSH0 PUSH1 0x1 ADD SLOAD DUP3 DUP1 SLOAD DUP1 PUSH1 0x20 MUL PUSH1 0x20 ADD PUSH1 0x40 MLOAD SWAP1 DUP2 ADD PUSH1 0x40 MSTORE DUP1 SWAP3 SWAP2 SWAP1 DUP2 DUP2 MSTORE PUSH1 0x20 ADD PUSH0 SWAP1 JUMPDEST DUP3 DUP3 LT ISZERO PUSH2 0x22D JUMPI DUP4 DUP3 SWAP1 PUSH0 MSTORE PUSH1 0x20 PUSH0 KECCAK256 SWAP1 PUSH1 0x2 MUL ADD PUSH1 0x40 MLOAD DUP1 PUSH1 0x40 ADD PUSH1 0x40 MSTORE SWAP1 DUP2 PUSH0 DUP3 ADD PUSH0 SWAP1 SLOAD SWAP1 PUSH2 0x100 EXP SWAP1 DIV PUSH20 0xFFFFFFFFFFFFFFFFFFFFFFFFFFFFFFFFFFFFFFFF AND PUSH20 0xFFFFFFFFFFFFFFFFFFFFFFFFFFFFFFFFFFFFFFFF AND PUSH20 0xFFFFFFFFFFFFFFFFFFFFFFFFFFFFFFFFFFFFFFFF AND DUP2 MSTORE PUSH1 0x20 ADD PUSH1 0x1 DUP3 ADD SLOAD DUP2 MSTORE POP POP DUP2 MSTORE PUSH1 0x20 ADD SWAP1 PUSH1 0x1 ADD SWAP1 PUSH2 0x19F JUMP JUMPDEST POP POP POP POP SWAP3 POP SWAP3 POP SWAP3 POP SWAP3 POP SWAP1 SWAP2 SWAP3 JUMP JUMPDEST PUSH0 PUSH0 REVERT JUMPDEST PUSH0 DUP2 SWAP1 POP SWAP2 SWAP1 POP JUMP JUMPDEST PUSH2 0x254 DUP2 PUSH2 0x242 JUMP JUMPDEST DUP2 EQ PUSH2 0x25E JUMPI PUSH0 PUSH0 REVERT JUMPDEST POP JUMP JUMPDEST PUSH0 DUP2 CALLDATALOAD SWAP1 POP PUSH2 0x26F DUP2 PUSH2 0x24B JUMP JUMPDEST SWAP3 SWAP2 POP POP JUMP JUMPDEST PUSH0 PUSH1 0x20 DUP3 DUP5 SUB SLT ISZERO PUSH2 0x28A JUMPI PUSH2 0x289 PUSH2 0x23E JUMP JUMPDEST JUMPDEST PUSH0 PUSH2 0x297 DUP5 DUP3 DUP6 ADD PUSH2 0x261 JUMP JUMPDEST SWAP2 POP POP SWAP3 SWAP2 POP POP JUMP JUMPDEST PUSH2 0x2A9 DUP2 PUSH2 0x242 JUMP JUMPDEST DUP3 MSTORE POP POP JUMP JUMPDEST PUSH0 PUSH1 0x20 DUP3 ADD SWAP1 POP PUSH2 0x2C2 PUSH0 DUP4 ADD DUP5 PUSH2 0x2A0 JUMP JUMPDEST SWAP3 SWAP2 POP POP JUMP JUMPDEST PUSH0 DUP2 MLOAD SWAP1 POP SWAP2 SWAP1 POP JUMP JUMPDEST PUSH0 DUP3 DUP3 MSTORE PUSH1 0x20 DUP3 ADD SWAP1 POP SWAP3 SWAP2 POP POP JUMP JUMPDEST PUSH0 DUP2 SWAP1 POP PUSH1 0x20 DUP3 ADD SWAP1 POP SWAP2 SWAP1 POP JUMP JUMPDEST PUSH0 PUSH20 0xFFFFFFFFFFFFFFFFFFFFFFFFFFFFFFFFFFFFFFFF DUP3 AND SWAP1 POP SWAP2 SWAP1 POP JUMP JUMPDEST PUSH0 PUSH2 0x31A DUP3 PUSH2 0x2F1 JUMP JUMPDEST SWAP1 POP SWAP2 SWAP1 POP JUMP JUMPDEST PUSH2 0x32A DUP2 PUSH2 0x310 JUMP JUMPDEST DUP3 MSTORE POP POP JUMP JUMPDEST PUSH2 0x339 DUP2 PUSH2 0x242 JUMP JUMPDEST DUP3 MSTORE POP POP JUMP JUMPDEST PUSH1 0x40 DUP3 ADD PUSH0 DUP3 ADD MLOAD PUSH2 0x353 PUSH0 DUP6 ADD DUP3 PUSH2 0x321 JUMP JUMPDEST POP PUSH1 0x20 DUP3 ADD MLOAD PUSH2 0x366 PUSH1 0x20 DUP6 ADD DUP3 PUSH2 0x330 JUMP JUMPDEST POP POP POP POP JUMP JUMPDEST PUSH0 PUSH2 0x377 DUP4 DUP4 PUSH2 0x33F JUMP JUMPDEST PUSH1 0x40 DUP4 ADD SWAP1 POP SWAP3 SWAP2 POP POP JUMP JUMPDEST PUSH0 PUSH1 0x20 DUP3 ADD SWAP1 POP SWAP2 SWAP1 POP JUMP JUMPDEST PUSH0 PUSH2 0x399 DUP3 PUSH2 0x2C8 JUMP JUMPDEST PUSH2 0x3A3 DUP2 DUP6 PUSH2 0x2D2 JUMP JUMPDEST SWAP4 POP PUSH2 0x3AE DUP4 PUSH2 0x2E2 JUMP JUMPDEST DUP1 PUSH0 JUMPDEST DUP4 DUP2 LT ISZERO PUSH2 0x3DE JUMPI DUP2 MLOAD PUSH2 0x3C5 DUP9 DUP3 PUSH2 0x36C JUMP JUMPDEST SWAP8 POP PUSH2 0x3D0 DUP4 PUSH2 0x383 JUMP JUMPDEST SWAP3 POP POP PUSH1 0x1 DUP2 ADD SWAP1 POP PUSH2 0x3B1 JUMP JUMPDEST POP DUP6 SWAP4 POP POP POP POP SWAP3 SWAP2 POP POP JUMP JUMPDEST PUSH0 PUSH1 0x60 DUP3 ADD SWAP1 POP DUP2 DUP2 SUB PUSH0 DUP4 ADD MSTORE PUSH2 0x403 DUP2 DUP7 PUSH2 0x38F JUMP JUMPDEST SWAP1 POP PUSH2 0x412 PUSH1 0x20 DUP4 ADD DUP6 PUSH2 0x2A0 JUMP JUMPDEST PUSH2 0x41F PUSH1 0x40 DUP4 ADD DUP5 PUSH2 0x2A0 JUMP JUMPDEST SWAP5 SWAP4 POP POP POP POP JUMP JUMPDEST PUSH32 0x4E487B7100000000000000000000000000000000000000000000000000000000 PUSH0 MSTORE PUSH1 0x11 PUSH1 0x4 MSTORE PUSH1 0x24 PUSH0 REVERT JUMPDEST PUSH0 PUSH2 0x45E DUP3 PUSH2 0x242 JUMP JUMPDEST SWAP2 POP PUSH2 0x469 DUP4 PUSH2 0x242 JUMP JUMPDEST SWAP3 POP DUP3 DUP3 ADD SWAP1 POP DUP1 DUP3 GT ISZERO PUSH2 0x481 JUMPI PUSH2 0x480 PUSH2 0x427 JUMP JUMPDEST JUMPDEST SWAP3 SWAP2 POP POP JUMP INVALID LOG2 PUSH5 0x6970667358 0x22 SLT KECCAK256 0xC4 0xA5 CHAINID DIV 0xD5 0xA8 MSTORE SUB 0xC4 0xFB DUP1 PUSH7 0x9E586DA812BE0C DIV 0xCA SWAP3 RETURNDATASIZE MLOAD DUP16 EXTCODESIZE STOP 0xDE 0xBC 0xB8 0xA9 0xC5 PUSH5 0x736F6C6343 STOP ADDMOD SHR STOP CALLER "
				},
				"gasEstimates": {
					"creation": {
						"codeDepositCost": "242600",
						"executionCost": "46740",
						"totalCost": "289340"
					},
					"external": {
						"creatAccount()": "70917",
						"deposit(uint256)": "infinite",
						"getAccount()": "infinite"
					}
				},
				"methodIdentifiers": {
					"creatAccount()": "3b2c2008",
					"deposit(uint256)": "b6b55f25",
					"getAccount()": "db613e81"
				}
			},
			"storageLayout": {
				"storage": [
					{
						"astId": 14,
						"contract": "Struct.sol:Struct",
						"label": "account",
						"offset": 0,
						"slot": "0",
						"type": "t_struct(Account)6_storage"
					},
					{
						"astId": 18,
						"contract": "Struct.sol:Struct",
						"label": "accounts",
						"offset": 0,
						"slot": "2",
						"type": "t_array(t_struct(Account)6_storage)dyn_storage"
					}
				],
				"types": {
					"t_address": {
						"encoding": "inplace",
						"label": "address",
						"numberOfBytes": "20"
					},
					"t_array(t_struct(Account)6_storage)dyn_storage": {
						"base": "t_struct(Account)6_storage",
						"encoding": "dynamic_array",
						"label": "struct Struct.Account[]",
						"numberOfBytes": "32"
					},
					"t_struct(Account)6_storage": {
						"encoding": "inplace",
						"label": "struct Struct.Account",
						"members": [
							{
								"astId": 3,
								"contract": "Struct.sol:Struct",
								"label": "owner",
								"offset": 0,
								"slot": "0",
								"type": "t_address"
							},
							{
								"astId": 5,
								"contract": "Struct.sol:Struct",
								"label": "balance",
								"offset": 0,
								"slot": "1",
								"type": "t_uint256"
							}
						],
						"numberOfBytes": "64"
					},
					"t_uint256": {
						"encoding": "inplace",
						"label": "uint256",
						"numberOfBytes": "32"
					}
				}
			},
			"userdoc": {
				"kind": "user",
				"methods": {},
				"version": 1
			}
		}
	}
}