{
	"Abstract.sol": {
		"Child3": {
			"abi": [
				{
					"inputs": [],
					"name": "age",
					"outputs": [
						{
							"internalType": "uint256",
							"name": "",
							"type": "uint256"
						}
					],
					"stateMutability": "view",
					"type": "function"
				},
				{
					"inputs": [],
					"name": "getSalary",
					"outputs": [
						{
							"internalType": "uint256",
							"name": "",
							"type": "uint256"
						},
						{
							"internalType": "string",
							"name": "",
							"type": "string"
						},
						{
							"internalType": "uint256",
							"name": "",
							"type": "uint256"
						}
					],
					"stateMutability": "nonpayable",
					"type": "function"
				},
				{
					"inputs": [],
					"name": "name",
					"outputs": [
						{
							"internalType": "string",
							"name": "",
							"type": "string"
						}
					],
					"stateMutability": "view",
					"type": "function"
				}
			],
			"devdoc": {
				"kind": "dev",
				"methods": {},
				"version": 1
			},
			"evm": {
				"assembly": "    /* \"Abstract.sol\":198:359  contract Child3 is Abstract{... */\n  mstore(0x40, 0x80)\n  callvalue\n  dup1\n  iszero\n  tag_1\n  jumpi\n  0x00\n  dup1\n  revert\ntag_1:\n  pop\n  dataSize(sub_0)\n  dup1\n  dataOffset(sub_0)\n  0x00\n  codecopy\n  0x00\n  return\nstop\n\nsub_0: assembly {\n        /* \"Abstract.sol\":198:359  contract Child3 is Abstract{... */\n      mstore(0x40, 0x80)\n      callvalue\n      dup1\n      iszero\n      tag_1\n      jumpi\n      0x00\n      dup1\n      revert\n    tag_1:\n      pop\n      jumpi(tag_2, lt(calldatasize, 0x04))\n      shr(0xe0, calldataload(0x00))\n      dup1\n      0x06fdde03\n      eq\n      tag_3\n      jumpi\n      dup1\n      0x262a9dff\n      eq\n      tag_4\n      jumpi\n      dup1\n      0x58b08d2e\n      eq\n      tag_5\n      jumpi\n    tag_2:\n      0x00\n      dup1\n      revert\n        /* \"Abstract.sol\":85:103  string public name */\n    tag_3:\n      tag_6\n      tag_7\n      jump\t// in\n    tag_6:\n      mload(0x40)\n      tag_8\n      swap2\n      swap1\n      tag_9\n      jump\t// in\n    tag_8:\n      mload(0x40)\n      dup1\n      swap2\n      sub\n      swap1\n      return\n        /* \"Abstract.sol\":105:120  uint public age */\n    tag_4:\n      tag_10\n      tag_11\n      jump\t// in\n    tag_10:\n      mload(0x40)\n      tag_12\n      swap2\n      swap1\n      tag_13\n      jump\t// in\n    tag_12:\n      mload(0x40)\n      dup1\n      swap2\n      sub\n      swap1\n      return\n        /* \"Abstract.sol\":227:355  function getSalary()public override returns(uint,string memory,uint){... */\n    tag_5:\n      tag_14\n      tag_15\n      jump\t// in\n    tag_14:\n      mload(0x40)\n      tag_16\n      swap4\n      swap3\n      swap2\n      swap1\n      tag_17\n      jump\t// in\n    tag_16:\n      mload(0x40)\n      dup1\n      swap2\n      sub\n      swap1\n      return\n        /* \"Abstract.sol\":85:103  string public name */\n    tag_7:\n      0x00\n      dup1\n      sload\n      tag_18\n      swap1\n      tag_19\n      jump\t// in\n    tag_18:\n      dup1\n      0x1f\n      add\n      0x20\n      dup1\n      swap2\n      div\n      mul\n      0x20\n      add\n      mload(0x40)\n      swap1\n      dup2\n      add\n      0x40\n      mstore\n      dup1\n      swap3\n      swap2\n      swap1\n      dup2\n      dup2\n      mstore\n      0x20\n      add\n      dup3\n      dup1\n      sload\n      tag_20\n      swap1\n      tag_19\n      jump\t// in\n    tag_20:\n      dup1\n      iszero\n      tag_21\n      jumpi\n      dup1\n      0x1f\n      lt\n      tag_22\n      jumpi\n      0x0100\n      dup1\n      dup4\n      sload\n      div\n      mul\n      dup4\n      mstore\n      swap2\n      0x20\n      add\n      swap2\n      jump(tag_21)\n    tag_22:\n      dup3\n      add\n      swap2\n      swap1\n      0x00\n      mstore\n      keccak256(0x00, 0x20)\n      swap1\n    tag_23:\n      dup2\n      sload\n      dup2\n      mstore\n      swap1\n      0x01\n      add\n      swap1\n      0x20\n      add\n      dup1\n      dup4\n      gt\n      tag_23\n      jumpi\n      dup3\n      swap1\n      sub\n      0x1f\n      and\n      dup3\n      add\n      swap2\n    tag_21:\n      pop\n      pop\n      pop\n      pop\n      pop\n      dup2\n      jump\t// out\n        /* \"Abstract.sol\":105:120  uint public age */\n    tag_11:\n      sload(0x01)\n      dup2\n      jump\t// out\n        /* \"Abstract.sol\":227:355  function getSalary()public override returns(uint,string memory,uint){... */\n    tag_15:\n        /* \"Abstract.sol\":271:275  uint */\n      0x00\n        /* \"Abstract.sol\":276:289  string memory */\n      0x60\n        /* \"Abstract.sol\":290:294  uint */\n      0x00\n        /* \"Abstract.sol\":301:311  name='hjx' */\n      mload(0x40)\n      dup1\n      0x40\n      add\n      0x40\n      mstore\n      dup1\n      0x03\n      dup2\n      mstore\n      0x20\n      add\n      0x686a780000000000000000000000000000000000000000000000000000000000\n      dup2\n      mstore\n      pop\n        /* \"Abstract.sol\":301:305  name */\n      0x00\n        /* \"Abstract.sol\":301:311  name='hjx' */\n      swap1\n      dup2\n      tag_25\n      swap2\n      swap1\n      tag_26\n      jump\t// in\n    tag_25:\n      pop\n        /* \"Abstract.sol\":321:323  10 */\n      0x0a\n        /* \"Abstract.sol\":317:320  age */\n      0x01\n        /* \"Abstract.sol\":317:323  age=10 */\n      dup2\n      swap1\n      sstore\n      pop\n        /* \"Abstract.sol\":337:341  3000 */\n      0x0bb8\n        /* \"Abstract.sol\":342:346  name */\n      0x00\n        /* \"Abstract.sol\":347:350  age */\n      sload(0x01)\n        /* \"Abstract.sol\":329:351  return (3000,name,age) */\n      dup2\n      dup1\n      sload\n      tag_27\n      swap1\n      tag_19\n      jump\t// in\n    tag_27:\n      dup1\n      0x1f\n      add\n      0x20\n      dup1\n      swap2\n      div\n      mul\n      0x20\n      add\n      mload(0x40)\n      swap1\n      dup2\n      add\n      0x40\n      mstore\n      dup1\n      swap3\n      swap2\n      swap1\n      dup2\n      dup2\n      mstore\n      0x20\n      add\n      dup3\n      dup1\n      sload\n      tag_28\n      swap1\n      tag_19\n      jump\t// in\n    tag_28:\n      dup1\n      iszero\n      tag_29\n      jumpi\n      dup1\n      0x1f\n      lt\n      tag_30\n      jumpi\n      0x0100\n      dup1\n      dup4\n      sload\n      div\n      mul\n      dup4\n      mstore\n      swap2\n      0x20\n      add\n      swap2\n      jump(tag_29)\n    tag_30:\n      dup3\n      add\n      swap2\n      swap1\n      0x00\n      mstore\n      keccak256(0x00, 0x20)\n      swap1\n    tag_31:\n      dup2\n      sload\n      dup2\n      mstore\n      swap1\n      0x01\n      add\n      swap1\n      0x20\n      add\n      dup1\n      dup4\n      gt\n      tag_31\n      jumpi\n      dup3\n      swap1\n      sub\n      0x1f\n      and\n      dup3\n      add\n      swap2\n    tag_29:\n      pop\n      pop\n      pop\n      pop\n      pop\n      swap2\n      pop\n      swap3\n      pop\n      swap3\n      pop\n      swap3\n      pop\n        /* \"Abstract.sol\":227:355  function getSalary()public override returns(uint,string memory,uint){... */\n      swap1\n      swap2\n      swap3\n      jump\t// out\n        /* \"#utility.yul\":7:106   */\n    tag_32:\n        /* \"#utility.yul\":59:65   */\n      0x00\n        /* \"#utility.yul\":93:98   */\n      dup2\n        /* \"#utility.yul\":87:99   */\n      mload\n        /* \"#utility.yul\":77:99   */\n      swap1\n      pop\n        /* \"#utility.yul\":7:106   */\n      swap2\n      swap1\n      pop\n      jump\t// out\n        /* \"#utility.yul\":112:281   */\n    tag_33:\n        /* \"#utility.yul\":196:207   */\n      0x00\n        /* \"#utility.yul\":230:236   */\n      dup3\n        /* \"#utility.yul\":225:228   */\n      dup3\n        /* \"#utility.yul\":218:237   */\n      mstore\n        /* \"#utility.yul\":270:274   */\n      0x20\n        /* \"#utility.yul\":265:268   */\n      dup3\n        /* \"#utility.yul\":261:275   */\n      add\n        /* \"#utility.yul\":246:275   */\n      swap1\n      pop\n        /* \"#utility.yul\":112:281   */\n      swap3\n      swap2\n      pop\n      pop\n      jump\t// out\n        /* \"#utility.yul\":287:426   */\n    tag_34:\n        /* \"#utility.yul\":376:382   */\n      dup3\n        /* \"#utility.yul\":371:374   */\n      dup2\n        /* \"#utility.yul\":366:369   */\n      dup4\n        /* \"#utility.yul\":360:383   */\n      mcopy\n        /* \"#utility.yul\":417:418   */\n      0x00\n        /* \"#utility.yul\":408:414   */\n      dup4\n        /* \"#utility.yul\":403:406   */\n      dup4\n        /* \"#utility.yul\":399:415   */\n      add\n        /* \"#utility.yul\":392:419   */\n      mstore\n        /* \"#utility.yul\":287:426   */\n      pop\n      pop\n      pop\n      jump\t// out\n        /* \"#utility.yul\":432:534   */\n    tag_35:\n        /* \"#utility.yul\":473:479   */\n      0x00\n        /* \"#utility.yul\":524:526   */\n      0x1f\n        /* \"#utility.yul\":520:527   */\n      not\n        /* \"#utility.yul\":515:517   */\n      0x1f\n        /* \"#utility.yul\":508:513   */\n      dup4\n        /* \"#utility.yul\":504:518   */\n      add\n        /* \"#utility.yul\":500:528   */\n      and\n        /* \"#utility.yul\":490:528   */\n      swap1\n      pop\n        /* \"#utility.yul\":432:534   */\n      swap2\n      swap1\n      pop\n      jump\t// out\n        /* \"#utility.yul\":540:917   */\n    tag_36:\n        /* \"#utility.yul\":628:631   */\n      0x00\n        /* \"#utility.yul\":656:695   */\n      tag_62\n        /* \"#utility.yul\":689:694   */\n      dup3\n        /* \"#utility.yul\":656:695   */\n      tag_32\n      jump\t// in\n    tag_62:\n        /* \"#utility.yul\":711:782   */\n      tag_63\n        /* \"#utility.yul\":775:781   */\n      dup2\n        /* \"#utility.yul\":770:773   */\n      dup6\n        /* \"#utility.yul\":711:782   */\n      tag_33\n      jump\t// in\n    tag_63:\n        /* \"#utility.yul\":704:782   */\n      swap4\n      pop\n        /* \"#utility.yul\":791:856   */\n      tag_64\n        /* \"#utility.yul\":849:855   */\n      dup2\n        /* \"#utility.yul\":844:847   */\n      dup6\n        /* \"#utility.yul\":837:841   */\n      0x20\n        /* \"#utility.yul\":830:835   */\n      dup7\n        /* \"#utility.yul\":826:842   */\n      add\n        /* \"#utility.yul\":791:856   */\n      tag_34\n      jump\t// in\n    tag_64:\n        /* \"#utility.yul\":881:910   */\n      tag_65\n        /* \"#utility.yul\":903:909   */\n      dup2\n        /* \"#utility.yul\":881:910   */\n      tag_35\n      jump\t// in\n    tag_65:\n        /* \"#utility.yul\":876:879   */\n      dup5\n        /* \"#utility.yul\":872:911   */\n      add\n        /* \"#utility.yul\":865:911   */\n      swap2\n      pop\n        /* \"#utility.yul\":632:917   */\n      pop\n        /* \"#utility.yul\":540:917   */\n      swap3\n      swap2\n      pop\n      pop\n      jump\t// out\n        /* \"#utility.yul\":923:1236   */\n    tag_9:\n        /* \"#utility.yul\":1036:1040   */\n      0x00\n        /* \"#utility.yul\":1074:1076   */\n      0x20\n        /* \"#utility.yul\":1063:1072   */\n      dup3\n        /* \"#utility.yul\":1059:1077   */\n      add\n        /* \"#utility.yul\":1051:1077   */\n      swap1\n      pop\n        /* \"#utility.yul\":1123:1132   */\n      dup2\n        /* \"#utility.yul\":1117:1121   */\n      dup2\n        /* \"#utility.yul\":1113:1133   */\n      sub\n        /* \"#utility.yul\":1109:1110   */\n      0x00\n        /* \"#utility.yul\":1098:1107   */\n      dup4\n        /* \"#utility.yul\":1094:1111   */\n      add\n        /* \"#utility.yul\":1087:1134   */\n      mstore\n        /* \"#utility.yul\":1151:1229   */\n      tag_67\n        /* \"#utility.yul\":1224:1228   */\n      dup2\n        /* \"#utility.yul\":1215:1221   */\n      dup5\n        /* \"#utility.yul\":1151:1229   */\n      tag_36\n      jump\t// in\n    tag_67:\n        /* \"#utility.yul\":1143:1229   */\n      swap1\n      pop\n        /* \"#utility.yul\":923:1236   */\n      swap3\n      swap2\n      pop\n      pop\n      jump\t// out\n        /* \"#utility.yul\":1242:1319   */\n    tag_37:\n        /* \"#utility.yul\":1279:1286   */\n      0x00\n        /* \"#utility.yul\":1308:1313   */\n      dup2\n        /* \"#utility.yul\":1297:1313   */\n      swap1\n      pop\n        /* \"#utility.yul\":1242:1319   */\n      swap2\n      swap1\n      pop\n      jump\t// out\n        /* \"#utility.yul\":1325:1443   */\n    tag_38:\n        /* \"#utility.yul\":1412:1436   */\n      tag_70\n        /* \"#utility.yul\":1430:1435   */\n      dup2\n        /* \"#utility.yul\":1412:1436   */\n      tag_37\n      jump\t// in\n    tag_70:\n        /* \"#utility.yul\":1407:1410   */\n      dup3\n        /* \"#utility.yul\":1400:1437   */\n      mstore\n        /* \"#utility.yul\":1325:1443   */\n      pop\n      pop\n      jump\t// out\n        /* \"#utility.yul\":1449:1671   */\n    tag_13:\n        /* \"#utility.yul\":1542:1546   */\n      0x00\n        /* \"#utility.yul\":1580:1582   */\n      0x20\n        /* \"#utility.yul\":1569:1578   */\n      dup3\n        /* \"#utility.yul\":1565:1583   */\n      add\n        /* \"#utility.yul\":1557:1583   */\n      swap1\n      pop\n        /* \"#utility.yul\":1593:1664   */\n      tag_72\n        /* \"#utility.yul\":1661:1662   */\n      0x00\n        /* \"#utility.yul\":1650:1659   */\n      dup4\n        /* \"#utility.yul\":1646:1663   */\n      add\n        /* \"#utility.yul\":1637:1643   */\n      dup5\n        /* \"#utility.yul\":1593:1664   */\n      tag_38\n      jump\t// in\n    tag_72:\n        /* \"#utility.yul\":1449:1671   */\n      swap3\n      swap2\n      pop\n      pop\n      jump\t// out\n        /* \"#utility.yul\":1677:2210   */\n    tag_17:\n        /* \"#utility.yul\":1846:1850   */\n      0x00\n        /* \"#utility.yul\":1884:1886   */\n      0x60\n        /* \"#utility.yul\":1873:1882   */\n      dup3\n        /* \"#utility.yul\":1869:1887   */\n      add\n        /* \"#utility.yul\":1861:1887   */\n      swap1\n      pop\n        /* \"#utility.yul\":1897:1968   */\n      tag_74\n        /* \"#utility.yul\":1965:1966   */\n      0x00\n        /* \"#utility.yul\":1954:1963   */\n      dup4\n        /* \"#utility.yul\":1950:1967   */\n      add\n        /* \"#utility.yul\":1941:1947   */\n      dup7\n        /* \"#utility.yul\":1897:1968   */\n      tag_38\n      jump\t// in\n    tag_74:\n        /* \"#utility.yul\":2015:2024   */\n      dup2\n        /* \"#utility.yul\":2009:2013   */\n      dup2\n        /* \"#utility.yul\":2005:2025   */\n      sub\n        /* \"#utility.yul\":2000:2002   */\n      0x20\n        /* \"#utility.yul\":1989:1998   */\n      dup4\n        /* \"#utility.yul\":1985:2003   */\n      add\n        /* \"#utility.yul\":1978:2026   */\n      mstore\n        /* \"#utility.yul\":2043:2121   */\n      tag_75\n        /* \"#utility.yul\":2116:2120   */\n      dup2\n        /* \"#utility.yul\":2107:2113   */\n      dup6\n        /* \"#utility.yul\":2043:2121   */\n      tag_36\n      jump\t// in\n    tag_75:\n        /* \"#utility.yul\":2035:2121   */\n      swap1\n      pop\n        /* \"#utility.yul\":2131:2203   */\n      tag_76\n        /* \"#utility.yul\":2199:2201   */\n      0x40\n        /* \"#utility.yul\":2188:2197   */\n      dup4\n        /* \"#utility.yul\":2184:2202   */\n      add\n        /* \"#utility.yul\":2175:2181   */\n      dup5\n        /* \"#utility.yul\":2131:2203   */\n      tag_38\n      jump\t// in\n    tag_76:\n        /* \"#utility.yul\":1677:2210   */\n      swap5\n      swap4\n      pop\n      pop\n      pop\n      pop\n      jump\t// out\n        /* \"#utility.yul\":2216:2396   */\n    tag_39:\n        /* \"#utility.yul\":2264:2341   */\n      0x4e487b7100000000000000000000000000000000000000000000000000000000\n        /* \"#utility.yul\":2261:2262   */\n      0x00\n        /* \"#utility.yul\":2254:2342   */\n      mstore\n        /* \"#utility.yul\":2361:2365   */\n      0x22\n        /* \"#utility.yul\":2358:2359   */\n      0x04\n        /* \"#utility.yul\":2351:2366   */\n      mstore\n        /* \"#utility.yul\":2385:2389   */\n      0x24\n        /* \"#utility.yul\":2382:2383   */\n      0x00\n        /* \"#utility.yul\":2375:2390   */\n      revert\n        /* \"#utility.yul\":2402:2722   */\n    tag_19:\n        /* \"#utility.yul\":2446:2452   */\n      0x00\n        /* \"#utility.yul\":2483:2484   */\n      0x02\n        /* \"#utility.yul\":2477:2481   */\n      dup3\n        /* \"#utility.yul\":2473:2485   */\n      div\n        /* \"#utility.yul\":2463:2485   */\n      swap1\n      pop\n        /* \"#utility.yul\":2530:2531   */\n      0x01\n        /* \"#utility.yul\":2524:2528   */\n      dup3\n        /* \"#utility.yul\":2520:2532   */\n      and\n        /* \"#utility.yul\":2551:2569   */\n      dup1\n        /* \"#utility.yul\":2541:2622   */\n      tag_79\n      jumpi\n        /* \"#utility.yul\":2607:2611   */\n      0x7f\n        /* \"#utility.yul\":2599:2605   */\n      dup3\n        /* \"#utility.yul\":2595:2612   */\n      and\n        /* \"#utility.yul\":2585:2612   */\n      swap2\n      pop\n        /* \"#utility.yul\":2541:2622   */\n    tag_79:\n        /* \"#utility.yul\":2669:2671   */\n      0x20\n        /* \"#utility.yul\":2661:2667   */\n      dup3\n        /* \"#utility.yul\":2658:2672   */\n      lt\n        /* \"#utility.yul\":2638:2656   */\n      dup2\n        /* \"#utility.yul\":2635:2673   */\n      sub\n        /* \"#utility.yul\":2632:2716   */\n      tag_80\n      jumpi\n        /* \"#utility.yul\":2688:2706   */\n      tag_81\n      tag_39\n      jump\t// in\n    tag_81:\n        /* \"#utility.yul\":2632:2716   */\n    tag_80:\n        /* \"#utility.yul\":2453:2722   */\n      pop\n        /* \"#utility.yul\":2402:2722   */\n      swap2\n      swap1\n      pop\n      jump\t// out\n        /* \"#utility.yul\":2728:2908   */\n    tag_40:\n        /* \"#utility.yul\":2776:2853   */\n      0x4e487b7100000000000000000000000000000000000000000000000000000000\n        /* \"#utility.yul\":2773:2774   */\n      0x00\n        /* \"#utility.yul\":2766:2854   */\n      mstore\n        /* \"#utility.yul\":2873:2877   */\n      0x41\n        /* \"#utility.yul\":2870:2871   */\n      0x04\n        /* \"#utility.yul\":2863:2878   */\n      mstore\n        /* \"#utility.yul\":2897:2901   */\n      0x24\n        /* \"#utility.yul\":2894:2895   */\n      0x00\n        /* \"#utility.yul\":2887:2902   */\n      revert\n        /* \"#utility.yul\":2914:3055   */\n    tag_41:\n        /* \"#utility.yul\":2963:2967   */\n      0x00\n        /* \"#utility.yul\":2986:2989   */\n      dup2\n        /* \"#utility.yul\":2978:2989   */\n      swap1\n      pop\n        /* \"#utility.yul\":3009:3012   */\n      dup2\n        /* \"#utility.yul\":3006:3007   */\n      0x00\n        /* \"#utility.yul\":2999:3013   */\n      mstore\n        /* \"#utility.yul\":3043:3047   */\n      0x20\n        /* \"#utility.yul\":3040:3041   */\n      0x00\n        /* \"#utility.yul\":3030:3048   */\n      keccak256\n        /* \"#utility.yul\":3022:3048   */\n      swap1\n      pop\n        /* \"#utility.yul\":2914:3055   */\n      swap2\n      swap1\n      pop\n      jump\t// out\n        /* \"#utility.yul\":3061:3154   */\n    tag_42:\n        /* \"#utility.yul\":3098:3104   */\n      0x00\n        /* \"#utility.yul\":3145:3147   */\n      0x20\n        /* \"#utility.yul\":3140:3142   */\n      0x1f\n        /* \"#utility.yul\":3133:3138   */\n      dup4\n        /* \"#utility.yul\":3129:3143   */\n      add\n        /* \"#utility.yul\":3125:3148   */\n      div\n        /* \"#utility.yul\":3115:3148   */\n      swap1\n      pop\n        /* \"#utility.yul\":3061:3154   */\n      swap2\n      swap1\n      pop\n      jump\t// out\n        /* \"#utility.yul\":3160:3267   */\n    tag_43:\n        /* \"#utility.yul\":3204:3212   */\n      0x00\n        /* \"#utility.yul\":3254:3259   */\n      dup3\n        /* \"#utility.yul\":3248:3252   */\n      dup3\n        /* \"#utility.yul\":3244:3260   */\n      shl\n        /* \"#utility.yul\":3223:3260   */\n      swap1\n      pop\n        /* \"#utility.yul\":3160:3267   */\n      swap3\n      swap2\n      pop\n      pop\n      jump\t// out\n        /* \"#utility.yul\":3273:3666   */\n    tag_44:\n        /* \"#utility.yul\":3342:3348   */\n      0x00\n        /* \"#utility.yul\":3392:3393   */\n      0x08\n        /* \"#utility.yul\":3380:3390   */\n      dup4\n        /* \"#utility.yul\":3376:3394   */\n      mul\n        /* \"#utility.yul\":3415:3512   */\n      tag_87\n        /* \"#utility.yul\":3445:3511   */\n      0xffffffffffffffffffffffffffffffffffffffffffffffffffffffffffffffff\n        /* \"#utility.yul\":3434:3443   */\n      dup3\n        /* \"#utility.yul\":3415:3512   */\n      tag_43\n      jump\t// in\n    tag_87:\n        /* \"#utility.yul\":3533:3572   */\n      tag_88\n        /* \"#utility.yul\":3563:3571   */\n      dup7\n        /* \"#utility.yul\":3552:3561   */\n      dup4\n        /* \"#utility.yul\":3533:3572   */\n      tag_43\n      jump\t// in\n    tag_88:\n        /* \"#utility.yul\":3521:3572   */\n      swap6\n      pop\n        /* \"#utility.yul\":3605:3609   */\n      dup1\n        /* \"#utility.yul\":3601:3610   */\n      not\n        /* \"#utility.yul\":3594:3599   */\n      dup5\n        /* \"#utility.yul\":3590:3611   */\n      and\n        /* \"#utility.yul\":3581:3611   */\n      swap4\n      pop\n        /* \"#utility.yul\":3654:3658   */\n      dup1\n        /* \"#utility.yul\":3644:3652   */\n      dup7\n        /* \"#utility.yul\":3640:3659   */\n      and\n        /* \"#utility.yul\":3633:3638   */\n      dup5\n        /* \"#utility.yul\":3630:3660   */\n      or\n        /* \"#utility.yul\":3620:3660   */\n      swap3\n      pop\n        /* \"#utility.yul\":3349:3666   */\n      pop\n      pop\n        /* \"#utility.yul\":3273:3666   */\n      swap4\n      swap3\n      pop\n      pop\n      pop\n      jump\t// out\n        /* \"#utility.yul\":3672:3732   */\n    tag_45:\n        /* \"#utility.yul\":3700:3703   */\n      0x00\n        /* \"#utility.yul\":3721:3726   */\n      dup2\n        /* \"#utility.yul\":3714:3726   */\n      swap1\n      pop\n        /* \"#utility.yul\":3672:3732   */\n      swap2\n      swap1\n      pop\n      jump\t// out\n        /* \"#utility.yul\":3738:3880   */\n    tag_46:\n        /* \"#utility.yul\":3788:3797   */\n      0x00\n        /* \"#utility.yul\":3821:3874   */\n      tag_91\n        /* \"#utility.yul\":3839:3873   */\n      tag_92\n        /* \"#utility.yul\":3848:3872   */\n      tag_93\n        /* \"#utility.yul\":3866:3871   */\n      dup5\n        /* \"#utility.yul\":3848:3872   */\n      tag_37\n      jump\t// in\n    tag_93:\n        /* \"#utility.yul\":3839:3873   */\n      tag_45\n      jump\t// in\n    tag_92:\n        /* \"#utility.yul\":3821:3874   */\n      tag_37\n      jump\t// in\n    tag_91:\n        /* \"#utility.yul\":3808:3874   */\n      swap1\n      pop\n        /* \"#utility.yul\":3738:3880   */\n      swap2\n      swap1\n      pop\n      jump\t// out\n        /* \"#utility.yul\":3886:3961   */\n    tag_47:\n        /* \"#utility.yul\":3929:3932   */\n      0x00\n        /* \"#utility.yul\":3950:3955   */\n      dup2\n        /* \"#utility.yul\":3943:3955   */\n      swap1\n      pop\n        /* \"#utility.yul\":3886:3961   */\n      swap2\n      swap1\n      pop\n      jump\t// out\n        /* \"#utility.yul\":3967:4236   */\n    tag_48:\n        /* \"#utility.yul\":4077:4116   */\n      tag_96\n        /* \"#utility.yul\":4108:4115   */\n      dup4\n        /* \"#utility.yul\":4077:4116   */\n      tag_46\n      jump\t// in\n    tag_96:\n        /* \"#utility.yul\":4138:4229   */\n      tag_97\n        /* \"#utility.yul\":4187:4228   */\n      tag_98\n        /* \"#utility.yul\":4211:4227   */\n      dup3\n        /* \"#utility.yul\":4187:4228   */\n      tag_47\n      jump\t// in\n    tag_98:\n        /* \"#utility.yul\":4179:4185   */\n      dup5\n        /* \"#utility.yul\":4172:4176   */\n      dup5\n        /* \"#utility.yul\":4166:4177   */\n      sload\n        /* \"#utility.yul\":4138:4229   */\n      tag_44\n      jump\t// in\n    tag_97:\n        /* \"#utility.yul\":4132:4136   */\n      dup3\n        /* \"#utility.yul\":4125:4230   */\n      sstore\n        /* \"#utility.yul\":4043:4236   */\n      pop\n        /* \"#utility.yul\":3967:4236   */\n      pop\n      pop\n      pop\n      jump\t// out\n        /* \"#utility.yul\":4242:4315   */\n    tag_49:\n        /* \"#utility.yul\":4287:4290   */\n      0x00\n        /* \"#utility.yul\":4242:4315   */\n      swap1\n      jump\t// out\n        /* \"#utility.yul\":4321:4510   */\n    tag_50:\n        /* \"#utility.yul\":4398:4430   */\n      tag_101\n      tag_49\n      jump\t// in\n    tag_101:\n        /* \"#utility.yul\":4439:4504   */\n      tag_102\n        /* \"#utility.yul\":4497:4503   */\n      dup2\n        /* \"#utility.yul\":4489:4495   */\n      dup5\n        /* \"#utility.yul\":4483:4487   */\n      dup5\n        /* \"#utility.yul\":4439:4504   */\n      tag_48\n      jump\t// in\n    tag_102:\n        /* \"#utility.yul\":4374:4510   */\n      pop\n        /* \"#utility.yul\":4321:4510   */\n      pop\n      pop\n      jump\t// out\n        /* \"#utility.yul\":4516:4702   */\n    tag_51:\n        /* \"#utility.yul\":4576:4696   */\n    tag_104:\n        /* \"#utility.yul\":4593:4596   */\n      dup2\n        /* \"#utility.yul\":4586:4591   */\n      dup2\n        /* \"#utility.yul\":4583:4597   */\n      lt\n        /* \"#utility.yul\":4576:4696   */\n      iszero\n      tag_106\n      jumpi\n        /* \"#utility.yul\":4647:4686   */\n      tag_107\n        /* \"#utility.yul\":4684:4685   */\n      0x00\n        /* \"#utility.yul\":4677:4682   */\n      dup3\n        /* \"#utility.yul\":4647:4686   */\n      tag_50\n      jump\t// in\n    tag_107:\n        /* \"#utility.yul\":4620:4621   */\n      0x01\n        /* \"#utility.yul\":4613:4618   */\n      dup2\n        /* \"#utility.yul\":4609:4622   */\n      add\n        /* \"#utility.yul\":4600:4622   */\n      swap1\n      pop\n        /* \"#utility.yul\":4576:4696   */\n      jump(tag_104)\n    tag_106:\n        /* \"#utility.yul\":4516:4702   */\n      pop\n      pop\n      jump\t// out\n        /* \"#utility.yul\":4708:5251   */\n    tag_52:\n        /* \"#utility.yul\":4809:4811   */\n      0x1f\n        /* \"#utility.yul\":4804:4807   */\n      dup3\n        /* \"#utility.yul\":4801:4812   */\n      gt\n        /* \"#utility.yul\":4798:5244   */\n      iszero\n      tag_109\n      jumpi\n        /* \"#utility.yul\":4843:4881   */\n      tag_110\n        /* \"#utility.yul\":4875:4880   */\n      dup2\n        /* \"#utility.yul\":4843:4881   */\n      tag_41\n      jump\t// in\n    tag_110:\n        /* \"#utility.yul\":4927:4956   */\n      tag_111\n        /* \"#utility.yul\":4945:4955   */\n      dup5\n        /* \"#utility.yul\":4927:4956   */\n      tag_42\n      jump\t// in\n    tag_111:\n        /* \"#utility.yul\":4917:4925   */\n      dup2\n        /* \"#utility.yul\":4913:4957   */\n      add\n        /* \"#utility.yul\":5110:5112   */\n      0x20\n        /* \"#utility.yul\":5098:5108   */\n      dup6\n        /* \"#utility.yul\":5095:5113   */\n      lt\n        /* \"#utility.yul\":5092:5141   */\n      iszero\n      tag_112\n      jumpi\n        /* \"#utility.yul\":5131:5139   */\n      dup2\n        /* \"#utility.yul\":5116:5139   */\n      swap1\n      pop\n        /* \"#utility.yul\":5092:5141   */\n    tag_112:\n        /* \"#utility.yul\":5154:5234   */\n      tag_113\n        /* \"#utility.yul\":5210:5232   */\n      tag_114\n        /* \"#utility.yul\":5228:5231   */\n      dup6\n        /* \"#utility.yul\":5210:5232   */\n      tag_42\n      jump\t// in\n    tag_114:\n        /* \"#utility.yul\":5200:5208   */\n      dup4\n        /* \"#utility.yul\":5196:5233   */\n      add\n        /* \"#utility.yul\":5183:5194   */\n      dup3\n        /* \"#utility.yul\":5154:5234   */\n      tag_51\n      jump\t// in\n    tag_113:\n        /* \"#utility.yul\":4813:5244   */\n      pop\n      pop\n        /* \"#utility.yul\":4798:5244   */\n    tag_109:\n        /* \"#utility.yul\":4708:5251   */\n      pop\n      pop\n      pop\n      jump\t// out\n        /* \"#utility.yul\":5257:5374   */\n    tag_53:\n        /* \"#utility.yul\":5311:5319   */\n      0x00\n        /* \"#utility.yul\":5361:5366   */\n      dup3\n        /* \"#utility.yul\":5355:5359   */\n      dup3\n        /* \"#utility.yul\":5351:5367   */\n      shr\n        /* \"#utility.yul\":5330:5367   */\n      swap1\n      pop\n        /* \"#utility.yul\":5257:5374   */\n      swap3\n      swap2\n      pop\n      pop\n      jump\t// out\n        /* \"#utility.yul\":5380:5549   */\n    tag_54:\n        /* \"#utility.yul\":5424:5430   */\n      0x00\n        /* \"#utility.yul\":5457:5508   */\n      tag_117\n        /* \"#utility.yul\":5505:5506   */\n      0x00\n        /* \"#utility.yul\":5501:5507   */\n      not\n        /* \"#utility.yul\":5493:5498   */\n      dup5\n        /* \"#utility.yul\":5490:5491   */\n      0x08\n        /* \"#utility.yul\":5486:5499   */\n      mul\n        /* \"#utility.yul\":5457:5508   */\n      tag_53\n      jump\t// in\n    tag_117:\n        /* \"#utility.yul\":5453:5509   */\n      not\n        /* \"#utility.yul\":5538:5542   */\n      dup1\n        /* \"#utility.yul\":5532:5536   */\n      dup4\n        /* \"#utility.yul\":5528:5543   */\n      and\n        /* \"#utility.yul\":5518:5543   */\n      swap2\n      pop\n        /* \"#utility.yul\":5431:5549   */\n      pop\n        /* \"#utility.yul\":5380:5549   */\n      swap3\n      swap2\n      pop\n      pop\n      jump\t// out\n        /* \"#utility.yul\":5554:5849   */\n    tag_55:\n        /* \"#utility.yul\":5630:5634   */\n      0x00\n        /* \"#utility.yul\":5776:5805   */\n      tag_119\n        /* \"#utility.yul\":5801:5804   */\n      dup4\n        /* \"#utility.yul\":5795:5799   */\n      dup4\n        /* \"#utility.yul\":5776:5805   */\n      tag_54\n      jump\t// in\n    tag_119:\n        /* \"#utility.yul\":5768:5805   */\n      swap2\n      pop\n        /* \"#utility.yul\":5838:5841   */\n      dup3\n        /* \"#utility.yul\":5835:5836   */\n      0x02\n        /* \"#utility.yul\":5831:5842   */\n      mul\n        /* \"#utility.yul\":5825:5829   */\n      dup3\n        /* \"#utility.yul\":5822:5843   */\n      or\n        /* \"#utility.yul\":5814:5843   */\n      swap1\n      pop\n        /* \"#utility.yul\":5554:5849   */\n      swap3\n      swap2\n      pop\n      pop\n      jump\t// out\n        /* \"#utility.yul\":5854:7249   */\n    tag_26:\n        /* \"#utility.yul\":5971:6008   */\n      tag_121\n        /* \"#utility.yul\":6004:6007   */\n      dup3\n        /* \"#utility.yul\":5971:6008   */\n      tag_32\n      jump\t// in\n    tag_121:\n        /* \"#utility.yul\":6073:6091   */\n      0xffffffffffffffff\n        /* \"#utility.yul\":6065:6071   */\n      dup2\n        /* \"#utility.yul\":6062:6092   */\n      gt\n        /* \"#utility.yul\":6059:6115   */\n      iszero\n      tag_122\n      jumpi\n        /* \"#utility.yul\":6095:6113   */\n      tag_123\n      tag_40\n      jump\t// in\n    tag_123:\n        /* \"#utility.yul\":6059:6115   */\n    tag_122:\n        /* \"#utility.yul\":6139:6177   */\n      tag_124\n        /* \"#utility.yul\":6171:6175   */\n      dup3\n        /* \"#utility.yul\":6165:6176   */\n      sload\n        /* \"#utility.yul\":6139:6177   */\n      tag_19\n      jump\t// in\n    tag_124:\n        /* \"#utility.yul\":6224:6291   */\n      tag_125\n        /* \"#utility.yul\":6284:6290   */\n      dup3\n        /* \"#utility.yul\":6276:6282   */\n      dup3\n        /* \"#utility.yul\":6270:6274   */\n      dup6\n        /* \"#utility.yul\":6224:6291   */\n      tag_52\n      jump\t// in\n    tag_125:\n        /* \"#utility.yul\":6318:6319   */\n      0x00\n        /* \"#utility.yul\":6342:6346   */\n      0x20\n        /* \"#utility.yul\":6329:6346   */\n      swap1\n      pop\n        /* \"#utility.yul\":6374:6376   */\n      0x1f\n        /* \"#utility.yul\":6366:6372   */\n      dup4\n        /* \"#utility.yul\":6363:6377   */\n      gt\n        /* \"#utility.yul\":6391:6392   */\n      0x01\n        /* \"#utility.yul\":6386:7004   */\n      dup2\n      eq\n      tag_127\n      jumpi\n        /* \"#utility.yul\":7048:7049   */\n      0x00\n        /* \"#utility.yul\":7065:7071   */\n      dup5\n        /* \"#utility.yul\":7062:7139   */\n      iszero\n      tag_128\n      jumpi\n        /* \"#utility.yul\":7114:7123   */\n      dup3\n        /* \"#utility.yul\":7109:7112   */\n      dup8\n        /* \"#utility.yul\":7105:7124   */\n      add\n        /* \"#utility.yul\":7099:7125   */\n      mload\n        /* \"#utility.yul\":7090:7125   */\n      swap1\n      pop\n        /* \"#utility.yul\":7062:7139   */\n    tag_128:\n        /* \"#utility.yul\":7165:7232   */\n      tag_129\n        /* \"#utility.yul\":7225:7231   */\n      dup6\n        /* \"#utility.yul\":7218:7223   */\n      dup3\n        /* \"#utility.yul\":7165:7232   */\n      tag_55\n      jump\t// in\n    tag_129:\n        /* \"#utility.yul\":7159:7163   */\n      dup7\n        /* \"#utility.yul\":7152:7233   */\n      sstore\n        /* \"#utility.yul\":7021:7243   */\n      pop\n        /* \"#utility.yul\":6356:7243   */\n      jump(tag_126)\n        /* \"#utility.yul\":6386:7004   */\n    tag_127:\n        /* \"#utility.yul\":6438:6442   */\n      0x1f\n        /* \"#utility.yul\":6434:6443   */\n      not\n        /* \"#utility.yul\":6426:6432   */\n      dup5\n        /* \"#utility.yul\":6422:6444   */\n      and\n        /* \"#utility.yul\":6472:6509   */\n      tag_130\n        /* \"#utility.yul\":6504:6508   */\n      dup7\n        /* \"#utility.yul\":6472:6509   */\n      tag_41\n      jump\t// in\n    tag_130:\n        /* \"#utility.yul\":6531:6532   */\n      0x00\n        /* \"#utility.yul\":6545:6753   */\n    tag_131:\n        /* \"#utility.yul\":6559:6566   */\n      dup3\n        /* \"#utility.yul\":6556:6557   */\n      dup2\n        /* \"#utility.yul\":6553:6567   */\n      lt\n        /* \"#utility.yul\":6545:6753   */\n      iszero\n      tag_133\n      jumpi\n        /* \"#utility.yul\":6638:6647   */\n      dup5\n        /* \"#utility.yul\":6633:6636   */\n      dup10\n        /* \"#utility.yul\":6629:6648   */\n      add\n        /* \"#utility.yul\":6623:6649   */\n      mload\n        /* \"#utility.yul\":6615:6621   */\n      dup3\n        /* \"#utility.yul\":6608:6650   */\n      sstore\n        /* \"#utility.yul\":6689:6690   */\n      0x01\n        /* \"#utility.yul\":6681:6687   */\n      dup3\n        /* \"#utility.yul\":6677:6691   */\n      add\n        /* \"#utility.yul\":6667:6691   */\n      swap2\n      pop\n        /* \"#utility.yul\":6736:6738   */\n      0x20\n        /* \"#utility.yul\":6725:6734   */\n      dup6\n        /* \"#utility.yul\":6721:6739   */\n      add\n        /* \"#utility.yul\":6708:6739   */\n      swap5\n      pop\n        /* \"#utility.yul\":6582:6586   */\n      0x20\n        /* \"#utility.yul\":6579:6580   */\n      dup2\n        /* \"#utility.yul\":6575:6587   */\n      add\n        /* \"#utility.yul\":6570:6587   */\n      swap1\n      pop\n        /* \"#utility.yul\":6545:6753   */\n      jump(tag_131)\n    tag_133:\n        /* \"#utility.yul\":6781:6787   */\n      dup7\n        /* \"#utility.yul\":6772:6779   */\n      dup4\n        /* \"#utility.yul\":6769:6788   */\n      lt\n        /* \"#utility.yul\":6766:6945   */\n      iszero\n      tag_134\n      jumpi\n        /* \"#utility.yul\":6839:6848   */\n      dup5\n        /* \"#utility.yul\":6834:6837   */\n      dup10\n        /* \"#utility.yul\":6830:6849   */\n      add\n        /* \"#utility.yul\":6824:6850   */\n      mload\n        /* \"#utility.yul\":6882:6930   */\n      tag_135\n        /* \"#utility.yul\":6924:6928   */\n      0x1f\n        /* \"#utility.yul\":6916:6922   */\n      dup10\n        /* \"#utility.yul\":6912:6929   */\n      and\n        /* \"#utility.yul\":6901:6910   */\n      dup3\n        /* \"#utility.yul\":6882:6930   */\n      tag_54\n      jump\t// in\n    tag_135:\n        /* \"#utility.yul\":6874:6880   */\n      dup4\n        /* \"#utility.yul\":6867:6931   */\n      sstore\n        /* \"#utility.yul\":6789:6945   */\n      pop\n        /* \"#utility.yul\":6766:6945   */\n    tag_134:\n        /* \"#utility.yul\":6991:6992   */\n      0x01\n        /* \"#utility.yul\":6987:6988   */\n      0x02\n        /* \"#utility.yul\":6979:6985   */\n      dup9\n        /* \"#utility.yul\":6975:6989   */\n      mul\n        /* \"#utility.yul\":6971:6993   */\n      add\n        /* \"#utility.yul\":6965:6969   */\n      dup9\n        /* \"#utility.yul\":6958:6994   */\n      sstore\n        /* \"#utility.yul\":6393:7004   */\n      pop\n      pop\n      pop\n        /* \"#utility.yul\":6356:7243   */\n    tag_126:\n      pop\n        /* \"#utility.yul\":5946:7249   */\n      pop\n      pop\n      pop\n        /* \"#utility.yul\":5854:7249   */\n      pop\n      pop\n      jump\t// out\n\n    auxdata: 0xa2646970667358221220a5b666ca9a5487970832bc7b3668c94a7c47d8a4d54155da4ac3a9a74967eb7664736f6c634300081a0033\n}\n",
				"bytecode": {
					"linkReferences": {},
					"object": "6080604052348015600e575f80fd5b506106458061001c5f395ff3fe608060405234801561000f575f80fd5b506004361061003f575f3560e01c806306fdde0314610043578063262a9dff1461006157806358b08d2e1461007f575b5f80fd5b61004b61009f565b604051610058919061028c565b60405180910390f35b61006961012a565b60405161007691906102c4565b60405180910390f35b610087610130565b604051610096939291906102dd565b60405180910390f35b5f80546100ab90610346565b80601f01602080910402602001604051908101604052809291908181526020018280546100d790610346565b80156101225780601f106100f957610100808354040283529160200191610122565b820191905f5260205f20905b81548152906001019060200180831161010557829003601f168201915b505050505081565b60015481565b5f60605f6040518060400160405280600381526020017f686a7800000000000000000000000000000000000000000000000000000000008152505f90816101779190610540565b50600a600181905550610bb85f60015481805461019390610346565b80601f01602080910402602001604051908101604052809291908181526020018280546101bf90610346565b801561020a5780601f106101e15761010080835404028352916020019161020a565b820191905f5260205f20905b8154815290600101906020018083116101ed57829003601f168201915b50505050509150925092509250909192565b5f81519050919050565b5f82825260208201905092915050565b8281835e5f83830152505050565b5f601f19601f8301169050919050565b5f61025e8261021c565b6102688185610226565b9350610278818560208601610236565b61028181610244565b840191505092915050565b5f6020820190508181035f8301526102a48184610254565b905092915050565b5f819050919050565b6102be816102ac565b82525050565b5f6020820190506102d75f8301846102b5565b92915050565b5f6060820190506102f05f8301866102b5565b81810360208301526103028185610254565b905061031160408301846102b5565b949350505050565b7f4e487b71000000000000000000000000000000000000000000000000000000005f52602260045260245ffd5b5f600282049050600182168061035d57607f821691505b6020821081036103705761036f610319565b5b50919050565b7f4e487b71000000000000000000000000000000000000000000000000000000005f52604160045260245ffd5b5f819050815f5260205f209050919050565b5f6020601f8301049050919050565b5f82821b905092915050565b5f600883026103ff7fffffffffffffffffffffffffffffffffffffffffffffffffffffffffffffffff826103c4565b61040986836103c4565b95508019841693508086168417925050509392505050565b5f819050919050565b5f61044461043f61043a846102ac565b610421565b6102ac565b9050919050565b5f819050919050565b61045d8361042a565b6104716104698261044b565b8484546103d0565b825550505050565b5f90565b610485610479565b610490818484610454565b505050565b5b818110156104b3576104a85f8261047d565b600181019050610496565b5050565b601f8211156104f8576104c9816103a3565b6104d2846103b5565b810160208510156104e1578190505b6104f56104ed856103b5565b830182610495565b50505b505050565b5f82821c905092915050565b5f6105185f19846008026104fd565b1980831691505092915050565b5f6105308383610509565b9150826002028217905092915050565b6105498261021c565b67ffffffffffffffff81111561056257610561610376565b5b61056c8254610346565b6105778282856104b7565b5f60209050601f8311600181146105a8575f8415610596578287015190505b6105a08582610525565b865550610607565b601f1984166105b6866103a3565b5f5b828110156105dd578489015182556001820191506020850194506020810190506105b8565b868310156105fa57848901516105f6601f891682610509565b8355505b6001600288020188555050505b50505050505056fea2646970667358221220a5b666ca9a5487970832bc7b3668c94a7c47d8a4d54155da4ac3a9a74967eb7664736f6c634300081a0033",
					"opcodes": "PUSH1 0x80 PUSH1 0x40 MSTORE CALLVALUE DUP1 ISZERO PUSH1 0xE JUMPI PUSH0 DUP1 REVERT JUMPDEST POP PUSH2 0x645 DUP1 PUSH2 0x1C PUSH0 CODECOPY PUSH0 RETURN INVALID PUSH1 0x80 PUSH1 0x40 MSTORE CALLVALUE DUP1 ISZERO PUSH2 0xF JUMPI PUSH0 DUP1 REVERT JUMPDEST POP PUSH1 0x4 CALLDATASIZE LT PUSH2 0x3F JUMPI PUSH0 CALLDATALOAD PUSH1 0xE0 SHR DUP1 PUSH4 0x6FDDE03 EQ PUSH2 0x43 JUMPI DUP1 PUSH4 0x262A9DFF EQ PUSH2 0x61 JUMPI DUP1 PUSH4 0x58B08D2E EQ PUSH2 0x7F JUMPI JUMPDEST PUSH0 DUP1 REVERT JUMPDEST PUSH2 0x4B PUSH2 0x9F JUMP JUMPDEST PUSH1 0x40 MLOAD PUSH2 0x58 SWAP2 SWAP1 PUSH2 0x28C JUMP JUMPDEST PUSH1 0x40 MLOAD DUP1 SWAP2 SUB SWAP1 RETURN JUMPDEST PUSH2 0x69 PUSH2 0x12A JUMP JUMPDEST PUSH1 0x40 MLOAD PUSH2 0x76 SWAP2 SWAP1 PUSH2 0x2C4 JUMP JUMPDEST PUSH1 0x40 MLOAD DUP1 SWAP2 SUB SWAP1 RETURN JUMPDEST PUSH2 0x87 PUSH2 0x130 JUMP JUMPDEST PUSH1 0x40 MLOAD PUSH2 0x96 SWAP4 SWAP3 SWAP2 SWAP1 PUSH2 0x2DD JUMP JUMPDEST PUSH1 0x40 MLOAD DUP1 SWAP2 SUB SWAP1 RETURN JUMPDEST PUSH0 DUP1 SLOAD PUSH2 0xAB SWAP1 PUSH2 0x346 JUMP JUMPDEST DUP1 PUSH1 0x1F ADD PUSH1 0x20 DUP1 SWAP2 DIV MUL PUSH1 0x20 ADD PUSH1 0x40 MLOAD SWAP1 DUP2 ADD PUSH1 0x40 MSTORE DUP1 SWAP3 SWAP2 SWAP1 DUP2 DUP2 MSTORE PUSH1 0x20 ADD DUP3 DUP1 SLOAD PUSH2 0xD7 SWAP1 PUSH2 0x346 JUMP JUMPDEST DUP1 ISZERO PUSH2 0x122 JUMPI DUP1 PUSH1 0x1F LT PUSH2 0xF9 JUMPI PUSH2 0x100 DUP1 DUP4 SLOAD DIV MUL DUP4 MSTORE SWAP2 PUSH1 0x20 ADD SWAP2 PUSH2 0x122 JUMP JUMPDEST DUP3 ADD SWAP2 SWAP1 PUSH0 MSTORE PUSH1 0x20 PUSH0 KECCAK256 SWAP1 JUMPDEST DUP2 SLOAD DUP2 MSTORE SWAP1 PUSH1 0x1 ADD SWAP1 PUSH1 0x20 ADD DUP1 DUP4 GT PUSH2 0x105 JUMPI DUP3 SWAP1 SUB PUSH1 0x1F AND DUP3 ADD SWAP2 JUMPDEST POP POP POP POP POP DUP2 JUMP JUMPDEST PUSH1 0x1 SLOAD DUP2 JUMP JUMPDEST PUSH0 PUSH1 0x60 PUSH0 PUSH1 0x40 MLOAD DUP1 PUSH1 0x40 ADD PUSH1 0x40 MSTORE DUP1 PUSH1 0x3 DUP2 MSTORE PUSH1 0x20 ADD PUSH32 0x686A780000000000000000000000000000000000000000000000000000000000 DUP2 MSTORE POP PUSH0 SWAP1 DUP2 PUSH2 0x177 SWAP2 SWAP1 PUSH2 0x540 JUMP JUMPDEST POP PUSH1 0xA PUSH1 0x1 DUP2 SWAP1 SSTORE POP PUSH2 0xBB8 PUSH0 PUSH1 0x1 SLOAD DUP2 DUP1 SLOAD PUSH2 0x193 SWAP1 PUSH2 0x346 JUMP JUMPDEST DUP1 PUSH1 0x1F ADD PUSH1 0x20 DUP1 SWAP2 DIV MUL PUSH1 0x20 ADD PUSH1 0x40 MLOAD SWAP1 DUP2 ADD PUSH1 0x40 MSTORE DUP1 SWAP3 SWAP2 SWAP1 DUP2 DUP2 MSTORE PUSH1 0x20 ADD DUP3 DUP1 SLOAD PUSH2 0x1BF SWAP1 PUSH2 0x346 JUMP JUMPDEST DUP1 ISZERO PUSH2 0x20A JUMPI DUP1 PUSH1 0x1F LT PUSH2 0x1E1 JUMPI PUSH2 0x100 DUP1 DUP4 SLOAD DIV MUL DUP4 MSTORE SWAP2 PUSH1 0x20 ADD SWAP2 PUSH2 0x20A JUMP JUMPDEST DUP3 ADD SWAP2 SWAP1 PUSH0 MSTORE PUSH1 0x20 PUSH0 KECCAK256 SWAP1 JUMPDEST DUP2 SLOAD DUP2 MSTORE SWAP1 PUSH1 0x1 ADD SWAP1 PUSH1 0x20 ADD DUP1 DUP4 GT PUSH2 0x1ED JUMPI DUP3 SWAP1 SUB PUSH1 0x1F AND DUP3 ADD SWAP2 JUMPDEST POP POP POP POP POP SWAP2 POP SWAP3 POP SWAP3 POP SWAP3 POP SWAP1 SWAP2 SWAP3 JUMP JUMPDEST PUSH0 DUP2 MLOAD SWAP1 POP SWAP2 SWAP1 POP JUMP JUMPDEST PUSH0 DUP3 DUP3 MSTORE PUSH1 0x20 DUP3 ADD SWAP1 POP SWAP3 SWAP2 POP POP JUMP JUMPDEST DUP3 DUP2 DUP4 MCOPY PUSH0 DUP4 DUP4 ADD MSTORE POP POP POP JUMP JUMPDEST PUSH0 PUSH1 0x1F NOT PUSH1 0x1F DUP4 ADD AND SWAP1 POP SWAP2 SWAP1 POP JUMP JUMPDEST PUSH0 PUSH2 0x25E DUP3 PUSH2 0x21C JUMP JUMPDEST PUSH2 0x268 DUP2 DUP6 PUSH2 0x226 JUMP JUMPDEST SWAP4 POP PUSH2 0x278 DUP2 DUP6 PUSH1 0x20 DUP7 ADD PUSH2 0x236 JUMP JUMPDEST PUSH2 0x281 DUP2 PUSH2 0x244 JUMP JUMPDEST DUP5 ADD SWAP2 POP POP SWAP3 SWAP2 POP POP JUMP JUMPDEST PUSH0 PUSH1 0x20 DUP3 ADD SWAP1 POP DUP2 DUP2 SUB PUSH0 DUP4 ADD MSTORE PUSH2 0x2A4 DUP2 DUP5 PUSH2 0x254 JUMP JUMPDEST SWAP1 POP SWAP3 SWAP2 POP POP JUMP JUMPDEST PUSH0 DUP2 SWAP1 POP SWAP2 SWAP1 POP JUMP JUMPDEST PUSH2 0x2BE DUP2 PUSH2 0x2AC JUMP JUMPDEST DUP3 MSTORE POP POP JUMP JUMPDEST PUSH0 PUSH1 0x20 DUP3 ADD SWAP1 POP PUSH2 0x2D7 PUSH0 DUP4 ADD DUP5 PUSH2 0x2B5 JUMP JUMPDEST SWAP3 SWAP2 POP POP JUMP JUMPDEST PUSH0 PUSH1 0x60 DUP3 ADD SWAP1 POP PUSH2 0x2F0 PUSH0 DUP4 ADD DUP7 PUSH2 0x2B5 JUMP JUMPDEST DUP2 DUP2 SUB PUSH1 0x20 DUP4 ADD MSTORE PUSH2 0x302 DUP2 DUP6 PUSH2 0x254 JUMP JUMPDEST SWAP1 POP PUSH2 0x311 PUSH1 0x40 DUP4 ADD DUP5 PUSH2 0x2B5 JUMP JUMPDEST SWAP5 SWAP4 POP POP POP POP JUMP JUMPDEST PUSH32 0x4E487B7100000000000000000000000000000000000000000000000000000000 PUSH0 MSTORE PUSH1 0x22 PUSH1 0x4 MSTORE PUSH1 0x24 PUSH0 REVERT JUMPDEST PUSH0 PUSH1 0x2 DUP3 DIV SWAP1 POP PUSH1 0x1 DUP3 AND DUP1 PUSH2 0x35D JUMPI PUSH1 0x7F DUP3 AND SWAP2 POP JUMPDEST PUSH1 0x20 DUP3 LT DUP2 SUB PUSH2 0x370 JUMPI PUSH2 0x36F PUSH2 0x319 JUMP JUMPDEST JUMPDEST POP SWAP2 SWAP1 POP JUMP JUMPDEST PUSH32 0x4E487B7100000000000000000000000000000000000000000000000000000000 PUSH0 MSTORE PUSH1 0x41 PUSH1 0x4 MSTORE PUSH1 0x24 PUSH0 REVERT JUMPDEST PUSH0 DUP2 SWAP1 POP DUP2 PUSH0 MSTORE PUSH1 0x20 PUSH0 KECCAK256 SWAP1 POP SWAP2 SWAP1 POP JUMP JUMPDEST PUSH0 PUSH1 0x20 PUSH1 0x1F DUP4 ADD DIV SWAP1 POP SWAP2 SWAP1 POP JUMP JUMPDEST PUSH0 DUP3 DUP3 SHL SWAP1 POP SWAP3 SWAP2 POP POP JUMP JUMPDEST PUSH0 PUSH1 0x8 DUP4 MUL PUSH2 0x3FF PUSH32 0xFFFFFFFFFFFFFFFFFFFFFFFFFFFFFFFFFFFFFFFFFFFFFFFFFFFFFFFFFFFFFFFF DUP3 PUSH2 0x3C4 JUMP JUMPDEST PUSH2 0x409 DUP7 DUP4 PUSH2 0x3C4 JUMP JUMPDEST SWAP6 POP DUP1 NOT DUP5 AND SWAP4 POP DUP1 DUP7 AND DUP5 OR SWAP3 POP POP POP SWAP4 SWAP3 POP POP POP JUMP JUMPDEST PUSH0 DUP2 SWAP1 POP SWAP2 SWAP1 POP JUMP JUMPDEST PUSH0 PUSH2 0x444 PUSH2 0x43F PUSH2 0x43A DUP5 PUSH2 0x2AC JUMP JUMPDEST PUSH2 0x421 JUMP JUMPDEST PUSH2 0x2AC JUMP JUMPDEST SWAP1 POP SWAP2 SWAP1 POP JUMP JUMPDEST PUSH0 DUP2 SWAP1 POP SWAP2 SWAP1 POP JUMP JUMPDEST PUSH2 0x45D DUP4 PUSH2 0x42A JUMP JUMPDEST PUSH2 0x471 PUSH2 0x469 DUP3 PUSH2 0x44B JUMP JUMPDEST DUP5 DUP5 SLOAD PUSH2 0x3D0 JUMP JUMPDEST DUP3 SSTORE POP POP POP POP JUMP JUMPDEST PUSH0 SWAP1 JUMP JUMPDEST PUSH2 0x485 PUSH2 0x479 JUMP JUMPDEST PUSH2 0x490 DUP2 DUP5 DUP5 PUSH2 0x454 JUMP JUMPDEST POP POP POP JUMP JUMPDEST JUMPDEST DUP2 DUP2 LT ISZERO PUSH2 0x4B3 JUMPI PUSH2 0x4A8 PUSH0 DUP3 PUSH2 0x47D JUMP JUMPDEST PUSH1 0x1 DUP2 ADD SWAP1 POP PUSH2 0x496 JUMP JUMPDEST POP POP JUMP JUMPDEST PUSH1 0x1F DUP3 GT ISZERO PUSH2 0x4F8 JUMPI PUSH2 0x4C9 DUP2 PUSH2 0x3A3 JUMP JUMPDEST PUSH2 0x4D2 DUP5 PUSH2 0x3B5 JUMP JUMPDEST DUP2 ADD PUSH1 0x20 DUP6 LT ISZERO PUSH2 0x4E1 JUMPI DUP2 SWAP1 POP JUMPDEST PUSH2 0x4F5 PUSH2 0x4ED DUP6 PUSH2 0x3B5 JUMP JUMPDEST DUP4 ADD DUP3 PUSH2 0x495 JUMP JUMPDEST POP POP JUMPDEST POP POP POP JUMP JUMPDEST PUSH0 DUP3 DUP3 SHR SWAP1 POP SWAP3 SWAP2 POP POP JUMP JUMPDEST PUSH0 PUSH2 0x518 PUSH0 NOT DUP5 PUSH1 0x8 MUL PUSH2 0x4FD JUMP JUMPDEST NOT DUP1 DUP4 AND SWAP2 POP POP SWAP3 SWAP2 POP POP JUMP JUMPDEST PUSH0 PUSH2 0x530 DUP4 DUP4 PUSH2 0x509 JUMP JUMPDEST SWAP2 POP DUP3 PUSH1 0x2 MUL DUP3 OR SWAP1 POP SWAP3 SWAP2 POP POP JUMP JUMPDEST PUSH2 0x549 DUP3 PUSH2 0x21C JUMP JUMPDEST PUSH8 0xFFFFFFFFFFFFFFFF DUP2 GT ISZERO PUSH2 0x562 JUMPI PUSH2 0x561 PUSH2 0x376 JUMP JUMPDEST JUMPDEST PUSH2 0x56C DUP3 SLOAD PUSH2 0x346 JUMP JUMPDEST PUSH2 0x577 DUP3 DUP3 DUP6 PUSH2 0x4B7 JUMP JUMPDEST PUSH0 PUSH1 0x20 SWAP1 POP PUSH1 0x1F DUP4 GT PUSH1 0x1 DUP2 EQ PUSH2 0x5A8 JUMPI PUSH0 DUP5 ISZERO PUSH2 0x596 JUMPI DUP3 DUP8 ADD MLOAD SWAP1 POP JUMPDEST PUSH2 0x5A0 DUP6 DUP3 PUSH2 0x525 JUMP JUMPDEST DUP7 SSTORE POP PUSH2 0x607 JUMP JUMPDEST PUSH1 0x1F NOT DUP5 AND PUSH2 0x5B6 DUP7 PUSH2 0x3A3 JUMP JUMPDEST PUSH0 JUMPDEST DUP3 DUP2 LT ISZERO PUSH2 0x5DD JUMPI DUP5 DUP10 ADD MLOAD DUP3 SSTORE PUSH1 0x1 DUP3 ADD SWAP2 POP PUSH1 0x20 DUP6 ADD SWAP5 POP PUSH1 0x20 DUP2 ADD SWAP1 POP PUSH2 0x5B8 JUMP JUMPDEST DUP7 DUP4 LT ISZERO PUSH2 0x5FA JUMPI DUP5 DUP10 ADD MLOAD PUSH2 0x5F6 PUSH1 0x1F DUP10 AND DUP3 PUSH2 0x509 JUMP JUMPDEST DUP4 SSTORE POP JUMPDEST PUSH1 0x1 PUSH1 0x2 DUP9 MUL ADD DUP9 SSTORE POP POP POP JUMPDEST POP POP POP POP POP POP JUMP INVALID LOG2 PUSH5 0x6970667358 0x22 SLT KECCAK256 0xA5 0xB6 PUSH7 0xCA9A5487970832 0xBC PUSH28 0x3668C94A7C47D8A4D54155DA4AC3A9A74967EB7664736F6C63430008 BYTE STOP CALLER "
				},
				"gasEstimates": {
					"creation": {
						"codeDepositCost": "321000",
						"executionCost": "360",
						"totalCost": "321360"
					},
					"external": {
						"age()": "2425",
						"getSalary()": "infinite",
						"name()": "infinite"
					}
				},
				"methodIdentifiers": {
					"age()": "262a9dff",
					"getSalary()": "58b08d2e",
					"name()": "06fdde03"
				}
			},
			"storageLayout": {
				"storage": [
					{
						"astId": 3,
						"contract": "Abstract.sol:Child3",
						"label": "name",
						"offset": 0,
						"slot": "0",
						"type": "t_string_storage"
					},
					{
						"astId": 5,
						"contract": "Abstract.sol:Child3",
						"label": "age",
						"offset": 0,
						"slot": "1",
						"type": "t_uint256"
					}
				],
				"types": {
					"t_string_storage": {
						"encoding": "bytes",
						"label": "string",
						"numberOfBytes": "32"
					},
					"t_uint256": {
						"encoding": "inplace",
						"label": "uint256",
						"numberOfBytes": "32"
					}
				}
			},
			"userdoc": {
				"kind": "user",
				"methods": {},
				"version": 1
			}
		}
	}
}