{
	"MappingAcess.sol": {
		"MappingAccess": {
			"abi": [
				{
					"inputs": [],
					"stateMutability": "nonpayable",
					"type": "constructor"
				},
				{
					"inputs": [
						{
							"internalType": "address",
							"name": "_add",
							"type": "address"
						}
					],
					"name": "getHjxAccouts",
					"outputs": [
						{
							"internalType": "uint256",
							"name": "",
							"type": "uint256"
						}
					],
					"stateMutability": "nonpayable",
					"type": "function"
				}
			],
			"devdoc": {
				"kind": "dev",
				"methods": {},
				"version": 1
			},
			"evm": {
				"assembly": "    /* \"MappingAcess.sol\":54:416  contract MappingAccess{... */\n  mstore(0x40, 0x80)\n    /* \"MappingAcess.sol\":231:290  constructor(){... */\n  callvalue\n  dup1\n  iszero\n  tag_1\n  jumpi\n  revert(0x00, 0x00)\ntag_1:\n  pop\n    /* \"MappingAcess.sol\":279:282  100 */\n  0x64\n    /* \"MappingAcess.sol\":254:257  hjx */\n  0x01\n    /* \"MappingAcess.sol\":254:266  hjx.accounts */\n  dup1\n  add\n    /* \"MappingAcess.sol\":254:278  hjx.accounts[msg.sender] */\n  0x00\n    /* \"MappingAcess.sol\":267:277  msg.sender */\n  caller\n    /* \"MappingAcess.sol\":254:278  hjx.accounts[msg.sender] */\n  0xffffffffffffffffffffffffffffffffffffffff\n  and\n  0xffffffffffffffffffffffffffffffffffffffff\n  and\n  dup2\n  mstore\n  0x20\n  add\n  swap1\n  dup2\n  mstore\n  0x20\n  add\n  0x00\n  keccak256\n    /* \"MappingAcess.sol\":254:282  hjx.accounts[msg.sender]=100 */\n  dup2\n  swap1\n  sstore\n  pop\n    /* \"MappingAcess.sol\":54:416  contract MappingAccess{... */\n  dataSize(sub_0)\n  dup1\n  dataOffset(sub_0)\n  0x00\n  codecopy\n  0x00\n  return\nstop\n\nsub_0: assembly {\n        /* \"MappingAcess.sol\":54:416  contract MappingAccess{... */\n      mstore(0x40, 0x80)\n      callvalue\n      dup1\n      iszero\n      tag_1\n      jumpi\n      revert(0x00, 0x00)\n    tag_1:\n      pop\n      jumpi(tag_2, lt(calldatasize, 0x04))\n      shr(0xe0, calldataload(0x00))\n      dup1\n      0x19710ab5\n      eq\n      tag_3\n      jumpi\n    tag_2:\n      revert(0x00, 0x00)\n        /* \"MappingAcess.sol\":291:412  function getHjxAccouts(address _add)public  returns(uint){... */\n    tag_3:\n      tag_4\n      0x04\n      dup1\n      calldatasize\n      sub\n      dup2\n      add\n      swap1\n      tag_5\n      swap2\n      swap1\n      tag_6\n      jump\t// in\n    tag_5:\n      tag_7\n      jump\t// in\n    tag_4:\n      mload(0x40)\n      tag_8\n      swap2\n      swap1\n      tag_9\n      jump\t// in\n    tag_8:\n      mload(0x40)\n      dup1\n      swap2\n      sub\n      swap1\n      return\n    tag_7:\n        /* \"MappingAcess.sol\":343:347  uint */\n      0x00\n        /* \"MappingAcess.sol\":374:377  100 */\n      0x64\n        /* \"MappingAcess.sol\":354:357  hjx */\n      0x01\n        /* \"MappingAcess.sol\":354:366  hjx.accounts */\n      dup1\n      add\n        /* \"MappingAcess.sol\":354:372  hjx.accounts[_add] */\n      0x00\n        /* \"MappingAcess.sol\":367:371  _add */\n      dup5\n        /* \"MappingAcess.sol\":354:372  hjx.accounts[_add] */\n      0xffffffffffffffffffffffffffffffffffffffff\n      and\n      0xffffffffffffffffffffffffffffffffffffffff\n      and\n      dup2\n      mstore\n      0x20\n      add\n      swap1\n      dup2\n      mstore\n      0x20\n      add\n      0x00\n      keccak256\n      0x00\n        /* \"MappingAcess.sol\":354:377  hjx.accounts[_add]+=100 */\n      dup3\n      dup3\n      sload\n      tag_11\n      swap2\n      swap1\n      tag_12\n      jump\t// in\n    tag_11:\n      swap3\n      pop\n      pop\n      dup2\n      swap1\n      sstore\n      pop\n        /* \"MappingAcess.sol\":390:393  hjx */\n      0x01\n        /* \"MappingAcess.sol\":390:402  hjx.accounts */\n      dup1\n      add\n        /* \"MappingAcess.sol\":390:408  hjx.accounts[_add] */\n      0x00\n        /* \"MappingAcess.sol\":403:407  _add */\n      dup4\n        /* \"MappingAcess.sol\":390:408  hjx.accounts[_add] */\n      0xffffffffffffffffffffffffffffffffffffffff\n      and\n      0xffffffffffffffffffffffffffffffffffffffff\n      and\n      dup2\n      mstore\n      0x20\n      add\n      swap1\n      dup2\n      mstore\n      0x20\n      add\n      0x00\n      keccak256\n      sload\n        /* \"MappingAcess.sol\":383:408  return hjx.accounts[_add] */\n      swap1\n      pop\n        /* \"MappingAcess.sol\":291:412  function getHjxAccouts(address _add)public  returns(uint){... */\n      swap2\n      swap1\n      pop\n      jump\t// out\n        /* \"#utility.yul\":88:205   */\n    tag_14:\n        /* \"#utility.yul\":197:198   */\n      0x00\n        /* \"#utility.yul\":194:195   */\n      0x00\n        /* \"#utility.yul\":187:199   */\n      revert\n        /* \"#utility.yul\":334:460   */\n    tag_16:\n        /* \"#utility.yul\":371:378   */\n      0x00\n        /* \"#utility.yul\":411:453   */\n      0xffffffffffffffffffffffffffffffffffffffff\n        /* \"#utility.yul\":404:409   */\n      dup3\n        /* \"#utility.yul\":400:454   */\n      and\n        /* \"#utility.yul\":389:454   */\n      swap1\n      pop\n        /* \"#utility.yul\":334:460   */\n      swap2\n      swap1\n      pop\n      jump\t// out\n        /* \"#utility.yul\":466:562   */\n    tag_17:\n        /* \"#utility.yul\":503:510   */\n      0x00\n        /* \"#utility.yul\":532:556   */\n      tag_29\n        /* \"#utility.yul\":550:555   */\n      dup3\n        /* \"#utility.yul\":532:556   */\n      tag_16\n      jump\t// in\n    tag_29:\n        /* \"#utility.yul\":521:556   */\n      swap1\n      pop\n        /* \"#utility.yul\":466:562   */\n      swap2\n      swap1\n      pop\n      jump\t// out\n        /* \"#utility.yul\":568:690   */\n    tag_18:\n        /* \"#utility.yul\":641:665   */\n      tag_31\n        /* \"#utility.yul\":659:664   */\n      dup2\n        /* \"#utility.yul\":641:665   */\n      tag_17\n      jump\t// in\n    tag_31:\n        /* \"#utility.yul\":634:639   */\n      dup2\n        /* \"#utility.yul\":631:666   */\n      eq\n        /* \"#utility.yul\":621:684   */\n      tag_32\n      jumpi\n        /* \"#utility.yul\":680:681   */\n      0x00\n        /* \"#utility.yul\":677:678   */\n      0x00\n        /* \"#utility.yul\":670:682   */\n      revert\n        /* \"#utility.yul\":621:684   */\n    tag_32:\n        /* \"#utility.yul\":568:690   */\n      pop\n      jump\t// out\n        /* \"#utility.yul\":696:835   */\n    tag_19:\n        /* \"#utility.yul\":742:747   */\n      0x00\n        /* \"#utility.yul\":780:786   */\n      dup2\n        /* \"#utility.yul\":767:787   */\n      calldataload\n        /* \"#utility.yul\":758:787   */\n      swap1\n      pop\n        /* \"#utility.yul\":796:829   */\n      tag_34\n        /* \"#utility.yul\":823:828   */\n      dup2\n        /* \"#utility.yul\":796:829   */\n      tag_18\n      jump\t// in\n    tag_34:\n        /* \"#utility.yul\":696:835   */\n      swap3\n      swap2\n      pop\n      pop\n      jump\t// out\n        /* \"#utility.yul\":841:1170   */\n    tag_6:\n        /* \"#utility.yul\":900:906   */\n      0x00\n        /* \"#utility.yul\":949:951   */\n      0x20\n        /* \"#utility.yul\":937:946   */\n      dup3\n        /* \"#utility.yul\":928:935   */\n      dup5\n        /* \"#utility.yul\":924:947   */\n      sub\n        /* \"#utility.yul\":920:952   */\n      slt\n        /* \"#utility.yul\":917:1036   */\n      iszero\n      tag_36\n      jumpi\n        /* \"#utility.yul\":955:1034   */\n      tag_37\n      tag_14\n      jump\t// in\n    tag_37:\n        /* \"#utility.yul\":917:1036   */\n    tag_36:\n        /* \"#utility.yul\":1075:1076   */\n      0x00\n        /* \"#utility.yul\":1100:1153   */\n      tag_38\n        /* \"#utility.yul\":1145:1152   */\n      dup5\n        /* \"#utility.yul\":1136:1142   */\n      dup3\n        /* \"#utility.yul\":1125:1134   */\n      dup6\n        /* \"#utility.yul\":1121:1143   */\n      add\n        /* \"#utility.yul\":1100:1153   */\n      tag_19\n      jump\t// in\n    tag_38:\n        /* \"#utility.yul\":1090:1153   */\n      swap2\n      pop\n        /* \"#utility.yul\":1046:1163   */\n      pop\n        /* \"#utility.yul\":841:1170   */\n      swap3\n      swap2\n      pop\n      pop\n      jump\t// out\n        /* \"#utility.yul\":1176:1253   */\n    tag_20:\n        /* \"#utility.yul\":1213:1220   */\n      0x00\n        /* \"#utility.yul\":1242:1247   */\n      dup2\n        /* \"#utility.yul\":1231:1247   */\n      swap1\n      pop\n        /* \"#utility.yul\":1176:1253   */\n      swap2\n      swap1\n      pop\n      jump\t// out\n        /* \"#utility.yul\":1259:1377   */\n    tag_21:\n        /* \"#utility.yul\":1346:1370   */\n      tag_41\n        /* \"#utility.yul\":1364:1369   */\n      dup2\n        /* \"#utility.yul\":1346:1370   */\n      tag_20\n      jump\t// in\n    tag_41:\n        /* \"#utility.yul\":1341:1344   */\n      dup3\n        /* \"#utility.yul\":1334:1371   */\n      mstore\n        /* \"#utility.yul\":1259:1377   */\n      pop\n      pop\n      jump\t// out\n        /* \"#utility.yul\":1383:1605   */\n    tag_9:\n        /* \"#utility.yul\":1476:1480   */\n      0x00\n        /* \"#utility.yul\":1514:1516   */\n      0x20\n        /* \"#utility.yul\":1503:1512   */\n      dup3\n        /* \"#utility.yul\":1499:1517   */\n      add\n        /* \"#utility.yul\":1491:1517   */\n      swap1\n      pop\n        /* \"#utility.yul\":1527:1598   */\n      tag_43\n        /* \"#utility.yul\":1595:1596   */\n      0x00\n        /* \"#utility.yul\":1584:1593   */\n      dup4\n        /* \"#utility.yul\":1580:1597   */\n      add\n        /* \"#utility.yul\":1571:1577   */\n      dup5\n        /* \"#utility.yul\":1527:1598   */\n      tag_21\n      jump\t// in\n    tag_43:\n        /* \"#utility.yul\":1383:1605   */\n      swap3\n      swap2\n      pop\n      pop\n      jump\t// out\n        /* \"#utility.yul\":1611:1791   */\n    tag_22:\n        /* \"#utility.yul\":1659:1736   */\n      0x4e487b7100000000000000000000000000000000000000000000000000000000\n        /* \"#utility.yul\":1656:1657   */\n      0x00\n        /* \"#utility.yul\":1649:1737   */\n      mstore\n        /* \"#utility.yul\":1756:1760   */\n      0x11\n        /* \"#utility.yul\":1753:1754   */\n      0x04\n        /* \"#utility.yul\":1746:1761   */\n      mstore\n        /* \"#utility.yul\":1780:1784   */\n      0x24\n        /* \"#utility.yul\":1777:1778   */\n      0x00\n        /* \"#utility.yul\":1770:1785   */\n      revert\n        /* \"#utility.yul\":1797:1988   */\n    tag_12:\n        /* \"#utility.yul\":1837:1840   */\n      0x00\n        /* \"#utility.yul\":1856:1876   */\n      tag_46\n        /* \"#utility.yul\":1874:1875   */\n      dup3\n        /* \"#utility.yul\":1856:1876   */\n      tag_20\n      jump\t// in\n    tag_46:\n        /* \"#utility.yul\":1851:1876   */\n      swap2\n      pop\n        /* \"#utility.yul\":1890:1910   */\n      tag_47\n        /* \"#utility.yul\":1908:1909   */\n      dup4\n        /* \"#utility.yul\":1890:1910   */\n      tag_20\n      jump\t// in\n    tag_47:\n        /* \"#utility.yul\":1885:1910   */\n      swap3\n      pop\n        /* \"#utility.yul\":1933:1934   */\n      dup3\n        /* \"#utility.yul\":1930:1931   */\n      dup3\n        /* \"#utility.yul\":1926:1935   */\n      add\n        /* \"#utility.yul\":1919:1935   */\n      swap1\n      pop\n        /* \"#utility.yul\":1954:1957   */\n      dup1\n        /* \"#utility.yul\":1951:1952   */\n      dup3\n        /* \"#utility.yul\":1948:1958   */\n      gt\n        /* \"#utility.yul\":1945:1981   */\n      iszero\n      tag_48\n      jumpi\n        /* \"#utility.yul\":1961:1979   */\n      tag_49\n      tag_22\n      jump\t// in\n    tag_49:\n        /* \"#utility.yul\":1945:1981   */\n    tag_48:\n        /* \"#utility.yul\":1797:1988   */\n      swap3\n      swap2\n      pop\n      pop\n      jump\t// out\n\n    auxdata: 0xa26469706673582212201d95106da0653e3db992df603d6b8d88281409318ac154932466f606c9d705f664736f6c634300081c0033\n}\n",
				"bytecode": {
					"linkReferences": {},
					"object": "6080604052348015600e575f5ffd5b506064600180015f3373ffffffffffffffffffffffffffffffffffffffff1673ffffffffffffffffffffffffffffffffffffffff1681526020019081526020015f208190555061024b806100615f395ff3fe608060405234801561000f575f5ffd5b5060043610610029575f3560e01c806319710ab51461002d575b5f5ffd5b61004760048036038101906100429190610159565b61005d565b604051610054919061019c565b60405180910390f35b5f6064600180015f8473ffffffffffffffffffffffffffffffffffffffff1673ffffffffffffffffffffffffffffffffffffffff1681526020019081526020015f205f8282546100ad91906101e2565b92505081905550600180015f8373ffffffffffffffffffffffffffffffffffffffff1673ffffffffffffffffffffffffffffffffffffffff1681526020019081526020015f20549050919050565b5f5ffd5b5f73ffffffffffffffffffffffffffffffffffffffff82169050919050565b5f610128826100ff565b9050919050565b6101388161011e565b8114610142575f5ffd5b50565b5f813590506101538161012f565b92915050565b5f6020828403121561016e5761016d6100fb565b5b5f61017b84828501610145565b91505092915050565b5f819050919050565b61019681610184565b82525050565b5f6020820190506101af5f83018461018d565b92915050565b7f4e487b71000000000000000000000000000000000000000000000000000000005f52601160045260245ffd5b5f6101ec82610184565b91506101f783610184565b925082820190508082111561020f5761020e6101b5565b5b9291505056fea26469706673582212201d95106da0653e3db992df603d6b8d88281409318ac154932466f606c9d705f664736f6c634300081c0033",
					"opcodes": "PUSH1 0x80 PUSH1 0x40 MSTORE CALLVALUE DUP1 ISZERO PUSH1 0xE JUMPI PUSH0 PUSH0 REVERT JUMPDEST POP PUSH1 0x64 PUSH1 0x1 DUP1 ADD PUSH0 CALLER PUSH20 0xFFFFFFFFFFFFFFFFFFFFFFFFFFFFFFFFFFFFFFFF AND PUSH20 0xFFFFFFFFFFFFFFFFFFFFFFFFFFFFFFFFFFFFFFFF AND DUP2 MSTORE PUSH1 0x20 ADD SWAP1 DUP2 MSTORE PUSH1 0x20 ADD PUSH0 KECCAK256 DUP2 SWAP1 SSTORE POP PUSH2 0x24B DUP1 PUSH2 0x61 PUSH0 CODECOPY PUSH0 RETURN INVALID PUSH1 0x80 PUSH1 0x40 MSTORE CALLVALUE DUP1 ISZERO PUSH2 0xF JUMPI PUSH0 PUSH0 REVERT JUMPDEST POP PUSH1 0x4 CALLDATASIZE LT PUSH2 0x29 JUMPI PUSH0 CALLDATALOAD PUSH1 0xE0 SHR DUP1 PUSH4 0x19710AB5 EQ PUSH2 0x2D JUMPI JUMPDEST PUSH0 PUSH0 REVERT JUMPDEST PUSH2 0x47 PUSH1 0x4 DUP1 CALLDATASIZE SUB DUP2 ADD SWAP1 PUSH2 0x42 SWAP2 SWAP1 PUSH2 0x159 JUMP JUMPDEST PUSH2 0x5D JUMP JUMPDEST PUSH1 0x40 MLOAD PUSH2 0x54 SWAP2 SWAP1 PUSH2 0x19C JUMP JUMPDEST PUSH1 0x40 MLOAD DUP1 SWAP2 SUB SWAP1 RETURN JUMPDEST PUSH0 PUSH1 0x64 PUSH1 0x1 DUP1 ADD PUSH0 DUP5 PUSH20 0xFFFFFFFFFFFFFFFFFFFFFFFFFFFFFFFFFFFFFFFF AND PUSH20 0xFFFFFFFFFFFFFFFFFFFFFFFFFFFFFFFFFFFFFFFF AND DUP2 MSTORE PUSH1 0x20 ADD SWAP1 DUP2 MSTORE PUSH1 0x20 ADD PUSH0 KECCAK256 PUSH0 DUP3 DUP3 SLOAD PUSH2 0xAD SWAP2 SWAP1 PUSH2 0x1E2 JUMP JUMPDEST SWAP3 POP POP DUP2 SWAP1 SSTORE POP PUSH1 0x1 DUP1 ADD PUSH0 DUP4 PUSH20 0xFFFFFFFFFFFFFFFFFFFFFFFFFFFFFFFFFFFFFFFF AND PUSH20 0xFFFFFFFFFFFFFFFFFFFFFFFFFFFFFFFFFFFFFFFF AND DUP2 MSTORE PUSH1 0x20 ADD SWAP1 DUP2 MSTORE PUSH1 0x20 ADD PUSH0 KECCAK256 SLOAD SWAP1 POP SWAP2 SWAP1 POP JUMP JUMPDEST PUSH0 PUSH0 REVERT JUMPDEST PUSH0 PUSH20 0xFFFFFFFFFFFFFFFFFFFFFFFFFFFFFFFFFFFFFFFF DUP3 AND SWAP1 POP SWAP2 SWAP1 POP JUMP JUMPDEST PUSH0 PUSH2 0x128 DUP3 PUSH2 0xFF JUMP JUMPDEST SWAP1 POP SWAP2 SWAP1 POP JUMP JUMPDEST PUSH2 0x138 DUP2 PUSH2 0x11E JUMP JUMPDEST DUP2 EQ PUSH2 0x142 JUMPI PUSH0 PUSH0 REVERT JUMPDEST POP JUMP JUMPDEST PUSH0 DUP2 CALLDATALOAD SWAP1 POP PUSH2 0x153 DUP2 PUSH2 0x12F JUMP JUMPDEST SWAP3 SWAP2 POP POP JUMP JUMPDEST PUSH0 PUSH1 0x20 DUP3 DUP5 SUB SLT ISZERO PUSH2 0x16E JUMPI PUSH2 0x16D PUSH2 0xFB JUMP JUMPDEST JUMPDEST PUSH0 PUSH2 0x17B DUP5 DUP3 DUP6 ADD PUSH2 0x145 JUMP JUMPDEST SWAP2 POP POP SWAP3 SWAP2 POP POP JUMP JUMPDEST PUSH0 DUP2 SWAP1 POP SWAP2 SWAP1 POP JUMP JUMPDEST PUSH2 0x196 DUP2 PUSH2 0x184 JUMP JUMPDEST DUP3 MSTORE POP POP JUMP JUMPDEST PUSH0 PUSH1 0x20 DUP3 ADD SWAP1 POP PUSH2 0x1AF PUSH0 DUP4 ADD DUP5 PUSH2 0x18D JUMP JUMPDEST SWAP3 SWAP2 POP POP JUMP JUMPDEST PUSH32 0x4E487B7100000000000000000000000000000000000000000000000000000000 PUSH0 MSTORE PUSH1 0x11 PUSH1 0x4 MSTORE PUSH1 0x24 PUSH0 REVERT JUMPDEST PUSH0 PUSH2 0x1EC DUP3 PUSH2 0x184 JUMP JUMPDEST SWAP2 POP PUSH2 0x1F7 DUP4 PUSH2 0x184 JUMP JUMPDEST SWAP3 POP DUP3 DUP3 ADD SWAP1 POP DUP1 DUP3 GT ISZERO PUSH2 0x20F JUMPI PUSH2 0x20E PUSH2 0x1B5 JUMP JUMPDEST JUMPDEST SWAP3 SWAP2 POP POP JUMP INVALID LOG2 PUSH5 0x6970667358 0x22 SLT KECCAK256 SAR SWAP6 LT PUSH14 0xA0653E3DB992DF603D6B8D882814 MULMOD BALANCE DUP11 0xC1 SLOAD SWAP4 0x24 PUSH7 0xF606C9D705F664 PUSH20 0x6F6C634300081C00330000000000000000000000 "
				},
				"gasEstimates": {
					"creation": {
						"codeDepositCost": "117400",
						"executionCost": "22370",
						"totalCost": "139770"
					},
					"external": {
						"getHjxAccouts(address)": "infinite"
					}
				},
				"methodIdentifiers": {
					"getHjxAccouts(address)": "19710ab5"
				}
			},
			"storageLayout": {
				"storage": [
					{
						"astId": 15,
						"contract": "MappingAcess.sol:MappingAccess",
						"label": "b",
						"offset": 0,
						"slot": "0",
						"type": "t_mapping(t_uint256,t_struct(Struct1)10_storage)"
					},
					{
						"astId": 18,
						"contract": "MappingAcess.sol:MappingAccess",
						"label": "hjx",
						"offset": 0,
						"slot": "1",
						"type": "t_struct(Struct1)10_storage"
					}
				],
				"types": {
					"t_address": {
						"encoding": "inplace",
						"label": "address",
						"numberOfBytes": "20"
					},
					"t_bool": {
						"encoding": "inplace",
						"label": "bool",
						"numberOfBytes": "1"
					},
					"t_mapping(t_address,t_bool)": {
						"encoding": "mapping",
						"key": "t_address",
						"label": "mapping(address => bool)",
						"numberOfBytes": "32",
						"value": "t_bool"
					},
					"t_mapping(t_address,t_uint256)": {
						"encoding": "mapping",
						"key": "t_address",
						"label": "mapping(address => uint256)",
						"numberOfBytes": "32",
						"value": "t_uint256"
					},
					"t_mapping(t_uint256,t_struct(Struct1)10_storage)": {
						"encoding": "mapping",
						"key": "t_uint256",
						"label": "mapping(uint256 => struct MappingAccess.Struct1)",
						"numberOfBytes": "32",
						"value": "t_struct(Struct1)10_storage"
					},
					"t_struct(Struct1)10_storage": {
						"encoding": "inplace",
						"label": "struct MappingAccess.Struct1",
						"members": [
							{
								"astId": 5,
								"contract": "MappingAcess.sol:MappingAccess",
								"label": "a",
								"offset": 0,
								"slot": "0",
								"type": "t_mapping(t_address,t_bool)"
							},
							{
								"astId": 9,
								"contract": "MappingAcess.sol:MappingAccess",
								"label": "accounts",
								"offset": 0,
								"slot": "1",
								"type": "t_mapping(t_address,t_uint256)"
							}
						],
						"numberOfBytes": "64"
					},
					"t_uint256": {
						"encoding": "inplace",
						"label": "uint256",
						"numberOfBytes": "32"
					}
				}
			},
			"userdoc": {
				"kind": "user",
				"methods": {},
				"version": 1
			}
		}
	}
}