{
	"Enum2.sol": {
		"Enum2": {
			"abi": [
				{
					"anonymous": false,
					"inputs": [
						{
							"indexed": false,
							"internalType": "enum Enum2.Status",
							"name": "prev",
							"type": "uint8"
						},
						{
							"indexed": false,
							"internalType": "enum Enum2.Status",
							"name": "updated",
							"type": "uint8"
						}
					],
					"name": "StatusChanged",
					"type": "event"
				},
				{
					"inputs": [],
					"name": "cancel",
					"outputs": [],
					"stateMutability": "nonpayable",
					"type": "function"
				},
				{
					"inputs": [],
					"name": "get",
					"outputs": [
						{
							"internalType": "enum Enum2.Status",
							"name": "",
							"type": "uint8"
						}
					],
					"stateMutability": "view",
					"type": "function"
				},
				{
					"inputs": [],
					"name": "isCancel",
					"outputs": [
						{
							"internalType": "bool",
							"name": "",
							"type": "bool"
						}
					],
					"stateMutability": "view",
					"type": "function"
				},
				{
					"inputs": [],
					"name": "reset",
					"outputs": [],
					"stateMutability": "nonpayable",
					"type": "function"
				},
				{
					"inputs": [
						{
							"internalType": "enum Enum2.Status",
							"name": "_status",
							"type": "uint8"
						}
					],
					"name": "set",
					"outputs": [],
					"stateMutability": "nonpayable",
					"type": "function"
				},
				{
					"inputs": [],
					"name": "status",
					"outputs": [
						{
							"internalType": "enum Enum2.Status",
							"name": "",
							"type": "uint8"
						}
					],
					"stateMutability": "view",
					"type": "function"
				}
			],
			"devdoc": {
				"kind": "dev",
				"methods": {},
				"version": 1
			},
			"evm": {
				"assembly": "    /* \"Enum2.sol\":57:1096  contract Enum2{... */\n  mstore(0x40, 0x80)\n  callvalue\n  dup1\n  iszero\n  tag_1\n  jumpi\n  0x00\n  dup1\n  revert\ntag_1:\n  pop\n  dataSize(sub_0)\n  dup1\n  dataOffset(sub_0)\n  0x00\n  codecopy\n  0x00\n  return\nstop\n\nsub_0: assembly {\n        /* \"Enum2.sol\":57:1096  contract Enum2{... */\n      mstore(0x40, 0x80)\n      callvalue\n      dup1\n      iszero\n      tag_1\n      jumpi\n      0x00\n      dup1\n      revert\n    tag_1:\n      pop\n      jumpi(tag_2, lt(calldatasize, 0x04))\n      shr(0xe0, calldataload(0x00))\n      dup1\n      0x1cb36442\n      eq\n      tag_3\n      jumpi\n      dup1\n      0x200d2ed2\n      eq\n      tag_4\n      jumpi\n      dup1\n      0x24b8ba5f\n      eq\n      tag_5\n      jumpi\n      dup1\n      0x6d4ce63c\n      eq\n      tag_6\n      jumpi\n      dup1\n      0xd826f88f\n      eq\n      tag_7\n      jumpi\n      dup1\n      0xea8a1af0\n      eq\n      tag_8\n      jumpi\n    tag_2:\n      0x00\n      dup1\n      revert\n        /* \"Enum2.sol\":960:1089  function isCancel()public view returns(bool){... */\n    tag_3:\n      tag_9\n      tag_10\n      jump\t// in\n    tag_9:\n      mload(0x40)\n      tag_11\n      swap2\n      swap1\n      tag_12\n      jump\t// in\n    tag_11:\n      mload(0x40)\n      dup1\n      swap2\n      sub\n      swap1\n      return\n        /* \"Enum2.sol\":296:316  Status public status */\n    tag_4:\n      tag_13\n      tag_14\n      jump\t// in\n    tag_13:\n      mload(0x40)\n      tag_15\n      swap2\n      swap1\n      tag_16\n      jump\t// in\n    tag_15:\n      mload(0x40)\n      dup1\n      swap2\n      sub\n      swap1\n      return\n        /* \"Enum2.sol\":473:671  function set(Status _status)public{... */\n    tag_5:\n      tag_17\n      0x04\n      dup1\n      calldatasize\n      sub\n      dup2\n      add\n      swap1\n      tag_18\n      swap2\n      swap1\n      tag_19\n      jump\t// in\n    tag_18:\n      tag_20\n      jump\t// in\n    tag_17:\n      stop\n        /* \"Enum2.sol\":391:463  function get()public view returns(Status){... */\n    tag_6:\n      tag_21\n      tag_22\n      jump\t// in\n    tag_21:\n      mload(0x40)\n      tag_23\n      swap2\n      swap1\n      tag_16\n      jump\t// in\n    tag_23:\n      mload(0x40)\n      dup1\n      swap2\n      sub\n      swap1\n      return\n        /* \"Enum2.sol\":824:955  function reset()public{... */\n    tag_7:\n      tag_24\n      tag_25\n      jump\t// in\n    tag_24:\n      stop\n        /* \"Enum2.sol\":676:818  function cancel() public{... */\n    tag_8:\n      tag_26\n      tag_27\n      jump\t// in\n    tag_26:\n      stop\n        /* \"Enum2.sol\":960:1089  function isCancel()public view returns(bool){... */\n    tag_10:\n        /* \"Enum2.sol\":999:1003  bool */\n      0x00\n        /* \"Enum2.sol\":1038:1039  4 */\n      0x04\n        /* \"Enum2.sol\":1028:1034  status */\n      0x00\n      dup1\n      sload\n      swap1\n      0x0100\n      exp\n      swap1\n      div\n      0xff\n      and\n        /* \"Enum2.sol\":1022:1035  uint8(status) */\n      0x04\n      dup2\n      gt\n      iszero\n      tag_29\n      jumpi\n      tag_30\n      tag_31\n      jump\t// in\n    tag_30:\n    tag_29:\n        /* \"Enum2.sol\":1022:1039  uint8(status)== 4 */\n      0xff\n      and\n      eq\n        /* \"Enum2.sol\":1014:1040  return (uint8(status)== 4) */\n      swap1\n      pop\n        /* \"Enum2.sol\":960:1089  function isCancel()public view returns(bool){... */\n      swap1\n      jump\t// out\n        /* \"Enum2.sol\":296:316  Status public status */\n    tag_14:\n      0x00\n      dup1\n      sload\n      swap1\n      0x0100\n      exp\n      swap1\n      div\n      0xff\n      and\n      dup2\n      jump\t// out\n        /* \"Enum2.sol\":473:671  function set(Status _status)public{... */\n    tag_20:\n        /* \"Enum2.sol\":534:549  Status.Canceled */\n      0x04\n        /* \"Enum2.sol\":525:549  _status<=Status.Canceled */\n      dup1\n      dup2\n      gt\n      iszero\n      tag_33\n      jumpi\n      tag_34\n      tag_31\n      jump\t// in\n    tag_34:\n    tag_33:\n        /* \"Enum2.sol\":525:532  _status */\n      dup2\n        /* \"Enum2.sol\":525:549  _status<=Status.Canceled */\n      0x04\n      dup2\n      gt\n      iszero\n      tag_35\n      jumpi\n      tag_36\n      tag_31\n      jump\t// in\n    tag_36:\n    tag_35:\n      gt\n      iszero\n        /* \"Enum2.sol\":517:567  require(_status<=Status.Canceled,\"invalid status\") */\n      tag_37\n      jumpi\n      mload(0x40)\n      0x08c379a000000000000000000000000000000000000000000000000000000000\n      dup2\n      mstore\n      0x04\n      add\n      tag_38\n      swap1\n      tag_39\n      jump\t// in\n    tag_38:\n      mload(0x40)\n      dup1\n      swap2\n      sub\n      swap1\n      revert\n    tag_37:\n        /* \"Enum2.sol\":577:589  Status _prev */\n      0x00\n        /* \"Enum2.sol\":591:597  status */\n      dup1\n      0x00\n      swap1\n      sload\n      swap1\n      0x0100\n      exp\n      swap1\n      div\n      0xff\n      and\n        /* \"Enum2.sol\":577:597  Status _prev =status */\n      swap1\n      pop\n        /* \"Enum2.sol\":614:621  _status */\n      dup2\n        /* \"Enum2.sol\":607:613  status */\n      0x00\n      dup1\n        /* \"Enum2.sol\":607:621  status=_status */\n      0x0100\n      exp\n      dup2\n      sload\n      dup2\n      0xff\n      mul\n      not\n      and\n      swap1\n      dup4\n      0x04\n      dup2\n      gt\n      iszero\n      tag_40\n      jumpi\n      tag_41\n      tag_31\n      jump\t// in\n    tag_41:\n    tag_40:\n      mul\n      or\n      swap1\n      sstore\n      pop\n        /* \"Enum2.sol\":636:664  StatusChanged(_prev,_status) */\n      0xe1377aa21d49fa10bb9ece6a0cd4f75597a90a80c3750f7f7674967f49ab9a62\n        /* \"Enum2.sol\":650:655  _prev */\n      dup2\n        /* \"Enum2.sol\":656:663  _status */\n      dup4\n        /* \"Enum2.sol\":636:664  StatusChanged(_prev,_status) */\n      mload(0x40)\n      tag_42\n      swap3\n      swap2\n      swap1\n      tag_43\n      jump\t// in\n    tag_42:\n      mload(0x40)\n      dup1\n      swap2\n      sub\n      swap1\n      log1\n        /* \"Enum2.sol\":507:671  {... */\n      pop\n        /* \"Enum2.sol\":473:671  function set(Status _status)public{... */\n      pop\n      jump\t// out\n        /* \"Enum2.sol\":391:463  function get()public view returns(Status){... */\n    tag_22:\n        /* \"Enum2.sol\":425:431  Status */\n      0x00\n        /* \"Enum2.sol\":450:456  status */\n      dup1\n      0x00\n      swap1\n      sload\n      swap1\n      0x0100\n      exp\n      swap1\n      div\n      0xff\n      and\n        /* \"Enum2.sol\":443:456  return status */\n      swap1\n      pop\n        /* \"Enum2.sol\":391:463  function get()public view returns(Status){... */\n      swap1\n      jump\t// out\n        /* \"Enum2.sol\":824:955  function reset()public{... */\n    tag_25:\n        /* \"Enum2.sol\":856:868  Status _prev */\n      0x00\n        /* \"Enum2.sol\":869:875  status */\n      dup1\n      0x00\n      swap1\n      sload\n      swap1\n      0x0100\n      exp\n      swap1\n      div\n      0xff\n      and\n        /* \"Enum2.sol\":856:875  Status _prev=status */\n      swap1\n      pop\n        /* \"Enum2.sol\":892:898  status */\n      0x00\n      dup1\n        /* \"Enum2.sol\":885:898  delete status */\n      0x0100\n      exp\n      dup2\n      sload\n      swap1\n      0xff\n      mul\n      not\n      and\n      swap1\n      sstore\n        /* \"Enum2.sol\":913:948  StatusChanged(_prev,Status.Pending) */\n      0xe1377aa21d49fa10bb9ece6a0cd4f75597a90a80c3750f7f7674967f49ab9a62\n        /* \"Enum2.sol\":927:932  _prev */\n      dup2\n        /* \"Enum2.sol\":933:947  Status.Pending */\n      0x00\n        /* \"Enum2.sol\":913:948  StatusChanged(_prev,Status.Pending) */\n      mload(0x40)\n      tag_46\n      swap3\n      swap2\n      swap1\n      tag_43\n      jump\t// in\n    tag_46:\n      mload(0x40)\n      dup1\n      swap2\n      sub\n      swap1\n      log1\n        /* \"Enum2.sol\":846:955  {... */\n      pop\n        /* \"Enum2.sol\":824:955  function reset()public{... */\n      jump\t// out\n        /* \"Enum2.sol\":676:818  function cancel() public{... */\n    tag_27:\n        /* \"Enum2.sol\":710:722  Status _prev */\n      0x00\n        /* \"Enum2.sol\":723:729  status */\n      dup1\n      0x00\n      swap1\n      sload\n      swap1\n      0x0100\n      exp\n      swap1\n      div\n      0xff\n      and\n        /* \"Enum2.sol\":710:729  Status _prev=status */\n      swap1\n      pop\n        /* \"Enum2.sol\":739:759  set(Status.Canceled) */\n      tag_48\n        /* \"Enum2.sol\":743:758  Status.Canceled */\n      0x04\n        /* \"Enum2.sol\":739:742  set */\n      tag_20\n        /* \"Enum2.sol\":739:759  set(Status.Canceled) */\n      jump\t// in\n    tag_48:\n        /* \"Enum2.sol\":774:810  StatusChanged(_prev,Status.Canceled) */\n      0xe1377aa21d49fa10bb9ece6a0cd4f75597a90a80c3750f7f7674967f49ab9a62\n        /* \"Enum2.sol\":788:793  _prev */\n      dup2\n        /* \"Enum2.sol\":794:809  Status.Canceled */\n      0x04\n        /* \"Enum2.sol\":774:810  StatusChanged(_prev,Status.Canceled) */\n      mload(0x40)\n      tag_49\n      swap3\n      swap2\n      swap1\n      tag_43\n      jump\t// in\n    tag_49:\n      mload(0x40)\n      dup1\n      swap2\n      sub\n      swap1\n      log1\n        /* \"Enum2.sol\":700:818  {... */\n      pop\n        /* \"Enum2.sol\":676:818  function cancel() public{... */\n      jump\t// out\n        /* \"#utility.yul\":7:97   */\n    tag_50:\n        /* \"#utility.yul\":41:48   */\n      0x00\n        /* \"#utility.yul\":84:89   */\n      dup2\n        /* \"#utility.yul\":77:90   */\n      iszero\n        /* \"#utility.yul\":70:91   */\n      iszero\n        /* \"#utility.yul\":59:91   */\n      swap1\n      pop\n        /* \"#utility.yul\":7:97   */\n      swap2\n      swap1\n      pop\n      jump\t// out\n        /* \"#utility.yul\":103:212   */\n    tag_51:\n        /* \"#utility.yul\":184:205   */\n      tag_67\n        /* \"#utility.yul\":199:204   */\n      dup2\n        /* \"#utility.yul\":184:205   */\n      tag_50\n      jump\t// in\n    tag_67:\n        /* \"#utility.yul\":179:182   */\n      dup3\n        /* \"#utility.yul\":172:206   */\n      mstore\n        /* \"#utility.yul\":103:212   */\n      pop\n      pop\n      jump\t// out\n        /* \"#utility.yul\":218:428   */\n    tag_12:\n        /* \"#utility.yul\":305:309   */\n      0x00\n        /* \"#utility.yul\":343:345   */\n      0x20\n        /* \"#utility.yul\":332:341   */\n      dup3\n        /* \"#utility.yul\":328:346   */\n      add\n        /* \"#utility.yul\":320:346   */\n      swap1\n      pop\n        /* \"#utility.yul\":356:421   */\n      tag_69\n        /* \"#utility.yul\":418:419   */\n      0x00\n        /* \"#utility.yul\":407:416   */\n      dup4\n        /* \"#utility.yul\":403:420   */\n      add\n        /* \"#utility.yul\":394:400   */\n      dup5\n        /* \"#utility.yul\":356:421   */\n      tag_51\n      jump\t// in\n    tag_69:\n        /* \"#utility.yul\":218:428   */\n      swap3\n      swap2\n      pop\n      pop\n      jump\t// out\n        /* \"#utility.yul\":434:614   */\n    tag_31:\n        /* \"#utility.yul\":482:559   */\n      0x4e487b7100000000000000000000000000000000000000000000000000000000\n        /* \"#utility.yul\":479:480   */\n      0x00\n        /* \"#utility.yul\":472:560   */\n      mstore\n        /* \"#utility.yul\":579:583   */\n      0x21\n        /* \"#utility.yul\":576:577   */\n      0x04\n        /* \"#utility.yul\":569:584   */\n      mstore\n        /* \"#utility.yul\":603:607   */\n      0x24\n        /* \"#utility.yul\":600:601   */\n      0x00\n        /* \"#utility.yul\":593:608   */\n      revert\n        /* \"#utility.yul\":620:734   */\n    tag_52:\n        /* \"#utility.yul\":702:703   */\n      0x05\n        /* \"#utility.yul\":695:700   */\n      dup2\n        /* \"#utility.yul\":692:704   */\n      lt\n        /* \"#utility.yul\":682:728   */\n      tag_72\n      jumpi\n        /* \"#utility.yul\":708:726   */\n      tag_73\n      tag_31\n      jump\t// in\n    tag_73:\n        /* \"#utility.yul\":682:728   */\n    tag_72:\n        /* \"#utility.yul\":620:734   */\n      pop\n      jump\t// out\n        /* \"#utility.yul\":740:869   */\n    tag_53:\n        /* \"#utility.yul\":786:793   */\n      0x00\n        /* \"#utility.yul\":815:820   */\n      dup2\n        /* \"#utility.yul\":804:820   */\n      swap1\n      pop\n        /* \"#utility.yul\":821:863   */\n      tag_75\n        /* \"#utility.yul\":857:862   */\n      dup3\n        /* \"#utility.yul\":821:863   */\n      tag_52\n      jump\t// in\n    tag_75:\n        /* \"#utility.yul\":740:869   */\n      swap2\n      swap1\n      pop\n      jump\t// out\n        /* \"#utility.yul\":875:1004   */\n    tag_54:\n        /* \"#utility.yul\":932:941   */\n      0x00\n        /* \"#utility.yul\":965:998   */\n      tag_77\n        /* \"#utility.yul\":992:997   */\n      dup3\n        /* \"#utility.yul\":965:998   */\n      tag_53\n      jump\t// in\n    tag_77:\n        /* \"#utility.yul\":952:998   */\n      swap1\n      pop\n        /* \"#utility.yul\":875:1004   */\n      swap2\n      swap1\n      pop\n      jump\t// out\n        /* \"#utility.yul\":1010:1155   */\n    tag_55:\n        /* \"#utility.yul\":1104:1148   */\n      tag_79\n        /* \"#utility.yul\":1142:1147   */\n      dup2\n        /* \"#utility.yul\":1104:1148   */\n      tag_54\n      jump\t// in\n    tag_79:\n        /* \"#utility.yul\":1099:1102   */\n      dup3\n        /* \"#utility.yul\":1092:1149   */\n      mstore\n        /* \"#utility.yul\":1010:1155   */\n      pop\n      pop\n      jump\t// out\n        /* \"#utility.yul\":1161:1397   */\n    tag_16:\n        /* \"#utility.yul\":1261:1265   */\n      0x00\n        /* \"#utility.yul\":1299:1301   */\n      0x20\n        /* \"#utility.yul\":1288:1297   */\n      dup3\n        /* \"#utility.yul\":1284:1302   */\n      add\n        /* \"#utility.yul\":1276:1302   */\n      swap1\n      pop\n        /* \"#utility.yul\":1312:1390   */\n      tag_81\n        /* \"#utility.yul\":1387:1388   */\n      0x00\n        /* \"#utility.yul\":1376:1385   */\n      dup4\n        /* \"#utility.yul\":1372:1389   */\n      add\n        /* \"#utility.yul\":1363:1369   */\n      dup5\n        /* \"#utility.yul\":1312:1390   */\n      tag_55\n      jump\t// in\n    tag_81:\n        /* \"#utility.yul\":1161:1397   */\n      swap3\n      swap2\n      pop\n      pop\n      jump\t// out\n        /* \"#utility.yul\":1484:1601   */\n    tag_57:\n        /* \"#utility.yul\":1593:1594   */\n      0x00\n        /* \"#utility.yul\":1590:1591   */\n      dup1\n        /* \"#utility.yul\":1583:1595   */\n      revert\n        /* \"#utility.yul\":1730:1838   */\n    tag_59:\n        /* \"#utility.yul\":1812:1813   */\n      0x05\n        /* \"#utility.yul\":1805:1810   */\n      dup2\n        /* \"#utility.yul\":1802:1814   */\n      lt\n        /* \"#utility.yul\":1792:1832   */\n      tag_86\n      jumpi\n        /* \"#utility.yul\":1828:1829   */\n      0x00\n        /* \"#utility.yul\":1825:1826   */\n      dup1\n        /* \"#utility.yul\":1818:1830   */\n      revert\n        /* \"#utility.yul\":1792:1832   */\n    tag_86:\n        /* \"#utility.yul\":1730:1838   */\n      pop\n      jump\t// out\n        /* \"#utility.yul\":1844:2001   */\n    tag_60:\n        /* \"#utility.yul\":1899:1904   */\n      0x00\n        /* \"#utility.yul\":1937:1943   */\n      dup2\n        /* \"#utility.yul\":1924:1944   */\n      calldataload\n        /* \"#utility.yul\":1915:1944   */\n      swap1\n      pop\n        /* \"#utility.yul\":1953:1995   */\n      tag_88\n        /* \"#utility.yul\":1989:1994   */\n      dup2\n        /* \"#utility.yul\":1953:1995   */\n      tag_59\n      jump\t// in\n    tag_88:\n        /* \"#utility.yul\":1844:2001   */\n      swap3\n      swap2\n      pop\n      pop\n      jump\t// out\n        /* \"#utility.yul\":2007:2354   */\n    tag_19:\n        /* \"#utility.yul\":2075:2081   */\n      0x00\n        /* \"#utility.yul\":2124:2126   */\n      0x20\n        /* \"#utility.yul\":2112:2121   */\n      dup3\n        /* \"#utility.yul\":2103:2110   */\n      dup5\n        /* \"#utility.yul\":2099:2122   */\n      sub\n        /* \"#utility.yul\":2095:2127   */\n      slt\n        /* \"#utility.yul\":2092:2211   */\n      iszero\n      tag_90\n      jumpi\n        /* \"#utility.yul\":2130:2209   */\n      tag_91\n      tag_57\n      jump\t// in\n    tag_91:\n        /* \"#utility.yul\":2092:2211   */\n    tag_90:\n        /* \"#utility.yul\":2250:2251   */\n      0x00\n        /* \"#utility.yul\":2275:2337   */\n      tag_92\n        /* \"#utility.yul\":2329:2336   */\n      dup5\n        /* \"#utility.yul\":2320:2326   */\n      dup3\n        /* \"#utility.yul\":2309:2318   */\n      dup6\n        /* \"#utility.yul\":2305:2327   */\n      add\n        /* \"#utility.yul\":2275:2337   */\n      tag_60\n      jump\t// in\n    tag_92:\n        /* \"#utility.yul\":2265:2337   */\n      swap2\n      pop\n        /* \"#utility.yul\":2221:2347   */\n      pop\n        /* \"#utility.yul\":2007:2354   */\n      swap3\n      swap2\n      pop\n      pop\n      jump\t// out\n        /* \"#utility.yul\":2360:2529   */\n    tag_61:\n        /* \"#utility.yul\":2444:2455   */\n      0x00\n        /* \"#utility.yul\":2478:2484   */\n      dup3\n        /* \"#utility.yul\":2473:2476   */\n      dup3\n        /* \"#utility.yul\":2466:2485   */\n      mstore\n        /* \"#utility.yul\":2518:2522   */\n      0x20\n        /* \"#utility.yul\":2513:2516   */\n      dup3\n        /* \"#utility.yul\":2509:2523   */\n      add\n        /* \"#utility.yul\":2494:2523   */\n      swap1\n      pop\n        /* \"#utility.yul\":2360:2529   */\n      swap3\n      swap2\n      pop\n      pop\n      jump\t// out\n        /* \"#utility.yul\":2535:2699   */\n    tag_62:\n        /* \"#utility.yul\":2675:2691   */\n      0x696e76616c696420737461747573000000000000000000000000000000000000\n        /* \"#utility.yul\":2671:2672   */\n      0x00\n        /* \"#utility.yul\":2663:2669   */\n      dup3\n        /* \"#utility.yul\":2659:2673   */\n      add\n        /* \"#utility.yul\":2652:2692   */\n      mstore\n        /* \"#utility.yul\":2535:2699   */\n      pop\n      jump\t// out\n        /* \"#utility.yul\":2705:3071   */\n    tag_63:\n        /* \"#utility.yul\":2847:2850   */\n      0x00\n        /* \"#utility.yul\":2868:2935   */\n      tag_96\n        /* \"#utility.yul\":2932:2934   */\n      0x0e\n        /* \"#utility.yul\":2927:2930   */\n      dup4\n        /* \"#utility.yul\":2868:2935   */\n      tag_61\n      jump\t// in\n    tag_96:\n        /* \"#utility.yul\":2861:2935   */\n      swap2\n      pop\n        /* \"#utility.yul\":2944:3037   */\n      tag_97\n        /* \"#utility.yul\":3033:3036   */\n      dup3\n        /* \"#utility.yul\":2944:3037   */\n      tag_62\n      jump\t// in\n    tag_97:\n        /* \"#utility.yul\":3062:3064   */\n      0x20\n        /* \"#utility.yul\":3057:3060   */\n      dup3\n        /* \"#utility.yul\":3053:3065   */\n      add\n        /* \"#utility.yul\":3046:3065   */\n      swap1\n      pop\n        /* \"#utility.yul\":2705:3071   */\n      swap2\n      swap1\n      pop\n      jump\t// out\n        /* \"#utility.yul\":3077:3496   */\n    tag_39:\n        /* \"#utility.yul\":3243:3247   */\n      0x00\n        /* \"#utility.yul\":3281:3283   */\n      0x20\n        /* \"#utility.yul\":3270:3279   */\n      dup3\n        /* \"#utility.yul\":3266:3284   */\n      add\n        /* \"#utility.yul\":3258:3284   */\n      swap1\n      pop\n        /* \"#utility.yul\":3330:3339   */\n      dup2\n        /* \"#utility.yul\":3324:3328   */\n      dup2\n        /* \"#utility.yul\":3320:3340   */\n      sub\n        /* \"#utility.yul\":3316:3317   */\n      0x00\n        /* \"#utility.yul\":3305:3314   */\n      dup4\n        /* \"#utility.yul\":3301:3318   */\n      add\n        /* \"#utility.yul\":3294:3341   */\n      mstore\n        /* \"#utility.yul\":3358:3489   */\n      tag_99\n        /* \"#utility.yul\":3484:3488   */\n      dup2\n        /* \"#utility.yul\":3358:3489   */\n      tag_63\n      jump\t// in\n    tag_99:\n        /* \"#utility.yul\":3350:3489   */\n      swap1\n      pop\n        /* \"#utility.yul\":3077:3496   */\n      swap2\n      swap1\n      pop\n      jump\t// out\n        /* \"#utility.yul\":3502:3862   */\n    tag_43:\n        /* \"#utility.yul\":3637:3641   */\n      0x00\n        /* \"#utility.yul\":3675:3677   */\n      0x40\n        /* \"#utility.yul\":3664:3673   */\n      dup3\n        /* \"#utility.yul\":3660:3678   */\n      add\n        /* \"#utility.yul\":3652:3678   */\n      swap1\n      pop\n        /* \"#utility.yul\":3688:3766   */\n      tag_101\n        /* \"#utility.yul\":3763:3764   */\n      0x00\n        /* \"#utility.yul\":3752:3761   */\n      dup4\n        /* \"#utility.yul\":3748:3765   */\n      add\n        /* \"#utility.yul\":3739:3745   */\n      dup6\n        /* \"#utility.yul\":3688:3766   */\n      tag_55\n      jump\t// in\n    tag_101:\n        /* \"#utility.yul\":3776:3855   */\n      tag_102\n        /* \"#utility.yul\":3851:3853   */\n      0x20\n        /* \"#utility.yul\":3840:3849   */\n      dup4\n        /* \"#utility.yul\":3836:3854   */\n      add\n        /* \"#utility.yul\":3827:3833   */\n      dup5\n        /* \"#utility.yul\":3776:3855   */\n      tag_55\n      jump\t// in\n    tag_102:\n        /* \"#utility.yul\":3502:3862   */\n      swap4\n      swap3\n      pop\n      pop\n      pop\n      jump\t// out\n\n    auxdata: 0xa26469706673582212207925044b90b83e98d1ec643b1374ec6de1287d7e0008d6e757383cd42279f19164736f6c634300081a0033\n}\n",
				"bytecode": {
					"linkReferences": {},
					"object": "6080604052348015600e575f80fd5b506104b58061001c5f395ff3fe608060405234801561000f575f80fd5b5060043610610060575f3560e01c80631cb3644214610064578063200d2ed21461008257806324b8ba5f146100a05780636d4ce63c146100bc578063d826f88f146100da578063ea8a1af0146100e4575b5f80fd5b61006c6100ee565b60405161007991906102e9565b60405180910390f35b61008a610119565b6040516100979190610375565b60405180910390f35b6100ba60048036038101906100b591906103b5565b610129565b005b6100c4610206565b6040516100d19190610375565b60405180910390f35b6100e261021a565b005b6100ec610277565b005b5f60045f8054906101000a900460ff1660048111156101105761010f610302565b5b60ff1614905090565b5f8054906101000a900460ff1681565b60048081111561013c5761013b610302565b5b81600481111561014f5761014e610302565b5b1115610190576040517f08c379a00000000000000000000000000000000000000000000000000000000081526004016101879061043a565b60405180910390fd5b5f805f9054906101000a900460ff169050815f806101000a81548160ff021916908360048111156101c4576101c3610302565b5b02179055507fe1377aa21d49fa10bb9ece6a0cd4f75597a90a80c3750f7f7674967f49ab9a6281836040516101fa929190610458565b60405180910390a15050565b5f805f9054906101000a900460ff16905090565b5f805f9054906101000a900460ff1690505f806101000a81549060ff02191690557fe1377aa21d49fa10bb9ece6a0cd4f75597a90a80c3750f7f7674967f49ab9a62815f60405161026c929190610458565b60405180910390a150565b5f805f9054906101000a900460ff1690506102926004610129565b7fe1377aa21d49fa10bb9ece6a0cd4f75597a90a80c3750f7f7674967f49ab9a628160046040516102c4929190610458565b60405180910390a150565b5f8115159050919050565b6102e3816102cf565b82525050565b5f6020820190506102fc5f8301846102da565b92915050565b7f4e487b71000000000000000000000000000000000000000000000000000000005f52602160045260245ffd5b600581106103405761033f610302565b5b50565b5f8190506103508261032f565b919050565b5f61035f82610343565b9050919050565b61036f81610355565b82525050565b5f6020820190506103885f830184610366565b92915050565b5f80fd5b6005811061039e575f80fd5b50565b5f813590506103af81610392565b92915050565b5f602082840312156103ca576103c961038e565b5b5f6103d7848285016103a1565b91505092915050565b5f82825260208201905092915050565b7f696e76616c6964207374617475730000000000000000000000000000000000005f82015250565b5f610424600e836103e0565b915061042f826103f0565b602082019050919050565b5f6020820190508181035f83015261045181610418565b9050919050565b5f60408201905061046b5f830185610366565b6104786020830184610366565b939250505056fea26469706673582212207925044b90b83e98d1ec643b1374ec6de1287d7e0008d6e757383cd42279f19164736f6c634300081a0033",
					"opcodes": "PUSH1 0x80 PUSH1 0x40 MSTORE CALLVALUE DUP1 ISZERO PUSH1 0xE JUMPI PUSH0 DUP1 REVERT JUMPDEST POP PUSH2 0x4B5 DUP1 PUSH2 0x1C PUSH0 CODECOPY PUSH0 RETURN INVALID PUSH1 0x80 PUSH1 0x40 MSTORE CALLVALUE DUP1 ISZERO PUSH2 0xF JUMPI PUSH0 DUP1 REVERT JUMPDEST POP PUSH1 0x4 CALLDATASIZE LT PUSH2 0x60 JUMPI PUSH0 CALLDATALOAD PUSH1 0xE0 SHR DUP1 PUSH4 0x1CB36442 EQ PUSH2 0x64 JUMPI DUP1 PUSH4 0x200D2ED2 EQ PUSH2 0x82 JUMPI DUP1 PUSH4 0x24B8BA5F EQ PUSH2 0xA0 JUMPI DUP1 PUSH4 0x6D4CE63C EQ PUSH2 0xBC JUMPI DUP1 PUSH4 0xD826F88F EQ PUSH2 0xDA JUMPI DUP1 PUSH4 0xEA8A1AF0 EQ PUSH2 0xE4 JUMPI JUMPDEST PUSH0 DUP1 REVERT JUMPDEST PUSH2 0x6C PUSH2 0xEE JUMP JUMPDEST PUSH1 0x40 MLOAD PUSH2 0x79 SWAP2 SWAP1 PUSH2 0x2E9 JUMP JUMPDEST PUSH1 0x40 MLOAD DUP1 SWAP2 SUB SWAP1 RETURN JUMPDEST PUSH2 0x8A PUSH2 0x119 JUMP JUMPDEST PUSH1 0x40 MLOAD PUSH2 0x97 SWAP2 SWAP1 PUSH2 0x375 JUMP JUMPDEST PUSH1 0x40 MLOAD DUP1 SWAP2 SUB SWAP1 RETURN JUMPDEST PUSH2 0xBA PUSH1 0x4 DUP1 CALLDATASIZE SUB DUP2 ADD SWAP1 PUSH2 0xB5 SWAP2 SWAP1 PUSH2 0x3B5 JUMP JUMPDEST PUSH2 0x129 JUMP JUMPDEST STOP JUMPDEST PUSH2 0xC4 PUSH2 0x206 JUMP JUMPDEST PUSH1 0x40 MLOAD PUSH2 0xD1 SWAP2 SWAP1 PUSH2 0x375 JUMP JUMPDEST PUSH1 0x40 MLOAD DUP1 SWAP2 SUB SWAP1 RETURN JUMPDEST PUSH2 0xE2 PUSH2 0x21A JUMP JUMPDEST STOP JUMPDEST PUSH2 0xEC PUSH2 0x277 JUMP JUMPDEST STOP JUMPDEST PUSH0 PUSH1 0x4 PUSH0 DUP1 SLOAD SWAP1 PUSH2 0x100 EXP SWAP1 DIV PUSH1 0xFF AND PUSH1 0x4 DUP2 GT ISZERO PUSH2 0x110 JUMPI PUSH2 0x10F PUSH2 0x302 JUMP JUMPDEST JUMPDEST PUSH1 0xFF AND EQ SWAP1 POP SWAP1 JUMP JUMPDEST PUSH0 DUP1 SLOAD SWAP1 PUSH2 0x100 EXP SWAP1 DIV PUSH1 0xFF AND DUP2 JUMP JUMPDEST PUSH1 0x4 DUP1 DUP2 GT ISZERO PUSH2 0x13C JUMPI PUSH2 0x13B PUSH2 0x302 JUMP JUMPDEST JUMPDEST DUP2 PUSH1 0x4 DUP2 GT ISZERO PUSH2 0x14F JUMPI PUSH2 0x14E PUSH2 0x302 JUMP JUMPDEST JUMPDEST GT ISZERO PUSH2 0x190 JUMPI PUSH1 0x40 MLOAD PUSH32 0x8C379A000000000000000000000000000000000000000000000000000000000 DUP2 MSTORE PUSH1 0x4 ADD PUSH2 0x187 SWAP1 PUSH2 0x43A JUMP JUMPDEST PUSH1 0x40 MLOAD DUP1 SWAP2 SUB SWAP1 REVERT JUMPDEST PUSH0 DUP1 PUSH0 SWAP1 SLOAD SWAP1 PUSH2 0x100 EXP SWAP1 DIV PUSH1 0xFF AND SWAP1 POP DUP2 PUSH0 DUP1 PUSH2 0x100 EXP DUP2 SLOAD DUP2 PUSH1 0xFF MUL NOT AND SWAP1 DUP4 PUSH1 0x4 DUP2 GT ISZERO PUSH2 0x1C4 JUMPI PUSH2 0x1C3 PUSH2 0x302 JUMP JUMPDEST JUMPDEST MUL OR SWAP1 SSTORE POP PUSH32 0xE1377AA21D49FA10BB9ECE6A0CD4F75597A90A80C3750F7F7674967F49AB9A62 DUP2 DUP4 PUSH1 0x40 MLOAD PUSH2 0x1FA SWAP3 SWAP2 SWAP1 PUSH2 0x458 JUMP JUMPDEST PUSH1 0x40 MLOAD DUP1 SWAP2 SUB SWAP1 LOG1 POP POP JUMP JUMPDEST PUSH0 DUP1 PUSH0 SWAP1 SLOAD SWAP1 PUSH2 0x100 EXP SWAP1 DIV PUSH1 0xFF AND SWAP1 POP SWAP1 JUMP JUMPDEST PUSH0 DUP1 PUSH0 SWAP1 SLOAD SWAP1 PUSH2 0x100 EXP SWAP1 DIV PUSH1 0xFF AND SWAP1 POP PUSH0 DUP1 PUSH2 0x100 EXP DUP2 SLOAD SWAP1 PUSH1 0xFF MUL NOT AND SWAP1 SSTORE PUSH32 0xE1377AA21D49FA10BB9ECE6A0CD4F75597A90A80C3750F7F7674967F49AB9A62 DUP2 PUSH0 PUSH1 0x40 MLOAD PUSH2 0x26C SWAP3 SWAP2 SWAP1 PUSH2 0x458 JUMP JUMPDEST PUSH1 0x40 MLOAD DUP1 SWAP2 SUB SWAP1 LOG1 POP JUMP JUMPDEST PUSH0 DUP1 PUSH0 SWAP1 SLOAD SWAP1 PUSH2 0x100 EXP SWAP1 DIV PUSH1 0xFF AND SWAP1 POP PUSH2 0x292 PUSH1 0x4 PUSH2 0x129 JUMP JUMPDEST PUSH32 0xE1377AA21D49FA10BB9ECE6A0CD4F75597A90A80C3750F7F7674967F49AB9A62 DUP2 PUSH1 0x4 PUSH1 0x40 MLOAD PUSH2 0x2C4 SWAP3 SWAP2 SWAP1 PUSH2 0x458 JUMP JUMPDEST PUSH1 0x40 MLOAD DUP1 SWAP2 SUB SWAP1 LOG1 POP JUMP JUMPDEST PUSH0 DUP2 ISZERO ISZERO SWAP1 POP SWAP2 SWAP1 POP JUMP JUMPDEST PUSH2 0x2E3 DUP2 PUSH2 0x2CF JUMP JUMPDEST DUP3 MSTORE POP POP JUMP JUMPDEST PUSH0 PUSH1 0x20 DUP3 ADD SWAP1 POP PUSH2 0x2FC PUSH0 DUP4 ADD DUP5 PUSH2 0x2DA JUMP JUMPDEST SWAP3 SWAP2 POP POP JUMP JUMPDEST PUSH32 0x4E487B7100000000000000000000000000000000000000000000000000000000 PUSH0 MSTORE PUSH1 0x21 PUSH1 0x4 MSTORE PUSH1 0x24 PUSH0 REVERT JUMPDEST PUSH1 0x5 DUP2 LT PUSH2 0x340 JUMPI PUSH2 0x33F PUSH2 0x302 JUMP JUMPDEST JUMPDEST POP JUMP JUMPDEST PUSH0 DUP2 SWAP1 POP PUSH2 0x350 DUP3 PUSH2 0x32F JUMP JUMPDEST SWAP2 SWAP1 POP JUMP JUMPDEST PUSH0 PUSH2 0x35F DUP3 PUSH2 0x343 JUMP JUMPDEST SWAP1 POP SWAP2 SWAP1 POP JUMP JUMPDEST PUSH2 0x36F DUP2 PUSH2 0x355 JUMP JUMPDEST DUP3 MSTORE POP POP JUMP JUMPDEST PUSH0 PUSH1 0x20 DUP3 ADD SWAP1 POP PUSH2 0x388 PUSH0 DUP4 ADD DUP5 PUSH2 0x366 JUMP JUMPDEST SWAP3 SWAP2 POP POP JUMP JUMPDEST PUSH0 DUP1 REVERT JUMPDEST PUSH1 0x5 DUP2 LT PUSH2 0x39E JUMPI PUSH0 DUP1 REVERT JUMPDEST POP JUMP JUMPDEST PUSH0 DUP2 CALLDATALOAD SWAP1 POP PUSH2 0x3AF DUP2 PUSH2 0x392 JUMP JUMPDEST SWAP3 SWAP2 POP POP JUMP JUMPDEST PUSH0 PUSH1 0x20 DUP3 DUP5 SUB SLT ISZERO PUSH2 0x3CA JUMPI PUSH2 0x3C9 PUSH2 0x38E JUMP JUMPDEST JUMPDEST PUSH0 PUSH2 0x3D7 DUP5 DUP3 DUP6 ADD PUSH2 0x3A1 JUMP JUMPDEST SWAP2 POP POP SWAP3 SWAP2 POP POP JUMP JUMPDEST PUSH0 DUP3 DUP3 MSTORE PUSH1 0x20 DUP3 ADD SWAP1 POP SWAP3 SWAP2 POP POP JUMP JUMPDEST PUSH32 0x696E76616C696420737461747573000000000000000000000000000000000000 PUSH0 DUP3 ADD MSTORE POP JUMP JUMPDEST PUSH0 PUSH2 0x424 PUSH1 0xE DUP4 PUSH2 0x3E0 JUMP JUMPDEST SWAP2 POP PUSH2 0x42F DUP3 PUSH2 0x3F0 JUMP JUMPDEST PUSH1 0x20 DUP3 ADD SWAP1 POP SWAP2 SWAP1 POP JUMP JUMPDEST PUSH0 PUSH1 0x20 DUP3 ADD SWAP1 POP DUP2 DUP2 SUB PUSH0 DUP4 ADD MSTORE PUSH2 0x451 DUP2 PUSH2 0x418 JUMP JUMPDEST SWAP1 POP SWAP2 SWAP1 POP JUMP JUMPDEST PUSH0 PUSH1 0x40 DUP3 ADD SWAP1 POP PUSH2 0x46B PUSH0 DUP4 ADD DUP6 PUSH2 0x366 JUMP JUMPDEST PUSH2 0x478 PUSH1 0x20 DUP4 ADD DUP5 PUSH2 0x366 JUMP JUMPDEST SWAP4 SWAP3 POP POP POP JUMP INVALID LOG2 PUSH5 0x6970667358 0x22 SLT KECCAK256 PUSH26 0x25044B90B83E98D1EC643B1374EC6DE1287D7E0008D6E757383C 0xD4 0x22 PUSH26 0xF19164736F6C634300081A003300000000000000000000000000 "
				},
				"gasEstimates": {
					"creation": {
						"codeDepositCost": "241000",
						"executionCost": "279",
						"totalCost": "241279"
					},
					"external": {
						"cancel()": "infinite",
						"get()": "2605",
						"isCancel()": "2486",
						"reset()": "infinite",
						"set(uint8)": "infinite",
						"status()": "2551"
					}
				},
				"methodIdentifiers": {
					"cancel()": "ea8a1af0",
					"get()": "6d4ce63c",
					"isCancel()": "1cb36442",
					"reset()": "d826f88f",
					"set(uint8)": "24b8ba5f",
					"status()": "200d2ed2"
				}
			},
			"storageLayout": {
				"storage": [
					{
						"astId": 18,
						"contract": "Enum2.sol:Enum2",
						"label": "status",
						"offset": 0,
						"slot": "0",
						"type": "t_enum(Status)15"
					}
				],
				"types": {
					"t_enum(Status)15": {
						"encoding": "inplace",
						"label": "enum Enum2.Status",
						"numberOfBytes": "1"
					}
				}
			},
			"userdoc": {
				"kind": "user",
				"methods": {},
				"version": 1
			}
		}
	}
}