{
	"DelegateCall.sol": {
		"Caller_by_call": {
			"abi": [
				{
					"inputs": [
						{
							"internalType": "address",
							"name": "addr",
							"type": "address"
						}
					],
					"name": "callByAddr",
					"outputs": [
						{
							"internalType": "bool",
							"name": "",
							"type": "bool"
						},
						{
							"internalType": "bytes",
							"name": "",
							"type": "bytes"
						},
						{
							"internalType": "address",
							"name": "",
							"type": "address"
						}
					],
					"stateMutability": "nonpayable",
					"type": "function"
				},
				{
					"inputs": [],
					"name": "count",
					"outputs": [
						{
							"internalType": "uint256",
							"name": "",
							"type": "uint256"
						}
					],
					"stateMutability": "view",
					"type": "function"
				}
			],
			"devdoc": {
				"kind": "dev",
				"methods": {},
				"version": 1
			},
			"evm": {
				"assembly": "    /* \"DelegateCall.sol\":208:886  contract Caller_by_call{... */\n  mstore(0x40, 0x80)\n    /* \"DelegateCall.sol\":261:263  20 */\n  0x14\n    /* \"DelegateCall.sol\":243:263  uint public count=20 */\n  0x00\n  sstore\n    /* \"DelegateCall.sol\":208:886  contract Caller_by_call{... */\n  callvalue\n  dup1\n  iszero\n  tag_1\n  jumpi\n  0x00\n  dup1\n  revert\ntag_1:\n  pop\n  dataSize(sub_0)\n  dup1\n  dataOffset(sub_0)\n  0x00\n  codecopy\n  0x00\n  return\nstop\n\nsub_0: assembly {\n        /* \"DelegateCall.sol\":208:886  contract Caller_by_call{... */\n      mstore(0x40, 0x80)\n      callvalue\n      dup1\n      iszero\n      tag_1\n      jumpi\n      0x00\n      dup1\n      revert\n    tag_1:\n      pop\n      jumpi(tag_2, lt(calldatasize, 0x04))\n      shr(0xe0, calldataload(0x00))\n      dup1\n      0x06661abd\n      eq\n      tag_3\n      jumpi\n      dup1\n      0xe9e1c157\n      eq\n      tag_4\n      jumpi\n    tag_2:\n      0x00\n      dup1\n      revert\n        /* \"DelegateCall.sol\":243:263  uint public count=20 */\n    tag_3:\n      tag_5\n      tag_6\n      jump\t// in\n    tag_5:\n      mload(0x40)\n      tag_7\n      swap2\n      swap1\n      tag_8\n      jump\t// in\n    tag_7:\n      mload(0x40)\n      dup1\n      swap2\n      sub\n      swap1\n      return\n        /* \"DelegateCall.sol\":269:884  function callByAddr(address addr)public returns(bool,bytes memory,address){... */\n    tag_4:\n      tag_9\n      0x04\n      dup1\n      calldatasize\n      sub\n      dup2\n      add\n      swap1\n      tag_10\n      swap2\n      swap1\n      tag_11\n      jump\t// in\n    tag_10:\n      tag_12\n      jump\t// in\n    tag_9:\n      mload(0x40)\n      tag_13\n      swap4\n      swap3\n      swap2\n      swap1\n      tag_14\n      jump\t// in\n    tag_13:\n      mload(0x40)\n      dup1\n      swap2\n      sub\n      swap1\n      return\n        /* \"DelegateCall.sol\":243:263  uint public count=20 */\n    tag_6:\n      sload(0x00)\n      dup2\n      jump\t// out\n        /* \"DelegateCall.sol\":269:884  function callByAddr(address addr)public returns(bool,bytes memory,address){... */\n    tag_12:\n        /* \"DelegateCall.sol\":317:321  bool */\n      0x00\n        /* \"DelegateCall.sol\":322:334  bytes memory */\n      0x60\n        /* \"DelegateCall.sol\":335:342  address */\n      0x00\n        /* \"DelegateCall.sol\":353:368  bytes4 methodID */\n      dup1\n        /* \"DelegateCall.sol\":386:407  bytes(\"inc(uint256)\") */\n      mload(0x40)\n      dup1\n      0x40\n      add\n      0x40\n      mstore\n      dup1\n      0x0c\n      dup2\n      mstore\n      0x20\n      add\n      0x696e632875696e74323536290000000000000000000000000000000000000000\n      dup2\n      mstore\n      pop\n        /* \"DelegateCall.sol\":376:408  keccak256(bytes(\"inc(uint256)\")) */\n      dup1\n      mload\n      swap1\n      0x20\n      add\n      keccak256\n        /* \"DelegateCall.sol\":353:409  bytes4 methodID=bytes4(keccak256(bytes(\"inc(uint256)\"))) */\n      swap1\n      pop\n        /* \"DelegateCall.sol\":475:492  bytes memory data */\n      0x00\n        /* \"DelegateCall.sol\":533:534  8 */\n      0x08\n        /* \"DelegateCall.sol\":493:535  abi.encodeWithSignature(\"inc(uint256)\", 8) */\n      add(0x24, mload(0x40))\n      tag_16\n      swap2\n      swap1\n      tag_17\n      jump\t// in\n    tag_16:\n      mload(0x40)\n      0x20\n      dup2\n      dup4\n      sub\n      sub\n      dup2\n      mstore\n      swap1\n      0x40\n      mstore\n      and(not(0xffffffffffffffffffffffffffffffffffffffffffffffffffffffff), 0x812600df00000000000000000000000000000000000000000000000000000000)\n      0x20\n      dup3\n      add\n      dup1\n      mload\n      0xffffffffffffffffffffffffffffffffffffffffffffffffffffffff\n      dup4\n      dup2\n      dup4\n      and\n      or\n      dup4\n      mstore\n      pop\n      pop\n      pop\n      pop\n        /* \"DelegateCall.sol\":475:535  bytes memory data=abi.encodeWithSignature(\"inc(uint256)\", 8) */\n      swap1\n      pop\n        /* \"DelegateCall.sol\":573:581  methodID */\n      dup2\n        /* \"DelegateCall.sol\":583:585  10 */\n      0x0a\n        /* \"DelegateCall.sol\":550:586  abi.encodeWithSelector(methodID, 10) */\n      add(0x24, mload(0x40))\n      tag_18\n      swap2\n      swap1\n      tag_19\n      jump\t// in\n    tag_18:\n      mload(0x40)\n      0x20\n      dup2\n      dup4\n      sub\n      sub\n      dup2\n      mstore\n      swap1\n      0x40\n      mstore\n      swap1\n      not(0xffffffffffffffffffffffffffffffffffffffffffffffffffffffff)\n      and\n      0x20\n      dup3\n      add\n      dup1\n      mload\n      0xffffffffffffffffffffffffffffffffffffffffffffffffffffffff\n      dup4\n      dup2\n      dup4\n      and\n      or\n      dup4\n      mstore\n      pop\n      pop\n      pop\n      pop\n        /* \"DelegateCall.sol\":545:586  data=abi.encodeWithSelector(methodID, 10) */\n      swap1\n      pop\n        /* \"DelegateCall.sol\":597:609  bool _status */\n      0x00\n        /* \"DelegateCall.sol\":610:628  bytes memory _data */\n      dup1\n        /* \"DelegateCall.sol\":638:642  addr */\n      dup8\n        /* \"DelegateCall.sol\":630:656  address(addr).delegatecall */\n      0xffffffffffffffffffffffffffffffffffffffff\n      and\n        /* \"DelegateCall.sol\":657:661  data */\n      dup4\n        /* \"DelegateCall.sol\":630:662  address(addr).delegatecall(data) */\n      mload(0x40)\n      tag_20\n      swap2\n      swap1\n      tag_21\n      jump\t// in\n    tag_20:\n      0x00\n      mload(0x40)\n      dup1\n      dup4\n      sub\n      dup2\n      dup6\n      gas\n      delegatecall\n      swap2\n      pop\n      pop\n      returndatasize\n      dup1\n      0x00\n      dup2\n      eq\n      tag_24\n      jumpi\n      mload(0x40)\n      swap2\n      pop\n      and(add(returndatasize, 0x3f), not(0x1f))\n      dup3\n      add\n      0x40\n      mstore\n      returndatasize\n      dup3\n      mstore\n      returndatasize\n      0x00\n      0x20\n      dup5\n      add\n      returndatacopy\n      jump(tag_23)\n    tag_24:\n      0x60\n      swap2\n      pop\n    tag_23:\n      pop\n        /* \"DelegateCall.sol\":596:662  (bool _status,bytes memory _data)=address(addr).delegatecall(data) */\n      swap2\n      pop\n      swap2\n      pop\n        /* \"DelegateCall.sol\":739:746  _status */\n      dup2\n        /* \"DelegateCall.sol\":747:752  _data */\n      dup2\n        /* \"DelegateCall.sol\":753:763  msg.sender */\n      caller\n        /* \"DelegateCall.sol\":731:764  return (_status,_data,msg.sender) */\n      swap7\n      pop\n      swap7\n      pop\n      swap7\n      pop\n      pop\n      pop\n      pop\n      pop\n        /* \"DelegateCall.sol\":269:884  function callByAddr(address addr)public returns(bool,bytes memory,address){... */\n      swap2\n      swap4\n      swap1\n      swap3\n      pop\n      jump\t// out\n        /* \"#utility.yul\":7:84   */\n    tag_25:\n        /* \"#utility.yul\":44:51   */\n      0x00\n        /* \"#utility.yul\":73:78   */\n      dup2\n        /* \"#utility.yul\":62:78   */\n      swap1\n      pop\n        /* \"#utility.yul\":7:84   */\n      swap2\n      swap1\n      pop\n      jump\t// out\n        /* \"#utility.yul\":90:208   */\n    tag_26:\n        /* \"#utility.yul\":177:201   */\n      tag_55\n        /* \"#utility.yul\":195:200   */\n      dup2\n        /* \"#utility.yul\":177:201   */\n      tag_25\n      jump\t// in\n    tag_55:\n        /* \"#utility.yul\":172:175   */\n      dup3\n        /* \"#utility.yul\":165:202   */\n      mstore\n        /* \"#utility.yul\":90:208   */\n      pop\n      pop\n      jump\t// out\n        /* \"#utility.yul\":214:436   */\n    tag_8:\n        /* \"#utility.yul\":307:311   */\n      0x00\n        /* \"#utility.yul\":345:347   */\n      0x20\n        /* \"#utility.yul\":334:343   */\n      dup3\n        /* \"#utility.yul\":330:348   */\n      add\n        /* \"#utility.yul\":322:348   */\n      swap1\n      pop\n        /* \"#utility.yul\":358:429   */\n      tag_57\n        /* \"#utility.yul\":426:427   */\n      0x00\n        /* \"#utility.yul\":415:424   */\n      dup4\n        /* \"#utility.yul\":411:428   */\n      add\n        /* \"#utility.yul\":402:408   */\n      dup5\n        /* \"#utility.yul\":358:429   */\n      tag_26\n      jump\t// in\n    tag_57:\n        /* \"#utility.yul\":214:436   */\n      swap3\n      swap2\n      pop\n      pop\n      jump\t// out\n        /* \"#utility.yul\":523:640   */\n    tag_28:\n        /* \"#utility.yul\":632:633   */\n      0x00\n        /* \"#utility.yul\":629:630   */\n      dup1\n        /* \"#utility.yul\":622:634   */\n      revert\n        /* \"#utility.yul\":769:895   */\n    tag_30:\n        /* \"#utility.yul\":806:813   */\n      0x00\n        /* \"#utility.yul\":846:888   */\n      0xffffffffffffffffffffffffffffffffffffffff\n        /* \"#utility.yul\":839:844   */\n      dup3\n        /* \"#utility.yul\":835:889   */\n      and\n        /* \"#utility.yul\":824:889   */\n      swap1\n      pop\n        /* \"#utility.yul\":769:895   */\n      swap2\n      swap1\n      pop\n      jump\t// out\n        /* \"#utility.yul\":901:997   */\n    tag_31:\n        /* \"#utility.yul\":938:945   */\n      0x00\n        /* \"#utility.yul\":967:991   */\n      tag_63\n        /* \"#utility.yul\":985:990   */\n      dup3\n        /* \"#utility.yul\":967:991   */\n      tag_30\n      jump\t// in\n    tag_63:\n        /* \"#utility.yul\":956:991   */\n      swap1\n      pop\n        /* \"#utility.yul\":901:997   */\n      swap2\n      swap1\n      pop\n      jump\t// out\n        /* \"#utility.yul\":1003:1125   */\n    tag_32:\n        /* \"#utility.yul\":1076:1100   */\n      tag_65\n        /* \"#utility.yul\":1094:1099   */\n      dup2\n        /* \"#utility.yul\":1076:1100   */\n      tag_31\n      jump\t// in\n    tag_65:\n        /* \"#utility.yul\":1069:1074   */\n      dup2\n        /* \"#utility.yul\":1066:1101   */\n      eq\n        /* \"#utility.yul\":1056:1119   */\n      tag_66\n      jumpi\n        /* \"#utility.yul\":1115:1116   */\n      0x00\n        /* \"#utility.yul\":1112:1113   */\n      dup1\n        /* \"#utility.yul\":1105:1117   */\n      revert\n        /* \"#utility.yul\":1056:1119   */\n    tag_66:\n        /* \"#utility.yul\":1003:1125   */\n      pop\n      jump\t// out\n        /* \"#utility.yul\":1131:1270   */\n    tag_33:\n        /* \"#utility.yul\":1177:1182   */\n      0x00\n        /* \"#utility.yul\":1215:1221   */\n      dup2\n        /* \"#utility.yul\":1202:1222   */\n      calldataload\n        /* \"#utility.yul\":1193:1222   */\n      swap1\n      pop\n        /* \"#utility.yul\":1231:1264   */\n      tag_68\n        /* \"#utility.yul\":1258:1263   */\n      dup2\n        /* \"#utility.yul\":1231:1264   */\n      tag_32\n      jump\t// in\n    tag_68:\n        /* \"#utility.yul\":1131:1270   */\n      swap3\n      swap2\n      pop\n      pop\n      jump\t// out\n        /* \"#utility.yul\":1276:1605   */\n    tag_11:\n        /* \"#utility.yul\":1335:1341   */\n      0x00\n        /* \"#utility.yul\":1384:1386   */\n      0x20\n        /* \"#utility.yul\":1372:1381   */\n      dup3\n        /* \"#utility.yul\":1363:1370   */\n      dup5\n        /* \"#utility.yul\":1359:1382   */\n      sub\n        /* \"#utility.yul\":1355:1387   */\n      slt\n        /* \"#utility.yul\":1352:1471   */\n      iszero\n      tag_70\n      jumpi\n        /* \"#utility.yul\":1390:1469   */\n      tag_71\n      tag_28\n      jump\t// in\n    tag_71:\n        /* \"#utility.yul\":1352:1471   */\n    tag_70:\n        /* \"#utility.yul\":1510:1511   */\n      0x00\n        /* \"#utility.yul\":1535:1588   */\n      tag_72\n        /* \"#utility.yul\":1580:1587   */\n      dup5\n        /* \"#utility.yul\":1571:1577   */\n      dup3\n        /* \"#utility.yul\":1560:1569   */\n      dup6\n        /* \"#utility.yul\":1556:1578   */\n      add\n        /* \"#utility.yul\":1535:1588   */\n      tag_33\n      jump\t// in\n    tag_72:\n        /* \"#utility.yul\":1525:1588   */\n      swap2\n      pop\n        /* \"#utility.yul\":1481:1598   */\n      pop\n        /* \"#utility.yul\":1276:1605   */\n      swap3\n      swap2\n      pop\n      pop\n      jump\t// out\n        /* \"#utility.yul\":1611:1701   */\n    tag_34:\n        /* \"#utility.yul\":1645:1652   */\n      0x00\n        /* \"#utility.yul\":1688:1693   */\n      dup2\n        /* \"#utility.yul\":1681:1694   */\n      iszero\n        /* \"#utility.yul\":1674:1695   */\n      iszero\n        /* \"#utility.yul\":1663:1695   */\n      swap1\n      pop\n        /* \"#utility.yul\":1611:1701   */\n      swap2\n      swap1\n      pop\n      jump\t// out\n        /* \"#utility.yul\":1707:1816   */\n    tag_35:\n        /* \"#utility.yul\":1788:1809   */\n      tag_75\n        /* \"#utility.yul\":1803:1808   */\n      dup2\n        /* \"#utility.yul\":1788:1809   */\n      tag_34\n      jump\t// in\n    tag_75:\n        /* \"#utility.yul\":1783:1786   */\n      dup3\n        /* \"#utility.yul\":1776:1810   */\n      mstore\n        /* \"#utility.yul\":1707:1816   */\n      pop\n      pop\n      jump\t// out\n        /* \"#utility.yul\":1822:1920   */\n    tag_36:\n        /* \"#utility.yul\":1873:1879   */\n      0x00\n        /* \"#utility.yul\":1907:1912   */\n      dup2\n        /* \"#utility.yul\":1901:1913   */\n      mload\n        /* \"#utility.yul\":1891:1913   */\n      swap1\n      pop\n        /* \"#utility.yul\":1822:1920   */\n      swap2\n      swap1\n      pop\n      jump\t// out\n        /* \"#utility.yul\":1926:2094   */\n    tag_37:\n        /* \"#utility.yul\":2009:2020   */\n      0x00\n        /* \"#utility.yul\":2043:2049   */\n      dup3\n        /* \"#utility.yul\":2038:2041   */\n      dup3\n        /* \"#utility.yul\":2031:2050   */\n      mstore\n        /* \"#utility.yul\":2083:2087   */\n      0x20\n        /* \"#utility.yul\":2078:2081   */\n      dup3\n        /* \"#utility.yul\":2074:2088   */\n      add\n        /* \"#utility.yul\":2059:2088   */\n      swap1\n      pop\n        /* \"#utility.yul\":1926:2094   */\n      swap3\n      swap2\n      pop\n      pop\n      jump\t// out\n        /* \"#utility.yul\":2100:2239   */\n    tag_38:\n        /* \"#utility.yul\":2189:2195   */\n      dup3\n        /* \"#utility.yul\":2184:2187   */\n      dup2\n        /* \"#utility.yul\":2179:2182   */\n      dup4\n        /* \"#utility.yul\":2173:2196   */\n      mcopy\n        /* \"#utility.yul\":2230:2231   */\n      0x00\n        /* \"#utility.yul\":2221:2227   */\n      dup4\n        /* \"#utility.yul\":2216:2219   */\n      dup4\n        /* \"#utility.yul\":2212:2228   */\n      add\n        /* \"#utility.yul\":2205:2232   */\n      mstore\n        /* \"#utility.yul\":2100:2239   */\n      pop\n      pop\n      pop\n      jump\t// out\n        /* \"#utility.yul\":2245:2347   */\n    tag_39:\n        /* \"#utility.yul\":2286:2292   */\n      0x00\n        /* \"#utility.yul\":2337:2339   */\n      0x1f\n        /* \"#utility.yul\":2333:2340   */\n      not\n        /* \"#utility.yul\":2328:2330   */\n      0x1f\n        /* \"#utility.yul\":2321:2326   */\n      dup4\n        /* \"#utility.yul\":2317:2331   */\n      add\n        /* \"#utility.yul\":2313:2341   */\n      and\n        /* \"#utility.yul\":2303:2341   */\n      swap1\n      pop\n        /* \"#utility.yul\":2245:2347   */\n      swap2\n      swap1\n      pop\n      jump\t// out\n        /* \"#utility.yul\":2353:2726   */\n    tag_40:\n        /* \"#utility.yul\":2439:2442   */\n      0x00\n        /* \"#utility.yul\":2467:2505   */\n      tag_81\n        /* \"#utility.yul\":2499:2504   */\n      dup3\n        /* \"#utility.yul\":2467:2505   */\n      tag_36\n      jump\t// in\n    tag_81:\n        /* \"#utility.yul\":2521:2591   */\n      tag_82\n        /* \"#utility.yul\":2584:2590   */\n      dup2\n        /* \"#utility.yul\":2579:2582   */\n      dup6\n        /* \"#utility.yul\":2521:2591   */\n      tag_37\n      jump\t// in\n    tag_82:\n        /* \"#utility.yul\":2514:2591   */\n      swap4\n      pop\n        /* \"#utility.yul\":2600:2665   */\n      tag_83\n        /* \"#utility.yul\":2658:2664   */\n      dup2\n        /* \"#utility.yul\":2653:2656   */\n      dup6\n        /* \"#utility.yul\":2646:2650   */\n      0x20\n        /* \"#utility.yul\":2639:2644   */\n      dup7\n        /* \"#utility.yul\":2635:2651   */\n      add\n        /* \"#utility.yul\":2600:2665   */\n      tag_38\n      jump\t// in\n    tag_83:\n        /* \"#utility.yul\":2690:2719   */\n      tag_84\n        /* \"#utility.yul\":2712:2718   */\n      dup2\n        /* \"#utility.yul\":2690:2719   */\n      tag_39\n      jump\t// in\n    tag_84:\n        /* \"#utility.yul\":2685:2688   */\n      dup5\n        /* \"#utility.yul\":2681:2720   */\n      add\n        /* \"#utility.yul\":2674:2720   */\n      swap2\n      pop\n        /* \"#utility.yul\":2443:2726   */\n      pop\n        /* \"#utility.yul\":2353:2726   */\n      swap3\n      swap2\n      pop\n      pop\n      jump\t// out\n        /* \"#utility.yul\":2732:2850   */\n    tag_41:\n        /* \"#utility.yul\":2819:2843   */\n      tag_86\n        /* \"#utility.yul\":2837:2842   */\n      dup2\n        /* \"#utility.yul\":2819:2843   */\n      tag_31\n      jump\t// in\n    tag_86:\n        /* \"#utility.yul\":2814:2817   */\n      dup3\n        /* \"#utility.yul\":2807:2844   */\n      mstore\n        /* \"#utility.yul\":2732:2850   */\n      pop\n      pop\n      jump\t// out\n        /* \"#utility.yul\":2856:3373   */\n    tag_14:\n        /* \"#utility.yul\":3017:3021   */\n      0x00\n        /* \"#utility.yul\":3055:3057   */\n      0x60\n        /* \"#utility.yul\":3044:3053   */\n      dup3\n        /* \"#utility.yul\":3040:3058   */\n      add\n        /* \"#utility.yul\":3032:3058   */\n      swap1\n      pop\n        /* \"#utility.yul\":3068:3133   */\n      tag_88\n        /* \"#utility.yul\":3130:3131   */\n      0x00\n        /* \"#utility.yul\":3119:3128   */\n      dup4\n        /* \"#utility.yul\":3115:3132   */\n      add\n        /* \"#utility.yul\":3106:3112   */\n      dup7\n        /* \"#utility.yul\":3068:3133   */\n      tag_35\n      jump\t// in\n    tag_88:\n        /* \"#utility.yul\":3180:3189   */\n      dup2\n        /* \"#utility.yul\":3174:3178   */\n      dup2\n        /* \"#utility.yul\":3170:3190   */\n      sub\n        /* \"#utility.yul\":3165:3167   */\n      0x20\n        /* \"#utility.yul\":3154:3163   */\n      dup4\n        /* \"#utility.yul\":3150:3168   */\n      add\n        /* \"#utility.yul\":3143:3191   */\n      mstore\n        /* \"#utility.yul\":3208:3284   */\n      tag_89\n        /* \"#utility.yul\":3279:3283   */\n      dup2\n        /* \"#utility.yul\":3270:3276   */\n      dup6\n        /* \"#utility.yul\":3208:3284   */\n      tag_40\n      jump\t// in\n    tag_89:\n        /* \"#utility.yul\":3200:3284   */\n      swap1\n      pop\n        /* \"#utility.yul\":3294:3366   */\n      tag_90\n        /* \"#utility.yul\":3362:3364   */\n      0x40\n        /* \"#utility.yul\":3351:3360   */\n      dup4\n        /* \"#utility.yul\":3347:3365   */\n      add\n        /* \"#utility.yul\":3338:3344   */\n      dup5\n        /* \"#utility.yul\":3294:3366   */\n      tag_41\n      jump\t// in\n    tag_90:\n        /* \"#utility.yul\":2856:3373   */\n      swap5\n      swap4\n      pop\n      pop\n      pop\n      pop\n      jump\t// out\n        /* \"#utility.yul\":3379:3464   */\n    tag_42:\n        /* \"#utility.yul\":3424:3431   */\n      0x00\n        /* \"#utility.yul\":3453:3458   */\n      dup2\n        /* \"#utility.yul\":3442:3458   */\n      swap1\n      pop\n        /* \"#utility.yul\":3379:3464   */\n      swap2\n      swap1\n      pop\n      jump\t// out\n        /* \"#utility.yul\":3470:3556   */\n    tag_43:\n        /* \"#utility.yul\":3505:3512   */\n      0x00\n        /* \"#utility.yul\":3545:3549   */\n      0xff\n        /* \"#utility.yul\":3538:3543   */\n      dup3\n        /* \"#utility.yul\":3534:3550   */\n      and\n        /* \"#utility.yul\":3523:3550   */\n      swap1\n      pop\n        /* \"#utility.yul\":3470:3556   */\n      swap2\n      swap1\n      pop\n      jump\t// out\n        /* \"#utility.yul\":3562:3622   */\n    tag_44:\n        /* \"#utility.yul\":3590:3593   */\n      0x00\n        /* \"#utility.yul\":3611:3616   */\n      dup2\n        /* \"#utility.yul\":3604:3616   */\n      swap1\n      pop\n        /* \"#utility.yul\":3562:3622   */\n      swap2\n      swap1\n      pop\n      jump\t// out\n        /* \"#utility.yul\":3628:3782   */\n    tag_45:\n        /* \"#utility.yul\":3684:3693   */\n      0x00\n        /* \"#utility.yul\":3717:3776   */\n      tag_95\n        /* \"#utility.yul\":3733:3775   */\n      tag_96\n        /* \"#utility.yul\":3742:3774   */\n      tag_97\n        /* \"#utility.yul\":3768:3773   */\n      dup5\n        /* \"#utility.yul\":3742:3774   */\n      tag_42\n      jump\t// in\n    tag_97:\n        /* \"#utility.yul\":3733:3775   */\n      tag_44\n      jump\t// in\n    tag_96:\n        /* \"#utility.yul\":3717:3776   */\n      tag_43\n      jump\t// in\n    tag_95:\n        /* \"#utility.yul\":3704:3776   */\n      swap1\n      pop\n        /* \"#utility.yul\":3628:3782   */\n      swap2\n      swap1\n      pop\n      jump\t// out\n        /* \"#utility.yul\":3788:3931   */\n    tag_46:\n        /* \"#utility.yul\":3881:3924   */\n      tag_99\n        /* \"#utility.yul\":3918:3923   */\n      dup2\n        /* \"#utility.yul\":3881:3924   */\n      tag_45\n      jump\t// in\n    tag_99:\n        /* \"#utility.yul\":3876:3879   */\n      dup3\n        /* \"#utility.yul\":3869:3925   */\n      mstore\n        /* \"#utility.yul\":3788:3931   */\n      pop\n      pop\n      jump\t// out\n        /* \"#utility.yul\":3937:4171   */\n    tag_17:\n        /* \"#utility.yul\":4036:4040   */\n      0x00\n        /* \"#utility.yul\":4074:4076   */\n      0x20\n        /* \"#utility.yul\":4063:4072   */\n      dup3\n        /* \"#utility.yul\":4059:4077   */\n      add\n        /* \"#utility.yul\":4051:4077   */\n      swap1\n      pop\n        /* \"#utility.yul\":4087:4164   */\n      tag_101\n        /* \"#utility.yul\":4161:4162   */\n      0x00\n        /* \"#utility.yul\":4150:4159   */\n      dup4\n        /* \"#utility.yul\":4146:4163   */\n      add\n        /* \"#utility.yul\":4137:4143   */\n      dup5\n        /* \"#utility.yul\":4087:4164   */\n      tag_46\n      jump\t// in\n    tag_101:\n        /* \"#utility.yul\":3937:4171   */\n      swap3\n      swap2\n      pop\n      pop\n      jump\t// out\n        /* \"#utility.yul\":4177:4263   */\n    tag_47:\n        /* \"#utility.yul\":4223:4230   */\n      0x00\n        /* \"#utility.yul\":4252:4257   */\n      dup2\n        /* \"#utility.yul\":4241:4257   */\n      swap1\n      pop\n        /* \"#utility.yul\":4177:4263   */\n      swap2\n      swap1\n      pop\n      jump\t// out\n        /* \"#utility.yul\":4269:4425   */\n    tag_48:\n        /* \"#utility.yul\":4326:4335   */\n      0x00\n        /* \"#utility.yul\":4359:4419   */\n      tag_104\n        /* \"#utility.yul\":4375:4418   */\n      tag_105\n        /* \"#utility.yul\":4384:4417   */\n      tag_106\n        /* \"#utility.yul\":4411:4416   */\n      dup5\n        /* \"#utility.yul\":4384:4417   */\n      tag_47\n      jump\t// in\n    tag_106:\n        /* \"#utility.yul\":4375:4418   */\n      tag_44\n      jump\t// in\n    tag_105:\n        /* \"#utility.yul\":4359:4419   */\n      tag_43\n      jump\t// in\n    tag_104:\n        /* \"#utility.yul\":4346:4419   */\n      swap1\n      pop\n        /* \"#utility.yul\":4269:4425   */\n      swap2\n      swap1\n      pop\n      jump\t// out\n        /* \"#utility.yul\":4431:4576   */\n    tag_49:\n        /* \"#utility.yul\":4525:4569   */\n      tag_108\n        /* \"#utility.yul\":4563:4568   */\n      dup2\n        /* \"#utility.yul\":4525:4569   */\n      tag_48\n      jump\t// in\n    tag_108:\n        /* \"#utility.yul\":4520:4523   */\n      dup3\n        /* \"#utility.yul\":4513:4570   */\n      mstore\n        /* \"#utility.yul\":4431:4576   */\n      pop\n      pop\n      jump\t// out\n        /* \"#utility.yul\":4582:4818   */\n    tag_19:\n        /* \"#utility.yul\":4682:4686   */\n      0x00\n        /* \"#utility.yul\":4720:4722   */\n      0x20\n        /* \"#utility.yul\":4709:4718   */\n      dup3\n        /* \"#utility.yul\":4705:4723   */\n      add\n        /* \"#utility.yul\":4697:4723   */\n      swap1\n      pop\n        /* \"#utility.yul\":4733:4811   */\n      tag_110\n        /* \"#utility.yul\":4808:4809   */\n      0x00\n        /* \"#utility.yul\":4797:4806   */\n      dup4\n        /* \"#utility.yul\":4793:4810   */\n      add\n        /* \"#utility.yul\":4784:4790   */\n      dup5\n        /* \"#utility.yul\":4733:4811   */\n      tag_49\n      jump\t// in\n    tag_110:\n        /* \"#utility.yul\":4582:4818   */\n      swap3\n      swap2\n      pop\n      pop\n      jump\t// out\n        /* \"#utility.yul\":4824:4971   */\n    tag_50:\n        /* \"#utility.yul\":4925:4936   */\n      0x00\n        /* \"#utility.yul\":4962:4965   */\n      dup2\n        /* \"#utility.yul\":4947:4965   */\n      swap1\n      pop\n        /* \"#utility.yul\":4824:4971   */\n      swap3\n      swap2\n      pop\n      pop\n      jump\t// out\n        /* \"#utility.yul\":4977:5363   */\n    tag_51:\n        /* \"#utility.yul\":5081:5084   */\n      0x00\n        /* \"#utility.yul\":5109:5147   */\n      tag_113\n        /* \"#utility.yul\":5141:5146   */\n      dup3\n        /* \"#utility.yul\":5109:5147   */\n      tag_36\n      jump\t// in\n    tag_113:\n        /* \"#utility.yul\":5163:5251   */\n      tag_114\n        /* \"#utility.yul\":5244:5250   */\n      dup2\n        /* \"#utility.yul\":5239:5242   */\n      dup6\n        /* \"#utility.yul\":5163:5251   */\n      tag_50\n      jump\t// in\n    tag_114:\n        /* \"#utility.yul\":5156:5251   */\n      swap4\n      pop\n        /* \"#utility.yul\":5260:5325   */\n      tag_115\n        /* \"#utility.yul\":5318:5324   */\n      dup2\n        /* \"#utility.yul\":5313:5316   */\n      dup6\n        /* \"#utility.yul\":5306:5310   */\n      0x20\n        /* \"#utility.yul\":5299:5304   */\n      dup7\n        /* \"#utility.yul\":5295:5311   */\n      add\n        /* \"#utility.yul\":5260:5325   */\n      tag_38\n      jump\t// in\n    tag_115:\n        /* \"#utility.yul\":5350:5356   */\n      dup1\n        /* \"#utility.yul\":5345:5348   */\n      dup5\n        /* \"#utility.yul\":5341:5357   */\n      add\n        /* \"#utility.yul\":5334:5357   */\n      swap2\n      pop\n        /* \"#utility.yul\":5085:5363   */\n      pop\n        /* \"#utility.yul\":4977:5363   */\n      swap3\n      swap2\n      pop\n      pop\n      jump\t// out\n        /* \"#utility.yul\":5369:5640   */\n    tag_21:\n        /* \"#utility.yul\":5499:5502   */\n      0x00\n        /* \"#utility.yul\":5521:5614   */\n      tag_117\n        /* \"#utility.yul\":5610:5613   */\n      dup3\n        /* \"#utility.yul\":5601:5607   */\n      dup5\n        /* \"#utility.yul\":5521:5614   */\n      tag_51\n      jump\t// in\n    tag_117:\n        /* \"#utility.yul\":5514:5614   */\n      swap2\n      pop\n        /* \"#utility.yul\":5631:5634   */\n      dup2\n        /* \"#utility.yul\":5624:5634   */\n      swap1\n      pop\n        /* \"#utility.yul\":5369:5640   */\n      swap3\n      swap2\n      pop\n      pop\n      jump\t// out\n\n    auxdata: 0xa2646970667358221220dd48894b9ab3ee26bc802d38c6732a345a3f7a70fe4d82bf8affbb4e77fb1a6b64736f6c634300081a0033\n}\n",
				"bytecode": {
					"linkReferences": {},
					"object": "608060405260145f553480156012575f80fd5b50610520806100205f395ff3fe608060405234801561000f575f80fd5b5060043610610034575f3560e01c806306661abd14610038578063e9e1c15714610056575b5f80fd5b610040610088565b60405161004d919061026a565b60405180910390f35b610070600480360381019061006b91906102e1565b61008d565b60405161007f939291906103a5565b60405180910390f35b5f5481565b5f60605f806040518060400160405280600c81526020017f696e632875696e743235362900000000000000000000000000000000000000008152508051906020012090505f60086040516024016100e4919061042f565b6040516020818303038152906040527f812600df000000000000000000000000000000000000000000000000000000007bffffffffffffffffffffffffffffffffffffffffffffffffffffffff19166020820180517bffffffffffffffffffffffffffffffffffffffffffffffffffffffff8381831617835250505050905081600a6040516024016101769190610481565b604051602081830303815290604052907bffffffffffffffffffffffffffffffffffffffffffffffffffffffff19166020820180517bffffffffffffffffffffffffffffffffffffffffffffffffffffffff838183161783525050505090505f808773ffffffffffffffffffffffffffffffffffffffff16836040516101fc91906104d4565b5f60405180830381855af49150503d805f8114610234576040519150601f19603f3d011682016040523d82523d5f602084013e610239565b606091505b5091509150818133965096509650505050509193909250565b5f819050919050565b61026481610252565b82525050565b5f60208201905061027d5f83018461025b565b92915050565b5f80fd5b5f73ffffffffffffffffffffffffffffffffffffffff82169050919050565b5f6102b082610287565b9050919050565b6102c0816102a6565b81146102ca575f80fd5b50565b5f813590506102db816102b7565b92915050565b5f602082840312156102f6576102f5610283565b5b5f610303848285016102cd565b91505092915050565b5f8115159050919050565b6103208161030c565b82525050565b5f81519050919050565b5f82825260208201905092915050565b8281835e5f83830152505050565b5f601f19601f8301169050919050565b5f61036882610326565b6103728185610330565b9350610382818560208601610340565b61038b8161034e565b840191505092915050565b61039f816102a6565b82525050565b5f6060820190506103b85f830186610317565b81810360208301526103ca818561035e565b90506103d96040830184610396565b949350505050565b5f819050919050565b5f60ff82169050919050565b5f819050919050565b5f61041961041461040f846103e1565b6103f6565b6103ea565b9050919050565b610429816103ff565b82525050565b5f6020820190506104425f830184610420565b92915050565b5f819050919050565b5f61046b61046661046184610448565b6103f6565b6103ea565b9050919050565b61047b81610451565b82525050565b5f6020820190506104945f830184610472565b92915050565b5f81905092915050565b5f6104ae82610326565b6104b8818561049a565b93506104c8818560208601610340565b80840191505092915050565b5f6104df82846104a4565b91508190509291505056fea2646970667358221220dd48894b9ab3ee26bc802d38c6732a345a3f7a70fe4d82bf8affbb4e77fb1a6b64736f6c634300081a0033",
					"opcodes": "PUSH1 0x80 PUSH1 0x40 MSTORE PUSH1 0x14 PUSH0 SSTORE CALLVALUE DUP1 ISZERO PUSH1 0x12 JUMPI PUSH0 DUP1 REVERT JUMPDEST POP PUSH2 0x520 DUP1 PUSH2 0x20 PUSH0 CODECOPY PUSH0 RETURN INVALID PUSH1 0x80 PUSH1 0x40 MSTORE CALLVALUE DUP1 ISZERO PUSH2 0xF JUMPI PUSH0 DUP1 REVERT JUMPDEST POP PUSH1 0x4 CALLDATASIZE LT PUSH2 0x34 JUMPI PUSH0 CALLDATALOAD PUSH1 0xE0 SHR DUP1 PUSH4 0x6661ABD EQ PUSH2 0x38 JUMPI DUP1 PUSH4 0xE9E1C157 EQ PUSH2 0x56 JUMPI JUMPDEST PUSH0 DUP1 REVERT JUMPDEST PUSH2 0x40 PUSH2 0x88 JUMP JUMPDEST PUSH1 0x40 MLOAD PUSH2 0x4D SWAP2 SWAP1 PUSH2 0x26A JUMP JUMPDEST PUSH1 0x40 MLOAD DUP1 SWAP2 SUB SWAP1 RETURN JUMPDEST PUSH2 0x70 PUSH1 0x4 DUP1 CALLDATASIZE SUB DUP2 ADD SWAP1 PUSH2 0x6B SWAP2 SWAP1 PUSH2 0x2E1 JUMP JUMPDEST PUSH2 0x8D JUMP JUMPDEST PUSH1 0x40 MLOAD PUSH2 0x7F SWAP4 SWAP3 SWAP2 SWAP1 PUSH2 0x3A5 JUMP JUMPDEST PUSH1 0x40 MLOAD DUP1 SWAP2 SUB SWAP1 RETURN JUMPDEST PUSH0 SLOAD DUP2 JUMP JUMPDEST PUSH0 PUSH1 0x60 PUSH0 DUP1 PUSH1 0x40 MLOAD DUP1 PUSH1 0x40 ADD PUSH1 0x40 MSTORE DUP1 PUSH1 0xC DUP2 MSTORE PUSH1 0x20 ADD PUSH32 0x696E632875696E74323536290000000000000000000000000000000000000000 DUP2 MSTORE POP DUP1 MLOAD SWAP1 PUSH1 0x20 ADD KECCAK256 SWAP1 POP PUSH0 PUSH1 0x8 PUSH1 0x40 MLOAD PUSH1 0x24 ADD PUSH2 0xE4 SWAP2 SWAP1 PUSH2 0x42F JUMP JUMPDEST PUSH1 0x40 MLOAD PUSH1 0x20 DUP2 DUP4 SUB SUB DUP2 MSTORE SWAP1 PUSH1 0x40 MSTORE PUSH32 0x812600DF00000000000000000000000000000000000000000000000000000000 PUSH28 0xFFFFFFFFFFFFFFFFFFFFFFFFFFFFFFFFFFFFFFFFFFFFFFFFFFFFFFFF NOT AND PUSH1 0x20 DUP3 ADD DUP1 MLOAD PUSH28 0xFFFFFFFFFFFFFFFFFFFFFFFFFFFFFFFFFFFFFFFFFFFFFFFFFFFFFFFF DUP4 DUP2 DUP4 AND OR DUP4 MSTORE POP POP POP POP SWAP1 POP DUP2 PUSH1 0xA PUSH1 0x40 MLOAD PUSH1 0x24 ADD PUSH2 0x176 SWAP2 SWAP1 PUSH2 0x481 JUMP JUMPDEST PUSH1 0x40 MLOAD PUSH1 0x20 DUP2 DUP4 SUB SUB DUP2 MSTORE SWAP1 PUSH1 0x40 MSTORE SWAP1 PUSH28 0xFFFFFFFFFFFFFFFFFFFFFFFFFFFFFFFFFFFFFFFFFFFFFFFFFFFFFFFF NOT AND PUSH1 0x20 DUP3 ADD DUP1 MLOAD PUSH28 0xFFFFFFFFFFFFFFFFFFFFFFFFFFFFFFFFFFFFFFFFFFFFFFFFFFFFFFFF DUP4 DUP2 DUP4 AND OR DUP4 MSTORE POP POP POP POP SWAP1 POP PUSH0 DUP1 DUP8 PUSH20 0xFFFFFFFFFFFFFFFFFFFFFFFFFFFFFFFFFFFFFFFF AND DUP4 PUSH1 0x40 MLOAD PUSH2 0x1FC SWAP2 SWAP1 PUSH2 0x4D4 JUMP JUMPDEST PUSH0 PUSH1 0x40 MLOAD DUP1 DUP4 SUB DUP2 DUP6 GAS DELEGATECALL SWAP2 POP POP RETURNDATASIZE DUP1 PUSH0 DUP2 EQ PUSH2 0x234 JUMPI PUSH1 0x40 MLOAD SWAP2 POP PUSH1 0x1F NOT PUSH1 0x3F RETURNDATASIZE ADD AND DUP3 ADD PUSH1 0x40 MSTORE RETURNDATASIZE DUP3 MSTORE RETURNDATASIZE PUSH0 PUSH1 0x20 DUP5 ADD RETURNDATACOPY PUSH2 0x239 JUMP JUMPDEST PUSH1 0x60 SWAP2 POP JUMPDEST POP SWAP2 POP SWAP2 POP DUP2 DUP2 CALLER SWAP7 POP SWAP7 POP SWAP7 POP POP POP POP POP SWAP2 SWAP4 SWAP1 SWAP3 POP JUMP JUMPDEST PUSH0 DUP2 SWAP1 POP SWAP2 SWAP1 POP JUMP JUMPDEST PUSH2 0x264 DUP2 PUSH2 0x252 JUMP JUMPDEST DUP3 MSTORE POP POP JUMP JUMPDEST PUSH0 PUSH1 0x20 DUP3 ADD SWAP1 POP PUSH2 0x27D PUSH0 DUP4 ADD DUP5 PUSH2 0x25B JUMP JUMPDEST SWAP3 SWAP2 POP POP JUMP JUMPDEST PUSH0 DUP1 REVERT JUMPDEST PUSH0 PUSH20 0xFFFFFFFFFFFFFFFFFFFFFFFFFFFFFFFFFFFFFFFF DUP3 AND SWAP1 POP SWAP2 SWAP1 POP JUMP JUMPDEST PUSH0 PUSH2 0x2B0 DUP3 PUSH2 0x287 JUMP JUMPDEST SWAP1 POP SWAP2 SWAP1 POP JUMP JUMPDEST PUSH2 0x2C0 DUP2 PUSH2 0x2A6 JUMP JUMPDEST DUP2 EQ PUSH2 0x2CA JUMPI PUSH0 DUP1 REVERT JUMPDEST POP JUMP JUMPDEST PUSH0 DUP2 CALLDATALOAD SWAP1 POP PUSH2 0x2DB DUP2 PUSH2 0x2B7 JUMP JUMPDEST SWAP3 SWAP2 POP POP JUMP JUMPDEST PUSH0 PUSH1 0x20 DUP3 DUP5 SUB SLT ISZERO PUSH2 0x2F6 JUMPI PUSH2 0x2F5 PUSH2 0x283 JUMP JUMPDEST JUMPDEST PUSH0 PUSH2 0x303 DUP5 DUP3 DUP6 ADD PUSH2 0x2CD JUMP JUMPDEST SWAP2 POP POP SWAP3 SWAP2 POP POP JUMP JUMPDEST PUSH0 DUP2 ISZERO ISZERO SWAP1 POP SWAP2 SWAP1 POP JUMP JUMPDEST PUSH2 0x320 DUP2 PUSH2 0x30C JUMP JUMPDEST DUP3 MSTORE POP POP JUMP JUMPDEST PUSH0 DUP2 MLOAD SWAP1 POP SWAP2 SWAP1 POP JUMP JUMPDEST PUSH0 DUP3 DUP3 MSTORE PUSH1 0x20 DUP3 ADD SWAP1 POP SWAP3 SWAP2 POP POP JUMP JUMPDEST DUP3 DUP2 DUP4 MCOPY PUSH0 DUP4 DUP4 ADD MSTORE POP POP POP JUMP JUMPDEST PUSH0 PUSH1 0x1F NOT PUSH1 0x1F DUP4 ADD AND SWAP1 POP SWAP2 SWAP1 POP JUMP JUMPDEST PUSH0 PUSH2 0x368 DUP3 PUSH2 0x326 JUMP JUMPDEST PUSH2 0x372 DUP2 DUP6 PUSH2 0x330 JUMP JUMPDEST SWAP4 POP PUSH2 0x382 DUP2 DUP6 PUSH1 0x20 DUP7 ADD PUSH2 0x340 JUMP JUMPDEST PUSH2 0x38B DUP2 PUSH2 0x34E JUMP JUMPDEST DUP5 ADD SWAP2 POP POP SWAP3 SWAP2 POP POP JUMP JUMPDEST PUSH2 0x39F DUP2 PUSH2 0x2A6 JUMP JUMPDEST DUP3 MSTORE POP POP JUMP JUMPDEST PUSH0 PUSH1 0x60 DUP3 ADD SWAP1 POP PUSH2 0x3B8 PUSH0 DUP4 ADD DUP7 PUSH2 0x317 JUMP JUMPDEST DUP2 DUP2 SUB PUSH1 0x20 DUP4 ADD MSTORE PUSH2 0x3CA DUP2 DUP6 PUSH2 0x35E JUMP JUMPDEST SWAP1 POP PUSH2 0x3D9 PUSH1 0x40 DUP4 ADD DUP5 PUSH2 0x396 JUMP JUMPDEST SWAP5 SWAP4 POP POP POP POP JUMP JUMPDEST PUSH0 DUP2 SWAP1 POP SWAP2 SWAP1 POP JUMP JUMPDEST PUSH0 PUSH1 0xFF DUP3 AND SWAP1 POP SWAP2 SWAP1 POP JUMP JUMPDEST PUSH0 DUP2 SWAP1 POP SWAP2 SWAP1 POP JUMP JUMPDEST PUSH0 PUSH2 0x419 PUSH2 0x414 PUSH2 0x40F DUP5 PUSH2 0x3E1 JUMP JUMPDEST PUSH2 0x3F6 JUMP JUMPDEST PUSH2 0x3EA JUMP JUMPDEST SWAP1 POP SWAP2 SWAP1 POP JUMP JUMPDEST PUSH2 0x429 DUP2 PUSH2 0x3FF JUMP JUMPDEST DUP3 MSTORE POP POP JUMP JUMPDEST PUSH0 PUSH1 0x20 DUP3 ADD SWAP1 POP PUSH2 0x442 PUSH0 DUP4 ADD DUP5 PUSH2 0x420 JUMP JUMPDEST SWAP3 SWAP2 POP POP JUMP JUMPDEST PUSH0 DUP2 SWAP1 POP SWAP2 SWAP1 POP JUMP JUMPDEST PUSH0 PUSH2 0x46B PUSH2 0x466 PUSH2 0x461 DUP5 PUSH2 0x448 JUMP JUMPDEST PUSH2 0x3F6 JUMP JUMPDEST PUSH2 0x3EA JUMP JUMPDEST SWAP1 POP SWAP2 SWAP1 POP JUMP JUMPDEST PUSH2 0x47B DUP2 PUSH2 0x451 JUMP JUMPDEST DUP3 MSTORE POP POP JUMP JUMPDEST PUSH0 PUSH1 0x20 DUP3 ADD SWAP1 POP PUSH2 0x494 PUSH0 DUP4 ADD DUP5 PUSH2 0x472 JUMP JUMPDEST SWAP3 SWAP2 POP POP JUMP JUMPDEST PUSH0 DUP2 SWAP1 POP SWAP3 SWAP2 POP POP JUMP JUMPDEST PUSH0 PUSH2 0x4AE DUP3 PUSH2 0x326 JUMP JUMPDEST PUSH2 0x4B8 DUP2 DUP6 PUSH2 0x49A JUMP JUMPDEST SWAP4 POP PUSH2 0x4C8 DUP2 DUP6 PUSH1 0x20 DUP7 ADD PUSH2 0x340 JUMP JUMPDEST DUP1 DUP5 ADD SWAP2 POP POP SWAP3 SWAP2 POP POP JUMP JUMPDEST PUSH0 PUSH2 0x4DF DUP3 DUP5 PUSH2 0x4A4 JUMP JUMPDEST SWAP2 POP DUP2 SWAP1 POP SWAP3 SWAP2 POP POP JUMP INVALID LOG2 PUSH5 0x6970667358 0x22 SLT KECCAK256 0xDD BASEFEE DUP10 0x4B SWAP11 0xB3 0xEE 0x26 0xBC DUP1 0x2D CODESIZE 0xC6 PUSH20 0x2A345A3F7A70FE4D82BF8AFFBB4E77FB1A6B6473 PUSH16 0x6C634300081A00330000000000000000 "
				},
				"gasEstimates": {
					"creation": {
						"codeDepositCost": "262400",
						"executionCost": "22403",
						"totalCost": "284803"
					},
					"external": {
						"callByAddr(address)": "infinite",
						"count()": "2402"
					}
				},
				"methodIdentifiers": {
					"callByAddr(address)": "e9e1c157",
					"count()": "06661abd"
				}
			},
			"storageLayout": {
				"storage": [
					{
						"astId": 23,
						"contract": "DelegateCall.sol:Caller_by_call",
						"label": "count",
						"offset": 0,
						"slot": "0",
						"type": "t_uint256"
					}
				],
				"types": {
					"t_uint256": {
						"encoding": "inplace",
						"label": "uint256",
						"numberOfBytes": "32"
					}
				}
			},
			"userdoc": {
				"kind": "user",
				"methods": {},
				"version": 1
			}
		}
	}
}