{
	"Enum.sol": {
		"Enum": {
			"abi": [
				{
					"inputs": [],
					"stateMutability": "nonpayable",
					"type": "constructor"
				},
				{
					"inputs": [],
					"name": "isActive",
					"outputs": [
						{
							"internalType": "bool",
							"name": "",
							"type": "bool"
						}
					],
					"stateMutability": "view",
					"type": "function"
				},
				{
					"inputs": [],
					"name": "isLocked",
					"outputs": [
						{
							"internalType": "bool",
							"name": "",
							"type": "bool"
						}
					],
					"stateMutability": "view",
					"type": "function"
				},
				{
					"inputs": [],
					"name": "isUnlocked",
					"outputs": [
						{
							"internalType": "bool",
							"name": "",
							"type": "bool"
						}
					],
					"stateMutability": "view",
					"type": "function"
				},
				{
					"inputs": [],
					"name": "lock",
					"outputs": [],
					"stateMutability": "nonpayable",
					"type": "function"
				},
				{
					"inputs": [],
					"name": "reset",
					"outputs": [],
					"stateMutability": "nonpayable",
					"type": "function"
				},
				{
					"inputs": [],
					"name": "state",
					"outputs": [
						{
							"internalType": "enum Enum.State",
							"name": "",
							"type": "uint8"
						}
					],
					"stateMutability": "view",
					"type": "function"
				},
				{
					"inputs": [],
					"name": "unlock",
					"outputs": [],
					"stateMutability": "nonpayable",
					"type": "function"
				}
			],
			"devdoc": {
				"kind": "dev",
				"methods": {},
				"version": 1
			},
			"evm": {
				"assembly": "    /* \"Enum.sol\":57:685  contract Enum{... */\n  mstore(0x40, 0x80)\n    /* \"Enum.sol\":143:195  constructor() {... */\n  callvalue\n  dup1\n  iszero\n  tag_1\n  jumpi\n  0x00\n  dup1\n  revert\ntag_1:\n  pop\n    /* \"Enum.sol\":175:188  State.Created */\n  0x00\n    /* \"Enum.sol\":167:172  state */\n  dup1\n  0x00\n    /* \"Enum.sol\":167:188  state = State.Created */\n  0x0100\n  exp\n  dup2\n  sload\n  dup2\n  0xff\n  mul\n  not\n  and\n  swap1\n  dup4\n  0x02\n  dup2\n  gt\n  iszero\n  tag_4\n  jumpi\n  tag_5\n  tag_6\n  jump\t// in\ntag_5:\ntag_4:\n  mul\n  or\n  swap1\n  sstore\n  pop\n    /* \"Enum.sol\":57:685  contract Enum{... */\n  jump(tag_7)\n    /* \"#utility.yul\":7:187   */\ntag_6:\n    /* \"#utility.yul\":55:132   */\n  0x4e487b7100000000000000000000000000000000000000000000000000000000\n    /* \"#utility.yul\":52:53   */\n  0x00\n    /* \"#utility.yul\":45:133   */\n  mstore\n    /* \"#utility.yul\":152:156   */\n  0x21\n    /* \"#utility.yul\":149:150   */\n  0x04\n    /* \"#utility.yul\":142:157   */\n  mstore\n    /* \"#utility.yul\":176:180   */\n  0x24\n    /* \"#utility.yul\":173:174   */\n  0x00\n    /* \"#utility.yul\":166:181   */\n  revert\n    /* \"Enum.sol\":57:685  contract Enum{... */\ntag_7:\n  dataSize(sub_0)\n  dup1\n  dataOffset(sub_0)\n  0x00\n  codecopy\n  0x00\n  return\nstop\n\nsub_0: assembly {\n        /* \"Enum.sol\":57:685  contract Enum{... */\n      mstore(0x40, 0x80)\n      callvalue\n      dup1\n      iszero\n      tag_1\n      jumpi\n      0x00\n      dup1\n      revert\n    tag_1:\n      pop\n      jumpi(tag_2, lt(calldatasize, 0x04))\n      shr(0xe0, calldataload(0x00))\n      dup1\n      0xa69df4b5\n      gt\n      tag_10\n      jumpi\n      dup1\n      0xa69df4b5\n      eq\n      tag_6\n      jumpi\n      dup1\n      0xc19d93fb\n      eq\n      tag_7\n      jumpi\n      dup1\n      0xd826f88f\n      eq\n      tag_8\n      jumpi\n      dup1\n      0xf83d08ba\n      eq\n      tag_9\n      jumpi\n      jump(tag_2)\n    tag_10:\n      dup1\n      0x22f3e2d4\n      eq\n      tag_3\n      jumpi\n      dup1\n      0x8380edb7\n      eq\n      tag_4\n      jumpi\n      dup1\n      0xa4e2d634\n      eq\n      tag_5\n      jumpi\n    tag_2:\n      0x00\n      dup1\n      revert\n        /* \"Enum.sol\":393:485  function isActive()public view returns(bool){... */\n    tag_3:\n      tag_11\n      tag_12\n      jump\t// in\n    tag_11:\n      mload(0x40)\n      tag_13\n      swap2\n      swap1\n      tag_14\n      jump\t// in\n    tag_13:\n      mload(0x40)\n      dup1\n      swap2\n      sub\n      swap1\n      return\n        /* \"Enum.sol\":586:680  function isUnlocked()public view returns(bool){... */\n    tag_4:\n      tag_15\n      tag_16\n      jump\t// in\n    tag_15:\n      mload(0x40)\n      tag_17\n      swap2\n      swap1\n      tag_14\n      jump\t// in\n    tag_17:\n      mload(0x40)\n      dup1\n      swap2\n      sub\n      swap1\n      return\n        /* \"Enum.sol\":491:580  function isLocked()public view returns(bool){... */\n    tag_5:\n      tag_18\n      tag_19\n      jump\t// in\n    tag_18:\n      mload(0x40)\n      tag_20\n      swap2\n      swap1\n      tag_14\n      jump\t// in\n    tag_20:\n      mload(0x40)\n      dup1\n      swap2\n      sub\n      swap1\n      return\n        /* \"Enum.sol\":262:323  function unlock()public{... */\n    tag_6:\n      tag_21\n      tag_22\n      jump\t// in\n    tag_21:\n      stop\n        /* \"Enum.sol\":118:136  State public state */\n    tag_7:\n      tag_23\n      tag_24\n      jump\t// in\n    tag_23:\n      mload(0x40)\n      tag_25\n      swap2\n      swap1\n      tag_26\n      jump\t// in\n    tag_25:\n      mload(0x40)\n      dup1\n      swap2\n      sub\n      swap1\n      return\n        /* \"Enum.sol\":328:387  function reset()public{... */\n    tag_8:\n      tag_27\n      tag_28\n      jump\t// in\n    tag_27:\n      stop\n        /* \"Enum.sol\":200:257  function lock()public{... */\n    tag_9:\n      tag_29\n      tag_30\n      jump\t// in\n    tag_29:\n      stop\n        /* \"Enum.sol\":393:485  function isActive()public view returns(bool){... */\n    tag_12:\n        /* \"Enum.sol\":432:436  bool */\n      0x00\n        /* \"Enum.sol\":463:476  State.Created */\n      dup1\n        /* \"Enum.sol\":456:476  state==State.Created */\n      0x02\n      dup2\n      gt\n      iszero\n      tag_32\n      jumpi\n      tag_33\n      tag_34\n      jump\t// in\n    tag_33:\n    tag_32:\n        /* \"Enum.sol\":456:461  state */\n      0x00\n      dup1\n      sload\n      swap1\n      0x0100\n      exp\n      swap1\n      div\n      0xff\n      and\n        /* \"Enum.sol\":456:476  state==State.Created */\n      0x02\n      dup2\n      gt\n      iszero\n      tag_35\n      jumpi\n      tag_36\n      tag_34\n      jump\t// in\n    tag_36:\n    tag_35:\n      eq\n        /* \"Enum.sol\":448:477  return (state==State.Created) */\n      swap1\n      pop\n        /* \"Enum.sol\":393:485  function isActive()public view returns(bool){... */\n      swap1\n      jump\t// out\n        /* \"Enum.sol\":586:680  function isUnlocked()public view returns(bool){... */\n    tag_16:\n        /* \"Enum.sol\":627:631  bool */\n      0x00\n        /* \"Enum.sol\":658:672  State.Inactive */\n      0x02\n        /* \"Enum.sol\":651:672  state==State.Inactive */\n      dup1\n      dup2\n      gt\n      iszero\n      tag_38\n      jumpi\n      tag_39\n      tag_34\n      jump\t// in\n    tag_39:\n    tag_38:\n        /* \"Enum.sol\":651:656  state */\n      0x00\n      dup1\n      sload\n      swap1\n      0x0100\n      exp\n      swap1\n      div\n      0xff\n      and\n        /* \"Enum.sol\":651:672  state==State.Inactive */\n      0x02\n      dup2\n      gt\n      iszero\n      tag_40\n      jumpi\n      tag_41\n      tag_34\n      jump\t// in\n    tag_41:\n    tag_40:\n      eq\n        /* \"Enum.sol\":643:673  return (state==State.Inactive) */\n      swap1\n      pop\n        /* \"Enum.sol\":586:680  function isUnlocked()public view returns(bool){... */\n      swap1\n      jump\t// out\n        /* \"Enum.sol\":491:580  function isLocked()public view returns(bool){... */\n    tag_19:\n        /* \"Enum.sol\":530:534  bool */\n      0x00\n        /* \"Enum.sol\":560:572  State.Locked */\n      0x01\n        /* \"Enum.sol\":553:572  state==State.Locked */\n      0x02\n      dup2\n      gt\n      iszero\n      tag_43\n      jumpi\n      tag_44\n      tag_34\n      jump\t// in\n    tag_44:\n    tag_43:\n        /* \"Enum.sol\":553:558  state */\n      0x00\n      dup1\n      sload\n      swap1\n      0x0100\n      exp\n      swap1\n      div\n      0xff\n      and\n        /* \"Enum.sol\":553:572  state==State.Locked */\n      0x02\n      dup2\n      gt\n      iszero\n      tag_45\n      jumpi\n      tag_46\n      tag_34\n      jump\t// in\n    tag_46:\n    tag_45:\n      eq\n        /* \"Enum.sol\":545:573  return (state==State.Locked) */\n      swap1\n      pop\n        /* \"Enum.sol\":491:580  function isLocked()public view returns(bool){... */\n      swap1\n      jump\t// out\n        /* \"Enum.sol\":262:323  function unlock()public{... */\n    tag_22:\n        /* \"Enum.sol\":302:316  State.Inactive */\n      0x02\n        /* \"Enum.sol\":296:301  state */\n      0x00\n      dup1\n        /* \"Enum.sol\":296:316  state=State.Inactive */\n      0x0100\n      exp\n      dup2\n      sload\n      dup2\n      0xff\n      mul\n      not\n      and\n      swap1\n      dup4\n      0x02\n      dup2\n      gt\n      iszero\n      tag_48\n      jumpi\n      tag_49\n      tag_34\n      jump\t// in\n    tag_49:\n    tag_48:\n      mul\n      or\n      swap1\n      sstore\n      pop\n        /* \"Enum.sol\":262:323  function unlock()public{... */\n      jump\t// out\n        /* \"Enum.sol\":118:136  State public state */\n    tag_24:\n      0x00\n      dup1\n      sload\n      swap1\n      0x0100\n      exp\n      swap1\n      div\n      0xff\n      and\n      dup2\n      jump\t// out\n        /* \"Enum.sol\":328:387  function reset()public{... */\n    tag_28:\n        /* \"Enum.sol\":367:380  State.Created */\n      0x00\n        /* \"Enum.sol\":361:366  state */\n      dup1\n      0x00\n        /* \"Enum.sol\":361:380  state=State.Created */\n      0x0100\n      exp\n      dup2\n      sload\n      dup2\n      0xff\n      mul\n      not\n      and\n      swap1\n      dup4\n      0x02\n      dup2\n      gt\n      iszero\n      tag_51\n      jumpi\n      tag_52\n      tag_34\n      jump\t// in\n    tag_52:\n    tag_51:\n      mul\n      or\n      swap1\n      sstore\n      pop\n        /* \"Enum.sol\":328:387  function reset()public{... */\n      jump\t// out\n        /* \"Enum.sol\":200:257  function lock()public{... */\n    tag_30:\n        /* \"Enum.sol\":238:250  State.Locked */\n      0x01\n        /* \"Enum.sol\":232:237  state */\n      0x00\n      dup1\n        /* \"Enum.sol\":232:250  state=State.Locked */\n      0x0100\n      exp\n      dup2\n      sload\n      dup2\n      0xff\n      mul\n      not\n      and\n      swap1\n      dup4\n      0x02\n      dup2\n      gt\n      iszero\n      tag_54\n      jumpi\n      tag_55\n      tag_34\n      jump\t// in\n    tag_55:\n    tag_54:\n      mul\n      or\n      swap1\n      sstore\n      pop\n        /* \"Enum.sol\":200:257  function lock()public{... */\n      jump\t// out\n        /* \"#utility.yul\":7:97   */\n    tag_56:\n        /* \"#utility.yul\":41:48   */\n      0x00\n        /* \"#utility.yul\":84:89   */\n      dup2\n        /* \"#utility.yul\":77:90   */\n      iszero\n        /* \"#utility.yul\":70:91   */\n      iszero\n        /* \"#utility.yul\":59:91   */\n      swap1\n      pop\n        /* \"#utility.yul\":7:97   */\n      swap2\n      swap1\n      pop\n      jump\t// out\n        /* \"#utility.yul\":103:212   */\n    tag_57:\n        /* \"#utility.yul\":184:205   */\n      tag_65\n        /* \"#utility.yul\":199:204   */\n      dup2\n        /* \"#utility.yul\":184:205   */\n      tag_56\n      jump\t// in\n    tag_65:\n        /* \"#utility.yul\":179:182   */\n      dup3\n        /* \"#utility.yul\":172:206   */\n      mstore\n        /* \"#utility.yul\":103:212   */\n      pop\n      pop\n      jump\t// out\n        /* \"#utility.yul\":218:428   */\n    tag_14:\n        /* \"#utility.yul\":305:309   */\n      0x00\n        /* \"#utility.yul\":343:345   */\n      0x20\n        /* \"#utility.yul\":332:341   */\n      dup3\n        /* \"#utility.yul\":328:346   */\n      add\n        /* \"#utility.yul\":320:346   */\n      swap1\n      pop\n        /* \"#utility.yul\":356:421   */\n      tag_67\n        /* \"#utility.yul\":418:419   */\n      0x00\n        /* \"#utility.yul\":407:416   */\n      dup4\n        /* \"#utility.yul\":403:420   */\n      add\n        /* \"#utility.yul\":394:400   */\n      dup5\n        /* \"#utility.yul\":356:421   */\n      tag_57\n      jump\t// in\n    tag_67:\n        /* \"#utility.yul\":218:428   */\n      swap3\n      swap2\n      pop\n      pop\n      jump\t// out\n        /* \"#utility.yul\":434:614   */\n    tag_34:\n        /* \"#utility.yul\":482:559   */\n      0x4e487b7100000000000000000000000000000000000000000000000000000000\n        /* \"#utility.yul\":479:480   */\n      0x00\n        /* \"#utility.yul\":472:560   */\n      mstore\n        /* \"#utility.yul\":579:583   */\n      0x21\n        /* \"#utility.yul\":576:577   */\n      0x04\n        /* \"#utility.yul\":569:584   */\n      mstore\n        /* \"#utility.yul\":603:607   */\n      0x24\n        /* \"#utility.yul\":600:601   */\n      0x00\n        /* \"#utility.yul\":593:608   */\n      revert\n        /* \"#utility.yul\":620:732   */\n    tag_58:\n        /* \"#utility.yul\":700:701   */\n      0x03\n        /* \"#utility.yul\":693:698   */\n      dup2\n        /* \"#utility.yul\":690:702   */\n      lt\n        /* \"#utility.yul\":680:726   */\n      tag_70\n      jumpi\n        /* \"#utility.yul\":706:724   */\n      tag_71\n      tag_34\n      jump\t// in\n    tag_71:\n        /* \"#utility.yul\":680:726   */\n    tag_70:\n        /* \"#utility.yul\":620:732   */\n      pop\n      jump\t// out\n        /* \"#utility.yul\":738:863   */\n    tag_59:\n        /* \"#utility.yul\":782:789   */\n      0x00\n        /* \"#utility.yul\":811:816   */\n      dup2\n        /* \"#utility.yul\":800:816   */\n      swap1\n      pop\n        /* \"#utility.yul\":817:857   */\n      tag_73\n        /* \"#utility.yul\":851:856   */\n      dup3\n        /* \"#utility.yul\":817:857   */\n      tag_58\n      jump\t// in\n    tag_73:\n        /* \"#utility.yul\":738:863   */\n      swap2\n      swap1\n      pop\n      jump\t// out\n        /* \"#utility.yul\":869:994   */\n    tag_60:\n        /* \"#utility.yul\":924:933   */\n      0x00\n        /* \"#utility.yul\":957:988   */\n      tag_75\n        /* \"#utility.yul\":982:987   */\n      dup3\n        /* \"#utility.yul\":957:988   */\n      tag_59\n      jump\t// in\n    tag_75:\n        /* \"#utility.yul\":944:988   */\n      swap1\n      pop\n        /* \"#utility.yul\":869:994   */\n      swap2\n      swap1\n      pop\n      jump\t// out\n        /* \"#utility.yul\":1000:1141   */\n    tag_61:\n        /* \"#utility.yul\":1092:1134   */\n      tag_77\n        /* \"#utility.yul\":1128:1133   */\n      dup2\n        /* \"#utility.yul\":1092:1134   */\n      tag_60\n      jump\t// in\n    tag_77:\n        /* \"#utility.yul\":1087:1090   */\n      dup3\n        /* \"#utility.yul\":1080:1135   */\n      mstore\n        /* \"#utility.yul\":1000:1141   */\n      pop\n      pop\n      jump\t// out\n        /* \"#utility.yul\":1147:1379   */\n    tag_26:\n        /* \"#utility.yul\":1245:1249   */\n      0x00\n        /* \"#utility.yul\":1283:1285   */\n      0x20\n        /* \"#utility.yul\":1272:1281   */\n      dup3\n        /* \"#utility.yul\":1268:1286   */\n      add\n        /* \"#utility.yul\":1260:1286   */\n      swap1\n      pop\n        /* \"#utility.yul\":1296:1372   */\n      tag_79\n        /* \"#utility.yul\":1369:1370   */\n      0x00\n        /* \"#utility.yul\":1358:1367   */\n      dup4\n        /* \"#utility.yul\":1354:1371   */\n      add\n        /* \"#utility.yul\":1345:1351   */\n      dup5\n        /* \"#utility.yul\":1296:1372   */\n      tag_61\n      jump\t// in\n    tag_79:\n        /* \"#utility.yul\":1147:1379   */\n      swap3\n      swap2\n      pop\n      pop\n      jump\t// out\n\n    auxdata: 0xa26469706673582212204cb9dfa2678d322a8379455ecaaa479a2df870c273e53968ace14ba716b1469764736f6c634300081a0033\n}\n",
				"bytecode": {
					"linkReferences": {},
					"object": "6080604052348015600e575f80fd5b505f805f6101000a81548160ff02191690836002811115602f57602e6038565b5b02179055506065565b7f4e487b71000000000000000000000000000000000000000000000000000000005f52602160045260245ffd5b610346806100725f395ff3fe608060405234801561000f575f80fd5b506004361061007b575f3560e01c8063a69df4b511610059578063a69df4b5146100d9578063c19d93fb146100e3578063d826f88f14610101578063f83d08ba1461010b5761007b565b806322f3e2d41461007f5780638380edb71461009d578063a4e2d634146100bb575b5f80fd5b610087610115565b604051610094919061026b565b60405180910390f35b6100a561014e565b6040516100b2919061026b565b60405180910390f35b6100c3610187565b6040516100d0919061026b565b60405180910390f35b6100e16101c1565b005b6100eb6101ec565b6040516100f891906102f7565b60405180910390f35b6101096101fc565b005b610113610226565b005b5f80600281111561012957610128610284565b5b5f8054906101000a900460ff16600281111561014857610147610284565b5b14905090565b5f60028081111561016257610161610284565b5b5f8054906101000a900460ff16600281111561018157610180610284565b5b14905090565b5f6001600281111561019c5761019b610284565b5b5f8054906101000a900460ff1660028111156101bb576101ba610284565b5b14905090565b60025f806101000a81548160ff021916908360028111156101e5576101e4610284565b5b0217905550565b5f8054906101000a900460ff1681565b5f805f6101000a81548160ff0219169083600281111561021f5761021e610284565b5b0217905550565b60015f806101000a81548160ff0219169083600281111561024a57610249610284565b5b0217905550565b5f8115159050919050565b61026581610251565b82525050565b5f60208201905061027e5f83018461025c565b92915050565b7f4e487b71000000000000000000000000000000000000000000000000000000005f52602160045260245ffd5b600381106102c2576102c1610284565b5b50565b5f8190506102d2826102b1565b919050565b5f6102e1826102c5565b9050919050565b6102f1816102d7565b82525050565b5f60208201905061030a5f8301846102e8565b9291505056fea26469706673582212204cb9dfa2678d322a8379455ecaaa479a2df870c273e53968ace14ba716b1469764736f6c634300081a0033",
					"opcodes": "PUSH1 0x80 PUSH1 0x40 MSTORE CALLVALUE DUP1 ISZERO PUSH1 0xE JUMPI PUSH0 DUP1 REVERT JUMPDEST POP PUSH0 DUP1 PUSH0 PUSH2 0x100 EXP DUP2 SLOAD DUP2 PUSH1 0xFF MUL NOT AND SWAP1 DUP4 PUSH1 0x2 DUP2 GT ISZERO PUSH1 0x2F JUMPI PUSH1 0x2E PUSH1 0x38 JUMP JUMPDEST JUMPDEST MUL OR SWAP1 SSTORE POP PUSH1 0x65 JUMP JUMPDEST PUSH32 0x4E487B7100000000000000000000000000000000000000000000000000000000 PUSH0 MSTORE PUSH1 0x21 PUSH1 0x4 MSTORE PUSH1 0x24 PUSH0 REVERT JUMPDEST PUSH2 0x346 DUP1 PUSH2 0x72 PUSH0 CODECOPY PUSH0 RETURN INVALID PUSH1 0x80 PUSH1 0x40 MSTORE CALLVALUE DUP1 ISZERO PUSH2 0xF JUMPI PUSH0 DUP1 REVERT JUMPDEST POP PUSH1 0x4 CALLDATASIZE LT PUSH2 0x7B JUMPI PUSH0 CALLDATALOAD PUSH1 0xE0 SHR DUP1 PUSH4 0xA69DF4B5 GT PUSH2 0x59 JUMPI DUP1 PUSH4 0xA69DF4B5 EQ PUSH2 0xD9 JUMPI DUP1 PUSH4 0xC19D93FB EQ PUSH2 0xE3 JUMPI DUP1 PUSH4 0xD826F88F EQ PUSH2 0x101 JUMPI DUP1 PUSH4 0xF83D08BA EQ PUSH2 0x10B JUMPI PUSH2 0x7B JUMP JUMPDEST DUP1 PUSH4 0x22F3E2D4 EQ PUSH2 0x7F JUMPI DUP1 PUSH4 0x8380EDB7 EQ PUSH2 0x9D JUMPI DUP1 PUSH4 0xA4E2D634 EQ PUSH2 0xBB JUMPI JUMPDEST PUSH0 DUP1 REVERT JUMPDEST PUSH2 0x87 PUSH2 0x115 JUMP JUMPDEST PUSH1 0x40 MLOAD PUSH2 0x94 SWAP2 SWAP1 PUSH2 0x26B JUMP JUMPDEST PUSH1 0x40 MLOAD DUP1 SWAP2 SUB SWAP1 RETURN JUMPDEST PUSH2 0xA5 PUSH2 0x14E JUMP JUMPDEST PUSH1 0x40 MLOAD PUSH2 0xB2 SWAP2 SWAP1 PUSH2 0x26B JUMP JUMPDEST PUSH1 0x40 MLOAD DUP1 SWAP2 SUB SWAP1 RETURN JUMPDEST PUSH2 0xC3 PUSH2 0x187 JUMP JUMPDEST PUSH1 0x40 MLOAD PUSH2 0xD0 SWAP2 SWAP1 PUSH2 0x26B JUMP JUMPDEST PUSH1 0x40 MLOAD DUP1 SWAP2 SUB SWAP1 RETURN JUMPDEST PUSH2 0xE1 PUSH2 0x1C1 JUMP JUMPDEST STOP JUMPDEST PUSH2 0xEB PUSH2 0x1EC JUMP JUMPDEST PUSH1 0x40 MLOAD PUSH2 0xF8 SWAP2 SWAP1 PUSH2 0x2F7 JUMP JUMPDEST PUSH1 0x40 MLOAD DUP1 SWAP2 SUB SWAP1 RETURN JUMPDEST PUSH2 0x109 PUSH2 0x1FC JUMP JUMPDEST STOP JUMPDEST PUSH2 0x113 PUSH2 0x226 JUMP JUMPDEST STOP JUMPDEST PUSH0 DUP1 PUSH1 0x2 DUP2 GT ISZERO PUSH2 0x129 JUMPI PUSH2 0x128 PUSH2 0x284 JUMP JUMPDEST JUMPDEST PUSH0 DUP1 SLOAD SWAP1 PUSH2 0x100 EXP SWAP1 DIV PUSH1 0xFF AND PUSH1 0x2 DUP2 GT ISZERO PUSH2 0x148 JUMPI PUSH2 0x147 PUSH2 0x284 JUMP JUMPDEST JUMPDEST EQ SWAP1 POP SWAP1 JUMP JUMPDEST PUSH0 PUSH1 0x2 DUP1 DUP2 GT ISZERO PUSH2 0x162 JUMPI PUSH2 0x161 PUSH2 0x284 JUMP JUMPDEST JUMPDEST PUSH0 DUP1 SLOAD SWAP1 PUSH2 0x100 EXP SWAP1 DIV PUSH1 0xFF AND PUSH1 0x2 DUP2 GT ISZERO PUSH2 0x181 JUMPI PUSH2 0x180 PUSH2 0x284 JUMP JUMPDEST JUMPDEST EQ SWAP1 POP SWAP1 JUMP JUMPDEST PUSH0 PUSH1 0x1 PUSH1 0x2 DUP2 GT ISZERO PUSH2 0x19C JUMPI PUSH2 0x19B PUSH2 0x284 JUMP JUMPDEST JUMPDEST PUSH0 DUP1 SLOAD SWAP1 PUSH2 0x100 EXP SWAP1 DIV PUSH1 0xFF AND PUSH1 0x2 DUP2 GT ISZERO PUSH2 0x1BB JUMPI PUSH2 0x1BA PUSH2 0x284 JUMP JUMPDEST JUMPDEST EQ SWAP1 POP SWAP1 JUMP JUMPDEST PUSH1 0x2 PUSH0 DUP1 PUSH2 0x100 EXP DUP2 SLOAD DUP2 PUSH1 0xFF MUL NOT AND SWAP1 DUP4 PUSH1 0x2 DUP2 GT ISZERO PUSH2 0x1E5 JUMPI PUSH2 0x1E4 PUSH2 0x284 JUMP JUMPDEST JUMPDEST MUL OR SWAP1 SSTORE POP JUMP JUMPDEST PUSH0 DUP1 SLOAD SWAP1 PUSH2 0x100 EXP SWAP1 DIV PUSH1 0xFF AND DUP2 JUMP JUMPDEST PUSH0 DUP1 PUSH0 PUSH2 0x100 EXP DUP2 SLOAD DUP2 PUSH1 0xFF MUL NOT AND SWAP1 DUP4 PUSH1 0x2 DUP2 GT ISZERO PUSH2 0x21F JUMPI PUSH2 0x21E PUSH2 0x284 JUMP JUMPDEST JUMPDEST MUL OR SWAP1 SSTORE POP JUMP JUMPDEST PUSH1 0x1 PUSH0 DUP1 PUSH2 0x100 EXP DUP2 SLOAD DUP2 PUSH1 0xFF MUL NOT AND SWAP1 DUP4 PUSH1 0x2 DUP2 GT ISZERO PUSH2 0x24A JUMPI PUSH2 0x249 PUSH2 0x284 JUMP JUMPDEST JUMPDEST MUL OR SWAP1 SSTORE POP JUMP JUMPDEST PUSH0 DUP2 ISZERO ISZERO SWAP1 POP SWAP2 SWAP1 POP JUMP JUMPDEST PUSH2 0x265 DUP2 PUSH2 0x251 JUMP JUMPDEST DUP3 MSTORE POP POP JUMP JUMPDEST PUSH0 PUSH1 0x20 DUP3 ADD SWAP1 POP PUSH2 0x27E PUSH0 DUP4 ADD DUP5 PUSH2 0x25C JUMP JUMPDEST SWAP3 SWAP2 POP POP JUMP JUMPDEST PUSH32 0x4E487B7100000000000000000000000000000000000000000000000000000000 PUSH0 MSTORE PUSH1 0x21 PUSH1 0x4 MSTORE PUSH1 0x24 PUSH0 REVERT JUMPDEST PUSH1 0x3 DUP2 LT PUSH2 0x2C2 JUMPI PUSH2 0x2C1 PUSH2 0x284 JUMP JUMPDEST JUMPDEST POP JUMP JUMPDEST PUSH0 DUP2 SWAP1 POP PUSH2 0x2D2 DUP3 PUSH2 0x2B1 JUMP JUMPDEST SWAP2 SWAP1 POP JUMP JUMPDEST PUSH0 PUSH2 0x2E1 DUP3 PUSH2 0x2C5 JUMP JUMPDEST SWAP1 POP SWAP2 SWAP1 POP JUMP JUMPDEST PUSH2 0x2F1 DUP2 PUSH2 0x2D7 JUMP JUMPDEST DUP3 MSTORE POP POP JUMP JUMPDEST PUSH0 PUSH1 0x20 DUP3 ADD SWAP1 POP PUSH2 0x30A PUSH0 DUP4 ADD DUP5 PUSH2 0x2E8 JUMP JUMPDEST SWAP3 SWAP2 POP POP JUMP INVALID LOG2 PUSH5 0x6970667358 0x22 SLT KECCAK256 0x4C 0xB9 0xDF LOG2 PUSH8 0x8D322A8379455ECA 0xAA SELFBALANCE SWAP11 0x2D 0xF8 PUSH17 0xC273E53968ACE14BA716B1469764736F6C PUSH4 0x4300081A STOP CALLER "
				},
				"gasEstimates": {
					"creation": {
						"codeDepositCost": "167600",
						"executionCost": "24509",
						"totalCost": "192109"
					},
					"external": {
						"isActive()": "2529",
						"isLocked()": "2573",
						"isUnlocked()": "2551",
						"lock()": "24495",
						"reset()": "24472",
						"state()": "2573",
						"unlock()": "24429"
					}
				},
				"methodIdentifiers": {
					"isActive()": "22f3e2d4",
					"isLocked()": "a4e2d634",
					"isUnlocked()": "8380edb7",
					"lock()": "f83d08ba",
					"reset()": "d826f88f",
					"state()": "c19d93fb",
					"unlock()": "a69df4b5"
				}
			},
			"storageLayout": {
				"storage": [
					{
						"astId": 8,
						"contract": "Enum.sol:Enum",
						"label": "state",
						"offset": 0,
						"slot": "0",
						"type": "t_enum(State)5"
					}
				],
				"types": {
					"t_enum(State)5": {
						"encoding": "inplace",
						"label": "enum Enum.State",
						"numberOfBytes": "1"
					}
				}
			},
			"userdoc": {
				"kind": "user",
				"methods": {},
				"version": 1
			}
		}
	}
}