{
	"FirstHelloWorld.sol": {
		"HelloWorld": {
			"abi": [
				{
					"inputs": [],
					"name": "returnHelloWorld",
					"outputs": [
						{
							"internalType": "string",
							"name": "",
							"type": "string"
						},
						{
							"internalType": "string",
							"name": "",
							"type": "string"
						}
					],
					"stateMutability": "pure",
					"type": "function"
				}
			],
			"devdoc": {
				"kind": "dev",
				"methods": {},
				"version": 1
			},
			"evm": {
				"assembly": "    /* \"FirstHelloWorld.sol\":57:237  contract HelloWorld{... */\n  mstore(0x40, 0x80)\n  callvalue\n  dup1\n  iszero\n  tag_1\n  jumpi\n  0x00\n  dup1\n  revert\ntag_1:\n  pop\n  dataSize(sub_0)\n  dup1\n  dataOffset(sub_0)\n  0x00\n  codecopy\n  0x00\n  return\nstop\n\nsub_0: assembly {\n        /* \"FirstHelloWorld.sol\":57:237  contract HelloWorld{... */\n      mstore(0x40, 0x80)\n      callvalue\n      dup1\n      iszero\n      tag_1\n      jumpi\n      0x00\n      dup1\n      revert\n    tag_1:\n      pop\n      jumpi(tag_2, lt(calldatasize, 0x04))\n      shr(0xe0, calldataload(0x00))\n      dup1\n      0xe04eae45\n      eq\n      tag_3\n      jumpi\n    tag_2:\n      0x00\n      dup1\n      revert\n        /* \"FirstHelloWorld.sol\":83:235  function  returnHelloWorld()public pure returns(string memory,string memory){... */\n    tag_3:\n      tag_4\n      tag_5\n      jump\t// in\n    tag_4:\n      mload(0x40)\n      tag_6\n      swap3\n      swap2\n      swap1\n      tag_7\n      jump\t// in\n    tag_6:\n      mload(0x40)\n      dup1\n      swap2\n      sub\n      swap1\n      return\n    tag_5:\n        /* \"FirstHelloWorld.sol\":131:144  string memory */\n      0x60\n        /* \"FirstHelloWorld.sol\":145:158  string memory */\n      dup1\n        /* \"FirstHelloWorld.sol\":169:185  string memory s1 */\n      0x00\n        /* \"FirstHelloWorld.sol\":169:193  string memory s1=\"hello\" */\n      mload(0x40)\n      dup1\n      0x40\n      add\n      0x40\n      mstore\n      dup1\n      0x05\n      dup2\n      mstore\n      0x20\n      add\n      0x68656c6c6f000000000000000000000000000000000000000000000000000000\n      dup2\n      mstore\n      pop\n      swap1\n      pop\n        /* \"FirstHelloWorld.sol\":225:227  s1 */\n      dup1\n        /* \"FirstHelloWorld.sol\":203:228  return (\"Hello World\",s1) */\n      mload(0x40)\n      dup1\n      0x40\n      add\n      0x40\n      mstore\n      dup1\n      0x0b\n      dup2\n      mstore\n      0x20\n      add\n      0x48656c6c6f20576f726c64000000000000000000000000000000000000000000\n      dup2\n      mstore\n      pop\n      swap1\n      swap3\n      pop\n      swap3\n      pop\n      pop\n        /* \"FirstHelloWorld.sol\":83:235  function  returnHelloWorld()public pure returns(string memory,string memory){... */\n      swap1\n      swap2\n      jump\t// out\n        /* \"#utility.yul\":7:106   */\n    tag_9:\n        /* \"#utility.yul\":59:65   */\n      0x00\n        /* \"#utility.yul\":93:98   */\n      dup2\n        /* \"#utility.yul\":87:99   */\n      mload\n        /* \"#utility.yul\":77:99   */\n      swap1\n      pop\n        /* \"#utility.yul\":7:106   */\n      swap2\n      swap1\n      pop\n      jump\t// out\n        /* \"#utility.yul\":112:281   */\n    tag_10:\n        /* \"#utility.yul\":196:207   */\n      0x00\n        /* \"#utility.yul\":230:236   */\n      dup3\n        /* \"#utility.yul\":225:228   */\n      dup3\n        /* \"#utility.yul\":218:237   */\n      mstore\n        /* \"#utility.yul\":270:274   */\n      0x20\n        /* \"#utility.yul\":265:268   */\n      dup3\n        /* \"#utility.yul\":261:275   */\n      add\n        /* \"#utility.yul\":246:275   */\n      swap1\n      pop\n        /* \"#utility.yul\":112:281   */\n      swap3\n      swap2\n      pop\n      pop\n      jump\t// out\n        /* \"#utility.yul\":287:426   */\n    tag_11:\n        /* \"#utility.yul\":376:382   */\n      dup3\n        /* \"#utility.yul\":371:374   */\n      dup2\n        /* \"#utility.yul\":366:369   */\n      dup4\n        /* \"#utility.yul\":360:383   */\n      mcopy\n        /* \"#utility.yul\":417:418   */\n      0x00\n        /* \"#utility.yul\":408:414   */\n      dup4\n        /* \"#utility.yul\":403:406   */\n      dup4\n        /* \"#utility.yul\":399:415   */\n      add\n        /* \"#utility.yul\":392:419   */\n      mstore\n        /* \"#utility.yul\":287:426   */\n      pop\n      pop\n      pop\n      jump\t// out\n        /* \"#utility.yul\":432:534   */\n    tag_12:\n        /* \"#utility.yul\":473:479   */\n      0x00\n        /* \"#utility.yul\":524:526   */\n      0x1f\n        /* \"#utility.yul\":520:527   */\n      not\n        /* \"#utility.yul\":515:517   */\n      0x1f\n        /* \"#utility.yul\":508:513   */\n      dup4\n        /* \"#utility.yul\":504:518   */\n      add\n        /* \"#utility.yul\":500:528   */\n      and\n        /* \"#utility.yul\":490:528   */\n      swap1\n      pop\n        /* \"#utility.yul\":432:534   */\n      swap2\n      swap1\n      pop\n      jump\t// out\n        /* \"#utility.yul\":540:917   */\n    tag_13:\n        /* \"#utility.yul\":628:631   */\n      0x00\n        /* \"#utility.yul\":656:695   */\n      tag_20\n        /* \"#utility.yul\":689:694   */\n      dup3\n        /* \"#utility.yul\":656:695   */\n      tag_9\n      jump\t// in\n    tag_20:\n        /* \"#utility.yul\":711:782   */\n      tag_21\n        /* \"#utility.yul\":775:781   */\n      dup2\n        /* \"#utility.yul\":770:773   */\n      dup6\n        /* \"#utility.yul\":711:782   */\n      tag_10\n      jump\t// in\n    tag_21:\n        /* \"#utility.yul\":704:782   */\n      swap4\n      pop\n        /* \"#utility.yul\":791:856   */\n      tag_22\n        /* \"#utility.yul\":849:855   */\n      dup2\n        /* \"#utility.yul\":844:847   */\n      dup6\n        /* \"#utility.yul\":837:841   */\n      0x20\n        /* \"#utility.yul\":830:835   */\n      dup7\n        /* \"#utility.yul\":826:842   */\n      add\n        /* \"#utility.yul\":791:856   */\n      tag_11\n      jump\t// in\n    tag_22:\n        /* \"#utility.yul\":881:910   */\n      tag_23\n        /* \"#utility.yul\":903:909   */\n      dup2\n        /* \"#utility.yul\":881:910   */\n      tag_12\n      jump\t// in\n    tag_23:\n        /* \"#utility.yul\":876:879   */\n      dup5\n        /* \"#utility.yul\":872:911   */\n      add\n        /* \"#utility.yul\":865:911   */\n      swap2\n      pop\n        /* \"#utility.yul\":632:917   */\n      pop\n        /* \"#utility.yul\":540:917   */\n      swap3\n      swap2\n      pop\n      pop\n      jump\t// out\n        /* \"#utility.yul\":923:1437   */\n    tag_7:\n        /* \"#utility.yul\":1084:1088   */\n      0x00\n        /* \"#utility.yul\":1122:1124   */\n      0x40\n        /* \"#utility.yul\":1111:1120   */\n      dup3\n        /* \"#utility.yul\":1107:1125   */\n      add\n        /* \"#utility.yul\":1099:1125   */\n      swap1\n      pop\n        /* \"#utility.yul\":1171:1180   */\n      dup2\n        /* \"#utility.yul\":1165:1169   */\n      dup2\n        /* \"#utility.yul\":1161:1181   */\n      sub\n        /* \"#utility.yul\":1157:1158   */\n      0x00\n        /* \"#utility.yul\":1146:1155   */\n      dup4\n        /* \"#utility.yul\":1142:1159   */\n      add\n        /* \"#utility.yul\":1135:1182   */\n      mstore\n        /* \"#utility.yul\":1199:1277   */\n      tag_25\n        /* \"#utility.yul\":1272:1276   */\n      dup2\n        /* \"#utility.yul\":1263:1269   */\n      dup6\n        /* \"#utility.yul\":1199:1277   */\n      tag_13\n      jump\t// in\n    tag_25:\n        /* \"#utility.yul\":1191:1277   */\n      swap1\n      pop\n        /* \"#utility.yul\":1324:1333   */\n      dup2\n        /* \"#utility.yul\":1318:1322   */\n      dup2\n        /* \"#utility.yul\":1314:1334   */\n      sub\n        /* \"#utility.yul\":1309:1311   */\n      0x20\n        /* \"#utility.yul\":1298:1307   */\n      dup4\n        /* \"#utility.yul\":1294:1312   */\n      add\n        /* \"#utility.yul\":1287:1335   */\n      mstore\n        /* \"#utility.yul\":1352:1430   */\n      tag_26\n        /* \"#utility.yul\":1425:1429   */\n      dup2\n        /* \"#utility.yul\":1416:1422   */\n      dup5\n        /* \"#utility.yul\":1352:1430   */\n      tag_13\n      jump\t// in\n    tag_26:\n        /* \"#utility.yul\":1344:1430   */\n      swap1\n      pop\n        /* \"#utility.yul\":923:1437   */\n      swap4\n      swap3\n      pop\n      pop\n      pop\n      jump\t// out\n\n    auxdata: 0xa26469706673582212208a635e9c92750a3726df298044768682d043f4896e5b2b8b8222d17e6cffb5c464736f6c634300081a0033\n}\n",
				"bytecode": {
					"linkReferences": {},
					"object": "6080604052348015600e575f80fd5b506101a48061001c5f395ff3fe608060405234801561000f575f80fd5b5060043610610029575f3560e01c8063e04eae451461002d575b5f80fd5b61003561004c565b604051610043929190610139565b60405180910390f35b6060805f6040518060400160405280600581526020017f68656c6c6f0000000000000000000000000000000000000000000000000000008152509050806040518060400160405280600b81526020017f48656c6c6f20576f726c640000000000000000000000000000000000000000008152509092509250509091565b5f81519050919050565b5f82825260208201905092915050565b8281835e5f83830152505050565b5f601f19601f8301169050919050565b5f61010b826100c9565b61011581856100d3565b93506101258185602086016100e3565b61012e816100f1565b840191505092915050565b5f6040820190508181035f8301526101518185610101565b905081810360208301526101658184610101565b9050939250505056fea26469706673582212208a635e9c92750a3726df298044768682d043f4896e5b2b8b8222d17e6cffb5c464736f6c634300081a0033",
					"opcodes": "PUSH1 0x80 PUSH1 0x40 MSTORE CALLVALUE DUP1 ISZERO PUSH1 0xE JUMPI PUSH0 DUP1 REVERT JUMPDEST POP PUSH2 0x1A4 DUP1 PUSH2 0x1C PUSH0 CODECOPY PUSH0 RETURN INVALID PUSH1 0x80 PUSH1 0x40 MSTORE CALLVALUE DUP1 ISZERO PUSH2 0xF JUMPI PUSH0 DUP1 REVERT JUMPDEST POP PUSH1 0x4 CALLDATASIZE LT PUSH2 0x29 JUMPI PUSH0 CALLDATALOAD PUSH1 0xE0 SHR DUP1 PUSH4 0xE04EAE45 EQ PUSH2 0x2D JUMPI JUMPDEST PUSH0 DUP1 REVERT JUMPDEST PUSH2 0x35 PUSH2 0x4C JUMP JUMPDEST PUSH1 0x40 MLOAD PUSH2 0x43 SWAP3 SWAP2 SWAP1 PUSH2 0x139 JUMP JUMPDEST PUSH1 0x40 MLOAD DUP1 SWAP2 SUB SWAP1 RETURN JUMPDEST PUSH1 0x60 DUP1 PUSH0 PUSH1 0x40 MLOAD DUP1 PUSH1 0x40 ADD PUSH1 0x40 MSTORE DUP1 PUSH1 0x5 DUP2 MSTORE PUSH1 0x20 ADD PUSH32 0x68656C6C6F000000000000000000000000000000000000000000000000000000 DUP2 MSTORE POP SWAP1 POP DUP1 PUSH1 0x40 MLOAD DUP1 PUSH1 0x40 ADD PUSH1 0x40 MSTORE DUP1 PUSH1 0xB DUP2 MSTORE PUSH1 0x20 ADD PUSH32 0x48656C6C6F20576F726C64000000000000000000000000000000000000000000 DUP2 MSTORE POP SWAP1 SWAP3 POP SWAP3 POP POP SWAP1 SWAP2 JUMP JUMPDEST PUSH0 DUP2 MLOAD SWAP1 POP SWAP2 SWAP1 POP JUMP JUMPDEST PUSH0 DUP3 DUP3 MSTORE PUSH1 0x20 DUP3 ADD SWAP1 POP SWAP3 SWAP2 POP POP JUMP JUMPDEST DUP3 DUP2 DUP4 MCOPY PUSH0 DUP4 DUP4 ADD MSTORE POP POP POP JUMP JUMPDEST PUSH0 PUSH1 0x1F NOT PUSH1 0x1F DUP4 ADD AND SWAP1 POP SWAP2 SWAP1 POP JUMP JUMPDEST PUSH0 PUSH2 0x10B DUP3 PUSH2 0xC9 JUMP JUMPDEST PUSH2 0x115 DUP2 DUP6 PUSH2 0xD3 JUMP JUMPDEST SWAP4 POP PUSH2 0x125 DUP2 DUP6 PUSH1 0x20 DUP7 ADD PUSH2 0xE3 JUMP JUMPDEST PUSH2 0x12E DUP2 PUSH2 0xF1 JUMP JUMPDEST DUP5 ADD SWAP2 POP POP SWAP3 SWAP2 POP POP JUMP JUMPDEST PUSH0 PUSH1 0x40 DUP3 ADD SWAP1 POP DUP2 DUP2 SUB PUSH0 DUP4 ADD MSTORE PUSH2 0x151 DUP2 DUP6 PUSH2 0x101 JUMP JUMPDEST SWAP1 POP DUP2 DUP2 SUB PUSH1 0x20 DUP4 ADD MSTORE PUSH2 0x165 DUP2 DUP5 PUSH2 0x101 JUMP JUMPDEST SWAP1 POP SWAP4 SWAP3 POP POP POP JUMP INVALID LOG2 PUSH5 0x6970667358 0x22 SLT KECCAK256 DUP11 PUSH4 0x5E9C9275 EXP CALLDATACOPY 0x26 0xDF 0x29 DUP1 PREVRANDAO PUSH23 0x8682D043F4896E5B2B8B8222D17E6CFFB5C464736F6C63 NUMBER STOP ADDMOD BYTE STOP CALLER "
				},
				"gasEstimates": {
					"creation": {
						"codeDepositCost": "84000",
						"executionCost": "133",
						"totalCost": "84133"
					},
					"external": {
						"returnHelloWorld()": "infinite"
					}
				},
				"methodIdentifiers": {
					"returnHelloWorld()": "e04eae45"
				}
			},
			"storageLayout": {
				"storage": [],
				"types": null
			},
			"userdoc": {
				"kind": "user",
				"methods": {},
				"version": 1
			}
		}
	}
}