{
	"ReceiveTest.sol": {
		"ReceiveTest": {
			"abi": [
				{
					"inputs": [],
					"stateMutability": "payable",
					"type": "constructor"
				},
				{
					"anonymous": false,
					"inputs": [
						{
							"indexed": false,
							"internalType": "address",
							"name": "",
							"type": "address"
						},
						{
							"indexed": false,
							"internalType": "uint256",
							"name": "",
							"type": "uint256"
						}
					],
					"name": "logBlance",
					"type": "event"
				},
				{
					"inputs": [],
					"name": "transerM",
					"outputs": [
						{
							"internalType": "uint256",
							"name": "",
							"type": "uint256"
						},
						{
							"internalType": "uint256",
							"name": "",
							"type": "uint256"
						}
					],
					"stateMutability": "nonpayable",
					"type": "function"
				},
				{
					"stateMutability": "payable",
					"type": "receive"
				}
			],
			"devdoc": {
				"kind": "dev",
				"methods": {},
				"version": 1
			},
			"evm": {
				"assembly": "    /* \"ReceiveTest.sol\":57:742  contract ReceiveTest{... */\n  mstore(0x40, 0x80)\n    /* \"ReceiveTest.sol\":182:186  this */\n  address\n    /* \"ReceiveTest.sol\":141:188  address payable receiver=payable(address(this)) */\n  0x00\n  dup1\n  0x0100\n  exp\n  dup2\n  sload\n  dup2\n  0xffffffffffffffffffffffffffffffffffffffff\n  mul\n  not\n  and\n  swap1\n  dup4\n  0xffffffffffffffffffffffffffffffffffffffff\n  and\n  mul\n  or\n  swap1\n  sstore\n  pop\n    /* \"ReceiveTest.sol\":232:274  0x7E5F4552091A69125d5DfCb7b8C2659029395Bdf */\n  0x7e5f4552091a69125d5dfcb7b8c2659029395bdf\n    /* \"ReceiveTest.sol\":190:276  address payable receiver2=payable(address(0x7E5F4552091A69125d5DfCb7b8C2659029395Bdf)) */\n  0x01\n  exp(0x0100, 0x00)\n  dup2\n  sload\n  dup2\n  0xffffffffffffffffffffffffffffffffffffffff\n  mul\n  not\n  and\n  swap1\n  dup4\n  0xffffffffffffffffffffffffffffffffffffffff\n  and\n  mul\n  or\n  swap1\n  sstore\n  pop\n    /* \"ReceiveTest.sol\":292:299  2 ether */\n  0x1bc16d674ec80000\n    /* \"ReceiveTest.sol\":278:299  uint amount = 2 ether */\n  0x02\n  sstore\n    /* \"ReceiveTest.sol\":57:742  contract ReceiveTest{... */\n  dataSize(sub_0)\n  dup1\n  dataOffset(sub_0)\n  0x00\n  codecopy\n  0x00\n  return\nstop\n\nsub_0: assembly {\n        /* \"ReceiveTest.sol\":57:742  contract ReceiveTest{... */\n      mstore(0x40, 0x80)\n      jumpi(tag_1, lt(calldatasize, 0x04))\n      shr(0xe0, calldataload(0x00))\n      dup1\n      0x919a7682\n      eq\n      tag_3\n      jumpi\n      jump(tag_2)\n    tag_1:\n      jumpi(tag_2, calldatasize)\n      stop\n    tag_2:\n      0x00\n      dup1\n      revert\n        /* \"ReceiveTest.sol\":301:708  function transerM()public returns(uint,uint) {... */\n    tag_3:\n      callvalue\n      dup1\n      iszero\n      tag_6\n      jumpi\n      0x00\n      dup1\n      revert\n    tag_6:\n      pop\n      tag_7\n      tag_8\n      jump\t// in\n    tag_7:\n      mload(0x40)\n      tag_9\n      swap3\n      swap2\n      swap1\n      tag_10\n      jump\t// in\n    tag_9:\n      mload(0x40)\n      dup1\n      swap2\n      sub\n      swap1\n      return\n    tag_8:\n        /* \"ReceiveTest.sol\":335:339  uint */\n      0x00\n        /* \"ReceiveTest.sol\":340:344  uint */\n      dup1\n        /* \"ReceiveTest.sol\":387:393  amount */\n      sload(0x02)\n        /* \"ReceiveTest.sol\":364:385  address(this).balance */\n      selfbalance\n        /* \"ReceiveTest.sol\":364:393  address(this).balance>=amount */\n      lt\n      iszero\n        /* \"ReceiveTest.sol\":356:409  require(address(this).balance>=amount,\"insufficient\") */\n      tag_12\n      jumpi\n      mload(0x40)\n      0x08c379a000000000000000000000000000000000000000000000000000000000\n      dup2\n      mstore\n      0x04\n      add\n      tag_13\n      swap1\n      tag_14\n      jump\t// in\n    tag_13:\n      mload(0x40)\n      dup1\n      swap2\n      sub\n      swap1\n      revert\n    tag_12:\n        /* \"ReceiveTest.sol\":419:427  receiver */\n      0x00\n      dup1\n      sload\n      swap1\n      0x0100\n      exp\n      swap1\n      div\n      0xffffffffffffffffffffffffffffffffffffffff\n      and\n        /* \"ReceiveTest.sol\":419:436  receiver.transfer */\n      0xffffffffffffffffffffffffffffffffffffffff\n      and\n        /* \"ReceiveTest.sol\":419:444  receiver.transfer(amount) */\n      0x08fc\n        /* \"ReceiveTest.sol\":437:443  amount */\n      sload(0x02)\n        /* \"ReceiveTest.sol\":419:444  receiver.transfer(amount) */\n      swap1\n      dup2\n      iszero\n      mul\n      swap1\n      mload(0x40)\n      0x00\n      mload(0x40)\n      dup1\n      dup4\n      sub\n      dup2\n      dup6\n      dup9\n      dup9\n      call\n      swap4\n      pop\n      pop\n      pop\n      pop\n      iszero\n      dup1\n      iszero\n      tag_16\n      jumpi\n      returndatasize\n      0x00\n      dup1\n      returndatacopy\n      revert(0x00, returndatasize)\n    tag_16:\n      pop\n        /* \"ReceiveTest.sol\":459:495  logBlance(receiver,receiver.balance) */\n      0x566b98e0c9433567b3b48c43db4762d4bba349f60f013e96f4c1b244d9339077\n        /* \"ReceiveTest.sol\":469:477  receiver */\n      0x00\n      dup1\n      sload\n      swap1\n      0x0100\n      exp\n      swap1\n      div\n      0xffffffffffffffffffffffffffffffffffffffff\n      and\n        /* \"ReceiveTest.sol\":478:486  receiver */\n      0x00\n      dup1\n      sload\n      swap1\n      0x0100\n      exp\n      swap1\n      div\n      0xffffffffffffffffffffffffffffffffffffffff\n      and\n        /* \"ReceiveTest.sol\":478:494  receiver.balance */\n      0xffffffffffffffffffffffffffffffffffffffff\n      and\n      balance\n        /* \"ReceiveTest.sol\":459:495  logBlance(receiver,receiver.balance) */\n      mload(0x40)\n      tag_17\n      swap3\n      swap2\n      swap1\n      tag_18\n      jump\t// in\n    tag_17:\n      mload(0x40)\n      dup1\n      swap2\n      sub\n      swap1\n      log1\n        /* \"ReceiveTest.sol\":505:514  receiver2 */\n      0x01\n      0x00\n      swap1\n      sload\n      swap1\n      0x0100\n      exp\n      swap1\n      div\n      0xffffffffffffffffffffffffffffffffffffffff\n      and\n        /* \"ReceiveTest.sol\":505:523  receiver2.transfer */\n      0xffffffffffffffffffffffffffffffffffffffff\n      and\n        /* \"ReceiveTest.sol\":505:531  receiver2.transfer(amount) */\n      0x08fc\n        /* \"ReceiveTest.sol\":524:530  amount */\n      sload(0x02)\n        /* \"ReceiveTest.sol\":505:531  receiver2.transfer(amount) */\n      swap1\n      dup2\n      iszero\n      mul\n      swap1\n      mload(0x40)\n      0x00\n      mload(0x40)\n      dup1\n      dup4\n      sub\n      dup2\n      dup6\n      dup9\n      dup9\n      call\n      swap4\n      pop\n      pop\n      pop\n      pop\n      iszero\n      dup1\n      iszero\n      tag_20\n      jumpi\n      returndatasize\n      0x00\n      dup1\n      returndatacopy\n      revert(0x00, returndatasize)\n    tag_20:\n      pop\n        /* \"ReceiveTest.sol\":546:585  logBlance(receiver2, receiver2.balance) */\n      0x566b98e0c9433567b3b48c43db4762d4bba349f60f013e96f4c1b244d9339077\n        /* \"ReceiveTest.sol\":556:565  receiver2 */\n      0x01\n      0x00\n      swap1\n      sload\n      swap1\n      0x0100\n      exp\n      swap1\n      div\n      0xffffffffffffffffffffffffffffffffffffffff\n      and\n        /* \"ReceiveTest.sol\":567:576  receiver2 */\n      0x01\n      0x00\n      swap1\n      sload\n      swap1\n      0x0100\n      exp\n      swap1\n      div\n      0xffffffffffffffffffffffffffffffffffffffff\n      and\n        /* \"ReceiveTest.sol\":567:584  receiver2.balance */\n      0xffffffffffffffffffffffffffffffffffffffff\n      and\n      balance\n        /* \"ReceiveTest.sol\":546:585  logBlance(receiver2, receiver2.balance) */\n      mload(0x40)\n      tag_21\n      swap3\n      swap2\n      swap1\n      tag_18\n      jump\t// in\n    tag_21:\n      mload(0x40)\n      dup1\n      swap2\n      sub\n      swap1\n      log1\n        /* \"ReceiveTest.sol\":670:678  receiver */\n      0x00\n      dup1\n      sload\n      swap1\n      0x0100\n      exp\n      swap1\n      div\n      0xffffffffffffffffffffffffffffffffffffffff\n      and\n        /* \"ReceiveTest.sol\":670:686  receiver.balance */\n      0xffffffffffffffffffffffffffffffffffffffff\n      and\n      balance\n        /* \"ReceiveTest.sol\":687:696  receiver2 */\n      0x01\n      0x00\n      swap1\n      sload\n      swap1\n      0x0100\n      exp\n      swap1\n      div\n      0xffffffffffffffffffffffffffffffffffffffff\n      and\n        /* \"ReceiveTest.sol\":687:704  receiver2.balance */\n      0xffffffffffffffffffffffffffffffffffffffff\n      and\n      balance\n        /* \"ReceiveTest.sol\":662:705  return (receiver.balance,receiver2.balance) */\n      swap2\n      pop\n      swap2\n      pop\n        /* \"ReceiveTest.sol\":301:708  function transerM()public returns(uint,uint) {... */\n      swap1\n      swap2\n      jump\t// out\n        /* \"#utility.yul\":7:84   */\n    tag_22:\n        /* \"#utility.yul\":44:51   */\n      0x00\n        /* \"#utility.yul\":73:78   */\n      dup2\n        /* \"#utility.yul\":62:78   */\n      swap1\n      pop\n        /* \"#utility.yul\":7:84   */\n      swap2\n      swap1\n      pop\n      jump\t// out\n        /* \"#utility.yul\":90:208   */\n    tag_23:\n        /* \"#utility.yul\":177:201   */\n      tag_36\n        /* \"#utility.yul\":195:200   */\n      dup2\n        /* \"#utility.yul\":177:201   */\n      tag_22\n      jump\t// in\n    tag_36:\n        /* \"#utility.yul\":172:175   */\n      dup3\n        /* \"#utility.yul\":165:202   */\n      mstore\n        /* \"#utility.yul\":90:208   */\n      pop\n      pop\n      jump\t// out\n        /* \"#utility.yul\":214:546   */\n    tag_10:\n        /* \"#utility.yul\":335:339   */\n      0x00\n        /* \"#utility.yul\":373:375   */\n      0x40\n        /* \"#utility.yul\":362:371   */\n      dup3\n        /* \"#utility.yul\":358:376   */\n      add\n        /* \"#utility.yul\":350:376   */\n      swap1\n      pop\n        /* \"#utility.yul\":386:457   */\n      tag_38\n        /* \"#utility.yul\":454:455   */\n      0x00\n        /* \"#utility.yul\":443:452   */\n      dup4\n        /* \"#utility.yul\":439:456   */\n      add\n        /* \"#utility.yul\":430:436   */\n      dup6\n        /* \"#utility.yul\":386:457   */\n      tag_23\n      jump\t// in\n    tag_38:\n        /* \"#utility.yul\":467:539   */\n      tag_39\n        /* \"#utility.yul\":535:537   */\n      0x20\n        /* \"#utility.yul\":524:533   */\n      dup4\n        /* \"#utility.yul\":520:538   */\n      add\n        /* \"#utility.yul\":511:517   */\n      dup5\n        /* \"#utility.yul\":467:539   */\n      tag_23\n      jump\t// in\n    tag_39:\n        /* \"#utility.yul\":214:546   */\n      swap4\n      swap3\n      pop\n      pop\n      pop\n      jump\t// out\n        /* \"#utility.yul\":552:721   */\n    tag_24:\n        /* \"#utility.yul\":636:647   */\n      0x00\n        /* \"#utility.yul\":670:676   */\n      dup3\n        /* \"#utility.yul\":665:668   */\n      dup3\n        /* \"#utility.yul\":658:677   */\n      mstore\n        /* \"#utility.yul\":710:714   */\n      0x20\n        /* \"#utility.yul\":705:708   */\n      dup3\n        /* \"#utility.yul\":701:715   */\n      add\n        /* \"#utility.yul\":686:715   */\n      swap1\n      pop\n        /* \"#utility.yul\":552:721   */\n      swap3\n      swap2\n      pop\n      pop\n      jump\t// out\n        /* \"#utility.yul\":727:889   */\n    tag_25:\n        /* \"#utility.yul\":867:881   */\n      0x696e73756666696369656e740000000000000000000000000000000000000000\n        /* \"#utility.yul\":863:864   */\n      0x00\n        /* \"#utility.yul\":855:861   */\n      dup3\n        /* \"#utility.yul\":851:865   */\n      add\n        /* \"#utility.yul\":844:882   */\n      mstore\n        /* \"#utility.yul\":727:889   */\n      pop\n      jump\t// out\n        /* \"#utility.yul\":895:1261   */\n    tag_26:\n        /* \"#utility.yul\":1037:1040   */\n      0x00\n        /* \"#utility.yul\":1058:1125   */\n      tag_43\n        /* \"#utility.yul\":1122:1124   */\n      0x0c\n        /* \"#utility.yul\":1117:1120   */\n      dup4\n        /* \"#utility.yul\":1058:1125   */\n      tag_24\n      jump\t// in\n    tag_43:\n        /* \"#utility.yul\":1051:1125   */\n      swap2\n      pop\n        /* \"#utility.yul\":1134:1227   */\n      tag_44\n        /* \"#utility.yul\":1223:1226   */\n      dup3\n        /* \"#utility.yul\":1134:1227   */\n      tag_25\n      jump\t// in\n    tag_44:\n        /* \"#utility.yul\":1252:1254   */\n      0x20\n        /* \"#utility.yul\":1247:1250   */\n      dup3\n        /* \"#utility.yul\":1243:1255   */\n      add\n        /* \"#utility.yul\":1236:1255   */\n      swap1\n      pop\n        /* \"#utility.yul\":895:1261   */\n      swap2\n      swap1\n      pop\n      jump\t// out\n        /* \"#utility.yul\":1267:1686   */\n    tag_14:\n        /* \"#utility.yul\":1433:1437   */\n      0x00\n        /* \"#utility.yul\":1471:1473   */\n      0x20\n        /* \"#utility.yul\":1460:1469   */\n      dup3\n        /* \"#utility.yul\":1456:1474   */\n      add\n        /* \"#utility.yul\":1448:1474   */\n      swap1\n      pop\n        /* \"#utility.yul\":1520:1529   */\n      dup2\n        /* \"#utility.yul\":1514:1518   */\n      dup2\n        /* \"#utility.yul\":1510:1530   */\n      sub\n        /* \"#utility.yul\":1506:1507   */\n      0x00\n        /* \"#utility.yul\":1495:1504   */\n      dup4\n        /* \"#utility.yul\":1491:1508   */\n      add\n        /* \"#utility.yul\":1484:1531   */\n      mstore\n        /* \"#utility.yul\":1548:1679   */\n      tag_46\n        /* \"#utility.yul\":1674:1678   */\n      dup2\n        /* \"#utility.yul\":1548:1679   */\n      tag_26\n      jump\t// in\n    tag_46:\n        /* \"#utility.yul\":1540:1679   */\n      swap1\n      pop\n        /* \"#utility.yul\":1267:1686   */\n      swap2\n      swap1\n      pop\n      jump\t// out\n        /* \"#utility.yul\":1692:1818   */\n    tag_27:\n        /* \"#utility.yul\":1729:1736   */\n      0x00\n        /* \"#utility.yul\":1769:1811   */\n      0xffffffffffffffffffffffffffffffffffffffff\n        /* \"#utility.yul\":1762:1767   */\n      dup3\n        /* \"#utility.yul\":1758:1812   */\n      and\n        /* \"#utility.yul\":1747:1812   */\n      swap1\n      pop\n        /* \"#utility.yul\":1692:1818   */\n      swap2\n      swap1\n      pop\n      jump\t// out\n        /* \"#utility.yul\":1824:1884   */\n    tag_28:\n        /* \"#utility.yul\":1852:1855   */\n      0x00\n        /* \"#utility.yul\":1873:1878   */\n      dup2\n        /* \"#utility.yul\":1866:1878   */\n      swap1\n      pop\n        /* \"#utility.yul\":1824:1884   */\n      swap2\n      swap1\n      pop\n      jump\t// out\n        /* \"#utility.yul\":1890:2032   */\n    tag_29:\n        /* \"#utility.yul\":1940:1949   */\n      0x00\n        /* \"#utility.yul\":1973:2026   */\n      tag_50\n        /* \"#utility.yul\":1991:2025   */\n      tag_51\n        /* \"#utility.yul\":2000:2024   */\n      tag_52\n        /* \"#utility.yul\":2018:2023   */\n      dup5\n        /* \"#utility.yul\":2000:2024   */\n      tag_27\n      jump\t// in\n    tag_52:\n        /* \"#utility.yul\":1991:2025   */\n      tag_28\n      jump\t// in\n    tag_51:\n        /* \"#utility.yul\":1973:2026   */\n      tag_27\n      jump\t// in\n    tag_50:\n        /* \"#utility.yul\":1960:2026   */\n      swap1\n      pop\n        /* \"#utility.yul\":1890:2032   */\n      swap2\n      swap1\n      pop\n      jump\t// out\n        /* \"#utility.yul\":2038:2164   */\n    tag_30:\n        /* \"#utility.yul\":2088:2097   */\n      0x00\n        /* \"#utility.yul\":2121:2158   */\n      tag_54\n        /* \"#utility.yul\":2152:2157   */\n      dup3\n        /* \"#utility.yul\":2121:2158   */\n      tag_29\n      jump\t// in\n    tag_54:\n        /* \"#utility.yul\":2108:2158   */\n      swap1\n      pop\n        /* \"#utility.yul\":2038:2164   */\n      swap2\n      swap1\n      pop\n      jump\t// out\n        /* \"#utility.yul\":2170:2304   */\n    tag_31:\n        /* \"#utility.yul\":2228:2237   */\n      0x00\n        /* \"#utility.yul\":2261:2298   */\n      tag_56\n        /* \"#utility.yul\":2292:2297   */\n      dup3\n        /* \"#utility.yul\":2261:2298   */\n      tag_30\n      jump\t// in\n    tag_56:\n        /* \"#utility.yul\":2248:2298   */\n      swap1\n      pop\n        /* \"#utility.yul\":2170:2304   */\n      swap2\n      swap1\n      pop\n      jump\t// out\n        /* \"#utility.yul\":2310:2457   */\n    tag_32:\n        /* \"#utility.yul\":2405:2450   */\n      tag_58\n        /* \"#utility.yul\":2444:2449   */\n      dup2\n        /* \"#utility.yul\":2405:2450   */\n      tag_31\n      jump\t// in\n    tag_58:\n        /* \"#utility.yul\":2400:2403   */\n      dup3\n        /* \"#utility.yul\":2393:2451   */\n      mstore\n        /* \"#utility.yul\":2310:2457   */\n      pop\n      pop\n      jump\t// out\n        /* \"#utility.yul\":2463:2811   */\n    tag_18:\n        /* \"#utility.yul\":2592:2596   */\n      0x00\n        /* \"#utility.yul\":2630:2632   */\n      0x40\n        /* \"#utility.yul\":2619:2628   */\n      dup3\n        /* \"#utility.yul\":2615:2633   */\n      add\n        /* \"#utility.yul\":2607:2633   */\n      swap1\n      pop\n        /* \"#utility.yul\":2643:2722   */\n      tag_60\n        /* \"#utility.yul\":2719:2720   */\n      0x00\n        /* \"#utility.yul\":2708:2717   */\n      dup4\n        /* \"#utility.yul\":2704:2721   */\n      add\n        /* \"#utility.yul\":2695:2701   */\n      dup6\n        /* \"#utility.yul\":2643:2722   */\n      tag_32\n      jump\t// in\n    tag_60:\n        /* \"#utility.yul\":2732:2804   */\n      tag_61\n        /* \"#utility.yul\":2800:2802   */\n      0x20\n        /* \"#utility.yul\":2789:2798   */\n      dup4\n        /* \"#utility.yul\":2785:2803   */\n      add\n        /* \"#utility.yul\":2776:2782   */\n      dup5\n        /* \"#utility.yul\":2732:2804   */\n      tag_23\n      jump\t// in\n    tag_61:\n        /* \"#utility.yul\":2463:2811   */\n      swap4\n      swap3\n      pop\n      pop\n      pop\n      jump\t// out\n\n    auxdata: 0xa26469706673582212201e63313f5e1f77e92ad1e28254577ee5cf2bb84e216bf422667640914648e93164736f6c634300081a0033\n}\n",
				"bytecode": {
					"linkReferences": {},
					"object": "6080604052305f806101000a81548173ffffffffffffffffffffffffffffffffffffffff021916908373ffffffffffffffffffffffffffffffffffffffff160217905550737e5f4552091a69125d5dfcb7b8c2659029395bdf60015f6101000a81548173ffffffffffffffffffffffffffffffffffffffff021916908373ffffffffffffffffffffffffffffffffffffffff160217905550671bc16d674ec80000600255610490806100b05f395ff3fe608060405260043610610021575f3560e01c8063919a76821461002c57610028565b3661002857005b5f80fd5b348015610037575f80fd5b50610040610057565b60405161004e92919061031a565b60405180910390f35b5f8060025447101561009e576040517f08c379a00000000000000000000000000000000000000000000000000000000081526004016100959061039b565b60405180910390fd5b5f8054906101000a900473ffffffffffffffffffffffffffffffffffffffff1673ffffffffffffffffffffffffffffffffffffffff166108fc60025490811502906040515f60405180830381858888f19350505050158015610102573d5f803e3d5ffd5b507f566b98e0c9433567b3b48c43db4762d4bba349f60f013e96f4c1b244d93390775f8054906101000a900473ffffffffffffffffffffffffffffffffffffffff165f8054906101000a900473ffffffffffffffffffffffffffffffffffffffff1673ffffffffffffffffffffffffffffffffffffffff1631604051610189929190610433565b60405180910390a160015f9054906101000a900473ffffffffffffffffffffffffffffffffffffffff1673ffffffffffffffffffffffffffffffffffffffff166108fc60025490811502906040515f60405180830381858888f193505050501580156101f7573d5f803e3d5ffd5b507f566b98e0c9433567b3b48c43db4762d4bba349f60f013e96f4c1b244d933907760015f9054906101000a900473ffffffffffffffffffffffffffffffffffffffff1660015f9054906101000a900473ffffffffffffffffffffffffffffffffffffffff1673ffffffffffffffffffffffffffffffffffffffff1631604051610282929190610433565b60405180910390a15f8054906101000a900473ffffffffffffffffffffffffffffffffffffffff1673ffffffffffffffffffffffffffffffffffffffff163160015f9054906101000a900473ffffffffffffffffffffffffffffffffffffffff1673ffffffffffffffffffffffffffffffffffffffff1631915091509091565b5f819050919050565b61031481610302565b82525050565b5f60408201905061032d5f83018561030b565b61033a602083018461030b565b9392505050565b5f82825260208201905092915050565b7f696e73756666696369656e7400000000000000000000000000000000000000005f82015250565b5f610385600c83610341565b915061039082610351565b602082019050919050565b5f6020820190508181035f8301526103b281610379565b9050919050565b5f73ffffffffffffffffffffffffffffffffffffffff82169050919050565b5f819050919050565b5f6103fb6103f66103f1846103b9565b6103d8565b6103b9565b9050919050565b5f61040c826103e1565b9050919050565b5f61041d82610402565b9050919050565b61042d81610413565b82525050565b5f6040820190506104465f830185610424565b610453602083018461030b565b939250505056fea26469706673582212201e63313f5e1f77e92ad1e28254577ee5cf2bb84e216bf422667640914648e93164736f6c634300081a0033",
					"opcodes": "PUSH1 0x80 PUSH1 0x40 MSTORE ADDRESS PUSH0 DUP1 PUSH2 0x100 EXP DUP2 SLOAD DUP2 PUSH20 0xFFFFFFFFFFFFFFFFFFFFFFFFFFFFFFFFFFFFFFFF MUL NOT AND SWAP1 DUP4 PUSH20 0xFFFFFFFFFFFFFFFFFFFFFFFFFFFFFFFFFFFFFFFF AND MUL OR SWAP1 SSTORE POP PUSH20 0x7E5F4552091A69125D5DFCB7B8C2659029395BDF PUSH1 0x1 PUSH0 PUSH2 0x100 EXP DUP2 SLOAD DUP2 PUSH20 0xFFFFFFFFFFFFFFFFFFFFFFFFFFFFFFFFFFFFFFFF MUL NOT AND SWAP1 DUP4 PUSH20 0xFFFFFFFFFFFFFFFFFFFFFFFFFFFFFFFFFFFFFFFF AND MUL OR SWAP1 SSTORE POP PUSH8 0x1BC16D674EC80000 PUSH1 0x2 SSTORE PUSH2 0x490 DUP1 PUSH2 0xB0 PUSH0 CODECOPY PUSH0 RETURN INVALID PUSH1 0x80 PUSH1 0x40 MSTORE PUSH1 0x4 CALLDATASIZE LT PUSH2 0x21 JUMPI PUSH0 CALLDATALOAD PUSH1 0xE0 SHR DUP1 PUSH4 0x919A7682 EQ PUSH2 0x2C JUMPI PUSH2 0x28 JUMP JUMPDEST CALLDATASIZE PUSH2 0x28 JUMPI STOP JUMPDEST PUSH0 DUP1 REVERT JUMPDEST CALLVALUE DUP1 ISZERO PUSH2 0x37 JUMPI PUSH0 DUP1 REVERT JUMPDEST POP PUSH2 0x40 PUSH2 0x57 JUMP JUMPDEST PUSH1 0x40 MLOAD PUSH2 0x4E SWAP3 SWAP2 SWAP1 PUSH2 0x31A JUMP JUMPDEST PUSH1 0x40 MLOAD DUP1 SWAP2 SUB SWAP1 RETURN JUMPDEST PUSH0 DUP1 PUSH1 0x2 SLOAD SELFBALANCE LT ISZERO PUSH2 0x9E JUMPI PUSH1 0x40 MLOAD PUSH32 0x8C379A000000000000000000000000000000000000000000000000000000000 DUP2 MSTORE PUSH1 0x4 ADD PUSH2 0x95 SWAP1 PUSH2 0x39B JUMP JUMPDEST PUSH1 0x40 MLOAD DUP1 SWAP2 SUB SWAP1 REVERT JUMPDEST PUSH0 DUP1 SLOAD SWAP1 PUSH2 0x100 EXP SWAP1 DIV PUSH20 0xFFFFFFFFFFFFFFFFFFFFFFFFFFFFFFFFFFFFFFFF AND PUSH20 0xFFFFFFFFFFFFFFFFFFFFFFFFFFFFFFFFFFFFFFFF AND PUSH2 0x8FC PUSH1 0x2 SLOAD SWAP1 DUP2 ISZERO MUL SWAP1 PUSH1 0x40 MLOAD PUSH0 PUSH1 0x40 MLOAD DUP1 DUP4 SUB DUP2 DUP6 DUP9 DUP9 CALL SWAP4 POP POP POP POP ISZERO DUP1 ISZERO PUSH2 0x102 JUMPI RETURNDATASIZE PUSH0 DUP1 RETURNDATACOPY RETURNDATASIZE PUSH0 REVERT JUMPDEST POP PUSH32 0x566B98E0C9433567B3B48C43DB4762D4BBA349F60F013E96F4C1B244D9339077 PUSH0 DUP1 SLOAD SWAP1 PUSH2 0x100 EXP SWAP1 DIV PUSH20 0xFFFFFFFFFFFFFFFFFFFFFFFFFFFFFFFFFFFFFFFF AND PUSH0 DUP1 SLOAD SWAP1 PUSH2 0x100 EXP SWAP1 DIV PUSH20 0xFFFFFFFFFFFFFFFFFFFFFFFFFFFFFFFFFFFFFFFF AND PUSH20 0xFFFFFFFFFFFFFFFFFFFFFFFFFFFFFFFFFFFFFFFF AND BALANCE PUSH1 0x40 MLOAD PUSH2 0x189 SWAP3 SWAP2 SWAP1 PUSH2 0x433 JUMP JUMPDEST PUSH1 0x40 MLOAD DUP1 SWAP2 SUB SWAP1 LOG1 PUSH1 0x1 PUSH0 SWAP1 SLOAD SWAP1 PUSH2 0x100 EXP SWAP1 DIV PUSH20 0xFFFFFFFFFFFFFFFFFFFFFFFFFFFFFFFFFFFFFFFF AND PUSH20 0xFFFFFFFFFFFFFFFFFFFFFFFFFFFFFFFFFFFFFFFF AND PUSH2 0x8FC PUSH1 0x2 SLOAD SWAP1 DUP2 ISZERO MUL SWAP1 PUSH1 0x40 MLOAD PUSH0 PUSH1 0x40 MLOAD DUP1 DUP4 SUB DUP2 DUP6 DUP9 DUP9 CALL SWAP4 POP POP POP POP ISZERO DUP1 ISZERO PUSH2 0x1F7 JUMPI RETURNDATASIZE PUSH0 DUP1 RETURNDATACOPY RETURNDATASIZE PUSH0 REVERT JUMPDEST POP PUSH32 0x566B98E0C9433567B3B48C43DB4762D4BBA349F60F013E96F4C1B244D9339077 PUSH1 0x1 PUSH0 SWAP1 SLOAD SWAP1 PUSH2 0x100 EXP SWAP1 DIV PUSH20 0xFFFFFFFFFFFFFFFFFFFFFFFFFFFFFFFFFFFFFFFF AND PUSH1 0x1 PUSH0 SWAP1 SLOAD SWAP1 PUSH2 0x100 EXP SWAP1 DIV PUSH20 0xFFFFFFFFFFFFFFFFFFFFFFFFFFFFFFFFFFFFFFFF AND PUSH20 0xFFFFFFFFFFFFFFFFFFFFFFFFFFFFFFFFFFFFFFFF AND BALANCE PUSH1 0x40 MLOAD PUSH2 0x282 SWAP3 SWAP2 SWAP1 PUSH2 0x433 JUMP JUMPDEST PUSH1 0x40 MLOAD DUP1 SWAP2 SUB SWAP1 LOG1 PUSH0 DUP1 SLOAD SWAP1 PUSH2 0x100 EXP SWAP1 DIV PUSH20 0xFFFFFFFFFFFFFFFFFFFFFFFFFFFFFFFFFFFFFFFF AND PUSH20 0xFFFFFFFFFFFFFFFFFFFFFFFFFFFFFFFFFFFFFFFF AND BALANCE PUSH1 0x1 PUSH0 SWAP1 SLOAD SWAP1 PUSH2 0x100 EXP SWAP1 DIV PUSH20 0xFFFFFFFFFFFFFFFFFFFFFFFFFFFFFFFFFFFFFFFF AND PUSH20 0xFFFFFFFFFFFFFFFFFFFFFFFFFFFFFFFFFFFFFFFF AND BALANCE SWAP2 POP SWAP2 POP SWAP1 SWAP2 JUMP JUMPDEST PUSH0 DUP2 SWAP1 POP SWAP2 SWAP1 POP JUMP JUMPDEST PUSH2 0x314 DUP2 PUSH2 0x302 JUMP JUMPDEST DUP3 MSTORE POP POP JUMP JUMPDEST PUSH0 PUSH1 0x40 DUP3 ADD SWAP1 POP PUSH2 0x32D PUSH0 DUP4 ADD DUP6 PUSH2 0x30B JUMP JUMPDEST PUSH2 0x33A PUSH1 0x20 DUP4 ADD DUP5 PUSH2 0x30B JUMP JUMPDEST SWAP4 SWAP3 POP POP POP JUMP JUMPDEST PUSH0 DUP3 DUP3 MSTORE PUSH1 0x20 DUP3 ADD SWAP1 POP SWAP3 SWAP2 POP POP JUMP JUMPDEST PUSH32 0x696E73756666696369656E740000000000000000000000000000000000000000 PUSH0 DUP3 ADD MSTORE POP JUMP JUMPDEST PUSH0 PUSH2 0x385 PUSH1 0xC DUP4 PUSH2 0x341 JUMP JUMPDEST SWAP2 POP PUSH2 0x390 DUP3 PUSH2 0x351 JUMP JUMPDEST PUSH1 0x20 DUP3 ADD SWAP1 POP SWAP2 SWAP1 POP JUMP JUMPDEST PUSH0 PUSH1 0x20 DUP3 ADD SWAP1 POP DUP2 DUP2 SUB PUSH0 DUP4 ADD MSTORE PUSH2 0x3B2 DUP2 PUSH2 0x379 JUMP JUMPDEST SWAP1 POP SWAP2 SWAP1 POP JUMP JUMPDEST PUSH0 PUSH20 0xFFFFFFFFFFFFFFFFFFFFFFFFFFFFFFFFFFFFFFFF DUP3 AND SWAP1 POP SWAP2 SWAP1 POP JUMP JUMPDEST PUSH0 DUP2 SWAP1 POP SWAP2 SWAP1 POP JUMP JUMPDEST PUSH0 PUSH2 0x3FB PUSH2 0x3F6 PUSH2 0x3F1 DUP5 PUSH2 0x3B9 JUMP JUMPDEST PUSH2 0x3D8 JUMP JUMPDEST PUSH2 0x3B9 JUMP JUMPDEST SWAP1 POP SWAP2 SWAP1 POP JUMP JUMPDEST PUSH0 PUSH2 0x40C DUP3 PUSH2 0x3E1 JUMP JUMPDEST SWAP1 POP SWAP2 SWAP1 POP JUMP JUMPDEST PUSH0 PUSH2 0x41D DUP3 PUSH2 0x402 JUMP JUMPDEST SWAP1 POP SWAP2 SWAP1 POP JUMP JUMPDEST PUSH2 0x42D DUP2 PUSH2 0x413 JUMP JUMPDEST DUP3 MSTORE POP POP JUMP JUMPDEST PUSH0 PUSH1 0x40 DUP3 ADD SWAP1 POP PUSH2 0x446 PUSH0 DUP4 ADD DUP6 PUSH2 0x424 JUMP JUMPDEST PUSH2 0x453 PUSH1 0x20 DUP4 ADD DUP5 PUSH2 0x30B JUMP JUMPDEST SWAP4 SWAP3 POP POP POP JUMP INVALID LOG2 PUSH5 0x6970667358 0x22 SLT KECCAK256 0x1E PUSH4 0x313F5E1F PUSH24 0xE92AD1E28254577EE5CF2BB84E216BF422667640914648E9 BALANCE PUSH5 0x736F6C6343 STOP ADDMOD BYTE STOP CALLER "
				},
				"gasEstimates": {
					"creation": {
						"codeDepositCost": "233600",
						"executionCost": "70886",
						"totalCost": "304486"
					},
					"external": {
						"transerM()": "infinite"
					}
				},
				"methodIdentifiers": {
					"transerM()": "919a7682"
				}
			},
			"storageLayout": {
				"storage": [
					{
						"astId": 20,
						"contract": "ReceiveTest.sol:ReceiveTest",
						"label": "receiver",
						"offset": 0,
						"slot": "0",
						"type": "t_address_payable"
					},
					{
						"astId": 29,
						"contract": "ReceiveTest.sol:ReceiveTest",
						"label": "receiver2",
						"offset": 0,
						"slot": "1",
						"type": "t_address_payable"
					},
					{
						"astId": 32,
						"contract": "ReceiveTest.sol:ReceiveTest",
						"label": "amount",
						"offset": 0,
						"slot": "2",
						"type": "t_uint256"
					}
				],
				"types": {
					"t_address_payable": {
						"encoding": "inplace",
						"label": "address payable",
						"numberOfBytes": "20"
					},
					"t_uint256": {
						"encoding": "inplace",
						"label": "uint256",
						"numberOfBytes": "32"
					}
				}
			},
			"userdoc": {
				"kind": "user",
				"methods": {},
				"version": 1
			}
		}
	}
}