{
	"fisco/Producer.sol": {
		"Producer": {
			"abi": [
				{
					"constant": false,
					"inputs": [
						{
							"name": "account",
							"type": "address"
						}
					],
					"name": "addProducer",
					"outputs": [],
					"payable": false,
					"stateMutability": "nonpayable",
					"type": "function"
				},
				{
					"constant": true,
					"inputs": [
						{
							"name": "account",
							"type": "address"
						}
					],
					"name": "isProducer",
					"outputs": [
						{
							"name": "",
							"type": "bool"
						}
					],
					"payable": false,
					"stateMutability": "view",
					"type": "function"
				},
				{
					"constant": false,
					"inputs": [],
					"name": "renounceProducer",
					"outputs": [],
					"payable": false,
					"stateMutability": "nonpayable",
					"type": "function"
				},
				{
					"inputs": [
						{
							"name": "producer",
							"type": "address"
						}
					],
					"payable": false,
					"stateMutability": "nonpayable",
					"type": "constructor"
				},
				{
					"anonymous": false,
					"inputs": [
						{
							"indexed": true,
							"name": "account",
							"type": "address"
						}
					],
					"name": "ProducerAdded",
					"type": "event"
				},
				{
					"anonymous": false,
					"inputs": [
						{
							"indexed": true,
							"name": "account",
							"type": "address"
						}
					],
					"name": "ProducerRemoved",
					"type": "event"
				}
			],
			"devdoc": {
				"methods": {}
			},
			"evm": {
				"assembly": "    /* \"fisco/Producer.sol\":79:960  contract Producer{... */\n  mstore(0x40, 0x80)\n    /* \"fisco/Producer.sol\":267:333  constructor(address producer)public{... */\n  callvalue\n    /* \"--CODEGEN--\":8:17   */\n  dup1\n    /* \"--CODEGEN--\":5:7   */\n  iszero\n  tag_1\n  jumpi\n    /* \"--CODEGEN--\":30:31   */\n  0x0\n    /* \"--CODEGEN--\":27:28   */\n  dup1\n    /* \"--CODEGEN--\":20:32   */\n  revert\n    /* \"--CODEGEN--\":5:7   */\ntag_1:\n    /* \"fisco/Producer.sol\":267:333  constructor(address producer)public{... */\n  pop\n  mload(0x40)\n  0x20\n  dup1\n  bytecodeSize\n  dup4\n  codecopy\n  dup2\n  add\n  dup1\n  0x40\n  mstore\n  dup2\n  add\n  swap1\n  dup1\n  dup1\n  mload\n  swap1\n  0x20\n  add\n  swap1\n  swap3\n  swap2\n  swap1\n  pop\n  pop\n  pop\n    /* \"fisco/Producer.sol\":308:330  _addProducer(producer) */\n  tag_4\n    /* \"fisco/Producer.sol\":321:329  producer */\n  dup2\n    /* \"fisco/Producer.sol\":308:320  _addProducer */\n  mul(0x100000000, tag_5)\n    /* \"fisco/Producer.sol\":308:330  _addProducer(producer) */\n  0x100000000\n  swap1\n  div\n  jump\t// in\ntag_4:\n    /* \"fisco/Producer.sol\":267:333  constructor(address producer)public{... */\n  pop\n    /* \"fisco/Producer.sol\":79:960  contract Producer{... */\n  jump(tag_6)\n    /* \"fisco/Producer.sol\":722:834  function _addProducer(address account)internal{... */\ntag_5:\n    /* \"fisco/Producer.sol\":774:797  _producers.add(account) */\n  tag_8\n    /* \"fisco/Producer.sol\":789:796  account */\n  dup2\n    /* \"fisco/Producer.sol\":774:784  _producers */\n  0x0\n    /* \"fisco/Producer.sol\":774:788  _producers.add */\n  or(tag_0_28, mul(0x100000000, tag_9))\n  swap1\n    /* \"fisco/Producer.sol\":774:797  _producers.add(account) */\n  swap2\n  swap1\n  0x100000000\n  swap1\n  div\n  jump\t// in\ntag_8:\n    /* \"fisco/Producer.sol\":822:829  account */\n  dup1\n    /* \"fisco/Producer.sol\":808:830  ProducerAdded(account) */\n  0xffffffffffffffffffffffffffffffffffffffff\n  and\n  0x2977383b0207d39ef14220620b6cf3e6c9b6e78592af90baeef6614ed2fcd2c6\n  mload(0x40)\n  mload(0x40)\n  dup1\n  swap2\n  sub\n  swap1\n  log2\n    /* \"fisco/Producer.sol\":722:834  function _addProducer(address account)internal{... */\n  pop\n  jump\t// out\n    /* \"fisco/Roles.sol\":337:504  function add(Role storage role,address account)internal{... */\ntag_9:\n    /* \"fisco/Roles.sol\":411:428  has(role,account) */\n  tag_11\n    /* \"fisco/Roles.sol\":415:419  role */\n  dup3\n    /* \"fisco/Roles.sol\":420:427  account */\n  dup3\n    /* \"fisco/Roles.sol\":411:414  has */\n  mul(0x100000000, tag_12)\n    /* \"fisco/Roles.sol\":411:428  has(role,account) */\n  0x100000000\n  swap1\n  div\n  jump\t// in\ntag_11:\n    /* \"fisco/Roles.sol\":410:428  !has(role,account) */\n  iszero\n    /* \"fisco/Roles.sol\":402:462  require(!has(role,account), \"Roles: account already exists\") */\n  iszero\n  iszero\n  tag_13\n  jumpi\n  mload(0x40)\n  0x8c379a000000000000000000000000000000000000000000000000000000000\n  dup2\n  mstore\n  0x4\n  add\n  dup1\n  dup1\n  0x20\n  add\n  dup3\n  dup2\n  sub\n  dup3\n  mstore\n  0x1d\n  dup2\n  mstore\n  0x20\n  add\n  dup1\n  0x526f6c65733a206163636f756e7420616c726561647920657869737473000000\n  dup2\n  mstore\n  pop\n  0x20\n  add\n  swap2\n  pop\n  pop\n  mload(0x40)\n  dup1\n  swap2\n  sub\n  swap1\n  revert\ntag_13:\n    /* \"fisco/Roles.sol\":493:497  true */\n  0x1\n    /* \"fisco/Roles.sol\":472:476  role */\n  dup3\n    /* \"fisco/Roles.sol\":472:483  role.bearer */\n  0x0\n  add\n    /* \"fisco/Roles.sol\":472:492  role.bearer[account] */\n  0x0\n    /* \"fisco/Roles.sol\":484:491  account */\n  dup4\n    /* \"fisco/Roles.sol\":472:492  role.bearer[account] */\n  0xffffffffffffffffffffffffffffffffffffffff\n  and\n  0xffffffffffffffffffffffffffffffffffffffff\n  and\n  dup2\n  mstore\n  0x20\n  add\n  swap1\n  dup2\n  mstore\n  0x20\n  add\n  0x0\n  keccak256\n  0x0\n    /* \"fisco/Roles.sol\":472:497  role.bearer[account]=true */\n  0x100\n  exp\n  dup2\n  sload\n  dup2\n  0xff\n  mul\n  not\n  and\n  swap1\n  dup4\n  iszero\n  iszero\n  mul\n  or\n  swap1\n  sstore\n  pop\n    /* \"fisco/Roles.sol\":337:504  function add(Role storage role,address account)internal{... */\n  pop\n  pop\n  jump\t// out\n    /* \"fisco/Roles.sol\":140:332  function has(Role storage role,address account)internal view returns(bool){... */\ntag_12:\n    /* \"fisco/Roles.sol\":209:213  bool */\n  0x0\n    /* \"fisco/Roles.sol\":249:250  0 */\n  dup1\n    /* \"fisco/Roles.sol\":232:251  account!=address(0) */\n  0xffffffffffffffffffffffffffffffffffffffff\n  and\n    /* \"fisco/Roles.sol\":232:239  account */\n  dup3\n    /* \"fisco/Roles.sol\":232:251  account!=address(0) */\n  0xffffffffffffffffffffffffffffffffffffffff\n  and\n  eq\n  iszero\n    /* \"fisco/Roles.sol\":224:288  require(account!=address(0),\"Roles:account is the zero address\") */\n  iszero\n  iszero\n  tag_15\n  jumpi\n  mload(0x40)\n  0x8c379a000000000000000000000000000000000000000000000000000000000\n  dup2\n  mstore\n  0x4\n  add\n  dup1\n  dup1\n  0x20\n  add\n  dup3\n  dup2\n  sub\n  dup3\n  mstore\n  0x21\n  dup2\n  mstore\n  0x20\n  add\n  dup1\n  0x526f6c65733a6163636f756e7420697320746865207a65726f20616464726573\n  dup2\n  mstore\n  0x20\n  add\n  0x7300000000000000000000000000000000000000000000000000000000000000\n  dup2\n  mstore\n  pop\n  0x40\n  add\n  swap2\n  pop\n  pop\n  mload(0x40)\n  dup1\n  swap2\n  sub\n  swap1\n  revert\ntag_15:\n    /* \"fisco/Roles.sol\":305:309  role */\n  dup3\n    /* \"fisco/Roles.sol\":305:316  role.bearer */\n  0x0\n  add\n    /* \"fisco/Roles.sol\":305:325  role.bearer[account] */\n  0x0\n    /* \"fisco/Roles.sol\":317:324  account */\n  dup4\n    /* \"fisco/Roles.sol\":305:325  role.bearer[account] */\n  0xffffffffffffffffffffffffffffffffffffffff\n  and\n  0xffffffffffffffffffffffffffffffffffffffff\n  and\n  dup2\n  mstore\n  0x20\n  add\n  swap1\n  dup2\n  mstore\n  0x20\n  add\n  0x0\n  keccak256\n  0x0\n  swap1\n  sload\n  swap1\n  0x100\n  exp\n  swap1\n  div\n  0xff\n  and\n    /* \"fisco/Roles.sol\":298:325  return role.bearer[account] */\n  swap1\n  pop\n    /* \"fisco/Roles.sol\":140:332  function has(Role storage role,address account)internal view returns(bool){... */\n  swap3\n  swap2\n  pop\n  pop\n  jump\t// out\n    /* \"fisco/Producer.sol\":79:960  contract Producer{... */\ntag_6:\n  dataSize(sub_0)\n  dup1\n  dataOffset(sub_0)\n  0x0\n  codecopy\n  0x0\n  return\nstop\n\nsub_0: assembly {\n        /* \"fisco/Producer.sol\":79:960  contract Producer{... */\n      mstore(0x40, 0x80)\n      jumpi(tag_1, lt(calldatasize, 0x4))\n      calldataload(0x0)\n      0x100000000000000000000000000000000000000000000000000000000\n      swap1\n      div\n      0xffffffff\n      and\n      dup1\n      0xddf80166\n      eq\n      tag_2\n      jumpi\n      dup1\n      0xf5521022\n      eq\n      tag_3\n      jumpi\n      dup1\n      0xf9b867d8\n      eq\n      tag_4\n      jumpi\n    tag_1:\n      0x0\n      dup1\n      revert\n        /* \"fisco/Producer.sol\":563:650  function addProducer(address account)public onlyProducer{... */\n    tag_2:\n      callvalue\n        /* \"--CODEGEN--\":8:17   */\n      dup1\n        /* \"--CODEGEN--\":5:7   */\n      iszero\n      tag_5\n      jumpi\n        /* \"--CODEGEN--\":30:31   */\n      0x0\n        /* \"--CODEGEN--\":27:28   */\n      dup1\n        /* \"--CODEGEN--\":20:32   */\n      revert\n        /* \"--CODEGEN--\":5:7   */\n    tag_5:\n        /* \"fisco/Producer.sol\":563:650  function addProducer(address account)public onlyProducer{... */\n      pop\n      tag_6\n      0x4\n      dup1\n      calldatasize\n      sub\n      dup2\n      add\n      swap1\n      dup1\n      dup1\n      calldataload\n      0xffffffffffffffffffffffffffffffffffffffff\n      and\n      swap1\n      0x20\n      add\n      swap1\n      swap3\n      swap2\n      swap1\n      pop\n      pop\n      pop\n      jump(tag_7)\n    tag_6:\n      stop\n        /* \"fisco/Producer.sol\":461:561  function isProducer(address account)public view returns(bool){... */\n    tag_3:\n      callvalue\n        /* \"--CODEGEN--\":8:17   */\n      dup1\n        /* \"--CODEGEN--\":5:7   */\n      iszero\n      tag_8\n      jumpi\n        /* \"--CODEGEN--\":30:31   */\n      0x0\n        /* \"--CODEGEN--\":27:28   */\n      dup1\n        /* \"--CODEGEN--\":20:32   */\n      revert\n        /* \"--CODEGEN--\":5:7   */\n    tag_8:\n        /* \"fisco/Producer.sol\":461:561  function isProducer(address account)public view returns(bool){... */\n      pop\n      tag_9\n      0x4\n      dup1\n      calldatasize\n      sub\n      dup2\n      add\n      swap1\n      dup1\n      dup1\n      calldataload\n      0xffffffffffffffffffffffffffffffffffffffff\n      and\n      swap1\n      0x20\n      add\n      swap1\n      swap3\n      swap2\n      swap1\n      pop\n      pop\n      pop\n      jump(tag_10)\n    tag_9:\n      mload(0x40)\n      dup1\n      dup3\n      iszero\n      iszero\n      iszero\n      iszero\n      dup2\n      mstore\n      0x20\n      add\n      swap2\n      pop\n      pop\n      mload(0x40)\n      dup1\n      swap2\n      sub\n      swap1\n      return\n        /* \"fisco/Producer.sol\":651:720  function renounceProducer()public{... */\n    tag_4:\n      callvalue\n        /* \"--CODEGEN--\":8:17   */\n      dup1\n        /* \"--CODEGEN--\":5:7   */\n      iszero\n      tag_11\n      jumpi\n        /* \"--CODEGEN--\":30:31   */\n      0x0\n        /* \"--CODEGEN--\":27:28   */\n      dup1\n        /* \"--CODEGEN--\":20:32   */\n      revert\n        /* \"--CODEGEN--\":5:7   */\n    tag_11:\n        /* \"fisco/Producer.sol\":651:720  function renounceProducer()public{... */\n      pop\n      tag_12\n      jump(tag_13)\n    tag_12:\n      stop\n        /* \"fisco/Producer.sol\":563:650  function addProducer(address account)public onlyProducer{... */\n    tag_7:\n        /* \"fisco/Producer.sol\":372:394  isProducer(msg.sender) */\n      tag_15\n        /* \"fisco/Producer.sol\":383:393  msg.sender */\n      caller\n        /* \"fisco/Producer.sol\":372:382  isProducer */\n      tag_10\n        /* \"fisco/Producer.sol\":372:394  isProducer(msg.sender) */\n      jump\t// in\n    tag_15:\n        /* \"fisco/Producer.sol\":364:449  require(isProducer(msg.sender),\"ProducerRole:caller does not have the Producer role\") */\n      iszero\n      iszero\n      tag_16\n      jumpi\n      mload(0x40)\n      0x8c379a000000000000000000000000000000000000000000000000000000000\n      dup2\n      mstore\n      0x4\n      add\n      dup1\n      dup1\n      0x20\n      add\n      dup3\n      dup2\n      sub\n      dup3\n      mstore\n      0x33\n      dup2\n      mstore\n      0x20\n      add\n      dup1\n      0x50726f6475636572526f6c653a63616c6c657220646f6573206e6f7420686176\n      dup2\n      mstore\n      0x20\n      add\n      0x65207468652050726f647563657220726f6c6500000000000000000000000000\n      dup2\n      mstore\n      pop\n      0x40\n      add\n      swap2\n      pop\n      pop\n      mload(0x40)\n      dup1\n      swap2\n      sub\n      swap1\n      revert\n    tag_16:\n        /* \"fisco/Producer.sol\":625:646  _addProducer(account) */\n      tag_18\n        /* \"fisco/Producer.sol\":638:645  account */\n      dup2\n        /* \"fisco/Producer.sol\":625:637  _addProducer */\n      tag_19\n        /* \"fisco/Producer.sol\":625:646  _addProducer(account) */\n      jump\t// in\n    tag_18:\n        /* \"fisco/Producer.sol\":563:650  function addProducer(address account)public onlyProducer{... */\n      pop\n      jump\t// out\n        /* \"fisco/Producer.sol\":461:561  function isProducer(address account)public view returns(bool){... */\n    tag_10:\n        /* \"fisco/Producer.sol\":517:521  bool */\n      0x0\n        /* \"fisco/Producer.sol\":535:558  _producers.has(account) */\n      tag_21\n        /* \"fisco/Producer.sol\":550:557  account */\n      dup3\n        /* \"fisco/Producer.sol\":535:545  _producers */\n      0x0\n        /* \"fisco/Producer.sol\":535:549  _producers.has */\n      tag_22\n      swap1\n        /* \"fisco/Producer.sol\":535:558  _producers.has(account) */\n      swap2\n      swap1\n      0xffffffff\n      and\n      jump\t// in\n    tag_21:\n        /* \"fisco/Producer.sol\":528:558  return _producers.has(account) */\n      swap1\n      pop\n        /* \"fisco/Producer.sol\":461:561  function isProducer(address account)public view returns(bool){... */\n      swap2\n      swap1\n      pop\n      jump\t// out\n        /* \"fisco/Producer.sol\":651:720  function renounceProducer()public{... */\n    tag_13:\n        /* \"fisco/Producer.sol\":690:717  _removeProducer(msg.sender) */\n      tag_24\n        /* \"fisco/Producer.sol\":706:716  msg.sender */\n      caller\n        /* \"fisco/Producer.sol\":690:705  _removeProducer */\n      tag_25\n        /* \"fisco/Producer.sol\":690:717  _removeProducer(msg.sender) */\n      jump\t// in\n    tag_24:\n        /* \"fisco/Producer.sol\":651:720  function renounceProducer()public{... */\n      jump\t// out\n        /* \"fisco/Producer.sol\":722:834  function _addProducer(address account)internal{... */\n    tag_19:\n        /* \"fisco/Producer.sol\":774:797  _producers.add(account) */\n      tag_27\n        /* \"fisco/Producer.sol\":789:796  account */\n      dup2\n        /* \"fisco/Producer.sol\":774:784  _producers */\n      0x0\n        /* \"fisco/Producer.sol\":774:788  _producers.add */\n      tag_28\n      swap1\n        /* \"fisco/Producer.sol\":774:797  _producers.add(account) */\n      swap2\n      swap1\n      0xffffffff\n      and\n      jump\t// in\n    tag_27:\n        /* \"fisco/Producer.sol\":822:829  account */\n      dup1\n        /* \"fisco/Producer.sol\":808:830  ProducerAdded(account) */\n      0xffffffffffffffffffffffffffffffffffffffff\n      and\n      0x2977383b0207d39ef14220620b6cf3e6c9b6e78592af90baeef6614ed2fcd2c6\n      mload(0x40)\n      mload(0x40)\n      dup1\n      swap2\n      sub\n      swap1\n      log2\n        /* \"fisco/Producer.sol\":722:834  function _addProducer(address account)internal{... */\n      pop\n      jump\t// out\n        /* \"fisco/Roles.sol\":140:332  function has(Role storage role,address account)internal view returns(bool){... */\n    tag_22:\n        /* \"fisco/Roles.sol\":209:213  bool */\n      0x0\n        /* \"fisco/Roles.sol\":249:250  0 */\n      dup1\n        /* \"fisco/Roles.sol\":232:251  account!=address(0) */\n      0xffffffffffffffffffffffffffffffffffffffff\n      and\n        /* \"fisco/Roles.sol\":232:239  account */\n      dup3\n        /* \"fisco/Roles.sol\":232:251  account!=address(0) */\n      0xffffffffffffffffffffffffffffffffffffffff\n      and\n      eq\n      iszero\n        /* \"fisco/Roles.sol\":224:288  require(account!=address(0),\"Roles:account is the zero address\") */\n      iszero\n      iszero\n      tag_30\n      jumpi\n      mload(0x40)\n      0x8c379a000000000000000000000000000000000000000000000000000000000\n      dup2\n      mstore\n      0x4\n      add\n      dup1\n      dup1\n      0x20\n      add\n      dup3\n      dup2\n      sub\n      dup3\n      mstore\n      0x21\n      dup2\n      mstore\n      0x20\n      add\n      dup1\n      0x526f6c65733a6163636f756e7420697320746865207a65726f20616464726573\n      dup2\n      mstore\n      0x20\n      add\n      0x7300000000000000000000000000000000000000000000000000000000000000\n      dup2\n      mstore\n      pop\n      0x40\n      add\n      swap2\n      pop\n      pop\n      mload(0x40)\n      dup1\n      swap2\n      sub\n      swap1\n      revert\n    tag_30:\n        /* \"fisco/Roles.sol\":305:309  role */\n      dup3\n        /* \"fisco/Roles.sol\":305:316  role.bearer */\n      0x0\n      add\n        /* \"fisco/Roles.sol\":305:325  role.bearer[account] */\n      0x0\n        /* \"fisco/Roles.sol\":317:324  account */\n      dup4\n        /* \"fisco/Roles.sol\":305:325  role.bearer[account] */\n      0xffffffffffffffffffffffffffffffffffffffff\n      and\n      0xffffffffffffffffffffffffffffffffffffffff\n      and\n      dup2\n      mstore\n      0x20\n      add\n      swap1\n      dup2\n      mstore\n      0x20\n      add\n      0x0\n      keccak256\n      0x0\n      swap1\n      sload\n      swap1\n      0x100\n      exp\n      swap1\n      div\n      0xff\n      and\n        /* \"fisco/Roles.sol\":298:325  return role.bearer[account] */\n      swap1\n      pop\n        /* \"fisco/Roles.sol\":140:332  function has(Role storage role,address account)internal view returns(bool){... */\n      swap3\n      swap2\n      pop\n      pop\n      jump\t// out\n        /* \"fisco/Producer.sol\":836:955  function _removeProducer(address account)internal{... */\n    tag_25:\n        /* \"fisco/Producer.sol\":891:917  _producers.remove(account) */\n      tag_32\n        /* \"fisco/Producer.sol\":909:916  account */\n      dup2\n        /* \"fisco/Producer.sol\":891:901  _producers */\n      0x0\n        /* \"fisco/Producer.sol\":891:908  _producers.remove */\n      tag_33\n      swap1\n        /* \"fisco/Producer.sol\":891:917  _producers.remove(account) */\n      swap2\n      swap1\n      0xffffffff\n      and\n      jump\t// in\n    tag_32:\n        /* \"fisco/Producer.sol\":944:951  account */\n      dup1\n        /* \"fisco/Producer.sol\":928:952  ProducerRemoved(account) */\n      0xffffffffffffffffffffffffffffffffffffffff\n      and\n      0xb78e9906c5bae930ccf756a5214c9855b1782f0eb30f9566de2384f034af48f3\n      mload(0x40)\n      mload(0x40)\n      dup1\n      swap2\n      sub\n      swap1\n      log2\n        /* \"fisco/Producer.sol\":836:955  function _removeProducer(address account)internal{... */\n      pop\n      jump\t// out\n        /* \"fisco/Roles.sol\":337:504  function add(Role storage role,address account)internal{... */\n    tag_28:\n        /* \"fisco/Roles.sol\":411:428  has(role,account) */\n      tag_35\n        /* \"fisco/Roles.sol\":415:419  role */\n      dup3\n        /* \"fisco/Roles.sol\":420:427  account */\n      dup3\n        /* \"fisco/Roles.sol\":411:414  has */\n      tag_22\n        /* \"fisco/Roles.sol\":411:428  has(role,account) */\n      jump\t// in\n    tag_35:\n        /* \"fisco/Roles.sol\":410:428  !has(role,account) */\n      iszero\n        /* \"fisco/Roles.sol\":402:462  require(!has(role,account), \"Roles: account already exists\") */\n      iszero\n      iszero\n      tag_36\n      jumpi\n      mload(0x40)\n      0x8c379a000000000000000000000000000000000000000000000000000000000\n      dup2\n      mstore\n      0x4\n      add\n      dup1\n      dup1\n      0x20\n      add\n      dup3\n      dup2\n      sub\n      dup3\n      mstore\n      0x1d\n      dup2\n      mstore\n      0x20\n      add\n      dup1\n      0x526f6c65733a206163636f756e7420616c726561647920657869737473000000\n      dup2\n      mstore\n      pop\n      0x20\n      add\n      swap2\n      pop\n      pop\n      mload(0x40)\n      dup1\n      swap2\n      sub\n      swap1\n      revert\n    tag_36:\n        /* \"fisco/Roles.sol\":493:497  true */\n      0x1\n        /* \"fisco/Roles.sol\":472:476  role */\n      dup3\n        /* \"fisco/Roles.sol\":472:483  role.bearer */\n      0x0\n      add\n        /* \"fisco/Roles.sol\":472:492  role.bearer[account] */\n      0x0\n        /* \"fisco/Roles.sol\":484:491  account */\n      dup4\n        /* \"fisco/Roles.sol\":472:492  role.bearer[account] */\n      0xffffffffffffffffffffffffffffffffffffffff\n      and\n      0xffffffffffffffffffffffffffffffffffffffff\n      and\n      dup2\n      mstore\n      0x20\n      add\n      swap1\n      dup2\n      mstore\n      0x20\n      add\n      0x0\n      keccak256\n      0x0\n        /* \"fisco/Roles.sol\":472:497  role.bearer[account]=true */\n      0x100\n      exp\n      dup2\n      sload\n      dup2\n      0xff\n      mul\n      not\n      and\n      swap1\n      dup4\n      iszero\n      iszero\n      mul\n      or\n      swap1\n      sstore\n      pop\n        /* \"fisco/Roles.sol\":337:504  function add(Role storage role,address account)internal{... */\n      pop\n      pop\n      jump\t// out\n        /* \"fisco/Roles.sol\":510:687  function remove(Role storage role, address account) internal {... */\n    tag_33:\n        /* \"fisco/Roles.sol\":589:606  has(role,account) */\n      tag_38\n        /* \"fisco/Roles.sol\":593:597  role */\n      dup3\n        /* \"fisco/Roles.sol\":598:605  account */\n      dup3\n        /* \"fisco/Roles.sol\":589:592  has */\n      tag_22\n        /* \"fisco/Roles.sol\":589:606  has(role,account) */\n      jump\t// in\n    tag_38:\n        /* \"fisco/Roles.sol\":581:642  require(has(role,account),\"Roles:account does not have role\") */\n      iszero\n      iszero\n      tag_39\n      jumpi\n      mload(0x40)\n      0x8c379a000000000000000000000000000000000000000000000000000000000\n      dup2\n      mstore\n      0x4\n      add\n      dup1\n      dup1\n      0x20\n      add\n      dup3\n      dup2\n      sub\n      dup3\n      mstore\n      0x20\n      dup2\n      mstore\n      0x20\n      add\n      dup1\n      0x526f6c65733a6163636f756e7420646f6573206e6f74206861766520726f6c65\n      dup2\n      mstore\n      pop\n      0x20\n      add\n      swap2\n      pop\n      pop\n      mload(0x40)\n      dup1\n      swap2\n      sub\n      swap1\n      revert\n    tag_39:\n        /* \"fisco/Roles.sol\":675:680  false */\n      0x0\n        /* \"fisco/Roles.sol\":652:656  role */\n      dup3\n        /* \"fisco/Roles.sol\":652:663  role.bearer */\n      0x0\n      add\n        /* \"fisco/Roles.sol\":652:672  role.bearer[account] */\n      0x0\n        /* \"fisco/Roles.sol\":664:671  account */\n      dup4\n        /* \"fisco/Roles.sol\":652:672  role.bearer[account] */\n      0xffffffffffffffffffffffffffffffffffffffff\n      and\n      0xffffffffffffffffffffffffffffffffffffffff\n      and\n      dup2\n      mstore\n      0x20\n      add\n      swap1\n      dup2\n      mstore\n      0x20\n      add\n      0x0\n      keccak256\n      0x0\n        /* \"fisco/Roles.sol\":652:680  role.bearer[account] = false */\n      0x100\n      exp\n      dup2\n      sload\n      dup2\n      0xff\n      mul\n      not\n      and\n      swap1\n      dup4\n      iszero\n      iszero\n      mul\n      or\n      swap1\n      sstore\n      pop\n        /* \"fisco/Roles.sol\":510:687  function remove(Role storage role, address account) internal {... */\n      pop\n      pop\n      jump\t// out\n\n    auxdata: 0xa165627a7a7230582089620173627f1f9420a08cc85207ac72010d78abe93350f767f6fccf653a258d0029\n}\n",
				"bytecode": {
					"linkReferences": {},
					"object": "608060405234801561001057600080fd5b5060405160208061087a8339810180604052810190808051906020019092919050505061004b81610051640100000000026401000000009004565b506102c7565b6100728160006100b8640100000000026103bf179091906401000000009004565b8073ffffffffffffffffffffffffffffffffffffffff167f2977383b0207d39ef14220620b6cf3e6c9b6e78592af90baeef6614ed2fcd2c660405160405180910390a250565b6100d182826101a4640100000000026401000000009004565b151515610146576040517f08c379a000000000000000000000000000000000000000000000000000000000815260040180806020018281038252601d8152602001807f526f6c65733a206163636f756e7420616c72656164792065786973747300000081525060200191505060405180910390fd5b60018260000160008373ffffffffffffffffffffffffffffffffffffffff1673ffffffffffffffffffffffffffffffffffffffff16815260200190815260200160002060006101000a81548160ff0219169083151502179055505050565b60008073ffffffffffffffffffffffffffffffffffffffff168273ffffffffffffffffffffffffffffffffffffffff1614151515610270576040517f08c379a00000000000000000000000000000000000000000000000000000000081526004018080602001828103825260218152602001807f526f6c65733a6163636f756e7420697320746865207a65726f2061646472657381526020017f730000000000000000000000000000000000000000000000000000000000000081525060400191505060405180910390fd5b8260000160008373ffffffffffffffffffffffffffffffffffffffff1673ffffffffffffffffffffffffffffffffffffffff16815260200190815260200160002060009054906101000a900460ff16905092915050565b6105a4806102d66000396000f300608060405260043610610057576000357c0100000000000000000000000000000000000000000000000000000000900463ffffffff168063ddf801661461005c578063f55210221461009f578063f9b867d8146100fa575b600080fd5b34801561006857600080fd5b5061009d600480360381019080803573ffffffffffffffffffffffffffffffffffffffff169060200190929190505050610111565b005b3480156100ab57600080fd5b506100e0600480360381019080803573ffffffffffffffffffffffffffffffffffffffff1690602001909291905050506101c0565b604051808215151515815260200191505060405180910390f35b34801561010657600080fd5b5061010f6101dd565b005b61011a336101c0565b15156101b4576040517f08c379a00000000000000000000000000000000000000000000000000000000081526004018080602001828103825260338152602001807f50726f6475636572526f6c653a63616c6c657220646f6573206e6f742068617681526020017f65207468652050726f647563657220726f6c650000000000000000000000000081525060400191505060405180910390fd5b6101bd816101e8565b50565b60006101d682600061024290919063ffffffff16565b9050919050565b6101e633610365565b565b6101fc8160006103bf90919063ffffffff16565b8073ffffffffffffffffffffffffffffffffffffffff167f2977383b0207d39ef14220620b6cf3e6c9b6e78592af90baeef6614ed2fcd2c660405160405180910390a250565b60008073ffffffffffffffffffffffffffffffffffffffff168273ffffffffffffffffffffffffffffffffffffffff161415151561030e576040517f08c379a00000000000000000000000000000000000000000000000000000000081526004018080602001828103825260218152602001807f526f6c65733a6163636f756e7420697320746865207a65726f2061646472657381526020017f730000000000000000000000000000000000000000000000000000000000000081525060400191505060405180910390fd5b8260000160008373ffffffffffffffffffffffffffffffffffffffff1673ffffffffffffffffffffffffffffffffffffffff16815260200190815260200160002060009054906101000a900460ff16905092915050565b61037981600061049c90919063ffffffff16565b8073ffffffffffffffffffffffffffffffffffffffff167fb78e9906c5bae930ccf756a5214c9855b1782f0eb30f9566de2384f034af48f360405160405180910390a250565b6103c98282610242565b15151561043e576040517f08c379a000000000000000000000000000000000000000000000000000000000815260040180806020018281038252601d8152602001807f526f6c65733a206163636f756e7420616c72656164792065786973747300000081525060200191505060405180910390fd5b60018260000160008373ffffffffffffffffffffffffffffffffffffffff1673ffffffffffffffffffffffffffffffffffffffff16815260200190815260200160002060006101000a81548160ff0219169083151502179055505050565b6104a68282610242565b151561051a576040517f08c379a00000000000000000000000000000000000000000000000000000000081526004018080602001828103825260208152602001807f526f6c65733a6163636f756e7420646f6573206e6f74206861766520726f6c6581525060200191505060405180910390fd5b60008260000160008373ffffffffffffffffffffffffffffffffffffffff1673ffffffffffffffffffffffffffffffffffffffff16815260200190815260200160002060006101000a81548160ff02191690831515021790555050505600a165627a7a7230582089620173627f1f9420a08cc85207ac72010d78abe93350f767f6fccf653a258d0029",
					"opcodes": "PUSH1 0x80 PUSH1 0x40 MSTORE CALLVALUE DUP1 ISZERO PUSH2 0x10 JUMPI PUSH1 0x0 DUP1 REVERT JUMPDEST POP PUSH1 0x40 MLOAD PUSH1 0x20 DUP1 PUSH2 0x87A DUP4 CODECOPY DUP2 ADD DUP1 PUSH1 0x40 MSTORE DUP2 ADD SWAP1 DUP1 DUP1 MLOAD SWAP1 PUSH1 0x20 ADD SWAP1 SWAP3 SWAP2 SWAP1 POP POP POP PUSH2 0x4B DUP2 PUSH2 0x51 PUSH5 0x100000000 MUL PUSH5 0x100000000 SWAP1 DIV JUMP JUMPDEST POP PUSH2 0x2C7 JUMP JUMPDEST PUSH2 0x72 DUP2 PUSH1 0x0 PUSH2 0xB8 PUSH5 0x100000000 MUL PUSH2 0x3BF OR SWAP1 SWAP2 SWAP1 PUSH5 0x100000000 SWAP1 DIV JUMP JUMPDEST DUP1 PUSH20 0xFFFFFFFFFFFFFFFFFFFFFFFFFFFFFFFFFFFFFFFF AND PUSH32 0x2977383B0207D39EF14220620B6CF3E6C9B6E78592AF90BAEEF6614ED2FCD2C6 PUSH1 0x40 MLOAD PUSH1 0x40 MLOAD DUP1 SWAP2 SUB SWAP1 LOG2 POP JUMP JUMPDEST PUSH2 0xD1 DUP3 DUP3 PUSH2 0x1A4 PUSH5 0x100000000 MUL PUSH5 0x100000000 SWAP1 DIV JUMP JUMPDEST ISZERO ISZERO ISZERO PUSH2 0x146 JUMPI PUSH1 0x40 MLOAD PUSH32 0x8C379A000000000000000000000000000000000000000000000000000000000 DUP2 MSTORE PUSH1 0x4 ADD DUP1 DUP1 PUSH1 0x20 ADD DUP3 DUP2 SUB DUP3 MSTORE PUSH1 0x1D DUP2 MSTORE PUSH1 0x20 ADD DUP1 PUSH32 0x526F6C65733A206163636F756E7420616C726561647920657869737473000000 DUP2 MSTORE POP PUSH1 0x20 ADD SWAP2 POP POP PUSH1 0x40 MLOAD DUP1 SWAP2 SUB SWAP1 REVERT JUMPDEST PUSH1 0x1 DUP3 PUSH1 0x0 ADD PUSH1 0x0 DUP4 PUSH20 0xFFFFFFFFFFFFFFFFFFFFFFFFFFFFFFFFFFFFFFFF AND PUSH20 0xFFFFFFFFFFFFFFFFFFFFFFFFFFFFFFFFFFFFFFFF AND DUP2 MSTORE PUSH1 0x20 ADD SWAP1 DUP2 MSTORE PUSH1 0x20 ADD PUSH1 0x0 KECCAK256 PUSH1 0x0 PUSH2 0x100 EXP DUP2 SLOAD DUP2 PUSH1 0xFF MUL NOT AND SWAP1 DUP4 ISZERO ISZERO MUL OR SWAP1 SSTORE POP POP POP JUMP JUMPDEST PUSH1 0x0 DUP1 PUSH20 0xFFFFFFFFFFFFFFFFFFFFFFFFFFFFFFFFFFFFFFFF AND DUP3 PUSH20 0xFFFFFFFFFFFFFFFFFFFFFFFFFFFFFFFFFFFFFFFF AND EQ ISZERO ISZERO ISZERO PUSH2 0x270 JUMPI PUSH1 0x40 MLOAD PUSH32 0x8C379A000000000000000000000000000000000000000000000000000000000 DUP2 MSTORE PUSH1 0x4 ADD DUP1 DUP1 PUSH1 0x20 ADD DUP3 DUP2 SUB DUP3 MSTORE PUSH1 0x21 DUP2 MSTORE PUSH1 0x20 ADD DUP1 PUSH32 0x526F6C65733A6163636F756E7420697320746865207A65726F20616464726573 DUP2 MSTORE PUSH1 0x20 ADD PUSH32 0x7300000000000000000000000000000000000000000000000000000000000000 DUP2 MSTORE POP PUSH1 0x40 ADD SWAP2 POP POP PUSH1 0x40 MLOAD DUP1 SWAP2 SUB SWAP1 REVERT JUMPDEST DUP3 PUSH1 0x0 ADD PUSH1 0x0 DUP4 PUSH20 0xFFFFFFFFFFFFFFFFFFFFFFFFFFFFFFFFFFFFFFFF AND PUSH20 0xFFFFFFFFFFFFFFFFFFFFFFFFFFFFFFFFFFFFFFFF AND DUP2 MSTORE PUSH1 0x20 ADD SWAP1 DUP2 MSTORE PUSH1 0x20 ADD PUSH1 0x0 KECCAK256 PUSH1 0x0 SWAP1 SLOAD SWAP1 PUSH2 0x100 EXP SWAP1 DIV PUSH1 0xFF AND SWAP1 POP SWAP3 SWAP2 POP POP JUMP JUMPDEST PUSH2 0x5A4 DUP1 PUSH2 0x2D6 PUSH1 0x0 CODECOPY PUSH1 0x0 RETURN STOP PUSH1 0x80 PUSH1 0x40 MSTORE PUSH1 0x4 CALLDATASIZE LT PUSH2 0x57 JUMPI PUSH1 0x0 CALLDATALOAD PUSH29 0x100000000000000000000000000000000000000000000000000000000 SWAP1 DIV PUSH4 0xFFFFFFFF AND DUP1 PUSH4 0xDDF80166 EQ PUSH2 0x5C JUMPI DUP1 PUSH4 0xF5521022 EQ PUSH2 0x9F JUMPI DUP1 PUSH4 0xF9B867D8 EQ PUSH2 0xFA JUMPI JUMPDEST PUSH1 0x0 DUP1 REVERT JUMPDEST CALLVALUE DUP1 ISZERO PUSH2 0x68 JUMPI PUSH1 0x0 DUP1 REVERT JUMPDEST POP PUSH2 0x9D PUSH1 0x4 DUP1 CALLDATASIZE SUB DUP2 ADD SWAP1 DUP1 DUP1 CALLDATALOAD PUSH20 0xFFFFFFFFFFFFFFFFFFFFFFFFFFFFFFFFFFFFFFFF AND SWAP1 PUSH1 0x20 ADD SWAP1 SWAP3 SWAP2 SWAP1 POP POP POP PUSH2 0x111 JUMP JUMPDEST STOP JUMPDEST CALLVALUE DUP1 ISZERO PUSH2 0xAB JUMPI PUSH1 0x0 DUP1 REVERT JUMPDEST POP PUSH2 0xE0 PUSH1 0x4 DUP1 CALLDATASIZE SUB DUP2 ADD SWAP1 DUP1 DUP1 CALLDATALOAD PUSH20 0xFFFFFFFFFFFFFFFFFFFFFFFFFFFFFFFFFFFFFFFF AND SWAP1 PUSH1 0x20 ADD SWAP1 SWAP3 SWAP2 SWAP1 POP POP POP PUSH2 0x1C0 JUMP JUMPDEST PUSH1 0x40 MLOAD DUP1 DUP3 ISZERO ISZERO ISZERO ISZERO DUP2 MSTORE PUSH1 0x20 ADD SWAP2 POP POP PUSH1 0x40 MLOAD DUP1 SWAP2 SUB SWAP1 RETURN JUMPDEST CALLVALUE DUP1 ISZERO PUSH2 0x106 JUMPI PUSH1 0x0 DUP1 REVERT JUMPDEST POP PUSH2 0x10F PUSH2 0x1DD JUMP JUMPDEST STOP JUMPDEST PUSH2 0x11A CALLER PUSH2 0x1C0 JUMP JUMPDEST ISZERO ISZERO PUSH2 0x1B4 JUMPI PUSH1 0x40 MLOAD PUSH32 0x8C379A000000000000000000000000000000000000000000000000000000000 DUP2 MSTORE PUSH1 0x4 ADD DUP1 DUP1 PUSH1 0x20 ADD DUP3 DUP2 SUB DUP3 MSTORE PUSH1 0x33 DUP2 MSTORE PUSH1 0x20 ADD DUP1 PUSH32 0x50726F6475636572526F6C653A63616C6C657220646F6573206E6F7420686176 DUP2 MSTORE PUSH1 0x20 ADD PUSH32 0x65207468652050726F647563657220726F6C6500000000000000000000000000 DUP2 MSTORE POP PUSH1 0x40 ADD SWAP2 POP POP PUSH1 0x40 MLOAD DUP1 SWAP2 SUB SWAP1 REVERT JUMPDEST PUSH2 0x1BD DUP2 PUSH2 0x1E8 JUMP JUMPDEST POP JUMP JUMPDEST PUSH1 0x0 PUSH2 0x1D6 DUP3 PUSH1 0x0 PUSH2 0x242 SWAP1 SWAP2 SWAP1 PUSH4 0xFFFFFFFF AND JUMP JUMPDEST SWAP1 POP SWAP2 SWAP1 POP JUMP JUMPDEST PUSH2 0x1E6 CALLER PUSH2 0x365 JUMP JUMPDEST JUMP JUMPDEST PUSH2 0x1FC DUP2 PUSH1 0x0 PUSH2 0x3BF SWAP1 SWAP2 SWAP1 PUSH4 0xFFFFFFFF AND JUMP JUMPDEST DUP1 PUSH20 0xFFFFFFFFFFFFFFFFFFFFFFFFFFFFFFFFFFFFFFFF AND PUSH32 0x2977383B0207D39EF14220620B6CF3E6C9B6E78592AF90BAEEF6614ED2FCD2C6 PUSH1 0x40 MLOAD PUSH1 0x40 MLOAD DUP1 SWAP2 SUB SWAP1 LOG2 POP JUMP JUMPDEST PUSH1 0x0 DUP1 PUSH20 0xFFFFFFFFFFFFFFFFFFFFFFFFFFFFFFFFFFFFFFFF AND DUP3 PUSH20 0xFFFFFFFFFFFFFFFFFFFFFFFFFFFFFFFFFFFFFFFF AND EQ ISZERO ISZERO ISZERO PUSH2 0x30E JUMPI PUSH1 0x40 MLOAD PUSH32 0x8C379A000000000000000000000000000000000000000000000000000000000 DUP2 MSTORE PUSH1 0x4 ADD DUP1 DUP1 PUSH1 0x20 ADD DUP3 DUP2 SUB DUP3 MSTORE PUSH1 0x21 DUP2 MSTORE PUSH1 0x20 ADD DUP1 PUSH32 0x526F6C65733A6163636F756E7420697320746865207A65726F20616464726573 DUP2 MSTORE PUSH1 0x20 ADD PUSH32 0x7300000000000000000000000000000000000000000000000000000000000000 DUP2 MSTORE POP PUSH1 0x40 ADD SWAP2 POP POP PUSH1 0x40 MLOAD DUP1 SWAP2 SUB SWAP1 REVERT JUMPDEST DUP3 PUSH1 0x0 ADD PUSH1 0x0 DUP4 PUSH20 0xFFFFFFFFFFFFFFFFFFFFFFFFFFFFFFFFFFFFFFFF AND PUSH20 0xFFFFFFFFFFFFFFFFFFFFFFFFFFFFFFFFFFFFFFFF AND DUP2 MSTORE PUSH1 0x20 ADD SWAP1 DUP2 MSTORE PUSH1 0x20 ADD PUSH1 0x0 KECCAK256 PUSH1 0x0 SWAP1 SLOAD SWAP1 PUSH2 0x100 EXP SWAP1 DIV PUSH1 0xFF AND SWAP1 POP SWAP3 SWAP2 POP POP JUMP JUMPDEST PUSH2 0x379 DUP2 PUSH1 0x0 PUSH2 0x49C SWAP1 SWAP2 SWAP1 PUSH4 0xFFFFFFFF AND JUMP JUMPDEST DUP1 PUSH20 0xFFFFFFFFFFFFFFFFFFFFFFFFFFFFFFFFFFFFFFFF AND PUSH32 0xB78E9906C5BAE930CCF756A5214C9855B1782F0EB30F9566DE2384F034AF48F3 PUSH1 0x40 MLOAD PUSH1 0x40 MLOAD DUP1 SWAP2 SUB SWAP1 LOG2 POP JUMP JUMPDEST PUSH2 0x3C9 DUP3 DUP3 PUSH2 0x242 JUMP JUMPDEST ISZERO ISZERO ISZERO PUSH2 0x43E JUMPI PUSH1 0x40 MLOAD PUSH32 0x8C379A000000000000000000000000000000000000000000000000000000000 DUP2 MSTORE PUSH1 0x4 ADD DUP1 DUP1 PUSH1 0x20 ADD DUP3 DUP2 SUB DUP3 MSTORE PUSH1 0x1D DUP2 MSTORE PUSH1 0x20 ADD DUP1 PUSH32 0x526F6C65733A206163636F756E7420616C726561647920657869737473000000 DUP2 MSTORE POP PUSH1 0x20 ADD SWAP2 POP POP PUSH1 0x40 MLOAD DUP1 SWAP2 SUB SWAP1 REVERT JUMPDEST PUSH1 0x1 DUP3 PUSH1 0x0 ADD PUSH1 0x0 DUP4 PUSH20 0xFFFFFFFFFFFFFFFFFFFFFFFFFFFFFFFFFFFFFFFF AND PUSH20 0xFFFFFFFFFFFFFFFFFFFFFFFFFFFFFFFFFFFFFFFF AND DUP2 MSTORE PUSH1 0x20 ADD SWAP1 DUP2 MSTORE PUSH1 0x20 ADD PUSH1 0x0 KECCAK256 PUSH1 0x0 PUSH2 0x100 EXP DUP2 SLOAD DUP2 PUSH1 0xFF MUL NOT AND SWAP1 DUP4 ISZERO ISZERO MUL OR SWAP1 SSTORE POP POP POP JUMP JUMPDEST PUSH2 0x4A6 DUP3 DUP3 PUSH2 0x242 JUMP JUMPDEST ISZERO ISZERO PUSH2 0x51A JUMPI PUSH1 0x40 MLOAD PUSH32 0x8C379A000000000000000000000000000000000000000000000000000000000 DUP2 MSTORE PUSH1 0x4 ADD DUP1 DUP1 PUSH1 0x20 ADD DUP3 DUP2 SUB DUP3 MSTORE PUSH1 0x20 DUP2 MSTORE PUSH1 0x20 ADD DUP1 PUSH32 0x526F6C65733A6163636F756E7420646F6573206E6F74206861766520726F6C65 DUP2 MSTORE POP PUSH1 0x20 ADD SWAP2 POP POP PUSH1 0x40 MLOAD DUP1 SWAP2 SUB SWAP1 REVERT JUMPDEST PUSH1 0x0 DUP3 PUSH1 0x0 ADD PUSH1 0x0 DUP4 PUSH20 0xFFFFFFFFFFFFFFFFFFFFFFFFFFFFFFFFFFFFFFFF AND PUSH20 0xFFFFFFFFFFFFFFFFFFFFFFFFFFFFFFFFFFFFFFFF AND DUP2 MSTORE PUSH1 0x20 ADD SWAP1 DUP2 MSTORE PUSH1 0x20 ADD PUSH1 0x0 KECCAK256 PUSH1 0x0 PUSH2 0x100 EXP DUP2 SLOAD DUP2 PUSH1 0xFF MUL NOT AND SWAP1 DUP4 ISZERO ISZERO MUL OR SWAP1 SSTORE POP POP POP JUMP STOP LOG1 PUSH6 0x627A7A723058 KECCAK256 DUP10 PUSH3 0x17362 PUSH32 0x1F9420A08CC85207AC72010D78ABE93350F767F6FCCF653A258D002900000000 "
				},
				"gasEstimates": {
					"creation": {
						"codeDepositCost": "288800",
						"executionCost": "infinite",
						"totalCost": "infinite"
					},
					"external": {
						"addProducer(address)": "infinite",
						"isProducer(address)": "infinite",
						"renounceProducer()": "infinite"
					},
					"internal": {
						"_addProducer(address)": "infinite",
						"_removeProducer(address)": "infinite"
					}
				},
				"methodIdentifiers": {
					"addProducer(address)": "ddf80166",
					"isProducer(address)": "f5521022",
					"renounceProducer()": "f9b867d8"
				}
			},
			"userdoc": {
				"methods": {}
			}
		}
	}
}