{
	"fisco/Retailer.sol": {
		"Retailer": {
			"abi": [
				{
					"constant": false,
					"inputs": [
						{
							"name": "account",
							"type": "address"
						}
					],
					"name": "addReatiler",
					"outputs": [],
					"payable": false,
					"stateMutability": "nonpayable",
					"type": "function"
				},
				{
					"constant": true,
					"inputs": [
						{
							"name": "account",
							"type": "address"
						}
					],
					"name": "isRetailer",
					"outputs": [
						{
							"name": "",
							"type": "bool"
						}
					],
					"payable": false,
					"stateMutability": "view",
					"type": "function"
				},
				{
					"constant": false,
					"inputs": [],
					"name": "renounceRetailer",
					"outputs": [],
					"payable": false,
					"stateMutability": "nonpayable",
					"type": "function"
				},
				{
					"inputs": [
						{
							"name": "retailer",
							"type": "address"
						}
					],
					"payable": false,
					"stateMutability": "nonpayable",
					"type": "constructor"
				},
				{
					"anonymous": false,
					"inputs": [
						{
							"indexed": true,
							"name": "account",
							"type": "address"
						}
					],
					"name": "RetailerAdded",
					"type": "event"
				},
				{
					"anonymous": false,
					"inputs": [
						{
							"indexed": true,
							"name": "account",
							"type": "address"
						}
					],
					"name": "RetailerRemoved",
					"type": "event"
				}
			],
			"devdoc": {
				"methods": {}
			},
			"evm": {
				"assembly": "    /* \"fisco/Retailer.sol\":97:1073  contract Retailer{... */\n  mstore(0x40, 0x80)\n    /* \"fisco/Retailer.sol\":290:364  constructor(address retailer)public{... */\n  callvalue\n    /* \"--CODEGEN--\":8:17   */\n  dup1\n    /* \"--CODEGEN--\":5:7   */\n  iszero\n  tag_1\n  jumpi\n    /* \"--CODEGEN--\":30:31   */\n  0x0\n    /* \"--CODEGEN--\":27:28   */\n  dup1\n    /* \"--CODEGEN--\":20:32   */\n  revert\n    /* \"--CODEGEN--\":5:7   */\ntag_1:\n    /* \"fisco/Retailer.sol\":290:364  constructor(address retailer)public{... */\n  pop\n  mload(0x40)\n  0x20\n  dup1\n  bytecodeSize\n  dup4\n  codecopy\n  dup2\n  add\n  dup1\n  0x40\n  mstore\n  dup2\n  add\n  swap1\n  dup1\n  dup1\n  mload\n  swap1\n  0x20\n  add\n  swap1\n  swap3\n  swap2\n  swap1\n  pop\n  pop\n  pop\n    /* \"fisco/Retailer.sol\":335:357  _addRetailer(retailer) */\n  tag_4\n    /* \"fisco/Retailer.sol\":348:356  retailer */\n  dup2\n    /* \"fisco/Retailer.sol\":335:347  _addRetailer */\n  mul(0x100000000, tag_5)\n    /* \"fisco/Retailer.sol\":335:357  _addRetailer(retailer) */\n  0x100000000\n  swap1\n  div\n  jump\t// in\ntag_4:\n    /* \"fisco/Retailer.sol\":290:364  constructor(address retailer)public{... */\n  pop\n    /* \"fisco/Retailer.sol\":97:1073  contract Retailer{... */\n  jump(tag_6)\n    /* \"fisco/Retailer.sol\":809:932  function _addRetailer(address account)internal{... */\ntag_5:\n    /* \"fisco/Retailer.sol\":865:888  _retailers.add(account) */\n  tag_8\n    /* \"fisco/Retailer.sol\":880:887  account */\n  dup2\n    /* \"fisco/Retailer.sol\":865:875  _retailers */\n  0x0\n    /* \"fisco/Retailer.sol\":865:879  _retailers.add */\n  or(tag_0_28, mul(0x100000000, tag_9))\n  swap1\n    /* \"fisco/Retailer.sol\":865:888  _retailers.add(account) */\n  swap2\n  swap1\n  0x100000000\n  swap1\n  div\n  jump\t// in\ntag_8:\n    /* \"fisco/Retailer.sol\":917:924  account */\n  dup1\n    /* \"fisco/Retailer.sol\":903:925  RetailerAdded(account) */\n  0xffffffffffffffffffffffffffffffffffffffff\n  and\n  0x71ae26cad02663e3d92efd6ec56031a80d74a20c0ab4183faa8bf262261c9baa\n  mload(0x40)\n  mload(0x40)\n  dup1\n  swap2\n  sub\n  swap1\n  log2\n    /* \"fisco/Retailer.sol\":809:932  function _addRetailer(address account)internal{... */\n  pop\n  jump\t// out\n    /* \"fisco/Roles.sol\":337:504  function add(Role storage role,address account)internal{... */\ntag_9:\n    /* \"fisco/Roles.sol\":411:428  has(role,account) */\n  tag_11\n    /* \"fisco/Roles.sol\":415:419  role */\n  dup3\n    /* \"fisco/Roles.sol\":420:427  account */\n  dup3\n    /* \"fisco/Roles.sol\":411:414  has */\n  mul(0x100000000, tag_12)\n    /* \"fisco/Roles.sol\":411:428  has(role,account) */\n  0x100000000\n  swap1\n  div\n  jump\t// in\ntag_11:\n    /* \"fisco/Roles.sol\":410:428  !has(role,account) */\n  iszero\n    /* \"fisco/Roles.sol\":402:462  require(!has(role,account), \"Roles: account already exists\") */\n  iszero\n  iszero\n  tag_13\n  jumpi\n  mload(0x40)\n  0x8c379a000000000000000000000000000000000000000000000000000000000\n  dup2\n  mstore\n  0x4\n  add\n  dup1\n  dup1\n  0x20\n  add\n  dup3\n  dup2\n  sub\n  dup3\n  mstore\n  0x1d\n  dup2\n  mstore\n  0x20\n  add\n  dup1\n  0x526f6c65733a206163636f756e7420616c726561647920657869737473000000\n  dup2\n  mstore\n  pop\n  0x20\n  add\n  swap2\n  pop\n  pop\n  mload(0x40)\n  dup1\n  swap2\n  sub\n  swap1\n  revert\ntag_13:\n    /* \"fisco/Roles.sol\":493:497  true */\n  0x1\n    /* \"fisco/Roles.sol\":472:476  role */\n  dup3\n    /* \"fisco/Roles.sol\":472:483  role.bearer */\n  0x0\n  add\n    /* \"fisco/Roles.sol\":472:492  role.bearer[account] */\n  0x0\n    /* \"fisco/Roles.sol\":484:491  account */\n  dup4\n    /* \"fisco/Roles.sol\":472:492  role.bearer[account] */\n  0xffffffffffffffffffffffffffffffffffffffff\n  and\n  0xffffffffffffffffffffffffffffffffffffffff\n  and\n  dup2\n  mstore\n  0x20\n  add\n  swap1\n  dup2\n  mstore\n  0x20\n  add\n  0x0\n  keccak256\n  0x0\n    /* \"fisco/Roles.sol\":472:497  role.bearer[account]=true */\n  0x100\n  exp\n  dup2\n  sload\n  dup2\n  0xff\n  mul\n  not\n  and\n  swap1\n  dup4\n  iszero\n  iszero\n  mul\n  or\n  swap1\n  sstore\n  pop\n    /* \"fisco/Roles.sol\":337:504  function add(Role storage role,address account)internal{... */\n  pop\n  pop\n  jump\t// out\n    /* \"fisco/Roles.sol\":140:332  function has(Role storage role,address account)internal view returns(bool){... */\ntag_12:\n    /* \"fisco/Roles.sol\":209:213  bool */\n  0x0\n    /* \"fisco/Roles.sol\":249:250  0 */\n  dup1\n    /* \"fisco/Roles.sol\":232:251  account!=address(0) */\n  0xffffffffffffffffffffffffffffffffffffffff\n  and\n    /* \"fisco/Roles.sol\":232:239  account */\n  dup3\n    /* \"fisco/Roles.sol\":232:251  account!=address(0) */\n  0xffffffffffffffffffffffffffffffffffffffff\n  and\n  eq\n  iszero\n    /* \"fisco/Roles.sol\":224:288  require(account!=address(0),\"Roles:account is the zero address\") */\n  iszero\n  iszero\n  tag_15\n  jumpi\n  mload(0x40)\n  0x8c379a000000000000000000000000000000000000000000000000000000000\n  dup2\n  mstore\n  0x4\n  add\n  dup1\n  dup1\n  0x20\n  add\n  dup3\n  dup2\n  sub\n  dup3\n  mstore\n  0x21\n  dup2\n  mstore\n  0x20\n  add\n  dup1\n  0x526f6c65733a6163636f756e7420697320746865207a65726f20616464726573\n  dup2\n  mstore\n  0x20\n  add\n  0x7300000000000000000000000000000000000000000000000000000000000000\n  dup2\n  mstore\n  pop\n  0x40\n  add\n  swap2\n  pop\n  pop\n  mload(0x40)\n  dup1\n  swap2\n  sub\n  swap1\n  revert\ntag_15:\n    /* \"fisco/Roles.sol\":305:309  role */\n  dup3\n    /* \"fisco/Roles.sol\":305:316  role.bearer */\n  0x0\n  add\n    /* \"fisco/Roles.sol\":305:325  role.bearer[account] */\n  0x0\n    /* \"fisco/Roles.sol\":317:324  account */\n  dup4\n    /* \"fisco/Roles.sol\":305:325  role.bearer[account] */\n  0xffffffffffffffffffffffffffffffffffffffff\n  and\n  0xffffffffffffffffffffffffffffffffffffffff\n  and\n  dup2\n  mstore\n  0x20\n  add\n  swap1\n  dup2\n  mstore\n  0x20\n  add\n  0x0\n  keccak256\n  0x0\n  swap1\n  sload\n  swap1\n  0x100\n  exp\n  swap1\n  div\n  0xff\n  and\n    /* \"fisco/Roles.sol\":298:325  return role.bearer[account] */\n  swap1\n  pop\n    /* \"fisco/Roles.sol\":140:332  function has(Role storage role,address account)internal view returns(bool){... */\n  swap3\n  swap2\n  pop\n  pop\n  jump\t// out\n    /* \"fisco/Retailer.sol\":97:1073  contract Retailer{... */\ntag_6:\n  dataSize(sub_0)\n  dup1\n  dataOffset(sub_0)\n  0x0\n  codecopy\n  0x0\n  return\nstop\n\nsub_0: assembly {\n        /* \"fisco/Retailer.sol\":97:1073  contract Retailer{... */\n      mstore(0x40, 0x80)\n      jumpi(tag_1, lt(calldatasize, 0x4))\n      calldataload(0x0)\n      0x100000000000000000000000000000000000000000000000000000000\n      swap1\n      div\n      0xffffffff\n      and\n      dup1\n      0x1765372a\n      eq\n      tag_2\n      jumpi\n      dup1\n      0x5da09b88\n      eq\n      tag_3\n      jumpi\n      dup1\n      0xdb0e6a2f\n      eq\n      tag_4\n      jumpi\n    tag_1:\n      0x0\n      dup1\n      revert\n        /* \"fisco/Retailer.sol\":625:719  function addReatiler(address account)public onlyRetailer{... */\n    tag_2:\n      callvalue\n        /* \"--CODEGEN--\":8:17   */\n      dup1\n        /* \"--CODEGEN--\":5:7   */\n      iszero\n      tag_5\n      jumpi\n        /* \"--CODEGEN--\":30:31   */\n      0x0\n        /* \"--CODEGEN--\":27:28   */\n      dup1\n        /* \"--CODEGEN--\":20:32   */\n      revert\n        /* \"--CODEGEN--\":5:7   */\n    tag_5:\n        /* \"fisco/Retailer.sol\":625:719  function addReatiler(address account)public onlyRetailer{... */\n      pop\n      tag_6\n      0x4\n      dup1\n      calldatasize\n      sub\n      dup2\n      add\n      swap1\n      dup1\n      dup1\n      calldataload\n      0xffffffffffffffffffffffffffffffffffffffff\n      and\n      swap1\n      0x20\n      add\n      swap1\n      swap3\n      swap2\n      swap1\n      pop\n      pop\n      pop\n      jump(tag_7)\n    tag_6:\n      stop\n        /* \"fisco/Retailer.sol\":511:619  function isRetailer(address account)public view returns(bool){... */\n    tag_3:\n      callvalue\n        /* \"--CODEGEN--\":8:17   */\n      dup1\n        /* \"--CODEGEN--\":5:7   */\n      iszero\n      tag_8\n      jumpi\n        /* \"--CODEGEN--\":30:31   */\n      0x0\n        /* \"--CODEGEN--\":27:28   */\n      dup1\n        /* \"--CODEGEN--\":20:32   */\n      revert\n        /* \"--CODEGEN--\":5:7   */\n    tag_8:\n        /* \"fisco/Retailer.sol\":511:619  function isRetailer(address account)public view returns(bool){... */\n      pop\n      tag_9\n      0x4\n      dup1\n      calldatasize\n      sub\n      dup2\n      add\n      swap1\n      dup1\n      dup1\n      calldataload\n      0xffffffffffffffffffffffffffffffffffffffff\n      and\n      swap1\n      0x20\n      add\n      swap1\n      swap3\n      swap2\n      swap1\n      pop\n      pop\n      pop\n      jump(tag_10)\n    tag_9:\n      mload(0x40)\n      dup1\n      dup3\n      iszero\n      iszero\n      iszero\n      iszero\n      dup2\n      mstore\n      0x20\n      add\n      swap2\n      pop\n      pop\n      mload(0x40)\n      dup1\n      swap2\n      sub\n      swap1\n      return\n        /* \"fisco/Retailer.sol\":725:802  function renounceRetailer()public{... */\n    tag_4:\n      callvalue\n        /* \"--CODEGEN--\":8:17   */\n      dup1\n        /* \"--CODEGEN--\":5:7   */\n      iszero\n      tag_11\n      jumpi\n        /* \"--CODEGEN--\":30:31   */\n      0x0\n        /* \"--CODEGEN--\":27:28   */\n      dup1\n        /* \"--CODEGEN--\":20:32   */\n      revert\n        /* \"--CODEGEN--\":5:7   */\n    tag_11:\n        /* \"fisco/Retailer.sol\":725:802  function renounceRetailer()public{... */\n      pop\n      tag_12\n      jump(tag_13)\n    tag_12:\n      stop\n        /* \"fisco/Retailer.sol\":625:719  function addReatiler(address account)public onlyRetailer{... */\n    tag_7:\n        /* \"fisco/Retailer.sol\":411:433  isRetailer(msg.sender) */\n      tag_15\n        /* \"fisco/Retailer.sol\":422:432  msg.sender */\n      caller\n        /* \"fisco/Retailer.sol\":411:421  isRetailer */\n      tag_10\n        /* \"fisco/Retailer.sol\":411:433  isRetailer(msg.sender) */\n      jump\t// in\n    tag_15:\n        /* \"fisco/Retailer.sol\":403:487  require(isRetailer(msg.sender),\"RetailerRole:caller does not have theRetailer role\") */\n      iszero\n      iszero\n      tag_16\n      jumpi\n      mload(0x40)\n      0x8c379a000000000000000000000000000000000000000000000000000000000\n      dup2\n      mstore\n      0x4\n      add\n      dup1\n      dup1\n      0x20\n      add\n      dup3\n      dup2\n      sub\n      dup3\n      mstore\n      0x32\n      dup2\n      mstore\n      0x20\n      add\n      dup1\n      0x52657461696c6572526f6c653a63616c6c657220646f6573206e6f7420686176\n      dup2\n      mstore\n      0x20\n      add\n      0x652074686552657461696c657220726f6c650000000000000000000000000000\n      dup2\n      mstore\n      pop\n      0x40\n      add\n      swap2\n      pop\n      pop\n      mload(0x40)\n      dup1\n      swap2\n      sub\n      swap1\n      revert\n    tag_16:\n        /* \"fisco/Retailer.sol\":691:712  _addRetailer(account) */\n      tag_18\n        /* \"fisco/Retailer.sol\":704:711  account */\n      dup2\n        /* \"fisco/Retailer.sol\":691:703  _addRetailer */\n      tag_19\n        /* \"fisco/Retailer.sol\":691:712  _addRetailer(account) */\n      jump\t// in\n    tag_18:\n        /* \"fisco/Retailer.sol\":625:719  function addReatiler(address account)public onlyRetailer{... */\n      pop\n      jump\t// out\n        /* \"fisco/Retailer.sol\":511:619  function isRetailer(address account)public view returns(bool){... */\n    tag_10:\n        /* \"fisco/Retailer.sol\":567:571  bool */\n      0x0\n        /* \"fisco/Retailer.sol\":589:612  _retailers.has(account) */\n      tag_21\n        /* \"fisco/Retailer.sol\":604:611  account */\n      dup3\n        /* \"fisco/Retailer.sol\":589:599  _retailers */\n      0x0\n        /* \"fisco/Retailer.sol\":589:603  _retailers.has */\n      tag_22\n      swap1\n        /* \"fisco/Retailer.sol\":589:612  _retailers.has(account) */\n      swap2\n      swap1\n      0xffffffff\n      and\n      jump\t// in\n    tag_21:\n        /* \"fisco/Retailer.sol\":582:612  return _retailers.has(account) */\n      swap1\n      pop\n        /* \"fisco/Retailer.sol\":511:619  function isRetailer(address account)public view returns(bool){... */\n      swap2\n      swap1\n      pop\n      jump\t// out\n        /* \"fisco/Retailer.sol\":725:802  function renounceRetailer()public{... */\n    tag_13:\n        /* \"fisco/Retailer.sol\":768:795  _removeRetailer(msg.sender) */\n      tag_24\n        /* \"fisco/Retailer.sol\":784:794  msg.sender */\n      caller\n        /* \"fisco/Retailer.sol\":768:783  _removeRetailer */\n      tag_25\n        /* \"fisco/Retailer.sol\":768:795  _removeRetailer(msg.sender) */\n      jump\t// in\n    tag_24:\n        /* \"fisco/Retailer.sol\":725:802  function renounceRetailer()public{... */\n      jump\t// out\n        /* \"fisco/Retailer.sol\":809:932  function _addRetailer(address account)internal{... */\n    tag_19:\n        /* \"fisco/Retailer.sol\":865:888  _retailers.add(account) */\n      tag_27\n        /* \"fisco/Retailer.sol\":880:887  account */\n      dup2\n        /* \"fisco/Retailer.sol\":865:875  _retailers */\n      0x0\n        /* \"fisco/Retailer.sol\":865:879  _retailers.add */\n      tag_28\n      swap1\n        /* \"fisco/Retailer.sol\":865:888  _retailers.add(account) */\n      swap2\n      swap1\n      0xffffffff\n      and\n      jump\t// in\n    tag_27:\n        /* \"fisco/Retailer.sol\":917:924  account */\n      dup1\n        /* \"fisco/Retailer.sol\":903:925  RetailerAdded(account) */\n      0xffffffffffffffffffffffffffffffffffffffff\n      and\n      0x71ae26cad02663e3d92efd6ec56031a80d74a20c0ab4183faa8bf262261c9baa\n      mload(0x40)\n      mload(0x40)\n      dup1\n      swap2\n      sub\n      swap1\n      log2\n        /* \"fisco/Retailer.sol\":809:932  function _addRetailer(address account)internal{... */\n      pop\n      jump\t// out\n        /* \"fisco/Roles.sol\":140:332  function has(Role storage role,address account)internal view returns(bool){... */\n    tag_22:\n        /* \"fisco/Roles.sol\":209:213  bool */\n      0x0\n        /* \"fisco/Roles.sol\":249:250  0 */\n      dup1\n        /* \"fisco/Roles.sol\":232:251  account!=address(0) */\n      0xffffffffffffffffffffffffffffffffffffffff\n      and\n        /* \"fisco/Roles.sol\":232:239  account */\n      dup3\n        /* \"fisco/Roles.sol\":232:251  account!=address(0) */\n      0xffffffffffffffffffffffffffffffffffffffff\n      and\n      eq\n      iszero\n        /* \"fisco/Roles.sol\":224:288  require(account!=address(0),\"Roles:account is the zero address\") */\n      iszero\n      iszero\n      tag_30\n      jumpi\n      mload(0x40)\n      0x8c379a000000000000000000000000000000000000000000000000000000000\n      dup2\n      mstore\n      0x4\n      add\n      dup1\n      dup1\n      0x20\n      add\n      dup3\n      dup2\n      sub\n      dup3\n      mstore\n      0x21\n      dup2\n      mstore\n      0x20\n      add\n      dup1\n      0x526f6c65733a6163636f756e7420697320746865207a65726f20616464726573\n      dup2\n      mstore\n      0x20\n      add\n      0x7300000000000000000000000000000000000000000000000000000000000000\n      dup2\n      mstore\n      pop\n      0x40\n      add\n      swap2\n      pop\n      pop\n      mload(0x40)\n      dup1\n      swap2\n      sub\n      swap1\n      revert\n    tag_30:\n        /* \"fisco/Roles.sol\":305:309  role */\n      dup3\n        /* \"fisco/Roles.sol\":305:316  role.bearer */\n      0x0\n      add\n        /* \"fisco/Roles.sol\":305:325  role.bearer[account] */\n      0x0\n        /* \"fisco/Roles.sol\":317:324  account */\n      dup4\n        /* \"fisco/Roles.sol\":305:325  role.bearer[account] */\n      0xffffffffffffffffffffffffffffffffffffffff\n      and\n      0xffffffffffffffffffffffffffffffffffffffff\n      and\n      dup2\n      mstore\n      0x20\n      add\n      swap1\n      dup2\n      mstore\n      0x20\n      add\n      0x0\n      keccak256\n      0x0\n      swap1\n      sload\n      swap1\n      0x100\n      exp\n      swap1\n      div\n      0xff\n      and\n        /* \"fisco/Roles.sol\":298:325  return role.bearer[account] */\n      swap1\n      pop\n        /* \"fisco/Roles.sol\":140:332  function has(Role storage role,address account)internal view returns(bool){... */\n      swap3\n      swap2\n      pop\n      pop\n      jump\t// out\n        /* \"fisco/Retailer.sol\":938:1070  function _removeRetailer(address account)internal{... */\n    tag_25:\n        /* \"fisco/Retailer.sol\":998:1024  _retailers.remove(account) */\n      tag_32\n        /* \"fisco/Retailer.sol\":1016:1023  account */\n      dup2\n        /* \"fisco/Retailer.sol\":998:1008  _retailers */\n      0x0\n        /* \"fisco/Retailer.sol\":998:1015  _retailers.remove */\n      tag_33\n      swap1\n        /* \"fisco/Retailer.sol\":998:1024  _retailers.remove(account) */\n      swap2\n      swap1\n      0xffffffff\n      and\n      jump\t// in\n    tag_32:\n        /* \"fisco/Retailer.sol\":1055:1062  account */\n      dup1\n        /* \"fisco/Retailer.sol\":1039:1063  RetailerRemoved(account) */\n      0xffffffffffffffffffffffffffffffffffffffff\n      and\n      0xdb7176e79cffef81cb01767dd0447a0b24bb72ca9778d4b245581086b2a7e6db\n      mload(0x40)\n      mload(0x40)\n      dup1\n      swap2\n      sub\n      swap1\n      log2\n        /* \"fisco/Retailer.sol\":938:1070  function _removeRetailer(address account)internal{... */\n      pop\n      jump\t// out\n        /* \"fisco/Roles.sol\":337:504  function add(Role storage role,address account)internal{... */\n    tag_28:\n        /* \"fisco/Roles.sol\":411:428  has(role,account) */\n      tag_35\n        /* \"fisco/Roles.sol\":415:419  role */\n      dup3\n        /* \"fisco/Roles.sol\":420:427  account */\n      dup3\n        /* \"fisco/Roles.sol\":411:414  has */\n      tag_22\n        /* \"fisco/Roles.sol\":411:428  has(role,account) */\n      jump\t// in\n    tag_35:\n        /* \"fisco/Roles.sol\":410:428  !has(role,account) */\n      iszero\n        /* \"fisco/Roles.sol\":402:462  require(!has(role,account), \"Roles: account already exists\") */\n      iszero\n      iszero\n      tag_36\n      jumpi\n      mload(0x40)\n      0x8c379a000000000000000000000000000000000000000000000000000000000\n      dup2\n      mstore\n      0x4\n      add\n      dup1\n      dup1\n      0x20\n      add\n      dup3\n      dup2\n      sub\n      dup3\n      mstore\n      0x1d\n      dup2\n      mstore\n      0x20\n      add\n      dup1\n      0x526f6c65733a206163636f756e7420616c726561647920657869737473000000\n      dup2\n      mstore\n      pop\n      0x20\n      add\n      swap2\n      pop\n      pop\n      mload(0x40)\n      dup1\n      swap2\n      sub\n      swap1\n      revert\n    tag_36:\n        /* \"fisco/Roles.sol\":493:497  true */\n      0x1\n        /* \"fisco/Roles.sol\":472:476  role */\n      dup3\n        /* \"fisco/Roles.sol\":472:483  role.bearer */\n      0x0\n      add\n        /* \"fisco/Roles.sol\":472:492  role.bearer[account] */\n      0x0\n        /* \"fisco/Roles.sol\":484:491  account */\n      dup4\n        /* \"fisco/Roles.sol\":472:492  role.bearer[account] */\n      0xffffffffffffffffffffffffffffffffffffffff\n      and\n      0xffffffffffffffffffffffffffffffffffffffff\n      and\n      dup2\n      mstore\n      0x20\n      add\n      swap1\n      dup2\n      mstore\n      0x20\n      add\n      0x0\n      keccak256\n      0x0\n        /* \"fisco/Roles.sol\":472:497  role.bearer[account]=true */\n      0x100\n      exp\n      dup2\n      sload\n      dup2\n      0xff\n      mul\n      not\n      and\n      swap1\n      dup4\n      iszero\n      iszero\n      mul\n      or\n      swap1\n      sstore\n      pop\n        /* \"fisco/Roles.sol\":337:504  function add(Role storage role,address account)internal{... */\n      pop\n      pop\n      jump\t// out\n        /* \"fisco/Roles.sol\":510:687  function remove(Role storage role, address account) internal {... */\n    tag_33:\n        /* \"fisco/Roles.sol\":589:606  has(role,account) */\n      tag_38\n        /* \"fisco/Roles.sol\":593:597  role */\n      dup3\n        /* \"fisco/Roles.sol\":598:605  account */\n      dup3\n        /* \"fisco/Roles.sol\":589:592  has */\n      tag_22\n        /* \"fisco/Roles.sol\":589:606  has(role,account) */\n      jump\t// in\n    tag_38:\n        /* \"fisco/Roles.sol\":581:642  require(has(role,account),\"Roles:account does not have role\") */\n      iszero\n      iszero\n      tag_39\n      jumpi\n      mload(0x40)\n      0x8c379a000000000000000000000000000000000000000000000000000000000\n      dup2\n      mstore\n      0x4\n      add\n      dup1\n      dup1\n      0x20\n      add\n      dup3\n      dup2\n      sub\n      dup3\n      mstore\n      0x20\n      dup2\n      mstore\n      0x20\n      add\n      dup1\n      0x526f6c65733a6163636f756e7420646f6573206e6f74206861766520726f6c65\n      dup2\n      mstore\n      pop\n      0x20\n      add\n      swap2\n      pop\n      pop\n      mload(0x40)\n      dup1\n      swap2\n      sub\n      swap1\n      revert\n    tag_39:\n        /* \"fisco/Roles.sol\":675:680  false */\n      0x0\n        /* \"fisco/Roles.sol\":652:656  role */\n      dup3\n        /* \"fisco/Roles.sol\":652:663  role.bearer */\n      0x0\n      add\n        /* \"fisco/Roles.sol\":652:672  role.bearer[account] */\n      0x0\n        /* \"fisco/Roles.sol\":664:671  account */\n      dup4\n        /* \"fisco/Roles.sol\":652:672  role.bearer[account] */\n      0xffffffffffffffffffffffffffffffffffffffff\n      and\n      0xffffffffffffffffffffffffffffffffffffffff\n      and\n      dup2\n      mstore\n      0x20\n      add\n      swap1\n      dup2\n      mstore\n      0x20\n      add\n      0x0\n      keccak256\n      0x0\n        /* \"fisco/Roles.sol\":652:680  role.bearer[account] = false */\n      0x100\n      exp\n      dup2\n      sload\n      dup2\n      0xff\n      mul\n      not\n      and\n      swap1\n      dup4\n      iszero\n      iszero\n      mul\n      or\n      swap1\n      sstore\n      pop\n        /* \"fisco/Roles.sol\":510:687  function remove(Role storage role, address account) internal {... */\n      pop\n      pop\n      jump\t// out\n\n    auxdata: 0xa165627a7a72305820f15ec4fb3ebece32bbf4023f47fd8e8c91376ad1341dfcfb119363fab6f7618a0029\n}\n",
				"bytecode": {
					"linkReferences": {},
					"object": "608060405234801561001057600080fd5b5060405160208061087a8339810180604052810190808051906020019092919050505061004b81610051640100000000026401000000009004565b506102c7565b6100728160006100b8640100000000026103bf179091906401000000009004565b8073ffffffffffffffffffffffffffffffffffffffff167f71ae26cad02663e3d92efd6ec56031a80d74a20c0ab4183faa8bf262261c9baa60405160405180910390a250565b6100d182826101a4640100000000026401000000009004565b151515610146576040517f08c379a000000000000000000000000000000000000000000000000000000000815260040180806020018281038252601d8152602001807f526f6c65733a206163636f756e7420616c72656164792065786973747300000081525060200191505060405180910390fd5b60018260000160008373ffffffffffffffffffffffffffffffffffffffff1673ffffffffffffffffffffffffffffffffffffffff16815260200190815260200160002060006101000a81548160ff0219169083151502179055505050565b60008073ffffffffffffffffffffffffffffffffffffffff168273ffffffffffffffffffffffffffffffffffffffff1614151515610270576040517f08c379a00000000000000000000000000000000000000000000000000000000081526004018080602001828103825260218152602001807f526f6c65733a6163636f756e7420697320746865207a65726f2061646472657381526020017f730000000000000000000000000000000000000000000000000000000000000081525060400191505060405180910390fd5b8260000160008373ffffffffffffffffffffffffffffffffffffffff1673ffffffffffffffffffffffffffffffffffffffff16815260200190815260200160002060009054906101000a900460ff16905092915050565b6105a4806102d66000396000f300608060405260043610610057576000357c0100000000000000000000000000000000000000000000000000000000900463ffffffff1680631765372a1461005c5780635da09b881461009f578063db0e6a2f146100fa575b600080fd5b34801561006857600080fd5b5061009d600480360381019080803573ffffffffffffffffffffffffffffffffffffffff169060200190929190505050610111565b005b3480156100ab57600080fd5b506100e0600480360381019080803573ffffffffffffffffffffffffffffffffffffffff1690602001909291905050506101c0565b604051808215151515815260200191505060405180910390f35b34801561010657600080fd5b5061010f6101dd565b005b61011a336101c0565b15156101b4576040517f08c379a00000000000000000000000000000000000000000000000000000000081526004018080602001828103825260328152602001807f52657461696c6572526f6c653a63616c6c657220646f6573206e6f742068617681526020017f652074686552657461696c657220726f6c65000000000000000000000000000081525060400191505060405180910390fd5b6101bd816101e8565b50565b60006101d682600061024290919063ffffffff16565b9050919050565b6101e633610365565b565b6101fc8160006103bf90919063ffffffff16565b8073ffffffffffffffffffffffffffffffffffffffff167f71ae26cad02663e3d92efd6ec56031a80d74a20c0ab4183faa8bf262261c9baa60405160405180910390a250565b60008073ffffffffffffffffffffffffffffffffffffffff168273ffffffffffffffffffffffffffffffffffffffff161415151561030e576040517f08c379a00000000000000000000000000000000000000000000000000000000081526004018080602001828103825260218152602001807f526f6c65733a6163636f756e7420697320746865207a65726f2061646472657381526020017f730000000000000000000000000000000000000000000000000000000000000081525060400191505060405180910390fd5b8260000160008373ffffffffffffffffffffffffffffffffffffffff1673ffffffffffffffffffffffffffffffffffffffff16815260200190815260200160002060009054906101000a900460ff16905092915050565b61037981600061049c90919063ffffffff16565b8073ffffffffffffffffffffffffffffffffffffffff167fdb7176e79cffef81cb01767dd0447a0b24bb72ca9778d4b245581086b2a7e6db60405160405180910390a250565b6103c98282610242565b15151561043e576040517f08c379a000000000000000000000000000000000000000000000000000000000815260040180806020018281038252601d8152602001807f526f6c65733a206163636f756e7420616c72656164792065786973747300000081525060200191505060405180910390fd5b60018260000160008373ffffffffffffffffffffffffffffffffffffffff1673ffffffffffffffffffffffffffffffffffffffff16815260200190815260200160002060006101000a81548160ff0219169083151502179055505050565b6104a68282610242565b151561051a576040517f08c379a00000000000000000000000000000000000000000000000000000000081526004018080602001828103825260208152602001807f526f6c65733a6163636f756e7420646f6573206e6f74206861766520726f6c6581525060200191505060405180910390fd5b60008260000160008373ffffffffffffffffffffffffffffffffffffffff1673ffffffffffffffffffffffffffffffffffffffff16815260200190815260200160002060006101000a81548160ff02191690831515021790555050505600a165627a7a72305820f15ec4fb3ebece32bbf4023f47fd8e8c91376ad1341dfcfb119363fab6f7618a0029",
					"opcodes": "PUSH1 0x80 PUSH1 0x40 MSTORE CALLVALUE DUP1 ISZERO PUSH2 0x10 JUMPI PUSH1 0x0 DUP1 REVERT JUMPDEST POP PUSH1 0x40 MLOAD PUSH1 0x20 DUP1 PUSH2 0x87A DUP4 CODECOPY DUP2 ADD DUP1 PUSH1 0x40 MSTORE DUP2 ADD SWAP1 DUP1 DUP1 MLOAD SWAP1 PUSH1 0x20 ADD SWAP1 SWAP3 SWAP2 SWAP1 POP POP POP PUSH2 0x4B DUP2 PUSH2 0x51 PUSH5 0x100000000 MUL PUSH5 0x100000000 SWAP1 DIV JUMP JUMPDEST POP PUSH2 0x2C7 JUMP JUMPDEST PUSH2 0x72 DUP2 PUSH1 0x0 PUSH2 0xB8 PUSH5 0x100000000 MUL PUSH2 0x3BF OR SWAP1 SWAP2 SWAP1 PUSH5 0x100000000 SWAP1 DIV JUMP JUMPDEST DUP1 PUSH20 0xFFFFFFFFFFFFFFFFFFFFFFFFFFFFFFFFFFFFFFFF AND PUSH32 0x71AE26CAD02663E3D92EFD6EC56031A80D74A20C0AB4183FAA8BF262261C9BAA PUSH1 0x40 MLOAD PUSH1 0x40 MLOAD DUP1 SWAP2 SUB SWAP1 LOG2 POP JUMP JUMPDEST PUSH2 0xD1 DUP3 DUP3 PUSH2 0x1A4 PUSH5 0x100000000 MUL PUSH5 0x100000000 SWAP1 DIV JUMP JUMPDEST ISZERO ISZERO ISZERO PUSH2 0x146 JUMPI PUSH1 0x40 MLOAD PUSH32 0x8C379A000000000000000000000000000000000000000000000000000000000 DUP2 MSTORE PUSH1 0x4 ADD DUP1 DUP1 PUSH1 0x20 ADD DUP3 DUP2 SUB DUP3 MSTORE PUSH1 0x1D DUP2 MSTORE PUSH1 0x20 ADD DUP1 PUSH32 0x526F6C65733A206163636F756E7420616C726561647920657869737473000000 DUP2 MSTORE POP PUSH1 0x20 ADD SWAP2 POP POP PUSH1 0x40 MLOAD DUP1 SWAP2 SUB SWAP1 REVERT JUMPDEST PUSH1 0x1 DUP3 PUSH1 0x0 ADD PUSH1 0x0 DUP4 PUSH20 0xFFFFFFFFFFFFFFFFFFFFFFFFFFFFFFFFFFFFFFFF AND PUSH20 0xFFFFFFFFFFFFFFFFFFFFFFFFFFFFFFFFFFFFFFFF AND DUP2 MSTORE PUSH1 0x20 ADD SWAP1 DUP2 MSTORE PUSH1 0x20 ADD PUSH1 0x0 KECCAK256 PUSH1 0x0 PUSH2 0x100 EXP DUP2 SLOAD DUP2 PUSH1 0xFF MUL NOT AND SWAP1 DUP4 ISZERO ISZERO MUL OR SWAP1 SSTORE POP POP POP JUMP JUMPDEST PUSH1 0x0 DUP1 PUSH20 0xFFFFFFFFFFFFFFFFFFFFFFFFFFFFFFFFFFFFFFFF AND DUP3 PUSH20 0xFFFFFFFFFFFFFFFFFFFFFFFFFFFFFFFFFFFFFFFF AND EQ ISZERO ISZERO ISZERO PUSH2 0x270 JUMPI PUSH1 0x40 MLOAD PUSH32 0x8C379A000000000000000000000000000000000000000000000000000000000 DUP2 MSTORE PUSH1 0x4 ADD DUP1 DUP1 PUSH1 0x20 ADD DUP3 DUP2 SUB DUP3 MSTORE PUSH1 0x21 DUP2 MSTORE PUSH1 0x20 ADD DUP1 PUSH32 0x526F6C65733A6163636F756E7420697320746865207A65726F20616464726573 DUP2 MSTORE PUSH1 0x20 ADD PUSH32 0x7300000000000000000000000000000000000000000000000000000000000000 DUP2 MSTORE POP PUSH1 0x40 ADD SWAP2 POP POP PUSH1 0x40 MLOAD DUP1 SWAP2 SUB SWAP1 REVERT JUMPDEST DUP3 PUSH1 0x0 ADD PUSH1 0x0 DUP4 PUSH20 0xFFFFFFFFFFFFFFFFFFFFFFFFFFFFFFFFFFFFFFFF AND PUSH20 0xFFFFFFFFFFFFFFFFFFFFFFFFFFFFFFFFFFFFFFFF AND DUP2 MSTORE PUSH1 0x20 ADD SWAP1 DUP2 MSTORE PUSH1 0x20 ADD PUSH1 0x0 KECCAK256 PUSH1 0x0 SWAP1 SLOAD SWAP1 PUSH2 0x100 EXP SWAP1 DIV PUSH1 0xFF AND SWAP1 POP SWAP3 SWAP2 POP POP JUMP JUMPDEST PUSH2 0x5A4 DUP1 PUSH2 0x2D6 PUSH1 0x0 CODECOPY PUSH1 0x0 RETURN STOP PUSH1 0x80 PUSH1 0x40 MSTORE PUSH1 0x4 CALLDATASIZE LT PUSH2 0x57 JUMPI PUSH1 0x0 CALLDATALOAD PUSH29 0x100000000000000000000000000000000000000000000000000000000 SWAP1 DIV PUSH4 0xFFFFFFFF AND DUP1 PUSH4 0x1765372A EQ PUSH2 0x5C JUMPI DUP1 PUSH4 0x5DA09B88 EQ PUSH2 0x9F JUMPI DUP1 PUSH4 0xDB0E6A2F EQ PUSH2 0xFA JUMPI JUMPDEST PUSH1 0x0 DUP1 REVERT JUMPDEST CALLVALUE DUP1 ISZERO PUSH2 0x68 JUMPI PUSH1 0x0 DUP1 REVERT JUMPDEST POP PUSH2 0x9D PUSH1 0x4 DUP1 CALLDATASIZE SUB DUP2 ADD SWAP1 DUP1 DUP1 CALLDATALOAD PUSH20 0xFFFFFFFFFFFFFFFFFFFFFFFFFFFFFFFFFFFFFFFF AND SWAP1 PUSH1 0x20 ADD SWAP1 SWAP3 SWAP2 SWAP1 POP POP POP PUSH2 0x111 JUMP JUMPDEST STOP JUMPDEST CALLVALUE DUP1 ISZERO PUSH2 0xAB JUMPI PUSH1 0x0 DUP1 REVERT JUMPDEST POP PUSH2 0xE0 PUSH1 0x4 DUP1 CALLDATASIZE SUB DUP2 ADD SWAP1 DUP1 DUP1 CALLDATALOAD PUSH20 0xFFFFFFFFFFFFFFFFFFFFFFFFFFFFFFFFFFFFFFFF AND SWAP1 PUSH1 0x20 ADD SWAP1 SWAP3 SWAP2 SWAP1 POP POP POP PUSH2 0x1C0 JUMP JUMPDEST PUSH1 0x40 MLOAD DUP1 DUP3 ISZERO ISZERO ISZERO ISZERO DUP2 MSTORE PUSH1 0x20 ADD SWAP2 POP POP PUSH1 0x40 MLOAD DUP1 SWAP2 SUB SWAP1 RETURN JUMPDEST CALLVALUE DUP1 ISZERO PUSH2 0x106 JUMPI PUSH1 0x0 DUP1 REVERT JUMPDEST POP PUSH2 0x10F PUSH2 0x1DD JUMP JUMPDEST STOP JUMPDEST PUSH2 0x11A CALLER PUSH2 0x1C0 JUMP JUMPDEST ISZERO ISZERO PUSH2 0x1B4 JUMPI PUSH1 0x40 MLOAD PUSH32 0x8C379A000000000000000000000000000000000000000000000000000000000 DUP2 MSTORE PUSH1 0x4 ADD DUP1 DUP1 PUSH1 0x20 ADD DUP3 DUP2 SUB DUP3 MSTORE PUSH1 0x32 DUP2 MSTORE PUSH1 0x20 ADD DUP1 PUSH32 0x52657461696C6572526F6C653A63616C6C657220646F6573206E6F7420686176 DUP2 MSTORE PUSH1 0x20 ADD PUSH32 0x652074686552657461696C657220726F6C650000000000000000000000000000 DUP2 MSTORE POP PUSH1 0x40 ADD SWAP2 POP POP PUSH1 0x40 MLOAD DUP1 SWAP2 SUB SWAP1 REVERT JUMPDEST PUSH2 0x1BD DUP2 PUSH2 0x1E8 JUMP JUMPDEST POP JUMP JUMPDEST PUSH1 0x0 PUSH2 0x1D6 DUP3 PUSH1 0x0 PUSH2 0x242 SWAP1 SWAP2 SWAP1 PUSH4 0xFFFFFFFF AND JUMP JUMPDEST SWAP1 POP SWAP2 SWAP1 POP JUMP JUMPDEST PUSH2 0x1E6 CALLER PUSH2 0x365 JUMP JUMPDEST JUMP JUMPDEST PUSH2 0x1FC DUP2 PUSH1 0x0 PUSH2 0x3BF SWAP1 SWAP2 SWAP1 PUSH4 0xFFFFFFFF AND JUMP JUMPDEST DUP1 PUSH20 0xFFFFFFFFFFFFFFFFFFFFFFFFFFFFFFFFFFFFFFFF AND PUSH32 0x71AE26CAD02663E3D92EFD6EC56031A80D74A20C0AB4183FAA8BF262261C9BAA PUSH1 0x40 MLOAD PUSH1 0x40 MLOAD DUP1 SWAP2 SUB SWAP1 LOG2 POP JUMP JUMPDEST PUSH1 0x0 DUP1 PUSH20 0xFFFFFFFFFFFFFFFFFFFFFFFFFFFFFFFFFFFFFFFF AND DUP3 PUSH20 0xFFFFFFFFFFFFFFFFFFFFFFFFFFFFFFFFFFFFFFFF AND EQ ISZERO ISZERO ISZERO PUSH2 0x30E JUMPI PUSH1 0x40 MLOAD PUSH32 0x8C379A000000000000000000000000000000000000000000000000000000000 DUP2 MSTORE PUSH1 0x4 ADD DUP1 DUP1 PUSH1 0x20 ADD DUP3 DUP2 SUB DUP3 MSTORE PUSH1 0x21 DUP2 MSTORE PUSH1 0x20 ADD DUP1 PUSH32 0x526F6C65733A6163636F756E7420697320746865207A65726F20616464726573 DUP2 MSTORE PUSH1 0x20 ADD PUSH32 0x7300000000000000000000000000000000000000000000000000000000000000 DUP2 MSTORE POP PUSH1 0x40 ADD SWAP2 POP POP PUSH1 0x40 MLOAD DUP1 SWAP2 SUB SWAP1 REVERT JUMPDEST DUP3 PUSH1 0x0 ADD PUSH1 0x0 DUP4 PUSH20 0xFFFFFFFFFFFFFFFFFFFFFFFFFFFFFFFFFFFFFFFF AND PUSH20 0xFFFFFFFFFFFFFFFFFFFFFFFFFFFFFFFFFFFFFFFF AND DUP2 MSTORE PUSH1 0x20 ADD SWAP1 DUP2 MSTORE PUSH1 0x20 ADD PUSH1 0x0 KECCAK256 PUSH1 0x0 SWAP1 SLOAD SWAP1 PUSH2 0x100 EXP SWAP1 DIV PUSH1 0xFF AND SWAP1 POP SWAP3 SWAP2 POP POP JUMP JUMPDEST PUSH2 0x379 DUP2 PUSH1 0x0 PUSH2 0x49C SWAP1 SWAP2 SWAP1 PUSH4 0xFFFFFFFF AND JUMP JUMPDEST DUP1 PUSH20 0xFFFFFFFFFFFFFFFFFFFFFFFFFFFFFFFFFFFFFFFF AND PUSH32 0xDB7176E79CFFEF81CB01767DD0447A0B24BB72CA9778D4B245581086B2A7E6DB PUSH1 0x40 MLOAD PUSH1 0x40 MLOAD DUP1 SWAP2 SUB SWAP1 LOG2 POP JUMP JUMPDEST PUSH2 0x3C9 DUP3 DUP3 PUSH2 0x242 JUMP JUMPDEST ISZERO ISZERO ISZERO PUSH2 0x43E JUMPI PUSH1 0x40 MLOAD PUSH32 0x8C379A000000000000000000000000000000000000000000000000000000000 DUP2 MSTORE PUSH1 0x4 ADD DUP1 DUP1 PUSH1 0x20 ADD DUP3 DUP2 SUB DUP3 MSTORE PUSH1 0x1D DUP2 MSTORE PUSH1 0x20 ADD DUP1 PUSH32 0x526F6C65733A206163636F756E7420616C726561647920657869737473000000 DUP2 MSTORE POP PUSH1 0x20 ADD SWAP2 POP POP PUSH1 0x40 MLOAD DUP1 SWAP2 SUB SWAP1 REVERT JUMPDEST PUSH1 0x1 DUP3 PUSH1 0x0 ADD PUSH1 0x0 DUP4 PUSH20 0xFFFFFFFFFFFFFFFFFFFFFFFFFFFFFFFFFFFFFFFF AND PUSH20 0xFFFFFFFFFFFFFFFFFFFFFFFFFFFFFFFFFFFFFFFF AND DUP2 MSTORE PUSH1 0x20 ADD SWAP1 DUP2 MSTORE PUSH1 0x20 ADD PUSH1 0x0 KECCAK256 PUSH1 0x0 PUSH2 0x100 EXP DUP2 SLOAD DUP2 PUSH1 0xFF MUL NOT AND SWAP1 DUP4 ISZERO ISZERO MUL OR SWAP1 SSTORE POP POP POP JUMP JUMPDEST PUSH2 0x4A6 DUP3 DUP3 PUSH2 0x242 JUMP JUMPDEST ISZERO ISZERO PUSH2 0x51A JUMPI PUSH1 0x40 MLOAD PUSH32 0x8C379A000000000000000000000000000000000000000000000000000000000 DUP2 MSTORE PUSH1 0x4 ADD DUP1 DUP1 PUSH1 0x20 ADD DUP3 DUP2 SUB DUP3 MSTORE PUSH1 0x20 DUP2 MSTORE PUSH1 0x20 ADD DUP1 PUSH32 0x526F6C65733A6163636F756E7420646F6573206E6F74206861766520726F6C65 DUP2 MSTORE POP PUSH1 0x20 ADD SWAP2 POP POP PUSH1 0x40 MLOAD DUP1 SWAP2 SUB SWAP1 REVERT JUMPDEST PUSH1 0x0 DUP3 PUSH1 0x0 ADD PUSH1 0x0 DUP4 PUSH20 0xFFFFFFFFFFFFFFFFFFFFFFFFFFFFFFFFFFFFFFFF AND PUSH20 0xFFFFFFFFFFFFFFFFFFFFFFFFFFFFFFFFFFFFFFFF AND DUP2 MSTORE PUSH1 0x20 ADD SWAP1 DUP2 MSTORE PUSH1 0x20 ADD PUSH1 0x0 KECCAK256 PUSH1 0x0 PUSH2 0x100 EXP DUP2 SLOAD DUP2 PUSH1 0xFF MUL NOT AND SWAP1 DUP4 ISZERO ISZERO MUL OR SWAP1 SSTORE POP POP POP JUMP STOP LOG1 PUSH6 0x627A7A723058 KECCAK256 CALL 0x5e 0xc4 CREATE2 RETURNDATACOPY 0xbe 0xce ORIGIN 0xbb DELEGATECALL MUL 0x3f 0x47 REVERT DUP15 DUP13 SWAP2 CALLDATACOPY PUSH11 0xD1341DFCFB119363FAB6F7 PUSH2 0x8A00 0x29 "
				},
				"gasEstimates": {
					"creation": {
						"codeDepositCost": "288800",
						"executionCost": "infinite",
						"totalCost": "infinite"
					},
					"external": {
						"addReatiler(address)": "infinite",
						"isRetailer(address)": "infinite",
						"renounceRetailer()": "infinite"
					},
					"internal": {
						"_addRetailer(address)": "infinite",
						"_removeRetailer(address)": "infinite"
					}
				},
				"methodIdentifiers": {
					"addReatiler(address)": "1765372a",
					"isRetailer(address)": "5da09b88",
					"renounceRetailer()": "db0e6a2f"
				}
			},
			"userdoc": {
				"methods": {}
			}
		}
	}
}