{
	"fisco/Trace.sol": {
		"Trace": {
			"abi": [
				{
					"constant": true,
					"inputs": [
						{
							"name": "traceNumber",
							"type": "uint256"
						}
					],
					"name": "getEproduct",
					"outputs": [
						{
							"name": "",
							"type": "uint256"
						},
						{
							"name": "",
							"type": "string"
						},
						{
							"name": "",
							"type": "string"
						},
						{
							"name": "",
							"type": "string"
						},
						{
							"name": "",
							"type": "address"
						},
						{
							"name": "",
							"type": "uint8"
						}
					],
					"payable": false,
					"stateMutability": "view",
					"type": "function"
				},
				{
					"constant": false,
					"inputs": [
						{
							"name": "account",
							"type": "address"
						}
					],
					"name": "addReatiler",
					"outputs": [],
					"payable": false,
					"stateMutability": "nonpayable",
					"type": "function"
				},
				{
					"constant": false,
					"inputs": [
						{
							"name": "traceNumber",
							"type": "uint256"
						},
						{
							"name": "traceName",
							"type": "string"
						},
						{
							"name": "quality",
							"type": "uint8"
						}
					],
					"name": "addTraceInfoByDistributor",
					"outputs": [
						{
							"name": "",
							"type": "bool"
						}
					],
					"payable": false,
					"stateMutability": "nonpayable",
					"type": "function"
				},
				{
					"constant": true,
					"inputs": [],
					"name": "getAllEproducts",
					"outputs": [
						{
							"name": "",
							"type": "uint256[]"
						}
					],
					"payable": false,
					"stateMutability": "view",
					"type": "function"
				},
				{
					"constant": true,
					"inputs": [
						{
							"name": "account",
							"type": "address"
						}
					],
					"name": "isRetailer",
					"outputs": [
						{
							"name": "",
							"type": "bool"
						}
					],
					"payable": false,
					"stateMutability": "view",
					"type": "function"
				},
				{
					"constant": false,
					"inputs": [],
					"name": "renounceDistributor",
					"outputs": [],
					"payable": false,
					"stateMutability": "nonpayable",
					"type": "function"
				},
				{
					"constant": false,
					"inputs": [
						{
							"name": "account",
							"type": "address"
						}
					],
					"name": "addDistributor",
					"outputs": [],
					"payable": false,
					"stateMutability": "nonpayable",
					"type": "function"
				},
				{
					"constant": true,
					"inputs": [
						{
							"name": "account",
							"type": "address"
						}
					],
					"name": "isDistributor",
					"outputs": [
						{
							"name": "",
							"type": "bool"
						}
					],
					"payable": false,
					"stateMutability": "view",
					"type": "function"
				},
				{
					"constant": false,
					"inputs": [
						{
							"name": "traceNumber",
							"type": "uint256"
						},
						{
							"name": "traceName",
							"type": "string"
						},
						{
							"name": "quality",
							"type": "uint8"
						}
					],
					"name": "addTraceInfoByRetailer",
					"outputs": [
						{
							"name": "",
							"type": "bool"
						}
					],
					"payable": false,
					"stateMutability": "nonpayable",
					"type": "function"
				},
				{
					"constant": false,
					"inputs": [],
					"name": "renounceRetailer",
					"outputs": [],
					"payable": false,
					"stateMutability": "nonpayable",
					"type": "function"
				},
				{
					"constant": false,
					"inputs": [
						{
							"name": "account",
							"type": "address"
						}
					],
					"name": "addProducer",
					"outputs": [],
					"payable": false,
					"stateMutability": "nonpayable",
					"type": "function"
				},
				{
					"constant": true,
					"inputs": [
						{
							"name": "account",
							"type": "address"
						}
					],
					"name": "isProducer",
					"outputs": [
						{
							"name": "",
							"type": "bool"
						}
					],
					"payable": false,
					"stateMutability": "view",
					"type": "function"
				},
				{
					"constant": true,
					"inputs": [
						{
							"name": "traceNumber",
							"type": "uint256"
						}
					],
					"name": "getaTraceInfo",
					"outputs": [
						{
							"name": "",
							"type": "uint256[]"
						},
						{
							"name": "",
							"type": "string[]"
						},
						{
							"name": "",
							"type": "address[]"
						},
						{
							"name": "",
							"type": "uint8[]"
						}
					],
					"payable": false,
					"stateMutability": "view",
					"type": "function"
				},
				{
					"constant": false,
					"inputs": [],
					"name": "renounceProducer",
					"outputs": [],
					"payable": false,
					"stateMutability": "nonpayable",
					"type": "function"
				},
				{
					"constant": false,
					"inputs": [
						{
							"name": "name",
							"type": "string"
						},
						{
							"name": "traceNumber",
							"type": "uint256"
						},
						{
							"name": "traceName",
							"type": "string"
						},
						{
							"name": "quality",
							"type": "uint8"
						}
					],
					"name": "newEproducts",
					"outputs": [
						{
							"name": "",
							"type": "address"
						}
					],
					"payable": false,
					"stateMutability": "nonpayable",
					"type": "function"
				},
				{
					"inputs": [
						{
							"name": "producer",
							"type": "address"
						},
						{
							"name": "distributor",
							"type": "address"
						},
						{
							"name": "retailer",
							"type": "address"
						}
					],
					"payable": false,
					"stateMutability": "nonpayable",
					"type": "constructor"
				},
				{
					"anonymous": false,
					"inputs": [
						{
							"indexed": true,
							"name": "account",
							"type": "address"
						}
					],
					"name": "RetailerAdded",
					"type": "event"
				},
				{
					"anonymous": false,
					"inputs": [
						{
							"indexed": true,
							"name": "account",
							"type": "address"
						}
					],
					"name": "RetailerRemoved",
					"type": "event"
				},
				{
					"anonymous": false,
					"inputs": [
						{
							"indexed": true,
							"name": "account",
							"type": "address"
						}
					],
					"name": "DistributorAdded",
					"type": "event"
				},
				{
					"anonymous": false,
					"inputs": [
						{
							"indexed": true,
							"name": "account",
							"type": "address"
						}
					],
					"name": "DistributorRemoved",
					"type": "event"
				},
				{
					"anonymous": false,
					"inputs": [
						{
							"indexed": true,
							"name": "account",
							"type": "address"
						}
					],
					"name": "ProducerAdded",
					"type": "event"
				},
				{
					"anonymous": false,
					"inputs": [
						{
							"indexed": true,
							"name": "account",
							"type": "address"
						}
					],
					"name": "ProducerRemoved",
					"type": "event"
				}
			],
			"devdoc": {
				"methods": {}
			},
			"evm": {
				"assembly": "    /* \"fisco/Trace.sol\":210:2274  contract Trace is Producer,Distributor,Retailer{... */\n  mstore(0x40, 0x80)\n    /* \"fisco/Trace.sol\":330:498  constructor(address producer,... */\n  callvalue\n    /* \"--CODEGEN--\":8:17   */\n  dup1\n    /* \"--CODEGEN--\":5:7   */\n  iszero\n  tag_1\n  jumpi\n    /* \"--CODEGEN--\":30:31   */\n  0x0\n    /* \"--CODEGEN--\":27:28   */\n  dup1\n    /* \"--CODEGEN--\":20:32   */\n  revert\n    /* \"--CODEGEN--\":5:7   */\ntag_1:\n    /* \"fisco/Trace.sol\":330:498  constructor(address producer,... */\n  pop\n  mload(0x40)\n  0x60\n  dup1\n  bytecodeSize\n  dup4\n  codecopy\n  dup2\n  add\n  dup1\n  0x40\n  mstore\n  tag_2\n  swap2\n  swap1\n  dup2\n  add\n  swap1\n  jump(tag_3)\ntag_2:\n    /* \"fisco/Trace.sol\":487:495  retailer */\n  dup1\n    /* \"fisco/Trace.sol\":461:472  distributor */\n  dup3\n    /* \"fisco/Trace.sol\":435:443  producer */\n  dup5\n    /* \"fisco/Producer.sol\":308:330  _addProducer(producer) */\n  tag_9\n    /* \"fisco/Producer.sol\":321:329  producer */\n  dup2\n    /* \"fisco/Producer.sol\":308:320  _addProducer */\n  mul(0x100000000, tag_10)\n    /* \"fisco/Producer.sol\":308:330  _addProducer(producer) */\n  0x100000000\n  swap1\n  div\n  jump\t// in\ntag_9:\n    /* \"fisco/Producer.sol\":267:333  constructor(address producer)public{... */\n  pop\n    /* \"fisco/Distributor.sol\":514:542  _addDistributor(distributor) */\n  tag_12\n    /* \"fisco/Distributor.sol\":530:541  distributor */\n  dup2\n    /* \"fisco/Distributor.sol\":514:529  _addDistributor */\n  mul(0x100000000, tag_13)\n    /* \"fisco/Distributor.sol\":514:542  _addDistributor(distributor) */\n  0x100000000\n  swap1\n  div\n  jump\t// in\ntag_12:\n    /* \"fisco/Distributor.sol\":465:549  constructor(address distributor)public{... */\n  pop\n    /* \"fisco/Retailer.sol\":335:357  _addRetailer(retailer) */\n  tag_15\n    /* \"fisco/Retailer.sol\":348:356  retailer */\n  dup2\n    /* \"fisco/Retailer.sol\":335:347  _addRetailer */\n  mul(0x100000000, tag_16)\n    /* \"fisco/Retailer.sol\":335:357  _addRetailer(retailer) */\n  0x100000000\n  swap1\n  div\n  jump\t// in\ntag_15:\n    /* \"fisco/Retailer.sol\":290:364  constructor(address retailer)public{... */\n  pop\n    /* \"fisco/Trace.sol\":330:498  constructor(address producer,... */\n  pop\n  pop\n  pop\n    /* \"fisco/Trace.sol\":210:2274  contract Trace is Producer,Distributor,Retailer{... */\n  jump(tag_18)\n    /* \"fisco/Producer.sol\":722:834  function _addProducer(address account)internal{... */\ntag_10:\n    /* \"fisco/Producer.sol\":774:797  _producers.add(account) */\n  tag_20\n    /* \"fisco/Producer.sol\":789:796  account */\n  dup2\n    /* \"fisco/Producer.sol\":774:784  _producers */\n  0x0\n    /* \"fisco/Producer.sol\":774:788  _producers.add */\n  or(tag_0_190, mul(0x100000000, tag_21))\n  swap1\n    /* \"fisco/Producer.sol\":774:797  _producers.add(account) */\n  swap2\n  swap1\n  0x100000000\n  swap1\n  div\n  jump\t// in\ntag_20:\n    /* \"fisco/Producer.sol\":822:829  account */\n  dup1\n    /* \"fisco/Producer.sol\":808:830  ProducerAdded(account) */\n  0xffffffffffffffffffffffffffffffffffffffff\n  and\n  0x2977383b0207d39ef14220620b6cf3e6c9b6e78592af90baeef6614ed2fcd2c6\n  mload(0x40)\n  mload(0x40)\n  dup1\n  swap2\n  sub\n  swap1\n  log2\n    /* \"fisco/Producer.sol\":722:834  function _addProducer(address account)internal{... */\n  pop\n  jump\t// out\n    /* \"fisco/Distributor.sol\":1147:1280  function _addDistributor(address account)internal{... */\ntag_13:\n    /* \"fisco/Distributor.sol\":1206:1232  _distributors.add(account) */\n  tag_23\n    /* \"fisco/Distributor.sol\":1224:1231  account */\n  dup2\n    /* \"fisco/Distributor.sol\":1206:1219  _distributors */\n  0x1\n    /* \"fisco/Distributor.sol\":1206:1223  _distributors.add */\n  or(tag_0_190, mul(0x100000000, tag_21))\n  swap1\n    /* \"fisco/Distributor.sol\":1206:1232  _distributors.add(account) */\n  swap2\n  swap1\n  0x100000000\n  swap1\n  div\n  jump\t// in\ntag_23:\n    /* \"fisco/Distributor.sol\":1264:1271  account */\n  dup1\n    /* \"fisco/Distributor.sol\":1247:1272  DistributorAdded(account) */\n  0xffffffffffffffffffffffffffffffffffffffff\n  and\n  0xddbf200aa634dc3fb81cfd68583dd1040d1c751d335e1d86b631bde3e977fea8\n  mload(0x40)\n  mload(0x40)\n  dup1\n  swap2\n  sub\n  swap1\n  log2\n    /* \"fisco/Distributor.sol\":1147:1280  function _addDistributor(address account)internal{... */\n  pop\n  jump\t// out\n    /* \"fisco/Retailer.sol\":809:932  function _addRetailer(address account)internal{... */\ntag_16:\n    /* \"fisco/Retailer.sol\":865:888  _retailers.add(account) */\n  tag_25\n    /* \"fisco/Retailer.sol\":880:887  account */\n  dup2\n    /* \"fisco/Retailer.sol\":865:875  _retailers */\n  0x2\n    /* \"fisco/Retailer.sol\":865:879  _retailers.add */\n  or(tag_0_190, mul(0x100000000, tag_21))\n  swap1\n    /* \"fisco/Retailer.sol\":865:888  _retailers.add(account) */\n  swap2\n  swap1\n  0x100000000\n  swap1\n  div\n  jump\t// in\ntag_25:\n    /* \"fisco/Retailer.sol\":917:924  account */\n  dup1\n    /* \"fisco/Retailer.sol\":903:925  RetailerAdded(account) */\n  0xffffffffffffffffffffffffffffffffffffffff\n  and\n  0x71ae26cad02663e3d92efd6ec56031a80d74a20c0ab4183faa8bf262261c9baa\n  mload(0x40)\n  mload(0x40)\n  dup1\n  swap2\n  sub\n  swap1\n  log2\n    /* \"fisco/Retailer.sol\":809:932  function _addRetailer(address account)internal{... */\n  pop\n  jump\t// out\n    /* \"fisco/Roles.sol\":337:504  function add(Role storage role,address account)internal{... */\ntag_21:\n    /* \"fisco/Roles.sol\":411:428  has(role,account) */\n  tag_27\n    /* \"fisco/Roles.sol\":415:419  role */\n  dup3\n    /* \"fisco/Roles.sol\":420:427  account */\n  dup3\n    /* \"fisco/Roles.sol\":411:414  has */\n  mul(0x100000000, tag_28)\n    /* \"fisco/Roles.sol\":411:428  has(role,account) */\n  0x100000000\n  swap1\n  div\n  jump\t// in\ntag_27:\n    /* \"fisco/Roles.sol\":410:428  !has(role,account) */\n  iszero\n    /* \"fisco/Roles.sol\":402:462  require(!has(role,account), \"Roles: account already exists\") */\n  iszero\n  iszero\n  tag_29\n  jumpi\n  mload(0x40)\n  0x8c379a000000000000000000000000000000000000000000000000000000000\n  dup2\n  mstore\n  0x4\n  add\n  tag_30\n  swap1\n  jump(tag_31)\ntag_30:\n  mload(0x40)\n  dup1\n  swap2\n  sub\n  swap1\n  revert\ntag_29:\n    /* \"fisco/Roles.sol\":493:497  true */\n  0x1\n    /* \"fisco/Roles.sol\":472:476  role */\n  dup3\n    /* \"fisco/Roles.sol\":472:483  role.bearer */\n  0x0\n  add\n    /* \"fisco/Roles.sol\":472:492  role.bearer[account] */\n  0x0\n    /* \"fisco/Roles.sol\":484:491  account */\n  dup4\n    /* \"fisco/Roles.sol\":472:492  role.bearer[account] */\n  0xffffffffffffffffffffffffffffffffffffffff\n  and\n  0xffffffffffffffffffffffffffffffffffffffff\n  and\n  dup2\n  mstore\n  0x20\n  add\n  swap1\n  dup2\n  mstore\n  0x20\n  add\n  0x0\n  keccak256\n  0x0\n    /* \"fisco/Roles.sol\":472:497  role.bearer[account]=true */\n  0x100\n  exp\n  dup2\n  sload\n  dup2\n  0xff\n  mul\n  not\n  and\n  swap1\n  dup4\n  iszero\n  iszero\n  mul\n  or\n  swap1\n  sstore\n  pop\n    /* \"fisco/Roles.sol\":337:504  function add(Role storage role,address account)internal{... */\n  pop\n  pop\n  jump\t// out\n    /* \"fisco/Roles.sol\":140:332  function has(Role storage role,address account)internal view returns(bool){... */\ntag_28:\n    /* \"fisco/Roles.sol\":209:213  bool */\n  0x0\n    /* \"fisco/Roles.sol\":249:250  0 */\n  dup1\n    /* \"fisco/Roles.sol\":232:251  account!=address(0) */\n  0xffffffffffffffffffffffffffffffffffffffff\n  and\n    /* \"fisco/Roles.sol\":232:239  account */\n  dup3\n    /* \"fisco/Roles.sol\":232:251  account!=address(0) */\n  0xffffffffffffffffffffffffffffffffffffffff\n  and\n  eq\n  iszero\n    /* \"fisco/Roles.sol\":224:288  require(account!=address(0),\"Roles:account is the zero address\") */\n  iszero\n  iszero\n  tag_33\n  jumpi\n  mload(0x40)\n  0x8c379a000000000000000000000000000000000000000000000000000000000\n  dup2\n  mstore\n  0x4\n  add\n  tag_34\n  swap1\n  jump(tag_35)\ntag_34:\n  mload(0x40)\n  dup1\n  swap2\n  sub\n  swap1\n  revert\ntag_33:\n    /* \"fisco/Roles.sol\":305:309  role */\n  dup3\n    /* \"fisco/Roles.sol\":305:316  role.bearer */\n  0x0\n  add\n    /* \"fisco/Roles.sol\":305:325  role.bearer[account] */\n  0x0\n    /* \"fisco/Roles.sol\":317:324  account */\n  dup4\n    /* \"fisco/Roles.sol\":305:325  role.bearer[account] */\n  0xffffffffffffffffffffffffffffffffffffffff\n  and\n  0xffffffffffffffffffffffffffffffffffffffff\n  and\n  dup2\n  mstore\n  0x20\n  add\n  swap1\n  dup2\n  mstore\n  0x20\n  add\n  0x0\n  keccak256\n  0x0\n  swap1\n  sload\n  swap1\n  0x100\n  exp\n  swap1\n  div\n  0xff\n  and\n    /* \"fisco/Roles.sol\":298:325  return role.bearer[account] */\n  swap1\n  pop\n    /* \"fisco/Roles.sol\":140:332  function has(Role storage role,address account)internal view returns(bool){... */\n  swap3\n  swap2\n  pop\n  pop\n  jump\t// out\n    /* \"--CODEGEN--\":5:127   */\ntag_37:\n  0x0\n    /* \"--CODEGEN--\":83:122   */\n  tag_38\n    /* \"--CODEGEN--\":114:120   */\n  dup3\n    /* \"--CODEGEN--\":108:121   */\n  mload\n    /* \"--CODEGEN--\":83:122   */\n  jump(tag_39)\ntag_38:\n    /* \"--CODEGEN--\":74:122   */\n  swap1\n  pop\n    /* \"--CODEGEN--\":68:127   */\n  swap3\n  swap2\n  pop\n  pop\n  jump\n    /* \"--CODEGEN--\":134:669   */\ntag_3:\n  0x0\n  dup1\n  0x0\n    /* \"--CODEGEN--\":283:285   */\n  0x60\n    /* \"--CODEGEN--\":271:280   */\n  dup5\n    /* \"--CODEGEN--\":262:269   */\n  dup7\n    /* \"--CODEGEN--\":258:281   */\n  sub\n    /* \"--CODEGEN--\":254:286   */\n  slt\n    /* \"--CODEGEN--\":251:253   */\n  iszero\n  tag_41\n  jumpi\n    /* \"--CODEGEN--\":299:300   */\n  0x0\n    /* \"--CODEGEN--\":296:297   */\n  dup1\n    /* \"--CODEGEN--\":289:301   */\n  revert\n    /* \"--CODEGEN--\":251:253   */\ntag_41:\n    /* \"--CODEGEN--\":334:335   */\n  0x0\n    /* \"--CODEGEN--\":351:415   */\n  tag_42\n    /* \"--CODEGEN--\":407:414   */\n  dup7\n    /* \"--CODEGEN--\":398:404   */\n  dup3\n    /* \"--CODEGEN--\":387:396   */\n  dup8\n    /* \"--CODEGEN--\":383:405   */\n  add\n    /* \"--CODEGEN--\":351:415   */\n  jump(tag_37)\ntag_42:\n    /* \"--CODEGEN--\":341:415   */\n  swap4\n  pop\n    /* \"--CODEGEN--\":313:421   */\n  pop\n    /* \"--CODEGEN--\":452:454   */\n  0x20\n    /* \"--CODEGEN--\":470:534   */\n  tag_43\n    /* \"--CODEGEN--\":526:533   */\n  dup7\n    /* \"--CODEGEN--\":517:523   */\n  dup3\n    /* \"--CODEGEN--\":506:515   */\n  dup8\n    /* \"--CODEGEN--\":502:524   */\n  add\n    /* \"--CODEGEN--\":470:534   */\n  jump(tag_37)\ntag_43:\n    /* \"--CODEGEN--\":460:534   */\n  swap3\n  pop\n    /* \"--CODEGEN--\":431:540   */\n  pop\n    /* \"--CODEGEN--\":571:573   */\n  0x40\n    /* \"--CODEGEN--\":589:653   */\n  tag_44\n    /* \"--CODEGEN--\":645:652   */\n  dup7\n    /* \"--CODEGEN--\":636:642   */\n  dup3\n    /* \"--CODEGEN--\":625:634   */\n  dup8\n    /* \"--CODEGEN--\":621:643   */\n  add\n    /* \"--CODEGEN--\":589:653   */\n  jump(tag_37)\ntag_44:\n    /* \"--CODEGEN--\":579:653   */\n  swap2\n  pop\n    /* \"--CODEGEN--\":550:659   */\n  pop\n    /* \"--CODEGEN--\":245:669   */\n  swap3\n  pop\n  swap3\n  pop\n  swap3\n  jump\n    /* \"--CODEGEN--\":677:973   */\ntag_46:\n  0x0\n    /* \"--CODEGEN--\":832:834   */\n  0x1d\n    /* \"--CODEGEN--\":827:830   */\n  dup3\n    /* \"--CODEGEN--\":820:835   */\n  mstore\n    /* \"--CODEGEN--\":869:935   */\n  0x526f6c65733a206163636f756e7420616c726561647920657869737473000000\n    /* \"--CODEGEN--\":864:866   */\n  0x20\n    /* \"--CODEGEN--\":859:862   */\n  dup4\n    /* \"--CODEGEN--\":855:867   */\n  add\n    /* \"--CODEGEN--\":848:936   */\n  mstore\n    /* \"--CODEGEN--\":964:966   */\n  0x40\n    /* \"--CODEGEN--\":959:962   */\n  dup3\n    /* \"--CODEGEN--\":955:967   */\n  add\n    /* \"--CODEGEN--\":948:967   */\n  swap1\n  pop\n    /* \"--CODEGEN--\":813:973   */\n  swap2\n  swap1\n  pop\n  jump\n    /* \"--CODEGEN--\":982:1379   */\ntag_48:\n  0x0\n    /* \"--CODEGEN--\":1137:1139   */\n  0x21\n    /* \"--CODEGEN--\":1132:1135   */\n  dup3\n    /* \"--CODEGEN--\":1125:1140   */\n  mstore\n    /* \"--CODEGEN--\":1174:1240   */\n  0x526f6c65733a6163636f756e7420697320746865207a65726f20616464726573\n    /* \"--CODEGEN--\":1169:1171   */\n  0x20\n    /* \"--CODEGEN--\":1164:1167   */\n  dup4\n    /* \"--CODEGEN--\":1160:1172   */\n  add\n    /* \"--CODEGEN--\":1153:1241   */\n  mstore\n    /* \"--CODEGEN--\":1275:1341   */\n  0x7300000000000000000000000000000000000000000000000000000000000000\n    /* \"--CODEGEN--\":1270:1272   */\n  0x40\n    /* \"--CODEGEN--\":1265:1268   */\n  dup4\n    /* \"--CODEGEN--\":1261:1273   */\n  add\n    /* \"--CODEGEN--\":1254:1342   */\n  mstore\n    /* \"--CODEGEN--\":1370:1372   */\n  0x60\n    /* \"--CODEGEN--\":1365:1368   */\n  dup3\n    /* \"--CODEGEN--\":1361:1373   */\n  add\n    /* \"--CODEGEN--\":1354:1373   */\n  swap1\n  pop\n    /* \"--CODEGEN--\":1118:1379   */\n  swap2\n  swap1\n  pop\n  jump\n    /* \"--CODEGEN--\":1387:1774   */\ntag_31:\n  0x0\n    /* \"--CODEGEN--\":1568:1570   */\n  0x20\n    /* \"--CODEGEN--\":1557:1566   */\n  dup3\n    /* \"--CODEGEN--\":1553:1571   */\n  add\n    /* \"--CODEGEN--\":1545:1571   */\n  swap1\n  pop\n    /* \"--CODEGEN--\":1618:1627   */\n  dup2\n    /* \"--CODEGEN--\":1612:1616   */\n  dup2\n    /* \"--CODEGEN--\":1608:1628   */\n  sub\n    /* \"--CODEGEN--\":1604:1605   */\n  0x0\n    /* \"--CODEGEN--\":1593:1602   */\n  dup4\n    /* \"--CODEGEN--\":1589:1606   */\n  add\n    /* \"--CODEGEN--\":1582:1629   */\n  mstore\n    /* \"--CODEGEN--\":1643:1764   */\n  tag_50\n    /* \"--CODEGEN--\":1759:1763   */\n  dup2\n    /* \"--CODEGEN--\":1643:1764   */\n  jump(tag_46)\ntag_50:\n    /* \"--CODEGEN--\":1635:1764   */\n  swap1\n  pop\n    /* \"--CODEGEN--\":1539:1774   */\n  swap2\n  swap1\n  pop\n  jump\n    /* \"--CODEGEN--\":1781:2168   */\ntag_35:\n  0x0\n    /* \"--CODEGEN--\":1962:1964   */\n  0x20\n    /* \"--CODEGEN--\":1951:1960   */\n  dup3\n    /* \"--CODEGEN--\":1947:1965   */\n  add\n    /* \"--CODEGEN--\":1939:1965   */\n  swap1\n  pop\n    /* \"--CODEGEN--\":2012:2021   */\n  dup2\n    /* \"--CODEGEN--\":2006:2010   */\n  dup2\n    /* \"--CODEGEN--\":2002:2022   */\n  sub\n    /* \"--CODEGEN--\":1998:1999   */\n  0x0\n    /* \"--CODEGEN--\":1987:1996   */\n  dup4\n    /* \"--CODEGEN--\":1983:2000   */\n  add\n    /* \"--CODEGEN--\":1976:2023   */\n  mstore\n    /* \"--CODEGEN--\":2037:2158   */\n  tag_52\n    /* \"--CODEGEN--\":2153:2157   */\n  dup2\n    /* \"--CODEGEN--\":2037:2158   */\n  jump(tag_48)\ntag_52:\n    /* \"--CODEGEN--\":2029:2158   */\n  swap1\n  pop\n    /* \"--CODEGEN--\":1933:2168   */\n  swap2\n  swap1\n  pop\n  jump\n    /* \"--CODEGEN--\":2175:2303   */\ntag_39:\n  0x0\n    /* \"--CODEGEN--\":2255:2297   */\n  0xffffffffffffffffffffffffffffffffffffffff\n    /* \"--CODEGEN--\":2248:2253   */\n  dup3\n    /* \"--CODEGEN--\":2244:2298   */\n  and\n    /* \"--CODEGEN--\":2233:2298   */\n  swap1\n  pop\n    /* \"--CODEGEN--\":2227:2303   */\n  swap2\n  swap1\n  pop\n  jump\n    /* \"fisco/Trace.sol\":210:2274  contract Trace is Producer,Distributor,Retailer{... */\ntag_18:\n  dataSize(sub_0)\n  dup1\n  dataOffset(sub_0)\n  0x0\n  codecopy\n  0x0\n  return\nstop\n\nsub_0: assembly {\n        /* \"fisco/Trace.sol\":210:2274  contract Trace is Producer,Distributor,Retailer{... */\n      mstore(0x40, 0x80)\n      jumpi(tag_1, lt(calldatasize, 0x4))\n      calldataload(0x0)\n      0x100000000000000000000000000000000000000000000000000000000\n      swap1\n      div\n      0xffffffff\n      and\n      dup1\n      0x12cbc707\n      eq\n      tag_2\n      jumpi\n      dup1\n      0x1765372a\n      eq\n      tag_3\n      jumpi\n      dup1\n      0x51d17e00\n      eq\n      tag_4\n      jumpi\n      dup1\n      0x5cc91ead\n      eq\n      tag_5\n      jumpi\n      dup1\n      0x5da09b88\n      eq\n      tag_6\n      jumpi\n      dup1\n      0x644241db\n      eq\n      tag_7\n      jumpi\n      dup1\n      0x7250e224\n      eq\n      tag_8\n      jumpi\n      dup1\n      0x8f0c86fa\n      eq\n      tag_9\n      jumpi\n      dup1\n      0xa2d12a39\n      eq\n      tag_10\n      jumpi\n      dup1\n      0xdb0e6a2f\n      eq\n      tag_11\n      jumpi\n      dup1\n      0xddf80166\n      eq\n      tag_12\n      jumpi\n      dup1\n      0xf5521022\n      eq\n      tag_13\n      jumpi\n      dup1\n      0xf76b81e6\n      eq\n      tag_14\n      jumpi\n      dup1\n      0xf9b867d8\n      eq\n      tag_15\n      jumpi\n      dup1\n      0xfb751d0d\n      eq\n      tag_16\n      jumpi\n    tag_1:\n      0x0\n      dup1\n      revert\n        /* \"fisco/Trace.sol\":1885:2162  function getEproduct(uint256 traceNumber)public constant returns(uint,string,string,string,address,uint8) {... */\n    tag_2:\n      callvalue\n        /* \"--CODEGEN--\":8:17   */\n      dup1\n        /* \"--CODEGEN--\":5:7   */\n      iszero\n      tag_17\n      jumpi\n        /* \"--CODEGEN--\":30:31   */\n      0x0\n        /* \"--CODEGEN--\":27:28   */\n      dup1\n        /* \"--CODEGEN--\":20:32   */\n      revert\n        /* \"--CODEGEN--\":5:7   */\n    tag_17:\n        /* \"fisco/Trace.sol\":1885:2162  function getEproduct(uint256 traceNumber)public constant returns(uint,string,string,string,address,uint8) {... */\n      pop\n      tag_18\n      0x4\n      dup1\n      calldatasize\n      sub\n      tag_19\n      swap2\n      swap1\n      dup2\n      add\n      swap1\n      jump(tag_20)\n    tag_19:\n      jump(tag_21)\n    tag_18:\n      mload(0x40)\n      tag_22\n      swap7\n      swap6\n      swap5\n      swap4\n      swap3\n      swap2\n      swap1\n      jump(tag_23)\n    tag_22:\n      mload(0x40)\n      dup1\n      swap2\n      sub\n      swap1\n      return\n        /* \"fisco/Retailer.sol\":625:719  function addReatiler(address account)public onlyRetailer{... */\n    tag_3:\n      callvalue\n        /* \"--CODEGEN--\":8:17   */\n      dup1\n        /* \"--CODEGEN--\":5:7   */\n      iszero\n      tag_24\n      jumpi\n        /* \"--CODEGEN--\":30:31   */\n      0x0\n        /* \"--CODEGEN--\":27:28   */\n      dup1\n        /* \"--CODEGEN--\":20:32   */\n      revert\n        /* \"--CODEGEN--\":5:7   */\n    tag_24:\n        /* \"fisco/Retailer.sol\":625:719  function addReatiler(address account)public onlyRetailer{... */\n      pop\n      tag_25\n      0x4\n      dup1\n      calldatasize\n      sub\n      tag_26\n      swap2\n      swap1\n      dup2\n      add\n      swap1\n      jump(tag_27)\n    tag_26:\n      jump(tag_28)\n    tag_25:\n      stop\n        /* \"fisco/Trace.sol\":927:1271  function addTraceInfoByDistributor(... */\n    tag_4:\n      callvalue\n        /* \"--CODEGEN--\":8:17   */\n      dup1\n        /* \"--CODEGEN--\":5:7   */\n      iszero\n      tag_29\n      jumpi\n        /* \"--CODEGEN--\":30:31   */\n      0x0\n        /* \"--CODEGEN--\":27:28   */\n      dup1\n        /* \"--CODEGEN--\":20:32   */\n      revert\n        /* \"--CODEGEN--\":5:7   */\n    tag_29:\n        /* \"fisco/Trace.sol\":927:1271  function addTraceInfoByDistributor(... */\n      pop\n      tag_30\n      0x4\n      dup1\n      calldatasize\n      sub\n      tag_31\n      swap2\n      swap1\n      dup2\n      add\n      swap1\n      jump(tag_32)\n    tag_31:\n      jump(tag_33)\n    tag_30:\n      mload(0x40)\n      tag_34\n      swap2\n      swap1\n      jump(tag_35)\n    tag_34:\n      mload(0x40)\n      dup1\n      swap2\n      sub\n      swap1\n      return\n        /* \"fisco/Trace.sol\":2168:2272  function getAllEproducts()public constant returns(uint[]) {... */\n    tag_5:\n      callvalue\n        /* \"--CODEGEN--\":8:17   */\n      dup1\n        /* \"--CODEGEN--\":5:7   */\n      iszero\n      tag_36\n      jumpi\n        /* \"--CODEGEN--\":30:31   */\n      0x0\n        /* \"--CODEGEN--\":27:28   */\n      dup1\n        /* \"--CODEGEN--\":20:32   */\n      revert\n        /* \"--CODEGEN--\":5:7   */\n    tag_36:\n        /* \"fisco/Trace.sol\":2168:2272  function getAllEproducts()public constant returns(uint[]) {... */\n      pop\n      tag_37\n      jump(tag_38)\n    tag_37:\n      mload(0x40)\n      tag_39\n      swap2\n      swap1\n      jump(tag_40)\n    tag_39:\n      mload(0x40)\n      dup1\n      swap2\n      sub\n      swap1\n      return\n        /* \"fisco/Retailer.sol\":511:619  function isRetailer(address account)public view returns(bool){... */\n    tag_6:\n      callvalue\n        /* \"--CODEGEN--\":8:17   */\n      dup1\n        /* \"--CODEGEN--\":5:7   */\n      iszero\n      tag_41\n      jumpi\n        /* \"--CODEGEN--\":30:31   */\n      0x0\n        /* \"--CODEGEN--\":27:28   */\n      dup1\n        /* \"--CODEGEN--\":20:32   */\n      revert\n        /* \"--CODEGEN--\":5:7   */\n    tag_41:\n        /* \"fisco/Retailer.sol\":511:619  function isRetailer(address account)public view returns(bool){... */\n      pop\n      tag_42\n      0x4\n      dup1\n      calldatasize\n      sub\n      tag_43\n      swap2\n      swap1\n      dup2\n      add\n      swap1\n      jump(tag_27)\n    tag_43:\n      jump(tag_44)\n    tag_42:\n      mload(0x40)\n      tag_45\n      swap2\n      swap1\n      jump(tag_35)\n    tag_45:\n      mload(0x40)\n      dup1\n      swap2\n      sub\n      swap1\n      return\n        /* \"fisco/Distributor.sol\":1028:1111  function renounceDistributor()public{... */\n    tag_7:\n      callvalue\n        /* \"--CODEGEN--\":8:17   */\n      dup1\n        /* \"--CODEGEN--\":5:7   */\n      iszero\n      tag_46\n      jumpi\n        /* \"--CODEGEN--\":30:31   */\n      0x0\n        /* \"--CODEGEN--\":27:28   */\n      dup1\n        /* \"--CODEGEN--\":20:32   */\n      revert\n        /* \"--CODEGEN--\":5:7   */\n    tag_46:\n        /* \"fisco/Distributor.sol\":1028:1111  function renounceDistributor()public{... */\n      pop\n      tag_47\n      jump(tag_48)\n    tag_47:\n      stop\n        /* \"fisco/Distributor.sol\":888:992  function addDistributor(address account) public onlyDistributor{... */\n    tag_8:\n      callvalue\n        /* \"--CODEGEN--\":8:17   */\n      dup1\n        /* \"--CODEGEN--\":5:7   */\n      iszero\n      tag_49\n      jumpi\n        /* \"--CODEGEN--\":30:31   */\n      0x0\n        /* \"--CODEGEN--\":27:28   */\n      dup1\n        /* \"--CODEGEN--\":20:32   */\n      revert\n        /* \"--CODEGEN--\":5:7   */\n    tag_49:\n        /* \"fisco/Distributor.sol\":888:992  function addDistributor(address account) public onlyDistributor{... */\n      pop\n      tag_50\n      0x4\n      dup1\n      calldatasize\n      sub\n      tag_51\n      swap2\n      swap1\n      dup2\n      add\n      swap1\n      jump(tag_27)\n    tag_51:\n      jump(tag_52)\n    tag_50:\n      stop\n        /* \"fisco/Distributor.sol\":746:860  function isDistributor(address account)public view returns(bool){... */\n    tag_9:\n      callvalue\n        /* \"--CODEGEN--\":8:17   */\n      dup1\n        /* \"--CODEGEN--\":5:7   */\n      iszero\n      tag_53\n      jumpi\n        /* \"--CODEGEN--\":30:31   */\n      0x0\n        /* \"--CODEGEN--\":27:28   */\n      dup1\n        /* \"--CODEGEN--\":20:32   */\n      revert\n        /* \"--CODEGEN--\":5:7   */\n    tag_53:\n        /* \"fisco/Distributor.sol\":746:860  function isDistributor(address account)public view returns(bool){... */\n      pop\n      tag_54\n      0x4\n      dup1\n      calldatasize\n      sub\n      tag_55\n      swap2\n      swap1\n      dup2\n      add\n      swap1\n      jump(tag_27)\n    tag_55:\n      jump(tag_56)\n    tag_54:\n      mload(0x40)\n      tag_57\n      swap2\n      swap1\n      jump(tag_35)\n    tag_57:\n      mload(0x40)\n      dup1\n      swap2\n      sub\n      swap1\n      return\n        /* \"fisco/Trace.sol\":1277:1602  function addTraceInfoByRetailer(uint traceNumber,... */\n    tag_10:\n      callvalue\n        /* \"--CODEGEN--\":8:17   */\n      dup1\n        /* \"--CODEGEN--\":5:7   */\n      iszero\n      tag_58\n      jumpi\n        /* \"--CODEGEN--\":30:31   */\n      0x0\n        /* \"--CODEGEN--\":27:28   */\n      dup1\n        /* \"--CODEGEN--\":20:32   */\n      revert\n        /* \"--CODEGEN--\":5:7   */\n    tag_58:\n        /* \"fisco/Trace.sol\":1277:1602  function addTraceInfoByRetailer(uint traceNumber,... */\n      pop\n      tag_59\n      0x4\n      dup1\n      calldatasize\n      sub\n      tag_60\n      swap2\n      swap1\n      dup2\n      add\n      swap1\n      jump(tag_32)\n    tag_60:\n      jump(tag_61)\n    tag_59:\n      mload(0x40)\n      tag_62\n      swap2\n      swap1\n      jump(tag_35)\n    tag_62:\n      mload(0x40)\n      dup1\n      swap2\n      sub\n      swap1\n      return\n        /* \"fisco/Retailer.sol\":725:802  function renounceRetailer()public{... */\n    tag_11:\n      callvalue\n        /* \"--CODEGEN--\":8:17   */\n      dup1\n        /* \"--CODEGEN--\":5:7   */\n      iszero\n      tag_63\n      jumpi\n        /* \"--CODEGEN--\":30:31   */\n      0x0\n        /* \"--CODEGEN--\":27:28   */\n      dup1\n        /* \"--CODEGEN--\":20:32   */\n      revert\n        /* \"--CODEGEN--\":5:7   */\n    tag_63:\n        /* \"fisco/Retailer.sol\":725:802  function renounceRetailer()public{... */\n      pop\n      tag_64\n      jump(tag_65)\n    tag_64:\n      stop\n        /* \"fisco/Producer.sol\":563:650  function addProducer(address account)public onlyProducer{... */\n    tag_12:\n      callvalue\n        /* \"--CODEGEN--\":8:17   */\n      dup1\n        /* \"--CODEGEN--\":5:7   */\n      iszero\n      tag_66\n      jumpi\n        /* \"--CODEGEN--\":30:31   */\n      0x0\n        /* \"--CODEGEN--\":27:28   */\n      dup1\n        /* \"--CODEGEN--\":20:32   */\n      revert\n        /* \"--CODEGEN--\":5:7   */\n    tag_66:\n        /* \"fisco/Producer.sol\":563:650  function addProducer(address account)public onlyProducer{... */\n      pop\n      tag_67\n      0x4\n      dup1\n      calldatasize\n      sub\n      tag_68\n      swap2\n      swap1\n      dup2\n      add\n      swap1\n      jump(tag_27)\n    tag_68:\n      jump(tag_69)\n    tag_67:\n      stop\n        /* \"fisco/Producer.sol\":461:561  function isProducer(address account)public view returns(bool){... */\n    tag_13:\n      callvalue\n        /* \"--CODEGEN--\":8:17   */\n      dup1\n        /* \"--CODEGEN--\":5:7   */\n      iszero\n      tag_70\n      jumpi\n        /* \"--CODEGEN--\":30:31   */\n      0x0\n        /* \"--CODEGEN--\":27:28   */\n      dup1\n        /* \"--CODEGEN--\":20:32   */\n      revert\n        /* \"--CODEGEN--\":5:7   */\n    tag_70:\n        /* \"fisco/Producer.sol\":461:561  function isProducer(address account)public view returns(bool){... */\n      pop\n      tag_71\n      0x4\n      dup1\n      calldatasize\n      sub\n      tag_72\n      swap2\n      swap1\n      dup2\n      add\n      swap1\n      jump(tag_27)\n    tag_72:\n      jump(tag_73)\n    tag_71:\n      mload(0x40)\n      tag_74\n      swap2\n      swap1\n      jump(tag_35)\n    tag_74:\n      mload(0x40)\n      dup1\n      swap2\n      sub\n      swap1\n      return\n        /* \"fisco/Trace.sol\":1607:1879  function getaTraceInfo(uint256 traceNumber)public constant returns (uint[],string[],address[],uint8[]){... */\n    tag_14:\n      callvalue\n        /* \"--CODEGEN--\":8:17   */\n      dup1\n        /* \"--CODEGEN--\":5:7   */\n      iszero\n      tag_75\n      jumpi\n        /* \"--CODEGEN--\":30:31   */\n      0x0\n        /* \"--CODEGEN--\":27:28   */\n      dup1\n        /* \"--CODEGEN--\":20:32   */\n      revert\n        /* \"--CODEGEN--\":5:7   */\n    tag_75:\n        /* \"fisco/Trace.sol\":1607:1879  function getaTraceInfo(uint256 traceNumber)public constant returns (uint[],string[],address[],uint8[]){... */\n      pop\n      tag_76\n      0x4\n      dup1\n      calldatasize\n      sub\n      tag_77\n      swap2\n      swap1\n      dup2\n      add\n      swap1\n      jump(tag_20)\n    tag_77:\n      jump(tag_78)\n    tag_76:\n      mload(0x40)\n      tag_79\n      swap5\n      swap4\n      swap3\n      swap2\n      swap1\n      jump(tag_80)\n    tag_79:\n      mload(0x40)\n      dup1\n      swap2\n      sub\n      swap1\n      return\n        /* \"fisco/Producer.sol\":651:720  function renounceProducer()public{... */\n    tag_15:\n      callvalue\n        /* \"--CODEGEN--\":8:17   */\n      dup1\n        /* \"--CODEGEN--\":5:7   */\n      iszero\n      tag_81\n      jumpi\n        /* \"--CODEGEN--\":30:31   */\n      0x0\n        /* \"--CODEGEN--\":27:28   */\n      dup1\n        /* \"--CODEGEN--\":20:32   */\n      revert\n        /* \"--CODEGEN--\":5:7   */\n    tag_81:\n        /* \"fisco/Producer.sol\":651:720  function renounceProducer()public{... */\n      pop\n      tag_82\n      jump(tag_83)\n    tag_82:\n      stop\n        /* \"fisco/Trace.sol\":503:922  function newEproducts(string name,uint256 traceNumber,string traceName,uint8 quality) public onlyProducer returns(address){... */\n    tag_16:\n      callvalue\n        /* \"--CODEGEN--\":8:17   */\n      dup1\n        /* \"--CODEGEN--\":5:7   */\n      iszero\n      tag_84\n      jumpi\n        /* \"--CODEGEN--\":30:31   */\n      0x0\n        /* \"--CODEGEN--\":27:28   */\n      dup1\n        /* \"--CODEGEN--\":20:32   */\n      revert\n        /* \"--CODEGEN--\":5:7   */\n    tag_84:\n        /* \"fisco/Trace.sol\":503:922  function newEproducts(string name,uint256 traceNumber,string traceName,uint8 quality) public onlyProducer returns(address){... */\n      pop\n      tag_85\n      0x4\n      dup1\n      calldatasize\n      sub\n      tag_86\n      swap2\n      swap1\n      dup2\n      add\n      swap1\n      jump(tag_87)\n    tag_86:\n      jump(tag_88)\n    tag_85:\n      mload(0x40)\n      tag_89\n      swap2\n      swap1\n      jump(tag_90)\n    tag_89:\n      mload(0x40)\n      dup1\n      swap2\n      sub\n      swap1\n      return\n        /* \"fisco/Trace.sol\":1885:2162  function getEproduct(uint256 traceNumber)public constant returns(uint,string,string,string,address,uint8) {... */\n    tag_21:\n        /* \"fisco/Trace.sol\":1950:1954  uint */\n      0x0\n        /* \"fisco/Trace.sol\":1955:1961  string */\n      0x60\n        /* \"fisco/Trace.sol\":1962:1968  string */\n      dup1\n        /* \"fisco/Trace.sol\":1969:1975  string */\n      0x60\n        /* \"fisco/Trace.sol\":1976:1983  address */\n      0x0\n        /* \"fisco/Trace.sol\":1984:1989  uint8 */\n      dup1\n        /* \"fisco/Trace.sol\":2041:2042  0 */\n      0x0\n        /* \"fisco/Trace.sol\":2009:2043  eproducts[traceNumber]!=address(0) */\n      0xffffffffffffffffffffffffffffffffffffffff\n      and\n        /* \"fisco/Trace.sol\":2009:2018  eproducts */\n      0x3\n        /* \"fisco/Trace.sol\":2009:2031  eproducts[traceNumber] */\n      0x0\n        /* \"fisco/Trace.sol\":2019:2030  traceNumber */\n      dup10\n        /* \"fisco/Trace.sol\":2009:2031  eproducts[traceNumber] */\n      dup2\n      mstore\n      0x20\n      add\n      swap1\n      dup2\n      mstore\n      0x20\n      add\n      0x0\n      keccak256\n      0x0\n      swap1\n      sload\n      swap1\n      0x100\n      exp\n      swap1\n      div\n      0xffffffffffffffffffffffffffffffffffffffff\n      and\n        /* \"fisco/Trace.sol\":2009:2043  eproducts[traceNumber]!=address(0) */\n      0xffffffffffffffffffffffffffffffffffffffff\n      and\n      eq\n      iszero\n        /* \"fisco/Trace.sol\":2001:2073  require(eproducts[traceNumber]!=address(0),\"traceNumber does not exist\") */\n      iszero\n      iszero\n      tag_92\n      jumpi\n      mload(0x40)\n      0x8c379a000000000000000000000000000000000000000000000000000000000\n      dup2\n      mstore\n      0x4\n      add\n      tag_93\n      swap1\n      jump(tag_94)\n    tag_93:\n      mload(0x40)\n      dup1\n      swap2\n      sub\n      swap1\n      revert\n    tag_92:\n        /* \"fisco/Trace.sol\":2108:2117  eproducts */\n      0x3\n        /* \"fisco/Trace.sol\":2108:2130  eproducts[traceNumber] */\n      0x0\n        /* \"fisco/Trace.sol\":2118:2129  traceNumber */\n      dup9\n        /* \"fisco/Trace.sol\":2108:2130  eproducts[traceNumber] */\n      dup2\n      mstore\n      0x20\n      add\n      swap1\n      dup2\n      mstore\n      0x20\n      add\n      0x0\n      keccak256\n      0x0\n      swap1\n      sload\n      swap1\n      0x100\n      exp\n      swap1\n      div\n      0xffffffffffffffffffffffffffffffffffffffff\n      and\n        /* \"fisco/Trace.sol\":2090:2144  EproductsInfoItem(eproducts[traceNumber]).getEproducts */\n      0xffffffffffffffffffffffffffffffffffffffff\n      and\n      0x1a772baf\n        /* \"fisco/Trace.sol\":2090:2146  EproductsInfoItem(eproducts[traceNumber]).getEproducts() */\n      mload(0x40)\n      dup2\n      0xffffffff\n      and\n      0x100000000000000000000000000000000000000000000000000000000\n      mul\n      dup2\n      mstore\n      0x4\n      add\n      0x0\n      mload(0x40)\n      dup1\n      dup4\n      sub\n      dup2\n      0x0\n      dup8\n      dup1\n      extcodesize\n      iszero\n        /* \"--CODEGEN--\":8:17   */\n      dup1\n        /* \"--CODEGEN--\":5:7   */\n      iszero\n      tag_95\n      jumpi\n        /* \"--CODEGEN--\":30:31   */\n      0x0\n        /* \"--CODEGEN--\":27:28   */\n      dup1\n        /* \"--CODEGEN--\":20:32   */\n      revert\n        /* \"--CODEGEN--\":5:7   */\n    tag_95:\n        /* \"fisco/Trace.sol\":2090:2146  EproductsInfoItem(eproducts[traceNumber]).getEproducts() */\n      pop\n      gas\n      call\n      iszero\n        /* \"--CODEGEN--\":8:17   */\n      dup1\n        /* \"--CODEGEN--\":5:7   */\n      iszero\n      tag_96\n      jumpi\n        /* \"--CODEGEN--\":45:61   */\n      returndatasize\n        /* \"--CODEGEN--\":42:43   */\n      0x0\n        /* \"--CODEGEN--\":39:40   */\n      dup1\n        /* \"--CODEGEN--\":24:62   */\n      returndatacopy\n        /* \"--CODEGEN--\":77:93   */\n      returndatasize\n        /* \"--CODEGEN--\":74:75   */\n      0x0\n        /* \"--CODEGEN--\":67:94   */\n      revert\n        /* \"--CODEGEN--\":5:7   */\n    tag_96:\n        /* \"fisco/Trace.sol\":2090:2146  EproductsInfoItem(eproducts[traceNumber]).getEproducts() */\n      pop\n      pop\n      pop\n      pop\n      mload(0x40)\n        /* \"--CODEGEN--\":39:55   */\n      returndatasize\n        /* \"--CODEGEN--\":36:37   */\n      0x0\n        /* \"--CODEGEN--\":17:34   */\n      dup3\n        /* \"--CODEGEN--\":2:56   */\n      returndatacopy\n        /* \"fisco/Trace.sol\":2090:2146  EproductsInfoItem(eproducts[traceNumber]).getEproducts() */\n      returndatasize\n        /* \"--CODEGEN--\":101:105   */\n      0x1f\n        /* \"--CODEGEN--\":97:106   */\n      not\n        /* \"--CODEGEN--\":90:94   */\n      0x1f\n        /* \"--CODEGEN--\":84:88   */\n      dup3\n        /* \"--CODEGEN--\":80:95   */\n      add\n        /* \"--CODEGEN--\":76:107   */\n      and\n        /* \"--CODEGEN--\":69:74   */\n      dup3\n        /* \"--CODEGEN--\":65:108   */\n      add\n        /* \"--CODEGEN--\":126:132   */\n      dup1\n        /* \"--CODEGEN--\":120:124   */\n      0x40\n        /* \"--CODEGEN--\":113:133   */\n      mstore\n        /* \"--CODEGEN--\":0:138   */\n      pop\n        /* \"fisco/Trace.sol\":2090:2146  EproductsInfoItem(eproducts[traceNumber]).getEproducts() */\n      tag_97\n      swap2\n      swap1\n      dup2\n      add\n      swap1\n      jump(tag_98)\n    tag_97:\n        /* \"fisco/Trace.sol\":2083:2146  return EproductsInfoItem(eproducts[traceNumber]).getEproducts() */\n      swap6\n      pop\n      swap6\n      pop\n      swap6\n      pop\n      swap6\n      pop\n      swap6\n      pop\n      swap6\n      pop\n        /* \"fisco/Trace.sol\":1885:2162  function getEproduct(uint256 traceNumber)public constant returns(uint,string,string,string,address,uint8) {... */\n      swap2\n      swap4\n      swap6\n      pop\n      swap2\n      swap4\n      swap6\n      jump\t// out\n        /* \"fisco/Retailer.sol\":625:719  function addReatiler(address account)public onlyRetailer{... */\n    tag_28:\n        /* \"fisco/Retailer.sol\":411:433  isRetailer(msg.sender) */\n      tag_100\n        /* \"fisco/Retailer.sol\":422:432  msg.sender */\n      caller\n        /* \"fisco/Retailer.sol\":411:421  isRetailer */\n      tag_44\n        /* \"fisco/Retailer.sol\":411:433  isRetailer(msg.sender) */\n      jump\t// in\n    tag_100:\n        /* \"fisco/Retailer.sol\":403:487  require(isRetailer(msg.sender),\"RetailerRole:caller does not have theRetailer role\") */\n      iszero\n      iszero\n      tag_101\n      jumpi\n      mload(0x40)\n      0x8c379a000000000000000000000000000000000000000000000000000000000\n      dup2\n      mstore\n      0x4\n      add\n      tag_102\n      swap1\n      jump(tag_103)\n    tag_102:\n      mload(0x40)\n      dup1\n      swap2\n      sub\n      swap1\n      revert\n    tag_101:\n        /* \"fisco/Retailer.sol\":691:712  _addRetailer(account) */\n      tag_105\n        /* \"fisco/Retailer.sol\":704:711  account */\n      dup2\n        /* \"fisco/Retailer.sol\":691:703  _addRetailer */\n      tag_106\n        /* \"fisco/Retailer.sol\":691:712  _addRetailer(account) */\n      jump\t// in\n    tag_105:\n        /* \"fisco/Retailer.sol\":625:719  function addReatiler(address account)public onlyRetailer{... */\n      pop\n      jump\t// out\n        /* \"fisco/Trace.sol\":927:1271  function addTraceInfoByDistributor(... */\n    tag_33:\n        /* \"fisco/Trace.sol\":1063:1067  bool */\n      0x0\n        /* \"fisco/Distributor.sol\":600:625  isDistributor(msg.sender) */\n      tag_108\n        /* \"fisco/Distributor.sol\":614:624  msg.sender */\n      caller\n        /* \"fisco/Distributor.sol\":600:613  isDistributor */\n      tag_56\n        /* \"fisco/Distributor.sol\":600:625  isDistributor(msg.sender) */\n      jump\t// in\n    tag_108:\n        /* \"fisco/Distributor.sol\":592:683  require(isDistributor(msg.sender),\"producerRole:caller does not have the Distributor role\") */\n      iszero\n      iszero\n      tag_109\n      jumpi\n      mload(0x40)\n      0x8c379a000000000000000000000000000000000000000000000000000000000\n      dup2\n      mstore\n      0x4\n      add\n      tag_110\n      swap1\n      jump(tag_111)\n    tag_110:\n      mload(0x40)\n      dup1\n      swap2\n      sub\n      swap1\n      revert\n    tag_109:\n        /* \"fisco/Trace.sol\":1119:1120  0 */\n      0x0\n        /* \"fisco/Trace.sol\":1087:1121  eproducts[traceNumber]!=address(0) */\n      0xffffffffffffffffffffffffffffffffffffffff\n      and\n        /* \"fisco/Trace.sol\":1087:1096  eproducts */\n      0x3\n        /* \"fisco/Trace.sol\":1087:1109  eproducts[traceNumber] */\n      0x0\n        /* \"fisco/Trace.sol\":1097:1108  traceNumber */\n      dup7\n        /* \"fisco/Trace.sol\":1087:1109  eproducts[traceNumber] */\n      dup2\n      mstore\n      0x20\n      add\n      swap1\n      dup2\n      mstore\n      0x20\n      add\n      0x0\n      keccak256\n      0x0\n      swap1\n      sload\n      swap1\n      0x100\n      exp\n      swap1\n      div\n      0xffffffffffffffffffffffffffffffffffffffff\n      and\n        /* \"fisco/Trace.sol\":1087:1121  eproducts[traceNumber]!=address(0) */\n      0xffffffffffffffffffffffffffffffffffffffff\n      and\n      eq\n      iszero\n        /* \"fisco/Trace.sol\":1079:1150  require(eproducts[traceNumber]!=address(0),\"tracNumber does not exist\") */\n      iszero\n      iszero\n      tag_113\n      jumpi\n      mload(0x40)\n      0x8c379a000000000000000000000000000000000000000000000000000000000\n      dup2\n      mstore\n      0x4\n      add\n      tag_114\n      swap1\n      jump(tag_115)\n    tag_114:\n      mload(0x40)\n      dup1\n      swap2\n      sub\n      swap1\n      revert\n    tag_113:\n        /* \"fisco/Trace.sol\":1185:1194  eproducts */\n      0x3\n        /* \"fisco/Trace.sol\":1185:1207  eproducts[traceNumber] */\n      0x0\n        /* \"fisco/Trace.sol\":1195:1206  traceNumber */\n      dup6\n        /* \"fisco/Trace.sol\":1185:1207  eproducts[traceNumber] */\n      dup2\n      mstore\n      0x20\n      add\n      swap1\n      dup2\n      mstore\n      0x20\n      add\n      0x0\n      keccak256\n      0x0\n      swap1\n      sload\n      swap1\n      0x100\n      exp\n      swap1\n      div\n      0xffffffffffffffffffffffffffffffffffffffff\n      and\n        /* \"fisco/Trace.sol\":1167:1234  EproductsInfoItem(eproducts[traceNumber]).addTraceInfoByDistributor */\n      0xffffffffffffffffffffffffffffffffffffffff\n      and\n      0x6e72967\n        /* \"fisco/Trace.sol\":1235:1244  traceName */\n      dup5\n        /* \"fisco/Trace.sol\":1245:1255  msg.sender */\n      caller\n        /* \"fisco/Trace.sol\":1256:1263  quality */\n      dup6\n        /* \"fisco/Trace.sol\":1167:1264  EproductsInfoItem(eproducts[traceNumber]).addTraceInfoByDistributor(traceName,msg.sender,quality) */\n      mload(0x40)\n      dup5\n      0xffffffff\n      and\n      0x100000000000000000000000000000000000000000000000000000000\n      mul\n      dup2\n      mstore\n      0x4\n      add\n      tag_116\n      swap4\n      swap3\n      swap2\n      swap1\n      jump(tag_117)\n    tag_116:\n      0x20\n      mload(0x40)\n      dup1\n      dup4\n      sub\n      dup2\n      0x0\n      dup8\n      dup1\n      extcodesize\n      iszero\n        /* \"--CODEGEN--\":8:17   */\n      dup1\n        /* \"--CODEGEN--\":5:7   */\n      iszero\n      tag_118\n      jumpi\n        /* \"--CODEGEN--\":30:31   */\n      0x0\n        /* \"--CODEGEN--\":27:28   */\n      dup1\n        /* \"--CODEGEN--\":20:32   */\n      revert\n        /* \"--CODEGEN--\":5:7   */\n    tag_118:\n        /* \"fisco/Trace.sol\":1167:1264  EproductsInfoItem(eproducts[traceNumber]).addTraceInfoByDistributor(traceName,msg.sender,quality) */\n      pop\n      gas\n      call\n      iszero\n        /* \"--CODEGEN--\":8:17   */\n      dup1\n        /* \"--CODEGEN--\":5:7   */\n      iszero\n      tag_119\n      jumpi\n        /* \"--CODEGEN--\":45:61   */\n      returndatasize\n        /* \"--CODEGEN--\":42:43   */\n      0x0\n        /* \"--CODEGEN--\":39:40   */\n      dup1\n        /* \"--CODEGEN--\":24:62   */\n      returndatacopy\n        /* \"--CODEGEN--\":77:93   */\n      returndatasize\n        /* \"--CODEGEN--\":74:75   */\n      0x0\n        /* \"--CODEGEN--\":67:94   */\n      revert\n        /* \"--CODEGEN--\":5:7   */\n    tag_119:\n        /* \"fisco/Trace.sol\":1167:1264  EproductsInfoItem(eproducts[traceNumber]).addTraceInfoByDistributor(traceName,msg.sender,quality) */\n      pop\n      pop\n      pop\n      pop\n      mload(0x40)\n      returndatasize\n        /* \"--CODEGEN--\":101:105   */\n      0x1f\n        /* \"--CODEGEN--\":97:106   */\n      not\n        /* \"--CODEGEN--\":90:94   */\n      0x1f\n        /* \"--CODEGEN--\":84:88   */\n      dup3\n        /* \"--CODEGEN--\":80:95   */\n      add\n        /* \"--CODEGEN--\":76:107   */\n      and\n        /* \"--CODEGEN--\":69:74   */\n      dup3\n        /* \"--CODEGEN--\":65:108   */\n      add\n        /* \"--CODEGEN--\":126:132   */\n      dup1\n        /* \"--CODEGEN--\":120:124   */\n      0x40\n        /* \"--CODEGEN--\":113:133   */\n      mstore\n        /* \"--CODEGEN--\":0:138   */\n      pop\n        /* \"fisco/Trace.sol\":1167:1264  EproductsInfoItem(eproducts[traceNumber]).addTraceInfoByDistributor(traceName,msg.sender,quality) */\n      tag_120\n      swap2\n      swap1\n      dup2\n      add\n      swap1\n      jump(tag_121)\n    tag_120:\n        /* \"fisco/Trace.sol\":1160:1264  return EproductsInfoItem(eproducts[traceNumber]).addTraceInfoByDistributor(traceName,msg.sender,quality) */\n      swap1\n      pop\n        /* \"fisco/Trace.sol\":927:1271  function addTraceInfoByDistributor(... */\n      swap4\n      swap3\n      pop\n      pop\n      pop\n      jump\t// out\n        /* \"fisco/Trace.sol\":2168:2272  function getAllEproducts()public constant returns(uint[]) {... */\n    tag_38:\n        /* \"fisco/Trace.sol\":2218:2224  uint[] */\n      0x60\n        /* \"fisco/Trace.sol\":2243:2256  eproductsList */\n      0x4\n        /* \"fisco/Trace.sol\":2236:2256  return eproductsList */\n      dup1\n      sload\n      dup1\n      0x20\n      mul\n      0x20\n      add\n      mload(0x40)\n      swap1\n      dup2\n      add\n      0x40\n      mstore\n      dup1\n      swap3\n      swap2\n      swap1\n      dup2\n      dup2\n      mstore\n      0x20\n      add\n      dup3\n      dup1\n      sload\n      dup1\n      iszero\n      tag_123\n      jumpi\n      0x20\n      mul\n      dup3\n      add\n      swap2\n      swap1\n      0x0\n      mstore\n      keccak256(0x0, 0x20)\n      swap1\n    tag_124:\n      dup2\n      sload\n      dup2\n      mstore\n      0x20\n      add\n      swap1\n      0x1\n      add\n      swap1\n      dup1\n      dup4\n      gt\n      tag_124\n      jumpi\n    tag_123:\n      pop\n      pop\n      pop\n      pop\n      pop\n      swap1\n      pop\n        /* \"fisco/Trace.sol\":2168:2272  function getAllEproducts()public constant returns(uint[]) {... */\n      swap1\n      jump\t// out\n        /* \"fisco/Retailer.sol\":511:619  function isRetailer(address account)public view returns(bool){... */\n    tag_44:\n        /* \"fisco/Retailer.sol\":567:571  bool */\n      0x0\n        /* \"fisco/Retailer.sol\":589:612  _retailers.has(account) */\n      tag_126\n        /* \"fisco/Retailer.sol\":604:611  account */\n      dup3\n        /* \"fisco/Retailer.sol\":589:599  _retailers */\n      0x2\n        /* \"fisco/Retailer.sol\":589:603  _retailers.has */\n      tag_127\n      swap1\n        /* \"fisco/Retailer.sol\":589:612  _retailers.has(account) */\n      swap2\n      swap1\n      0xffffffff\n      and\n      jump\t// in\n    tag_126:\n        /* \"fisco/Retailer.sol\":582:612  return _retailers.has(account) */\n      swap1\n      pop\n        /* \"fisco/Retailer.sol\":511:619  function isRetailer(address account)public view returns(bool){... */\n      swap2\n      swap1\n      pop\n      jump\t// out\n        /* \"fisco/Distributor.sol\":1028:1111  function renounceDistributor()public{... */\n    tag_48:\n        /* \"fisco/Distributor.sol\":1074:1104  _removeDistributor(msg.sender) */\n      tag_129\n        /* \"fisco/Distributor.sol\":1093:1103  msg.sender */\n      caller\n        /* \"fisco/Distributor.sol\":1074:1092  _removeDistributor */\n      tag_130\n        /* \"fisco/Distributor.sol\":1074:1104  _removeDistributor(msg.sender) */\n      jump\t// in\n    tag_129:\n        /* \"fisco/Distributor.sol\":1028:1111  function renounceDistributor()public{... */\n      jump\t// out\n        /* \"fisco/Distributor.sol\":888:992  function addDistributor(address account) public onlyDistributor{... */\n    tag_52:\n        /* \"fisco/Distributor.sol\":600:625  isDistributor(msg.sender) */\n      tag_132\n        /* \"fisco/Distributor.sol\":614:624  msg.sender */\n      caller\n        /* \"fisco/Distributor.sol\":600:613  isDistributor */\n      tag_56\n        /* \"fisco/Distributor.sol\":600:625  isDistributor(msg.sender) */\n      jump\t// in\n    tag_132:\n        /* \"fisco/Distributor.sol\":592:683  require(isDistributor(msg.sender),\"producerRole:caller does not have the Distributor role\") */\n      iszero\n      iszero\n      tag_133\n      jumpi\n      mload(0x40)\n      0x8c379a000000000000000000000000000000000000000000000000000000000\n      dup2\n      mstore\n      0x4\n      add\n      tag_134\n      swap1\n      jump(tag_111)\n    tag_134:\n      mload(0x40)\n      dup1\n      swap2\n      sub\n      swap1\n      revert\n    tag_133:\n        /* \"fisco/Distributor.sol\":961:985  _addDistributor(account) */\n      tag_136\n        /* \"fisco/Distributor.sol\":977:984  account */\n      dup2\n        /* \"fisco/Distributor.sol\":961:976  _addDistributor */\n      tag_137\n        /* \"fisco/Distributor.sol\":961:985  _addDistributor(account) */\n      jump\t// in\n    tag_136:\n        /* \"fisco/Distributor.sol\":888:992  function addDistributor(address account) public onlyDistributor{... */\n      pop\n      jump\t// out\n        /* \"fisco/Distributor.sol\":746:860  function isDistributor(address account)public view returns(bool){... */\n    tag_56:\n        /* \"fisco/Distributor.sol\":805:809  bool */\n      0x0\n        /* \"fisco/Distributor.sol\":827:853  _distributors.has(account) */\n      tag_139\n        /* \"fisco/Distributor.sol\":845:852  account */\n      dup3\n        /* \"fisco/Distributor.sol\":827:840  _distributors */\n      0x1\n        /* \"fisco/Distributor.sol\":827:844  _distributors.has */\n      tag_127\n      swap1\n        /* \"fisco/Distributor.sol\":827:853  _distributors.has(account) */\n      swap2\n      swap1\n      0xffffffff\n      and\n      jump\t// in\n    tag_139:\n        /* \"fisco/Distributor.sol\":820:853  return _distributors.has(account) */\n      swap1\n      pop\n        /* \"fisco/Distributor.sol\":746:860  function isDistributor(address account)public view returns(bool){... */\n      swap2\n      swap1\n      pop\n      jump\t// out\n        /* \"fisco/Trace.sol\":1277:1602  function addTraceInfoByRetailer(uint traceNumber,... */\n    tag_61:\n        /* \"fisco/Trace.sol\":1395:1399  bool */\n      0x0\n        /* \"fisco/Retailer.sol\":411:433  isRetailer(msg.sender) */\n      tag_141\n        /* \"fisco/Retailer.sol\":422:432  msg.sender */\n      caller\n        /* \"fisco/Retailer.sol\":411:421  isRetailer */\n      tag_44\n        /* \"fisco/Retailer.sol\":411:433  isRetailer(msg.sender) */\n      jump\t// in\n    tag_141:\n        /* \"fisco/Retailer.sol\":403:487  require(isRetailer(msg.sender),\"RetailerRole:caller does not have theRetailer role\") */\n      iszero\n      iszero\n      tag_142\n      jumpi\n      mload(0x40)\n      0x8c379a000000000000000000000000000000000000000000000000000000000\n      dup2\n      mstore\n      0x4\n      add\n      tag_143\n      swap1\n      jump(tag_103)\n    tag_143:\n      mload(0x40)\n      dup1\n      swap2\n      sub\n      swap1\n      revert\n    tag_142:\n        /* \"fisco/Trace.sol\":1447:1448  0 */\n      0x0\n        /* \"fisco/Trace.sol\":1415:1449  eproducts[traceNumber]!=address(0) */\n      0xffffffffffffffffffffffffffffffffffffffff\n      and\n        /* \"fisco/Trace.sol\":1415:1424  eproducts */\n      0x3\n        /* \"fisco/Trace.sol\":1415:1437  eproducts[traceNumber] */\n      0x0\n        /* \"fisco/Trace.sol\":1425:1436  traceNumber */\n      dup7\n        /* \"fisco/Trace.sol\":1415:1437  eproducts[traceNumber] */\n      dup2\n      mstore\n      0x20\n      add\n      swap1\n      dup2\n      mstore\n      0x20\n      add\n      0x0\n      keccak256\n      0x0\n      swap1\n      sload\n      swap1\n      0x100\n      exp\n      swap1\n      div\n      0xffffffffffffffffffffffffffffffffffffffff\n      and\n        /* \"fisco/Trace.sol\":1415:1449  eproducts[traceNumber]!=address(0) */\n      0xffffffffffffffffffffffffffffffffffffffff\n      and\n      eq\n      iszero\n        /* \"fisco/Trace.sol\":1407:1479  require(eproducts[traceNumber]!=address(0),\"traceNumber does not exist\") */\n      iszero\n      iszero\n      tag_145\n      jumpi\n      mload(0x40)\n      0x8c379a000000000000000000000000000000000000000000000000000000000\n      dup2\n      mstore\n      0x4\n      add\n      tag_146\n      swap1\n      jump(tag_94)\n    tag_146:\n      mload(0x40)\n      dup1\n      swap2\n      sub\n      swap1\n      revert\n    tag_145:\n        /* \"fisco/Trace.sol\":1510:1519  eproducts */\n      0x3\n        /* \"fisco/Trace.sol\":1510:1532  eproducts[traceNumber] */\n      0x0\n        /* \"fisco/Trace.sol\":1520:1531  traceNumber */\n      dup6\n        /* \"fisco/Trace.sol\":1510:1532  eproducts[traceNumber] */\n      dup2\n      mstore\n      0x20\n      add\n      swap1\n      dup2\n      mstore\n      0x20\n      add\n      0x0\n      keccak256\n      0x0\n      swap1\n      sload\n      swap1\n      0x100\n      exp\n      swap1\n      div\n      0xffffffffffffffffffffffffffffffffffffffff\n      and\n        /* \"fisco/Trace.sol\":1492:1556  EproductsInfoItem(eproducts[traceNumber]).addTraceInfoByRetailer */\n      0xffffffffffffffffffffffffffffffffffffffff\n      and\n      0xf650350d\n        /* \"fisco/Trace.sol\":1557:1566  traceName */\n      dup5\n        /* \"fisco/Trace.sol\":1567:1577  msg.sender */\n      caller\n        /* \"fisco/Trace.sol\":1578:1585  quality */\n      dup6\n        /* \"fisco/Trace.sol\":1492:1586  EproductsInfoItem(eproducts[traceNumber]).addTraceInfoByRetailer(traceName,msg.sender,quality) */\n      mload(0x40)\n      dup5\n      0xffffffff\n      and\n      0x100000000000000000000000000000000000000000000000000000000\n      mul\n      dup2\n      mstore\n      0x4\n      add\n      tag_147\n      swap4\n      swap3\n      swap2\n      swap1\n      jump(tag_117)\n    tag_147:\n      0x20\n      mload(0x40)\n      dup1\n      dup4\n      sub\n      dup2\n      0x0\n      dup8\n      dup1\n      extcodesize\n      iszero\n        /* \"--CODEGEN--\":8:17   */\n      dup1\n        /* \"--CODEGEN--\":5:7   */\n      iszero\n      tag_148\n      jumpi\n        /* \"--CODEGEN--\":30:31   */\n      0x0\n        /* \"--CODEGEN--\":27:28   */\n      dup1\n        /* \"--CODEGEN--\":20:32   */\n      revert\n        /* \"--CODEGEN--\":5:7   */\n    tag_148:\n        /* \"fisco/Trace.sol\":1492:1586  EproductsInfoItem(eproducts[traceNumber]).addTraceInfoByRetailer(traceName,msg.sender,quality) */\n      pop\n      gas\n      call\n      iszero\n        /* \"--CODEGEN--\":8:17   */\n      dup1\n        /* \"--CODEGEN--\":5:7   */\n      iszero\n      tag_149\n      jumpi\n        /* \"--CODEGEN--\":45:61   */\n      returndatasize\n        /* \"--CODEGEN--\":42:43   */\n      0x0\n        /* \"--CODEGEN--\":39:40   */\n      dup1\n        /* \"--CODEGEN--\":24:62   */\n      returndatacopy\n        /* \"--CODEGEN--\":77:93   */\n      returndatasize\n        /* \"--CODEGEN--\":74:75   */\n      0x0\n        /* \"--CODEGEN--\":67:94   */\n      revert\n        /* \"--CODEGEN--\":5:7   */\n    tag_149:\n        /* \"fisco/Trace.sol\":1492:1586  EproductsInfoItem(eproducts[traceNumber]).addTraceInfoByRetailer(traceName,msg.sender,quality) */\n      pop\n      pop\n      pop\n      pop\n      mload(0x40)\n      returndatasize\n        /* \"--CODEGEN--\":101:105   */\n      0x1f\n        /* \"--CODEGEN--\":97:106   */\n      not\n        /* \"--CODEGEN--\":90:94   */\n      0x1f\n        /* \"--CODEGEN--\":84:88   */\n      dup3\n        /* \"--CODEGEN--\":80:95   */\n      add\n        /* \"--CODEGEN--\":76:107   */\n      and\n        /* \"--CODEGEN--\":69:74   */\n      dup3\n        /* \"--CODEGEN--\":65:108   */\n      add\n        /* \"--CODEGEN--\":126:132   */\n      dup1\n        /* \"--CODEGEN--\":120:124   */\n      0x40\n        /* \"--CODEGEN--\":113:133   */\n      mstore\n        /* \"--CODEGEN--\":0:138   */\n      pop\n        /* \"fisco/Trace.sol\":1492:1586  EproductsInfoItem(eproducts[traceNumber]).addTraceInfoByRetailer(traceName,msg.sender,quality) */\n      tag_150\n      swap2\n      swap1\n      dup2\n      add\n      swap1\n      jump(tag_121)\n    tag_150:\n        /* \"fisco/Trace.sol\":1485:1586  return EproductsInfoItem(eproducts[traceNumber]).addTraceInfoByRetailer(traceName,msg.sender,quality) */\n      swap1\n      pop\n        /* \"fisco/Trace.sol\":1277:1602  function addTraceInfoByRetailer(uint traceNumber,... */\n      swap4\n      swap3\n      pop\n      pop\n      pop\n      jump\t// out\n        /* \"fisco/Retailer.sol\":725:802  function renounceRetailer()public{... */\n    tag_65:\n        /* \"fisco/Retailer.sol\":768:795  _removeRetailer(msg.sender) */\n      tag_152\n        /* \"fisco/Retailer.sol\":784:794  msg.sender */\n      caller\n        /* \"fisco/Retailer.sol\":768:783  _removeRetailer */\n      tag_153\n        /* \"fisco/Retailer.sol\":768:795  _removeRetailer(msg.sender) */\n      jump\t// in\n    tag_152:\n        /* \"fisco/Retailer.sol\":725:802  function renounceRetailer()public{... */\n      jump\t// out\n        /* \"fisco/Producer.sol\":563:650  function addProducer(address account)public onlyProducer{... */\n    tag_69:\n        /* \"fisco/Producer.sol\":372:394  isProducer(msg.sender) */\n      tag_155\n        /* \"fisco/Producer.sol\":383:393  msg.sender */\n      caller\n        /* \"fisco/Producer.sol\":372:382  isProducer */\n      tag_73\n        /* \"fisco/Producer.sol\":372:394  isProducer(msg.sender) */\n      jump\t// in\n    tag_155:\n        /* \"fisco/Producer.sol\":364:449  require(isProducer(msg.sender),\"ProducerRole:caller does not have the Producer role\") */\n      iszero\n      iszero\n      tag_156\n      jumpi\n      mload(0x40)\n      0x8c379a000000000000000000000000000000000000000000000000000000000\n      dup2\n      mstore\n      0x4\n      add\n      tag_157\n      swap1\n      jump(tag_158)\n    tag_157:\n      mload(0x40)\n      dup1\n      swap2\n      sub\n      swap1\n      revert\n    tag_156:\n        /* \"fisco/Producer.sol\":625:646  _addProducer(account) */\n      tag_160\n        /* \"fisco/Producer.sol\":638:645  account */\n      dup2\n        /* \"fisco/Producer.sol\":625:637  _addProducer */\n      tag_161\n        /* \"fisco/Producer.sol\":625:646  _addProducer(account) */\n      jump\t// in\n    tag_160:\n        /* \"fisco/Producer.sol\":563:650  function addProducer(address account)public onlyProducer{... */\n      pop\n      jump\t// out\n        /* \"fisco/Producer.sol\":461:561  function isProducer(address account)public view returns(bool){... */\n    tag_73:\n        /* \"fisco/Producer.sol\":517:521  bool */\n      0x0\n        /* \"fisco/Producer.sol\":535:558  _producers.has(account) */\n      tag_163\n        /* \"fisco/Producer.sol\":550:557  account */\n      dup3\n        /* \"fisco/Producer.sol\":535:545  _producers */\n      0x0\n        /* \"fisco/Producer.sol\":535:549  _producers.has */\n      tag_127\n      swap1\n        /* \"fisco/Producer.sol\":535:558  _producers.has(account) */\n      swap2\n      swap1\n      0xffffffff\n      and\n      jump\t// in\n    tag_163:\n        /* \"fisco/Producer.sol\":528:558  return _producers.has(account) */\n      swap1\n      pop\n        /* \"fisco/Producer.sol\":461:561  function isProducer(address account)public view returns(bool){... */\n      swap2\n      swap1\n      pop\n      jump\t// out\n        /* \"fisco/Trace.sol\":1607:1879  function getaTraceInfo(uint256 traceNumber)public constant returns (uint[],string[],address[],uint8[]){... */\n    tag_78:\n        /* \"fisco/Trace.sol\":1675:1681  uint[] */\n      0x60\n        /* \"fisco/Trace.sol\":1682:1690  string[] */\n      dup1\n        /* \"fisco/Trace.sol\":1691:1700  address[] */\n      0x60\n        /* \"fisco/Trace.sol\":1701:1708  uint8[] */\n      dup1\n        /* \"fisco/Trace.sol\":1759:1760  0 */\n      0x0\n        /* \"fisco/Trace.sol\":1727:1761  eproducts[traceNumber]!=address(0) */\n      0xffffffffffffffffffffffffffffffffffffffff\n      and\n        /* \"fisco/Trace.sol\":1727:1736  eproducts */\n      0x3\n        /* \"fisco/Trace.sol\":1727:1749  eproducts[traceNumber] */\n      0x0\n        /* \"fisco/Trace.sol\":1737:1748  traceNumber */\n      dup8\n        /* \"fisco/Trace.sol\":1727:1749  eproducts[traceNumber] */\n      dup2\n      mstore\n      0x20\n      add\n      swap1\n      dup2\n      mstore\n      0x20\n      add\n      0x0\n      keccak256\n      0x0\n      swap1\n      sload\n      swap1\n      0x100\n      exp\n      swap1\n      div\n      0xffffffffffffffffffffffffffffffffffffffff\n      and\n        /* \"fisco/Trace.sol\":1727:1761  eproducts[traceNumber]!=address(0) */\n      0xffffffffffffffffffffffffffffffffffffffff\n      and\n      eq\n      iszero\n        /* \"fisco/Trace.sol\":1719:1791  require(eproducts[traceNumber]!=address(0),\"traceNumber does not exist\") */\n      iszero\n      iszero\n      tag_165\n      jumpi\n      mload(0x40)\n      0x8c379a000000000000000000000000000000000000000000000000000000000\n      dup2\n      mstore\n      0x4\n      add\n      tag_166\n      swap1\n      jump(tag_94)\n    tag_166:\n      mload(0x40)\n      dup1\n      swap2\n      sub\n      swap1\n      revert\n    tag_165:\n        /* \"fisco/Trace.sol\":1827:1836  eproducts */\n      0x3\n        /* \"fisco/Trace.sol\":1827:1849  eproducts[traceNumber] */\n      0x0\n        /* \"fisco/Trace.sol\":1837:1848  traceNumber */\n      dup7\n        /* \"fisco/Trace.sol\":1827:1849  eproducts[traceNumber] */\n      dup2\n      mstore\n      0x20\n      add\n      swap1\n      dup2\n      mstore\n      0x20\n      add\n      0x0\n      keccak256\n      0x0\n      swap1\n      sload\n      swap1\n      0x100\n      exp\n      swap1\n      div\n      0xffffffffffffffffffffffffffffffffffffffff\n      and\n        /* \"fisco/Trace.sol\":1809:1863  EproductsInfoItem(eproducts[traceNumber]).getTraceInfo */\n      0xffffffffffffffffffffffffffffffffffffffff\n      and\n      0xf0d984e4\n        /* \"fisco/Trace.sol\":1809:1865  EproductsInfoItem(eproducts[traceNumber]).getTraceInfo() */\n      mload(0x40)\n      dup2\n      0xffffffff\n      and\n      0x100000000000000000000000000000000000000000000000000000000\n      mul\n      dup2\n      mstore\n      0x4\n      add\n      0x0\n      mload(0x40)\n      dup1\n      dup4\n      sub\n      dup2\n      0x0\n      dup8\n      dup1\n      extcodesize\n      iszero\n        /* \"--CODEGEN--\":8:17   */\n      dup1\n        /* \"--CODEGEN--\":5:7   */\n      iszero\n      tag_167\n      jumpi\n        /* \"--CODEGEN--\":30:31   */\n      0x0\n        /* \"--CODEGEN--\":27:28   */\n      dup1\n        /* \"--CODEGEN--\":20:32   */\n      revert\n        /* \"--CODEGEN--\":5:7   */\n    tag_167:\n        /* \"fisco/Trace.sol\":1809:1865  EproductsInfoItem(eproducts[traceNumber]).getTraceInfo() */\n      pop\n      gas\n      call\n      iszero\n        /* \"--CODEGEN--\":8:17   */\n      dup1\n        /* \"--CODEGEN--\":5:7   */\n      iszero\n      tag_168\n      jumpi\n        /* \"--CODEGEN--\":45:61   */\n      returndatasize\n        /* \"--CODEGEN--\":42:43   */\n      0x0\n        /* \"--CODEGEN--\":39:40   */\n      dup1\n        /* \"--CODEGEN--\":24:62   */\n      returndatacopy\n        /* \"--CODEGEN--\":77:93   */\n      returndatasize\n        /* \"--CODEGEN--\":74:75   */\n      0x0\n        /* \"--CODEGEN--\":67:94   */\n      revert\n        /* \"--CODEGEN--\":5:7   */\n    tag_168:\n        /* \"fisco/Trace.sol\":1809:1865  EproductsInfoItem(eproducts[traceNumber]).getTraceInfo() */\n      pop\n      pop\n      pop\n      pop\n      mload(0x40)\n        /* \"--CODEGEN--\":39:55   */\n      returndatasize\n        /* \"--CODEGEN--\":36:37   */\n      0x0\n        /* \"--CODEGEN--\":17:34   */\n      dup3\n        /* \"--CODEGEN--\":2:56   */\n      returndatacopy\n        /* \"fisco/Trace.sol\":1809:1865  EproductsInfoItem(eproducts[traceNumber]).getTraceInfo() */\n      returndatasize\n        /* \"--CODEGEN--\":101:105   */\n      0x1f\n        /* \"--CODEGEN--\":97:106   */\n      not\n        /* \"--CODEGEN--\":90:94   */\n      0x1f\n        /* \"--CODEGEN--\":84:88   */\n      dup3\n        /* \"--CODEGEN--\":80:95   */\n      add\n        /* \"--CODEGEN--\":76:107   */\n      and\n        /* \"--CODEGEN--\":69:74   */\n      dup3\n        /* \"--CODEGEN--\":65:108   */\n      add\n        /* \"--CODEGEN--\":126:132   */\n      dup1\n        /* \"--CODEGEN--\":120:124   */\n      0x40\n        /* \"--CODEGEN--\":113:133   */\n      mstore\n        /* \"--CODEGEN--\":0:138   */\n      pop\n        /* \"fisco/Trace.sol\":1809:1865  EproductsInfoItem(eproducts[traceNumber]).getTraceInfo() */\n      tag_169\n      swap2\n      swap1\n      dup2\n      add\n      swap1\n      jump(tag_170)\n    tag_169:\n        /* \"fisco/Trace.sol\":1802:1865  return EproductsInfoItem(eproducts[traceNumber]).getTraceInfo() */\n      swap4\n      pop\n      swap4\n      pop\n      swap4\n      pop\n      swap4\n      pop\n        /* \"fisco/Trace.sol\":1607:1879  function getaTraceInfo(uint256 traceNumber)public constant returns (uint[],string[],address[],uint8[]){... */\n      swap2\n      swap4\n      pop\n      swap2\n      swap4\n      jump\t// out\n        /* \"fisco/Producer.sol\":651:720  function renounceProducer()public{... */\n    tag_83:\n        /* \"fisco/Producer.sol\":690:717  _removeProducer(msg.sender) */\n      tag_172\n        /* \"fisco/Producer.sol\":706:716  msg.sender */\n      caller\n        /* \"fisco/Producer.sol\":690:705  _removeProducer */\n      tag_173\n        /* \"fisco/Producer.sol\":690:717  _removeProducer(msg.sender) */\n      jump\t// in\n    tag_172:\n        /* \"fisco/Producer.sol\":651:720  function renounceProducer()public{... */\n      jump\t// out\n        /* \"fisco/Trace.sol\":503:922  function newEproducts(string name,uint256 traceNumber,string traceName,uint8 quality) public onlyProducer returns(address){... */\n    tag_88:\n        /* \"fisco/Trace.sol\":617:624  address */\n      0x0\n        /* \"fisco/Trace.sol\":716:742  EproductsInfoItem eproduct */\n      dup1\n        /* \"fisco/Producer.sol\":372:394  isProducer(msg.sender) */\n      tag_175\n        /* \"fisco/Producer.sol\":383:393  msg.sender */\n      caller\n        /* \"fisco/Producer.sol\":372:382  isProducer */\n      tag_73\n        /* \"fisco/Producer.sol\":372:394  isProducer(msg.sender) */\n      jump\t// in\n    tag_175:\n        /* \"fisco/Producer.sol\":364:449  require(isProducer(msg.sender),\"ProducerRole:caller does not have the Producer role\") */\n      iszero\n      iszero\n      tag_176\n      jumpi\n      mload(0x40)\n      0x8c379a000000000000000000000000000000000000000000000000000000000\n      dup2\n      mstore\n      0x4\n      add\n      tag_177\n      swap1\n      jump(tag_158)\n    tag_177:\n      mload(0x40)\n      dup1\n      swap2\n      sub\n      swap1\n      revert\n    tag_176:\n        /* \"fisco/Trace.sol\":675:676  0 */\n      0x0\n        /* \"fisco/Trace.sol\":643:677  eproducts[traceNumber]==address(0) */\n      0xffffffffffffffffffffffffffffffffffffffff\n      and\n        /* \"fisco/Trace.sol\":643:652  eproducts */\n      0x3\n        /* \"fisco/Trace.sol\":643:665  eproducts[traceNumber] */\n      0x0\n        /* \"fisco/Trace.sol\":653:664  traceNumber */\n      dup8\n        /* \"fisco/Trace.sol\":643:665  eproducts[traceNumber] */\n      dup2\n      mstore\n      0x20\n      add\n      swap1\n      dup2\n      mstore\n      0x20\n      add\n      0x0\n      keccak256\n      0x0\n      swap1\n      sload\n      swap1\n      0x100\n      exp\n      swap1\n      div\n      0xffffffffffffffffffffffffffffffffffffffff\n      and\n        /* \"fisco/Trace.sol\":643:677  eproducts[traceNumber]==address(0) */\n      0xffffffffffffffffffffffffffffffffffffffff\n      and\n      eq\n        /* \"fisco/Trace.sol\":635:706  require(eproducts[traceNumber]==address(0),\"traceNumber already exist\") */\n      iszero\n      iszero\n      tag_179\n      jumpi\n      mload(0x40)\n      0x8c379a000000000000000000000000000000000000000000000000000000000\n      dup2\n      mstore\n      0x4\n      add\n      tag_180\n      swap1\n      jump(tag_181)\n    tag_180:\n      mload(0x40)\n      dup1\n      swap2\n      sub\n      swap1\n      revert\n    tag_179:\n        /* \"fisco/Trace.sol\":765:769  name */\n      dup6\n        /* \"fisco/Trace.sol\":770:779  traceName */\n      dup5\n        /* \"fisco/Trace.sol\":780:787  quality */\n      dup5\n        /* \"fisco/Trace.sol\":788:798  msg.sender */\n      caller\n        /* \"fisco/Trace.sol\":743:799  new EproductsInfoItem(name,traceName,quality,msg.sender) */\n      tag_182\n      jump\t// in(tag_183)\n    tag_182:\n      tag_184\n      swap5\n      swap4\n      swap3\n      swap2\n      swap1\n      jump(tag_185)\n    tag_184:\n      mload(0x40)\n      dup1\n      swap2\n      sub\n      swap1\n      0x0\n      create\n      dup1\n      iszero\n        /* \"--CODEGEN--\":8:17   */\n      dup1\n        /* \"--CODEGEN--\":5:7   */\n      iszero\n      tag_186\n      jumpi\n        /* \"--CODEGEN--\":45:61   */\n      returndatasize\n        /* \"--CODEGEN--\":42:43   */\n      0x0\n        /* \"--CODEGEN--\":39:40   */\n      dup1\n        /* \"--CODEGEN--\":24:62   */\n      returndatacopy\n        /* \"--CODEGEN--\":77:93   */\n      returndatasize\n        /* \"--CODEGEN--\":74:75   */\n      0x0\n        /* \"--CODEGEN--\":67:94   */\n      revert\n        /* \"--CODEGEN--\":5:7   */\n    tag_186:\n        /* \"fisco/Trace.sol\":743:799  new EproductsInfoItem(name,traceName,quality,msg.sender) */\n      pop\n        /* \"fisco/Trace.sol\":716:799  EproductsInfoItem eproduct=new EproductsInfoItem(name,traceName,quality,msg.sender) */\n      swap1\n      pop\n        /* \"fisco/Trace.sol\":832:840  eproduct */\n      dup1\n        /* \"fisco/Trace.sol\":809:818  eproducts */\n      0x3\n        /* \"fisco/Trace.sol\":809:831  eproducts[traceNumber] */\n      0x0\n        /* \"fisco/Trace.sol\":819:830  traceNumber */\n      dup8\n        /* \"fisco/Trace.sol\":809:831  eproducts[traceNumber] */\n      dup2\n      mstore\n      0x20\n      add\n      swap1\n      dup2\n      mstore\n      0x20\n      add\n      0x0\n      keccak256\n      0x0\n        /* \"fisco/Trace.sol\":809:840  eproducts[traceNumber]=eproduct */\n      0x100\n      exp\n      dup2\n      sload\n      dup2\n      0xffffffffffffffffffffffffffffffffffffffff\n      mul\n      not\n      and\n      swap1\n      dup4\n      0xffffffffffffffffffffffffffffffffffffffff\n      and\n      mul\n      or\n      swap1\n      sstore\n      pop\n        /* \"fisco/Trace.sol\":850:863  eproductsList */\n      0x4\n        /* \"fisco/Trace.sol\":869:880  traceNumber */\n      dup6\n        /* \"fisco/Trace.sol\":850:881  eproductsList.push(traceNumber) */\n      swap1\n      dup1\n        /* \"--CODEGEN--\":39:40   */\n      0x1\n        /* \"--CODEGEN--\":33:36   */\n      dup2\n        /* \"--CODEGEN--\":27:37   */\n      sload\n        /* \"--CODEGEN--\":23:41   */\n      add\n        /* \"--CODEGEN--\":57:67   */\n      dup1\n        /* \"--CODEGEN--\":52:55   */\n      dup3\n        /* \"--CODEGEN--\":45:68   */\n      sstore\n        /* \"--CODEGEN--\":79:89   */\n      dup1\n        /* \"--CODEGEN--\":72:89   */\n      swap2\n      pop\n        /* \"--CODEGEN--\":0:93   */\n      pop\n        /* \"fisco/Trace.sol\":850:881  eproductsList.push(traceNumber) */\n      swap1\n      0x1\n      dup3\n      sub\n      swap1\n      0x0\n      mstore\n      keccak256(0x0, 0x20)\n      add\n      0x0\n      swap1\n      swap2\n      swap3\n      swap1\n      swap2\n      swap1\n      swap2\n      pop\n      sstore\n      pop\n        /* \"fisco/Trace.sol\":898:906  eproduct */\n      dup1\n        /* \"fisco/Trace.sol\":891:906  return eproduct */\n      swap2\n      pop\n        /* \"fisco/Trace.sol\":503:922  function newEproducts(string name,uint256 traceNumber,string traceName,uint8 quality) public onlyProducer returns(address){... */\n      pop\n      swap5\n      swap4\n      pop\n      pop\n      pop\n      pop\n      jump\t// out\n        /* \"fisco/Retailer.sol\":809:932  function _addRetailer(address account)internal{... */\n    tag_106:\n        /* \"fisco/Retailer.sol\":865:888  _retailers.add(account) */\n      tag_189\n        /* \"fisco/Retailer.sol\":880:887  account */\n      dup2\n        /* \"fisco/Retailer.sol\":865:875  _retailers */\n      0x2\n        /* \"fisco/Retailer.sol\":865:879  _retailers.add */\n      tag_190\n      swap1\n        /* \"fisco/Retailer.sol\":865:888  _retailers.add(account) */\n      swap2\n      swap1\n      0xffffffff\n      and\n      jump\t// in\n    tag_189:\n        /* \"fisco/Retailer.sol\":917:924  account */\n      dup1\n        /* \"fisco/Retailer.sol\":903:925  RetailerAdded(account) */\n      0xffffffffffffffffffffffffffffffffffffffff\n      and\n      0x71ae26cad02663e3d92efd6ec56031a80d74a20c0ab4183faa8bf262261c9baa\n      mload(0x40)\n      mload(0x40)\n      dup1\n      swap2\n      sub\n      swap1\n      log2\n        /* \"fisco/Retailer.sol\":809:932  function _addRetailer(address account)internal{... */\n      pop\n      jump\t// out\n        /* \"fisco/Roles.sol\":140:332  function has(Role storage role,address account)internal view returns(bool){... */\n    tag_127:\n        /* \"fisco/Roles.sol\":209:213  bool */\n      0x0\n        /* \"fisco/Roles.sol\":249:250  0 */\n      dup1\n        /* \"fisco/Roles.sol\":232:251  account!=address(0) */\n      0xffffffffffffffffffffffffffffffffffffffff\n      and\n        /* \"fisco/Roles.sol\":232:239  account */\n      dup3\n        /* \"fisco/Roles.sol\":232:251  account!=address(0) */\n      0xffffffffffffffffffffffffffffffffffffffff\n      and\n      eq\n      iszero\n        /* \"fisco/Roles.sol\":224:288  require(account!=address(0),\"Roles:account is the zero address\") */\n      iszero\n      iszero\n      tag_192\n      jumpi\n      mload(0x40)\n      0x8c379a000000000000000000000000000000000000000000000000000000000\n      dup2\n      mstore\n      0x4\n      add\n      tag_193\n      swap1\n      jump(tag_194)\n    tag_193:\n      mload(0x40)\n      dup1\n      swap2\n      sub\n      swap1\n      revert\n    tag_192:\n        /* \"fisco/Roles.sol\":305:309  role */\n      dup3\n        /* \"fisco/Roles.sol\":305:316  role.bearer */\n      0x0\n      add\n        /* \"fisco/Roles.sol\":305:325  role.bearer[account] */\n      0x0\n        /* \"fisco/Roles.sol\":317:324  account */\n      dup4\n        /* \"fisco/Roles.sol\":305:325  role.bearer[account] */\n      0xffffffffffffffffffffffffffffffffffffffff\n      and\n      0xffffffffffffffffffffffffffffffffffffffff\n      and\n      dup2\n      mstore\n      0x20\n      add\n      swap1\n      dup2\n      mstore\n      0x20\n      add\n      0x0\n      keccak256\n      0x0\n      swap1\n      sload\n      swap1\n      0x100\n      exp\n      swap1\n      div\n      0xff\n      and\n        /* \"fisco/Roles.sol\":298:325  return role.bearer[account] */\n      swap1\n      pop\n        /* \"fisco/Roles.sol\":140:332  function has(Role storage role,address account)internal view returns(bool){... */\n      swap3\n      swap2\n      pop\n      pop\n      jump\t// out\n        /* \"fisco/Distributor.sol\":1316:1465  function _removeDistributor(address account)internal{... */\n    tag_130:\n        /* \"fisco/Distributor.sol\":1378:1407  _distributors.remove(account) */\n      tag_196\n        /* \"fisco/Distributor.sol\":1399:1406  account */\n      dup2\n        /* \"fisco/Distributor.sol\":1378:1391  _distributors */\n      0x1\n        /* \"fisco/Distributor.sol\":1378:1398  _distributors.remove */\n      tag_197\n      swap1\n        /* \"fisco/Distributor.sol\":1378:1407  _distributors.remove(account) */\n      swap2\n      swap1\n      0xffffffff\n      and\n      jump\t// in\n    tag_196:\n        /* \"fisco/Distributor.sol\":1441:1448  account */\n      dup1\n        /* \"fisco/Distributor.sol\":1422:1449  DistributorRemoved(account) */\n      0xffffffffffffffffffffffffffffffffffffffff\n      and\n      0x126174f6cf49c81cdb4a9214c6b8f037bef55b4ec31e4fc776cea2a1c8a88d59\n      mload(0x40)\n      mload(0x40)\n      dup1\n      swap2\n      sub\n      swap1\n      log2\n        /* \"fisco/Distributor.sol\":1316:1465  function _removeDistributor(address account)internal{... */\n      pop\n      jump\t// out\n        /* \"fisco/Distributor.sol\":1147:1280  function _addDistributor(address account)internal{... */\n    tag_137:\n        /* \"fisco/Distributor.sol\":1206:1232  _distributors.add(account) */\n      tag_199\n        /* \"fisco/Distributor.sol\":1224:1231  account */\n      dup2\n        /* \"fisco/Distributor.sol\":1206:1219  _distributors */\n      0x1\n        /* \"fisco/Distributor.sol\":1206:1223  _distributors.add */\n      tag_190\n      swap1\n        /* \"fisco/Distributor.sol\":1206:1232  _distributors.add(account) */\n      swap2\n      swap1\n      0xffffffff\n      and\n      jump\t// in\n    tag_199:\n        /* \"fisco/Distributor.sol\":1264:1271  account */\n      dup1\n        /* \"fisco/Distributor.sol\":1247:1272  DistributorAdded(account) */\n      0xffffffffffffffffffffffffffffffffffffffff\n      and\n      0xddbf200aa634dc3fb81cfd68583dd1040d1c751d335e1d86b631bde3e977fea8\n      mload(0x40)\n      mload(0x40)\n      dup1\n      swap2\n      sub\n      swap1\n      log2\n        /* \"fisco/Distributor.sol\":1147:1280  function _addDistributor(address account)internal{... */\n      pop\n      jump\t// out\n        /* \"fisco/Retailer.sol\":938:1070  function _removeRetailer(address account)internal{... */\n    tag_153:\n        /* \"fisco/Retailer.sol\":998:1024  _retailers.remove(account) */\n      tag_201\n        /* \"fisco/Retailer.sol\":1016:1023  account */\n      dup2\n        /* \"fisco/Retailer.sol\":998:1008  _retailers */\n      0x2\n        /* \"fisco/Retailer.sol\":998:1015  _retailers.remove */\n      tag_197\n      swap1\n        /* \"fisco/Retailer.sol\":998:1024  _retailers.remove(account) */\n      swap2\n      swap1\n      0xffffffff\n      and\n      jump\t// in\n    tag_201:\n        /* \"fisco/Retailer.sol\":1055:1062  account */\n      dup1\n        /* \"fisco/Retailer.sol\":1039:1063  RetailerRemoved(account) */\n      0xffffffffffffffffffffffffffffffffffffffff\n      and\n      0xdb7176e79cffef81cb01767dd0447a0b24bb72ca9778d4b245581086b2a7e6db\n      mload(0x40)\n      mload(0x40)\n      dup1\n      swap2\n      sub\n      swap1\n      log2\n        /* \"fisco/Retailer.sol\":938:1070  function _removeRetailer(address account)internal{... */\n      pop\n      jump\t// out\n        /* \"fisco/Producer.sol\":722:834  function _addProducer(address account)internal{... */\n    tag_161:\n        /* \"fisco/Producer.sol\":774:797  _producers.add(account) */\n      tag_203\n        /* \"fisco/Producer.sol\":789:796  account */\n      dup2\n        /* \"fisco/Producer.sol\":774:784  _producers */\n      0x0\n        /* \"fisco/Producer.sol\":774:788  _producers.add */\n      tag_190\n      swap1\n        /* \"fisco/Producer.sol\":774:797  _producers.add(account) */\n      swap2\n      swap1\n      0xffffffff\n      and\n      jump\t// in\n    tag_203:\n        /* \"fisco/Producer.sol\":822:829  account */\n      dup1\n        /* \"fisco/Producer.sol\":808:830  ProducerAdded(account) */\n      0xffffffffffffffffffffffffffffffffffffffff\n      and\n      0x2977383b0207d39ef14220620b6cf3e6c9b6e78592af90baeef6614ed2fcd2c6\n      mload(0x40)\n      mload(0x40)\n      dup1\n      swap2\n      sub\n      swap1\n      log2\n        /* \"fisco/Producer.sol\":722:834  function _addProducer(address account)internal{... */\n      pop\n      jump\t// out\n        /* \"fisco/Producer.sol\":836:955  function _removeProducer(address account)internal{... */\n    tag_173:\n        /* \"fisco/Producer.sol\":891:917  _producers.remove(account) */\n      tag_205\n        /* \"fisco/Producer.sol\":909:916  account */\n      dup2\n        /* \"fisco/Producer.sol\":891:901  _producers */\n      0x0\n        /* \"fisco/Producer.sol\":891:908  _producers.remove */\n      tag_197\n      swap1\n        /* \"fisco/Producer.sol\":891:917  _producers.remove(account) */\n      swap2\n      swap1\n      0xffffffff\n      and\n      jump\t// in\n    tag_205:\n        /* \"fisco/Producer.sol\":944:951  account */\n      dup1\n        /* \"fisco/Producer.sol\":928:952  ProducerRemoved(account) */\n      0xffffffffffffffffffffffffffffffffffffffff\n      and\n      0xb78e9906c5bae930ccf756a5214c9855b1782f0eb30f9566de2384f034af48f3\n      mload(0x40)\n      mload(0x40)\n      dup1\n      swap2\n      sub\n      swap1\n      log2\n        /* \"fisco/Producer.sol\":836:955  function _removeProducer(address account)internal{... */\n      pop\n      jump\t// out\n        /* \"fisco/Roles.sol\":337:504  function add(Role storage role,address account)internal{... */\n    tag_190:\n        /* \"fisco/Roles.sol\":411:428  has(role,account) */\n      tag_207\n        /* \"fisco/Roles.sol\":415:419  role */\n      dup3\n        /* \"fisco/Roles.sol\":420:427  account */\n      dup3\n        /* \"fisco/Roles.sol\":411:414  has */\n      tag_127\n        /* \"fisco/Roles.sol\":411:428  has(role,account) */\n      jump\t// in\n    tag_207:\n        /* \"fisco/Roles.sol\":410:428  !has(role,account) */\n      iszero\n        /* \"fisco/Roles.sol\":402:462  require(!has(role,account), \"Roles: account already exists\") */\n      iszero\n      iszero\n      tag_208\n      jumpi\n      mload(0x40)\n      0x8c379a000000000000000000000000000000000000000000000000000000000\n      dup2\n      mstore\n      0x4\n      add\n      tag_209\n      swap1\n      jump(tag_210)\n    tag_209:\n      mload(0x40)\n      dup1\n      swap2\n      sub\n      swap1\n      revert\n    tag_208:\n        /* \"fisco/Roles.sol\":493:497  true */\n      0x1\n        /* \"fisco/Roles.sol\":472:476  role */\n      dup3\n        /* \"fisco/Roles.sol\":472:483  role.bearer */\n      0x0\n      add\n        /* \"fisco/Roles.sol\":472:492  role.bearer[account] */\n      0x0\n        /* \"fisco/Roles.sol\":484:491  account */\n      dup4\n        /* \"fisco/Roles.sol\":472:492  role.bearer[account] */\n      0xffffffffffffffffffffffffffffffffffffffff\n      and\n      0xffffffffffffffffffffffffffffffffffffffff\n      and\n      dup2\n      mstore\n      0x20\n      add\n      swap1\n      dup2\n      mstore\n      0x20\n      add\n      0x0\n      keccak256\n      0x0\n        /* \"fisco/Roles.sol\":472:497  role.bearer[account]=true */\n      0x100\n      exp\n      dup2\n      sload\n      dup2\n      0xff\n      mul\n      not\n      and\n      swap1\n      dup4\n      iszero\n      iszero\n      mul\n      or\n      swap1\n      sstore\n      pop\n        /* \"fisco/Roles.sol\":337:504  function add(Role storage role,address account)internal{... */\n      pop\n      pop\n      jump\t// out\n        /* \"fisco/Roles.sol\":510:687  function remove(Role storage role, address account) internal {... */\n    tag_197:\n        /* \"fisco/Roles.sol\":589:606  has(role,account) */\n      tag_212\n        /* \"fisco/Roles.sol\":593:597  role */\n      dup3\n        /* \"fisco/Roles.sol\":598:605  account */\n      dup3\n        /* \"fisco/Roles.sol\":589:592  has */\n      tag_127\n        /* \"fisco/Roles.sol\":589:606  has(role,account) */\n      jump\t// in\n    tag_212:\n        /* \"fisco/Roles.sol\":581:642  require(has(role,account),\"Roles:account does not have role\") */\n      iszero\n      iszero\n      tag_213\n      jumpi\n      mload(0x40)\n      0x8c379a000000000000000000000000000000000000000000000000000000000\n      dup2\n      mstore\n      0x4\n      add\n      tag_214\n      swap1\n      jump(tag_215)\n    tag_214:\n      mload(0x40)\n      dup1\n      swap2\n      sub\n      swap1\n      revert\n    tag_213:\n        /* \"fisco/Roles.sol\":675:680  false */\n      0x0\n        /* \"fisco/Roles.sol\":652:656  role */\n      dup3\n        /* \"fisco/Roles.sol\":652:663  role.bearer */\n      0x0\n      add\n        /* \"fisco/Roles.sol\":652:672  role.bearer[account] */\n      0x0\n        /* \"fisco/Roles.sol\":664:671  account */\n      dup4\n        /* \"fisco/Roles.sol\":652:672  role.bearer[account] */\n      0xffffffffffffffffffffffffffffffffffffffff\n      and\n      0xffffffffffffffffffffffffffffffffffffffff\n      and\n      dup2\n      mstore\n      0x20\n      add\n      swap1\n      dup2\n      mstore\n      0x20\n      add\n      0x0\n      keccak256\n      0x0\n        /* \"fisco/Roles.sol\":652:680  role.bearer[account] = false */\n      0x100\n      exp\n      dup2\n      sload\n      dup2\n      0xff\n      mul\n      not\n      and\n      swap1\n      dup4\n      iszero\n      iszero\n      mul\n      or\n      swap1\n      sstore\n      pop\n        /* \"fisco/Roles.sol\":510:687  function remove(Role storage role, address account) internal {... */\n      pop\n      pop\n      jump\t// out\n        /* \"fisco/Trace.sol\":210:2274  contract Trace is Producer,Distributor,Retailer{... */\n    tag_183:\n      mload(0x40)\n      dataSize(sub_0)\n      dup1\n      dataOffset(sub_0)\n      dup4\n      codecopy\n      add\n      swap1\n      jump\t// out\n        /* \"--CODEGEN--\":5:123   */\n    tag_217:\n      0x0\n        /* \"--CODEGEN--\":72:118   */\n      tag_218\n        /* \"--CODEGEN--\":110:116   */\n      dup3\n        /* \"--CODEGEN--\":97:117   */\n      calldataload\n        /* \"--CODEGEN--\":72:118   */\n      jump(tag_219)\n    tag_218:\n        /* \"--CODEGEN--\":63:118   */\n      swap1\n      pop\n        /* \"--CODEGEN--\":57:123   */\n      swap3\n      swap2\n      pop\n      pop\n      jump\n        /* \"--CODEGEN--\":130:252   */\n    tag_221:\n      0x0\n        /* \"--CODEGEN--\":208:247   */\n      tag_222\n        /* \"--CODEGEN--\":239:245   */\n      dup3\n        /* \"--CODEGEN--\":233:246   */\n      mload\n        /* \"--CODEGEN--\":208:247   */\n      jump(tag_219)\n    tag_222:\n        /* \"--CODEGEN--\":199:247   */\n      swap1\n      pop\n        /* \"--CODEGEN--\":193:252   */\n      swap3\n      swap2\n      pop\n      pop\n      jump\n        /* \"--CODEGEN--\":277:999   */\n    tag_224:\n      0x0\n        /* \"--CODEGEN--\":405:408   */\n      dup3\n        /* \"--CODEGEN--\":398:402   */\n      0x1f\n        /* \"--CODEGEN--\":390:396   */\n      dup4\n        /* \"--CODEGEN--\":386:403   */\n      add\n        /* \"--CODEGEN--\":382:409   */\n      slt\n        /* \"--CODEGEN--\":375:410   */\n      iszero\n        /* \"--CODEGEN--\":372:374   */\n      iszero\n      tag_225\n      jumpi\n        /* \"--CODEGEN--\":423:424   */\n      0x0\n        /* \"--CODEGEN--\":420:421   */\n      dup1\n        /* \"--CODEGEN--\":413:425   */\n      revert\n        /* \"--CODEGEN--\":372:374   */\n    tag_225:\n        /* \"--CODEGEN--\":453:459   */\n      dup2\n        /* \"--CODEGEN--\":447:460   */\n      mload\n        /* \"--CODEGEN--\":475:555   */\n      tag_226\n        /* \"--CODEGEN--\":490:554   */\n      tag_227\n        /* \"--CODEGEN--\":547:553   */\n      dup3\n        /* \"--CODEGEN--\":490:554   */\n      jump(tag_228)\n    tag_227:\n        /* \"--CODEGEN--\":475:555   */\n      jump(tag_229)\n    tag_226:\n        /* \"--CODEGEN--\":466:555   */\n      swap2\n      pop\n        /* \"--CODEGEN--\":572:577   */\n      dup2\n        /* \"--CODEGEN--\":597:603   */\n      dup2\n        /* \"--CODEGEN--\":590:595   */\n      dup4\n        /* \"--CODEGEN--\":583:604   */\n      mstore\n        /* \"--CODEGEN--\":627:631   */\n      0x20\n        /* \"--CODEGEN--\":619:625   */\n      dup5\n        /* \"--CODEGEN--\":615:632   */\n      add\n        /* \"--CODEGEN--\":605:632   */\n      swap4\n      pop\n        /* \"--CODEGEN--\":649:653   */\n      0x20\n        /* \"--CODEGEN--\":644:647   */\n      dup2\n        /* \"--CODEGEN--\":640:654   */\n      add\n        /* \"--CODEGEN--\":633:654   */\n      swap1\n      pop\n        /* \"--CODEGEN--\":702:708   */\n      dup4\n        /* \"--CODEGEN--\":749:752   */\n      dup6\n        /* \"--CODEGEN--\":741:745   */\n      0x20\n        /* \"--CODEGEN--\":733:739   */\n      dup5\n        /* \"--CODEGEN--\":729:746   */\n      mul\n        /* \"--CODEGEN--\":724:727   */\n      dup3\n        /* \"--CODEGEN--\":720:747   */\n      add\n        /* \"--CODEGEN--\":717:753   */\n      gt\n        /* \"--CODEGEN--\":714:716   */\n      iszero\n      tag_230\n      jumpi\n        /* \"--CODEGEN--\":766:767   */\n      0x0\n        /* \"--CODEGEN--\":763:764   */\n      dup1\n        /* \"--CODEGEN--\":756:768   */\n      revert\n        /* \"--CODEGEN--\":714:716   */\n    tag_230:\n        /* \"--CODEGEN--\":791:792   */\n      0x0\n        /* \"--CODEGEN--\":776:993   */\n    tag_231:\n        /* \"--CODEGEN--\":801:807   */\n      dup4\n        /* \"--CODEGEN--\":798:799   */\n      dup2\n        /* \"--CODEGEN--\":795:808   */\n      lt\n        /* \"--CODEGEN--\":776:993   */\n      iszero\n      tag_232\n      jumpi\n        /* \"--CODEGEN--\":859:862   */\n      dup2\n        /* \"--CODEGEN--\":881:929   */\n      tag_234\n        /* \"--CODEGEN--\":925:928   */\n      dup9\n        /* \"--CODEGEN--\":913:923   */\n      dup3\n        /* \"--CODEGEN--\":881:929   */\n      jump(tag_221)\n    tag_234:\n        /* \"--CODEGEN--\":876:879   */\n      dup5\n        /* \"--CODEGEN--\":869:930   */\n      mstore\n        /* \"--CODEGEN--\":953:957   */\n      0x20\n        /* \"--CODEGEN--\":948:951   */\n      dup5\n        /* \"--CODEGEN--\":944:958   */\n      add\n        /* \"--CODEGEN--\":937:958   */\n      swap4\n      pop\n        /* \"--CODEGEN--\":981:985   */\n      0x20\n        /* \"--CODEGEN--\":976:979   */\n      dup4\n        /* \"--CODEGEN--\":972:986   */\n      add\n        /* \"--CODEGEN--\":965:986   */\n      swap3\n      pop\n        /* \"--CODEGEN--\":833:993   */\n      pop\n        /* \"--CODEGEN--\":823:824   */\n      0x1\n        /* \"--CODEGEN--\":820:821   */\n      dup2\n        /* \"--CODEGEN--\":816:825   */\n      add\n        /* \"--CODEGEN--\":811:825   */\n      swap1\n      pop\n        /* \"--CODEGEN--\":776:993   */\n      jump(tag_231)\n    tag_232:\n        /* \"--CODEGEN--\":780:794   */\n      pop\n        /* \"--CODEGEN--\":365:999   */\n      pop\n      pop\n      pop\n      swap3\n      swap2\n      pop\n      pop\n      jump\n        /* \"--CODEGEN--\":1024:1728   */\n    tag_236:\n      0x0\n        /* \"--CODEGEN--\":1158:1161   */\n      dup3\n        /* \"--CODEGEN--\":1151:1155   */\n      0x1f\n        /* \"--CODEGEN--\":1143:1149   */\n      dup4\n        /* \"--CODEGEN--\":1139:1156   */\n      add\n        /* \"--CODEGEN--\":1135:1162   */\n      slt\n        /* \"--CODEGEN--\":1128:1163   */\n      iszero\n        /* \"--CODEGEN--\":1125:1127   */\n      iszero\n      tag_237\n      jumpi\n        /* \"--CODEGEN--\":1176:1177   */\n      0x0\n        /* \"--CODEGEN--\":1173:1174   */\n      dup1\n        /* \"--CODEGEN--\":1166:1178   */\n      revert\n        /* \"--CODEGEN--\":1125:1127   */\n    tag_237:\n        /* \"--CODEGEN--\":1206:1212   */\n      dup2\n        /* \"--CODEGEN--\":1200:1213   */\n      mload\n        /* \"--CODEGEN--\":1228:1314   */\n      tag_238\n        /* \"--CODEGEN--\":1243:1313   */\n      tag_239\n        /* \"--CODEGEN--\":1306:1312   */\n      dup3\n        /* \"--CODEGEN--\":1243:1313   */\n      jump(tag_240)\n    tag_239:\n        /* \"--CODEGEN--\":1228:1314   */\n      jump(tag_229)\n    tag_238:\n        /* \"--CODEGEN--\":1219:1314   */\n      swap2\n      pop\n        /* \"--CODEGEN--\":1331:1336   */\n      dup2\n        /* \"--CODEGEN--\":1356:1362   */\n      dup2\n        /* \"--CODEGEN--\":1349:1354   */\n      dup4\n        /* \"--CODEGEN--\":1342:1363   */\n      mstore\n        /* \"--CODEGEN--\":1386:1390   */\n      0x20\n        /* \"--CODEGEN--\":1378:1384   */\n      dup5\n        /* \"--CODEGEN--\":1374:1391   */\n      add\n        /* \"--CODEGEN--\":1364:1391   */\n      swap4\n      pop\n        /* \"--CODEGEN--\":1408:1412   */\n      0x20\n        /* \"--CODEGEN--\":1403:1406   */\n      dup2\n        /* \"--CODEGEN--\":1399:1413   */\n      add\n        /* \"--CODEGEN--\":1392:1413   */\n      swap1\n      pop\n        /* \"--CODEGEN--\":1461:1467   */\n      dup4\n        /* \"--CODEGEN--\":1494:1495   */\n      0x0\n        /* \"--CODEGEN--\":1479:1722   */\n    tag_241:\n        /* \"--CODEGEN--\":1504:1510   */\n      dup4\n        /* \"--CODEGEN--\":1501:1502   */\n      dup2\n        /* \"--CODEGEN--\":1498:1511   */\n      lt\n        /* \"--CODEGEN--\":1479:1722   */\n      iszero\n      tag_242\n      jumpi\n        /* \"--CODEGEN--\":1580:1583   */\n      dup2\n        /* \"--CODEGEN--\":1574:1584   */\n      mload\n        /* \"--CODEGEN--\":1566:1572   */\n      dup7\n        /* \"--CODEGEN--\":1562:1585   */\n      add\n        /* \"--CODEGEN--\":1604:1658   */\n      tag_244\n        /* \"--CODEGEN--\":1654:1657   */\n      dup9\n        /* \"--CODEGEN--\":1642:1652   */\n      dup3\n        /* \"--CODEGEN--\":1604:1658   */\n      jump(tag_245)\n    tag_244:\n        /* \"--CODEGEN--\":1599:1602   */\n      dup5\n        /* \"--CODEGEN--\":1592:1659   */\n      mstore\n        /* \"--CODEGEN--\":1682:1686   */\n      0x20\n        /* \"--CODEGEN--\":1677:1680   */\n      dup5\n        /* \"--CODEGEN--\":1673:1687   */\n      add\n        /* \"--CODEGEN--\":1666:1687   */\n      swap4\n      pop\n        /* \"--CODEGEN--\":1710:1714   */\n      0x20\n        /* \"--CODEGEN--\":1705:1708   */\n      dup4\n        /* \"--CODEGEN--\":1701:1715   */\n      add\n        /* \"--CODEGEN--\":1694:1715   */\n      swap3\n      pop\n        /* \"--CODEGEN--\":1536:1722   */\n      pop\n        /* \"--CODEGEN--\":1526:1527   */\n      0x1\n        /* \"--CODEGEN--\":1523:1524   */\n      dup2\n        /* \"--CODEGEN--\":1519:1528   */\n      add\n        /* \"--CODEGEN--\":1514:1528   */\n      swap1\n      pop\n        /* \"--CODEGEN--\":1479:1722   */\n      jump(tag_241)\n    tag_242:\n        /* \"--CODEGEN--\":1483:1497   */\n      pop\n        /* \"--CODEGEN--\":1118:1728   */\n      pop\n      pop\n      pop\n      swap3\n      swap2\n      pop\n      pop\n      jump\n        /* \"--CODEGEN--\":1754:2476   */\n    tag_247:\n      0x0\n        /* \"--CODEGEN--\":1882:1885   */\n      dup3\n        /* \"--CODEGEN--\":1875:1879   */\n      0x1f\n        /* \"--CODEGEN--\":1867:1873   */\n      dup4\n        /* \"--CODEGEN--\":1863:1880   */\n      add\n        /* \"--CODEGEN--\":1859:1886   */\n      slt\n        /* \"--CODEGEN--\":1852:1887   */\n      iszero\n        /* \"--CODEGEN--\":1849:1851   */\n      iszero\n      tag_248\n      jumpi\n        /* \"--CODEGEN--\":1900:1901   */\n      0x0\n        /* \"--CODEGEN--\":1897:1898   */\n      dup1\n        /* \"--CODEGEN--\":1890:1902   */\n      revert\n        /* \"--CODEGEN--\":1849:1851   */\n    tag_248:\n        /* \"--CODEGEN--\":1930:1936   */\n      dup2\n        /* \"--CODEGEN--\":1924:1937   */\n      mload\n        /* \"--CODEGEN--\":1952:2032   */\n      tag_249\n        /* \"--CODEGEN--\":1967:2031   */\n      tag_250\n        /* \"--CODEGEN--\":2024:2030   */\n      dup3\n        /* \"--CODEGEN--\":1967:2031   */\n      jump(tag_251)\n    tag_250:\n        /* \"--CODEGEN--\":1952:2032   */\n      jump(tag_229)\n    tag_249:\n        /* \"--CODEGEN--\":1943:2032   */\n      swap2\n      pop\n        /* \"--CODEGEN--\":2049:2054   */\n      dup2\n        /* \"--CODEGEN--\":2074:2080   */\n      dup2\n        /* \"--CODEGEN--\":2067:2072   */\n      dup4\n        /* \"--CODEGEN--\":2060:2081   */\n      mstore\n        /* \"--CODEGEN--\":2104:2108   */\n      0x20\n        /* \"--CODEGEN--\":2096:2102   */\n      dup5\n        /* \"--CODEGEN--\":2092:2109   */\n      add\n        /* \"--CODEGEN--\":2082:2109   */\n      swap4\n      pop\n        /* \"--CODEGEN--\":2126:2130   */\n      0x20\n        /* \"--CODEGEN--\":2121:2124   */\n      dup2\n        /* \"--CODEGEN--\":2117:2131   */\n      add\n        /* \"--CODEGEN--\":2110:2131   */\n      swap1\n      pop\n        /* \"--CODEGEN--\":2179:2185   */\n      dup4\n        /* \"--CODEGEN--\":2226:2229   */\n      dup6\n        /* \"--CODEGEN--\":2218:2222   */\n      0x20\n        /* \"--CODEGEN--\":2210:2216   */\n      dup5\n        /* \"--CODEGEN--\":2206:2223   */\n      mul\n        /* \"--CODEGEN--\":2201:2204   */\n      dup3\n        /* \"--CODEGEN--\":2197:2224   */\n      add\n        /* \"--CODEGEN--\":2194:2230   */\n      gt\n        /* \"--CODEGEN--\":2191:2193   */\n      iszero\n      tag_252\n      jumpi\n        /* \"--CODEGEN--\":2243:2244   */\n      0x0\n        /* \"--CODEGEN--\":2240:2241   */\n      dup1\n        /* \"--CODEGEN--\":2233:2245   */\n      revert\n        /* \"--CODEGEN--\":2191:2193   */\n    tag_252:\n        /* \"--CODEGEN--\":2268:2269   */\n      0x0\n        /* \"--CODEGEN--\":2253:2470   */\n    tag_253:\n        /* \"--CODEGEN--\":2278:2284   */\n      dup4\n        /* \"--CODEGEN--\":2275:2276   */\n      dup2\n        /* \"--CODEGEN--\":2272:2285   */\n      lt\n        /* \"--CODEGEN--\":2253:2470   */\n      iszero\n      tag_254\n      jumpi\n        /* \"--CODEGEN--\":2336:2339   */\n      dup2\n        /* \"--CODEGEN--\":2358:2406   */\n      tag_256\n        /* \"--CODEGEN--\":2402:2405   */\n      dup9\n        /* \"--CODEGEN--\":2390:2400   */\n      dup3\n        /* \"--CODEGEN--\":2358:2406   */\n      jump(tag_257)\n    tag_256:\n        /* \"--CODEGEN--\":2353:2356   */\n      dup5\n        /* \"--CODEGEN--\":2346:2407   */\n      mstore\n        /* \"--CODEGEN--\":2430:2434   */\n      0x20\n        /* \"--CODEGEN--\":2425:2428   */\n      dup5\n        /* \"--CODEGEN--\":2421:2435   */\n      add\n        /* \"--CODEGEN--\":2414:2435   */\n      swap4\n      pop\n        /* \"--CODEGEN--\":2458:2462   */\n      0x20\n        /* \"--CODEGEN--\":2453:2456   */\n      dup4\n        /* \"--CODEGEN--\":2449:2463   */\n      add\n        /* \"--CODEGEN--\":2442:2463   */\n      swap3\n      pop\n        /* \"--CODEGEN--\":2310:2470   */\n      pop\n        /* \"--CODEGEN--\":2300:2301   */\n      0x1\n        /* \"--CODEGEN--\":2297:2298   */\n      dup2\n        /* \"--CODEGEN--\":2293:2302   */\n      add\n        /* \"--CODEGEN--\":2288:2302   */\n      swap1\n      pop\n        /* \"--CODEGEN--\":2253:2470   */\n      jump(tag_253)\n    tag_254:\n        /* \"--CODEGEN--\":2257:2271   */\n      pop\n        /* \"--CODEGEN--\":1842:2476   */\n      pop\n      pop\n      pop\n      swap3\n      swap2\n      pop\n      pop\n      jump\n        /* \"--CODEGEN--\":2500:3216   */\n    tag_259:\n      0x0\n        /* \"--CODEGEN--\":2626:2629   */\n      dup3\n        /* \"--CODEGEN--\":2619:2623   */\n      0x1f\n        /* \"--CODEGEN--\":2611:2617   */\n      dup4\n        /* \"--CODEGEN--\":2607:2624   */\n      add\n        /* \"--CODEGEN--\":2603:2630   */\n      slt\n        /* \"--CODEGEN--\":2596:2631   */\n      iszero\n        /* \"--CODEGEN--\":2593:2595   */\n      iszero\n      tag_260\n      jumpi\n        /* \"--CODEGEN--\":2644:2645   */\n      0x0\n        /* \"--CODEGEN--\":2641:2642   */\n      dup1\n        /* \"--CODEGEN--\":2634:2646   */\n      revert\n        /* \"--CODEGEN--\":2593:2595   */\n    tag_260:\n        /* \"--CODEGEN--\":2674:2680   */\n      dup2\n        /* \"--CODEGEN--\":2668:2681   */\n      mload\n        /* \"--CODEGEN--\":2696:2774   */\n      tag_261\n        /* \"--CODEGEN--\":2711:2773   */\n      tag_262\n        /* \"--CODEGEN--\":2766:2772   */\n      dup3\n        /* \"--CODEGEN--\":2711:2773   */\n      jump(tag_263)\n    tag_262:\n        /* \"--CODEGEN--\":2696:2774   */\n      jump(tag_229)\n    tag_261:\n        /* \"--CODEGEN--\":2687:2774   */\n      swap2\n      pop\n        /* \"--CODEGEN--\":2791:2796   */\n      dup2\n        /* \"--CODEGEN--\":2816:2822   */\n      dup2\n        /* \"--CODEGEN--\":2809:2814   */\n      dup4\n        /* \"--CODEGEN--\":2802:2823   */\n      mstore\n        /* \"--CODEGEN--\":2846:2850   */\n      0x20\n        /* \"--CODEGEN--\":2838:2844   */\n      dup5\n        /* \"--CODEGEN--\":2834:2851   */\n      add\n        /* \"--CODEGEN--\":2824:2851   */\n      swap4\n      pop\n        /* \"--CODEGEN--\":2868:2872   */\n      0x20\n        /* \"--CODEGEN--\":2863:2866   */\n      dup2\n        /* \"--CODEGEN--\":2859:2873   */\n      add\n        /* \"--CODEGEN--\":2852:2873   */\n      swap1\n      pop\n        /* \"--CODEGEN--\":2921:2927   */\n      dup4\n        /* \"--CODEGEN--\":2968:2971   */\n      dup6\n        /* \"--CODEGEN--\":2960:2964   */\n      0x20\n        /* \"--CODEGEN--\":2952:2958   */\n      dup5\n        /* \"--CODEGEN--\":2948:2965   */\n      mul\n        /* \"--CODEGEN--\":2943:2946   */\n      dup3\n        /* \"--CODEGEN--\":2939:2966   */\n      add\n        /* \"--CODEGEN--\":2936:2972   */\n      gt\n        /* \"--CODEGEN--\":2933:2935   */\n      iszero\n      tag_264\n      jumpi\n        /* \"--CODEGEN--\":2985:2986   */\n      0x0\n        /* \"--CODEGEN--\":2982:2983   */\n      dup1\n        /* \"--CODEGEN--\":2975:2987   */\n      revert\n        /* \"--CODEGEN--\":2933:2935   */\n    tag_264:\n        /* \"--CODEGEN--\":3010:3011   */\n      0x0\n        /* \"--CODEGEN--\":2995:3210   */\n    tag_265:\n        /* \"--CODEGEN--\":3020:3026   */\n      dup4\n        /* \"--CODEGEN--\":3017:3018   */\n      dup2\n        /* \"--CODEGEN--\":3014:3027   */\n      lt\n        /* \"--CODEGEN--\":2995:3210   */\n      iszero\n      tag_266\n      jumpi\n        /* \"--CODEGEN--\":3078:3081   */\n      dup2\n        /* \"--CODEGEN--\":3100:3146   */\n      tag_268\n        /* \"--CODEGEN--\":3142:3145   */\n      dup9\n        /* \"--CODEGEN--\":3130:3140   */\n      dup3\n        /* \"--CODEGEN--\":3100:3146   */\n      jump(tag_269)\n    tag_268:\n        /* \"--CODEGEN--\":3095:3098   */\n      dup5\n        /* \"--CODEGEN--\":3088:3147   */\n      mstore\n        /* \"--CODEGEN--\":3170:3174   */\n      0x20\n        /* \"--CODEGEN--\":3165:3168   */\n      dup5\n        /* \"--CODEGEN--\":3161:3175   */\n      add\n        /* \"--CODEGEN--\":3154:3175   */\n      swap4\n      pop\n        /* \"--CODEGEN--\":3198:3202   */\n      0x20\n        /* \"--CODEGEN--\":3193:3196   */\n      dup4\n        /* \"--CODEGEN--\":3189:3203   */\n      add\n        /* \"--CODEGEN--\":3182:3203   */\n      swap3\n      pop\n        /* \"--CODEGEN--\":3052:3210   */\n      pop\n        /* \"--CODEGEN--\":3042:3043   */\n      0x1\n        /* \"--CODEGEN--\":3039:3040   */\n      dup2\n        /* \"--CODEGEN--\":3035:3044   */\n      add\n        /* \"--CODEGEN--\":3030:3044   */\n      swap1\n      pop\n        /* \"--CODEGEN--\":2995:3210   */\n      jump(tag_265)\n    tag_266:\n        /* \"--CODEGEN--\":2999:3013   */\n      pop\n        /* \"--CODEGEN--\":2586:3216   */\n      pop\n      pop\n      pop\n      swap3\n      swap2\n      pop\n      pop\n      jump\n        /* \"--CODEGEN--\":3224:3340   */\n    tag_271:\n      0x0\n        /* \"--CODEGEN--\":3299:3335   */\n      tag_272\n        /* \"--CODEGEN--\":3327:3333   */\n      dup3\n        /* \"--CODEGEN--\":3321:3334   */\n      mload\n        /* \"--CODEGEN--\":3299:3335   */\n      jump(tag_273)\n    tag_272:\n        /* \"--CODEGEN--\":3290:3335   */\n      swap1\n      pop\n        /* \"--CODEGEN--\":3284:3340   */\n      swap3\n      swap2\n      pop\n      pop\n      jump\n        /* \"--CODEGEN--\":3348:3784   */\n    tag_245:\n      0x0\n        /* \"--CODEGEN--\":3457:3460   */\n      dup3\n        /* \"--CODEGEN--\":3450:3454   */\n      0x1f\n        /* \"--CODEGEN--\":3442:3448   */\n      dup4\n        /* \"--CODEGEN--\":3438:3455   */\n      add\n        /* \"--CODEGEN--\":3434:3461   */\n      slt\n        /* \"--CODEGEN--\":3427:3462   */\n      iszero\n        /* \"--CODEGEN--\":3424:3426   */\n      iszero\n      tag_275\n      jumpi\n        /* \"--CODEGEN--\":3475:3476   */\n      0x0\n        /* \"--CODEGEN--\":3472:3473   */\n      dup1\n        /* \"--CODEGEN--\":3465:3477   */\n      revert\n        /* \"--CODEGEN--\":3424:3426   */\n    tag_275:\n        /* \"--CODEGEN--\":3505:3511   */\n      dup2\n        /* \"--CODEGEN--\":3499:3512   */\n      mload\n        /* \"--CODEGEN--\":3527:3588   */\n      tag_276\n        /* \"--CODEGEN--\":3542:3587   */\n      tag_277\n        /* \"--CODEGEN--\":3580:3586   */\n      dup3\n        /* \"--CODEGEN--\":3542:3587   */\n      jump(tag_278)\n    tag_277:\n        /* \"--CODEGEN--\":3527:3588   */\n      jump(tag_229)\n    tag_276:\n        /* \"--CODEGEN--\":3518:3588   */\n      swap2\n      pop\n        /* \"--CODEGEN--\":3608:3614   */\n      dup1\n        /* \"--CODEGEN--\":3601:3606   */\n      dup3\n        /* \"--CODEGEN--\":3594:3615   */\n      mstore\n        /* \"--CODEGEN--\":3644:3648   */\n      0x20\n        /* \"--CODEGEN--\":3636:3642   */\n      dup4\n        /* \"--CODEGEN--\":3632:3649   */\n      add\n        /* \"--CODEGEN--\":3677:3681   */\n      0x20\n        /* \"--CODEGEN--\":3670:3675   */\n      dup4\n        /* \"--CODEGEN--\":3666:3682   */\n      add\n        /* \"--CODEGEN--\":3712:3715   */\n      dup6\n        /* \"--CODEGEN--\":3703:3709   */\n      dup4\n        /* \"--CODEGEN--\":3698:3701   */\n      dup4\n        /* \"--CODEGEN--\":3694:3710   */\n      add\n        /* \"--CODEGEN--\":3691:3716   */\n      gt\n        /* \"--CODEGEN--\":3688:3690   */\n      iszero\n      tag_279\n      jumpi\n        /* \"--CODEGEN--\":3729:3730   */\n      0x0\n        /* \"--CODEGEN--\":3726:3727   */\n      dup1\n        /* \"--CODEGEN--\":3719:3731   */\n      revert\n        /* \"--CODEGEN--\":3688:3690   */\n    tag_279:\n        /* \"--CODEGEN--\":3739:3778   */\n      tag_280\n        /* \"--CODEGEN--\":3771:3777   */\n      dup4\n        /* \"--CODEGEN--\":3766:3769   */\n      dup3\n        /* \"--CODEGEN--\":3761:3764   */\n      dup5\n        /* \"--CODEGEN--\":3739:3778   */\n      jump(tag_281)\n    tag_280:\n        /* \"--CODEGEN--\":3417:3784   */\n      pop\n      pop\n      pop\n      swap3\n      swap2\n      pop\n      pop\n      jump\n        /* \"--CODEGEN--\":3793:4235   */\n    tag_283:\n      0x0\n        /* \"--CODEGEN--\":3895:3898   */\n      dup3\n        /* \"--CODEGEN--\":3888:3892   */\n      0x1f\n        /* \"--CODEGEN--\":3880:3886   */\n      dup4\n        /* \"--CODEGEN--\":3876:3893   */\n      add\n        /* \"--CODEGEN--\":3872:3899   */\n      slt\n        /* \"--CODEGEN--\":3865:3900   */\n      iszero\n        /* \"--CODEGEN--\":3862:3864   */\n      iszero\n      tag_284\n      jumpi\n        /* \"--CODEGEN--\":3913:3914   */\n      0x0\n        /* \"--CODEGEN--\":3910:3911   */\n      dup1\n        /* \"--CODEGEN--\":3903:3915   */\n      revert\n        /* \"--CODEGEN--\":3862:3864   */\n    tag_284:\n        /* \"--CODEGEN--\":3950:3956   */\n      dup2\n        /* \"--CODEGEN--\":3937:3957   */\n      calldataload\n        /* \"--CODEGEN--\":3972:4037   */\n      tag_285\n        /* \"--CODEGEN--\":3987:4036   */\n      tag_286\n        /* \"--CODEGEN--\":4029:4035   */\n      dup3\n        /* \"--CODEGEN--\":3987:4036   */\n      jump(tag_287)\n    tag_286:\n        /* \"--CODEGEN--\":3972:4037   */\n      jump(tag_229)\n    tag_285:\n        /* \"--CODEGEN--\":3963:4037   */\n      swap2\n      pop\n        /* \"--CODEGEN--\":4057:4063   */\n      dup1\n        /* \"--CODEGEN--\":4050:4055   */\n      dup3\n        /* \"--CODEGEN--\":4043:4064   */\n      mstore\n        /* \"--CODEGEN--\":4093:4097   */\n      0x20\n        /* \"--CODEGEN--\":4085:4091   */\n      dup4\n        /* \"--CODEGEN--\":4081:4098   */\n      add\n        /* \"--CODEGEN--\":4126:4130   */\n      0x20\n        /* \"--CODEGEN--\":4119:4124   */\n      dup4\n        /* \"--CODEGEN--\":4115:4131   */\n      add\n        /* \"--CODEGEN--\":4161:4164   */\n      dup6\n        /* \"--CODEGEN--\":4152:4158   */\n      dup4\n        /* \"--CODEGEN--\":4147:4150   */\n      dup4\n        /* \"--CODEGEN--\":4143:4159   */\n      add\n        /* \"--CODEGEN--\":4140:4165   */\n      gt\n        /* \"--CODEGEN--\":4137:4139   */\n      iszero\n      tag_288\n      jumpi\n        /* \"--CODEGEN--\":4178:4179   */\n      0x0\n        /* \"--CODEGEN--\":4175:4176   */\n      dup1\n        /* \"--CODEGEN--\":4168:4180   */\n      revert\n        /* \"--CODEGEN--\":4137:4139   */\n    tag_288:\n        /* \"--CODEGEN--\":4188:4229   */\n      tag_289\n        /* \"--CODEGEN--\":4222:4228   */\n      dup4\n        /* \"--CODEGEN--\":4217:4220   */\n      dup3\n        /* \"--CODEGEN--\":4212:4215   */\n      dup5\n        /* \"--CODEGEN--\":4188:4229   */\n      jump(tag_290)\n    tag_289:\n        /* \"--CODEGEN--\":3855:4235   */\n      pop\n      pop\n      pop\n      swap3\n      swap2\n      pop\n      pop\n      jump\n        /* \"--CODEGEN--\":4244:4688   */\n    tag_292:\n      0x0\n        /* \"--CODEGEN--\":4357:4360   */\n      dup3\n        /* \"--CODEGEN--\":4350:4354   */\n      0x1f\n        /* \"--CODEGEN--\":4342:4348   */\n      dup4\n        /* \"--CODEGEN--\":4338:4355   */\n      add\n        /* \"--CODEGEN--\":4334:4361   */\n      slt\n        /* \"--CODEGEN--\":4327:4362   */\n      iszero\n        /* \"--CODEGEN--\":4324:4326   */\n      iszero\n      tag_293\n      jumpi\n        /* \"--CODEGEN--\":4375:4376   */\n      0x0\n        /* \"--CODEGEN--\":4372:4373   */\n      dup1\n        /* \"--CODEGEN--\":4365:4377   */\n      revert\n        /* \"--CODEGEN--\":4324:4326   */\n    tag_293:\n        /* \"--CODEGEN--\":4405:4411   */\n      dup2\n        /* \"--CODEGEN--\":4399:4412   */\n      mload\n        /* \"--CODEGEN--\":4427:4492   */\n      tag_294\n        /* \"--CODEGEN--\":4442:4491   */\n      tag_295\n        /* \"--CODEGEN--\":4484:4490   */\n      dup3\n        /* \"--CODEGEN--\":4442:4491   */\n      jump(tag_287)\n    tag_295:\n        /* \"--CODEGEN--\":4427:4492   */\n      jump(tag_229)\n    tag_294:\n        /* \"--CODEGEN--\":4418:4492   */\n      swap2\n      pop\n        /* \"--CODEGEN--\":4512:4518   */\n      dup1\n        /* \"--CODEGEN--\":4505:4510   */\n      dup3\n        /* \"--CODEGEN--\":4498:4519   */\n      mstore\n        /* \"--CODEGEN--\":4548:4552   */\n      0x20\n        /* \"--CODEGEN--\":4540:4546   */\n      dup4\n        /* \"--CODEGEN--\":4536:4553   */\n      add\n        /* \"--CODEGEN--\":4581:4585   */\n      0x20\n        /* \"--CODEGEN--\":4574:4579   */\n      dup4\n        /* \"--CODEGEN--\":4570:4586   */\n      add\n        /* \"--CODEGEN--\":4616:4619   */\n      dup6\n        /* \"--CODEGEN--\":4607:4613   */\n      dup4\n        /* \"--CODEGEN--\":4602:4605   */\n      dup4\n        /* \"--CODEGEN--\":4598:4614   */\n      add\n        /* \"--CODEGEN--\":4595:4620   */\n      gt\n        /* \"--CODEGEN--\":4592:4594   */\n      iszero\n      tag_296\n      jumpi\n        /* \"--CODEGEN--\":4633:4634   */\n      0x0\n        /* \"--CODEGEN--\":4630:4631   */\n      dup1\n        /* \"--CODEGEN--\":4623:4635   */\n      revert\n        /* \"--CODEGEN--\":4592:4594   */\n    tag_296:\n        /* \"--CODEGEN--\":4643:4682   */\n      tag_297\n        /* \"--CODEGEN--\":4675:4681   */\n      dup4\n        /* \"--CODEGEN--\":4670:4673   */\n      dup3\n        /* \"--CODEGEN--\":4665:4668   */\n      dup5\n        /* \"--CODEGEN--\":4643:4682   */\n      jump(tag_281)\n    tag_297:\n        /* \"--CODEGEN--\":4317:4688   */\n      pop\n      pop\n      pop\n      swap3\n      swap2\n      pop\n      pop\n      jump\n        /* \"--CODEGEN--\":4696:4814   */\n    tag_299:\n      0x0\n        /* \"--CODEGEN--\":4763:4809   */\n      tag_300\n        /* \"--CODEGEN--\":4801:4807   */\n      dup3\n        /* \"--CODEGEN--\":4788:4808   */\n      calldataload\n        /* \"--CODEGEN--\":4763:4809   */\n      jump(tag_301)\n    tag_300:\n        /* \"--CODEGEN--\":4754:4809   */\n      swap1\n      pop\n        /* \"--CODEGEN--\":4748:4814   */\n      swap3\n      swap2\n      pop\n      pop\n      jump\n        /* \"--CODEGEN--\":4821:4943   */\n    tag_257:\n      0x0\n        /* \"--CODEGEN--\":4899:4938   */\n      tag_303\n        /* \"--CODEGEN--\":4930:4936   */\n      dup3\n        /* \"--CODEGEN--\":4924:4937   */\n      mload\n        /* \"--CODEGEN--\":4899:4938   */\n      jump(tag_301)\n    tag_303:\n        /* \"--CODEGEN--\":4890:4938   */\n      swap1\n      pop\n        /* \"--CODEGEN--\":4884:4943   */\n      swap3\n      swap2\n      pop\n      pop\n      jump\n        /* \"--CODEGEN--\":4950:5064   */\n    tag_305:\n      0x0\n        /* \"--CODEGEN--\":5015:5059   */\n      tag_306\n        /* \"--CODEGEN--\":5051:5057   */\n      dup3\n        /* \"--CODEGEN--\":5038:5058   */\n      calldataload\n        /* \"--CODEGEN--\":5015:5059   */\n      jump(tag_307)\n    tag_306:\n        /* \"--CODEGEN--\":5006:5059   */\n      swap1\n      pop\n        /* \"--CODEGEN--\":5000:5064   */\n      swap3\n      swap2\n      pop\n      pop\n      jump\n        /* \"--CODEGEN--\":5071:5189   */\n    tag_269:\n      0x0\n        /* \"--CODEGEN--\":5147:5184   */\n      tag_309\n        /* \"--CODEGEN--\":5176:5182   */\n      dup3\n        /* \"--CODEGEN--\":5170:5183   */\n      mload\n        /* \"--CODEGEN--\":5147:5184   */\n      jump(tag_307)\n    tag_309:\n        /* \"--CODEGEN--\":5138:5184   */\n      swap1\n      pop\n        /* \"--CODEGEN--\":5132:5189   */\n      swap3\n      swap2\n      pop\n      pop\n      jump\n        /* \"--CODEGEN--\":5196:5437   */\n    tag_27:\n      0x0\n        /* \"--CODEGEN--\":5300:5302   */\n      0x20\n        /* \"--CODEGEN--\":5288:5297   */\n      dup3\n        /* \"--CODEGEN--\":5279:5286   */\n      dup5\n        /* \"--CODEGEN--\":5275:5298   */\n      sub\n        /* \"--CODEGEN--\":5271:5303   */\n      slt\n        /* \"--CODEGEN--\":5268:5270   */\n      iszero\n      tag_311\n      jumpi\n        /* \"--CODEGEN--\":5316:5317   */\n      0x0\n        /* \"--CODEGEN--\":5313:5314   */\n      dup1\n        /* \"--CODEGEN--\":5306:5318   */\n      revert\n        /* \"--CODEGEN--\":5268:5270   */\n    tag_311:\n        /* \"--CODEGEN--\":5351:5352   */\n      0x0\n        /* \"--CODEGEN--\":5368:5421   */\n      tag_312\n        /* \"--CODEGEN--\":5413:5420   */\n      dup5\n        /* \"--CODEGEN--\":5404:5410   */\n      dup3\n        /* \"--CODEGEN--\":5393:5402   */\n      dup6\n        /* \"--CODEGEN--\":5389:5411   */\n      add\n        /* \"--CODEGEN--\":5368:5421   */\n      jump(tag_217)\n    tag_312:\n        /* \"--CODEGEN--\":5358:5421   */\n      swap2\n      pop\n        /* \"--CODEGEN--\":5330:5427   */\n      pop\n        /* \"--CODEGEN--\":5262:5437   */\n      swap3\n      swap2\n      pop\n      pop\n      jump\n        /* \"--CODEGEN--\":5444:6640   */\n    tag_170:\n      0x0\n      dup1\n      0x0\n      dup1\n        /* \"--CODEGEN--\":5714:5717   */\n      0x80\n        /* \"--CODEGEN--\":5702:5711   */\n      dup6\n        /* \"--CODEGEN--\":5693:5700   */\n      dup8\n        /* \"--CODEGEN--\":5689:5712   */\n      sub\n        /* \"--CODEGEN--\":5685:5718   */\n      slt\n        /* \"--CODEGEN--\":5682:5684   */\n      iszero\n      tag_314\n      jumpi\n        /* \"--CODEGEN--\":5731:5732   */\n      0x0\n        /* \"--CODEGEN--\":5728:5729   */\n      dup1\n        /* \"--CODEGEN--\":5721:5733   */\n      revert\n        /* \"--CODEGEN--\":5682:5684   */\n    tag_314:\n        /* \"--CODEGEN--\":5787:5788   */\n      0x0\n        /* \"--CODEGEN--\":5776:5785   */\n      dup6\n        /* \"--CODEGEN--\":5772:5789   */\n      add\n        /* \"--CODEGEN--\":5766:5790   */\n      mload\n        /* \"--CODEGEN--\":5810:5828   */\n      0xffffffffffffffff\n        /* \"--CODEGEN--\":5802:5808   */\n      dup2\n        /* \"--CODEGEN--\":5799:5829   */\n      gt\n        /* \"--CODEGEN--\":5796:5798   */\n      iszero\n      tag_315\n      jumpi\n        /* \"--CODEGEN--\":5842:5843   */\n      0x0\n        /* \"--CODEGEN--\":5839:5840   */\n      dup1\n        /* \"--CODEGEN--\":5832:5844   */\n      revert\n        /* \"--CODEGEN--\":5796:5798   */\n    tag_315:\n        /* \"--CODEGEN--\":5862:5951   */\n      tag_316\n        /* \"--CODEGEN--\":5943:5950   */\n      dup8\n        /* \"--CODEGEN--\":5934:5940   */\n      dup3\n        /* \"--CODEGEN--\":5923:5932   */\n      dup9\n        /* \"--CODEGEN--\":5919:5941   */\n      add\n        /* \"--CODEGEN--\":5862:5951   */\n      jump(tag_247)\n    tag_316:\n        /* \"--CODEGEN--\":5852:5951   */\n      swap5\n      pop\n        /* \"--CODEGEN--\":5745:5957   */\n      pop\n        /* \"--CODEGEN--\":6009:6011   */\n      0x20\n        /* \"--CODEGEN--\":5998:6007   */\n      dup6\n        /* \"--CODEGEN--\":5994:6012   */\n      add\n        /* \"--CODEGEN--\":5988:6013   */\n      mload\n        /* \"--CODEGEN--\":6033:6051   */\n      0xffffffffffffffff\n        /* \"--CODEGEN--\":6025:6031   */\n      dup2\n        /* \"--CODEGEN--\":6022:6052   */\n      gt\n        /* \"--CODEGEN--\":6019:6021   */\n      iszero\n      tag_317\n      jumpi\n        /* \"--CODEGEN--\":6065:6066   */\n      0x0\n        /* \"--CODEGEN--\":6062:6063   */\n      dup1\n        /* \"--CODEGEN--\":6055:6067   */\n      revert\n        /* \"--CODEGEN--\":6019:6021   */\n    tag_317:\n        /* \"--CODEGEN--\":6085:6180   */\n      tag_318\n        /* \"--CODEGEN--\":6172:6179   */\n      dup8\n        /* \"--CODEGEN--\":6163:6169   */\n      dup3\n        /* \"--CODEGEN--\":6152:6161   */\n      dup9\n        /* \"--CODEGEN--\":6148:6170   */\n      add\n        /* \"--CODEGEN--\":6085:6180   */\n      jump(tag_236)\n    tag_318:\n        /* \"--CODEGEN--\":6075:6180   */\n      swap4\n      pop\n        /* \"--CODEGEN--\":5967:6186   */\n      pop\n        /* \"--CODEGEN--\":6238:6240   */\n      0x40\n        /* \"--CODEGEN--\":6227:6236   */\n      dup6\n        /* \"--CODEGEN--\":6223:6241   */\n      add\n        /* \"--CODEGEN--\":6217:6242   */\n      mload\n        /* \"--CODEGEN--\":6262:6280   */\n      0xffffffffffffffff\n        /* \"--CODEGEN--\":6254:6260   */\n      dup2\n        /* \"--CODEGEN--\":6251:6281   */\n      gt\n        /* \"--CODEGEN--\":6248:6250   */\n      iszero\n      tag_319\n      jumpi\n        /* \"--CODEGEN--\":6294:6295   */\n      0x0\n        /* \"--CODEGEN--\":6291:6292   */\n      dup1\n        /* \"--CODEGEN--\":6284:6296   */\n      revert\n        /* \"--CODEGEN--\":6248:6250   */\n    tag_319:\n        /* \"--CODEGEN--\":6314:6403   */\n      tag_320\n        /* \"--CODEGEN--\":6395:6402   */\n      dup8\n        /* \"--CODEGEN--\":6386:6392   */\n      dup3\n        /* \"--CODEGEN--\":6375:6384   */\n      dup9\n        /* \"--CODEGEN--\":6371:6393   */\n      add\n        /* \"--CODEGEN--\":6314:6403   */\n      jump(tag_224)\n    tag_320:\n        /* \"--CODEGEN--\":6304:6403   */\n      swap3\n      pop\n        /* \"--CODEGEN--\":6196:6409   */\n      pop\n        /* \"--CODEGEN--\":6461:6463   */\n      0x60\n        /* \"--CODEGEN--\":6450:6459   */\n      dup6\n        /* \"--CODEGEN--\":6446:6464   */\n      add\n        /* \"--CODEGEN--\":6440:6465   */\n      mload\n        /* \"--CODEGEN--\":6485:6503   */\n      0xffffffffffffffff\n        /* \"--CODEGEN--\":6477:6483   */\n      dup2\n        /* \"--CODEGEN--\":6474:6504   */\n      gt\n        /* \"--CODEGEN--\":6471:6473   */\n      iszero\n      tag_321\n      jumpi\n        /* \"--CODEGEN--\":6517:6518   */\n      0x0\n        /* \"--CODEGEN--\":6514:6515   */\n      dup1\n        /* \"--CODEGEN--\":6507:6519   */\n      revert\n        /* \"--CODEGEN--\":6471:6473   */\n    tag_321:\n        /* \"--CODEGEN--\":6537:6624   */\n      tag_322\n        /* \"--CODEGEN--\":6616:6623   */\n      dup8\n        /* \"--CODEGEN--\":6607:6613   */\n      dup3\n        /* \"--CODEGEN--\":6596:6605   */\n      dup9\n        /* \"--CODEGEN--\":6592:6614   */\n      add\n        /* \"--CODEGEN--\":6537:6624   */\n      jump(tag_259)\n    tag_322:\n        /* \"--CODEGEN--\":6527:6624   */\n      swap2\n      pop\n        /* \"--CODEGEN--\":6419:6630   */\n      pop\n        /* \"--CODEGEN--\":5676:6640   */\n      swap3\n      swap6\n      swap2\n      swap5\n      pop\n      swap3\n      pop\n      jump\n        /* \"--CODEGEN--\":6647:6904   */\n    tag_121:\n      0x0\n        /* \"--CODEGEN--\":6759:6761   */\n      0x20\n        /* \"--CODEGEN--\":6747:6756   */\n      dup3\n        /* \"--CODEGEN--\":6738:6745   */\n      dup5\n        /* \"--CODEGEN--\":6734:6757   */\n      sub\n        /* \"--CODEGEN--\":6730:6762   */\n      slt\n        /* \"--CODEGEN--\":6727:6729   */\n      iszero\n      tag_324\n      jumpi\n        /* \"--CODEGEN--\":6775:6776   */\n      0x0\n        /* \"--CODEGEN--\":6772:6773   */\n      dup1\n        /* \"--CODEGEN--\":6765:6777   */\n      revert\n        /* \"--CODEGEN--\":6727:6729   */\n    tag_324:\n        /* \"--CODEGEN--\":6810:6811   */\n      0x0\n        /* \"--CODEGEN--\":6827:6888   */\n      tag_325\n        /* \"--CODEGEN--\":6880:6887   */\n      dup5\n        /* \"--CODEGEN--\":6871:6877   */\n      dup3\n        /* \"--CODEGEN--\":6860:6869   */\n      dup6\n        /* \"--CODEGEN--\":6856:6878   */\n      add\n        /* \"--CODEGEN--\":6827:6888   */\n      jump(tag_271)\n    tag_325:\n        /* \"--CODEGEN--\":6817:6888   */\n      swap2\n      pop\n        /* \"--CODEGEN--\":6789:6894   */\n      pop\n        /* \"--CODEGEN--\":6721:6904   */\n      swap3\n      swap2\n      pop\n      pop\n      jump\n        /* \"--CODEGEN--\":6911:7736   */\n    tag_87:\n      0x0\n      dup1\n      0x0\n      dup1\n        /* \"--CODEGEN--\":7084:7087   */\n      0x80\n        /* \"--CODEGEN--\":7072:7081   */\n      dup6\n        /* \"--CODEGEN--\":7063:7070   */\n      dup8\n        /* \"--CODEGEN--\":7059:7082   */\n      sub\n        /* \"--CODEGEN--\":7055:7088   */\n      slt\n        /* \"--CODEGEN--\":7052:7054   */\n      iszero\n      tag_327\n      jumpi\n        /* \"--CODEGEN--\":7101:7102   */\n      0x0\n        /* \"--CODEGEN--\":7098:7099   */\n      dup1\n        /* \"--CODEGEN--\":7091:7103   */\n      revert\n        /* \"--CODEGEN--\":7052:7054   */\n    tag_327:\n        /* \"--CODEGEN--\":7164:7165   */\n      0x0\n        /* \"--CODEGEN--\":7153:7162   */\n      dup6\n        /* \"--CODEGEN--\":7149:7166   */\n      add\n        /* \"--CODEGEN--\":7136:7167   */\n      calldataload\n        /* \"--CODEGEN--\":7187:7205   */\n      0xffffffffffffffff\n        /* \"--CODEGEN--\":7179:7185   */\n      dup2\n        /* \"--CODEGEN--\":7176:7206   */\n      gt\n        /* \"--CODEGEN--\":7173:7175   */\n      iszero\n      tag_328\n      jumpi\n        /* \"--CODEGEN--\":7219:7220   */\n      0x0\n        /* \"--CODEGEN--\":7216:7217   */\n      dup1\n        /* \"--CODEGEN--\":7209:7221   */\n      revert\n        /* \"--CODEGEN--\":7173:7175   */\n    tag_328:\n        /* \"--CODEGEN--\":7239:7302   */\n      tag_329\n        /* \"--CODEGEN--\":7294:7301   */\n      dup8\n        /* \"--CODEGEN--\":7285:7291   */\n      dup3\n        /* \"--CODEGEN--\":7274:7283   */\n      dup9\n        /* \"--CODEGEN--\":7270:7292   */\n      add\n        /* \"--CODEGEN--\":7239:7302   */\n      jump(tag_283)\n    tag_329:\n        /* \"--CODEGEN--\":7229:7302   */\n      swap5\n      pop\n        /* \"--CODEGEN--\":7115:7308   */\n      pop\n        /* \"--CODEGEN--\":7339:7341   */\n      0x20\n        /* \"--CODEGEN--\":7357:7410   */\n      tag_330\n        /* \"--CODEGEN--\":7402:7409   */\n      dup8\n        /* \"--CODEGEN--\":7393:7399   */\n      dup3\n        /* \"--CODEGEN--\":7382:7391   */\n      dup9\n        /* \"--CODEGEN--\":7378:7400   */\n      add\n        /* \"--CODEGEN--\":7357:7410   */\n      jump(tag_299)\n    tag_330:\n        /* \"--CODEGEN--\":7347:7410   */\n      swap4\n      pop\n        /* \"--CODEGEN--\":7318:7416   */\n      pop\n        /* \"--CODEGEN--\":7475:7477   */\n      0x40\n        /* \"--CODEGEN--\":7464:7473   */\n      dup6\n        /* \"--CODEGEN--\":7460:7478   */\n      add\n        /* \"--CODEGEN--\":7447:7479   */\n      calldataload\n        /* \"--CODEGEN--\":7499:7517   */\n      0xffffffffffffffff\n        /* \"--CODEGEN--\":7491:7497   */\n      dup2\n        /* \"--CODEGEN--\":7488:7518   */\n      gt\n        /* \"--CODEGEN--\":7485:7487   */\n      iszero\n      tag_331\n      jumpi\n        /* \"--CODEGEN--\":7531:7532   */\n      0x0\n        /* \"--CODEGEN--\":7528:7529   */\n      dup1\n        /* \"--CODEGEN--\":7521:7533   */\n      revert\n        /* \"--CODEGEN--\":7485:7487   */\n    tag_331:\n        /* \"--CODEGEN--\":7551:7614   */\n      tag_332\n        /* \"--CODEGEN--\":7606:7613   */\n      dup8\n        /* \"--CODEGEN--\":7597:7603   */\n      dup3\n        /* \"--CODEGEN--\":7586:7595   */\n      dup9\n        /* \"--CODEGEN--\":7582:7604   */\n      add\n        /* \"--CODEGEN--\":7551:7614   */\n      jump(tag_283)\n    tag_332:\n        /* \"--CODEGEN--\":7541:7614   */\n      swap3\n      pop\n        /* \"--CODEGEN--\":7426:7620   */\n      pop\n        /* \"--CODEGEN--\":7651:7653   */\n      0x60\n        /* \"--CODEGEN--\":7669:7720   */\n      tag_333\n        /* \"--CODEGEN--\":7712:7719   */\n      dup8\n        /* \"--CODEGEN--\":7703:7709   */\n      dup3\n        /* \"--CODEGEN--\":7692:7701   */\n      dup9\n        /* \"--CODEGEN--\":7688:7710   */\n      add\n        /* \"--CODEGEN--\":7669:7720   */\n      jump(tag_305)\n    tag_333:\n        /* \"--CODEGEN--\":7659:7720   */\n      swap2\n      pop\n        /* \"--CODEGEN--\":7630:7726   */\n      pop\n        /* \"--CODEGEN--\":7046:7736   */\n      swap3\n      swap6\n      swap2\n      swap5\n      pop\n      swap3\n      pop\n      jump\n        /* \"--CODEGEN--\":7743:7984   */\n    tag_20:\n      0x0\n        /* \"--CODEGEN--\":7847:7849   */\n      0x20\n        /* \"--CODEGEN--\":7835:7844   */\n      dup3\n        /* \"--CODEGEN--\":7826:7833   */\n      dup5\n        /* \"--CODEGEN--\":7822:7845   */\n      sub\n        /* \"--CODEGEN--\":7818:7850   */\n      slt\n        /* \"--CODEGEN--\":7815:7817   */\n      iszero\n      tag_335\n      jumpi\n        /* \"--CODEGEN--\":7863:7864   */\n      0x0\n        /* \"--CODEGEN--\":7860:7861   */\n      dup1\n        /* \"--CODEGEN--\":7853:7865   */\n      revert\n        /* \"--CODEGEN--\":7815:7817   */\n    tag_335:\n        /* \"--CODEGEN--\":7898:7899   */\n      0x0\n        /* \"--CODEGEN--\":7915:7968   */\n      tag_336\n        /* \"--CODEGEN--\":7960:7967   */\n      dup5\n        /* \"--CODEGEN--\":7951:7957   */\n      dup3\n        /* \"--CODEGEN--\":7940:7949   */\n      dup6\n        /* \"--CODEGEN--\":7936:7958   */\n      add\n        /* \"--CODEGEN--\":7915:7968   */\n      jump(tag_299)\n    tag_336:\n        /* \"--CODEGEN--\":7905:7968   */\n      swap2\n      pop\n        /* \"--CODEGEN--\":7877:7974   */\n      pop\n        /* \"--CODEGEN--\":7809:7984   */\n      swap3\n      swap2\n      pop\n      pop\n      jump\n        /* \"--CODEGEN--\":7991:9230   */\n    tag_98:\n      0x0\n      dup1\n      0x0\n      dup1\n      0x0\n      dup1\n        /* \"--CODEGEN--\":8219:8222   */\n      0xc0\n        /* \"--CODEGEN--\":8207:8216   */\n      dup8\n        /* \"--CODEGEN--\":8198:8205   */\n      dup10\n        /* \"--CODEGEN--\":8194:8217   */\n      sub\n        /* \"--CODEGEN--\":8190:8223   */\n      slt\n        /* \"--CODEGEN--\":8187:8189   */\n      iszero\n      tag_338\n      jumpi\n        /* \"--CODEGEN--\":8236:8237   */\n      0x0\n        /* \"--CODEGEN--\":8233:8234   */\n      dup1\n        /* \"--CODEGEN--\":8226:8238   */\n      revert\n        /* \"--CODEGEN--\":8187:8189   */\n    tag_338:\n        /* \"--CODEGEN--\":8271:8272   */\n      0x0\n        /* \"--CODEGEN--\":8288:8352   */\n      tag_339\n        /* \"--CODEGEN--\":8344:8351   */\n      dup10\n        /* \"--CODEGEN--\":8335:8341   */\n      dup3\n        /* \"--CODEGEN--\":8324:8333   */\n      dup11\n        /* \"--CODEGEN--\":8320:8342   */\n      add\n        /* \"--CODEGEN--\":8288:8352   */\n      jump(tag_257)\n    tag_339:\n        /* \"--CODEGEN--\":8278:8352   */\n      swap7\n      pop\n        /* \"--CODEGEN--\":8250:8358   */\n      pop\n        /* \"--CODEGEN--\":8410:8412   */\n      0x20\n        /* \"--CODEGEN--\":8399:8408   */\n      dup8\n        /* \"--CODEGEN--\":8395:8413   */\n      add\n        /* \"--CODEGEN--\":8389:8414   */\n      mload\n        /* \"--CODEGEN--\":8434:8452   */\n      0xffffffffffffffff\n        /* \"--CODEGEN--\":8426:8432   */\n      dup2\n        /* \"--CODEGEN--\":8423:8453   */\n      gt\n        /* \"--CODEGEN--\":8420:8422   */\n      iszero\n      tag_340\n      jumpi\n        /* \"--CODEGEN--\":8466:8467   */\n      0x0\n        /* \"--CODEGEN--\":8463:8464   */\n      dup1\n        /* \"--CODEGEN--\":8456:8468   */\n      revert\n        /* \"--CODEGEN--\":8420:8422   */\n    tag_340:\n        /* \"--CODEGEN--\":8486:8560   */\n      tag_341\n        /* \"--CODEGEN--\":8552:8559   */\n      dup10\n        /* \"--CODEGEN--\":8543:8549   */\n      dup3\n        /* \"--CODEGEN--\":8532:8541   */\n      dup11\n        /* \"--CODEGEN--\":8528:8550   */\n      add\n        /* \"--CODEGEN--\":8486:8560   */\n      jump(tag_292)\n    tag_341:\n        /* \"--CODEGEN--\":8476:8560   */\n      swap6\n      pop\n        /* \"--CODEGEN--\":8368:8566   */\n      pop\n        /* \"--CODEGEN--\":8618:8620   */\n      0x40\n        /* \"--CODEGEN--\":8607:8616   */\n      dup8\n        /* \"--CODEGEN--\":8603:8621   */\n      add\n        /* \"--CODEGEN--\":8597:8622   */\n      mload\n        /* \"--CODEGEN--\":8642:8660   */\n      0xffffffffffffffff\n        /* \"--CODEGEN--\":8634:8640   */\n      dup2\n        /* \"--CODEGEN--\":8631:8661   */\n      gt\n        /* \"--CODEGEN--\":8628:8630   */\n      iszero\n      tag_342\n      jumpi\n        /* \"--CODEGEN--\":8674:8675   */\n      0x0\n        /* \"--CODEGEN--\":8671:8672   */\n      dup1\n        /* \"--CODEGEN--\":8664:8676   */\n      revert\n        /* \"--CODEGEN--\":8628:8630   */\n    tag_342:\n        /* \"--CODEGEN--\":8694:8768   */\n      tag_343\n        /* \"--CODEGEN--\":8760:8767   */\n      dup10\n        /* \"--CODEGEN--\":8751:8757   */\n      dup3\n        /* \"--CODEGEN--\":8740:8749   */\n      dup11\n        /* \"--CODEGEN--\":8736:8758   */\n      add\n        /* \"--CODEGEN--\":8694:8768   */\n      jump(tag_292)\n    tag_343:\n        /* \"--CODEGEN--\":8684:8768   */\n      swap5\n      pop\n        /* \"--CODEGEN--\":8576:8774   */\n      pop\n        /* \"--CODEGEN--\":8826:8828   */\n      0x60\n        /* \"--CODEGEN--\":8815:8824   */\n      dup8\n        /* \"--CODEGEN--\":8811:8829   */\n      add\n        /* \"--CODEGEN--\":8805:8830   */\n      mload\n        /* \"--CODEGEN--\":8850:8868   */\n      0xffffffffffffffff\n        /* \"--CODEGEN--\":8842:8848   */\n      dup2\n        /* \"--CODEGEN--\":8839:8869   */\n      gt\n        /* \"--CODEGEN--\":8836:8838   */\n      iszero\n      tag_344\n      jumpi\n        /* \"--CODEGEN--\":8882:8883   */\n      0x0\n        /* \"--CODEGEN--\":8879:8880   */\n      dup1\n        /* \"--CODEGEN--\":8872:8884   */\n      revert\n        /* \"--CODEGEN--\":8836:8838   */\n    tag_344:\n        /* \"--CODEGEN--\":8902:8976   */\n      tag_345\n        /* \"--CODEGEN--\":8968:8975   */\n      dup10\n        /* \"--CODEGEN--\":8959:8965   */\n      dup3\n        /* \"--CODEGEN--\":8948:8957   */\n      dup11\n        /* \"--CODEGEN--\":8944:8966   */\n      add\n        /* \"--CODEGEN--\":8902:8976   */\n      jump(tag_292)\n    tag_345:\n        /* \"--CODEGEN--\":8892:8976   */\n      swap4\n      pop\n        /* \"--CODEGEN--\":8784:8982   */\n      pop\n        /* \"--CODEGEN--\":9013:9016   */\n      0x80\n        /* \"--CODEGEN--\":9032:9096   */\n      tag_346\n        /* \"--CODEGEN--\":9088:9095   */\n      dup10\n        /* \"--CODEGEN--\":9079:9085   */\n      dup3\n        /* \"--CODEGEN--\":9068:9077   */\n      dup11\n        /* \"--CODEGEN--\":9064:9086   */\n      add\n        /* \"--CODEGEN--\":9032:9096   */\n      jump(tag_221)\n    tag_346:\n        /* \"--CODEGEN--\":9022:9096   */\n      swap3\n      pop\n        /* \"--CODEGEN--\":8992:9102   */\n      pop\n        /* \"--CODEGEN--\":9133:9136   */\n      0xa0\n        /* \"--CODEGEN--\":9152:9214   */\n      tag_347\n        /* \"--CODEGEN--\":9206:9213   */\n      dup10\n        /* \"--CODEGEN--\":9197:9203   */\n      dup3\n        /* \"--CODEGEN--\":9186:9195   */\n      dup11\n        /* \"--CODEGEN--\":9182:9204   */\n      add\n        /* \"--CODEGEN--\":9152:9214   */\n      jump(tag_269)\n    tag_347:\n        /* \"--CODEGEN--\":9142:9214   */\n      swap2\n      pop\n        /* \"--CODEGEN--\":9112:9220   */\n      pop\n        /* \"--CODEGEN--\":8181:9230   */\n      swap3\n      swap6\n      pop\n      swap3\n      swap6\n      pop\n      swap3\n      swap6\n      jump\n        /* \"--CODEGEN--\":9237:9830   */\n    tag_32:\n      0x0\n      dup1\n      0x0\n        /* \"--CODEGEN--\":9383:9385   */\n      0x60\n        /* \"--CODEGEN--\":9371:9380   */\n      dup5\n        /* \"--CODEGEN--\":9362:9369   */\n      dup7\n        /* \"--CODEGEN--\":9358:9381   */\n      sub\n        /* \"--CODEGEN--\":9354:9386   */\n      slt\n        /* \"--CODEGEN--\":9351:9353   */\n      iszero\n      tag_349\n      jumpi\n        /* \"--CODEGEN--\":9399:9400   */\n      0x0\n        /* \"--CODEGEN--\":9396:9397   */\n      dup1\n        /* \"--CODEGEN--\":9389:9401   */\n      revert\n        /* \"--CODEGEN--\":9351:9353   */\n    tag_349:\n        /* \"--CODEGEN--\":9434:9435   */\n      0x0\n        /* \"--CODEGEN--\":9451:9504   */\n      tag_350\n        /* \"--CODEGEN--\":9496:9503   */\n      dup7\n        /* \"--CODEGEN--\":9487:9493   */\n      dup3\n        /* \"--CODEGEN--\":9476:9485   */\n      dup8\n        /* \"--CODEGEN--\":9472:9494   */\n      add\n        /* \"--CODEGEN--\":9451:9504   */\n      jump(tag_299)\n    tag_350:\n        /* \"--CODEGEN--\":9441:9504   */\n      swap4\n      pop\n        /* \"--CODEGEN--\":9413:9510   */\n      pop\n        /* \"--CODEGEN--\":9569:9571   */\n      0x20\n        /* \"--CODEGEN--\":9558:9567   */\n      dup5\n        /* \"--CODEGEN--\":9554:9572   */\n      add\n        /* \"--CODEGEN--\":9541:9573   */\n      calldataload\n        /* \"--CODEGEN--\":9593:9611   */\n      0xffffffffffffffff\n        /* \"--CODEGEN--\":9585:9591   */\n      dup2\n        /* \"--CODEGEN--\":9582:9612   */\n      gt\n        /* \"--CODEGEN--\":9579:9581   */\n      iszero\n      tag_351\n      jumpi\n        /* \"--CODEGEN--\":9625:9626   */\n      0x0\n        /* \"--CODEGEN--\":9622:9623   */\n      dup1\n        /* \"--CODEGEN--\":9615:9627   */\n      revert\n        /* \"--CODEGEN--\":9579:9581   */\n    tag_351:\n        /* \"--CODEGEN--\":9645:9708   */\n      tag_352\n        /* \"--CODEGEN--\":9700:9707   */\n      dup7\n        /* \"--CODEGEN--\":9691:9697   */\n      dup3\n        /* \"--CODEGEN--\":9680:9689   */\n      dup8\n        /* \"--CODEGEN--\":9676:9698   */\n      add\n        /* \"--CODEGEN--\":9645:9708   */\n      jump(tag_283)\n    tag_352:\n        /* \"--CODEGEN--\":9635:9708   */\n      swap3\n      pop\n        /* \"--CODEGEN--\":9520:9714   */\n      pop\n        /* \"--CODEGEN--\":9745:9747   */\n      0x40\n        /* \"--CODEGEN--\":9763:9814   */\n      tag_353\n        /* \"--CODEGEN--\":9806:9813   */\n      dup7\n        /* \"--CODEGEN--\":9797:9803   */\n      dup3\n        /* \"--CODEGEN--\":9786:9795   */\n      dup8\n        /* \"--CODEGEN--\":9782:9804   */\n      add\n        /* \"--CODEGEN--\":9763:9814   */\n      jump(tag_305)\n    tag_353:\n        /* \"--CODEGEN--\":9753:9814   */\n      swap2\n      pop\n        /* \"--CODEGEN--\":9724:9820   */\n      pop\n        /* \"--CODEGEN--\":9345:9830   */\n      swap3\n      pop\n      swap3\n      pop\n      swap3\n      jump\n        /* \"--CODEGEN--\":9837:9947   */\n    tag_355:\n        /* \"--CODEGEN--\":9910:9941   */\n      tag_356\n        /* \"--CODEGEN--\":9935:9940   */\n      dup2\n        /* \"--CODEGEN--\":9910:9941   */\n      jump(tag_357)\n    tag_356:\n        /* \"--CODEGEN--\":9905:9908   */\n      dup3\n        /* \"--CODEGEN--\":9898:9942   */\n      mstore\n        /* \"--CODEGEN--\":9892:9947   */\n      pop\n      pop\n      jump\n        /* \"--CODEGEN--\":9985:10575   */\n    tag_359:\n      0x0\n        /* \"--CODEGEN--\":10120:10174   */\n      tag_360\n        /* \"--CODEGEN--\":10168:10173   */\n      dup3\n        /* \"--CODEGEN--\":10120:10174   */\n      jump(tag_361)\n    tag_360:\n        /* \"--CODEGEN--\":10192:10198   */\n      dup1\n        /* \"--CODEGEN--\":10187:10190   */\n      dup5\n        /* \"--CODEGEN--\":10180:10199   */\n      mstore\n        /* \"--CODEGEN--\":10216:10220   */\n      0x20\n        /* \"--CODEGEN--\":10211:10214   */\n      dup5\n        /* \"--CODEGEN--\":10207:10221   */\n      add\n        /* \"--CODEGEN--\":10200:10221   */\n      swap4\n      pop\n        /* \"--CODEGEN--\":10261:10317   */\n      tag_362\n        /* \"--CODEGEN--\":10311:10316   */\n      dup4\n        /* \"--CODEGEN--\":10261:10317   */\n      jump(tag_363)\n    tag_362:\n        /* \"--CODEGEN--\":10338:10339   */\n      0x0\n        /* \"--CODEGEN--\":10323:10553   */\n    tag_364:\n        /* \"--CODEGEN--\":10348:10354   */\n      dup3\n        /* \"--CODEGEN--\":10345:10346   */\n      dup2\n        /* \"--CODEGEN--\":10342:10355   */\n      lt\n        /* \"--CODEGEN--\":10323:10553   */\n      iszero\n      tag_365\n      jumpi\n        /* \"--CODEGEN--\":10388:10441   */\n      tag_367\n        /* \"--CODEGEN--\":10437:10440   */\n      dup7\n        /* \"--CODEGEN--\":10428:10434   */\n      dup4\n        /* \"--CODEGEN--\":10422:10435   */\n      mload\n        /* \"--CODEGEN--\":10388:10441   */\n      jump(tag_355)\n    tag_367:\n        /* \"--CODEGEN--\":10458:10518   */\n      tag_368\n        /* \"--CODEGEN--\":10511:10517   */\n      dup3\n        /* \"--CODEGEN--\":10458:10518   */\n      jump(tag_369)\n    tag_368:\n        /* \"--CODEGEN--\":10448:10518   */\n      swap2\n      pop\n        /* \"--CODEGEN--\":10541:10545   */\n      0x20\n        /* \"--CODEGEN--\":10536:10539   */\n      dup7\n        /* \"--CODEGEN--\":10532:10546   */\n      add\n        /* \"--CODEGEN--\":10525:10546   */\n      swap6\n      pop\n        /* \"--CODEGEN--\":10370:10371   */\n      0x1\n        /* \"--CODEGEN--\":10367:10368   */\n      dup2\n        /* \"--CODEGEN--\":10363:10372   */\n      add\n        /* \"--CODEGEN--\":10358:10372   */\n      swap1\n      pop\n        /* \"--CODEGEN--\":10323:10553   */\n      jump(tag_364)\n    tag_365:\n        /* \"--CODEGEN--\":10327:10341   */\n      pop\n        /* \"--CODEGEN--\":10566:10569   */\n      dup5\n        /* \"--CODEGEN--\":10559:10569   */\n      swap3\n      pop\n        /* \"--CODEGEN--\":10099:10575   */\n      pop\n      pop\n      swap3\n      swap2\n      pop\n      pop\n      jump\n        /* \"--CODEGEN--\":10612:11385   */\n    tag_371:\n      0x0\n        /* \"--CODEGEN--\":10759:10819   */\n      tag_372\n        /* \"--CODEGEN--\":10813:10818   */\n      dup3\n        /* \"--CODEGEN--\":10759:10819   */\n      jump(tag_373)\n    tag_372:\n        /* \"--CODEGEN--\":10837:10843   */\n      dup1\n        /* \"--CODEGEN--\":10832:10835   */\n      dup5\n        /* \"--CODEGEN--\":10825:10844   */\n      mstore\n        /* \"--CODEGEN--\":10861:10865   */\n      0x20\n        /* \"--CODEGEN--\":10856:10859   */\n      dup5\n        /* \"--CODEGEN--\":10852:10866   */\n      add\n        /* \"--CODEGEN--\":10845:10866   */\n      swap4\n      pop\n        /* \"--CODEGEN--\":10909:10912   */\n      dup4\n        /* \"--CODEGEN--\":10951:10955   */\n      0x20\n        /* \"--CODEGEN--\":10943:10949   */\n      dup3\n        /* \"--CODEGEN--\":10939:10956   */\n      mul\n        /* \"--CODEGEN--\":10934:10937   */\n      dup6\n        /* \"--CODEGEN--\":10930:10957   */\n      add\n        /* \"--CODEGEN--\":10977:11039   */\n      tag_374\n        /* \"--CODEGEN--\":11033:11038   */\n      dup6\n        /* \"--CODEGEN--\":10977:11039   */\n      jump(tag_375)\n    tag_374:\n        /* \"--CODEGEN--\":11060:11061   */\n      0x0\n        /* \"--CODEGEN--\":11045:11346   */\n    tag_376:\n        /* \"--CODEGEN--\":11070:11076   */\n      dup5\n        /* \"--CODEGEN--\":11067:11068   */\n      dup2\n        /* \"--CODEGEN--\":11064:11077   */\n      lt\n        /* \"--CODEGEN--\":11045:11346   */\n      iszero\n      tag_377\n      jumpi\n        /* \"--CODEGEN--\":11132:11141   */\n      dup4\n        /* \"--CODEGEN--\":11126:11130   */\n      dup4\n        /* \"--CODEGEN--\":11122:11142   */\n      sub\n        /* \"--CODEGEN--\":11117:11120   */\n      dup9\n        /* \"--CODEGEN--\":11110:11143   */\n      mstore\n        /* \"--CODEGEN--\":11158:11228   */\n      tag_379\n        /* \"--CODEGEN--\":11223:11227   */\n      dup4\n        /* \"--CODEGEN--\":11214:11220   */\n      dup4\n        /* \"--CODEGEN--\":11208:11221   */\n      mload\n        /* \"--CODEGEN--\":11158:11228   */\n      jump(tag_380)\n    tag_379:\n        /* \"--CODEGEN--\":11150:11228   */\n      swap3\n      pop\n        /* \"--CODEGEN--\":11245:11311   */\n      tag_381\n        /* \"--CODEGEN--\":11304:11310   */\n      dup3\n        /* \"--CODEGEN--\":11245:11311   */\n      jump(tag_382)\n    tag_381:\n        /* \"--CODEGEN--\":11235:11311   */\n      swap2\n      pop\n        /* \"--CODEGEN--\":11334:11338   */\n      0x20\n        /* \"--CODEGEN--\":11329:11332   */\n      dup9\n        /* \"--CODEGEN--\":11325:11339   */\n      add\n        /* \"--CODEGEN--\":11318:11339   */\n      swap8\n      pop\n        /* \"--CODEGEN--\":11092:11093   */\n      0x1\n        /* \"--CODEGEN--\":11089:11090   */\n      dup2\n        /* \"--CODEGEN--\":11085:11094   */\n      add\n        /* \"--CODEGEN--\":11080:11094   */\n      swap1\n      pop\n        /* \"--CODEGEN--\":11045:11346   */\n      jump(tag_376)\n    tag_377:\n        /* \"--CODEGEN--\":11049:11063   */\n      pop\n        /* \"--CODEGEN--\":11359:11363   */\n      dup2\n        /* \"--CODEGEN--\":11352:11363   */\n      swap7\n      pop\n        /* \"--CODEGEN--\":11376:11379   */\n      dup7\n        /* \"--CODEGEN--\":11369:11379   */\n      swap5\n      pop\n        /* \"--CODEGEN--\":10738:11385   */\n      pop\n      pop\n      pop\n      pop\n      swap3\n      swap2\n      pop\n      pop\n      jump\n        /* \"--CODEGEN--\":11424:12014   */\n    tag_384:\n      0x0\n        /* \"--CODEGEN--\":11559:11613   */\n      tag_385\n        /* \"--CODEGEN--\":11607:11612   */\n      dup3\n        /* \"--CODEGEN--\":11559:11613   */\n      jump(tag_386)\n    tag_385:\n        /* \"--CODEGEN--\":11631:11637   */\n      dup1\n        /* \"--CODEGEN--\":11626:11629   */\n      dup5\n        /* \"--CODEGEN--\":11619:11638   */\n      mstore\n        /* \"--CODEGEN--\":11655:11659   */\n      0x20\n        /* \"--CODEGEN--\":11650:11653   */\n      dup5\n        /* \"--CODEGEN--\":11646:11660   */\n      add\n        /* \"--CODEGEN--\":11639:11660   */\n      swap4\n      pop\n        /* \"--CODEGEN--\":11700:11756   */\n      tag_387\n        /* \"--CODEGEN--\":11750:11755   */\n      dup4\n        /* \"--CODEGEN--\":11700:11756   */\n      jump(tag_388)\n    tag_387:\n        /* \"--CODEGEN--\":11777:11778   */\n      0x0\n        /* \"--CODEGEN--\":11762:11992   */\n    tag_389:\n        /* \"--CODEGEN--\":11787:11793   */\n      dup3\n        /* \"--CODEGEN--\":11784:11785   */\n      dup2\n        /* \"--CODEGEN--\":11781:11794   */\n      lt\n        /* \"--CODEGEN--\":11762:11992   */\n      iszero\n      tag_390\n      jumpi\n        /* \"--CODEGEN--\":11827:11880   */\n      tag_392\n        /* \"--CODEGEN--\":11876:11879   */\n      dup7\n        /* \"--CODEGEN--\":11867:11873   */\n      dup4\n        /* \"--CODEGEN--\":11861:11874   */\n      mload\n        /* \"--CODEGEN--\":11827:11880   */\n      jump(tag_393)\n    tag_392:\n        /* \"--CODEGEN--\":11897:11957   */\n      tag_394\n        /* \"--CODEGEN--\":11950:11956   */\n      dup3\n        /* \"--CODEGEN--\":11897:11957   */\n      jump(tag_395)\n    tag_394:\n        /* \"--CODEGEN--\":11887:11957   */\n      swap2\n      pop\n        /* \"--CODEGEN--\":11980:11984   */\n      0x20\n        /* \"--CODEGEN--\":11975:11978   */\n      dup7\n        /* \"--CODEGEN--\":11971:11985   */\n      add\n        /* \"--CODEGEN--\":11964:11985   */\n      swap6\n      pop\n        /* \"--CODEGEN--\":11809:11810   */\n      0x1\n        /* \"--CODEGEN--\":11806:11807   */\n      dup2\n        /* \"--CODEGEN--\":11802:11811   */\n      add\n        /* \"--CODEGEN--\":11797:11811   */\n      swap1\n      pop\n        /* \"--CODEGEN--\":11762:11992   */\n      jump(tag_389)\n    tag_390:\n        /* \"--CODEGEN--\":11766:11780   */\n      pop\n        /* \"--CODEGEN--\":12005:12008   */\n      dup5\n        /* \"--CODEGEN--\":11998:12008   */\n      swap3\n      pop\n        /* \"--CODEGEN--\":11538:12014   */\n      pop\n      pop\n      swap3\n      swap2\n      pop\n      pop\n      jump\n        /* \"--CODEGEN--\":12049:12625   */\n    tag_397:\n      0x0\n        /* \"--CODEGEN--\":12180:12232   */\n      tag_398\n        /* \"--CODEGEN--\":12226:12231   */\n      dup3\n        /* \"--CODEGEN--\":12180:12232   */\n      jump(tag_399)\n    tag_398:\n        /* \"--CODEGEN--\":12250:12256   */\n      dup1\n        /* \"--CODEGEN--\":12245:12248   */\n      dup5\n        /* \"--CODEGEN--\":12238:12257   */\n      mstore\n        /* \"--CODEGEN--\":12274:12278   */\n      0x20\n        /* \"--CODEGEN--\":12269:12272   */\n      dup5\n        /* \"--CODEGEN--\":12265:12279   */\n      add\n        /* \"--CODEGEN--\":12258:12279   */\n      swap4\n      pop\n        /* \"--CODEGEN--\":12319:12373   */\n      tag_400\n        /* \"--CODEGEN--\":12367:12372   */\n      dup4\n        /* \"--CODEGEN--\":12319:12373   */\n      jump(tag_401)\n    tag_400:\n        /* \"--CODEGEN--\":12394:12395   */\n      0x0\n        /* \"--CODEGEN--\":12379:12603   */\n    tag_402:\n        /* \"--CODEGEN--\":12404:12410   */\n      dup3\n        /* \"--CODEGEN--\":12401:12402   */\n      dup2\n        /* \"--CODEGEN--\":12398:12411   */\n      lt\n        /* \"--CODEGEN--\":12379:12603   */\n      iszero\n      tag_403\n      jumpi\n        /* \"--CODEGEN--\":12444:12493   */\n      tag_405\n        /* \"--CODEGEN--\":12489:12492   */\n      dup7\n        /* \"--CODEGEN--\":12480:12486   */\n      dup4\n        /* \"--CODEGEN--\":12474:12487   */\n      mload\n        /* \"--CODEGEN--\":12444:12493   */\n      jump(tag_406)\n    tag_405:\n        /* \"--CODEGEN--\":12510:12568   */\n      tag_407\n        /* \"--CODEGEN--\":12561:12567   */\n      dup3\n        /* \"--CODEGEN--\":12510:12568   */\n      jump(tag_408)\n    tag_407:\n        /* \"--CODEGEN--\":12500:12568   */\n      swap2\n      pop\n        /* \"--CODEGEN--\":12591:12595   */\n      0x20\n        /* \"--CODEGEN--\":12586:12589   */\n      dup7\n        /* \"--CODEGEN--\":12582:12596   */\n      add\n        /* \"--CODEGEN--\":12575:12596   */\n      swap6\n      pop\n        /* \"--CODEGEN--\":12426:12427   */\n      0x1\n        /* \"--CODEGEN--\":12423:12424   */\n      dup2\n        /* \"--CODEGEN--\":12419:12428   */\n      add\n        /* \"--CODEGEN--\":12414:12428   */\n      swap1\n      pop\n        /* \"--CODEGEN--\":12379:12603   */\n      jump(tag_402)\n    tag_403:\n        /* \"--CODEGEN--\":12383:12397   */\n      pop\n        /* \"--CODEGEN--\":12616:12619   */\n      dup5\n        /* \"--CODEGEN--\":12609:12619   */\n      swap3\n      pop\n        /* \"--CODEGEN--\":12159:12625   */\n      pop\n      pop\n      swap3\n      swap2\n      pop\n      pop\n      jump\n        /* \"--CODEGEN--\":12633:12734   */\n    tag_410:\n        /* \"--CODEGEN--\":12700:12728   */\n      tag_411\n        /* \"--CODEGEN--\":12722:12727   */\n      dup2\n        /* \"--CODEGEN--\":12700:12728   */\n      jump(tag_412)\n    tag_411:\n        /* \"--CODEGEN--\":12695:12698   */\n      dup3\n        /* \"--CODEGEN--\":12688:12729   */\n      mstore\n        /* \"--CODEGEN--\":12682:12734   */\n      pop\n      pop\n      jump\n        /* \"--CODEGEN--\":12741:13041   */\n    tag_414:\n      0x0\n        /* \"--CODEGEN--\":12843:12882   */\n      tag_415\n        /* \"--CODEGEN--\":12876:12881   */\n      dup3\n        /* \"--CODEGEN--\":12843:12882   */\n      jump(tag_416)\n    tag_415:\n        /* \"--CODEGEN--\":12899:12905   */\n      dup1\n        /* \"--CODEGEN--\":12894:12897   */\n      dup5\n        /* \"--CODEGEN--\":12887:12906   */\n      mstore\n        /* \"--CODEGEN--\":12911:12974   */\n      tag_417\n        /* \"--CODEGEN--\":12967:12973   */\n      dup2\n        /* \"--CODEGEN--\":12960:12964   */\n      0x20\n        /* \"--CODEGEN--\":12955:12958   */\n      dup7\n        /* \"--CODEGEN--\":12951:12965   */\n      add\n        /* \"--CODEGEN--\":12944:12948   */\n      0x20\n        /* \"--CODEGEN--\":12937:12942   */\n      dup7\n        /* \"--CODEGEN--\":12933:12949   */\n      add\n        /* \"--CODEGEN--\":12911:12974   */\n      jump(tag_281)\n    tag_417:\n        /* \"--CODEGEN--\":13006:13035   */\n      tag_418\n        /* \"--CODEGEN--\":13028:13034   */\n      dup2\n        /* \"--CODEGEN--\":13006:13035   */\n      jump(tag_419)\n    tag_418:\n        /* \"--CODEGEN--\":12999:13003   */\n      0x20\n        /* \"--CODEGEN--\":12994:12997   */\n      dup6\n        /* \"--CODEGEN--\":12990:13004   */\n      add\n        /* \"--CODEGEN--\":12986:13036   */\n      add\n        /* \"--CODEGEN--\":12979:13036   */\n      swap2\n      pop\n        /* \"--CODEGEN--\":12823:13041   */\n      pop\n      swap3\n      swap2\n      pop\n      pop\n      jump\n        /* \"--CODEGEN--\":13048:13340   */\n    tag_380:\n      0x0\n        /* \"--CODEGEN--\":13146:13181   */\n      tag_421\n        /* \"--CODEGEN--\":13175:13180   */\n      dup3\n        /* \"--CODEGEN--\":13146:13181   */\n      jump(tag_422)\n    tag_421:\n        /* \"--CODEGEN--\":13198:13204   */\n      dup1\n        /* \"--CODEGEN--\":13193:13196   */\n      dup5\n        /* \"--CODEGEN--\":13186:13205   */\n      mstore\n        /* \"--CODEGEN--\":13210:13273   */\n      tag_423\n        /* \"--CODEGEN--\":13266:13272   */\n      dup2\n        /* \"--CODEGEN--\":13259:13263   */\n      0x20\n        /* \"--CODEGEN--\":13254:13257   */\n      dup7\n        /* \"--CODEGEN--\":13250:13264   */\n      add\n        /* \"--CODEGEN--\":13243:13247   */\n      0x20\n        /* \"--CODEGEN--\":13236:13241   */\n      dup7\n        /* \"--CODEGEN--\":13232:13248   */\n      add\n        /* \"--CODEGEN--\":13210:13273   */\n      jump(tag_281)\n    tag_423:\n        /* \"--CODEGEN--\":13305:13334   */\n      tag_424\n        /* \"--CODEGEN--\":13327:13333   */\n      dup2\n        /* \"--CODEGEN--\":13305:13334   */\n      jump(tag_419)\n    tag_424:\n        /* \"--CODEGEN--\":13298:13302   */\n      0x20\n        /* \"--CODEGEN--\":13293:13296   */\n      dup6\n        /* \"--CODEGEN--\":13289:13303   */\n      add\n        /* \"--CODEGEN--\":13285:13335   */\n      add\n        /* \"--CODEGEN--\":13278:13335   */\n      swap2\n      pop\n        /* \"--CODEGEN--\":13126:13340   */\n      pop\n      swap3\n      swap2\n      pop\n      pop\n      jump\n        /* \"--CODEGEN--\":13348:13644   */\n    tag_426:\n      0x0\n        /* \"--CODEGEN--\":13503:13505   */\n      0x19\n        /* \"--CODEGEN--\":13498:13501   */\n      dup3\n        /* \"--CODEGEN--\":13491:13506   */\n      mstore\n        /* \"--CODEGEN--\":13540:13606   */\n      0x747261634e756d62657220646f6573206e6f7420657869737400000000000000\n        /* \"--CODEGEN--\":13535:13537   */\n      0x20\n        /* \"--CODEGEN--\":13530:13533   */\n      dup4\n        /* \"--CODEGEN--\":13526:13538   */\n      add\n        /* \"--CODEGEN--\":13519:13607   */\n      mstore\n        /* \"--CODEGEN--\":13635:13637   */\n      0x40\n        /* \"--CODEGEN--\":13630:13633   */\n      dup3\n        /* \"--CODEGEN--\":13626:13638   */\n      add\n        /* \"--CODEGEN--\":13619:13638   */\n      swap1\n      pop\n        /* \"--CODEGEN--\":13484:13644   */\n      swap2\n      swap1\n      pop\n      jump\n        /* \"--CODEGEN--\":13653:14050   */\n    tag_428:\n      0x0\n        /* \"--CODEGEN--\":13808:13810   */\n      0x33\n        /* \"--CODEGEN--\":13803:13806   */\n      dup3\n        /* \"--CODEGEN--\":13796:13811   */\n      mstore\n        /* \"--CODEGEN--\":13845:13911   */\n      0x50726f6475636572526f6c653a63616c6c657220646f6573206e6f7420686176\n        /* \"--CODEGEN--\":13840:13842   */\n      0x20\n        /* \"--CODEGEN--\":13835:13838   */\n      dup4\n        /* \"--CODEGEN--\":13831:13843   */\n      add\n        /* \"--CODEGEN--\":13824:13912   */\n      mstore\n        /* \"--CODEGEN--\":13946:14012   */\n      0x65207468652050726f647563657220726f6c6500000000000000000000000000\n        /* \"--CODEGEN--\":13941:13943   */\n      0x40\n        /* \"--CODEGEN--\":13936:13939   */\n      dup4\n        /* \"--CODEGEN--\":13932:13944   */\n      add\n        /* \"--CODEGEN--\":13925:14013   */\n      mstore\n        /* \"--CODEGEN--\":14041:14043   */\n      0x60\n        /* \"--CODEGEN--\":14036:14039   */\n      dup3\n        /* \"--CODEGEN--\":14032:14044   */\n      add\n        /* \"--CODEGEN--\":14025:14044   */\n      swap1\n      pop\n        /* \"--CODEGEN--\":13789:14050   */\n      swap2\n      swap1\n      pop\n      jump\n        /* \"--CODEGEN--\":14059:14355   */\n    tag_430:\n      0x0\n        /* \"--CODEGEN--\":14214:14216   */\n      0x1a\n        /* \"--CODEGEN--\":14209:14212   */\n      dup3\n        /* \"--CODEGEN--\":14202:14217   */\n      mstore\n        /* \"--CODEGEN--\":14251:14317   */\n      0x74726163654e756d62657220646f6573206e6f74206578697374000000000000\n        /* \"--CODEGEN--\":14246:14248   */\n      0x20\n        /* \"--CODEGEN--\":14241:14244   */\n      dup4\n        /* \"--CODEGEN--\":14237:14249   */\n      add\n        /* \"--CODEGEN--\":14230:14318   */\n      mstore\n        /* \"--CODEGEN--\":14346:14348   */\n      0x40\n        /* \"--CODEGEN--\":14341:14344   */\n      dup3\n        /* \"--CODEGEN--\":14337:14349   */\n      add\n        /* \"--CODEGEN--\":14330:14349   */\n      swap1\n      pop\n        /* \"--CODEGEN--\":14195:14355   */\n      swap2\n      swap1\n      pop\n      jump\n        /* \"--CODEGEN--\":14364:14660   */\n    tag_432:\n      0x0\n        /* \"--CODEGEN--\":14519:14521   */\n      0x1d\n        /* \"--CODEGEN--\":14514:14517   */\n      dup3\n        /* \"--CODEGEN--\":14507:14522   */\n      mstore\n        /* \"--CODEGEN--\":14556:14622   */\n      0x526f6c65733a206163636f756e7420616c726561647920657869737473000000\n        /* \"--CODEGEN--\":14551:14553   */\n      0x20\n        /* \"--CODEGEN--\":14546:14549   */\n      dup4\n        /* \"--CODEGEN--\":14542:14554   */\n      add\n        /* \"--CODEGEN--\":14535:14623   */\n      mstore\n        /* \"--CODEGEN--\":14651:14653   */\n      0x40\n        /* \"--CODEGEN--\":14646:14649   */\n      dup3\n        /* \"--CODEGEN--\":14642:14654   */\n      add\n        /* \"--CODEGEN--\":14635:14654   */\n      swap1\n      pop\n        /* \"--CODEGEN--\":14500:14660   */\n      swap2\n      swap1\n      pop\n      jump\n        /* \"--CODEGEN--\":14669:15066   */\n    tag_434:\n      0x0\n        /* \"--CODEGEN--\":14824:14826   */\n      0x32\n        /* \"--CODEGEN--\":14819:14822   */\n      dup3\n        /* \"--CODEGEN--\":14812:14827   */\n      mstore\n        /* \"--CODEGEN--\":14861:14927   */\n      0x52657461696c6572526f6c653a63616c6c657220646f6573206e6f7420686176\n        /* \"--CODEGEN--\":14856:14858   */\n      0x20\n        /* \"--CODEGEN--\":14851:14854   */\n      dup4\n        /* \"--CODEGEN--\":14847:14859   */\n      add\n        /* \"--CODEGEN--\":14840:14928   */\n      mstore\n        /* \"--CODEGEN--\":14962:15028   */\n      0x652074686552657461696c657220726f6c650000000000000000000000000000\n        /* \"--CODEGEN--\":14957:14959   */\n      0x40\n        /* \"--CODEGEN--\":14952:14955   */\n      dup4\n        /* \"--CODEGEN--\":14948:14960   */\n      add\n        /* \"--CODEGEN--\":14941:15029   */\n      mstore\n        /* \"--CODEGEN--\":15057:15059   */\n      0x60\n        /* \"--CODEGEN--\":15052:15055   */\n      dup3\n        /* \"--CODEGEN--\":15048:15060   */\n      add\n        /* \"--CODEGEN--\":15041:15060   */\n      swap1\n      pop\n        /* \"--CODEGEN--\":14805:15066   */\n      swap2\n      swap1\n      pop\n      jump\n        /* \"--CODEGEN--\":15075:15472   */\n    tag_436:\n      0x0\n        /* \"--CODEGEN--\":15230:15232   */\n      0x21\n        /* \"--CODEGEN--\":15225:15228   */\n      dup3\n        /* \"--CODEGEN--\":15218:15233   */\n      mstore\n        /* \"--CODEGEN--\":15267:15333   */\n      0x526f6c65733a6163636f756e7420697320746865207a65726f20616464726573\n        /* \"--CODEGEN--\":15262:15264   */\n      0x20\n        /* \"--CODEGEN--\":15257:15260   */\n      dup4\n        /* \"--CODEGEN--\":15253:15265   */\n      add\n        /* \"--CODEGEN--\":15246:15334   */\n      mstore\n        /* \"--CODEGEN--\":15368:15434   */\n      0x7300000000000000000000000000000000000000000000000000000000000000\n        /* \"--CODEGEN--\":15363:15365   */\n      0x40\n        /* \"--CODEGEN--\":15358:15361   */\n      dup4\n        /* \"--CODEGEN--\":15354:15366   */\n      add\n        /* \"--CODEGEN--\":15347:15435   */\n      mstore\n        /* \"--CODEGEN--\":15463:15465   */\n      0x60\n        /* \"--CODEGEN--\":15458:15461   */\n      dup3\n        /* \"--CODEGEN--\":15454:15466   */\n      add\n        /* \"--CODEGEN--\":15447:15466   */\n      swap1\n      pop\n        /* \"--CODEGEN--\":15211:15472   */\n      swap2\n      swap1\n      pop\n      jump\n        /* \"--CODEGEN--\":15481:15878   */\n    tag_438:\n      0x0\n        /* \"--CODEGEN--\":15636:15638   */\n      0x36\n        /* \"--CODEGEN--\":15631:15634   */\n      dup3\n        /* \"--CODEGEN--\":15624:15639   */\n      mstore\n        /* \"--CODEGEN--\":15673:15739   */\n      0x70726f6475636572526f6c653a63616c6c657220646f6573206e6f7420686176\n        /* \"--CODEGEN--\":15668:15670   */\n      0x20\n        /* \"--CODEGEN--\":15663:15666   */\n      dup4\n        /* \"--CODEGEN--\":15659:15671   */\n      add\n        /* \"--CODEGEN--\":15652:15740   */\n      mstore\n        /* \"--CODEGEN--\":15774:15840   */\n      0x6520746865204469737472696275746f7220726f6c6500000000000000000000\n        /* \"--CODEGEN--\":15769:15771   */\n      0x40\n        /* \"--CODEGEN--\":15764:15767   */\n      dup4\n        /* \"--CODEGEN--\":15760:15772   */\n      add\n        /* \"--CODEGEN--\":15753:15841   */\n      mstore\n        /* \"--CODEGEN--\":15869:15871   */\n      0x60\n        /* \"--CODEGEN--\":15864:15867   */\n      dup3\n        /* \"--CODEGEN--\":15860:15872   */\n      add\n        /* \"--CODEGEN--\":15853:15872   */\n      swap1\n      pop\n        /* \"--CODEGEN--\":15617:15878   */\n      swap2\n      swap1\n      pop\n      jump\n        /* \"--CODEGEN--\":15887:16183   */\n    tag_440:\n      0x0\n        /* \"--CODEGEN--\":16042:16044   */\n      0x19\n        /* \"--CODEGEN--\":16037:16040   */\n      dup3\n        /* \"--CODEGEN--\":16030:16045   */\n      mstore\n        /* \"--CODEGEN--\":16079:16145   */\n      0x74726163654e756d62657220616c726561647920657869737400000000000000\n        /* \"--CODEGEN--\":16074:16076   */\n      0x20\n        /* \"--CODEGEN--\":16069:16072   */\n      dup4\n        /* \"--CODEGEN--\":16065:16077   */\n      add\n        /* \"--CODEGEN--\":16058:16146   */\n      mstore\n        /* \"--CODEGEN--\":16174:16176   */\n      0x40\n        /* \"--CODEGEN--\":16169:16172   */\n      dup3\n        /* \"--CODEGEN--\":16165:16177   */\n      add\n        /* \"--CODEGEN--\":16158:16177   */\n      swap1\n      pop\n        /* \"--CODEGEN--\":16023:16183   */\n      swap2\n      swap1\n      pop\n      jump\n        /* \"--CODEGEN--\":16192:16488   */\n    tag_442:\n      0x0\n        /* \"--CODEGEN--\":16347:16349   */\n      0x20\n        /* \"--CODEGEN--\":16342:16345   */\n      dup3\n        /* \"--CODEGEN--\":16335:16350   */\n      mstore\n        /* \"--CODEGEN--\":16384:16450   */\n      0x526f6c65733a6163636f756e7420646f6573206e6f74206861766520726f6c65\n        /* \"--CODEGEN--\":16379:16381   */\n      0x20\n        /* \"--CODEGEN--\":16374:16377   */\n      dup4\n        /* \"--CODEGEN--\":16370:16382   */\n      add\n        /* \"--CODEGEN--\":16363:16451   */\n      mstore\n        /* \"--CODEGEN--\":16479:16481   */\n      0x40\n        /* \"--CODEGEN--\":16474:16477   */\n      dup3\n        /* \"--CODEGEN--\":16470:16482   */\n      add\n        /* \"--CODEGEN--\":16463:16482   */\n      swap1\n      pop\n        /* \"--CODEGEN--\":16328:16488   */\n      swap2\n      swap1\n      pop\n      jump\n        /* \"--CODEGEN--\":16496:16606   */\n    tag_393:\n        /* \"--CODEGEN--\":16569:16600   */\n      tag_444\n        /* \"--CODEGEN--\":16594:16599   */\n      dup2\n        /* \"--CODEGEN--\":16569:16600   */\n      jump(tag_445)\n    tag_444:\n        /* \"--CODEGEN--\":16564:16567   */\n      dup3\n        /* \"--CODEGEN--\":16557:16601   */\n      mstore\n        /* \"--CODEGEN--\":16551:16606   */\n      pop\n      pop\n      jump\n        /* \"--CODEGEN--\":16613:16717   */\n    tag_406:\n        /* \"--CODEGEN--\":16682:16711   */\n      tag_447\n        /* \"--CODEGEN--\":16705:16710   */\n      dup2\n        /* \"--CODEGEN--\":16682:16711   */\n      jump(tag_448)\n    tag_447:\n        /* \"--CODEGEN--\":16677:16680   */\n      dup3\n        /* \"--CODEGEN--\":16670:16712   */\n      mstore\n        /* \"--CODEGEN--\":16664:16717   */\n      pop\n      pop\n      jump\n        /* \"--CODEGEN--\":16724:16917   */\n    tag_90:\n      0x0\n        /* \"--CODEGEN--\":16832:16834   */\n      0x20\n        /* \"--CODEGEN--\":16821:16830   */\n      dup3\n        /* \"--CODEGEN--\":16817:16835   */\n      add\n        /* \"--CODEGEN--\":16809:16835   */\n      swap1\n      pop\n        /* \"--CODEGEN--\":16846:16907   */\n      tag_450\n        /* \"--CODEGEN--\":16904:16905   */\n      0x0\n        /* \"--CODEGEN--\":16893:16902   */\n      dup4\n        /* \"--CODEGEN--\":16889:16906   */\n      add\n        /* \"--CODEGEN--\":16880:16886   */\n      dup5\n        /* \"--CODEGEN--\":16846:16907   */\n      jump(tag_355)\n    tag_450:\n        /* \"--CODEGEN--\":16803:16917   */\n      swap3\n      swap2\n      pop\n      pop\n      jump\n        /* \"--CODEGEN--\":16924:17265   */\n    tag_40:\n      0x0\n        /* \"--CODEGEN--\":17082:17084   */\n      0x20\n        /* \"--CODEGEN--\":17071:17080   */\n      dup3\n        /* \"--CODEGEN--\":17067:17085   */\n      add\n        /* \"--CODEGEN--\":17059:17085   */\n      swap1\n      pop\n        /* \"--CODEGEN--\":17132:17141   */\n      dup2\n        /* \"--CODEGEN--\":17126:17130   */\n      dup2\n        /* \"--CODEGEN--\":17122:17142   */\n      sub\n        /* \"--CODEGEN--\":17118:17119   */\n      0x0\n        /* \"--CODEGEN--\":17107:17116   */\n      dup4\n        /* \"--CODEGEN--\":17103:17120   */\n      add\n        /* \"--CODEGEN--\":17096:17143   */\n      mstore\n        /* \"--CODEGEN--\":17157:17255   */\n      tag_452\n        /* \"--CODEGEN--\":17250:17254   */\n      dup2\n        /* \"--CODEGEN--\":17241:17247   */\n      dup5\n        /* \"--CODEGEN--\":17157:17255   */\n      jump(tag_384)\n    tag_452:\n        /* \"--CODEGEN--\":17149:17255   */\n      swap1\n      pop\n        /* \"--CODEGEN--\":17053:17265   */\n      swap3\n      swap2\n      pop\n      pop\n      jump\n        /* \"--CODEGEN--\":17272:18377   */\n    tag_80:\n      0x0\n        /* \"--CODEGEN--\":17672:17675   */\n      0x80\n        /* \"--CODEGEN--\":17661:17670   */\n      dup3\n        /* \"--CODEGEN--\":17657:17676   */\n      add\n        /* \"--CODEGEN--\":17649:17676   */\n      swap1\n      pop\n        /* \"--CODEGEN--\":17723:17732   */\n      dup2\n        /* \"--CODEGEN--\":17717:17721   */\n      dup2\n        /* \"--CODEGEN--\":17713:17733   */\n      sub\n        /* \"--CODEGEN--\":17709:17710   */\n      0x0\n        /* \"--CODEGEN--\":17698:17707   */\n      dup4\n        /* \"--CODEGEN--\":17694:17711   */\n      add\n        /* \"--CODEGEN--\":17687:17734   */\n      mstore\n        /* \"--CODEGEN--\":17748:17846   */\n      tag_454\n        /* \"--CODEGEN--\":17841:17845   */\n      dup2\n        /* \"--CODEGEN--\":17832:17838   */\n      dup8\n        /* \"--CODEGEN--\":17748:17846   */\n      jump(tag_384)\n    tag_454:\n        /* \"--CODEGEN--\":17740:17846   */\n      swap1\n      pop\n        /* \"--CODEGEN--\":17894:17903   */\n      dup2\n        /* \"--CODEGEN--\":17888:17892   */\n      dup2\n        /* \"--CODEGEN--\":17884:17904   */\n      sub\n        /* \"--CODEGEN--\":17879:17881   */\n      0x20\n        /* \"--CODEGEN--\":17868:17877   */\n      dup4\n        /* \"--CODEGEN--\":17864:17882   */\n      add\n        /* \"--CODEGEN--\":17857:17905   */\n      mstore\n        /* \"--CODEGEN--\":17919:18029   */\n      tag_455\n        /* \"--CODEGEN--\":18024:18028   */\n      dup2\n        /* \"--CODEGEN--\":18015:18021   */\n      dup7\n        /* \"--CODEGEN--\":17919:18029   */\n      jump(tag_371)\n    tag_455:\n        /* \"--CODEGEN--\":17911:18029   */\n      swap1\n      pop\n        /* \"--CODEGEN--\":18077:18086   */\n      dup2\n        /* \"--CODEGEN--\":18071:18075   */\n      dup2\n        /* \"--CODEGEN--\":18067:18087   */\n      sub\n        /* \"--CODEGEN--\":18062:18064   */\n      0x40\n        /* \"--CODEGEN--\":18051:18060   */\n      dup4\n        /* \"--CODEGEN--\":18047:18065   */\n      add\n        /* \"--CODEGEN--\":18040:18088   */\n      mstore\n        /* \"--CODEGEN--\":18102:18200   */\n      tag_456\n        /* \"--CODEGEN--\":18195:18199   */\n      dup2\n        /* \"--CODEGEN--\":18186:18192   */\n      dup6\n        /* \"--CODEGEN--\":18102:18200   */\n      jump(tag_359)\n    tag_456:\n        /* \"--CODEGEN--\":18094:18200   */\n      swap1\n      pop\n        /* \"--CODEGEN--\":18248:18257   */\n      dup2\n        /* \"--CODEGEN--\":18242:18246   */\n      dup2\n        /* \"--CODEGEN--\":18238:18258   */\n      sub\n        /* \"--CODEGEN--\":18233:18235   */\n      0x60\n        /* \"--CODEGEN--\":18222:18231   */\n      dup4\n        /* \"--CODEGEN--\":18218:18236   */\n      add\n        /* \"--CODEGEN--\":18211:18259   */\n      mstore\n        /* \"--CODEGEN--\":18273:18367   */\n      tag_457\n        /* \"--CODEGEN--\":18362:18366   */\n      dup2\n        /* \"--CODEGEN--\":18353:18359   */\n      dup5\n        /* \"--CODEGEN--\":18273:18367   */\n      jump(tag_397)\n    tag_457:\n        /* \"--CODEGEN--\":18265:18367   */\n      swap1\n      pop\n        /* \"--CODEGEN--\":17643:18377   */\n      swap6\n      swap5\n      pop\n      pop\n      pop\n      pop\n      pop\n      jump\n        /* \"--CODEGEN--\":18384:18565   */\n    tag_35:\n      0x0\n        /* \"--CODEGEN--\":18486:18488   */\n      0x20\n        /* \"--CODEGEN--\":18475:18484   */\n      dup3\n        /* \"--CODEGEN--\":18471:18489   */\n      add\n        /* \"--CODEGEN--\":18463:18489   */\n      swap1\n      pop\n        /* \"--CODEGEN--\":18500:18555   */\n      tag_459\n        /* \"--CODEGEN--\":18552:18553   */\n      0x0\n        /* \"--CODEGEN--\":18541:18550   */\n      dup4\n        /* \"--CODEGEN--\":18537:18554   */\n      add\n        /* \"--CODEGEN--\":18528:18534   */\n      dup5\n        /* \"--CODEGEN--\":18500:18555   */\n      jump(tag_410)\n    tag_459:\n        /* \"--CODEGEN--\":18457:18565   */\n      swap3\n      swap2\n      pop\n      pop\n      jump\n        /* \"--CODEGEN--\":18572:19047   */\n    tag_117:\n      0x0\n        /* \"--CODEGEN--\":18752:18754   */\n      0x60\n        /* \"--CODEGEN--\":18741:18750   */\n      dup3\n        /* \"--CODEGEN--\":18737:18755   */\n      add\n        /* \"--CODEGEN--\":18729:18755   */\n      swap1\n      pop\n        /* \"--CODEGEN--\":18802:18811   */\n      dup2\n        /* \"--CODEGEN--\":18796:18800   */\n      dup2\n        /* \"--CODEGEN--\":18792:18812   */\n      sub\n        /* \"--CODEGEN--\":18788:18789   */\n      0x0\n        /* \"--CODEGEN--\":18777:18786   */\n      dup4\n        /* \"--CODEGEN--\":18773:18790   */\n      add\n        /* \"--CODEGEN--\":18766:18813   */\n      mstore\n        /* \"--CODEGEN--\":18827:18895   */\n      tag_461\n        /* \"--CODEGEN--\":18890:18894   */\n      dup2\n        /* \"--CODEGEN--\":18881:18887   */\n      dup7\n        /* \"--CODEGEN--\":18827:18895   */\n      jump(tag_414)\n    tag_461:\n        /* \"--CODEGEN--\":18819:18895   */\n      swap1\n      pop\n        /* \"--CODEGEN--\":18906:18968   */\n      tag_462\n        /* \"--CODEGEN--\":18964:18966   */\n      0x20\n        /* \"--CODEGEN--\":18953:18962   */\n      dup4\n        /* \"--CODEGEN--\":18949:18967   */\n      add\n        /* \"--CODEGEN--\":18940:18946   */\n      dup6\n        /* \"--CODEGEN--\":18906:18968   */\n      jump(tag_355)\n    tag_462:\n        /* \"--CODEGEN--\":18979:19037   */\n      tag_463\n        /* \"--CODEGEN--\":19033:19035   */\n      0x40\n        /* \"--CODEGEN--\":19022:19031   */\n      dup4\n        /* \"--CODEGEN--\":19018:19036   */\n      add\n        /* \"--CODEGEN--\":19009:19015   */\n      dup5\n        /* \"--CODEGEN--\":18979:19037   */\n      jump(tag_406)\n    tag_463:\n        /* \"--CODEGEN--\":18723:19047   */\n      swap5\n      swap4\n      pop\n      pop\n      pop\n      pop\n      jump\n        /* \"--CODEGEN--\":19054:19719   */\n    tag_185:\n      0x0\n        /* \"--CODEGEN--\":19282:19285   */\n      0x80\n        /* \"--CODEGEN--\":19271:19280   */\n      dup3\n        /* \"--CODEGEN--\":19267:19286   */\n      add\n        /* \"--CODEGEN--\":19259:19286   */\n      swap1\n      pop\n        /* \"--CODEGEN--\":19333:19342   */\n      dup2\n        /* \"--CODEGEN--\":19327:19331   */\n      dup2\n        /* \"--CODEGEN--\":19323:19343   */\n      sub\n        /* \"--CODEGEN--\":19319:19320   */\n      0x0\n        /* \"--CODEGEN--\":19308:19317   */\n      dup4\n        /* \"--CODEGEN--\":19304:19321   */\n      add\n        /* \"--CODEGEN--\":19297:19344   */\n      mstore\n        /* \"--CODEGEN--\":19358:19426   */\n      tag_465\n        /* \"--CODEGEN--\":19421:19425   */\n      dup2\n        /* \"--CODEGEN--\":19412:19418   */\n      dup8\n        /* \"--CODEGEN--\":19358:19426   */\n      jump(tag_414)\n    tag_465:\n        /* \"--CODEGEN--\":19350:19426   */\n      swap1\n      pop\n        /* \"--CODEGEN--\":19474:19483   */\n      dup2\n        /* \"--CODEGEN--\":19468:19472   */\n      dup2\n        /* \"--CODEGEN--\":19464:19484   */\n      sub\n        /* \"--CODEGEN--\":19459:19461   */\n      0x20\n        /* \"--CODEGEN--\":19448:19457   */\n      dup4\n        /* \"--CODEGEN--\":19444:19462   */\n      add\n        /* \"--CODEGEN--\":19437:19485   */\n      mstore\n        /* \"--CODEGEN--\":19499:19567   */\n      tag_466\n        /* \"--CODEGEN--\":19562:19566   */\n      dup2\n        /* \"--CODEGEN--\":19553:19559   */\n      dup7\n        /* \"--CODEGEN--\":19499:19567   */\n      jump(tag_414)\n    tag_466:\n        /* \"--CODEGEN--\":19491:19567   */\n      swap1\n      pop\n        /* \"--CODEGEN--\":19578:19636   */\n      tag_467\n        /* \"--CODEGEN--\":19632:19634   */\n      0x40\n        /* \"--CODEGEN--\":19621:19630   */\n      dup4\n        /* \"--CODEGEN--\":19617:19635   */\n      add\n        /* \"--CODEGEN--\":19608:19614   */\n      dup6\n        /* \"--CODEGEN--\":19578:19636   */\n      jump(tag_406)\n    tag_467:\n        /* \"--CODEGEN--\":19647:19709   */\n      tag_468\n        /* \"--CODEGEN--\":19705:19707   */\n      0x60\n        /* \"--CODEGEN--\":19694:19703   */\n      dup4\n        /* \"--CODEGEN--\":19690:19708   */\n      add\n        /* \"--CODEGEN--\":19681:19687   */\n      dup5\n        /* \"--CODEGEN--\":19647:19709   */\n      jump(tag_355)\n    tag_468:\n        /* \"--CODEGEN--\":19253:19719   */\n      swap6\n      swap5\n      pop\n      pop\n      pop\n      pop\n      pop\n      jump\n        /* \"--CODEGEN--\":19726:20113   */\n    tag_115:\n      0x0\n        /* \"--CODEGEN--\":19907:19909   */\n      0x20\n        /* \"--CODEGEN--\":19896:19905   */\n      dup3\n        /* \"--CODEGEN--\":19892:19910   */\n      add\n        /* \"--CODEGEN--\":19884:19910   */\n      swap1\n      pop\n        /* \"--CODEGEN--\":19957:19966   */\n      dup2\n        /* \"--CODEGEN--\":19951:19955   */\n      dup2\n        /* \"--CODEGEN--\":19947:19967   */\n      sub\n        /* \"--CODEGEN--\":19943:19944   */\n      0x0\n        /* \"--CODEGEN--\":19932:19941   */\n      dup4\n        /* \"--CODEGEN--\":19928:19945   */\n      add\n        /* \"--CODEGEN--\":19921:19968   */\n      mstore\n        /* \"--CODEGEN--\":19982:20103   */\n      tag_470\n        /* \"--CODEGEN--\":20098:20102   */\n      dup2\n        /* \"--CODEGEN--\":19982:20103   */\n      jump(tag_426)\n    tag_470:\n        /* \"--CODEGEN--\":19974:20103   */\n      swap1\n      pop\n        /* \"--CODEGEN--\":19878:20113   */\n      swap2\n      swap1\n      pop\n      jump\n        /* \"--CODEGEN--\":20120:20507   */\n    tag_158:\n      0x0\n        /* \"--CODEGEN--\":20301:20303   */\n      0x20\n        /* \"--CODEGEN--\":20290:20299   */\n      dup3\n        /* \"--CODEGEN--\":20286:20304   */\n      add\n        /* \"--CODEGEN--\":20278:20304   */\n      swap1\n      pop\n        /* \"--CODEGEN--\":20351:20360   */\n      dup2\n        /* \"--CODEGEN--\":20345:20349   */\n      dup2\n        /* \"--CODEGEN--\":20341:20361   */\n      sub\n        /* \"--CODEGEN--\":20337:20338   */\n      0x0\n        /* \"--CODEGEN--\":20326:20335   */\n      dup4\n        /* \"--CODEGEN--\":20322:20339   */\n      add\n        /* \"--CODEGEN--\":20315:20362   */\n      mstore\n        /* \"--CODEGEN--\":20376:20497   */\n      tag_472\n        /* \"--CODEGEN--\":20492:20496   */\n      dup2\n        /* \"--CODEGEN--\":20376:20497   */\n      jump(tag_428)\n    tag_472:\n        /* \"--CODEGEN--\":20368:20497   */\n      swap1\n      pop\n        /* \"--CODEGEN--\":20272:20507   */\n      swap2\n      swap1\n      pop\n      jump\n        /* \"--CODEGEN--\":20514:20901   */\n    tag_94:\n      0x0\n        /* \"--CODEGEN--\":20695:20697   */\n      0x20\n        /* \"--CODEGEN--\":20684:20693   */\n      dup3\n        /* \"--CODEGEN--\":20680:20698   */\n      add\n        /* \"--CODEGEN--\":20672:20698   */\n      swap1\n      pop\n        /* \"--CODEGEN--\":20745:20754   */\n      dup2\n        /* \"--CODEGEN--\":20739:20743   */\n      dup2\n        /* \"--CODEGEN--\":20735:20755   */\n      sub\n        /* \"--CODEGEN--\":20731:20732   */\n      0x0\n        /* \"--CODEGEN--\":20720:20729   */\n      dup4\n        /* \"--CODEGEN--\":20716:20733   */\n      add\n        /* \"--CODEGEN--\":20709:20756   */\n      mstore\n        /* \"--CODEGEN--\":20770:20891   */\n      tag_474\n        /* \"--CODEGEN--\":20886:20890   */\n      dup2\n        /* \"--CODEGEN--\":20770:20891   */\n      jump(tag_430)\n    tag_474:\n        /* \"--CODEGEN--\":20762:20891   */\n      swap1\n      pop\n        /* \"--CODEGEN--\":20666:20901   */\n      swap2\n      swap1\n      pop\n      jump\n        /* \"--CODEGEN--\":20908:21295   */\n    tag_210:\n      0x0\n        /* \"--CODEGEN--\":21089:21091   */\n      0x20\n        /* \"--CODEGEN--\":21078:21087   */\n      dup3\n        /* \"--CODEGEN--\":21074:21092   */\n      add\n        /* \"--CODEGEN--\":21066:21092   */\n      swap1\n      pop\n        /* \"--CODEGEN--\":21139:21148   */\n      dup2\n        /* \"--CODEGEN--\":21133:21137   */\n      dup2\n        /* \"--CODEGEN--\":21129:21149   */\n      sub\n        /* \"--CODEGEN--\":21125:21126   */\n      0x0\n        /* \"--CODEGEN--\":21114:21123   */\n      dup4\n        /* \"--CODEGEN--\":21110:21127   */\n      add\n        /* \"--CODEGEN--\":21103:21150   */\n      mstore\n        /* \"--CODEGEN--\":21164:21285   */\n      tag_476\n        /* \"--CODEGEN--\":21280:21284   */\n      dup2\n        /* \"--CODEGEN--\":21164:21285   */\n      jump(tag_432)\n    tag_476:\n        /* \"--CODEGEN--\":21156:21285   */\n      swap1\n      pop\n        /* \"--CODEGEN--\":21060:21295   */\n      swap2\n      swap1\n      pop\n      jump\n        /* \"--CODEGEN--\":21302:21689   */\n    tag_103:\n      0x0\n        /* \"--CODEGEN--\":21483:21485   */\n      0x20\n        /* \"--CODEGEN--\":21472:21481   */\n      dup3\n        /* \"--CODEGEN--\":21468:21486   */\n      add\n        /* \"--CODEGEN--\":21460:21486   */\n      swap1\n      pop\n        /* \"--CODEGEN--\":21533:21542   */\n      dup2\n        /* \"--CODEGEN--\":21527:21531   */\n      dup2\n        /* \"--CODEGEN--\":21523:21543   */\n      sub\n        /* \"--CODEGEN--\":21519:21520   */\n      0x0\n        /* \"--CODEGEN--\":21508:21517   */\n      dup4\n        /* \"--CODEGEN--\":21504:21521   */\n      add\n        /* \"--CODEGEN--\":21497:21544   */\n      mstore\n        /* \"--CODEGEN--\":21558:21679   */\n      tag_478\n        /* \"--CODEGEN--\":21674:21678   */\n      dup2\n        /* \"--CODEGEN--\":21558:21679   */\n      jump(tag_434)\n    tag_478:\n        /* \"--CODEGEN--\":21550:21679   */\n      swap1\n      pop\n        /* \"--CODEGEN--\":21454:21689   */\n      swap2\n      swap1\n      pop\n      jump\n        /* \"--CODEGEN--\":21696:22083   */\n    tag_194:\n      0x0\n        /* \"--CODEGEN--\":21877:21879   */\n      0x20\n        /* \"--CODEGEN--\":21866:21875   */\n      dup3\n        /* \"--CODEGEN--\":21862:21880   */\n      add\n        /* \"--CODEGEN--\":21854:21880   */\n      swap1\n      pop\n        /* \"--CODEGEN--\":21927:21936   */\n      dup2\n        /* \"--CODEGEN--\":21921:21925   */\n      dup2\n        /* \"--CODEGEN--\":21917:21937   */\n      sub\n        /* \"--CODEGEN--\":21913:21914   */\n      0x0\n        /* \"--CODEGEN--\":21902:21911   */\n      dup4\n        /* \"--CODEGEN--\":21898:21915   */\n      add\n        /* \"--CODEGEN--\":21891:21938   */\n      mstore\n        /* \"--CODEGEN--\":21952:22073   */\n      tag_480\n        /* \"--CODEGEN--\":22068:22072   */\n      dup2\n        /* \"--CODEGEN--\":21952:22073   */\n      jump(tag_436)\n    tag_480:\n        /* \"--CODEGEN--\":21944:22073   */\n      swap1\n      pop\n        /* \"--CODEGEN--\":21848:22083   */\n      swap2\n      swap1\n      pop\n      jump\n        /* \"--CODEGEN--\":22090:22477   */\n    tag_111:\n      0x0\n        /* \"--CODEGEN--\":22271:22273   */\n      0x20\n        /* \"--CODEGEN--\":22260:22269   */\n      dup3\n        /* \"--CODEGEN--\":22256:22274   */\n      add\n        /* \"--CODEGEN--\":22248:22274   */\n      swap1\n      pop\n        /* \"--CODEGEN--\":22321:22330   */\n      dup2\n        /* \"--CODEGEN--\":22315:22319   */\n      dup2\n        /* \"--CODEGEN--\":22311:22331   */\n      sub\n        /* \"--CODEGEN--\":22307:22308   */\n      0x0\n        /* \"--CODEGEN--\":22296:22305   */\n      dup4\n        /* \"--CODEGEN--\":22292:22309   */\n      add\n        /* \"--CODEGEN--\":22285:22332   */\n      mstore\n        /* \"--CODEGEN--\":22346:22467   */\n      tag_482\n        /* \"--CODEGEN--\":22462:22466   */\n      dup2\n        /* \"--CODEGEN--\":22346:22467   */\n      jump(tag_438)\n    tag_482:\n        /* \"--CODEGEN--\":22338:22467   */\n      swap1\n      pop\n        /* \"--CODEGEN--\":22242:22477   */\n      swap2\n      swap1\n      pop\n      jump\n        /* \"--CODEGEN--\":22484:22871   */\n    tag_181:\n      0x0\n        /* \"--CODEGEN--\":22665:22667   */\n      0x20\n        /* \"--CODEGEN--\":22654:22663   */\n      dup3\n        /* \"--CODEGEN--\":22650:22668   */\n      add\n        /* \"--CODEGEN--\":22642:22668   */\n      swap1\n      pop\n        /* \"--CODEGEN--\":22715:22724   */\n      dup2\n        /* \"--CODEGEN--\":22709:22713   */\n      dup2\n        /* \"--CODEGEN--\":22705:22725   */\n      sub\n        /* \"--CODEGEN--\":22701:22702   */\n      0x0\n        /* \"--CODEGEN--\":22690:22699   */\n      dup4\n        /* \"--CODEGEN--\":22686:22703   */\n      add\n        /* \"--CODEGEN--\":22679:22726   */\n      mstore\n        /* \"--CODEGEN--\":22740:22861   */\n      tag_484\n        /* \"--CODEGEN--\":22856:22860   */\n      dup2\n        /* \"--CODEGEN--\":22740:22861   */\n      jump(tag_440)\n    tag_484:\n        /* \"--CODEGEN--\":22732:22861   */\n      swap1\n      pop\n        /* \"--CODEGEN--\":22636:22871   */\n      swap2\n      swap1\n      pop\n      jump\n        /* \"--CODEGEN--\":22878:23265   */\n    tag_215:\n      0x0\n        /* \"--CODEGEN--\":23059:23061   */\n      0x20\n        /* \"--CODEGEN--\":23048:23057   */\n      dup3\n        /* \"--CODEGEN--\":23044:23062   */\n      add\n        /* \"--CODEGEN--\":23036:23062   */\n      swap1\n      pop\n        /* \"--CODEGEN--\":23109:23118   */\n      dup2\n        /* \"--CODEGEN--\":23103:23107   */\n      dup2\n        /* \"--CODEGEN--\":23099:23119   */\n      sub\n        /* \"--CODEGEN--\":23095:23096   */\n      0x0\n        /* \"--CODEGEN--\":23084:23093   */\n      dup4\n        /* \"--CODEGEN--\":23080:23097   */\n      add\n        /* \"--CODEGEN--\":23073:23120   */\n      mstore\n        /* \"--CODEGEN--\":23134:23255   */\n      tag_486\n        /* \"--CODEGEN--\":23250:23254   */\n      dup2\n        /* \"--CODEGEN--\":23134:23255   */\n      jump(tag_442)\n    tag_486:\n        /* \"--CODEGEN--\":23126:23255   */\n      swap1\n      pop\n        /* \"--CODEGEN--\":23030:23265   */\n      swap2\n      swap1\n      pop\n      jump\n        /* \"--CODEGEN--\":23272:24229   */\n    tag_23:\n      0x0\n        /* \"--CODEGEN--\":23576:23579   */\n      0xc0\n        /* \"--CODEGEN--\":23565:23574   */\n      dup3\n        /* \"--CODEGEN--\":23561:23580   */\n      add\n        /* \"--CODEGEN--\":23553:23580   */\n      swap1\n      pop\n        /* \"--CODEGEN--\":23591:23652   */\n      tag_488\n        /* \"--CODEGEN--\":23649:23650   */\n      0x0\n        /* \"--CODEGEN--\":23638:23647   */\n      dup4\n        /* \"--CODEGEN--\":23634:23651   */\n      add\n        /* \"--CODEGEN--\":23625:23631   */\n      dup10\n        /* \"--CODEGEN--\":23591:23652   */\n      jump(tag_393)\n    tag_488:\n        /* \"--CODEGEN--\":23700:23709   */\n      dup2\n        /* \"--CODEGEN--\":23694:23698   */\n      dup2\n        /* \"--CODEGEN--\":23690:23710   */\n      sub\n        /* \"--CODEGEN--\":23685:23687   */\n      0x20\n        /* \"--CODEGEN--\":23674:23683   */\n      dup4\n        /* \"--CODEGEN--\":23670:23688   */\n      add\n        /* \"--CODEGEN--\":23663:23711   */\n      mstore\n        /* \"--CODEGEN--\":23725:23793   */\n      tag_489\n        /* \"--CODEGEN--\":23788:23792   */\n      dup2\n        /* \"--CODEGEN--\":23779:23785   */\n      dup9\n        /* \"--CODEGEN--\":23725:23793   */\n      jump(tag_414)\n    tag_489:\n        /* \"--CODEGEN--\":23717:23793   */\n      swap1\n      pop\n        /* \"--CODEGEN--\":23841:23850   */\n      dup2\n        /* \"--CODEGEN--\":23835:23839   */\n      dup2\n        /* \"--CODEGEN--\":23831:23851   */\n      sub\n        /* \"--CODEGEN--\":23826:23828   */\n      0x40\n        /* \"--CODEGEN--\":23815:23824   */\n      dup4\n        /* \"--CODEGEN--\":23811:23829   */\n      add\n        /* \"--CODEGEN--\":23804:23852   */\n      mstore\n        /* \"--CODEGEN--\":23866:23934   */\n      tag_490\n        /* \"--CODEGEN--\":23929:23933   */\n      dup2\n        /* \"--CODEGEN--\":23920:23926   */\n      dup8\n        /* \"--CODEGEN--\":23866:23934   */\n      jump(tag_414)\n    tag_490:\n        /* \"--CODEGEN--\":23858:23934   */\n      swap1\n      pop\n        /* \"--CODEGEN--\":23982:23991   */\n      dup2\n        /* \"--CODEGEN--\":23976:23980   */\n      dup2\n        /* \"--CODEGEN--\":23972:23992   */\n      sub\n        /* \"--CODEGEN--\":23967:23969   */\n      0x60\n        /* \"--CODEGEN--\":23956:23965   */\n      dup4\n        /* \"--CODEGEN--\":23952:23970   */\n      add\n        /* \"--CODEGEN--\":23945:23993   */\n      mstore\n        /* \"--CODEGEN--\":24007:24075   */\n      tag_491\n        /* \"--CODEGEN--\":24070:24074   */\n      dup2\n        /* \"--CODEGEN--\":24061:24067   */\n      dup7\n        /* \"--CODEGEN--\":24007:24075   */\n      jump(tag_414)\n    tag_491:\n        /* \"--CODEGEN--\":23999:24075   */\n      swap1\n      pop\n        /* \"--CODEGEN--\":24086:24149   */\n      tag_492\n        /* \"--CODEGEN--\":24144:24147   */\n      0x80\n        /* \"--CODEGEN--\":24133:24142   */\n      dup4\n        /* \"--CODEGEN--\":24129:24148   */\n      add\n        /* \"--CODEGEN--\":24120:24126   */\n      dup6\n        /* \"--CODEGEN--\":24086:24149   */\n      jump(tag_355)\n    tag_492:\n        /* \"--CODEGEN--\":24160:24219   */\n      tag_493\n        /* \"--CODEGEN--\":24214:24217   */\n      0xa0\n        /* \"--CODEGEN--\":24203:24212   */\n      dup4\n        /* \"--CODEGEN--\":24199:24218   */\n      add\n        /* \"--CODEGEN--\":24190:24196   */\n      dup5\n        /* \"--CODEGEN--\":24160:24219   */\n      jump(tag_406)\n    tag_493:\n        /* \"--CODEGEN--\":23547:24229   */\n      swap8\n      swap7\n      pop\n      pop\n      pop\n      pop\n      pop\n      pop\n      pop\n      jump\n        /* \"--CODEGEN--\":24236:24492   */\n    tag_229:\n      0x0\n        /* \"--CODEGEN--\":24298:24300   */\n      0x40\n        /* \"--CODEGEN--\":24292:24301   */\n      mload\n        /* \"--CODEGEN--\":24282:24301   */\n      swap1\n      pop\n        /* \"--CODEGEN--\":24336:24340   */\n      dup2\n        /* \"--CODEGEN--\":24328:24334   */\n      dup2\n        /* \"--CODEGEN--\":24324:24341   */\n      add\n        /* \"--CODEGEN--\":24435:24441   */\n      dup2\n        /* \"--CODEGEN--\":24423:24433   */\n      dup2\n        /* \"--CODEGEN--\":24420:24442   */\n      lt\n        /* \"--CODEGEN--\":24399:24417   */\n      0xffffffffffffffff\n        /* \"--CODEGEN--\":24387:24397   */\n      dup3\n        /* \"--CODEGEN--\":24384:24418   */\n      gt\n        /* \"--CODEGEN--\":24381:24443   */\n      or\n        /* \"--CODEGEN--\":24378:24380   */\n      iszero\n      tag_495\n      jumpi\n        /* \"--CODEGEN--\":24456:24457   */\n      0x0\n        /* \"--CODEGEN--\":24453:24454   */\n      dup1\n        /* \"--CODEGEN--\":24446:24458   */\n      revert\n        /* \"--CODEGEN--\":24378:24380   */\n    tag_495:\n        /* \"--CODEGEN--\":24476:24486   */\n      dup1\n        /* \"--CODEGEN--\":24472:24474   */\n      0x40\n        /* \"--CODEGEN--\":24465:24487   */\n      mstore\n        /* \"--CODEGEN--\":24276:24492   */\n      pop\n      swap2\n      swap1\n      pop\n      jump\n        /* \"--CODEGEN--\":24499:24757   */\n    tag_228:\n      0x0\n        /* \"--CODEGEN--\":24658:24676   */\n      0xffffffffffffffff\n        /* \"--CODEGEN--\":24650:24656   */\n      dup3\n        /* \"--CODEGEN--\":24647:24677   */\n      gt\n        /* \"--CODEGEN--\":24644:24646   */\n      iszero\n      tag_497\n      jumpi\n        /* \"--CODEGEN--\":24690:24691   */\n      0x0\n        /* \"--CODEGEN--\":24687:24688   */\n      dup1\n        /* \"--CODEGEN--\":24680:24692   */\n      revert\n        /* \"--CODEGEN--\":24644:24646   */\n    tag_497:\n        /* \"--CODEGEN--\":24719:24723   */\n      0x20\n        /* \"--CODEGEN--\":24711:24717   */\n      dup3\n        /* \"--CODEGEN--\":24707:24724   */\n      mul\n        /* \"--CODEGEN--\":24699:24724   */\n      swap1\n      pop\n        /* \"--CODEGEN--\":24747:24751   */\n      0x20\n        /* \"--CODEGEN--\":24741:24745   */\n      dup2\n        /* \"--CODEGEN--\":24737:24752   */\n      add\n        /* \"--CODEGEN--\":24729:24752   */\n      swap1\n      pop\n        /* \"--CODEGEN--\":24581:24757   */\n      swap2\n      swap1\n      pop\n      jump\n        /* \"--CODEGEN--\":24764:25028   */\n    tag_240:\n      0x0\n        /* \"--CODEGEN--\":24929:24947   */\n      0xffffffffffffffff\n        /* \"--CODEGEN--\":24921:24927   */\n      dup3\n        /* \"--CODEGEN--\":24918:24948   */\n      gt\n        /* \"--CODEGEN--\":24915:24917   */\n      iszero\n      tag_499\n      jumpi\n        /* \"--CODEGEN--\":24961:24962   */\n      0x0\n        /* \"--CODEGEN--\":24958:24959   */\n      dup1\n        /* \"--CODEGEN--\":24951:24963   */\n      revert\n        /* \"--CODEGEN--\":24915:24917   */\n    tag_499:\n        /* \"--CODEGEN--\":24990:24994   */\n      0x20\n        /* \"--CODEGEN--\":24982:24988   */\n      dup3\n        /* \"--CODEGEN--\":24978:24995   */\n      mul\n        /* \"--CODEGEN--\":24970:24995   */\n      swap1\n      pop\n        /* \"--CODEGEN--\":25018:25022   */\n      0x20\n        /* \"--CODEGEN--\":25012:25016   */\n      dup2\n        /* \"--CODEGEN--\":25008:25023   */\n      add\n        /* \"--CODEGEN--\":25000:25023   */\n      swap1\n      pop\n        /* \"--CODEGEN--\":24852:25028   */\n      swap2\n      swap1\n      pop\n      jump\n        /* \"--CODEGEN--\":25035:25293   */\n    tag_251:\n      0x0\n        /* \"--CODEGEN--\":25194:25212   */\n      0xffffffffffffffff\n        /* \"--CODEGEN--\":25186:25192   */\n      dup3\n        /* \"--CODEGEN--\":25183:25213   */\n      gt\n        /* \"--CODEGEN--\":25180:25182   */\n      iszero\n      tag_501\n      jumpi\n        /* \"--CODEGEN--\":25226:25227   */\n      0x0\n        /* \"--CODEGEN--\":25223:25224   */\n      dup1\n        /* \"--CODEGEN--\":25216:25228   */\n      revert\n        /* \"--CODEGEN--\":25180:25182   */\n    tag_501:\n        /* \"--CODEGEN--\":25255:25259   */\n      0x20\n        /* \"--CODEGEN--\":25247:25253   */\n      dup3\n        /* \"--CODEGEN--\":25243:25260   */\n      mul\n        /* \"--CODEGEN--\":25235:25260   */\n      swap1\n      pop\n        /* \"--CODEGEN--\":25283:25287   */\n      0x20\n        /* \"--CODEGEN--\":25277:25281   */\n      dup2\n        /* \"--CODEGEN--\":25273:25288   */\n      add\n        /* \"--CODEGEN--\":25265:25288   */\n      swap1\n      pop\n        /* \"--CODEGEN--\":25117:25293   */\n      swap2\n      swap1\n      pop\n      jump\n        /* \"--CODEGEN--\":25300:25556   */\n    tag_263:\n      0x0\n        /* \"--CODEGEN--\":25457:25475   */\n      0xffffffffffffffff\n        /* \"--CODEGEN--\":25449:25455   */\n      dup3\n        /* \"--CODEGEN--\":25446:25476   */\n      gt\n        /* \"--CODEGEN--\":25443:25445   */\n      iszero\n      tag_503\n      jumpi\n        /* \"--CODEGEN--\":25489:25490   */\n      0x0\n        /* \"--CODEGEN--\":25486:25487   */\n      dup1\n        /* \"--CODEGEN--\":25479:25491   */\n      revert\n        /* \"--CODEGEN--\":25443:25445   */\n    tag_503:\n        /* \"--CODEGEN--\":25518:25522   */\n      0x20\n        /* \"--CODEGEN--\":25510:25516   */\n      dup3\n        /* \"--CODEGEN--\":25506:25523   */\n      mul\n        /* \"--CODEGEN--\":25498:25523   */\n      swap1\n      pop\n        /* \"--CODEGEN--\":25546:25550   */\n      0x20\n        /* \"--CODEGEN--\":25540:25544   */\n      dup2\n        /* \"--CODEGEN--\":25536:25551   */\n      add\n        /* \"--CODEGEN--\":25528:25551   */\n      swap1\n      pop\n        /* \"--CODEGEN--\":25380:25556   */\n      swap2\n      swap1\n      pop\n      jump\n        /* \"--CODEGEN--\":25563:25818   */\n    tag_278:\n      0x0\n        /* \"--CODEGEN--\":25703:25721   */\n      0xffffffffffffffff\n        /* \"--CODEGEN--\":25695:25701   */\n      dup3\n        /* \"--CODEGEN--\":25692:25722   */\n      gt\n        /* \"--CODEGEN--\":25689:25691   */\n      iszero\n      tag_505\n      jumpi\n        /* \"--CODEGEN--\":25735:25736   */\n      0x0\n        /* \"--CODEGEN--\":25732:25733   */\n      dup1\n        /* \"--CODEGEN--\":25725:25737   */\n      revert\n        /* \"--CODEGEN--\":25689:25691   */\n    tag_505:\n        /* \"--CODEGEN--\":25779:25783   */\n      0x1f\n        /* \"--CODEGEN--\":25775:25784   */\n      not\n        /* \"--CODEGEN--\":25768:25772   */\n      0x1f\n        /* \"--CODEGEN--\":25760:25766   */\n      dup4\n        /* \"--CODEGEN--\":25756:25773   */\n      add\n        /* \"--CODEGEN--\":25752:25785   */\n      and\n        /* \"--CODEGEN--\":25744:25785   */\n      swap1\n      pop\n        /* \"--CODEGEN--\":25808:25812   */\n      0x20\n        /* \"--CODEGEN--\":25802:25806   */\n      dup2\n        /* \"--CODEGEN--\":25798:25813   */\n      add\n        /* \"--CODEGEN--\":25790:25813   */\n      swap1\n      pop\n        /* \"--CODEGEN--\":25626:25818   */\n      swap2\n      swap1\n      pop\n      jump\n        /* \"--CODEGEN--\":25825:26084   */\n    tag_287:\n      0x0\n        /* \"--CODEGEN--\":25969:25987   */\n      0xffffffffffffffff\n        /* \"--CODEGEN--\":25961:25967   */\n      dup3\n        /* \"--CODEGEN--\":25958:25988   */\n      gt\n        /* \"--CODEGEN--\":25955:25957   */\n      iszero\n      tag_507\n      jumpi\n        /* \"--CODEGEN--\":26001:26002   */\n      0x0\n        /* \"--CODEGEN--\":25998:25999   */\n      dup1\n        /* \"--CODEGEN--\":25991:26003   */\n      revert\n        /* \"--CODEGEN--\":25955:25957   */\n    tag_507:\n        /* \"--CODEGEN--\":26045:26049   */\n      0x1f\n        /* \"--CODEGEN--\":26041:26050   */\n      not\n        /* \"--CODEGEN--\":26034:26038   */\n      0x1f\n        /* \"--CODEGEN--\":26026:26032   */\n      dup4\n        /* \"--CODEGEN--\":26022:26039   */\n      add\n        /* \"--CODEGEN--\":26018:26051   */\n      and\n        /* \"--CODEGEN--\":26010:26051   */\n      swap1\n      pop\n        /* \"--CODEGEN--\":26074:26078   */\n      0x20\n        /* \"--CODEGEN--\":26068:26072   */\n      dup2\n        /* \"--CODEGEN--\":26064:26079   */\n      add\n        /* \"--CODEGEN--\":26056:26079   */\n      swap1\n      pop\n        /* \"--CODEGEN--\":25892:26084   */\n      swap2\n      swap1\n      pop\n      jump\n        /* \"--CODEGEN--\":26093:26214   */\n    tag_363:\n      0x0\n        /* \"--CODEGEN--\":26202:26206   */\n      0x20\n        /* \"--CODEGEN--\":26194:26200   */\n      dup3\n        /* \"--CODEGEN--\":26190:26207   */\n      add\n        /* \"--CODEGEN--\":26179:26207   */\n      swap1\n      pop\n        /* \"--CODEGEN--\":26171:26214   */\n      swap2\n      swap1\n      pop\n      jump\n        /* \"--CODEGEN--\":26225:26352   */\n    tag_375:\n      0x0\n        /* \"--CODEGEN--\":26340:26344   */\n      0x20\n        /* \"--CODEGEN--\":26332:26338   */\n      dup3\n        /* \"--CODEGEN--\":26328:26345   */\n      add\n        /* \"--CODEGEN--\":26317:26345   */\n      swap1\n      pop\n        /* \"--CODEGEN--\":26309:26352   */\n      swap2\n      swap1\n      pop\n      jump\n        /* \"--CODEGEN--\":26363:26484   */\n    tag_388:\n      0x0\n        /* \"--CODEGEN--\":26472:26476   */\n      0x20\n        /* \"--CODEGEN--\":26464:26470   */\n      dup3\n        /* \"--CODEGEN--\":26460:26477   */\n      add\n        /* \"--CODEGEN--\":26449:26477   */\n      swap1\n      pop\n        /* \"--CODEGEN--\":26441:26484   */\n      swap2\n      swap1\n      pop\n      jump\n        /* \"--CODEGEN--\":26495:26614   */\n    tag_401:\n      0x0\n        /* \"--CODEGEN--\":26602:26606   */\n      0x20\n        /* \"--CODEGEN--\":26594:26600   */\n      dup3\n        /* \"--CODEGEN--\":26590:26607   */\n      add\n        /* \"--CODEGEN--\":26579:26607   */\n      swap1\n      pop\n        /* \"--CODEGEN--\":26571:26614   */\n      swap2\n      swap1\n      pop\n      jump\n        /* \"--CODEGEN--\":26623:26730   */\n    tag_361:\n      0x0\n        /* \"--CODEGEN--\":26719:26724   */\n      dup2\n        /* \"--CODEGEN--\":26713:26725   */\n      mload\n        /* \"--CODEGEN--\":26703:26725   */\n      swap1\n      pop\n        /* \"--CODEGEN--\":26697:26730   */\n      swap2\n      swap1\n      pop\n      jump\n        /* \"--CODEGEN--\":26737:26850   */\n    tag_373:\n      0x0\n        /* \"--CODEGEN--\":26839:26844   */\n      dup2\n        /* \"--CODEGEN--\":26833:26845   */\n      mload\n        /* \"--CODEGEN--\":26823:26845   */\n      swap1\n      pop\n        /* \"--CODEGEN--\":26817:26850   */\n      swap2\n      swap1\n      pop\n      jump\n        /* \"--CODEGEN--\":26857:26964   */\n    tag_386:\n      0x0\n        /* \"--CODEGEN--\":26953:26958   */\n      dup2\n        /* \"--CODEGEN--\":26947:26959   */\n      mload\n        /* \"--CODEGEN--\":26937:26959   */\n      swap1\n      pop\n        /* \"--CODEGEN--\":26931:26964   */\n      swap2\n      swap1\n      pop\n      jump\n        /* \"--CODEGEN--\":26971:27076   */\n    tag_399:\n      0x0\n        /* \"--CODEGEN--\":27065:27070   */\n      dup2\n        /* \"--CODEGEN--\":27059:27071   */\n      mload\n        /* \"--CODEGEN--\":27049:27071   */\n      swap1\n      pop\n        /* \"--CODEGEN--\":27043:27076   */\n      swap2\n      swap1\n      pop\n      jump\n        /* \"--CODEGEN--\":27083:27171   */\n    tag_422:\n      0x0\n        /* \"--CODEGEN--\":27160:27165   */\n      dup2\n        /* \"--CODEGEN--\":27154:27166   */\n      mload\n        /* \"--CODEGEN--\":27144:27166   */\n      swap1\n      pop\n        /* \"--CODEGEN--\":27138:27171   */\n      swap2\n      swap1\n      pop\n      jump\n        /* \"--CODEGEN--\":27178:27270   */\n    tag_416:\n      0x0\n        /* \"--CODEGEN--\":27259:27264   */\n      dup2\n        /* \"--CODEGEN--\":27253:27265   */\n      mload\n        /* \"--CODEGEN--\":27243:27265   */\n      swap1\n      pop\n        /* \"--CODEGEN--\":27237:27270   */\n      swap2\n      swap1\n      pop\n      jump\n        /* \"--CODEGEN--\":27278:27400   */\n    tag_369:\n      0x0\n        /* \"--CODEGEN--\":27389:27393   */\n      0x20\n        /* \"--CODEGEN--\":27381:27387   */\n      dup3\n        /* \"--CODEGEN--\":27377:27394   */\n      add\n        /* \"--CODEGEN--\":27366:27394   */\n      swap1\n      pop\n        /* \"--CODEGEN--\":27359:27400   */\n      swap2\n      swap1\n      pop\n      jump\n        /* \"--CODEGEN--\":27409:27537   */\n    tag_382:\n      0x0\n        /* \"--CODEGEN--\":27526:27530   */\n      0x20\n        /* \"--CODEGEN--\":27518:27524   */\n      dup3\n        /* \"--CODEGEN--\":27514:27531   */\n      add\n        /* \"--CODEGEN--\":27503:27531   */\n      swap1\n      pop\n        /* \"--CODEGEN--\":27496:27537   */\n      swap2\n      swap1\n      pop\n      jump\n        /* \"--CODEGEN--\":27546:27668   */\n    tag_395:\n      0x0\n        /* \"--CODEGEN--\":27657:27661   */\n      0x20\n        /* \"--CODEGEN--\":27649:27655   */\n      dup3\n        /* \"--CODEGEN--\":27645:27662   */\n      add\n        /* \"--CODEGEN--\":27634:27662   */\n      swap1\n      pop\n        /* \"--CODEGEN--\":27627:27668   */\n      swap2\n      swap1\n      pop\n      jump\n        /* \"--CODEGEN--\":27677:27797   */\n    tag_408:\n      0x0\n        /* \"--CODEGEN--\":27786:27790   */\n      0x20\n        /* \"--CODEGEN--\":27778:27784   */\n      dup3\n        /* \"--CODEGEN--\":27774:27791   */\n      add\n        /* \"--CODEGEN--\":27763:27791   */\n      swap1\n      pop\n        /* \"--CODEGEN--\":27756:27797   */\n      swap2\n      swap1\n      pop\n      jump\n        /* \"--CODEGEN--\":27805:27933   */\n    tag_357:\n      0x0\n        /* \"--CODEGEN--\":27885:27927   */\n      0xffffffffffffffffffffffffffffffffffffffff\n        /* \"--CODEGEN--\":27878:27883   */\n      dup3\n        /* \"--CODEGEN--\":27874:27928   */\n      and\n        /* \"--CODEGEN--\":27863:27928   */\n      swap1\n      pop\n        /* \"--CODEGEN--\":27857:27933   */\n      swap2\n      swap1\n      pop\n      jump\n        /* \"--CODEGEN--\":27940:28032   */\n    tag_412:\n      0x0\n        /* \"--CODEGEN--\":28020:28025   */\n      dup2\n        /* \"--CODEGEN--\":28013:28026   */\n      iszero\n        /* \"--CODEGEN--\":28006:28027   */\n      iszero\n        /* \"--CODEGEN--\":27995:28027   */\n      swap1\n      pop\n        /* \"--CODEGEN--\":27989:28032   */\n      swap2\n      swap1\n      pop\n      jump\n        /* \"--CODEGEN--\":28039:28118   */\n    tag_445:\n      0x0\n        /* \"--CODEGEN--\":28108:28113   */\n      dup2\n        /* \"--CODEGEN--\":28097:28113   */\n      swap1\n      pop\n        /* \"--CODEGEN--\":28091:28118   */\n      swap2\n      swap1\n      pop\n      jump\n        /* \"--CODEGEN--\":28125:28213   */\n    tag_448:\n      0x0\n        /* \"--CODEGEN--\":28203:28207   */\n      0xff\n        /* \"--CODEGEN--\":28196:28201   */\n      dup3\n        /* \"--CODEGEN--\":28192:28208   */\n      and\n        /* \"--CODEGEN--\":28181:28208   */\n      swap1\n      pop\n        /* \"--CODEGEN--\":28175:28213   */\n      swap2\n      swap1\n      pop\n      jump\n        /* \"--CODEGEN--\":28220:28348   */\n    tag_219:\n      0x0\n        /* \"--CODEGEN--\":28300:28342   */\n      0xffffffffffffffffffffffffffffffffffffffff\n        /* \"--CODEGEN--\":28293:28298   */\n      dup3\n        /* \"--CODEGEN--\":28289:28343   */\n      and\n        /* \"--CODEGEN--\":28278:28343   */\n      swap1\n      pop\n        /* \"--CODEGEN--\":28272:28348   */\n      swap2\n      swap1\n      pop\n      jump\n        /* \"--CODEGEN--\":28355:28447   */\n    tag_273:\n      0x0\n        /* \"--CODEGEN--\":28435:28440   */\n      dup2\n        /* \"--CODEGEN--\":28428:28441   */\n      iszero\n        /* \"--CODEGEN--\":28421:28442   */\n      iszero\n        /* \"--CODEGEN--\":28410:28442   */\n      swap1\n      pop\n        /* \"--CODEGEN--\":28404:28447   */\n      swap2\n      swap1\n      pop\n      jump\n        /* \"--CODEGEN--\":28454:28533   */\n    tag_301:\n      0x0\n        /* \"--CODEGEN--\":28523:28528   */\n      dup2\n        /* \"--CODEGEN--\":28512:28528   */\n      swap1\n      pop\n        /* \"--CODEGEN--\":28506:28533   */\n      swap2\n      swap1\n      pop\n      jump\n        /* \"--CODEGEN--\":28540:28628   */\n    tag_307:\n      0x0\n        /* \"--CODEGEN--\":28618:28622   */\n      0xff\n        /* \"--CODEGEN--\":28611:28616   */\n      dup3\n        /* \"--CODEGEN--\":28607:28623   */\n      and\n        /* \"--CODEGEN--\":28596:28623   */\n      swap1\n      pop\n        /* \"--CODEGEN--\":28590:28628   */\n      swap2\n      swap1\n      pop\n      jump\n        /* \"--CODEGEN--\":28636:28781   */\n    tag_290:\n        /* \"--CODEGEN--\":28717:28723   */\n      dup3\n        /* \"--CODEGEN--\":28712:28715   */\n      dup2\n        /* \"--CODEGEN--\":28707:28710   */\n      dup4\n        /* \"--CODEGEN--\":28694:28724   */\n      calldatacopy\n        /* \"--CODEGEN--\":28773:28774   */\n      0x0\n        /* \"--CODEGEN--\":28764:28770   */\n      dup4\n        /* \"--CODEGEN--\":28759:28762   */\n      dup4\n        /* \"--CODEGEN--\":28755:28771   */\n      add\n        /* \"--CODEGEN--\":28748:28775   */\n      mstore\n        /* \"--CODEGEN--\":28687:28781   */\n      pop\n      pop\n      pop\n      jump\n        /* \"--CODEGEN--\":28790:29058   */\n    tag_281:\n        /* \"--CODEGEN--\":28855:28856   */\n      0x0\n        /* \"--CODEGEN--\":28862:28963   */\n    tag_532:\n        /* \"--CODEGEN--\":28876:28882   */\n      dup4\n        /* \"--CODEGEN--\":28873:28874   */\n      dup2\n        /* \"--CODEGEN--\":28870:28883   */\n      lt\n        /* \"--CODEGEN--\":28862:28963   */\n      iszero\n      tag_533\n      jumpi\n        /* \"--CODEGEN--\":28952:28953   */\n      dup1\n        /* \"--CODEGEN--\":28947:28950   */\n      dup3\n        /* \"--CODEGEN--\":28943:28954   */\n      add\n        /* \"--CODEGEN--\":28937:28955   */\n      mload\n        /* \"--CODEGEN--\":28933:28934   */\n      dup2\n        /* \"--CODEGEN--\":28928:28931   */\n      dup5\n        /* \"--CODEGEN--\":28924:28935   */\n      add\n        /* \"--CODEGEN--\":28917:28956   */\n      mstore\n        /* \"--CODEGEN--\":28898:28900   */\n      0x20\n        /* \"--CODEGEN--\":28895:28896   */\n      dup2\n        /* \"--CODEGEN--\":28891:28901   */\n      add\n        /* \"--CODEGEN--\":28886:28901   */\n      swap1\n      pop\n        /* \"--CODEGEN--\":28862:28963   */\n      jump(tag_532)\n    tag_533:\n        /* \"--CODEGEN--\":28978:28984   */\n      dup4\n        /* \"--CODEGEN--\":28975:28976   */\n      dup2\n        /* \"--CODEGEN--\":28972:28985   */\n      gt\n        /* \"--CODEGEN--\":28969:28971   */\n      iszero\n      tag_535\n      jumpi\n        /* \"--CODEGEN--\":29043:29044   */\n      0x0\n        /* \"--CODEGEN--\":29034:29040   */\n      dup5\n        /* \"--CODEGEN--\":29029:29032   */\n      dup5\n        /* \"--CODEGEN--\":29025:29041   */\n      add\n        /* \"--CODEGEN--\":29018:29045   */\n      mstore\n        /* \"--CODEGEN--\":28969:28971   */\n    tag_535:\n        /* \"--CODEGEN--\":28839:29058   */\n      pop\n      pop\n      pop\n      pop\n      jump\n        /* \"--CODEGEN--\":29066:29163   */\n    tag_419:\n      0x0\n        /* \"--CODEGEN--\":29154:29156   */\n      0x1f\n        /* \"--CODEGEN--\":29150:29157   */\n      not\n        /* \"--CODEGEN--\":29145:29147   */\n      0x1f\n        /* \"--CODEGEN--\":29138:29143   */\n      dup4\n        /* \"--CODEGEN--\":29134:29148   */\n      add\n        /* \"--CODEGEN--\":29130:29158   */\n      and\n        /* \"--CODEGEN--\":29120:29158   */\n      swap1\n      pop\n        /* \"--CODEGEN--\":29114:29163   */\n      swap2\n      swap1\n      pop\n      jump\n    stop\n\n    sub_0: assembly {\n            /* \"fisco/EproductsInfoItem.sol\":131:2512  contract EproductsInfoItem{... */\n          mstore(0x40, 0x80)\n            /* \"fisco/EproductsInfoItem.sol\":792:1154  constructor(string name,string traceName,uint8 quality,address producer)public{... */\n          callvalue\n            /* \"--CODEGEN--\":8:17   */\n          dup1\n            /* \"--CODEGEN--\":5:7   */\n          iszero\n          tag_1\n          jumpi\n            /* \"--CODEGEN--\":30:31   */\n          0x0\n            /* \"--CODEGEN--\":27:28   */\n          dup1\n            /* \"--CODEGEN--\":20:32   */\n          revert\n            /* \"--CODEGEN--\":5:7   */\n        tag_1:\n            /* \"fisco/EproductsInfoItem.sol\":792:1154  constructor(string name,string traceName,uint8 quality,address producer)public{... */\n          pop\n          mload(0x40)\n          sub(codesize, bytecodeSize)\n          dup1\n          bytecodeSize\n          dup4\n          codecopy\n          dup2\n          add\n          dup1\n          0x40\n          mstore\n          tag_2\n          swap2\n          swap1\n          dup2\n          add\n          swap1\n          jump(tag_3)\n        tag_2:\n            /* \"fisco/EproductsInfoItem.sol\":880:890  _timestamp */\n          0x0\n            /* \"fisco/EproductsInfoItem.sol\":896:899  now */\n          timestamp\n            /* \"fisco/EproductsInfoItem.sol\":880:900  _timestamp.push(now) */\n          swap1\n          dup1\n            /* \"--CODEGEN--\":39:40   */\n          0x1\n            /* \"--CODEGEN--\":33:36   */\n          dup2\n            /* \"--CODEGEN--\":27:37   */\n          sload\n            /* \"--CODEGEN--\":23:41   */\n          add\n            /* \"--CODEGEN--\":57:67   */\n          dup1\n            /* \"--CODEGEN--\":52:55   */\n          dup3\n            /* \"--CODEGEN--\":45:68   */\n          sstore\n            /* \"--CODEGEN--\":79:89   */\n          dup1\n            /* \"--CODEGEN--\":72:89   */\n          swap2\n          pop\n            /* \"--CODEGEN--\":0:93   */\n          pop\n            /* \"fisco/EproductsInfoItem.sol\":880:900  _timestamp.push(now) */\n          swap1\n          0x1\n          dup3\n          sub\n          swap1\n          0x0\n          mstore\n          keccak256(0x0, 0x20)\n          add\n          0x0\n          swap1\n          swap2\n          swap3\n          swap1\n          swap2\n          swap1\n          swap2\n          pop\n          sstore\n          pop\n            /* \"fisco/EproductsInfoItem.sol\":910:920  _traceName */\n          0x1\n            /* \"fisco/EproductsInfoItem.sol\":926:935  traceName */\n          dup4\n            /* \"fisco/EproductsInfoItem.sol\":910:936  _traceName.push(traceName) */\n          swap1\n          dup1\n            /* \"--CODEGEN--\":39:40   */\n          0x1\n            /* \"--CODEGEN--\":33:36   */\n          dup2\n            /* \"--CODEGEN--\":27:37   */\n          sload\n            /* \"--CODEGEN--\":23:41   */\n          add\n            /* \"--CODEGEN--\":57:67   */\n          dup1\n            /* \"--CODEGEN--\":52:55   */\n          dup3\n            /* \"--CODEGEN--\":45:68   */\n          sstore\n            /* \"--CODEGEN--\":79:89   */\n          dup1\n            /* \"--CODEGEN--\":72:89   */\n          swap2\n          pop\n            /* \"--CODEGEN--\":0:93   */\n          pop\n            /* \"fisco/EproductsInfoItem.sol\":910:936  _traceName.push(traceName) */\n          swap1\n          0x1\n          dup3\n          sub\n          swap1\n          0x0\n          mstore\n          keccak256(0x0, 0x20)\n          add\n          0x0\n          swap1\n          swap2\n          swap3\n          swap1\n          swap2\n          swap1\n          swap2\n          pop\n          swap1\n          dup1\n          mload\n          swap1\n          0x20\n          add\n          swap1\n          tag_8\n          swap3\n          swap2\n          swap1\n          jump\t// in(tag_9)\n        tag_8:\n          pop\n          pop\n            /* \"fisco/EproductsInfoItem.sol\":946:959  _traceAddress */\n          0x2\n            /* \"fisco/EproductsInfoItem.sol\":965:973  producer */\n          dup2\n            /* \"fisco/EproductsInfoItem.sol\":946:974  _traceAddress.push(producer) */\n          swap1\n          dup1\n            /* \"--CODEGEN--\":39:40   */\n          0x1\n            /* \"--CODEGEN--\":33:36   */\n          dup2\n            /* \"--CODEGEN--\":27:37   */\n          sload\n            /* \"--CODEGEN--\":23:41   */\n          add\n            /* \"--CODEGEN--\":57:67   */\n          dup1\n            /* \"--CODEGEN--\":52:55   */\n          dup3\n            /* \"--CODEGEN--\":45:68   */\n          sstore\n            /* \"--CODEGEN--\":79:89   */\n          dup1\n            /* \"--CODEGEN--\":72:89   */\n          swap2\n          pop\n            /* \"--CODEGEN--\":0:93   */\n          pop\n            /* \"fisco/EproductsInfoItem.sol\":946:974  _traceAddress.push(producer) */\n          swap1\n          0x1\n          dup3\n          sub\n          swap1\n          0x0\n          mstore\n          keccak256(0x0, 0x20)\n          add\n          0x0\n          swap1\n          swap2\n          swap3\n          swap1\n          swap2\n          swap1\n          swap2\n          0x100\n          exp\n          dup2\n          sload\n          dup2\n          0xffffffffffffffffffffffffffffffffffffffff\n          mul\n          not\n          and\n          swap1\n          dup4\n          0xffffffffffffffffffffffffffffffffffffffff\n          and\n          mul\n          or\n          swap1\n          sstore\n          pop\n          pop\n            /* \"fisco/EproductsInfoItem.sol\":984:997  _traceQuality */\n          0x3\n            /* \"fisco/EproductsInfoItem.sol\":1003:1010  quality */\n          dup3\n            /* \"fisco/EproductsInfoItem.sol\":984:1011  _traceQuality.push(quality) */\n          swap1\n          dup1\n            /* \"--CODEGEN--\":39:40   */\n          0x1\n            /* \"--CODEGEN--\":33:36   */\n          dup2\n            /* \"--CODEGEN--\":27:37   */\n          sload\n            /* \"--CODEGEN--\":23:41   */\n          add\n            /* \"--CODEGEN--\":57:67   */\n          dup1\n            /* \"--CODEGEN--\":52:55   */\n          dup3\n            /* \"--CODEGEN--\":45:68   */\n          sstore\n            /* \"--CODEGEN--\":79:89   */\n          dup1\n            /* \"--CODEGEN--\":72:89   */\n          swap2\n          pop\n            /* \"--CODEGEN--\":0:93   */\n          pop\n            /* \"fisco/EproductsInfoItem.sol\":984:1011  _traceQuality.push(quality) */\n          swap1\n          0x1\n          dup3\n          sub\n          swap1\n          0x0\n          mstore\n          keccak256(0x0, 0x20)\n          swap1\n          0x20\n          swap2\n          dup3\n          dup3\n          div\n          add\n          swap2\n          swap1\n          mod\n          swap1\n          swap2\n          swap3\n          swap1\n          swap2\n          swap1\n          swap2\n          0x100\n          exp\n          dup2\n          sload\n          dup2\n          0xff\n          mul\n          not\n          and\n          swap1\n          dup4\n          0xff\n          and\n          mul\n          or\n          swap1\n          sstore\n          pop\n          pop\n            /* \"fisco/EproductsInfoItem.sol\":1029:1033  name */\n          dup4\n            /* \"fisco/EproductsInfoItem.sol\":1021:1026  _name */\n          0x4\n            /* \"fisco/EproductsInfoItem.sol\":1021:1033  _name = name */\n          swap1\n          dup1\n          mload\n          swap1\n          0x20\n          add\n          swap1\n          tag_12\n          swap3\n          swap2\n          swap1\n          jump\t// in(tag_9)\n        tag_12:\n          pop\n            /* \"fisco/EproductsInfoItem.sol\":1061:1070  traceName */\n          dup3\n            /* \"fisco/EproductsInfoItem.sol\":1043:1060  _currentTraceName */\n          0x5\n            /* \"fisco/EproductsInfoItem.sol\":1043:1070  _currentTraceName=traceName */\n          swap1\n          dup1\n          mload\n          swap1\n          0x20\n          add\n          swap1\n          tag_13\n          swap3\n          swap2\n          swap1\n          jump\t// in(tag_9)\n        tag_13:\n          pop\n            /* \"fisco/EproductsInfoItem.sol\":1091:1098  quality */\n          dup2\n            /* \"fisco/EproductsInfoItem.sol\":1080:1088  _quality */\n          0x6\n          0x0\n            /* \"fisco/EproductsInfoItem.sol\":1080:1098  _quality = quality */\n          0x100\n          exp\n          dup2\n          sload\n          dup2\n          0xff\n          mul\n          not\n          and\n          swap1\n          dup4\n          0xff\n          and\n          mul\n          or\n          swap1\n          sstore\n          pop\n            /* \"fisco/EproductsInfoItem.sol\":1117:1118  0 */\n          0x0\n            /* \"fisco/EproductsInfoItem.sol\":1108:1115  _status */\n          0x6\n          0x1\n            /* \"fisco/EproductsInfoItem.sol\":1108:1118  _status= 0 */\n          0x100\n          exp\n          dup2\n          sload\n          dup2\n          0xff\n          mul\n          not\n          and\n          swap1\n          dup4\n          0xff\n          and\n          mul\n          or\n          swap1\n          sstore\n          pop\n            /* \"fisco/EproductsInfoItem.sol\":1137:1147  msg.sender */\n          caller\n            /* \"fisco/EproductsInfoItem.sol\":1128:1134  _owner */\n          0x6\n          0x2\n            /* \"fisco/EproductsInfoItem.sol\":1128:1147  _owner = msg.sender */\n          0x100\n          exp\n          dup2\n          sload\n          dup2\n          0xffffffffffffffffffffffffffffffffffffffff\n          mul\n          not\n          and\n          swap1\n          dup4\n          0xffffffffffffffffffffffffffffffffffffffff\n          and\n          mul\n          or\n          swap1\n          sstore\n          pop\n            /* \"fisco/EproductsInfoItem.sol\":792:1154  constructor(string name,string traceName,uint8 quality,address producer)public{... */\n          pop\n          pop\n          pop\n          pop\n            /* \"fisco/EproductsInfoItem.sol\":131:2512  contract EproductsInfoItem{... */\n          jump(tag_14)\n        tag_9:\n          dup3\n          dup1\n          sload\n          0x1\n          dup2\n          0x1\n          and\n          iszero\n          0x100\n          mul\n          sub\n          and\n          0x2\n          swap1\n          div\n          swap1\n          0x0\n          mstore\n          keccak256(0x0, 0x20)\n          swap1\n          0x1f\n          add\n          0x20\n          swap1\n          div\n          dup2\n          add\n          swap3\n          dup3\n          0x1f\n          lt\n          tag_16\n          jumpi\n          dup1\n          mload\n          not(0xff)\n          and\n          dup4\n          dup1\n          add\n          or\n          dup6\n          sstore\n          jump(tag_15)\n        tag_16:\n          dup3\n          dup1\n          add\n          0x1\n          add\n          dup6\n          sstore\n          dup3\n          iszero\n          tag_15\n          jumpi\n          swap2\n          dup3\n          add\n        tag_17:\n          dup3\n          dup2\n          gt\n          iszero\n          tag_18\n          jumpi\n          dup3\n          mload\n          dup3\n          sstore\n          swap2\n          0x20\n          add\n          swap2\n          swap1\n          0x1\n          add\n          swap1\n          jump(tag_17)\n        tag_18:\n        tag_15:\n          pop\n          swap1\n          pop\n          tag_19\n          swap2\n          swap1\n          jump\t// in(tag_20)\n        tag_19:\n          pop\n          swap1\n          jump\t// out\n        tag_20:\n          tag_21\n          swap2\n          swap1\n        tag_22:\n          dup1\n          dup3\n          gt\n          iszero\n          tag_23\n          jumpi\n          0x0\n          dup2\n          0x0\n          swap1\n          sstore\n          pop\n          0x1\n          add\n          jump(tag_22)\n        tag_23:\n          pop\n          swap1\n          jump\n        tag_21:\n          swap1\n          jump\t// out\n            /* \"--CODEGEN--\":5:127   */\n        tag_25:\n          0x0\n            /* \"--CODEGEN--\":83:122   */\n          tag_26\n            /* \"--CODEGEN--\":114:120   */\n          dup3\n            /* \"--CODEGEN--\":108:121   */\n          mload\n            /* \"--CODEGEN--\":83:122   */\n          jump(tag_27)\n        tag_26:\n            /* \"--CODEGEN--\":74:122   */\n          swap1\n          pop\n            /* \"--CODEGEN--\":68:127   */\n          swap3\n          swap2\n          pop\n          pop\n          jump\n            /* \"--CODEGEN--\":135:579   */\n        tag_29:\n          0x0\n            /* \"--CODEGEN--\":248:251   */\n          dup3\n            /* \"--CODEGEN--\":241:245   */\n          0x1f\n            /* \"--CODEGEN--\":233:239   */\n          dup4\n            /* \"--CODEGEN--\":229:246   */\n          add\n            /* \"--CODEGEN--\":225:252   */\n          slt\n            /* \"--CODEGEN--\":218:253   */\n          iszero\n            /* \"--CODEGEN--\":215:217   */\n          iszero\n          tag_30\n          jumpi\n            /* \"--CODEGEN--\":266:267   */\n          0x0\n            /* \"--CODEGEN--\":263:264   */\n          dup1\n            /* \"--CODEGEN--\":256:268   */\n          revert\n            /* \"--CODEGEN--\":215:217   */\n        tag_30:\n            /* \"--CODEGEN--\":296:302   */\n          dup2\n            /* \"--CODEGEN--\":290:303   */\n          mload\n            /* \"--CODEGEN--\":318:383   */\n          tag_31\n            /* \"--CODEGEN--\":333:382   */\n          tag_32\n            /* \"--CODEGEN--\":375:381   */\n          dup3\n            /* \"--CODEGEN--\":333:382   */\n          jump(tag_33)\n        tag_32:\n            /* \"--CODEGEN--\":318:383   */\n          jump(tag_34)\n        tag_31:\n            /* \"--CODEGEN--\":309:383   */\n          swap2\n          pop\n            /* \"--CODEGEN--\":403:409   */\n          dup1\n            /* \"--CODEGEN--\":396:401   */\n          dup3\n            /* \"--CODEGEN--\":389:410   */\n          mstore\n            /* \"--CODEGEN--\":439:443   */\n          0x20\n            /* \"--CODEGEN--\":431:437   */\n          dup4\n            /* \"--CODEGEN--\":427:444   */\n          add\n            /* \"--CODEGEN--\":472:476   */\n          0x20\n            /* \"--CODEGEN--\":465:470   */\n          dup4\n            /* \"--CODEGEN--\":461:477   */\n          add\n            /* \"--CODEGEN--\":507:510   */\n          dup6\n            /* \"--CODEGEN--\":498:504   */\n          dup4\n            /* \"--CODEGEN--\":493:496   */\n          dup4\n            /* \"--CODEGEN--\":489:505   */\n          add\n            /* \"--CODEGEN--\":486:511   */\n          gt\n            /* \"--CODEGEN--\":483:485   */\n          iszero\n          tag_35\n          jumpi\n            /* \"--CODEGEN--\":524:525   */\n          0x0\n            /* \"--CODEGEN--\":521:522   */\n          dup1\n            /* \"--CODEGEN--\":514:526   */\n          revert\n            /* \"--CODEGEN--\":483:485   */\n        tag_35:\n            /* \"--CODEGEN--\":534:573   */\n          tag_36\n            /* \"--CODEGEN--\":566:572   */\n          dup4\n            /* \"--CODEGEN--\":561:564   */\n          dup3\n            /* \"--CODEGEN--\":556:559   */\n          dup5\n            /* \"--CODEGEN--\":534:573   */\n          jump(tag_37)\n        tag_36:\n            /* \"--CODEGEN--\":208:579   */\n          pop\n          pop\n          pop\n          swap3\n          swap2\n          pop\n          pop\n          jump\n            /* \"--CODEGEN--\":587:705   */\n        tag_39:\n          0x0\n            /* \"--CODEGEN--\":663:700   */\n          tag_40\n            /* \"--CODEGEN--\":692:698   */\n          dup3\n            /* \"--CODEGEN--\":686:699   */\n          mload\n            /* \"--CODEGEN--\":663:700   */\n          jump(tag_41)\n        tag_40:\n            /* \"--CODEGEN--\":654:700   */\n          swap1\n          pop\n            /* \"--CODEGEN--\":648:705   */\n          swap3\n          swap2\n          pop\n          pop\n          jump\n            /* \"--CODEGEN--\":712:1578   */\n        tag_3:\n          0x0\n          dup1\n          0x0\n          dup1\n            /* \"--CODEGEN--\":896:899   */\n          0x80\n            /* \"--CODEGEN--\":884:893   */\n          dup6\n            /* \"--CODEGEN--\":875:882   */\n          dup8\n            /* \"--CODEGEN--\":871:894   */\n          sub\n            /* \"--CODEGEN--\":867:900   */\n          slt\n            /* \"--CODEGEN--\":864:866   */\n          iszero\n          tag_43\n          jumpi\n            /* \"--CODEGEN--\":913:914   */\n          0x0\n            /* \"--CODEGEN--\":910:911   */\n          dup1\n            /* \"--CODEGEN--\":903:915   */\n          revert\n            /* \"--CODEGEN--\":864:866   */\n        tag_43:\n            /* \"--CODEGEN--\":969:970   */\n          0x0\n            /* \"--CODEGEN--\":958:967   */\n          dup6\n            /* \"--CODEGEN--\":954:971   */\n          add\n            /* \"--CODEGEN--\":948:972   */\n          mload\n            /* \"--CODEGEN--\":992:1010   */\n          0xffffffffffffffff\n            /* \"--CODEGEN--\":984:990   */\n          dup2\n            /* \"--CODEGEN--\":981:1011   */\n          gt\n            /* \"--CODEGEN--\":978:980   */\n          iszero\n          tag_44\n          jumpi\n            /* \"--CODEGEN--\":1024:1025   */\n          0x0\n            /* \"--CODEGEN--\":1021:1022   */\n          dup1\n            /* \"--CODEGEN--\":1014:1026   */\n          revert\n            /* \"--CODEGEN--\":978:980   */\n        tag_44:\n            /* \"--CODEGEN--\":1044:1118   */\n          tag_45\n            /* \"--CODEGEN--\":1110:1117   */\n          dup8\n            /* \"--CODEGEN--\":1101:1107   */\n          dup3\n            /* \"--CODEGEN--\":1090:1099   */\n          dup9\n            /* \"--CODEGEN--\":1086:1108   */\n          add\n            /* \"--CODEGEN--\":1044:1118   */\n          jump(tag_29)\n        tag_45:\n            /* \"--CODEGEN--\":1034:1118   */\n          swap5\n          pop\n            /* \"--CODEGEN--\":927:1124   */\n          pop\n            /* \"--CODEGEN--\":1176:1178   */\n          0x20\n            /* \"--CODEGEN--\":1165:1174   */\n          dup6\n            /* \"--CODEGEN--\":1161:1179   */\n          add\n            /* \"--CODEGEN--\":1155:1180   */\n          mload\n            /* \"--CODEGEN--\":1200:1218   */\n          0xffffffffffffffff\n            /* \"--CODEGEN--\":1192:1198   */\n          dup2\n            /* \"--CODEGEN--\":1189:1219   */\n          gt\n            /* \"--CODEGEN--\":1186:1188   */\n          iszero\n          tag_46\n          jumpi\n            /* \"--CODEGEN--\":1232:1233   */\n          0x0\n            /* \"--CODEGEN--\":1229:1230   */\n          dup1\n            /* \"--CODEGEN--\":1222:1234   */\n          revert\n            /* \"--CODEGEN--\":1186:1188   */\n        tag_46:\n            /* \"--CODEGEN--\":1252:1326   */\n          tag_47\n            /* \"--CODEGEN--\":1318:1325   */\n          dup8\n            /* \"--CODEGEN--\":1309:1315   */\n          dup3\n            /* \"--CODEGEN--\":1298:1307   */\n          dup9\n            /* \"--CODEGEN--\":1294:1316   */\n          add\n            /* \"--CODEGEN--\":1252:1326   */\n          jump(tag_29)\n        tag_47:\n            /* \"--CODEGEN--\":1242:1326   */\n          swap4\n          pop\n            /* \"--CODEGEN--\":1134:1332   */\n          pop\n            /* \"--CODEGEN--\":1363:1365   */\n          0x40\n            /* \"--CODEGEN--\":1381:1443   */\n          tag_48\n            /* \"--CODEGEN--\":1435:1442   */\n          dup8\n            /* \"--CODEGEN--\":1426:1432   */\n          dup3\n            /* \"--CODEGEN--\":1415:1424   */\n          dup9\n            /* \"--CODEGEN--\":1411:1433   */\n          add\n            /* \"--CODEGEN--\":1381:1443   */\n          jump(tag_39)\n        tag_48:\n            /* \"--CODEGEN--\":1371:1443   */\n          swap3\n          pop\n            /* \"--CODEGEN--\":1342:1449   */\n          pop\n            /* \"--CODEGEN--\":1480:1482   */\n          0x60\n            /* \"--CODEGEN--\":1498:1562   */\n          tag_49\n            /* \"--CODEGEN--\":1554:1561   */\n          dup8\n            /* \"--CODEGEN--\":1545:1551   */\n          dup3\n            /* \"--CODEGEN--\":1534:1543   */\n          dup9\n            /* \"--CODEGEN--\":1530:1552   */\n          add\n            /* \"--CODEGEN--\":1498:1562   */\n          jump(tag_25)\n        tag_49:\n            /* \"--CODEGEN--\":1488:1562   */\n          swap2\n          pop\n            /* \"--CODEGEN--\":1459:1568   */\n          pop\n            /* \"--CODEGEN--\":858:1578   */\n          swap3\n          swap6\n          swap2\n          swap5\n          pop\n          swap3\n          pop\n          jump\n            /* \"--CODEGEN--\":1585:1841   */\n        tag_34:\n          0x0\n            /* \"--CODEGEN--\":1647:1649   */\n          0x40\n            /* \"--CODEGEN--\":1641:1650   */\n          mload\n            /* \"--CODEGEN--\":1631:1650   */\n          swap1\n          pop\n            /* \"--CODEGEN--\":1685:1689   */\n          dup2\n            /* \"--CODEGEN--\":1677:1683   */\n          dup2\n            /* \"--CODEGEN--\":1673:1690   */\n          add\n            /* \"--CODEGEN--\":1784:1790   */\n          dup2\n            /* \"--CODEGEN--\":1772:1782   */\n          dup2\n            /* \"--CODEGEN--\":1769:1791   */\n          lt\n            /* \"--CODEGEN--\":1748:1766   */\n          0xffffffffffffffff\n            /* \"--CODEGEN--\":1736:1746   */\n          dup3\n            /* \"--CODEGEN--\":1733:1767   */\n          gt\n            /* \"--CODEGEN--\":1730:1792   */\n          or\n            /* \"--CODEGEN--\":1727:1729   */\n          iszero\n          tag_51\n          jumpi\n            /* \"--CODEGEN--\":1805:1806   */\n          0x0\n            /* \"--CODEGEN--\":1802:1803   */\n          dup1\n            /* \"--CODEGEN--\":1795:1807   */\n          revert\n            /* \"--CODEGEN--\":1727:1729   */\n        tag_51:\n            /* \"--CODEGEN--\":1825:1835   */\n          dup1\n            /* \"--CODEGEN--\":1821:1823   */\n          0x40\n            /* \"--CODEGEN--\":1814:1836   */\n          mstore\n            /* \"--CODEGEN--\":1625:1841   */\n          pop\n          swap2\n          swap1\n          pop\n          jump\n            /* \"--CODEGEN--\":1848:2107   */\n        tag_33:\n          0x0\n            /* \"--CODEGEN--\":1992:2010   */\n          0xffffffffffffffff\n            /* \"--CODEGEN--\":1984:1990   */\n          dup3\n            /* \"--CODEGEN--\":1981:2011   */\n          gt\n            /* \"--CODEGEN--\":1978:1980   */\n          iszero\n          tag_53\n          jumpi\n            /* \"--CODEGEN--\":2024:2025   */\n          0x0\n            /* \"--CODEGEN--\":2021:2022   */\n          dup1\n            /* \"--CODEGEN--\":2014:2026   */\n          revert\n            /* \"--CODEGEN--\":1978:1980   */\n        tag_53:\n            /* \"--CODEGEN--\":2068:2072   */\n          0x1f\n            /* \"--CODEGEN--\":2064:2073   */\n          not\n            /* \"--CODEGEN--\":2057:2061   */\n          0x1f\n            /* \"--CODEGEN--\":2049:2055   */\n          dup4\n            /* \"--CODEGEN--\":2045:2062   */\n          add\n            /* \"--CODEGEN--\":2041:2074   */\n          and\n            /* \"--CODEGEN--\":2033:2074   */\n          swap1\n          pop\n            /* \"--CODEGEN--\":2097:2101   */\n          0x20\n            /* \"--CODEGEN--\":2091:2095   */\n          dup2\n            /* \"--CODEGEN--\":2087:2102   */\n          add\n            /* \"--CODEGEN--\":2079:2102   */\n          swap1\n          pop\n            /* \"--CODEGEN--\":1915:2107   */\n          swap2\n          swap1\n          pop\n          jump\n            /* \"--CODEGEN--\":2114:2242   */\n        tag_27:\n          0x0\n            /* \"--CODEGEN--\":2194:2236   */\n          0xffffffffffffffffffffffffffffffffffffffff\n            /* \"--CODEGEN--\":2187:2192   */\n          dup3\n            /* \"--CODEGEN--\":2183:2237   */\n          and\n            /* \"--CODEGEN--\":2172:2237   */\n          swap1\n          pop\n            /* \"--CODEGEN--\":2166:2242   */\n          swap2\n          swap1\n          pop\n          jump\n            /* \"--CODEGEN--\":2249:2337   */\n        tag_41:\n          0x0\n            /* \"--CODEGEN--\":2327:2331   */\n          0xff\n            /* \"--CODEGEN--\":2320:2325   */\n          dup3\n            /* \"--CODEGEN--\":2316:2332   */\n          and\n            /* \"--CODEGEN--\":2305:2332   */\n          swap1\n          pop\n            /* \"--CODEGEN--\":2299:2337   */\n          swap2\n          swap1\n          pop\n          jump\n            /* \"--CODEGEN--\":2345:2613   */\n        tag_37:\n            /* \"--CODEGEN--\":2410:2411   */\n          0x0\n            /* \"--CODEGEN--\":2417:2518   */\n        tag_57:\n            /* \"--CODEGEN--\":2431:2437   */\n          dup4\n            /* \"--CODEGEN--\":2428:2429   */\n          dup2\n            /* \"--CODEGEN--\":2425:2438   */\n          lt\n            /* \"--CODEGEN--\":2417:2518   */\n          iszero\n          tag_58\n          jumpi\n            /* \"--CODEGEN--\":2507:2508   */\n          dup1\n            /* \"--CODEGEN--\":2502:2505   */\n          dup3\n            /* \"--CODEGEN--\":2498:2509   */\n          add\n            /* \"--CODEGEN--\":2492:2510   */\n          mload\n            /* \"--CODEGEN--\":2488:2489   */\n          dup2\n            /* \"--CODEGEN--\":2483:2486   */\n          dup5\n            /* \"--CODEGEN--\":2479:2490   */\n          add\n            /* \"--CODEGEN--\":2472:2511   */\n          mstore\n            /* \"--CODEGEN--\":2453:2455   */\n          0x20\n            /* \"--CODEGEN--\":2450:2451   */\n          dup2\n            /* \"--CODEGEN--\":2446:2456   */\n          add\n            /* \"--CODEGEN--\":2441:2456   */\n          swap1\n          pop\n            /* \"--CODEGEN--\":2417:2518   */\n          jump(tag_57)\n        tag_58:\n            /* \"--CODEGEN--\":2533:2539   */\n          dup4\n            /* \"--CODEGEN--\":2530:2531   */\n          dup2\n            /* \"--CODEGEN--\":2527:2540   */\n          gt\n            /* \"--CODEGEN--\":2524:2526   */\n          iszero\n          tag_60\n          jumpi\n            /* \"--CODEGEN--\":2598:2599   */\n          0x0\n            /* \"--CODEGEN--\":2589:2595   */\n          dup5\n            /* \"--CODEGEN--\":2584:2587   */\n          dup5\n            /* \"--CODEGEN--\":2580:2596   */\n          add\n            /* \"--CODEGEN--\":2573:2600   */\n          mstore\n            /* \"--CODEGEN--\":2524:2526   */\n        tag_60:\n            /* \"--CODEGEN--\":2394:2613   */\n          pop\n          pop\n          pop\n          pop\n          jump\n            /* \"fisco/EproductsInfoItem.sol\":131:2512  contract EproductsInfoItem{... */\n        tag_14:\n          dataSize(sub_0)\n          dup1\n          dataOffset(sub_0)\n          0x0\n          codecopy\n          0x0\n          return\n        stop\n\n        sub_0: assembly {\n                /* \"fisco/EproductsInfoItem.sol\":131:2512  contract EproductsInfoItem{... */\n              mstore(0x40, 0x80)\n              jumpi(tag_1, lt(calldatasize, 0x4))\n              calldataload(0x0)\n              0x100000000000000000000000000000000000000000000000000000000\n              swap1\n              div\n              0xffffffff\n              and\n              dup1\n              0x6e72967\n              eq\n              tag_2\n              jumpi\n              dup1\n              0x1a772baf\n              eq\n              tag_3\n              jumpi\n              dup1\n              0xf0d984e4\n              eq\n              tag_4\n              jumpi\n              dup1\n              0xf650350d\n              eq\n              tag_5\n              jumpi\n            tag_1:\n              0x0\n              dup1\n              revert\n                /* \"fisco/EproductsInfoItem.sol\":1159:1648  function addTraceInfoByDistributor(string traceName,address distributor,uint8 quality)public returns(bool){... */\n            tag_2:\n              callvalue\n                /* \"--CODEGEN--\":8:17   */\n              dup1\n                /* \"--CODEGEN--\":5:7   */\n              iszero\n              tag_6\n              jumpi\n                /* \"--CODEGEN--\":30:31   */\n              0x0\n                /* \"--CODEGEN--\":27:28   */\n              dup1\n                /* \"--CODEGEN--\":20:32   */\n              revert\n                /* \"--CODEGEN--\":5:7   */\n            tag_6:\n                /* \"fisco/EproductsInfoItem.sol\":1159:1648  function addTraceInfoByDistributor(string traceName,address distributor,uint8 quality)public returns(bool){... */\n              pop\n              tag_7\n              0x4\n              dup1\n              calldatasize\n              sub\n              tag_8\n              swap2\n              swap1\n              dup2\n              add\n              swap1\n              jump(tag_9)\n            tag_8:\n              jump(tag_10)\n            tag_7:\n              mload(0x40)\n              tag_11\n              swap2\n              swap1\n              jump(tag_12)\n            tag_11:\n              mload(0x40)\n              dup1\n              swap2\n              sub\n              swap1\n              return\n                /* \"fisco/EproductsInfoItem.sol\":2317:2507  function getEproducts()public constant returns(uint,string,string,string,address,uint8){... */\n            tag_3:\n              callvalue\n                /* \"--CODEGEN--\":8:17   */\n              dup1\n                /* \"--CODEGEN--\":5:7   */\n              iszero\n              tag_13\n              jumpi\n                /* \"--CODEGEN--\":30:31   */\n              0x0\n                /* \"--CODEGEN--\":27:28   */\n              dup1\n                /* \"--CODEGEN--\":20:32   */\n              revert\n                /* \"--CODEGEN--\":5:7   */\n            tag_13:\n                /* \"fisco/EproductsInfoItem.sol\":2317:2507  function getEproducts()public constant returns(uint,string,string,string,address,uint8){... */\n              pop\n              tag_14\n              jump(tag_15)\n            tag_14:\n              mload(0x40)\n              tag_16\n              swap7\n              swap6\n              swap5\n              swap4\n              swap3\n              swap2\n              swap1\n              jump(tag_17)\n            tag_16:\n              mload(0x40)\n              dup1\n              swap2\n              sub\n              swap1\n              return\n                /* \"fisco/EproductsInfoItem.sol\":2149:2310  function getTraceInfo()public constant returns(uint[],string[],address[],uint8[]){... */\n            tag_4:\n              callvalue\n                /* \"--CODEGEN--\":8:17   */\n              dup1\n                /* \"--CODEGEN--\":5:7   */\n              iszero\n              tag_18\n              jumpi\n                /* \"--CODEGEN--\":30:31   */\n              0x0\n                /* \"--CODEGEN--\":27:28   */\n              dup1\n                /* \"--CODEGEN--\":20:32   */\n              revert\n                /* \"--CODEGEN--\":5:7   */\n            tag_18:\n                /* \"fisco/EproductsInfoItem.sol\":2149:2310  function getTraceInfo()public constant returns(uint[],string[],address[],uint8[]){... */\n              pop\n              tag_19\n              jump(tag_20)\n            tag_19:\n              mload(0x40)\n              tag_21\n              swap5\n              swap4\n              swap3\n              swap2\n              swap1\n              jump(tag_22)\n            tag_21:\n              mload(0x40)\n              dup1\n              swap2\n              sub\n              swap1\n              return\n                /* \"fisco/EproductsInfoItem.sol\":1654:2140  function addTraceInfoByRetailer(string traceName, address retailer,uint8 quality)public returns(bool){... */\n            tag_5:\n              callvalue\n                /* \"--CODEGEN--\":8:17   */\n              dup1\n                /* \"--CODEGEN--\":5:7   */\n              iszero\n              tag_23\n              jumpi\n                /* \"--CODEGEN--\":30:31   */\n              0x0\n                /* \"--CODEGEN--\":27:28   */\n              dup1\n                /* \"--CODEGEN--\":20:32   */\n              revert\n                /* \"--CODEGEN--\":5:7   */\n            tag_23:\n                /* \"fisco/EproductsInfoItem.sol\":1654:2140  function addTraceInfoByRetailer(string traceName, address retailer,uint8 quality)public returns(bool){... */\n              pop\n              tag_24\n              0x4\n              dup1\n              calldatasize\n              sub\n              tag_25\n              swap2\n              swap1\n              dup2\n              add\n              swap1\n              jump(tag_9)\n            tag_25:\n              jump(tag_26)\n            tag_24:\n              mload(0x40)\n              tag_27\n              swap2\n              swap1\n              jump(tag_12)\n            tag_27:\n              mload(0x40)\n              dup1\n              swap2\n              sub\n              swap1\n              return\n                /* \"fisco/EproductsInfoItem.sol\":1159:1648  function addTraceInfoByDistributor(string traceName,address distributor,uint8 quality)public returns(bool){... */\n            tag_10:\n                /* \"fisco/EproductsInfoItem.sol\":1260:1264  bool */\n              0x0\n                /* \"fisco/EproductsInfoItem.sol\":1293:1294  0 */\n              dup1\n                /* \"fisco/EproductsInfoItem.sol\":1284:1291  _status */\n              0x6\n              0x1\n              swap1\n              sload\n              swap1\n              0x100\n              exp\n              swap1\n              div\n              0xff\n              and\n                /* \"fisco/EproductsInfoItem.sol\":1284:1294  _status==0 */\n              0xff\n              and\n              eq\n                /* \"fisco/EproductsInfoItem.sol\":1276:1322  require(_status==0,\"status must be producing\") */\n              iszero\n              iszero\n              tag_29\n              jumpi\n              mload(0x40)\n              0x8c379a000000000000000000000000000000000000000000000000000000000\n              dup2\n              mstore\n              0x4\n              add\n              tag_30\n              swap1\n              jump(tag_31)\n            tag_30:\n              mload(0x40)\n              dup1\n              swap2\n              sub\n              swap1\n              revert\n            tag_29:\n                /* \"fisco/EproductsInfoItem.sol\":1348:1358  msg.sender */\n              caller\n                /* \"fisco/EproductsInfoItem.sol\":1340:1358  _owner==msg.sender */\n              0xffffffffffffffffffffffffffffffffffffffff\n              and\n                /* \"fisco/EproductsInfoItem.sol\":1340:1346  _owner */\n              0x6\n              0x2\n              swap1\n              sload\n              swap1\n              0x100\n              exp\n              swap1\n              div\n              0xffffffffffffffffffffffffffffffffffffffff\n              and\n                /* \"fisco/EproductsInfoItem.sol\":1340:1358  _owner==msg.sender */\n              0xffffffffffffffffffffffffffffffffffffffff\n              and\n              eq\n                /* \"fisco/EproductsInfoItem.sol\":1332:1392  require(_owner==msg.sender,\"only trace contract can invoke\") */\n              iszero\n              iszero\n              tag_32\n              jumpi\n              mload(0x40)\n              0x8c379a000000000000000000000000000000000000000000000000000000000\n              dup2\n              mstore\n              0x4\n              add\n              tag_33\n              swap1\n              jump(tag_34)\n            tag_33:\n              mload(0x40)\n              dup1\n              swap2\n              sub\n              swap1\n              revert\n            tag_32:\n                /* \"fisco/EproductsInfoItem.sol\":1402:1412  _timestamp */\n              0x0\n                /* \"fisco/EproductsInfoItem.sol\":1418:1421  now */\n              timestamp\n                /* \"fisco/EproductsInfoItem.sol\":1402:1422  _timestamp.push(now) */\n              swap1\n              dup1\n                /* \"--CODEGEN--\":39:40   */\n              0x1\n                /* \"--CODEGEN--\":33:36   */\n              dup2\n                /* \"--CODEGEN--\":27:37   */\n              sload\n                /* \"--CODEGEN--\":23:41   */\n              add\n                /* \"--CODEGEN--\":57:67   */\n              dup1\n                /* \"--CODEGEN--\":52:55   */\n              dup3\n                /* \"--CODEGEN--\":45:68   */\n              sstore\n                /* \"--CODEGEN--\":79:89   */\n              dup1\n                /* \"--CODEGEN--\":72:89   */\n              swap2\n              pop\n                /* \"--CODEGEN--\":0:93   */\n              pop\n                /* \"fisco/EproductsInfoItem.sol\":1402:1422  _timestamp.push(now) */\n              swap1\n              0x1\n              dup3\n              sub\n              swap1\n              0x0\n              mstore\n              keccak256(0x0, 0x20)\n              add\n              0x0\n              swap1\n              swap2\n              swap3\n              swap1\n              swap2\n              swap1\n              swap2\n              pop\n              sstore\n              pop\n                /* \"fisco/EproductsInfoItem.sol\":1432:1442  _traceName */\n              0x1\n                /* \"fisco/EproductsInfoItem.sol\":1448:1457  traceName */\n              dup5\n                /* \"fisco/EproductsInfoItem.sol\":1432:1458  _traceName.push(traceName) */\n              swap1\n              dup1\n                /* \"--CODEGEN--\":39:40   */\n              0x1\n                /* \"--CODEGEN--\":33:36   */\n              dup2\n                /* \"--CODEGEN--\":27:37   */\n              sload\n                /* \"--CODEGEN--\":23:41   */\n              add\n                /* \"--CODEGEN--\":57:67   */\n              dup1\n                /* \"--CODEGEN--\":52:55   */\n              dup3\n                /* \"--CODEGEN--\":45:68   */\n              sstore\n                /* \"--CODEGEN--\":79:89   */\n              dup1\n                /* \"--CODEGEN--\":72:89   */\n              swap2\n              pop\n                /* \"--CODEGEN--\":0:93   */\n              pop\n                /* \"fisco/EproductsInfoItem.sol\":1432:1458  _traceName.push(traceName) */\n              swap1\n              0x1\n              dup3\n              sub\n              swap1\n              0x0\n              mstore\n              keccak256(0x0, 0x20)\n              add\n              0x0\n              swap1\n              swap2\n              swap3\n              swap1\n              swap2\n              swap1\n              swap2\n              pop\n              swap1\n              dup1\n              mload\n              swap1\n              0x20\n              add\n              swap1\n              tag_37\n              swap3\n              swap2\n              swap1\n              jump\t// in(tag_38)\n            tag_37:\n              pop\n              pop\n                /* \"fisco/EproductsInfoItem.sol\":1486:1495  traceName */\n              dup4\n                /* \"fisco/EproductsInfoItem.sol\":1468:1485  _currentTraceName */\n              0x5\n                /* \"fisco/EproductsInfoItem.sol\":1468:1495  _currentTraceName=traceName */\n              swap1\n              dup1\n              mload\n              swap1\n              0x20\n              add\n              swap1\n              tag_39\n              swap3\n              swap2\n              swap1\n              jump\t// in(tag_38)\n            tag_39:\n              pop\n                /* \"fisco/EproductsInfoItem.sol\":1505:1518  _traceAddress */\n              0x2\n                /* \"fisco/EproductsInfoItem.sol\":1524:1535  distributor */\n              dup4\n                /* \"fisco/EproductsInfoItem.sol\":1505:1536  _traceAddress.push(distributor) */\n              swap1\n              dup1\n                /* \"--CODEGEN--\":39:40   */\n              0x1\n                /* \"--CODEGEN--\":33:36   */\n              dup2\n                /* \"--CODEGEN--\":27:37   */\n              sload\n                /* \"--CODEGEN--\":23:41   */\n              add\n                /* \"--CODEGEN--\":57:67   */\n              dup1\n                /* \"--CODEGEN--\":52:55   */\n              dup3\n                /* \"--CODEGEN--\":45:68   */\n              sstore\n                /* \"--CODEGEN--\":79:89   */\n              dup1\n                /* \"--CODEGEN--\":72:89   */\n              swap2\n              pop\n                /* \"--CODEGEN--\":0:93   */\n              pop\n                /* \"fisco/EproductsInfoItem.sol\":1505:1536  _traceAddress.push(distributor) */\n              swap1\n              0x1\n              dup3\n              sub\n              swap1\n              0x0\n              mstore\n              keccak256(0x0, 0x20)\n              add\n              0x0\n              swap1\n              swap2\n              swap3\n              swap1\n              swap2\n              swap1\n              swap2\n              0x100\n              exp\n              dup2\n              sload\n              dup2\n              0xffffffffffffffffffffffffffffffffffffffff\n              mul\n              not\n              and\n              swap1\n              dup4\n              0xffffffffffffffffffffffffffffffffffffffff\n              and\n              mul\n              or\n              swap1\n              sstore\n              pop\n              pop\n                /* \"fisco/EproductsInfoItem.sol\":1555:1562  quality */\n              dup2\n                /* \"fisco/EproductsInfoItem.sol\":1546:1554  _quality */\n              0x6\n              0x0\n                /* \"fisco/EproductsInfoItem.sol\":1546:1562  _quality=quality */\n              0x100\n              exp\n              dup2\n              sload\n              dup2\n              0xff\n              mul\n              not\n              and\n              swap1\n              dup4\n              0xff\n              and\n              mul\n              or\n              swap1\n              sstore\n              pop\n                /* \"fisco/EproductsInfoItem.sol\":1572:1585  _traceQuality */\n              0x3\n                /* \"fisco/EproductsInfoItem.sol\":1591:1599  _quality */\n              0x6\n              0x0\n              swap1\n              sload\n              swap1\n              0x100\n              exp\n              swap1\n              div\n              0xff\n              and\n                /* \"fisco/EproductsInfoItem.sol\":1572:1600  _traceQuality.push(_quality) */\n              swap1\n              dup1\n                /* \"--CODEGEN--\":39:40   */\n              0x1\n                /* \"--CODEGEN--\":33:36   */\n              dup2\n                /* \"--CODEGEN--\":27:37   */\n              sload\n                /* \"--CODEGEN--\":23:41   */\n              add\n                /* \"--CODEGEN--\":57:67   */\n              dup1\n                /* \"--CODEGEN--\":52:55   */\n              dup3\n                /* \"--CODEGEN--\":45:68   */\n              sstore\n                /* \"--CODEGEN--\":79:89   */\n              dup1\n                /* \"--CODEGEN--\":72:89   */\n              swap2\n              pop\n                /* \"--CODEGEN--\":0:93   */\n              pop\n                /* \"fisco/EproductsInfoItem.sol\":1572:1600  _traceQuality.push(_quality) */\n              swap1\n              0x1\n              dup3\n              sub\n              swap1\n              0x0\n              mstore\n              keccak256(0x0, 0x20)\n              swap1\n              0x20\n              swap2\n              dup3\n              dup3\n              div\n              add\n              swap2\n              swap1\n              mod\n              swap1\n              swap2\n              swap3\n              swap1\n              swap2\n              swap1\n              swap2\n              0x100\n              exp\n              dup2\n              sload\n              dup2\n              0xff\n              mul\n              not\n              and\n              swap1\n              dup4\n              0xff\n              and\n              mul\n              or\n              swap1\n              sstore\n              pop\n              pop\n                /* \"fisco/EproductsInfoItem.sol\":1618:1619  1 */\n              0x1\n                /* \"fisco/EproductsInfoItem.sol\":1610:1617  _status */\n              0x6\n              0x1\n                /* \"fisco/EproductsInfoItem.sol\":1610:1619  _status=1 */\n              0x100\n              exp\n              dup2\n              sload\n              dup2\n              0xff\n              mul\n              not\n              and\n              swap1\n              dup4\n              0xff\n              and\n              mul\n              or\n              swap1\n              sstore\n              pop\n                /* \"fisco/EproductsInfoItem.sol\":1636:1640  true */\n              0x1\n                /* \"fisco/EproductsInfoItem.sol\":1629:1640  return true */\n              swap1\n              pop\n                /* \"fisco/EproductsInfoItem.sol\":1159:1648  function addTraceInfoByDistributor(string traceName,address distributor,uint8 quality)public returns(bool){... */\n              swap4\n              swap3\n              pop\n              pop\n              pop\n              jump\t// out\n                /* \"fisco/EproductsInfoItem.sol\":2317:2507  function getEproducts()public constant returns(uint,string,string,string,address,uint8){... */\n            tag_15:\n                /* \"fisco/EproductsInfoItem.sol\":2364:2368  uint */\n              0x0\n                /* \"fisco/EproductsInfoItem.sol\":2369:2375  string */\n              0x60\n                /* \"fisco/EproductsInfoItem.sol\":2376:2382  string */\n              dup1\n                /* \"fisco/EproductsInfoItem.sol\":2383:2389  string */\n              0x60\n                /* \"fisco/EproductsInfoItem.sol\":2390:2397  address */\n              0x0\n                /* \"fisco/EproductsInfoItem.sol\":2398:2403  uint8 */\n              dup1\n                /* \"fisco/EproductsInfoItem.sol\":2421:2431  _timestamp */\n              0x0\n                /* \"fisco/EproductsInfoItem.sol\":2432:2433  0 */\n              dup1\n                /* \"fisco/EproductsInfoItem.sol\":2421:2434  _timestamp[0] */\n              dup2\n              sload\n              dup2\n              lt\n              iszero\n              iszero\n              tag_43\n              jumpi\n              invalid\n            tag_43:\n              swap1\n              0x0\n              mstore\n              keccak256(0x0, 0x20)\n              add\n              sload\n                /* \"fisco/EproductsInfoItem.sol\":2435:2445  _traceName */\n              0x1\n                /* \"fisco/EproductsInfoItem.sol\":2446:2447  0 */\n              0x0\n                /* \"fisco/EproductsInfoItem.sol\":2435:2448  _traceName[0] */\n              dup2\n              sload\n              dup2\n              lt\n              iszero\n              iszero\n              tag_45\n              jumpi\n              invalid\n            tag_45:\n              swap1\n              0x0\n              mstore\n              keccak256(0x0, 0x20)\n              add\n                /* \"fisco/EproductsInfoItem.sol\":2449:2454  _name */\n              0x4\n                /* \"fisco/EproductsInfoItem.sol\":2455:2472  _currentTraceName */\n              0x5\n                /* \"fisco/EproductsInfoItem.sol\":2473:2486  _traceAddress */\n              0x2\n                /* \"fisco/EproductsInfoItem.sol\":2487:2488  0 */\n              0x0\n                /* \"fisco/EproductsInfoItem.sol\":2473:2489  _traceAddress[0] */\n              dup2\n              sload\n              dup2\n              lt\n              iszero\n              iszero\n              tag_47\n              jumpi\n              invalid\n            tag_47:\n              swap1\n              0x0\n              mstore\n              keccak256(0x0, 0x20)\n              add\n              0x0\n              swap1\n              sload\n              swap1\n              0x100\n              exp\n              swap1\n              div\n              0xffffffffffffffffffffffffffffffffffffffff\n              and\n                /* \"fisco/EproductsInfoItem.sol\":2490:2498  _quality */\n              0x6\n              0x0\n              swap1\n              sload\n              swap1\n              0x100\n              exp\n              swap1\n              div\n              0xff\n              and\n                /* \"fisco/EproductsInfoItem.sol\":2414:2499  return(_timestamp[0],_traceName[0],_name,_currentTraceName,_traceAddress[0],_quality) */\n              dup5\n              dup1\n              sload\n              0x1\n              dup2\n              0x1\n              and\n              iszero\n              0x100\n              mul\n              sub\n              and\n              0x2\n              swap1\n              div\n              dup1\n              0x1f\n              add\n              0x20\n              dup1\n              swap2\n              div\n              mul\n              0x20\n              add\n              mload(0x40)\n              swap1\n              dup2\n              add\n              0x40\n              mstore\n              dup1\n              swap3\n              swap2\n              swap1\n              dup2\n              dup2\n              mstore\n              0x20\n              add\n              dup3\n              dup1\n              sload\n              0x1\n              dup2\n              0x1\n              and\n              iszero\n              0x100\n              mul\n              sub\n              and\n              0x2\n              swap1\n              div\n              dup1\n              iszero\n              tag_49\n              jumpi\n              dup1\n              0x1f\n              lt\n              tag_50\n              jumpi\n              0x100\n              dup1\n              dup4\n              sload\n              div\n              mul\n              dup4\n              mstore\n              swap2\n              0x20\n              add\n              swap2\n              jump(tag_49)\n            tag_50:\n              dup3\n              add\n              swap2\n              swap1\n              0x0\n              mstore\n              keccak256(0x0, 0x20)\n              swap1\n            tag_51:\n              dup2\n              sload\n              dup2\n              mstore\n              swap1\n              0x1\n              add\n              swap1\n              0x20\n              add\n              dup1\n              dup4\n              gt\n              tag_51\n              jumpi\n              dup3\n              swap1\n              sub\n              0x1f\n              and\n              dup3\n              add\n              swap2\n            tag_49:\n              pop\n              pop\n              pop\n              pop\n              pop\n              swap5\n              pop\n              dup4\n              dup1\n              sload\n              0x1\n              dup2\n              0x1\n              and\n              iszero\n              0x100\n              mul\n              sub\n              and\n              0x2\n              swap1\n              div\n              dup1\n              0x1f\n              add\n              0x20\n              dup1\n              swap2\n              div\n              mul\n              0x20\n              add\n              mload(0x40)\n              swap1\n              dup2\n              add\n              0x40\n              mstore\n              dup1\n              swap3\n              swap2\n              swap1\n              dup2\n              dup2\n              mstore\n              0x20\n              add\n              dup3\n              dup1\n              sload\n              0x1\n              dup2\n              0x1\n              and\n              iszero\n              0x100\n              mul\n              sub\n              and\n              0x2\n              swap1\n              div\n              dup1\n              iszero\n              tag_52\n              jumpi\n              dup1\n              0x1f\n              lt\n              tag_53\n              jumpi\n              0x100\n              dup1\n              dup4\n              sload\n              div\n              mul\n              dup4\n              mstore\n              swap2\n              0x20\n              add\n              swap2\n              jump(tag_52)\n            tag_53:\n              dup3\n              add\n              swap2\n              swap1\n              0x0\n              mstore\n              keccak256(0x0, 0x20)\n              swap1\n            tag_54:\n              dup2\n              sload\n              dup2\n              mstore\n              swap1\n              0x1\n              add\n              swap1\n              0x20\n              add\n              dup1\n              dup4\n              gt\n              tag_54\n              jumpi\n              dup3\n              swap1\n              sub\n              0x1f\n              and\n              dup3\n              add\n              swap2\n            tag_52:\n              pop\n              pop\n              pop\n              pop\n              pop\n              swap4\n              pop\n              dup3\n              dup1\n              sload\n              0x1\n              dup2\n              0x1\n              and\n              iszero\n              0x100\n              mul\n              sub\n              and\n              0x2\n              swap1\n              div\n              dup1\n              0x1f\n              add\n              0x20\n              dup1\n              swap2\n              div\n              mul\n              0x20\n              add\n              mload(0x40)\n              swap1\n              dup2\n              add\n              0x40\n              mstore\n              dup1\n              swap3\n              swap2\n              swap1\n              dup2\n              dup2\n              mstore\n              0x20\n              add\n              dup3\n              dup1\n              sload\n              0x1\n              dup2\n              0x1\n              and\n              iszero\n              0x100\n              mul\n              sub\n              and\n              0x2\n              swap1\n              div\n              dup1\n              iszero\n              tag_55\n              jumpi\n              dup1\n              0x1f\n              lt\n              tag_56\n              jumpi\n              0x100\n              dup1\n              dup4\n              sload\n              div\n              mul\n              dup4\n              mstore\n              swap2\n              0x20\n              add\n              swap2\n              jump(tag_55)\n            tag_56:\n              dup3\n              add\n              swap2\n              swap1\n              0x0\n              mstore\n              keccak256(0x0, 0x20)\n              swap1\n            tag_57:\n              dup2\n              sload\n              dup2\n              mstore\n              swap1\n              0x1\n              add\n              swap1\n              0x20\n              add\n              dup1\n              dup4\n              gt\n              tag_57\n              jumpi\n              dup3\n              swap1\n              sub\n              0x1f\n              and\n              dup3\n              add\n              swap2\n            tag_55:\n              pop\n              pop\n              pop\n              pop\n              pop\n              swap3\n              pop\n              swap6\n              pop\n              swap6\n              pop\n              swap6\n              pop\n              swap6\n              pop\n              swap6\n              pop\n              swap6\n              pop\n                /* \"fisco/EproductsInfoItem.sol\":2317:2507  function getEproducts()public constant returns(uint,string,string,string,address,uint8){... */\n              swap1\n              swap2\n              swap3\n              swap4\n              swap5\n              swap6\n              jump\t// out\n                /* \"fisco/EproductsInfoItem.sol\":2149:2310  function getTraceInfo()public constant returns(uint[],string[],address[],uint8[]){... */\n            tag_20:\n                /* \"fisco/EproductsInfoItem.sol\":2196:2202  uint[] */\n              0x60\n                /* \"fisco/EproductsInfoItem.sol\":2203:2211  string[] */\n              dup1\n                /* \"fisco/EproductsInfoItem.sol\":2212:2221  address[] */\n              0x60\n                /* \"fisco/EproductsInfoItem.sol\":2222:2229  uint8[] */\n              dup1\n                /* \"fisco/EproductsInfoItem.sol\":2248:2258  _timestamp */\n              0x0\n                /* \"fisco/EproductsInfoItem.sol\":2259:2269  _traceName */\n              0x1\n                /* \"fisco/EproductsInfoItem.sol\":2270:2283  _traceAddress */\n              0x2\n                /* \"fisco/EproductsInfoItem.sol\":2284:2297  _traceQuality */\n              0x3\n                /* \"fisco/EproductsInfoItem.sol\":2240:2298  return (_timestamp,_traceName,_traceAddress,_traceQuality) */\n              dup4\n              dup1\n              sload\n              dup1\n              0x20\n              mul\n              0x20\n              add\n              mload(0x40)\n              swap1\n              dup2\n              add\n              0x40\n              mstore\n              dup1\n              swap3\n              swap2\n              swap1\n              dup2\n              dup2\n              mstore\n              0x20\n              add\n              dup3\n              dup1\n              sload\n              dup1\n              iszero\n              tag_59\n              jumpi\n              0x20\n              mul\n              dup3\n              add\n              swap2\n              swap1\n              0x0\n              mstore\n              keccak256(0x0, 0x20)\n              swap1\n            tag_60:\n              dup2\n              sload\n              dup2\n              mstore\n              0x20\n              add\n              swap1\n              0x1\n              add\n              swap1\n              dup1\n              dup4\n              gt\n              tag_60\n              jumpi\n            tag_59:\n              pop\n              pop\n              pop\n              pop\n              pop\n              swap4\n              pop\n              dup3\n              dup1\n              sload\n              dup1\n              0x20\n              mul\n              0x20\n              add\n              mload(0x40)\n              swap1\n              dup2\n              add\n              0x40\n              mstore\n              dup1\n              swap3\n              swap2\n              swap1\n              dup2\n              dup2\n              mstore\n              0x20\n              add\n              0x0\n              swap1\n            tag_61:\n              dup3\n              dup3\n              lt\n              iszero\n              tag_62\n              jumpi\n              dup4\n              dup3\n              swap1\n              0x0\n              mstore\n              keccak256(0x0, 0x20)\n              add\n              dup1\n              sload\n              0x1\n              dup2\n              0x1\n              and\n              iszero\n              0x100\n              mul\n              sub\n              and\n              0x2\n              swap1\n              div\n              dup1\n              0x1f\n              add\n              0x20\n              dup1\n              swap2\n              div\n              mul\n              0x20\n              add\n              mload(0x40)\n              swap1\n              dup2\n              add\n              0x40\n              mstore\n              dup1\n              swap3\n              swap2\n              swap1\n              dup2\n              dup2\n              mstore\n              0x20\n              add\n              dup3\n              dup1\n              sload\n              0x1\n              dup2\n              0x1\n              and\n              iszero\n              0x100\n              mul\n              sub\n              and\n              0x2\n              swap1\n              div\n              dup1\n              iszero\n              tag_64\n              jumpi\n              dup1\n              0x1f\n              lt\n              tag_65\n              jumpi\n              0x100\n              dup1\n              dup4\n              sload\n              div\n              mul\n              dup4\n              mstore\n              swap2\n              0x20\n              add\n              swap2\n              jump(tag_64)\n            tag_65:\n              dup3\n              add\n              swap2\n              swap1\n              0x0\n              mstore\n              keccak256(0x0, 0x20)\n              swap1\n            tag_66:\n              dup2\n              sload\n              dup2\n              mstore\n              swap1\n              0x1\n              add\n              swap1\n              0x20\n              add\n              dup1\n              dup4\n              gt\n              tag_66\n              jumpi\n              dup3\n              swap1\n              sub\n              0x1f\n              and\n              dup3\n              add\n              swap2\n            tag_64:\n              pop\n              pop\n              pop\n              pop\n              pop\n              dup2\n              mstore\n              0x20\n              add\n              swap1\n              0x1\n              add\n              swap1\n              jump(tag_61)\n            tag_62:\n              pop\n              pop\n              pop\n              pop\n              swap3\n              pop\n              dup2\n              dup1\n              sload\n              dup1\n              0x20\n              mul\n              0x20\n              add\n              mload(0x40)\n              swap1\n              dup2\n              add\n              0x40\n              mstore\n              dup1\n              swap3\n              swap2\n              swap1\n              dup2\n              dup2\n              mstore\n              0x20\n              add\n              dup3\n              dup1\n              sload\n              dup1\n              iszero\n              tag_67\n              jumpi\n              0x20\n              mul\n              dup3\n              add\n              swap2\n              swap1\n              0x0\n              mstore\n              keccak256(0x0, 0x20)\n              swap1\n            tag_68:\n              dup2\n              0x0\n              swap1\n              sload\n              swap1\n              0x100\n              exp\n              swap1\n              div\n              0xffffffffffffffffffffffffffffffffffffffff\n              and\n              0xffffffffffffffffffffffffffffffffffffffff\n              and\n              dup2\n              mstore\n              0x20\n              add\n              swap1\n              0x1\n              add\n              swap1\n              dup1\n              dup4\n              gt\n              tag_68\n              jumpi\n            tag_67:\n              pop\n              pop\n              pop\n              pop\n              pop\n              swap2\n              pop\n              dup1\n              dup1\n              sload\n              dup1\n              0x20\n              mul\n              0x20\n              add\n              mload(0x40)\n              swap1\n              dup2\n              add\n              0x40\n              mstore\n              dup1\n              swap3\n              swap2\n              swap1\n              dup2\n              dup2\n              mstore\n              0x20\n              add\n              dup3\n              dup1\n              sload\n              dup1\n              iszero\n              tag_69\n              jumpi\n              0x20\n              mul\n              dup3\n              add\n              swap2\n              swap1\n              0x0\n              mstore\n              keccak256(0x0, 0x20)\n              swap1\n              0x0\n              swap1\n            tag_70:\n              dup3\n              dup3\n              swap1\n              sload\n              swap1\n              0x100\n              exp\n              swap1\n              div\n              0xff\n              and\n              0xff\n              and\n              dup2\n              mstore\n              0x20\n              add\n              swap1\n              0x1\n              add\n              swap1\n              0x20\n              dup3\n              0x0\n              add\n              div\n              swap3\n              dup4\n              add\n              swap3\n              0x1\n              sub\n              dup3\n              mul\n              swap2\n              pop\n              dup1\n              dup5\n              gt\n              tag_70\n              jumpi\n              swap1\n              pop\n            tag_69:\n              pop\n              pop\n              pop\n              pop\n              pop\n              swap1\n              pop\n              swap4\n              pop\n              swap4\n              pop\n              swap4\n              pop\n              swap4\n              pop\n                /* \"fisco/EproductsInfoItem.sol\":2149:2310  function getTraceInfo()public constant returns(uint[],string[],address[],uint8[]){... */\n              swap1\n              swap2\n              swap3\n              swap4\n              jump\t// out\n                /* \"fisco/EproductsInfoItem.sol\":1654:2140  function addTraceInfoByRetailer(string traceName, address retailer,uint8 quality)public returns(bool){... */\n            tag_26:\n                /* \"fisco/EproductsInfoItem.sol\":1750:1754  bool */\n              0x0\n                /* \"fisco/EproductsInfoItem.sol\":1782:1783  1 */\n              0x1\n                /* \"fisco/EproductsInfoItem.sol\":1773:1780  _status */\n              0x6\n              0x1\n              swap1\n              sload\n              swap1\n              0x100\n              exp\n              swap1\n              div\n              0xff\n              and\n                /* \"fisco/EproductsInfoItem.sol\":1773:1783  _status==1 */\n              0xff\n              and\n              eq\n                /* \"fisco/EproductsInfoItem.sol\":1765:1814  require(_status==1,\"status must be distributing\") */\n              iszero\n              iszero\n              tag_72\n              jumpi\n              mload(0x40)\n              0x8c379a000000000000000000000000000000000000000000000000000000000\n              dup2\n              mstore\n              0x4\n              add\n              tag_73\n              swap1\n              jump(tag_74)\n            tag_73:\n              mload(0x40)\n              dup1\n              swap2\n              sub\n              swap1\n              revert\n            tag_72:\n                /* \"fisco/EproductsInfoItem.sol\":1840:1850  msg.sender */\n              caller\n                /* \"fisco/EproductsInfoItem.sol\":1832:1850  _owner==msg.sender */\n              0xffffffffffffffffffffffffffffffffffffffff\n              and\n                /* \"fisco/EproductsInfoItem.sol\":1832:1838  _owner */\n              0x6\n              0x2\n              swap1\n              sload\n              swap1\n              0x100\n              exp\n              swap1\n              div\n              0xffffffffffffffffffffffffffffffffffffffff\n              and\n                /* \"fisco/EproductsInfoItem.sol\":1832:1850  _owner==msg.sender */\n              0xffffffffffffffffffffffffffffffffffffffff\n              and\n              eq\n                /* \"fisco/EproductsInfoItem.sol\":1824:1884  require(_owner==msg.sender,\"only trace contract can invoke\") */\n              iszero\n              iszero\n              tag_75\n              jumpi\n              mload(0x40)\n              0x8c379a000000000000000000000000000000000000000000000000000000000\n              dup2\n              mstore\n              0x4\n              add\n              tag_76\n              swap1\n              jump(tag_34)\n            tag_76:\n              mload(0x40)\n              dup1\n              swap2\n              sub\n              swap1\n              revert\n            tag_75:\n                /* \"fisco/EproductsInfoItem.sol\":1894:1904  _timestamp */\n              0x0\n                /* \"fisco/EproductsInfoItem.sol\":1910:1913  now */\n              timestamp\n                /* \"fisco/EproductsInfoItem.sol\":1894:1914  _timestamp.push(now) */\n              swap1\n              dup1\n                /* \"--CODEGEN--\":39:40   */\n              0x1\n                /* \"--CODEGEN--\":33:36   */\n              dup2\n                /* \"--CODEGEN--\":27:37   */\n              sload\n                /* \"--CODEGEN--\":23:41   */\n              add\n                /* \"--CODEGEN--\":57:67   */\n              dup1\n                /* \"--CODEGEN--\":52:55   */\n              dup3\n                /* \"--CODEGEN--\":45:68   */\n              sstore\n                /* \"--CODEGEN--\":79:89   */\n              dup1\n                /* \"--CODEGEN--\":72:89   */\n              swap2\n              pop\n                /* \"--CODEGEN--\":0:93   */\n              pop\n                /* \"fisco/EproductsInfoItem.sol\":1894:1914  _timestamp.push(now) */\n              swap1\n              0x1\n              dup3\n              sub\n              swap1\n              0x0\n              mstore\n              keccak256(0x0, 0x20)\n              add\n              0x0\n              swap1\n              swap2\n              swap3\n              swap1\n              swap2\n              swap1\n              swap2\n              pop\n              sstore\n              pop\n                /* \"fisco/EproductsInfoItem.sol\":1924:1934  _traceName */\n              0x1\n                /* \"fisco/EproductsInfoItem.sol\":1940:1949  traceName */\n              dup5\n                /* \"fisco/EproductsInfoItem.sol\":1924:1950  _traceName.push(traceName) */\n              swap1\n              dup1\n                /* \"--CODEGEN--\":39:40   */\n              0x1\n                /* \"--CODEGEN--\":33:36   */\n              dup2\n                /* \"--CODEGEN--\":27:37   */\n              sload\n                /* \"--CODEGEN--\":23:41   */\n              add\n                /* \"--CODEGEN--\":57:67   */\n              dup1\n                /* \"--CODEGEN--\":52:55   */\n              dup3\n                /* \"--CODEGEN--\":45:68   */\n              sstore\n                /* \"--CODEGEN--\":79:89   */\n              dup1\n                /* \"--CODEGEN--\":72:89   */\n              swap2\n              pop\n                /* \"--CODEGEN--\":0:93   */\n              pop\n                /* \"fisco/EproductsInfoItem.sol\":1924:1950  _traceName.push(traceName) */\n              swap1\n              0x1\n              dup3\n              sub\n              swap1\n              0x0\n              mstore\n              keccak256(0x0, 0x20)\n              add\n              0x0\n              swap1\n              swap2\n              swap3\n              swap1\n              swap2\n              swap1\n              swap2\n              pop\n              swap1\n              dup1\n              mload\n              swap1\n              0x20\n              add\n              swap1\n              tag_79\n              swap3\n              swap2\n              swap1\n              jump\t// in(tag_38)\n            tag_79:\n              pop\n              pop\n                /* \"fisco/EproductsInfoItem.sol\":1978:1987  traceName */\n              dup4\n                /* \"fisco/EproductsInfoItem.sol\":1960:1977  _currentTraceName */\n              0x5\n                /* \"fisco/EproductsInfoItem.sol\":1960:1987  _currentTraceName=traceName */\n              swap1\n              dup1\n              mload\n              swap1\n              0x20\n              add\n              swap1\n              tag_80\n              swap3\n              swap2\n              swap1\n              jump\t// in(tag_38)\n            tag_80:\n              pop\n                /* \"fisco/EproductsInfoItem.sol\":1997:2010  _traceAddress */\n              0x2\n                /* \"fisco/EproductsInfoItem.sol\":2016:2024  retailer */\n              dup4\n                /* \"fisco/EproductsInfoItem.sol\":1997:2025  _traceAddress.push(retailer) */\n              swap1\n              dup1\n                /* \"--CODEGEN--\":39:40   */\n              0x1\n                /* \"--CODEGEN--\":33:36   */\n              dup2\n                /* \"--CODEGEN--\":27:37   */\n              sload\n                /* \"--CODEGEN--\":23:41   */\n              add\n                /* \"--CODEGEN--\":57:67   */\n              dup1\n                /* \"--CODEGEN--\":52:55   */\n              dup3\n                /* \"--CODEGEN--\":45:68   */\n              sstore\n                /* \"--CODEGEN--\":79:89   */\n              dup1\n                /* \"--CODEGEN--\":72:89   */\n              swap2\n              pop\n                /* \"--CODEGEN--\":0:93   */\n              pop\n                /* \"fisco/EproductsInfoItem.sol\":1997:2025  _traceAddress.push(retailer) */\n              swap1\n              0x1\n              dup3\n              sub\n              swap1\n              0x0\n              mstore\n              keccak256(0x0, 0x20)\n              add\n              0x0\n              swap1\n              swap2\n              swap3\n              swap1\n              swap2\n              swap1\n              swap2\n              0x100\n              exp\n              dup2\n              sload\n              dup2\n              0xffffffffffffffffffffffffffffffffffffffff\n              mul\n              not\n              and\n              swap1\n              dup4\n              0xffffffffffffffffffffffffffffffffffffffff\n              and\n              mul\n              or\n              swap1\n              sstore\n              pop\n              pop\n                /* \"fisco/EproductsInfoItem.sol\":2046:2053  quality */\n              dup2\n                /* \"fisco/EproductsInfoItem.sol\":2035:2043  _quality */\n              0x6\n              0x0\n                /* \"fisco/EproductsInfoItem.sol\":2035:2053  _quality = quality */\n              0x100\n              exp\n              dup2\n              sload\n              dup2\n              0xff\n              mul\n              not\n              and\n              swap1\n              dup4\n              0xff\n              and\n              mul\n              or\n              swap1\n              sstore\n              pop\n                /* \"fisco/EproductsInfoItem.sol\":2063:2076  _traceQuality */\n              0x3\n                /* \"fisco/EproductsInfoItem.sol\":2082:2090  _quality */\n              0x6\n              0x0\n              swap1\n              sload\n              swap1\n              0x100\n              exp\n              swap1\n              div\n              0xff\n              and\n                /* \"fisco/EproductsInfoItem.sol\":2063:2091  _traceQuality.push(_quality) */\n              swap1\n              dup1\n                /* \"--CODEGEN--\":39:40   */\n              0x1\n                /* \"--CODEGEN--\":33:36   */\n              dup2\n                /* \"--CODEGEN--\":27:37   */\n              sload\n                /* \"--CODEGEN--\":23:41   */\n              add\n                /* \"--CODEGEN--\":57:67   */\n              dup1\n                /* \"--CODEGEN--\":52:55   */\n              dup3\n                /* \"--CODEGEN--\":45:68   */\n              sstore\n                /* \"--CODEGEN--\":79:89   */\n              dup1\n                /* \"--CODEGEN--\":72:89   */\n              swap2\n              pop\n                /* \"--CODEGEN--\":0:93   */\n              pop\n                /* \"fisco/EproductsInfoItem.sol\":2063:2091  _traceQuality.push(_quality) */\n              swap1\n              0x1\n              dup3\n              sub\n              swap1\n              0x0\n              mstore\n              keccak256(0x0, 0x20)\n              swap1\n              0x20\n              swap2\n              dup3\n              dup3\n              div\n              add\n              swap2\n              swap1\n              mod\n              swap1\n              swap2\n              swap3\n              swap1\n              swap2\n              swap1\n              swap2\n              0x100\n              exp\n              dup2\n              sload\n              dup2\n              0xff\n              mul\n              not\n              and\n              swap1\n              dup4\n              0xff\n              and\n              mul\n              or\n              swap1\n              sstore\n              pop\n              pop\n                /* \"fisco/EproductsInfoItem.sol\":2111:2112  2 */\n              0x2\n                /* \"fisco/EproductsInfoItem.sol\":2101:2108  _status */\n              0x6\n              0x1\n                /* \"fisco/EproductsInfoItem.sol\":2101:2112  _status = 2 */\n              0x100\n              exp\n              dup2\n              sload\n              dup2\n              0xff\n              mul\n              not\n              and\n              swap1\n              dup4\n              0xff\n              and\n              mul\n              or\n              swap1\n              sstore\n              pop\n                /* \"fisco/EproductsInfoItem.sol\":2129:2133  true */\n              0x1\n                /* \"fisco/EproductsInfoItem.sol\":2122:2133  return true */\n              swap1\n              pop\n                /* \"fisco/EproductsInfoItem.sol\":1654:2140  function addTraceInfoByRetailer(string traceName, address retailer,uint8 quality)public returns(bool){... */\n              swap4\n              swap3\n              pop\n              pop\n              pop\n              jump\t// out\n                /* \"fisco/EproductsInfoItem.sol\":131:2512  contract EproductsInfoItem{... */\n            tag_38:\n              dup3\n              dup1\n              sload\n              0x1\n              dup2\n              0x1\n              and\n              iszero\n              0x100\n              mul\n              sub\n              and\n              0x2\n              swap1\n              div\n              swap1\n              0x0\n              mstore\n              keccak256(0x0, 0x20)\n              swap1\n              0x1f\n              add\n              0x20\n              swap1\n              div\n              dup2\n              add\n              swap3\n              dup3\n              0x1f\n              lt\n              tag_84\n              jumpi\n              dup1\n              mload\n              not(0xff)\n              and\n              dup4\n              dup1\n              add\n              or\n              dup6\n              sstore\n              jump(tag_83)\n            tag_84:\n              dup3\n              dup1\n              add\n              0x1\n              add\n              dup6\n              sstore\n              dup3\n              iszero\n              tag_83\n              jumpi\n              swap2\n              dup3\n              add\n            tag_85:\n              dup3\n              dup2\n              gt\n              iszero\n              tag_86\n              jumpi\n              dup3\n              mload\n              dup3\n              sstore\n              swap2\n              0x20\n              add\n              swap2\n              swap1\n              0x1\n              add\n              swap1\n              jump(tag_85)\n            tag_86:\n            tag_83:\n              pop\n              swap1\n              pop\n              tag_87\n              swap2\n              swap1\n              jump\t// in(tag_88)\n            tag_87:\n              pop\n              swap1\n              jump\t// out\n            tag_88:\n              tag_89\n              swap2\n              swap1\n            tag_90:\n              dup1\n              dup3\n              gt\n              iszero\n              tag_91\n              jumpi\n              0x0\n              dup2\n              0x0\n              swap1\n              sstore\n              pop\n              0x1\n              add\n              jump(tag_90)\n            tag_91:\n              pop\n              swap1\n              jump\n            tag_89:\n              swap1\n              jump\t// out\n                /* \"--CODEGEN--\":5:123   */\n            tag_93:\n              0x0\n                /* \"--CODEGEN--\":72:118   */\n              tag_94\n                /* \"--CODEGEN--\":110:116   */\n              dup3\n                /* \"--CODEGEN--\":97:117   */\n              calldataload\n                /* \"--CODEGEN--\":72:118   */\n              jump(tag_95)\n            tag_94:\n                /* \"--CODEGEN--\":63:118   */\n              swap1\n              pop\n                /* \"--CODEGEN--\":57:123   */\n              swap3\n              swap2\n              pop\n              pop\n              jump\n                /* \"--CODEGEN--\":131:573   */\n            tag_97:\n              0x0\n                /* \"--CODEGEN--\":233:236   */\n              dup3\n                /* \"--CODEGEN--\":226:230   */\n              0x1f\n                /* \"--CODEGEN--\":218:224   */\n              dup4\n                /* \"--CODEGEN--\":214:231   */\n              add\n                /* \"--CODEGEN--\":210:237   */\n              slt\n                /* \"--CODEGEN--\":203:238   */\n              iszero\n                /* \"--CODEGEN--\":200:202   */\n              iszero\n              tag_98\n              jumpi\n                /* \"--CODEGEN--\":251:252   */\n              0x0\n                /* \"--CODEGEN--\":248:249   */\n              dup1\n                /* \"--CODEGEN--\":241:253   */\n              revert\n                /* \"--CODEGEN--\":200:202   */\n            tag_98:\n                /* \"--CODEGEN--\":288:294   */\n              dup2\n                /* \"--CODEGEN--\":275:295   */\n              calldataload\n                /* \"--CODEGEN--\":310:375   */\n              tag_99\n                /* \"--CODEGEN--\":325:374   */\n              tag_100\n                /* \"--CODEGEN--\":367:373   */\n              dup3\n                /* \"--CODEGEN--\":325:374   */\n              jump(tag_101)\n            tag_100:\n                /* \"--CODEGEN--\":310:375   */\n              jump(tag_102)\n            tag_99:\n                /* \"--CODEGEN--\":301:375   */\n              swap2\n              pop\n                /* \"--CODEGEN--\":395:401   */\n              dup1\n                /* \"--CODEGEN--\":388:393   */\n              dup3\n                /* \"--CODEGEN--\":381:402   */\n              mstore\n                /* \"--CODEGEN--\":431:435   */\n              0x20\n                /* \"--CODEGEN--\":423:429   */\n              dup4\n                /* \"--CODEGEN--\":419:436   */\n              add\n                /* \"--CODEGEN--\":464:468   */\n              0x20\n                /* \"--CODEGEN--\":457:462   */\n              dup4\n                /* \"--CODEGEN--\":453:469   */\n              add\n                /* \"--CODEGEN--\":499:502   */\n              dup6\n                /* \"--CODEGEN--\":490:496   */\n              dup4\n                /* \"--CODEGEN--\":485:488   */\n              dup4\n                /* \"--CODEGEN--\":481:497   */\n              add\n                /* \"--CODEGEN--\":478:503   */\n              gt\n                /* \"--CODEGEN--\":475:477   */\n              iszero\n              tag_103\n              jumpi\n                /* \"--CODEGEN--\":516:517   */\n              0x0\n                /* \"--CODEGEN--\":513:514   */\n              dup1\n                /* \"--CODEGEN--\":506:518   */\n              revert\n                /* \"--CODEGEN--\":475:477   */\n            tag_103:\n                /* \"--CODEGEN--\":526:567   */\n              tag_104\n                /* \"--CODEGEN--\":560:566   */\n              dup4\n                /* \"--CODEGEN--\":555:558   */\n              dup3\n                /* \"--CODEGEN--\":550:553   */\n              dup5\n                /* \"--CODEGEN--\":526:567   */\n              jump(tag_105)\n            tag_104:\n                /* \"--CODEGEN--\":193:573   */\n              pop\n              pop\n              pop\n              swap3\n              swap2\n              pop\n              pop\n              jump\n                /* \"--CODEGEN--\":581:695   */\n            tag_107:\n              0x0\n                /* \"--CODEGEN--\":646:690   */\n              tag_108\n                /* \"--CODEGEN--\":682:688   */\n              dup3\n                /* \"--CODEGEN--\":669:689   */\n              calldataload\n                /* \"--CODEGEN--\":646:690   */\n              jump(tag_109)\n            tag_108:\n                /* \"--CODEGEN--\":637:690   */\n              swap1\n              pop\n                /* \"--CODEGEN--\":631:695   */\n              swap3\n              swap2\n              pop\n              pop\n              jump\n                /* \"--CODEGEN--\":702:1295   */\n            tag_9:\n              0x0\n              dup1\n              0x0\n                /* \"--CODEGEN--\":848:850   */\n              0x60\n                /* \"--CODEGEN--\":836:845   */\n              dup5\n                /* \"--CODEGEN--\":827:834   */\n              dup7\n                /* \"--CODEGEN--\":823:846   */\n              sub\n                /* \"--CODEGEN--\":819:851   */\n              slt\n                /* \"--CODEGEN--\":816:818   */\n              iszero\n              tag_111\n              jumpi\n                /* \"--CODEGEN--\":864:865   */\n              0x0\n                /* \"--CODEGEN--\":861:862   */\n              dup1\n                /* \"--CODEGEN--\":854:866   */\n              revert\n                /* \"--CODEGEN--\":816:818   */\n            tag_111:\n                /* \"--CODEGEN--\":927:928   */\n              0x0\n                /* \"--CODEGEN--\":916:925   */\n              dup5\n                /* \"--CODEGEN--\":912:929   */\n              add\n                /* \"--CODEGEN--\":899:930   */\n              calldataload\n                /* \"--CODEGEN--\":950:968   */\n              0xffffffffffffffff\n                /* \"--CODEGEN--\":942:948   */\n              dup2\n                /* \"--CODEGEN--\":939:969   */\n              gt\n                /* \"--CODEGEN--\":936:938   */\n              iszero\n              tag_112\n              jumpi\n                /* \"--CODEGEN--\":982:983   */\n              0x0\n                /* \"--CODEGEN--\":979:980   */\n              dup1\n                /* \"--CODEGEN--\":972:984   */\n              revert\n                /* \"--CODEGEN--\":936:938   */\n            tag_112:\n                /* \"--CODEGEN--\":1002:1065   */\n              tag_113\n                /* \"--CODEGEN--\":1057:1064   */\n              dup7\n                /* \"--CODEGEN--\":1048:1054   */\n              dup3\n                /* \"--CODEGEN--\":1037:1046   */\n              dup8\n                /* \"--CODEGEN--\":1033:1055   */\n              add\n                /* \"--CODEGEN--\":1002:1065   */\n              jump(tag_97)\n            tag_113:\n                /* \"--CODEGEN--\":992:1065   */\n              swap4\n              pop\n                /* \"--CODEGEN--\":878:1071   */\n              pop\n                /* \"--CODEGEN--\":1102:1104   */\n              0x20\n                /* \"--CODEGEN--\":1120:1173   */\n              tag_114\n                /* \"--CODEGEN--\":1165:1172   */\n              dup7\n                /* \"--CODEGEN--\":1156:1162   */\n              dup3\n                /* \"--CODEGEN--\":1145:1154   */\n              dup8\n                /* \"--CODEGEN--\":1141:1163   */\n              add\n                /* \"--CODEGEN--\":1120:1173   */\n              jump(tag_93)\n            tag_114:\n                /* \"--CODEGEN--\":1110:1173   */\n              swap3\n              pop\n                /* \"--CODEGEN--\":1081:1179   */\n              pop\n                /* \"--CODEGEN--\":1210:1212   */\n              0x40\n                /* \"--CODEGEN--\":1228:1279   */\n              tag_115\n                /* \"--CODEGEN--\":1271:1278   */\n              dup7\n                /* \"--CODEGEN--\":1262:1268   */\n              dup3\n                /* \"--CODEGEN--\":1251:1260   */\n              dup8\n                /* \"--CODEGEN--\":1247:1269   */\n              add\n                /* \"--CODEGEN--\":1228:1279   */\n              jump(tag_107)\n            tag_115:\n                /* \"--CODEGEN--\":1218:1279   */\n              swap2\n              pop\n                /* \"--CODEGEN--\":1189:1285   */\n              pop\n                /* \"--CODEGEN--\":810:1295   */\n              swap3\n              pop\n              swap3\n              pop\n              swap3\n              jump\n                /* \"--CODEGEN--\":1302:1412   */\n            tag_117:\n                /* \"--CODEGEN--\":1375:1406   */\n              tag_118\n                /* \"--CODEGEN--\":1400:1405   */\n              dup2\n                /* \"--CODEGEN--\":1375:1406   */\n              jump(tag_119)\n            tag_118:\n                /* \"--CODEGEN--\":1370:1373   */\n              dup3\n                /* \"--CODEGEN--\":1363:1407   */\n              mstore\n                /* \"--CODEGEN--\":1357:1412   */\n              pop\n              pop\n              jump\n                /* \"--CODEGEN--\":1450:2040   */\n            tag_121:\n              0x0\n                /* \"--CODEGEN--\":1585:1639   */\n              tag_122\n                /* \"--CODEGEN--\":1633:1638   */\n              dup3\n                /* \"--CODEGEN--\":1585:1639   */\n              jump(tag_123)\n            tag_122:\n                /* \"--CODEGEN--\":1657:1663   */\n              dup1\n                /* \"--CODEGEN--\":1652:1655   */\n              dup5\n                /* \"--CODEGEN--\":1645:1664   */\n              mstore\n                /* \"--CODEGEN--\":1681:1685   */\n              0x20\n                /* \"--CODEGEN--\":1676:1679   */\n              dup5\n                /* \"--CODEGEN--\":1672:1686   */\n              add\n                /* \"--CODEGEN--\":1665:1686   */\n              swap4\n              pop\n                /* \"--CODEGEN--\":1726:1782   */\n              tag_124\n                /* \"--CODEGEN--\":1776:1781   */\n              dup4\n                /* \"--CODEGEN--\":1726:1782   */\n              jump(tag_125)\n            tag_124:\n                /* \"--CODEGEN--\":1803:1804   */\n              0x0\n                /* \"--CODEGEN--\":1788:2018   */\n            tag_126:\n                /* \"--CODEGEN--\":1813:1819   */\n              dup3\n                /* \"--CODEGEN--\":1810:1811   */\n              dup2\n                /* \"--CODEGEN--\":1807:1820   */\n              lt\n                /* \"--CODEGEN--\":1788:2018   */\n              iszero\n              tag_127\n              jumpi\n                /* \"--CODEGEN--\":1853:1906   */\n              tag_129\n                /* \"--CODEGEN--\":1902:1905   */\n              dup7\n                /* \"--CODEGEN--\":1893:1899   */\n              dup4\n                /* \"--CODEGEN--\":1887:1900   */\n              mload\n                /* \"--CODEGEN--\":1853:1906   */\n              jump(tag_117)\n            tag_129:\n                /* \"--CODEGEN--\":1923:1983   */\n              tag_130\n                /* \"--CODEGEN--\":1976:1982   */\n              dup3\n                /* \"--CODEGEN--\":1923:1983   */\n              jump(tag_131)\n            tag_130:\n                /* \"--CODEGEN--\":1913:1983   */\n              swap2\n              pop\n                /* \"--CODEGEN--\":2006:2010   */\n              0x20\n                /* \"--CODEGEN--\":2001:2004   */\n              dup7\n                /* \"--CODEGEN--\":1997:2011   */\n              add\n                /* \"--CODEGEN--\":1990:2011   */\n              swap6\n              pop\n                /* \"--CODEGEN--\":1835:1836   */\n              0x1\n                /* \"--CODEGEN--\":1832:1833   */\n              dup2\n                /* \"--CODEGEN--\":1828:1837   */\n              add\n                /* \"--CODEGEN--\":1823:1837   */\n              swap1\n              pop\n                /* \"--CODEGEN--\":1788:2018   */\n              jump(tag_126)\n            tag_127:\n                /* \"--CODEGEN--\":1792:1806   */\n              pop\n                /* \"--CODEGEN--\":2031:2034   */\n              dup5\n                /* \"--CODEGEN--\":2024:2034   */\n              swap3\n              pop\n                /* \"--CODEGEN--\":1564:2040   */\n              pop\n              pop\n              swap3\n              swap2\n              pop\n              pop\n              jump\n                /* \"--CODEGEN--\":2077:2850   */\n            tag_133:\n              0x0\n                /* \"--CODEGEN--\":2224:2284   */\n              tag_134\n                /* \"--CODEGEN--\":2278:2283   */\n              dup3\n                /* \"--CODEGEN--\":2224:2284   */\n              jump(tag_135)\n            tag_134:\n                /* \"--CODEGEN--\":2302:2308   */\n              dup1\n                /* \"--CODEGEN--\":2297:2300   */\n              dup5\n                /* \"--CODEGEN--\":2290:2309   */\n              mstore\n                /* \"--CODEGEN--\":2326:2330   */\n              0x20\n                /* \"--CODEGEN--\":2321:2324   */\n              dup5\n                /* \"--CODEGEN--\":2317:2331   */\n              add\n                /* \"--CODEGEN--\":2310:2331   */\n              swap4\n              pop\n                /* \"--CODEGEN--\":2374:2377   */\n              dup4\n                /* \"--CODEGEN--\":2416:2420   */\n              0x20\n                /* \"--CODEGEN--\":2408:2414   */\n              dup3\n                /* \"--CODEGEN--\":2404:2421   */\n              mul\n                /* \"--CODEGEN--\":2399:2402   */\n              dup6\n                /* \"--CODEGEN--\":2395:2422   */\n              add\n                /* \"--CODEGEN--\":2442:2504   */\n              tag_136\n                /* \"--CODEGEN--\":2498:2503   */\n              dup6\n                /* \"--CODEGEN--\":2442:2504   */\n              jump(tag_137)\n            tag_136:\n                /* \"--CODEGEN--\":2525:2526   */\n              0x0\n                /* \"--CODEGEN--\":2510:2811   */\n            tag_138:\n                /* \"--CODEGEN--\":2535:2541   */\n              dup5\n                /* \"--CODEGEN--\":2532:2533   */\n              dup2\n                /* \"--CODEGEN--\":2529:2542   */\n              lt\n                /* \"--CODEGEN--\":2510:2811   */\n              iszero\n              tag_139\n              jumpi\n                /* \"--CODEGEN--\":2597:2606   */\n              dup4\n                /* \"--CODEGEN--\":2591:2595   */\n              dup4\n                /* \"--CODEGEN--\":2587:2607   */\n              sub\n                /* \"--CODEGEN--\":2582:2585   */\n              dup9\n                /* \"--CODEGEN--\":2575:2608   */\n              mstore\n                /* \"--CODEGEN--\":2623:2693   */\n              tag_141\n                /* \"--CODEGEN--\":2688:2692   */\n              dup4\n                /* \"--CODEGEN--\":2679:2685   */\n              dup4\n                /* \"--CODEGEN--\":2673:2686   */\n              mload\n                /* \"--CODEGEN--\":2623:2693   */\n              jump(tag_142)\n            tag_141:\n                /* \"--CODEGEN--\":2615:2693   */\n              swap3\n              pop\n                /* \"--CODEGEN--\":2710:2776   */\n              tag_143\n                /* \"--CODEGEN--\":2769:2775   */\n              dup3\n                /* \"--CODEGEN--\":2710:2776   */\n              jump(tag_144)\n            tag_143:\n                /* \"--CODEGEN--\":2700:2776   */\n              swap2\n              pop\n                /* \"--CODEGEN--\":2799:2803   */\n              0x20\n                /* \"--CODEGEN--\":2794:2797   */\n              dup9\n                /* \"--CODEGEN--\":2790:2804   */\n              add\n                /* \"--CODEGEN--\":2783:2804   */\n              swap8\n              pop\n                /* \"--CODEGEN--\":2557:2558   */\n              0x1\n                /* \"--CODEGEN--\":2554:2555   */\n              dup2\n                /* \"--CODEGEN--\":2550:2559   */\n              add\n                /* \"--CODEGEN--\":2545:2559   */\n              swap1\n              pop\n                /* \"--CODEGEN--\":2510:2811   */\n              jump(tag_138)\n            tag_139:\n                /* \"--CODEGEN--\":2514:2528   */\n              pop\n                /* \"--CODEGEN--\":2824:2828   */\n              dup2\n                /* \"--CODEGEN--\":2817:2828   */\n              swap7\n              pop\n                /* \"--CODEGEN--\":2841:2844   */\n              dup7\n                /* \"--CODEGEN--\":2834:2844   */\n              swap5\n              pop\n                /* \"--CODEGEN--\":2203:2850   */\n              pop\n              pop\n              pop\n              pop\n              swap3\n              swap2\n              pop\n              pop\n              jump\n                /* \"--CODEGEN--\":2889:3479   */\n            tag_146:\n              0x0\n                /* \"--CODEGEN--\":3024:3078   */\n              tag_147\n                /* \"--CODEGEN--\":3072:3077   */\n              dup3\n                /* \"--CODEGEN--\":3024:3078   */\n              jump(tag_148)\n            tag_147:\n                /* \"--CODEGEN--\":3096:3102   */\n              dup1\n                /* \"--CODEGEN--\":3091:3094   */\n              dup5\n                /* \"--CODEGEN--\":3084:3103   */\n              mstore\n                /* \"--CODEGEN--\":3120:3124   */\n              0x20\n                /* \"--CODEGEN--\":3115:3118   */\n              dup5\n                /* \"--CODEGEN--\":3111:3125   */\n              add\n                /* \"--CODEGEN--\":3104:3125   */\n              swap4\n              pop\n                /* \"--CODEGEN--\":3165:3221   */\n              tag_149\n                /* \"--CODEGEN--\":3215:3220   */\n              dup4\n                /* \"--CODEGEN--\":3165:3221   */\n              jump(tag_150)\n            tag_149:\n                /* \"--CODEGEN--\":3242:3243   */\n              0x0\n                /* \"--CODEGEN--\":3227:3457   */\n            tag_151:\n                /* \"--CODEGEN--\":3252:3258   */\n              dup3\n                /* \"--CODEGEN--\":3249:3250   */\n              dup2\n                /* \"--CODEGEN--\":3246:3259   */\n              lt\n                /* \"--CODEGEN--\":3227:3457   */\n              iszero\n              tag_152\n              jumpi\n                /* \"--CODEGEN--\":3292:3345   */\n              tag_154\n                /* \"--CODEGEN--\":3341:3344   */\n              dup7\n                /* \"--CODEGEN--\":3332:3338   */\n              dup4\n                /* \"--CODEGEN--\":3326:3339   */\n              mload\n                /* \"--CODEGEN--\":3292:3345   */\n              jump(tag_155)\n            tag_154:\n                /* \"--CODEGEN--\":3362:3422   */\n              tag_156\n                /* \"--CODEGEN--\":3415:3421   */\n              dup3\n                /* \"--CODEGEN--\":3362:3422   */\n              jump(tag_157)\n            tag_156:\n                /* \"--CODEGEN--\":3352:3422   */\n              swap2\n              pop\n                /* \"--CODEGEN--\":3445:3449   */\n              0x20\n                /* \"--CODEGEN--\":3440:3443   */\n              dup7\n                /* \"--CODEGEN--\":3436:3450   */\n              add\n                /* \"--CODEGEN--\":3429:3450   */\n              swap6\n              pop\n                /* \"--CODEGEN--\":3274:3275   */\n              0x1\n                /* \"--CODEGEN--\":3271:3272   */\n              dup2\n                /* \"--CODEGEN--\":3267:3276   */\n              add\n                /* \"--CODEGEN--\":3262:3276   */\n              swap1\n              pop\n                /* \"--CODEGEN--\":3227:3457   */\n              jump(tag_151)\n            tag_152:\n                /* \"--CODEGEN--\":3231:3245   */\n              pop\n                /* \"--CODEGEN--\":3470:3473   */\n              dup5\n                /* \"--CODEGEN--\":3463:3473   */\n              swap3\n              pop\n                /* \"--CODEGEN--\":3003:3479   */\n              pop\n              pop\n              swap3\n              swap2\n              pop\n              pop\n              jump\n                /* \"--CODEGEN--\":3514:4090   */\n            tag_159:\n              0x0\n                /* \"--CODEGEN--\":3645:3697   */\n              tag_160\n                /* \"--CODEGEN--\":3691:3696   */\n              dup3\n                /* \"--CODEGEN--\":3645:3697   */\n              jump(tag_161)\n            tag_160:\n                /* \"--CODEGEN--\":3715:3721   */\n              dup1\n                /* \"--CODEGEN--\":3710:3713   */\n              dup5\n                /* \"--CODEGEN--\":3703:3722   */\n              mstore\n                /* \"--CODEGEN--\":3739:3743   */\n              0x20\n                /* \"--CODEGEN--\":3734:3737   */\n              dup5\n                /* \"--CODEGEN--\":3730:3744   */\n              add\n                /* \"--CODEGEN--\":3723:3744   */\n              swap4\n              pop\n                /* \"--CODEGEN--\":3784:3838   */\n              tag_162\n                /* \"--CODEGEN--\":3832:3837   */\n              dup4\n                /* \"--CODEGEN--\":3784:3838   */\n              jump(tag_163)\n            tag_162:\n                /* \"--CODEGEN--\":3859:3860   */\n              0x0\n                /* \"--CODEGEN--\":3844:4068   */\n            tag_164:\n                /* \"--CODEGEN--\":3869:3875   */\n              dup3\n                /* \"--CODEGEN--\":3866:3867   */\n              dup2\n                /* \"--CODEGEN--\":3863:3876   */\n              lt\n                /* \"--CODEGEN--\":3844:4068   */\n              iszero\n              tag_165\n              jumpi\n                /* \"--CODEGEN--\":3909:3958   */\n              tag_167\n                /* \"--CODEGEN--\":3954:3957   */\n              dup7\n                /* \"--CODEGEN--\":3945:3951   */\n              dup4\n                /* \"--CODEGEN--\":3939:3952   */\n              mload\n                /* \"--CODEGEN--\":3909:3958   */\n              jump(tag_168)\n            tag_167:\n                /* \"--CODEGEN--\":3975:4033   */\n              tag_169\n                /* \"--CODEGEN--\":4026:4032   */\n              dup3\n                /* \"--CODEGEN--\":3975:4033   */\n              jump(tag_170)\n            tag_169:\n                /* \"--CODEGEN--\":3965:4033   */\n              swap2\n              pop\n                /* \"--CODEGEN--\":4056:4060   */\n              0x20\n                /* \"--CODEGEN--\":4051:4054   */\n              dup7\n                /* \"--CODEGEN--\":4047:4061   */\n              add\n                /* \"--CODEGEN--\":4040:4061   */\n              swap6\n              pop\n                /* \"--CODEGEN--\":3891:3892   */\n              0x1\n                /* \"--CODEGEN--\":3888:3889   */\n              dup2\n                /* \"--CODEGEN--\":3884:3893   */\n              add\n                /* \"--CODEGEN--\":3879:3893   */\n              swap1\n              pop\n                /* \"--CODEGEN--\":3844:4068   */\n              jump(tag_164)\n            tag_165:\n                /* \"--CODEGEN--\":3848:3862   */\n              pop\n                /* \"--CODEGEN--\":4081:4084   */\n              dup5\n                /* \"--CODEGEN--\":4074:4084   */\n              swap3\n              pop\n                /* \"--CODEGEN--\":3624:4090   */\n              pop\n              pop\n              swap3\n              swap2\n              pop\n              pop\n              jump\n                /* \"--CODEGEN--\":4098:4199   */\n            tag_172:\n                /* \"--CODEGEN--\":4165:4193   */\n              tag_173\n                /* \"--CODEGEN--\":4187:4192   */\n              dup2\n                /* \"--CODEGEN--\":4165:4193   */\n              jump(tag_174)\n            tag_173:\n                /* \"--CODEGEN--\":4160:4163   */\n              dup3\n                /* \"--CODEGEN--\":4153:4194   */\n              mstore\n                /* \"--CODEGEN--\":4147:4199   */\n              pop\n              pop\n              jump\n                /* \"--CODEGEN--\":4206:4506   */\n            tag_176:\n              0x0\n                /* \"--CODEGEN--\":4308:4347   */\n              tag_177\n                /* \"--CODEGEN--\":4341:4346   */\n              dup3\n                /* \"--CODEGEN--\":4308:4347   */\n              jump(tag_178)\n            tag_177:\n                /* \"--CODEGEN--\":4364:4370   */\n              dup1\n                /* \"--CODEGEN--\":4359:4362   */\n              dup5\n                /* \"--CODEGEN--\":4352:4371   */\n              mstore\n                /* \"--CODEGEN--\":4376:4439   */\n              tag_179\n                /* \"--CODEGEN--\":4432:4438   */\n              dup2\n                /* \"--CODEGEN--\":4425:4429   */\n              0x20\n                /* \"--CODEGEN--\":4420:4423   */\n              dup7\n                /* \"--CODEGEN--\":4416:4430   */\n              add\n                /* \"--CODEGEN--\":4409:4413   */\n              0x20\n                /* \"--CODEGEN--\":4402:4407   */\n              dup7\n                /* \"--CODEGEN--\":4398:4414   */\n              add\n                /* \"--CODEGEN--\":4376:4439   */\n              jump(tag_180)\n            tag_179:\n                /* \"--CODEGEN--\":4471:4500   */\n              tag_181\n                /* \"--CODEGEN--\":4493:4499   */\n              dup2\n                /* \"--CODEGEN--\":4471:4500   */\n              jump(tag_182)\n            tag_181:\n                /* \"--CODEGEN--\":4464:4468   */\n              0x20\n                /* \"--CODEGEN--\":4459:4462   */\n              dup6\n                /* \"--CODEGEN--\":4455:4469   */\n              add\n                /* \"--CODEGEN--\":4451:4501   */\n              add\n                /* \"--CODEGEN--\":4444:4501   */\n              swap2\n              pop\n                /* \"--CODEGEN--\":4288:4506   */\n              pop\n              swap3\n              swap2\n              pop\n              pop\n              jump\n                /* \"--CODEGEN--\":4513:4805   */\n            tag_142:\n              0x0\n                /* \"--CODEGEN--\":4611:4646   */\n              tag_184\n                /* \"--CODEGEN--\":4640:4645   */\n              dup3\n                /* \"--CODEGEN--\":4611:4646   */\n              jump(tag_185)\n            tag_184:\n                /* \"--CODEGEN--\":4663:4669   */\n              dup1\n                /* \"--CODEGEN--\":4658:4661   */\n              dup5\n                /* \"--CODEGEN--\":4651:4670   */\n              mstore\n                /* \"--CODEGEN--\":4675:4738   */\n              tag_186\n                /* \"--CODEGEN--\":4731:4737   */\n              dup2\n                /* \"--CODEGEN--\":4724:4728   */\n              0x20\n                /* \"--CODEGEN--\":4719:4722   */\n              dup7\n                /* \"--CODEGEN--\":4715:4729   */\n              add\n                /* \"--CODEGEN--\":4708:4712   */\n              0x20\n                /* \"--CODEGEN--\":4701:4706   */\n              dup7\n                /* \"--CODEGEN--\":4697:4713   */\n              add\n                /* \"--CODEGEN--\":4675:4738   */\n              jump(tag_180)\n            tag_186:\n                /* \"--CODEGEN--\":4770:4799   */\n              tag_187\n                /* \"--CODEGEN--\":4792:4798   */\n              dup2\n                /* \"--CODEGEN--\":4770:4799   */\n              jump(tag_182)\n            tag_187:\n                /* \"--CODEGEN--\":4763:4767   */\n              0x20\n                /* \"--CODEGEN--\":4758:4761   */\n              dup6\n                /* \"--CODEGEN--\":4754:4768   */\n              add\n                /* \"--CODEGEN--\":4750:4800   */\n              add\n                /* \"--CODEGEN--\":4743:4800   */\n              swap2\n              pop\n                /* \"--CODEGEN--\":4591:4805   */\n              pop\n              swap3\n              swap2\n              pop\n              pop\n              jump\n                /* \"--CODEGEN--\":4813:5109   */\n            tag_189:\n              0x0\n                /* \"--CODEGEN--\":4968:4970   */\n              0x1e\n                /* \"--CODEGEN--\":4963:4966   */\n              dup3\n                /* \"--CODEGEN--\":4956:4971   */\n              mstore\n                /* \"--CODEGEN--\":5005:5071   */\n              0x6f6e6c7920747261636520636f6e74726163742063616e20696e766f6b650000\n                /* \"--CODEGEN--\":5000:5002   */\n              0x20\n                /* \"--CODEGEN--\":4995:4998   */\n              dup4\n                /* \"--CODEGEN--\":4991:5003   */\n              add\n                /* \"--CODEGEN--\":4984:5072   */\n              mstore\n                /* \"--CODEGEN--\":5100:5102   */\n              0x40\n                /* \"--CODEGEN--\":5095:5098   */\n              dup3\n                /* \"--CODEGEN--\":5091:5103   */\n              add\n                /* \"--CODEGEN--\":5084:5103   */\n              swap1\n              pop\n                /* \"--CODEGEN--\":4949:5109   */\n              swap2\n              swap1\n              pop\n              jump\n                /* \"--CODEGEN--\":5118:5414   */\n            tag_191:\n              0x0\n                /* \"--CODEGEN--\":5273:5275   */\n              0x18\n                /* \"--CODEGEN--\":5268:5271   */\n              dup3\n                /* \"--CODEGEN--\":5261:5276   */\n              mstore\n                /* \"--CODEGEN--\":5310:5376   */\n              0x737461747573206d7573742062652070726f647563696e670000000000000000\n                /* \"--CODEGEN--\":5305:5307   */\n              0x20\n                /* \"--CODEGEN--\":5300:5303   */\n              dup4\n                /* \"--CODEGEN--\":5296:5308   */\n              add\n                /* \"--CODEGEN--\":5289:5377   */\n              mstore\n                /* \"--CODEGEN--\":5405:5407   */\n              0x40\n                /* \"--CODEGEN--\":5400:5403   */\n              dup3\n                /* \"--CODEGEN--\":5396:5408   */\n              add\n                /* \"--CODEGEN--\":5389:5408   */\n              swap1\n              pop\n                /* \"--CODEGEN--\":5254:5414   */\n              swap2\n              swap1\n              pop\n              jump\n                /* \"--CODEGEN--\":5423:5719   */\n            tag_193:\n              0x0\n                /* \"--CODEGEN--\":5578:5580   */\n              0x1b\n                /* \"--CODEGEN--\":5573:5576   */\n              dup3\n                /* \"--CODEGEN--\":5566:5581   */\n              mstore\n                /* \"--CODEGEN--\":5615:5681   */\n              0x737461747573206d75737420626520646973747269627574696e670000000000\n                /* \"--CODEGEN--\":5610:5612   */\n              0x20\n                /* \"--CODEGEN--\":5605:5608   */\n              dup4\n                /* \"--CODEGEN--\":5601:5613   */\n              add\n                /* \"--CODEGEN--\":5594:5682   */\n              mstore\n                /* \"--CODEGEN--\":5710:5712   */\n              0x40\n                /* \"--CODEGEN--\":5705:5708   */\n              dup3\n                /* \"--CODEGEN--\":5701:5713   */\n              add\n                /* \"--CODEGEN--\":5694:5713   */\n              swap1\n              pop\n                /* \"--CODEGEN--\":5559:5719   */\n              swap2\n              swap1\n              pop\n              jump\n                /* \"--CODEGEN--\":5727:5837   */\n            tag_155:\n                /* \"--CODEGEN--\":5800:5831   */\n              tag_195\n                /* \"--CODEGEN--\":5825:5830   */\n              dup2\n                /* \"--CODEGEN--\":5800:5831   */\n              jump(tag_196)\n            tag_195:\n                /* \"--CODEGEN--\":5795:5798   */\n              dup3\n                /* \"--CODEGEN--\":5788:5832   */\n              mstore\n                /* \"--CODEGEN--\":5782:5837   */\n              pop\n              pop\n              jump\n                /* \"--CODEGEN--\":5844:5948   */\n            tag_168:\n                /* \"--CODEGEN--\":5913:5942   */\n              tag_198\n                /* \"--CODEGEN--\":5936:5941   */\n              dup2\n                /* \"--CODEGEN--\":5913:5942   */\n              jump(tag_199)\n            tag_198:\n                /* \"--CODEGEN--\":5908:5911   */\n              dup3\n                /* \"--CODEGEN--\":5901:5943   */\n              mstore\n                /* \"--CODEGEN--\":5895:5948   */\n              pop\n              pop\n              jump\n                /* \"--CODEGEN--\":5955:7060   */\n            tag_22:\n              0x0\n                /* \"--CODEGEN--\":6355:6358   */\n              0x80\n                /* \"--CODEGEN--\":6344:6353   */\n              dup3\n                /* \"--CODEGEN--\":6340:6359   */\n              add\n                /* \"--CODEGEN--\":6332:6359   */\n              swap1\n              pop\n                /* \"--CODEGEN--\":6406:6415   */\n              dup2\n                /* \"--CODEGEN--\":6400:6404   */\n              dup2\n                /* \"--CODEGEN--\":6396:6416   */\n              sub\n                /* \"--CODEGEN--\":6392:6393   */\n              0x0\n                /* \"--CODEGEN--\":6381:6390   */\n              dup4\n                /* \"--CODEGEN--\":6377:6394   */\n              add\n                /* \"--CODEGEN--\":6370:6417   */\n              mstore\n                /* \"--CODEGEN--\":6431:6529   */\n              tag_201\n                /* \"--CODEGEN--\":6524:6528   */\n              dup2\n                /* \"--CODEGEN--\":6515:6521   */\n              dup8\n                /* \"--CODEGEN--\":6431:6529   */\n              jump(tag_146)\n            tag_201:\n                /* \"--CODEGEN--\":6423:6529   */\n              swap1\n              pop\n                /* \"--CODEGEN--\":6577:6586   */\n              dup2\n                /* \"--CODEGEN--\":6571:6575   */\n              dup2\n                /* \"--CODEGEN--\":6567:6587   */\n              sub\n                /* \"--CODEGEN--\":6562:6564   */\n              0x20\n                /* \"--CODEGEN--\":6551:6560   */\n              dup4\n                /* \"--CODEGEN--\":6547:6565   */\n              add\n                /* \"--CODEGEN--\":6540:6588   */\n              mstore\n                /* \"--CODEGEN--\":6602:6712   */\n              tag_202\n                /* \"--CODEGEN--\":6707:6711   */\n              dup2\n                /* \"--CODEGEN--\":6698:6704   */\n              dup7\n                /* \"--CODEGEN--\":6602:6712   */\n              jump(tag_133)\n            tag_202:\n                /* \"--CODEGEN--\":6594:6712   */\n              swap1\n              pop\n                /* \"--CODEGEN--\":6760:6769   */\n              dup2\n                /* \"--CODEGEN--\":6754:6758   */\n              dup2\n                /* \"--CODEGEN--\":6750:6770   */\n              sub\n                /* \"--CODEGEN--\":6745:6747   */\n              0x40\n                /* \"--CODEGEN--\":6734:6743   */\n              dup4\n                /* \"--CODEGEN--\":6730:6748   */\n              add\n                /* \"--CODEGEN--\":6723:6771   */\n              mstore\n                /* \"--CODEGEN--\":6785:6883   */\n              tag_203\n                /* \"--CODEGEN--\":6878:6882   */\n              dup2\n                /* \"--CODEGEN--\":6869:6875   */\n              dup6\n                /* \"--CODEGEN--\":6785:6883   */\n              jump(tag_121)\n            tag_203:\n                /* \"--CODEGEN--\":6777:6883   */\n              swap1\n              pop\n                /* \"--CODEGEN--\":6931:6940   */\n              dup2\n                /* \"--CODEGEN--\":6925:6929   */\n              dup2\n                /* \"--CODEGEN--\":6921:6941   */\n              sub\n                /* \"--CODEGEN--\":6916:6918   */\n              0x60\n                /* \"--CODEGEN--\":6905:6914   */\n              dup4\n                /* \"--CODEGEN--\":6901:6919   */\n              add\n                /* \"--CODEGEN--\":6894:6942   */\n              mstore\n                /* \"--CODEGEN--\":6956:7050   */\n              tag_204\n                /* \"--CODEGEN--\":7045:7049   */\n              dup2\n                /* \"--CODEGEN--\":7036:7042   */\n              dup5\n                /* \"--CODEGEN--\":6956:7050   */\n              jump(tag_159)\n            tag_204:\n                /* \"--CODEGEN--\":6948:7050   */\n              swap1\n              pop\n                /* \"--CODEGEN--\":6326:7060   */\n              swap6\n              swap5\n              pop\n              pop\n              pop\n              pop\n              pop\n              jump\n                /* \"--CODEGEN--\":7067:7248   */\n            tag_12:\n              0x0\n                /* \"--CODEGEN--\":7169:7171   */\n              0x20\n                /* \"--CODEGEN--\":7158:7167   */\n              dup3\n                /* \"--CODEGEN--\":7154:7172   */\n              add\n                /* \"--CODEGEN--\":7146:7172   */\n              swap1\n              pop\n                /* \"--CODEGEN--\":7183:7238   */\n              tag_206\n                /* \"--CODEGEN--\":7235:7236   */\n              0x0\n                /* \"--CODEGEN--\":7224:7233   */\n              dup4\n                /* \"--CODEGEN--\":7220:7237   */\n              add\n                /* \"--CODEGEN--\":7211:7217   */\n              dup5\n                /* \"--CODEGEN--\":7183:7238   */\n              jump(tag_172)\n            tag_206:\n                /* \"--CODEGEN--\":7140:7248   */\n              swap3\n              swap2\n              pop\n              pop\n              jump\n                /* \"--CODEGEN--\":7255:7642   */\n            tag_34:\n              0x0\n                /* \"--CODEGEN--\":7436:7438   */\n              0x20\n                /* \"--CODEGEN--\":7425:7434   */\n              dup3\n                /* \"--CODEGEN--\":7421:7439   */\n              add\n                /* \"--CODEGEN--\":7413:7439   */\n              swap1\n              pop\n                /* \"--CODEGEN--\":7486:7495   */\n              dup2\n                /* \"--CODEGEN--\":7480:7484   */\n              dup2\n                /* \"--CODEGEN--\":7476:7496   */\n              sub\n                /* \"--CODEGEN--\":7472:7473   */\n              0x0\n                /* \"--CODEGEN--\":7461:7470   */\n              dup4\n                /* \"--CODEGEN--\":7457:7474   */\n              add\n                /* \"--CODEGEN--\":7450:7497   */\n              mstore\n                /* \"--CODEGEN--\":7511:7632   */\n              tag_208\n                /* \"--CODEGEN--\":7627:7631   */\n              dup2\n                /* \"--CODEGEN--\":7511:7632   */\n              jump(tag_189)\n            tag_208:\n                /* \"--CODEGEN--\":7503:7632   */\n              swap1\n              pop\n                /* \"--CODEGEN--\":7407:7642   */\n              swap2\n              swap1\n              pop\n              jump\n                /* \"--CODEGEN--\":7649:8036   */\n            tag_31:\n              0x0\n                /* \"--CODEGEN--\":7830:7832   */\n              0x20\n                /* \"--CODEGEN--\":7819:7828   */\n              dup3\n                /* \"--CODEGEN--\":7815:7833   */\n              add\n                /* \"--CODEGEN--\":7807:7833   */\n              swap1\n              pop\n                /* \"--CODEGEN--\":7880:7889   */\n              dup2\n                /* \"--CODEGEN--\":7874:7878   */\n              dup2\n                /* \"--CODEGEN--\":7870:7890   */\n              sub\n                /* \"--CODEGEN--\":7866:7867   */\n              0x0\n                /* \"--CODEGEN--\":7855:7864   */\n              dup4\n                /* \"--CODEGEN--\":7851:7868   */\n              add\n                /* \"--CODEGEN--\":7844:7891   */\n              mstore\n                /* \"--CODEGEN--\":7905:8026   */\n              tag_210\n                /* \"--CODEGEN--\":8021:8025   */\n              dup2\n                /* \"--CODEGEN--\":7905:8026   */\n              jump(tag_191)\n            tag_210:\n                /* \"--CODEGEN--\":7897:8026   */\n              swap1\n              pop\n                /* \"--CODEGEN--\":7801:8036   */\n              swap2\n              swap1\n              pop\n              jump\n                /* \"--CODEGEN--\":8043:8430   */\n            tag_74:\n              0x0\n                /* \"--CODEGEN--\":8224:8226   */\n              0x20\n                /* \"--CODEGEN--\":8213:8222   */\n              dup3\n                /* \"--CODEGEN--\":8209:8227   */\n              add\n                /* \"--CODEGEN--\":8201:8227   */\n              swap1\n              pop\n                /* \"--CODEGEN--\":8274:8283   */\n              dup2\n                /* \"--CODEGEN--\":8268:8272   */\n              dup2\n                /* \"--CODEGEN--\":8264:8284   */\n              sub\n                /* \"--CODEGEN--\":8260:8261   */\n              0x0\n                /* \"--CODEGEN--\":8249:8258   */\n              dup4\n                /* \"--CODEGEN--\":8245:8262   */\n              add\n                /* \"--CODEGEN--\":8238:8285   */\n              mstore\n                /* \"--CODEGEN--\":8299:8420   */\n              tag_212\n                /* \"--CODEGEN--\":8415:8419   */\n              dup2\n                /* \"--CODEGEN--\":8299:8420   */\n              jump(tag_193)\n            tag_212:\n                /* \"--CODEGEN--\":8291:8420   */\n              swap1\n              pop\n                /* \"--CODEGEN--\":8195:8430   */\n              swap2\n              swap1\n              pop\n              jump\n                /* \"--CODEGEN--\":8437:9394   */\n            tag_17:\n              0x0\n                /* \"--CODEGEN--\":8741:8744   */\n              0xc0\n                /* \"--CODEGEN--\":8730:8739   */\n              dup3\n                /* \"--CODEGEN--\":8726:8745   */\n              add\n                /* \"--CODEGEN--\":8718:8745   */\n              swap1\n              pop\n                /* \"--CODEGEN--\":8756:8817   */\n              tag_214\n                /* \"--CODEGEN--\":8814:8815   */\n              0x0\n                /* \"--CODEGEN--\":8803:8812   */\n              dup4\n                /* \"--CODEGEN--\":8799:8816   */\n              add\n                /* \"--CODEGEN--\":8790:8796   */\n              dup10\n                /* \"--CODEGEN--\":8756:8817   */\n              jump(tag_155)\n            tag_214:\n                /* \"--CODEGEN--\":8865:8874   */\n              dup2\n                /* \"--CODEGEN--\":8859:8863   */\n              dup2\n                /* \"--CODEGEN--\":8855:8875   */\n              sub\n                /* \"--CODEGEN--\":8850:8852   */\n              0x20\n                /* \"--CODEGEN--\":8839:8848   */\n              dup4\n                /* \"--CODEGEN--\":8835:8853   */\n              add\n                /* \"--CODEGEN--\":8828:8876   */\n              mstore\n                /* \"--CODEGEN--\":8890:8958   */\n              tag_215\n                /* \"--CODEGEN--\":8953:8957   */\n              dup2\n                /* \"--CODEGEN--\":8944:8950   */\n              dup9\n                /* \"--CODEGEN--\":8890:8958   */\n              jump(tag_176)\n            tag_215:\n                /* \"--CODEGEN--\":8882:8958   */\n              swap1\n              pop\n                /* \"--CODEGEN--\":9006:9015   */\n              dup2\n                /* \"--CODEGEN--\":9000:9004   */\n              dup2\n                /* \"--CODEGEN--\":8996:9016   */\n              sub\n                /* \"--CODEGEN--\":8991:8993   */\n              0x40\n                /* \"--CODEGEN--\":8980:8989   */\n              dup4\n                /* \"--CODEGEN--\":8976:8994   */\n              add\n                /* \"--CODEGEN--\":8969:9017   */\n              mstore\n                /* \"--CODEGEN--\":9031:9099   */\n              tag_216\n                /* \"--CODEGEN--\":9094:9098   */\n              dup2\n                /* \"--CODEGEN--\":9085:9091   */\n              dup8\n                /* \"--CODEGEN--\":9031:9099   */\n              jump(tag_176)\n            tag_216:\n                /* \"--CODEGEN--\":9023:9099   */\n              swap1\n              pop\n                /* \"--CODEGEN--\":9147:9156   */\n              dup2\n                /* \"--CODEGEN--\":9141:9145   */\n              dup2\n                /* \"--CODEGEN--\":9137:9157   */\n              sub\n                /* \"--CODEGEN--\":9132:9134   */\n              0x60\n                /* \"--CODEGEN--\":9121:9130   */\n              dup4\n                /* \"--CODEGEN--\":9117:9135   */\n              add\n                /* \"--CODEGEN--\":9110:9158   */\n              mstore\n                /* \"--CODEGEN--\":9172:9240   */\n              tag_217\n                /* \"--CODEGEN--\":9235:9239   */\n              dup2\n                /* \"--CODEGEN--\":9226:9232   */\n              dup7\n                /* \"--CODEGEN--\":9172:9240   */\n              jump(tag_176)\n            tag_217:\n                /* \"--CODEGEN--\":9164:9240   */\n              swap1\n              pop\n                /* \"--CODEGEN--\":9251:9314   */\n              tag_218\n                /* \"--CODEGEN--\":9309:9312   */\n              0x80\n                /* \"--CODEGEN--\":9298:9307   */\n              dup4\n                /* \"--CODEGEN--\":9294:9313   */\n              add\n                /* \"--CODEGEN--\":9285:9291   */\n              dup6\n                /* \"--CODEGEN--\":9251:9314   */\n              jump(tag_117)\n            tag_218:\n                /* \"--CODEGEN--\":9325:9384   */\n              tag_219\n                /* \"--CODEGEN--\":9379:9382   */\n              0xa0\n                /* \"--CODEGEN--\":9368:9377   */\n              dup4\n                /* \"--CODEGEN--\":9364:9383   */\n              add\n                /* \"--CODEGEN--\":9355:9361   */\n              dup5\n                /* \"--CODEGEN--\":9325:9384   */\n              jump(tag_168)\n            tag_219:\n                /* \"--CODEGEN--\":8712:9394   */\n              swap8\n              swap7\n              pop\n              pop\n              pop\n              pop\n              pop\n              pop\n              pop\n              jump\n                /* \"--CODEGEN--\":9401:9657   */\n            tag_102:\n              0x0\n                /* \"--CODEGEN--\":9463:9465   */\n              0x40\n                /* \"--CODEGEN--\":9457:9466   */\n              mload\n                /* \"--CODEGEN--\":9447:9466   */\n              swap1\n              pop\n                /* \"--CODEGEN--\":9501:9505   */\n              dup2\n                /* \"--CODEGEN--\":9493:9499   */\n              dup2\n                /* \"--CODEGEN--\":9489:9506   */\n              add\n                /* \"--CODEGEN--\":9600:9606   */\n              dup2\n                /* \"--CODEGEN--\":9588:9598   */\n              dup2\n                /* \"--CODEGEN--\":9585:9607   */\n              lt\n                /* \"--CODEGEN--\":9564:9582   */\n              0xffffffffffffffff\n                /* \"--CODEGEN--\":9552:9562   */\n              dup3\n                /* \"--CODEGEN--\":9549:9583   */\n              gt\n                /* \"--CODEGEN--\":9546:9608   */\n              or\n                /* \"--CODEGEN--\":9543:9545   */\n              iszero\n              tag_221\n              jumpi\n                /* \"--CODEGEN--\":9621:9622   */\n              0x0\n                /* \"--CODEGEN--\":9618:9619   */\n              dup1\n                /* \"--CODEGEN--\":9611:9623   */\n              revert\n                /* \"--CODEGEN--\":9543:9545   */\n            tag_221:\n                /* \"--CODEGEN--\":9641:9651   */\n              dup1\n                /* \"--CODEGEN--\":9637:9639   */\n              0x40\n                /* \"--CODEGEN--\":9630:9652   */\n              mstore\n                /* \"--CODEGEN--\":9441:9657   */\n              pop\n              swap2\n              swap1\n              pop\n              jump\n                /* \"--CODEGEN--\":9664:9923   */\n            tag_101:\n              0x0\n                /* \"--CODEGEN--\":9808:9826   */\n              0xffffffffffffffff\n                /* \"--CODEGEN--\":9800:9806   */\n              dup3\n                /* \"--CODEGEN--\":9797:9827   */\n              gt\n                /* \"--CODEGEN--\":9794:9796   */\n              iszero\n              tag_223\n              jumpi\n                /* \"--CODEGEN--\":9840:9841   */\n              0x0\n                /* \"--CODEGEN--\":9837:9838   */\n              dup1\n                /* \"--CODEGEN--\":9830:9842   */\n              revert\n                /* \"--CODEGEN--\":9794:9796   */\n            tag_223:\n                /* \"--CODEGEN--\":9884:9888   */\n              0x1f\n                /* \"--CODEGEN--\":9880:9889   */\n              not\n                /* \"--CODEGEN--\":9873:9877   */\n              0x1f\n                /* \"--CODEGEN--\":9865:9871   */\n              dup4\n                /* \"--CODEGEN--\":9861:9878   */\n              add\n                /* \"--CODEGEN--\":9857:9890   */\n              and\n                /* \"--CODEGEN--\":9849:9890   */\n              swap1\n              pop\n                /* \"--CODEGEN--\":9913:9917   */\n              0x20\n                /* \"--CODEGEN--\":9907:9911   */\n              dup2\n                /* \"--CODEGEN--\":9903:9918   */\n              add\n                /* \"--CODEGEN--\":9895:9918   */\n              swap1\n              pop\n                /* \"--CODEGEN--\":9731:9923   */\n              swap2\n              swap1\n              pop\n              jump\n                /* \"--CODEGEN--\":9932:10053   */\n            tag_125:\n              0x0\n                /* \"--CODEGEN--\":10041:10045   */\n              0x20\n                /* \"--CODEGEN--\":10033:10039   */\n              dup3\n                /* \"--CODEGEN--\":10029:10046   */\n              add\n                /* \"--CODEGEN--\":10018:10046   */\n              swap1\n              pop\n                /* \"--CODEGEN--\":10010:10053   */\n              swap2\n              swap1\n              pop\n              jump\n                /* \"--CODEGEN--\":10064:10191   */\n            tag_137:\n              0x0\n                /* \"--CODEGEN--\":10179:10183   */\n              0x20\n                /* \"--CODEGEN--\":10171:10177   */\n              dup3\n                /* \"--CODEGEN--\":10167:10184   */\n              add\n                /* \"--CODEGEN--\":10156:10184   */\n              swap1\n              pop\n                /* \"--CODEGEN--\":10148:10191   */\n              swap2\n              swap1\n              pop\n              jump\n                /* \"--CODEGEN--\":10202:10323   */\n            tag_150:\n              0x0\n                /* \"--CODEGEN--\":10311:10315   */\n              0x20\n                /* \"--CODEGEN--\":10303:10309   */\n              dup3\n                /* \"--CODEGEN--\":10299:10316   */\n              add\n                /* \"--CODEGEN--\":10288:10316   */\n              swap1\n              pop\n                /* \"--CODEGEN--\":10280:10323   */\n              swap2\n              swap1\n              pop\n              jump\n                /* \"--CODEGEN--\":10334:10453   */\n            tag_163:\n              0x0\n                /* \"--CODEGEN--\":10441:10445   */\n              0x20\n                /* \"--CODEGEN--\":10433:10439   */\n              dup3\n                /* \"--CODEGEN--\":10429:10446   */\n              add\n                /* \"--CODEGEN--\":10418:10446   */\n              swap1\n              pop\n                /* \"--CODEGEN--\":10410:10453   */\n              swap2\n              swap1\n              pop\n              jump\n                /* \"--CODEGEN--\":10462:10569   */\n            tag_123:\n              0x0\n                /* \"--CODEGEN--\":10558:10563   */\n              dup2\n                /* \"--CODEGEN--\":10552:10564   */\n              mload\n                /* \"--CODEGEN--\":10542:10564   */\n              swap1\n              pop\n                /* \"--CODEGEN--\":10536:10569   */\n              swap2\n              swap1\n              pop\n              jump\n                /* \"--CODEGEN--\":10576:10689   */\n            tag_135:\n              0x0\n                /* \"--CODEGEN--\":10678:10683   */\n              dup2\n                /* \"--CODEGEN--\":10672:10684   */\n              mload\n                /* \"--CODEGEN--\":10662:10684   */\n              swap1\n              pop\n                /* \"--CODEGEN--\":10656:10689   */\n              swap2\n              swap1\n              pop\n              jump\n                /* \"--CODEGEN--\":10696:10803   */\n            tag_148:\n              0x0\n                /* \"--CODEGEN--\":10792:10797   */\n              dup2\n                /* \"--CODEGEN--\":10786:10798   */\n              mload\n                /* \"--CODEGEN--\":10776:10798   */\n              swap1\n              pop\n                /* \"--CODEGEN--\":10770:10803   */\n              swap2\n              swap1\n              pop\n              jump\n                /* \"--CODEGEN--\":10810:10915   */\n            tag_161:\n              0x0\n                /* \"--CODEGEN--\":10904:10909   */\n              dup2\n                /* \"--CODEGEN--\":10898:10910   */\n              mload\n                /* \"--CODEGEN--\":10888:10910   */\n              swap1\n              pop\n                /* \"--CODEGEN--\":10882:10915   */\n              swap2\n              swap1\n              pop\n              jump\n                /* \"--CODEGEN--\":10922:11010   */\n            tag_185:\n              0x0\n                /* \"--CODEGEN--\":10999:11004   */\n              dup2\n                /* \"--CODEGEN--\":10993:11005   */\n              mload\n                /* \"--CODEGEN--\":10983:11005   */\n              swap1\n              pop\n                /* \"--CODEGEN--\":10977:11010   */\n              swap2\n              swap1\n              pop\n              jump\n                /* \"--CODEGEN--\":11017:11109   */\n            tag_178:\n              0x0\n                /* \"--CODEGEN--\":11098:11103   */\n              dup2\n                /* \"--CODEGEN--\":11092:11104   */\n              mload\n                /* \"--CODEGEN--\":11082:11104   */\n              swap1\n              pop\n                /* \"--CODEGEN--\":11076:11109   */\n              swap2\n              swap1\n              pop\n              jump\n                /* \"--CODEGEN--\":11117:11239   */\n            tag_131:\n              0x0\n                /* \"--CODEGEN--\":11228:11232   */\n              0x20\n                /* \"--CODEGEN--\":11220:11226   */\n              dup3\n                /* \"--CODEGEN--\":11216:11233   */\n              add\n                /* \"--CODEGEN--\":11205:11233   */\n              swap1\n              pop\n                /* \"--CODEGEN--\":11198:11239   */\n              swap2\n              swap1\n              pop\n              jump\n                /* \"--CODEGEN--\":11248:11376   */\n            tag_144:\n              0x0\n                /* \"--CODEGEN--\":11365:11369   */\n              0x20\n                /* \"--CODEGEN--\":11357:11363   */\n              dup3\n                /* \"--CODEGEN--\":11353:11370   */\n              add\n                /* \"--CODEGEN--\":11342:11370   */\n              swap1\n              pop\n                /* \"--CODEGEN--\":11335:11376   */\n              swap2\n              swap1\n              pop\n              jump\n                /* \"--CODEGEN--\":11385:11507   */\n            tag_157:\n              0x0\n                /* \"--CODEGEN--\":11496:11500   */\n              0x20\n                /* \"--CODEGEN--\":11488:11494   */\n              dup3\n                /* \"--CODEGEN--\":11484:11501   */\n              add\n                /* \"--CODEGEN--\":11473:11501   */\n              swap1\n              pop\n                /* \"--CODEGEN--\":11466:11507   */\n              swap2\n              swap1\n              pop\n              jump\n                /* \"--CODEGEN--\":11516:11636   */\n            tag_170:\n              0x0\n                /* \"--CODEGEN--\":11625:11629   */\n              0x20\n                /* \"--CODEGEN--\":11617:11623   */\n              dup3\n                /* \"--CODEGEN--\":11613:11630   */\n              add\n                /* \"--CODEGEN--\":11602:11630   */\n              swap1\n              pop\n                /* \"--CODEGEN--\":11595:11636   */\n              swap2\n              swap1\n              pop\n              jump\n                /* \"--CODEGEN--\":11644:11772   */\n            tag_119:\n              0x0\n                /* \"--CODEGEN--\":11724:11766   */\n              0xffffffffffffffffffffffffffffffffffffffff\n                /* \"--CODEGEN--\":11717:11722   */\n              dup3\n                /* \"--CODEGEN--\":11713:11767   */\n              and\n                /* \"--CODEGEN--\":11702:11767   */\n              swap1\n              pop\n                /* \"--CODEGEN--\":11696:11772   */\n              swap2\n              swap1\n              pop\n              jump\n                /* \"--CODEGEN--\":11779:11871   */\n            tag_174:\n              0x0\n                /* \"--CODEGEN--\":11859:11864   */\n              dup2\n                /* \"--CODEGEN--\":11852:11865   */\n              iszero\n                /* \"--CODEGEN--\":11845:11866   */\n              iszero\n                /* \"--CODEGEN--\":11834:11866   */\n              swap1\n              pop\n                /* \"--CODEGEN--\":11828:11871   */\n              swap2\n              swap1\n              pop\n              jump\n                /* \"--CODEGEN--\":11878:11957   */\n            tag_196:\n              0x0\n                /* \"--CODEGEN--\":11947:11952   */\n              dup2\n                /* \"--CODEGEN--\":11936:11952   */\n              swap1\n              pop\n                /* \"--CODEGEN--\":11930:11957   */\n              swap2\n              swap1\n              pop\n              jump\n                /* \"--CODEGEN--\":11964:12052   */\n            tag_199:\n              0x0\n                /* \"--CODEGEN--\":12042:12046   */\n              0xff\n                /* \"--CODEGEN--\":12035:12040   */\n              dup3\n                /* \"--CODEGEN--\":12031:12047   */\n              and\n                /* \"--CODEGEN--\":12020:12047   */\n              swap1\n              pop\n                /* \"--CODEGEN--\":12014:12052   */\n              swap2\n              swap1\n              pop\n              jump\n                /* \"--CODEGEN--\":12059:12187   */\n            tag_95:\n              0x0\n                /* \"--CODEGEN--\":12139:12181   */\n              0xffffffffffffffffffffffffffffffffffffffff\n                /* \"--CODEGEN--\":12132:12137   */\n              dup3\n                /* \"--CODEGEN--\":12128:12182   */\n              and\n                /* \"--CODEGEN--\":12117:12182   */\n              swap1\n              pop\n                /* \"--CODEGEN--\":12111:12187   */\n              swap2\n              swap1\n              pop\n              jump\n                /* \"--CODEGEN--\":12194:12282   */\n            tag_109:\n              0x0\n                /* \"--CODEGEN--\":12272:12276   */\n              0xff\n                /* \"--CODEGEN--\":12265:12270   */\n              dup3\n                /* \"--CODEGEN--\":12261:12277   */\n              and\n                /* \"--CODEGEN--\":12250:12277   */\n              swap1\n              pop\n                /* \"--CODEGEN--\":12244:12282   */\n              swap2\n              swap1\n              pop\n              jump\n                /* \"--CODEGEN--\":12290:12435   */\n            tag_105:\n                /* \"--CODEGEN--\":12371:12377   */\n              dup3\n                /* \"--CODEGEN--\":12366:12369   */\n              dup2\n                /* \"--CODEGEN--\":12361:12364   */\n              dup4\n                /* \"--CODEGEN--\":12348:12378   */\n              calldatacopy\n                /* \"--CODEGEN--\":12427:12428   */\n              0x0\n                /* \"--CODEGEN--\":12418:12424   */\n              dup4\n                /* \"--CODEGEN--\":12413:12416   */\n              dup4\n                /* \"--CODEGEN--\":12409:12425   */\n              add\n                /* \"--CODEGEN--\":12402:12429   */\n              mstore\n                /* \"--CODEGEN--\":12341:12435   */\n              pop\n              pop\n              pop\n              jump\n                /* \"--CODEGEN--\":12444:12712   */\n            tag_180:\n                /* \"--CODEGEN--\":12509:12510   */\n              0x0\n                /* \"--CODEGEN--\":12516:12617   */\n            tag_246:\n                /* \"--CODEGEN--\":12530:12536   */\n              dup4\n                /* \"--CODEGEN--\":12527:12528   */\n              dup2\n                /* \"--CODEGEN--\":12524:12537   */\n              lt\n                /* \"--CODEGEN--\":12516:12617   */\n              iszero\n              tag_247\n              jumpi\n                /* \"--CODEGEN--\":12606:12607   */\n              dup1\n                /* \"--CODEGEN--\":12601:12604   */\n              dup3\n                /* \"--CODEGEN--\":12597:12608   */\n              add\n                /* \"--CODEGEN--\":12591:12609   */\n              mload\n                /* \"--CODEGEN--\":12587:12588   */\n              dup2\n                /* \"--CODEGEN--\":12582:12585   */\n              dup5\n                /* \"--CODEGEN--\":12578:12589   */\n              add\n                /* \"--CODEGEN--\":12571:12610   */\n              mstore\n                /* \"--CODEGEN--\":12552:12554   */\n              0x20\n                /* \"--CODEGEN--\":12549:12550   */\n              dup2\n                /* \"--CODEGEN--\":12545:12555   */\n              add\n                /* \"--CODEGEN--\":12540:12555   */\n              swap1\n              pop\n                /* \"--CODEGEN--\":12516:12617   */\n              jump(tag_246)\n            tag_247:\n                /* \"--CODEGEN--\":12632:12638   */\n              dup4\n                /* \"--CODEGEN--\":12629:12630   */\n              dup2\n                /* \"--CODEGEN--\":12626:12639   */\n              gt\n                /* \"--CODEGEN--\":12623:12625   */\n              iszero\n              tag_249\n              jumpi\n                /* \"--CODEGEN--\":12697:12698   */\n              0x0\n                /* \"--CODEGEN--\":12688:12694   */\n              dup5\n                /* \"--CODEGEN--\":12683:12686   */\n              dup5\n                /* \"--CODEGEN--\":12679:12695   */\n              add\n                /* \"--CODEGEN--\":12672:12699   */\n              mstore\n                /* \"--CODEGEN--\":12623:12625   */\n            tag_249:\n                /* \"--CODEGEN--\":12493:12712   */\n              pop\n              pop\n              pop\n              pop\n              jump\n                /* \"--CODEGEN--\":12720:12817   */\n            tag_182:\n              0x0\n                /* \"--CODEGEN--\":12808:12810   */\n              0x1f\n                /* \"--CODEGEN--\":12804:12811   */\n              not\n                /* \"--CODEGEN--\":12799:12801   */\n              0x1f\n                /* \"--CODEGEN--\":12792:12797   */\n              dup4\n                /* \"--CODEGEN--\":12788:12802   */\n              add\n                /* \"--CODEGEN--\":12784:12812   */\n              and\n                /* \"--CODEGEN--\":12774:12812   */\n              swap1\n              pop\n                /* \"--CODEGEN--\":12768:12817   */\n              swap2\n              swap1\n              pop\n              jump\n\n            auxdata: 0xa265627a7a7230582060c64c02ce5b21915df2bee9c6980dafb9888ca40ea7c16c643d725dac287c336c6578706572696d656e74616cf50037\n        }\n    }\n\n    auxdata: 0xa265627a7a7230582064d1eb2afd7940cfe8d1a272c24eba5324cc9f76ef0abfb6b1d02afc03bf6b5a6c6578706572696d656e74616cf50037\n}\n",
				"bytecode": {
					"linkReferences": {},
					"object": "60806040523480156200001157600080fd5b506040516060806200414683398101806040526200003391908101906200036f565b808284620000508162000090640100000000026401000000009004565b506200006b81620000fa640100000000026401000000009004565b50620000868162000164640100000000026401000000009004565b50505050620004bd565b620000b4816000620001ce64010000000002620011ca179091906401000000009004565b8073ffffffffffffffffffffffffffffffffffffffff167f2977383b0207d39ef14220620b6cf3e6c9b6e78592af90baeef6614ed2fcd2c660405160405180910390a250565b6200011e816001620001ce64010000000002620011ca179091906401000000009004565b8073ffffffffffffffffffffffffffffffffffffffff167fddbf200aa634dc3fb81cfd68583dd1040d1c751d335e1d86b631bde3e977fea860405160405180910390a250565b62000188816002620001ce64010000000002620011ca179091906401000000009004565b8073ffffffffffffffffffffffffffffffffffffffff167f71ae26cad02663e3d92efd6ec56031a80d74a20c0ab4183faa8bf262261c9baa60405160405180910390a250565b620001e982826200028c640100000000026401000000009004565b1515156200022e576040517f08c379a0000000000000000000000000000000000000000000000000000000008152600401620002259062000459565b60405180910390fd5b60018260000160008373ffffffffffffffffffffffffffffffffffffffff1673ffffffffffffffffffffffffffffffffffffffff16815260200190815260200160002060006101000a81548160ff0219169083151502179055505050565b60008073ffffffffffffffffffffffffffffffffffffffff168273ffffffffffffffffffffffffffffffffffffffff161415151562000302576040517f08c379a0000000000000000000000000000000000000000000000000000000008152600401620002f9906200047b565b60405180910390fd5b8260000160008373ffffffffffffffffffffffffffffffffffffffff1673ffffffffffffffffffffffffffffffffffffffff16815260200190815260200160002060009054906101000a900460ff16905092915050565b60006200036782516200049d565b905092915050565b6000806000606084860312156200038557600080fd5b6000620003958682870162000359565b9350506020620003a88682870162000359565b9250506040620003bb8682870162000359565b9150509250925092565b6000601d82527f526f6c65733a206163636f756e7420616c7265616479206578697374730000006020830152604082019050919050565b6000602182527f526f6c65733a6163636f756e7420697320746865207a65726f2061646472657360208301527f73000000000000000000000000000000000000000000000000000000000000006040830152606082019050919050565b600060208201905081810360008301526200047481620003c5565b9050919050565b600060208201905081810360008301526200049681620003fc565b9050919050565b600073ffffffffffffffffffffffffffffffffffffffff82169050919050565b613c7980620004cd6000396000f300608060405260043610620000eb576000357c0100000000000000000000000000000000000000000000000000000000900463ffffffff16806312cbc70714620000f05780631765372a146200013957806351d17e0014620001675780635cc91ead14620001ab5780635da09b8814620001db578063644241db146200021f5780637250e22414620002395780638f0c86fa1462000267578063a2d12a3914620002ab578063db0e6a2f14620002ef578063ddf801661462000309578063f55210221462000337578063f76b81e6146200037b578063f9b867d814620003c2578063fb751d0d14620003dc575b600080fd5b348015620000fd57600080fd5b506200011c6004803603620001169190810190620018de565b62000420565b6040516200013096959493929190620021dc565b60405180910390f35b3480156200014657600080fd5b506200016560048036036200015f919081019062001718565b620005bf565b005b3480156200017457600080fd5b506200019360048036036200018d9190810190620019eb565b6200061c565b604051620001a2919062001fee565b60405180910390f35b348015620001b857600080fd5b50620001c362000802565b604051620001d2919062001f61565b60405180910390f35b348015620001e857600080fd5b5062000207600480360362000201919081019062001718565b6200085c565b60405162000216919062001fee565b60405180910390f35b3480156200022c57600080fd5b50620002376200087b565b005b3480156200024657600080fd5b506200026560048036036200025f919081019062001718565b62000888565b005b3480156200027457600080fd5b506200029360048036036200028d919081019062001718565b620008e5565b604051620002a2919062001fee565b60405180910390f35b348015620002b857600080fd5b50620002d76004803603620002d19190810190620019eb565b62000904565b604051620002e6919062001fee565b60405180910390f35b348015620002fc57600080fd5b506200030762000aea565b005b3480156200031657600080fd5b506200033560048036036200032f919081019062001718565b62000af7565b005b3480156200034457600080fd5b506200036360048036036200035d919081019062001718565b62000b54565b60405162000372919062001fee565b60405180910390f35b3480156200038857600080fd5b50620003a76004803603620003a19190810190620018de565b62000b73565b604051620003b9949392919062001f85565b60405180910390f35b348015620003cf57600080fd5b50620003da62000d08565b005b348015620003e957600080fd5b5062000408600480360362000402919081019062001840565b62000d15565b60405162000417919062001f44565b60405180910390f35b60006060806060600080600073ffffffffffffffffffffffffffffffffffffffff166003600089815260200190815260200160002060009054906101000a900473ffffffffffffffffffffffffffffffffffffffff1673ffffffffffffffffffffffffffffffffffffffff1614151515620004d2576040517f08c379a0000000000000000000000000000000000000000000000000000000008152600401620004c990620020ee565b60405180910390fd5b6003600088815260200190815260200160002060009054906101000a900473ffffffffffffffffffffffffffffffffffffffff1673ffffffffffffffffffffffffffffffffffffffff16631a772baf6040518163ffffffff167c0100000000000000000000000000000000000000000000000000000000028152600401600060405180830381600087803b1580156200056a57600080fd5b505af11580156200057f573d6000803e3d6000fd5b505050506040513d6000823e3d601f19601f82011682018060405250620005aa91908101906200190a565b95509550955095509550955091939550919395565b620005ca336200085c565b15156200060e576040517f08c379a0000000000000000000000000000000000000000000000000000000008152600401620006059062002132565b60405180910390fd5b620006198162000ed5565b50565b60006200062933620008e5565b15156200066d576040517f08c379a0000000000000000000000000000000000000000000000000000000008152600401620006649062002176565b60405180910390fd5b600073ffffffffffffffffffffffffffffffffffffffff166003600086815260200190815260200160002060009054906101000a900473ffffffffffffffffffffffffffffffffffffffff1673ffffffffffffffffffffffffffffffffffffffff161415151562000715576040517f08c379a00000000000000000000000000000000000000000000000000000000081526004016200070c90620020aa565b60405180910390fd5b6003600085815260200190815260200160002060009054906101000a900473ffffffffffffffffffffffffffffffffffffffff1673ffffffffffffffffffffffffffffffffffffffff166306e729678433856040518463ffffffff167c0100000000000000000000000000000000000000000000000000000000028152600401620007a3939291906200200b565b602060405180830381600087803b158015620007be57600080fd5b505af1158015620007d3573d6000803e3d6000fd5b505050506040513d601f19601f82011682018060405250620007f9919081019062001814565b90509392505050565b606060048054806020026020016040519081016040528092919081815260200182805480156200085257602002820191906000526020600020905b8154815260200190600101908083116200083d575b5050505050905090565b60006200087482600262000f3190919063ffffffff16565b9050919050565b620008863362000ffe565b565b6200089333620008e5565b1515620008d7576040517f08c379a0000000000000000000000000000000000000000000000000000000008152600401620008ce9062002176565b60405180910390fd5b620008e2816200105a565b50565b6000620008fd82600162000f3190919063ffffffff16565b9050919050565b600062000911336200085c565b151562000955576040517f08c379a00000000000000000000000000000000000000000000000000000000081526004016200094c9062002132565b60405180910390fd5b600073ffffffffffffffffffffffffffffffffffffffff166003600086815260200190815260200160002060009054906101000a900473ffffffffffffffffffffffffffffffffffffffff1673ffffffffffffffffffffffffffffffffffffffff1614151515620009fd576040517f08c379a0000000000000000000000000000000000000000000000000000000008152600401620009f490620020ee565b60405180910390fd5b6003600085815260200190815260200160002060009054906101000a900473ffffffffffffffffffffffffffffffffffffffff1673ffffffffffffffffffffffffffffffffffffffff1663f650350d8433856040518463ffffffff167c010000000000000000000000000000000000000000000000000000000002815260040162000a8b939291906200200b565b602060405180830381600087803b15801562000aa657600080fd5b505af115801562000abb573d6000803e3d6000fd5b505050506040513d601f19601f8201168201806040525062000ae1919081019062001814565b90509392505050565b62000af533620010b6565b565b62000b023362000b54565b151562000b46576040517f08c379a000000000000000000000000000000000000000000000000000000000815260040162000b3d90620020cc565b60405180910390fd5b62000b518162001112565b50565b600062000b6c82600062000f3190919063ffffffff16565b9050919050565b606080606080600073ffffffffffffffffffffffffffffffffffffffff166003600087815260200190815260200160002060009054906101000a900473ffffffffffffffffffffffffffffffffffffffff1673ffffffffffffffffffffffffffffffffffffffff161415151562000c21576040517f08c379a000000000000000000000000000000000000000000000000000000000815260040162000c1890620020ee565b60405180910390fd5b6003600086815260200190815260200160002060009054906101000a900473ffffffffffffffffffffffffffffffffffffffff1673ffffffffffffffffffffffffffffffffffffffff1663f0d984e46040518163ffffffff167c0100000000000000000000000000000000000000000000000000000000028152600401600060405180830381600087803b15801562000cb957600080fd5b505af115801562000cce573d6000803e3d6000fd5b505050506040513d6000823e3d601f19601f8201168201806040525062000cf9919081019062001744565b93509350935093509193509193565b62000d13336200116e565b565b60008062000d233362000b54565b151562000d67576040517f08c379a000000000000000000000000000000000000000000000000000000000815260040162000d5e90620020cc565b60405180910390fd5b600073ffffffffffffffffffffffffffffffffffffffff166003600087815260200190815260200160002060009054906101000a900473ffffffffffffffffffffffffffffffffffffffff1673ffffffffffffffffffffffffffffffffffffffff1614151562000e0e576040517f08c379a000000000000000000000000000000000000000000000000000000000815260040162000e059062002198565b60405180910390fd5b8584843362000e1c62001327565b62000e2b94939291906200204f565b604051809103906000f08015801562000e48573d6000803e3d6000fd5b509050806003600087815260200190815260200160002060006101000a81548173ffffffffffffffffffffffffffffffffffffffff021916908373ffffffffffffffffffffffffffffffffffffffff160217905550600485908060018154018082558091505090600182039060005260206000200160009091929091909150555080915050949350505050565b62000eeb816002620011ca90919063ffffffff16565b8073ffffffffffffffffffffffffffffffffffffffff167f71ae26cad02663e3d92efd6ec56031a80d74a20c0ab4183faa8bf262261c9baa60405160405180910390a250565b60008073ffffffffffffffffffffffffffffffffffffffff168273ffffffffffffffffffffffffffffffffffffffff161415151562000fa7576040517f08c379a000000000000000000000000000000000000000000000000000000000815260040162000f9e9062002154565b60405180910390fd5b8260000160008373ffffffffffffffffffffffffffffffffffffffff1673ffffffffffffffffffffffffffffffffffffffff16815260200190815260200160002060009054906101000a900460ff16905092915050565b620010148160016200127990919063ffffffff16565b8073ffffffffffffffffffffffffffffffffffffffff167f126174f6cf49c81cdb4a9214c6b8f037bef55b4ec31e4fc776cea2a1c8a88d5960405160405180910390a250565b62001070816001620011ca90919063ffffffff16565b8073ffffffffffffffffffffffffffffffffffffffff167fddbf200aa634dc3fb81cfd68583dd1040d1c751d335e1d86b631bde3e977fea860405160405180910390a250565b620010cc8160026200127990919063ffffffff16565b8073ffffffffffffffffffffffffffffffffffffffff167fdb7176e79cffef81cb01767dd0447a0b24bb72ca9778d4b245581086b2a7e6db60405160405180910390a250565b62001128816000620011ca90919063ffffffff16565b8073ffffffffffffffffffffffffffffffffffffffff167f2977383b0207d39ef14220620b6cf3e6c9b6e78592af90baeef6614ed2fcd2c660405160405180910390a250565b620011848160006200127990919063ffffffff16565b8073ffffffffffffffffffffffffffffffffffffffff167fb78e9906c5bae930ccf756a5214c9855b1782f0eb30f9566de2384f034af48f360405160405180910390a250565b620011d6828262000f31565b1515156200121b576040517f08c379a0000000000000000000000000000000000000000000000000000000008152600401620012129062002110565b60405180910390fd5b60018260000160008373ffffffffffffffffffffffffffffffffffffffff1673ffffffffffffffffffffffffffffffffffffffff16815260200190815260200160002060006101000a81548160ff0219169083151502179055505050565b62001285828262000f31565b1515620012c9576040517f08c379a0000000000000000000000000000000000000000000000000000000008152600401620012c090620021ba565b60405180910390fd5b60008260000160008373ffffffffffffffffffffffffffffffffffffffff1673ffffffffffffffffffffffffffffffffffffffff16815260200190815260200160002060006101000a81548160ff0219169083151502179055505050565b60405161172f806200251183390190565b600062001346823562002477565b905092915050565b60006200135c825162002477565b905092915050565b600082601f83011215156200137857600080fd5b81516200138f62001389826200228c565b6200225e565b91508181835260208401935060208101905083856020840282011115620013b557600080fd5b60005b83811015620013e95781620013ce88826200134e565b845260208401935060208301925050600181019050620013b8565b5050505092915050565b600082601f83011215156200140757600080fd5b81516200141e6200141882620022b5565b6200225e565b9150818183526020840193506020810190508360005b838110156200146857815186016200144d8882620015a6565b84526020840193506020830192505060018101905062001434565b5050505092915050565b600082601f83011215156200148657600080fd5b81516200149d6200149782620022de565b6200225e565b91508181835260208401935060208101905083856020840282011115620014c357600080fd5b60005b83811015620014f75781620014dc8882620016d6565b845260208401935060208301925050600181019050620014c6565b5050505092915050565b600082601f83011215156200151557600080fd5b81516200152c620015268262002307565b6200225e565b915081818352602084019350602081019050838560208402820111156200155257600080fd5b60005b838110156200158657816200156b888262001702565b84526020840193506020830192505060018101905062001555565b5050505092915050565b60006200159e825162002497565b905092915050565b600082601f8301121515620015ba57600080fd5b8151620015d1620015cb8262002330565b6200225e565b91508082526020830160208301858383011115620015ee57600080fd5b620015fb838284620024c9565b50505092915050565b600082601f83011215156200161857600080fd5b81356200162f62001629826200235d565b6200225e565b915080825260208301602083018583830111156200164c57600080fd5b62001659838284620024ba565b50505092915050565b600082601f83011215156200167657600080fd5b81516200168d62001687826200235d565b6200225e565b91508082526020830160208301858383011115620016aa57600080fd5b620016b7838284620024c9565b50505092915050565b6000620016ce8235620024a3565b905092915050565b6000620016e48251620024a3565b905092915050565b6000620016fa8235620024ad565b905092915050565b6000620017108251620024ad565b905092915050565b6000602082840312156200172b57600080fd5b60006200173b8482850162001338565b91505092915050565b600080600080608085870312156200175b57600080fd5b600085015167ffffffffffffffff8111156200177657600080fd5b620017848782880162001472565b945050602085015167ffffffffffffffff811115620017a257600080fd5b620017b087828801620013f3565b935050604085015167ffffffffffffffff811115620017ce57600080fd5b620017dc8782880162001364565b925050606085015167ffffffffffffffff811115620017fa57600080fd5b620018088782880162001501565b91505092959194509250565b6000602082840312156200182757600080fd5b6000620018378482850162001590565b91505092915050565b600080600080608085870312156200185757600080fd5b600085013567ffffffffffffffff8111156200187257600080fd5b620018808782880162001604565b94505060206200189387828801620016c0565b935050604085013567ffffffffffffffff811115620018b157600080fd5b620018bf8782880162001604565b9250506060620018d287828801620016ec565b91505092959194509250565b600060208284031215620018f157600080fd5b60006200190184828501620016c0565b91505092915050565b60008060008060008060c087890312156200192457600080fd5b60006200193489828a01620016d6565b965050602087015167ffffffffffffffff8111156200195257600080fd5b6200196089828a0162001662565b955050604087015167ffffffffffffffff8111156200197e57600080fd5b6200198c89828a0162001662565b945050606087015167ffffffffffffffff811115620019aa57600080fd5b620019b889828a0162001662565b9350506080620019cb89828a016200134e565b92505060a0620019de89828a0162001702565b9150509295509295509295565b60008060006060848603121562001a0157600080fd5b600062001a1186828701620016c0565b935050602084013567ffffffffffffffff81111562001a2f57600080fd5b62001a3d8682870162001604565b925050604062001a5086828701620016ec565b9150509250925092565b62001a658162002434565b82525050565b600062001a7882620023be565b80845260208401935062001a8c836200238a565b60005b8281101562001ac45762001aa586835162001a5a565b62001ab08262002400565b915060208601955060018101905062001a8f565b50849250505092915050565b600062001add82620023c9565b8084526020840193508360208202850162001af88562002397565b60005b8481101562001b3757838303885262001b1683835162001c5f565b925062001b23826200240d565b915060208801975060018101905062001afb565b508196508694505050505092915050565b600062001b5582620023d4565b80845260208401935062001b6983620023a4565b60005b8281101562001ba15762001b8286835162001f22565b62001b8d826200241a565b915060208601955060018101905062001b6c565b50849250505092915050565b600062001bba82620023df565b80845260208401935062001bce83620023b1565b60005b8281101562001c065762001be786835162001f33565b62001bf28262002427565b915060208601955060018101905062001bd1565b50849250505092915050565b62001c1d8162002454565b82525050565b600062001c3082620023f5565b80845262001c46816020860160208601620024c9565b62001c5181620024ff565b602085010191505092915050565b600062001c6c82620023ea565b80845262001c82816020860160208601620024c9565b62001c8d81620024ff565b602085010191505092915050565b6000601982527f747261634e756d62657220646f6573206e6f74206578697374000000000000006020830152604082019050919050565b6000603382527f50726f6475636572526f6c653a63616c6c657220646f6573206e6f742068617660208301527f65207468652050726f647563657220726f6c65000000000000000000000000006040830152606082019050919050565b6000601a82527f74726163654e756d62657220646f6573206e6f742065786973740000000000006020830152604082019050919050565b6000601d82527f526f6c65733a206163636f756e7420616c7265616479206578697374730000006020830152604082019050919050565b6000603282527f52657461696c6572526f6c653a63616c6c657220646f6573206e6f742068617660208301527f652074686552657461696c657220726f6c6500000000000000000000000000006040830152606082019050919050565b6000602182527f526f6c65733a6163636f756e7420697320746865207a65726f2061646472657360208301527f73000000000000000000000000000000000000000000000000000000000000006040830152606082019050919050565b6000603682527f70726f6475636572526f6c653a63616c6c657220646f6573206e6f742068617660208301527f6520746865204469737472696275746f7220726f6c65000000000000000000006040830152606082019050919050565b6000601982527f74726163654e756d62657220616c7265616479206578697374000000000000006020830152604082019050919050565b6000602082527f526f6c65733a6163636f756e7420646f6573206e6f74206861766520726f6c656020830152604082019050919050565b62001f2d8162002460565b82525050565b62001f3e816200246a565b82525050565b600060208201905062001f5b600083018462001a5a565b92915050565b6000602082019050818103600083015262001f7d818462001b48565b905092915050565b6000608082019050818103600083015262001fa1818762001b48565b9050818103602083015262001fb7818662001ad0565b9050818103604083015262001fcd818562001a6b565b9050818103606083015262001fe3818462001bad565b905095945050505050565b600060208201905062002005600083018462001c12565b92915050565b6000606082019050818103600083015262002027818662001c23565b905062002038602083018562001a5a565b62002047604083018462001f33565b949350505050565b600060808201905081810360008301526200206b818762001c23565b9050818103602083015262002081818662001c23565b905062002092604083018562001f33565b620020a1606083018462001a5a565b95945050505050565b60006020820190508181036000830152620020c58162001c9b565b9050919050565b60006020820190508181036000830152620020e78162001cd2565b9050919050565b60006020820190508181036000830152620021098162001d2f565b9050919050565b600060208201905081810360008301526200212b8162001d66565b9050919050565b600060208201905081810360008301526200214d8162001d9d565b9050919050565b600060208201905081810360008301526200216f8162001dfa565b9050919050565b60006020820190508181036000830152620021918162001e57565b9050919050565b60006020820190508181036000830152620021b38162001eb4565b9050919050565b60006020820190508181036000830152620021d58162001eeb565b9050919050565b600060c082019050620021f3600083018962001f22565b818103602083015262002207818862001c23565b905081810360408301526200221d818762001c23565b9050818103606083015262002233818662001c23565b905062002244608083018562001a5a565b6200225360a083018462001f33565b979650505050505050565b6000604051905081810181811067ffffffffffffffff821117156200228257600080fd5b8060405250919050565b600067ffffffffffffffff821115620022a457600080fd5b602082029050602081019050919050565b600067ffffffffffffffff821115620022cd57600080fd5b602082029050602081019050919050565b600067ffffffffffffffff821115620022f657600080fd5b602082029050602081019050919050565b600067ffffffffffffffff8211156200231f57600080fd5b602082029050602081019050919050565b600067ffffffffffffffff8211156200234857600080fd5b601f19601f8301169050602081019050919050565b600067ffffffffffffffff8211156200237557600080fd5b601f19601f8301169050602081019050919050565b6000602082019050919050565b6000602082019050919050565b6000602082019050919050565b6000602082019050919050565b600081519050919050565b600081519050919050565b600081519050919050565b600081519050919050565b600081519050919050565b600081519050919050565b6000602082019050919050565b6000602082019050919050565b6000602082019050919050565b6000602082019050919050565b600073ffffffffffffffffffffffffffffffffffffffff82169050919050565b60008115159050919050565b6000819050919050565b600060ff82169050919050565b600073ffffffffffffffffffffffffffffffffffffffff82169050919050565b60008115159050919050565b6000819050919050565b600060ff82169050919050565b82818337600083830152505050565b60005b83811015620024e9578082015181840152602081019050620024cc565b83811115620024f9576000848401525b50505050565b6000601f19601f8301169050919050560060806040523480156200001157600080fd5b506040516200172f3803806200172f83398101806040526200003791908101906200033f565b60004290806001815401808255809150509060018203906000526020600020016000909192909190915055506001839080600181540180825580915050906001820390600052602060002001600090919290919091509080519060200190620000a292919062000206565b505060028190806001815401808255809150509060018203906000526020600020016000909192909190916101000a81548173ffffffffffffffffffffffffffffffffffffffff021916908373ffffffffffffffffffffffffffffffffffffffff16021790555050600382908060018154018082558091505090600182039060005260206000209060209182820401919006909192909190916101000a81548160ff021916908360ff1602179055505083600490805190602001906200016a92919062000206565b5082600590805190602001906200018392919062000206565b5081600660006101000a81548160ff021916908360ff1602179055506000600660016101000a81548160ff021916908360ff16021790555033600660026101000a81548173ffffffffffffffffffffffffffffffffffffffff021916908373ffffffffffffffffffffffffffffffffffffffff160217905550505050506200049b565b828054600181600116156101000203166002900490600052602060002090601f016020900481019282601f106200024957805160ff19168380011785556200027a565b828001600101855582156200027a579182015b82811115620002795782518255916020019190600101906200025c565b5b5090506200028991906200028d565b5090565b620002b291905b80821115620002ae57600081600090555060010162000294565b5090565b90565b6000620002c3825162000438565b905092915050565b600082601f8301121515620002df57600080fd5b8151620002f6620002f0826200040b565b620003dd565b915080825260208301602083018583830111156200031357600080fd5b6200032083828462000465565b50505092915050565b600062000337825162000458565b905092915050565b600080600080608085870312156200035657600080fd5b600085015167ffffffffffffffff8111156200037157600080fd5b6200037f87828801620002cb565b945050602085015167ffffffffffffffff8111156200039d57600080fd5b620003ab87828801620002cb565b9350506040620003be8782880162000329565b9250506060620003d187828801620002b5565b91505092959194509250565b6000604051905081810181811067ffffffffffffffff821117156200040157600080fd5b8060405250919050565b600067ffffffffffffffff8211156200042357600080fd5b601f19601f8301169050602081019050919050565b600073ffffffffffffffffffffffffffffffffffffffff82169050919050565b600060ff82169050919050565b60005b838110156200048557808201518184015260208101905062000468565b8381111562000495576000848401525b50505050565b61128480620004ab6000396000f300608060405260043610610062576000357c0100000000000000000000000000000000000000000000000000000000900463ffffffff16806306e72967146100675780631a772baf146100a4578063f0d984e4146100d4578063f650350d14610102575b600080fd5b34801561007357600080fd5b5061008e60048036036100899190810190610bff565b61013f565b60405161009b9190610f93565b60405180910390f35b3480156100b057600080fd5b506100b96103aa565b6040516100cb9695949392919061100e565b60405180910390f35b3480156100e057600080fd5b506100e961061f565b6040516100f99493929190610f32565b60405180910390f35b34801561010e57600080fd5b5061012960048036036101249190810190610bff565b610870565b6040516101369190610f93565b60405180910390f35b600080600660019054906101000a900460ff1660ff16141515610197576040517f08c379a000000000000000000000000000000000000000000000000000000000815260040161018e90610fce565b60405180910390fd5b3373ffffffffffffffffffffffffffffffffffffffff16600660029054906101000a900473ffffffffffffffffffffffffffffffffffffffff1673ffffffffffffffffffffffffffffffffffffffff16141515610229576040517f08c379a000000000000000000000000000000000000000000000000000000000815260040161022090610fae565b60405180910390fd5b60004290806001815401808255809150509060018203906000526020600020016000909192909190915055506001849080600181540180825580915050906001820390600052602060002001600090919290919091509080519060200190610292929190610adc565b505083600590805190602001906102aa929190610adc565b5060028390806001815401808255809150509060018203906000526020600020016000909192909190916101000a81548173ffffffffffffffffffffffffffffffffffffffff021916908373ffffffffffffffffffffffffffffffffffffffff1602179055505081600660006101000a81548160ff021916908360ff1602179055506003600660009054906101000a900460ff16908060018154018082558091505090600182039060005260206000209060209182820401919006909192909190916101000a81548160ff021916908360ff160217905550506001600660016101000a81548160ff021916908360ff160217905550600190509392505050565b600060608060606000806000808154811015156103c357fe5b9060005260206000200154600160008154811015156103de57fe5b9060005260206000200160046005600260008154811015156103fc57fe5b9060005260206000200160009054906101000a900473ffffffffffffffffffffffffffffffffffffffff16600660009054906101000a900460ff16848054600181600116156101000203166002900480601f0160208091040260200160405190810160405280929190818152602001828054600181600116156101000203166002900480156104cc5780601f106104a1576101008083540402835291602001916104cc565b820191906000526020600020905b8154815290600101906020018083116104af57829003601f168201915b50505050509450838054600181600116156101000203166002900480601f0160208091040260200160405190810160405280929190818152602001828054600181600116156101000203166002900480156105685780601f1061053d57610100808354040283529160200191610568565b820191906000526020600020905b81548152906001019060200180831161054b57829003601f168201915b50505050509350828054600181600116156101000203166002900480601f0160208091040260200160405190810160405280929190818152602001828054600181600116156101000203166002900480156106045780601f106105d957610100808354040283529160200191610604565b820191906000526020600020905b8154815290600101906020018083116105e757829003601f168201915b50505050509250955095509550955095509550909192939495565b60608060608060006001600260038380548060200260200160405190810160405280929190818152602001828054801561067857602002820191906000526020600020905b815481526020019060010190808311610664575b5050505050935082805480602002602001604051908101604052809291908181526020016000905b8282101561075c578382906000526020600020018054600181600116156101000203166002900480601f0160208091040260200160405190810160405280929190818152602001828054600181600116156101000203166002900480156107485780601f1061071d57610100808354040283529160200191610748565b820191906000526020600020905b81548152906001019060200180831161072b57829003601f168201915b5050505050815260200190600101906106a0565b505050509250818054806020026020016040519081016040528092919081815260200182805480156107e357602002820191906000526020600020905b8160009054906101000a900473ffffffffffffffffffffffffffffffffffffffff1673ffffffffffffffffffffffffffffffffffffffff1681526020019060010190808311610799575b505050505091508080548060200260200160405190810160405280929190818152602001828054801561085b57602002820191906000526020600020906000905b82829054906101000a900460ff1660ff16815260200190600101906020826000010492830192600103820291508084116108245790505b50505050509050935093509350935090919293565b60006001600660019054906101000a900460ff1660ff161415156108c9576040517f08c379a00000000000000000000000000000000000000000000000000000000081526004016108c090610fee565b60405180910390fd5b3373ffffffffffffffffffffffffffffffffffffffff16600660029054906101000a900473ffffffffffffffffffffffffffffffffffffffff1673ffffffffffffffffffffffffffffffffffffffff1614151561095b576040517f08c379a000000000000000000000000000000000000000000000000000000000815260040161095290610fae565b60405180910390fd5b600042908060018154018082558091505090600182039060005260206000200160009091929091909150555060018490806001815401808255809150509060018203906000526020600020016000909192909190915090805190602001906109c4929190610adc565b505083600590805190602001906109dc929190610adc565b5060028390806001815401808255809150509060018203906000526020600020016000909192909190916101000a81548173ffffffffffffffffffffffffffffffffffffffff021916908373ffffffffffffffffffffffffffffffffffffffff1602179055505081600660006101000a81548160ff021916908360ff1602179055506003600660009054906101000a900460ff16908060018154018082558091505090600182039060005260206000209060209182820401919006909192909190916101000a81548160ff021916908360ff160217905550506002600660016101000a81548160ff021916908360ff160217905550600190509392505050565b828054600181600116156101000203166002900490600052602060002090601f016020900481019282601f10610b1d57805160ff1916838001178555610b4b565b82800160010185558215610b4b579182015b82811115610b4a578251825591602001919060010190610b2f565b5b509050610b589190610b5c565b5090565b610b7e91905b80821115610b7a576000816000905550600101610b62565b5090565b90565b6000610b8d82356111ca565b905092915050565b600082601f8301121515610ba857600080fd5b8135610bbb610bb6826110b1565b611084565b91508082526020830160208301858383011115610bd757600080fd5b610be28382846111f7565b50505092915050565b6000610bf782356111ea565b905092915050565b600080600060608486031215610c1457600080fd5b600084013567ffffffffffffffff811115610c2e57600080fd5b610c3a86828701610b95565b9350506020610c4b86828701610b81565b9250506040610c5c86828701610beb565b9150509250925092565b610c6f81611187565b82525050565b6000610c8082611111565b808452602084019350610c92836110dd565b60005b82811015610cc457610ca8868351610c66565b610cb182611153565b9150602086019550600181019050610c95565b50849250505092915050565b6000610cdb8261111c565b80845260208401935083602082028501610cf4856110ea565b60005b84811015610d2d578383038852610d0f838351610e39565b9250610d1a82611160565b9150602088019750600181019050610cf7565b508196508694505050505092915050565b6000610d4982611127565b808452602084019350610d5b836110f7565b60005b82811015610d8d57610d71868351610f14565b610d7a8261116d565b9150602086019550600181019050610d5e565b50849250505092915050565b6000610da482611132565b808452602084019350610db683611104565b60005b82811015610de857610dcc868351610f23565b610dd58261117a565b9150602086019550600181019050610db9565b50849250505092915050565b610dfd816111a7565b82525050565b6000610e0e82611148565b808452610e22816020860160208601611206565b610e2b81611239565b602085010191505092915050565b6000610e448261113d565b808452610e58816020860160208601611206565b610e6181611239565b602085010191505092915050565b6000601e82527f6f6e6c7920747261636520636f6e74726163742063616e20696e766f6b6500006020830152604082019050919050565b6000601882527f737461747573206d7573742062652070726f647563696e6700000000000000006020830152604082019050919050565b6000601b82527f737461747573206d75737420626520646973747269627574696e6700000000006020830152604082019050919050565b610f1d816111b3565b82525050565b610f2c816111bd565b82525050565b60006080820190508181036000830152610f4c8187610d3e565b90508181036020830152610f608186610cd0565b90508181036040830152610f748185610c75565b90508181036060830152610f888184610d99565b905095945050505050565b6000602082019050610fa86000830184610df4565b92915050565b60006020820190508181036000830152610fc781610e6f565b9050919050565b60006020820190508181036000830152610fe781610ea6565b9050919050565b6000602082019050818103600083015261100781610edd565b9050919050565b600060c0820190506110236000830189610f14565b81810360208301526110358188610e03565b905081810360408301526110498187610e03565b9050818103606083015261105d8186610e03565b905061106c6080830185610c66565b61107960a0830184610f23565b979650505050505050565b6000604051905081810181811067ffffffffffffffff821117156110a757600080fd5b8060405250919050565b600067ffffffffffffffff8211156110c857600080fd5b601f19601f8301169050602081019050919050565b6000602082019050919050565b6000602082019050919050565b6000602082019050919050565b6000602082019050919050565b600081519050919050565b600081519050919050565b600081519050919050565b600081519050919050565b600081519050919050565b600081519050919050565b6000602082019050919050565b6000602082019050919050565b6000602082019050919050565b6000602082019050919050565b600073ffffffffffffffffffffffffffffffffffffffff82169050919050565b60008115159050919050565b6000819050919050565b600060ff82169050919050565b600073ffffffffffffffffffffffffffffffffffffffff82169050919050565b600060ff82169050919050565b82818337600083830152505050565b60005b83811015611224578082015181840152602081019050611209565b83811115611233576000848401525b50505050565b6000601f19601f83011690509190505600a265627a7a7230582060c64c02ce5b21915df2bee9c6980dafb9888ca40ea7c16c643d725dac287c336c6578706572696d656e74616cf50037a265627a7a7230582064d1eb2afd7940cfe8d1a272c24eba5324cc9f76ef0abfb6b1d02afc03bf6b5a6c6578706572696d656e74616cf50037",
					"opcodes": "PUSH1 0x80 PUSH1 0x40 MSTORE CALLVALUE DUP1 ISZERO PUSH3 0x11 JUMPI PUSH1 0x0 DUP1 REVERT JUMPDEST POP PUSH1 0x40 MLOAD PUSH1 0x60 DUP1 PUSH3 0x4146 DUP4 CODECOPY DUP2 ADD DUP1 PUSH1 0x40 MSTORE PUSH3 0x33 SWAP2 SWAP1 DUP2 ADD SWAP1 PUSH3 0x36F JUMP JUMPDEST DUP1 DUP3 DUP5 PUSH3 0x50 DUP2 PUSH3 0x90 PUSH5 0x100000000 MUL PUSH5 0x100000000 SWAP1 DIV JUMP JUMPDEST POP PUSH3 0x6B DUP2 PUSH3 0xFA PUSH5 0x100000000 MUL PUSH5 0x100000000 SWAP1 DIV JUMP JUMPDEST POP PUSH3 0x86 DUP2 PUSH3 0x164 PUSH5 0x100000000 MUL PUSH5 0x100000000 SWAP1 DIV JUMP JUMPDEST POP POP POP POP PUSH3 0x4BD JUMP JUMPDEST PUSH3 0xB4 DUP2 PUSH1 0x0 PUSH3 0x1CE PUSH5 0x100000000 MUL PUSH3 0x11CA OR SWAP1 SWAP2 SWAP1 PUSH5 0x100000000 SWAP1 DIV JUMP JUMPDEST DUP1 PUSH20 0xFFFFFFFFFFFFFFFFFFFFFFFFFFFFFFFFFFFFFFFF AND PUSH32 0x2977383B0207D39EF14220620B6CF3E6C9B6E78592AF90BAEEF6614ED2FCD2C6 PUSH1 0x40 MLOAD PUSH1 0x40 MLOAD DUP1 SWAP2 SUB SWAP1 LOG2 POP JUMP JUMPDEST PUSH3 0x11E DUP2 PUSH1 0x1 PUSH3 0x1CE PUSH5 0x100000000 MUL PUSH3 0x11CA OR SWAP1 SWAP2 SWAP1 PUSH5 0x100000000 SWAP1 DIV JUMP JUMPDEST DUP1 PUSH20 0xFFFFFFFFFFFFFFFFFFFFFFFFFFFFFFFFFFFFFFFF AND PUSH32 0xDDBF200AA634DC3FB81CFD68583DD1040D1C751D335E1D86B631BDE3E977FEA8 PUSH1 0x40 MLOAD PUSH1 0x40 MLOAD DUP1 SWAP2 SUB SWAP1 LOG2 POP JUMP JUMPDEST PUSH3 0x188 DUP2 PUSH1 0x2 PUSH3 0x1CE PUSH5 0x100000000 MUL PUSH3 0x11CA OR SWAP1 SWAP2 SWAP1 PUSH5 0x100000000 SWAP1 DIV JUMP JUMPDEST DUP1 PUSH20 0xFFFFFFFFFFFFFFFFFFFFFFFFFFFFFFFFFFFFFFFF AND PUSH32 0x71AE26CAD02663E3D92EFD6EC56031A80D74A20C0AB4183FAA8BF262261C9BAA PUSH1 0x40 MLOAD PUSH1 0x40 MLOAD DUP1 SWAP2 SUB SWAP1 LOG2 POP JUMP JUMPDEST PUSH3 0x1E9 DUP3 DUP3 PUSH3 0x28C PUSH5 0x100000000 MUL PUSH5 0x100000000 SWAP1 DIV JUMP JUMPDEST ISZERO ISZERO ISZERO PUSH3 0x22E JUMPI PUSH1 0x40 MLOAD PUSH32 0x8C379A000000000000000000000000000000000000000000000000000000000 DUP2 MSTORE PUSH1 0x4 ADD PUSH3 0x225 SWAP1 PUSH3 0x459 JUMP JUMPDEST PUSH1 0x40 MLOAD DUP1 SWAP2 SUB SWAP1 REVERT JUMPDEST PUSH1 0x1 DUP3 PUSH1 0x0 ADD PUSH1 0x0 DUP4 PUSH20 0xFFFFFFFFFFFFFFFFFFFFFFFFFFFFFFFFFFFFFFFF AND PUSH20 0xFFFFFFFFFFFFFFFFFFFFFFFFFFFFFFFFFFFFFFFF AND DUP2 MSTORE PUSH1 0x20 ADD SWAP1 DUP2 MSTORE PUSH1 0x20 ADD PUSH1 0x0 KECCAK256 PUSH1 0x0 PUSH2 0x100 EXP DUP2 SLOAD DUP2 PUSH1 0xFF MUL NOT AND SWAP1 DUP4 ISZERO ISZERO MUL OR SWAP1 SSTORE POP POP POP JUMP JUMPDEST PUSH1 0x0 DUP1 PUSH20 0xFFFFFFFFFFFFFFFFFFFFFFFFFFFFFFFFFFFFFFFF AND DUP3 PUSH20 0xFFFFFFFFFFFFFFFFFFFFFFFFFFFFFFFFFFFFFFFF AND EQ ISZERO ISZERO ISZERO PUSH3 0x302 JUMPI PUSH1 0x40 MLOAD PUSH32 0x8C379A000000000000000000000000000000000000000000000000000000000 DUP2 MSTORE PUSH1 0x4 ADD PUSH3 0x2F9 SWAP1 PUSH3 0x47B JUMP JUMPDEST PUSH1 0x40 MLOAD DUP1 SWAP2 SUB SWAP1 REVERT JUMPDEST DUP3 PUSH1 0x0 ADD PUSH1 0x0 DUP4 PUSH20 0xFFFFFFFFFFFFFFFFFFFFFFFFFFFFFFFFFFFFFFFF AND PUSH20 0xFFFFFFFFFFFFFFFFFFFFFFFFFFFFFFFFFFFFFFFF AND DUP2 MSTORE PUSH1 0x20 ADD SWAP1 DUP2 MSTORE PUSH1 0x20 ADD PUSH1 0x0 KECCAK256 PUSH1 0x0 SWAP1 SLOAD SWAP1 PUSH2 0x100 EXP SWAP1 DIV PUSH1 0xFF AND SWAP1 POP SWAP3 SWAP2 POP POP JUMP JUMPDEST PUSH1 0x0 PUSH3 0x367 DUP3 MLOAD PUSH3 0x49D JUMP JUMPDEST SWAP1 POP SWAP3 SWAP2 POP POP JUMP JUMPDEST PUSH1 0x0 DUP1 PUSH1 0x0 PUSH1 0x60 DUP5 DUP7 SUB SLT ISZERO PUSH3 0x385 JUMPI PUSH1 0x0 DUP1 REVERT JUMPDEST PUSH1 0x0 PUSH3 0x395 DUP7 DUP3 DUP8 ADD PUSH3 0x359 JUMP JUMPDEST SWAP4 POP POP PUSH1 0x20 PUSH3 0x3A8 DUP7 DUP3 DUP8 ADD PUSH3 0x359 JUMP JUMPDEST SWAP3 POP POP PUSH1 0x40 PUSH3 0x3BB DUP7 DUP3 DUP8 ADD PUSH3 0x359 JUMP JUMPDEST SWAP2 POP POP SWAP3 POP SWAP3 POP SWAP3 JUMP JUMPDEST PUSH1 0x0 PUSH1 0x1D DUP3 MSTORE PUSH32 0x526F6C65733A206163636F756E7420616C726561647920657869737473000000 PUSH1 0x20 DUP4 ADD MSTORE PUSH1 0x40 DUP3 ADD SWAP1 POP SWAP2 SWAP1 POP JUMP JUMPDEST PUSH1 0x0 PUSH1 0x21 DUP3 MSTORE PUSH32 0x526F6C65733A6163636F756E7420697320746865207A65726F20616464726573 PUSH1 0x20 DUP4 ADD MSTORE PUSH32 0x7300000000000000000000000000000000000000000000000000000000000000 PUSH1 0x40 DUP4 ADD MSTORE PUSH1 0x60 DUP3 ADD SWAP1 POP SWAP2 SWAP1 POP JUMP JUMPDEST PUSH1 0x0 PUSH1 0x20 DUP3 ADD SWAP1 POP DUP2 DUP2 SUB PUSH1 0x0 DUP4 ADD MSTORE PUSH3 0x474 DUP2 PUSH3 0x3C5 JUMP JUMPDEST SWAP1 POP SWAP2 SWAP1 POP JUMP JUMPDEST PUSH1 0x0 PUSH1 0x20 DUP3 ADD SWAP1 POP DUP2 DUP2 SUB PUSH1 0x0 DUP4 ADD MSTORE PUSH3 0x496 DUP2 PUSH3 0x3FC JUMP JUMPDEST SWAP1 POP SWAP2 SWAP1 POP JUMP JUMPDEST PUSH1 0x0 PUSH20 0xFFFFFFFFFFFFFFFFFFFFFFFFFFFFFFFFFFFFFFFF DUP3 AND SWAP1 POP SWAP2 SWAP1 POP JUMP JUMPDEST PUSH2 0x3C79 DUP1 PUSH3 0x4CD PUSH1 0x0 CODECOPY PUSH1 0x0 RETURN STOP PUSH1 0x80 PUSH1 0x40 MSTORE PUSH1 0x4 CALLDATASIZE LT PUSH3 0xEB JUMPI PUSH1 0x0 CALLDATALOAD PUSH29 0x100000000000000000000000000000000000000000000000000000000 SWAP1 DIV PUSH4 0xFFFFFFFF AND DUP1 PUSH4 0x12CBC707 EQ PUSH3 0xF0 JUMPI DUP1 PUSH4 0x1765372A EQ PUSH3 0x139 JUMPI DUP1 PUSH4 0x51D17E00 EQ PUSH3 0x167 JUMPI DUP1 PUSH4 0x5CC91EAD EQ PUSH3 0x1AB JUMPI DUP1 PUSH4 0x5DA09B88 EQ PUSH3 0x1DB JUMPI DUP1 PUSH4 0x644241DB EQ PUSH3 0x21F JUMPI DUP1 PUSH4 0x7250E224 EQ PUSH3 0x239 JUMPI DUP1 PUSH4 0x8F0C86FA EQ PUSH3 0x267 JUMPI DUP1 PUSH4 0xA2D12A39 EQ PUSH3 0x2AB JUMPI DUP1 PUSH4 0xDB0E6A2F EQ PUSH3 0x2EF JUMPI DUP1 PUSH4 0xDDF80166 EQ PUSH3 0x309 JUMPI DUP1 PUSH4 0xF5521022 EQ PUSH3 0x337 JUMPI DUP1 PUSH4 0xF76B81E6 EQ PUSH3 0x37B JUMPI DUP1 PUSH4 0xF9B867D8 EQ PUSH3 0x3C2 JUMPI DUP1 PUSH4 0xFB751D0D EQ PUSH3 0x3DC JUMPI JUMPDEST PUSH1 0x0 DUP1 REVERT JUMPDEST CALLVALUE DUP1 ISZERO PUSH3 0xFD JUMPI PUSH1 0x0 DUP1 REVERT JUMPDEST POP PUSH3 0x11C PUSH1 0x4 DUP1 CALLDATASIZE SUB PUSH3 0x116 SWAP2 SWAP1 DUP2 ADD SWAP1 PUSH3 0x18DE JUMP JUMPDEST PUSH3 0x420 JUMP JUMPDEST PUSH1 0x40 MLOAD PUSH3 0x130 SWAP7 SWAP6 SWAP5 SWAP4 SWAP3 SWAP2 SWAP1 PUSH3 0x21DC JUMP JUMPDEST PUSH1 0x40 MLOAD DUP1 SWAP2 SUB SWAP1 RETURN JUMPDEST CALLVALUE DUP1 ISZERO PUSH3 0x146 JUMPI PUSH1 0x0 DUP1 REVERT JUMPDEST POP PUSH3 0x165 PUSH1 0x4 DUP1 CALLDATASIZE SUB PUSH3 0x15F SWAP2 SWAP1 DUP2 ADD SWAP1 PUSH3 0x1718 JUMP JUMPDEST PUSH3 0x5BF JUMP JUMPDEST STOP JUMPDEST CALLVALUE DUP1 ISZERO PUSH3 0x174 JUMPI PUSH1 0x0 DUP1 REVERT JUMPDEST POP PUSH3 0x193 PUSH1 0x4 DUP1 CALLDATASIZE SUB PUSH3 0x18D SWAP2 SWAP1 DUP2 ADD SWAP1 PUSH3 0x19EB JUMP JUMPDEST PUSH3 0x61C JUMP JUMPDEST PUSH1 0x40 MLOAD PUSH3 0x1A2 SWAP2 SWAP1 PUSH3 0x1FEE JUMP JUMPDEST PUSH1 0x40 MLOAD DUP1 SWAP2 SUB SWAP1 RETURN JUMPDEST CALLVALUE DUP1 ISZERO PUSH3 0x1B8 JUMPI PUSH1 0x0 DUP1 REVERT JUMPDEST POP PUSH3 0x1C3 PUSH3 0x802 JUMP JUMPDEST PUSH1 0x40 MLOAD PUSH3 0x1D2 SWAP2 SWAP1 PUSH3 0x1F61 JUMP JUMPDEST PUSH1 0x40 MLOAD DUP1 SWAP2 SUB SWAP1 RETURN JUMPDEST CALLVALUE DUP1 ISZERO PUSH3 0x1E8 JUMPI PUSH1 0x0 DUP1 REVERT JUMPDEST POP PUSH3 0x207 PUSH1 0x4 DUP1 CALLDATASIZE SUB PUSH3 0x201 SWAP2 SWAP1 DUP2 ADD SWAP1 PUSH3 0x1718 JUMP JUMPDEST PUSH3 0x85C JUMP JUMPDEST PUSH1 0x40 MLOAD PUSH3 0x216 SWAP2 SWAP1 PUSH3 0x1FEE JUMP JUMPDEST PUSH1 0x40 MLOAD DUP1 SWAP2 SUB SWAP1 RETURN JUMPDEST CALLVALUE DUP1 ISZERO PUSH3 0x22C JUMPI PUSH1 0x0 DUP1 REVERT JUMPDEST POP PUSH3 0x237 PUSH3 0x87B JUMP JUMPDEST STOP JUMPDEST CALLVALUE DUP1 ISZERO PUSH3 0x246 JUMPI PUSH1 0x0 DUP1 REVERT JUMPDEST POP PUSH3 0x265 PUSH1 0x4 DUP1 CALLDATASIZE SUB PUSH3 0x25F SWAP2 SWAP1 DUP2 ADD SWAP1 PUSH3 0x1718 JUMP JUMPDEST PUSH3 0x888 JUMP JUMPDEST STOP JUMPDEST CALLVALUE DUP1 ISZERO PUSH3 0x274 JUMPI PUSH1 0x0 DUP1 REVERT JUMPDEST POP PUSH3 0x293 PUSH1 0x4 DUP1 CALLDATASIZE SUB PUSH3 0x28D SWAP2 SWAP1 DUP2 ADD SWAP1 PUSH3 0x1718 JUMP JUMPDEST PUSH3 0x8E5 JUMP JUMPDEST PUSH1 0x40 MLOAD PUSH3 0x2A2 SWAP2 SWAP1 PUSH3 0x1FEE JUMP JUMPDEST PUSH1 0x40 MLOAD DUP1 SWAP2 SUB SWAP1 RETURN JUMPDEST CALLVALUE DUP1 ISZERO PUSH3 0x2B8 JUMPI PUSH1 0x0 DUP1 REVERT JUMPDEST POP PUSH3 0x2D7 PUSH1 0x4 DUP1 CALLDATASIZE SUB PUSH3 0x2D1 SWAP2 SWAP1 DUP2 ADD SWAP1 PUSH3 0x19EB JUMP JUMPDEST PUSH3 0x904 JUMP JUMPDEST PUSH1 0x40 MLOAD PUSH3 0x2E6 SWAP2 SWAP1 PUSH3 0x1FEE JUMP JUMPDEST PUSH1 0x40 MLOAD DUP1 SWAP2 SUB SWAP1 RETURN JUMPDEST CALLVALUE DUP1 ISZERO PUSH3 0x2FC JUMPI PUSH1 0x0 DUP1 REVERT JUMPDEST POP PUSH3 0x307 PUSH3 0xAEA JUMP JUMPDEST STOP JUMPDEST CALLVALUE DUP1 ISZERO PUSH3 0x316 JUMPI PUSH1 0x0 DUP1 REVERT JUMPDEST POP PUSH3 0x335 PUSH1 0x4 DUP1 CALLDATASIZE SUB PUSH3 0x32F SWAP2 SWAP1 DUP2 ADD SWAP1 PUSH3 0x1718 JUMP JUMPDEST PUSH3 0xAF7 JUMP JUMPDEST STOP JUMPDEST CALLVALUE DUP1 ISZERO PUSH3 0x344 JUMPI PUSH1 0x0 DUP1 REVERT JUMPDEST POP PUSH3 0x363 PUSH1 0x4 DUP1 CALLDATASIZE SUB PUSH3 0x35D SWAP2 SWAP1 DUP2 ADD SWAP1 PUSH3 0x1718 JUMP JUMPDEST PUSH3 0xB54 JUMP JUMPDEST PUSH1 0x40 MLOAD PUSH3 0x372 SWAP2 SWAP1 PUSH3 0x1FEE JUMP JUMPDEST PUSH1 0x40 MLOAD DUP1 SWAP2 SUB SWAP1 RETURN JUMPDEST CALLVALUE DUP1 ISZERO PUSH3 0x388 JUMPI PUSH1 0x0 DUP1 REVERT JUMPDEST POP PUSH3 0x3A7 PUSH1 0x4 DUP1 CALLDATASIZE SUB PUSH3 0x3A1 SWAP2 SWAP1 DUP2 ADD SWAP1 PUSH3 0x18DE JUMP JUMPDEST PUSH3 0xB73 JUMP JUMPDEST PUSH1 0x40 MLOAD PUSH3 0x3B9 SWAP5 SWAP4 SWAP3 SWAP2 SWAP1 PUSH3 0x1F85 JUMP JUMPDEST PUSH1 0x40 MLOAD DUP1 SWAP2 SUB SWAP1 RETURN JUMPDEST CALLVALUE DUP1 ISZERO PUSH3 0x3CF JUMPI PUSH1 0x0 DUP1 REVERT JUMPDEST POP PUSH3 0x3DA PUSH3 0xD08 JUMP JUMPDEST STOP JUMPDEST CALLVALUE DUP1 ISZERO PUSH3 0x3E9 JUMPI PUSH1 0x0 DUP1 REVERT JUMPDEST POP PUSH3 0x408 PUSH1 0x4 DUP1 CALLDATASIZE SUB PUSH3 0x402 SWAP2 SWAP1 DUP2 ADD SWAP1 PUSH3 0x1840 JUMP JUMPDEST PUSH3 0xD15 JUMP JUMPDEST PUSH1 0x40 MLOAD PUSH3 0x417 SWAP2 SWAP1 PUSH3 0x1F44 JUMP JUMPDEST PUSH1 0x40 MLOAD DUP1 SWAP2 SUB SWAP1 RETURN JUMPDEST PUSH1 0x0 PUSH1 0x60 DUP1 PUSH1 0x60 PUSH1 0x0 DUP1 PUSH1 0x0 PUSH20 0xFFFFFFFFFFFFFFFFFFFFFFFFFFFFFFFFFFFFFFFF AND PUSH1 0x3 PUSH1 0x0 DUP10 DUP2 MSTORE PUSH1 0x20 ADD SWAP1 DUP2 MSTORE PUSH1 0x20 ADD PUSH1 0x0 KECCAK256 PUSH1 0x0 SWAP1 SLOAD SWAP1 PUSH2 0x100 EXP SWAP1 DIV PUSH20 0xFFFFFFFFFFFFFFFFFFFFFFFFFFFFFFFFFFFFFFFF AND PUSH20 0xFFFFFFFFFFFFFFFFFFFFFFFFFFFFFFFFFFFFFFFF AND EQ ISZERO ISZERO ISZERO PUSH3 0x4D2 JUMPI PUSH1 0x40 MLOAD PUSH32 0x8C379A000000000000000000000000000000000000000000000000000000000 DUP2 MSTORE PUSH1 0x4 ADD PUSH3 0x4C9 SWAP1 PUSH3 0x20EE JUMP JUMPDEST PUSH1 0x40 MLOAD DUP1 SWAP2 SUB SWAP1 REVERT JUMPDEST PUSH1 0x3 PUSH1 0x0 DUP9 DUP2 MSTORE PUSH1 0x20 ADD SWAP1 DUP2 MSTORE PUSH1 0x20 ADD PUSH1 0x0 KECCAK256 PUSH1 0x0 SWAP1 SLOAD SWAP1 PUSH2 0x100 EXP SWAP1 DIV PUSH20 0xFFFFFFFFFFFFFFFFFFFFFFFFFFFFFFFFFFFFFFFF AND PUSH20 0xFFFFFFFFFFFFFFFFFFFFFFFFFFFFFFFFFFFFFFFF AND PUSH4 0x1A772BAF PUSH1 0x40 MLOAD DUP2 PUSH4 0xFFFFFFFF AND PUSH29 0x100000000000000000000000000000000000000000000000000000000 MUL DUP2 MSTORE PUSH1 0x4 ADD PUSH1 0x0 PUSH1 0x40 MLOAD DUP1 DUP4 SUB DUP2 PUSH1 0x0 DUP8 DUP1 EXTCODESIZE ISZERO DUP1 ISZERO PUSH3 0x56A JUMPI PUSH1 0x0 DUP1 REVERT JUMPDEST POP GAS CALL ISZERO DUP1 ISZERO PUSH3 0x57F JUMPI RETURNDATASIZE PUSH1 0x0 DUP1 RETURNDATACOPY RETURNDATASIZE PUSH1 0x0 REVERT JUMPDEST POP POP POP POP PUSH1 0x40 MLOAD RETURNDATASIZE PUSH1 0x0 DUP3 RETURNDATACOPY RETURNDATASIZE PUSH1 0x1F NOT PUSH1 0x1F DUP3 ADD AND DUP3 ADD DUP1 PUSH1 0x40 MSTORE POP PUSH3 0x5AA SWAP2 SWAP1 DUP2 ADD SWAP1 PUSH3 0x190A JUMP JUMPDEST SWAP6 POP SWAP6 POP SWAP6 POP SWAP6 POP SWAP6 POP SWAP6 POP SWAP2 SWAP4 SWAP6 POP SWAP2 SWAP4 SWAP6 JUMP JUMPDEST PUSH3 0x5CA CALLER PUSH3 0x85C JUMP JUMPDEST ISZERO ISZERO PUSH3 0x60E JUMPI PUSH1 0x40 MLOAD PUSH32 0x8C379A000000000000000000000000000000000000000000000000000000000 DUP2 MSTORE PUSH1 0x4 ADD PUSH3 0x605 SWAP1 PUSH3 0x2132 JUMP JUMPDEST PUSH1 0x40 MLOAD DUP1 SWAP2 SUB SWAP1 REVERT JUMPDEST PUSH3 0x619 DUP2 PUSH3 0xED5 JUMP JUMPDEST POP JUMP JUMPDEST PUSH1 0x0 PUSH3 0x629 CALLER PUSH3 0x8E5 JUMP JUMPDEST ISZERO ISZERO PUSH3 0x66D JUMPI PUSH1 0x40 MLOAD PUSH32 0x8C379A000000000000000000000000000000000000000000000000000000000 DUP2 MSTORE PUSH1 0x4 ADD PUSH3 0x664 SWAP1 PUSH3 0x2176 JUMP JUMPDEST PUSH1 0x40 MLOAD DUP1 SWAP2 SUB SWAP1 REVERT JUMPDEST PUSH1 0x0 PUSH20 0xFFFFFFFFFFFFFFFFFFFFFFFFFFFFFFFFFFFFFFFF AND PUSH1 0x3 PUSH1 0x0 DUP7 DUP2 MSTORE PUSH1 0x20 ADD SWAP1 DUP2 MSTORE PUSH1 0x20 ADD PUSH1 0x0 KECCAK256 PUSH1 0x0 SWAP1 SLOAD SWAP1 PUSH2 0x100 EXP SWAP1 DIV PUSH20 0xFFFFFFFFFFFFFFFFFFFFFFFFFFFFFFFFFFFFFFFF AND PUSH20 0xFFFFFFFFFFFFFFFFFFFFFFFFFFFFFFFFFFFFFFFF AND EQ ISZERO ISZERO ISZERO PUSH3 0x715 JUMPI PUSH1 0x40 MLOAD PUSH32 0x8C379A000000000000000000000000000000000000000000000000000000000 DUP2 MSTORE PUSH1 0x4 ADD PUSH3 0x70C SWAP1 PUSH3 0x20AA JUMP JUMPDEST PUSH1 0x40 MLOAD DUP1 SWAP2 SUB SWAP1 REVERT JUMPDEST PUSH1 0x3 PUSH1 0x0 DUP6 DUP2 MSTORE PUSH1 0x20 ADD SWAP1 DUP2 MSTORE PUSH1 0x20 ADD PUSH1 0x0 KECCAK256 PUSH1 0x0 SWAP1 SLOAD SWAP1 PUSH2 0x100 EXP SWAP1 DIV PUSH20 0xFFFFFFFFFFFFFFFFFFFFFFFFFFFFFFFFFFFFFFFF AND PUSH20 0xFFFFFFFFFFFFFFFFFFFFFFFFFFFFFFFFFFFFFFFF AND PUSH4 0x6E72967 DUP5 CALLER DUP6 PUSH1 0x40 MLOAD DUP5 PUSH4 0xFFFFFFFF AND PUSH29 0x100000000000000000000000000000000000000000000000000000000 MUL DUP2 MSTORE PUSH1 0x4 ADD PUSH3 0x7A3 SWAP4 SWAP3 SWAP2 SWAP1 PUSH3 0x200B JUMP JUMPDEST PUSH1 0x20 PUSH1 0x40 MLOAD DUP1 DUP4 SUB DUP2 PUSH1 0x0 DUP8 DUP1 EXTCODESIZE ISZERO DUP1 ISZERO PUSH3 0x7BE JUMPI PUSH1 0x0 DUP1 REVERT JUMPDEST POP GAS CALL ISZERO DUP1 ISZERO PUSH3 0x7D3 JUMPI RETURNDATASIZE PUSH1 0x0 DUP1 RETURNDATACOPY RETURNDATASIZE PUSH1 0x0 REVERT JUMPDEST POP POP POP POP PUSH1 0x40 MLOAD RETURNDATASIZE PUSH1 0x1F NOT PUSH1 0x1F DUP3 ADD AND DUP3 ADD DUP1 PUSH1 0x40 MSTORE POP PUSH3 0x7F9 SWAP2 SWAP1 DUP2 ADD SWAP1 PUSH3 0x1814 JUMP JUMPDEST SWAP1 POP SWAP4 SWAP3 POP POP POP JUMP JUMPDEST PUSH1 0x60 PUSH1 0x4 DUP1 SLOAD DUP1 PUSH1 0x20 MUL PUSH1 0x20 ADD PUSH1 0x40 MLOAD SWAP1 DUP2 ADD PUSH1 0x40 MSTORE DUP1 SWAP3 SWAP2 SWAP1 DUP2 DUP2 MSTORE PUSH1 0x20 ADD DUP3 DUP1 SLOAD DUP1 ISZERO PUSH3 0x852 JUMPI PUSH1 0x20 MUL DUP3 ADD SWAP2 SWAP1 PUSH1 0x0 MSTORE PUSH1 0x20 PUSH1 0x0 KECCAK256 SWAP1 JUMPDEST DUP2 SLOAD DUP2 MSTORE PUSH1 0x20 ADD SWAP1 PUSH1 0x1 ADD SWAP1 DUP1 DUP4 GT PUSH3 0x83D JUMPI JUMPDEST POP POP POP POP POP SWAP1 POP SWAP1 JUMP JUMPDEST PUSH1 0x0 PUSH3 0x874 DUP3 PUSH1 0x2 PUSH3 0xF31 SWAP1 SWAP2 SWAP1 PUSH4 0xFFFFFFFF AND JUMP JUMPDEST SWAP1 POP SWAP2 SWAP1 POP JUMP JUMPDEST PUSH3 0x886 CALLER PUSH3 0xFFE JUMP JUMPDEST JUMP JUMPDEST PUSH3 0x893 CALLER PUSH3 0x8E5 JUMP JUMPDEST ISZERO ISZERO PUSH3 0x8D7 JUMPI PUSH1 0x40 MLOAD PUSH32 0x8C379A000000000000000000000000000000000000000000000000000000000 DUP2 MSTORE PUSH1 0x4 ADD PUSH3 0x8CE SWAP1 PUSH3 0x2176 JUMP JUMPDEST PUSH1 0x40 MLOAD DUP1 SWAP2 SUB SWAP1 REVERT JUMPDEST PUSH3 0x8E2 DUP2 PUSH3 0x105A JUMP JUMPDEST POP JUMP JUMPDEST PUSH1 0x0 PUSH3 0x8FD DUP3 PUSH1 0x1 PUSH3 0xF31 SWAP1 SWAP2 SWAP1 PUSH4 0xFFFFFFFF AND JUMP JUMPDEST SWAP1 POP SWAP2 SWAP1 POP JUMP JUMPDEST PUSH1 0x0 PUSH3 0x911 CALLER PUSH3 0x85C JUMP JUMPDEST ISZERO ISZERO PUSH3 0x955 JUMPI PUSH1 0x40 MLOAD PUSH32 0x8C379A000000000000000000000000000000000000000000000000000000000 DUP2 MSTORE PUSH1 0x4 ADD PUSH3 0x94C SWAP1 PUSH3 0x2132 JUMP JUMPDEST PUSH1 0x40 MLOAD DUP1 SWAP2 SUB SWAP1 REVERT JUMPDEST PUSH1 0x0 PUSH20 0xFFFFFFFFFFFFFFFFFFFFFFFFFFFFFFFFFFFFFFFF AND PUSH1 0x3 PUSH1 0x0 DUP7 DUP2 MSTORE PUSH1 0x20 ADD SWAP1 DUP2 MSTORE PUSH1 0x20 ADD PUSH1 0x0 KECCAK256 PUSH1 0x0 SWAP1 SLOAD SWAP1 PUSH2 0x100 EXP SWAP1 DIV PUSH20 0xFFFFFFFFFFFFFFFFFFFFFFFFFFFFFFFFFFFFFFFF AND PUSH20 0xFFFFFFFFFFFFFFFFFFFFFFFFFFFFFFFFFFFFFFFF AND EQ ISZERO ISZERO ISZERO PUSH3 0x9FD JUMPI PUSH1 0x40 MLOAD PUSH32 0x8C379A000000000000000000000000000000000000000000000000000000000 DUP2 MSTORE PUSH1 0x4 ADD PUSH3 0x9F4 SWAP1 PUSH3 0x20EE JUMP JUMPDEST PUSH1 0x40 MLOAD DUP1 SWAP2 SUB SWAP1 REVERT JUMPDEST PUSH1 0x3 PUSH1 0x0 DUP6 DUP2 MSTORE PUSH1 0x20 ADD SWAP1 DUP2 MSTORE PUSH1 0x20 ADD PUSH1 0x0 KECCAK256 PUSH1 0x0 SWAP1 SLOAD SWAP1 PUSH2 0x100 EXP SWAP1 DIV PUSH20 0xFFFFFFFFFFFFFFFFFFFFFFFFFFFFFFFFFFFFFFFF AND PUSH20 0xFFFFFFFFFFFFFFFFFFFFFFFFFFFFFFFFFFFFFFFF AND PUSH4 0xF650350D DUP5 CALLER DUP6 PUSH1 0x40 MLOAD DUP5 PUSH4 0xFFFFFFFF AND PUSH29 0x100000000000000000000000000000000000000000000000000000000 MUL DUP2 MSTORE PUSH1 0x4 ADD PUSH3 0xA8B SWAP4 SWAP3 SWAP2 SWAP1 PUSH3 0x200B JUMP JUMPDEST PUSH1 0x20 PUSH1 0x40 MLOAD DUP1 DUP4 SUB DUP2 PUSH1 0x0 DUP8 DUP1 EXTCODESIZE ISZERO DUP1 ISZERO PUSH3 0xAA6 JUMPI PUSH1 0x0 DUP1 REVERT JUMPDEST POP GAS CALL ISZERO DUP1 ISZERO PUSH3 0xABB JUMPI RETURNDATASIZE PUSH1 0x0 DUP1 RETURNDATACOPY RETURNDATASIZE PUSH1 0x0 REVERT JUMPDEST POP POP POP POP PUSH1 0x40 MLOAD RETURNDATASIZE PUSH1 0x1F NOT PUSH1 0x1F DUP3 ADD AND DUP3 ADD DUP1 PUSH1 0x40 MSTORE POP PUSH3 0xAE1 SWAP2 SWAP1 DUP2 ADD SWAP1 PUSH3 0x1814 JUMP JUMPDEST SWAP1 POP SWAP4 SWAP3 POP POP POP JUMP JUMPDEST PUSH3 0xAF5 CALLER PUSH3 0x10B6 JUMP JUMPDEST JUMP JUMPDEST PUSH3 0xB02 CALLER PUSH3 0xB54 JUMP JUMPDEST ISZERO ISZERO PUSH3 0xB46 JUMPI PUSH1 0x40 MLOAD PUSH32 0x8C379A000000000000000000000000000000000000000000000000000000000 DUP2 MSTORE PUSH1 0x4 ADD PUSH3 0xB3D SWAP1 PUSH3 0x20CC JUMP JUMPDEST PUSH1 0x40 MLOAD DUP1 SWAP2 SUB SWAP1 REVERT JUMPDEST PUSH3 0xB51 DUP2 PUSH3 0x1112 JUMP JUMPDEST POP JUMP JUMPDEST PUSH1 0x0 PUSH3 0xB6C DUP3 PUSH1 0x0 PUSH3 0xF31 SWAP1 SWAP2 SWAP1 PUSH4 0xFFFFFFFF AND JUMP JUMPDEST SWAP1 POP SWAP2 SWAP1 POP JUMP JUMPDEST PUSH1 0x60 DUP1 PUSH1 0x60 DUP1 PUSH1 0x0 PUSH20 0xFFFFFFFFFFFFFFFFFFFFFFFFFFFFFFFFFFFFFFFF AND PUSH1 0x3 PUSH1 0x0 DUP8 DUP2 MSTORE PUSH1 0x20 ADD SWAP1 DUP2 MSTORE PUSH1 0x20 ADD PUSH1 0x0 KECCAK256 PUSH1 0x0 SWAP1 SLOAD SWAP1 PUSH2 0x100 EXP SWAP1 DIV PUSH20 0xFFFFFFFFFFFFFFFFFFFFFFFFFFFFFFFFFFFFFFFF AND PUSH20 0xFFFFFFFFFFFFFFFFFFFFFFFFFFFFFFFFFFFFFFFF AND EQ ISZERO ISZERO ISZERO PUSH3 0xC21 JUMPI PUSH1 0x40 MLOAD PUSH32 0x8C379A000000000000000000000000000000000000000000000000000000000 DUP2 MSTORE PUSH1 0x4 ADD PUSH3 0xC18 SWAP1 PUSH3 0x20EE JUMP JUMPDEST PUSH1 0x40 MLOAD DUP1 SWAP2 SUB SWAP1 REVERT JUMPDEST PUSH1 0x3 PUSH1 0x0 DUP7 DUP2 MSTORE PUSH1 0x20 ADD SWAP1 DUP2 MSTORE PUSH1 0x20 ADD PUSH1 0x0 KECCAK256 PUSH1 0x0 SWAP1 SLOAD SWAP1 PUSH2 0x100 EXP SWAP1 DIV PUSH20 0xFFFFFFFFFFFFFFFFFFFFFFFFFFFFFFFFFFFFFFFF AND PUSH20 0xFFFFFFFFFFFFFFFFFFFFFFFFFFFFFFFFFFFFFFFF AND PUSH4 0xF0D984E4 PUSH1 0x40 MLOAD DUP2 PUSH4 0xFFFFFFFF AND PUSH29 0x100000000000000000000000000000000000000000000000000000000 MUL DUP2 MSTORE PUSH1 0x4 ADD PUSH1 0x0 PUSH1 0x40 MLOAD DUP1 DUP4 SUB DUP2 PUSH1 0x0 DUP8 DUP1 EXTCODESIZE ISZERO DUP1 ISZERO PUSH3 0xCB9 JUMPI PUSH1 0x0 DUP1 REVERT JUMPDEST POP GAS CALL ISZERO DUP1 ISZERO PUSH3 0xCCE JUMPI RETURNDATASIZE PUSH1 0x0 DUP1 RETURNDATACOPY RETURNDATASIZE PUSH1 0x0 REVERT JUMPDEST POP POP POP POP PUSH1 0x40 MLOAD RETURNDATASIZE PUSH1 0x0 DUP3 RETURNDATACOPY RETURNDATASIZE PUSH1 0x1F NOT PUSH1 0x1F DUP3 ADD AND DUP3 ADD DUP1 PUSH1 0x40 MSTORE POP PUSH3 0xCF9 SWAP2 SWAP1 DUP2 ADD SWAP1 PUSH3 0x1744 JUMP JUMPDEST SWAP4 POP SWAP4 POP SWAP4 POP SWAP4 POP SWAP2 SWAP4 POP SWAP2 SWAP4 JUMP JUMPDEST PUSH3 0xD13 CALLER PUSH3 0x116E JUMP JUMPDEST JUMP JUMPDEST PUSH1 0x0 DUP1 PUSH3 0xD23 CALLER PUSH3 0xB54 JUMP JUMPDEST ISZERO ISZERO PUSH3 0xD67 JUMPI PUSH1 0x40 MLOAD PUSH32 0x8C379A000000000000000000000000000000000000000000000000000000000 DUP2 MSTORE PUSH1 0x4 ADD PUSH3 0xD5E SWAP1 PUSH3 0x20CC JUMP JUMPDEST PUSH1 0x40 MLOAD DUP1 SWAP2 SUB SWAP1 REVERT JUMPDEST PUSH1 0x0 PUSH20 0xFFFFFFFFFFFFFFFFFFFFFFFFFFFFFFFFFFFFFFFF AND PUSH1 0x3 PUSH1 0x0 DUP8 DUP2 MSTORE PUSH1 0x20 ADD SWAP1 DUP2 MSTORE PUSH1 0x20 ADD PUSH1 0x0 KECCAK256 PUSH1 0x0 SWAP1 SLOAD SWAP1 PUSH2 0x100 EXP SWAP1 DIV PUSH20 0xFFFFFFFFFFFFFFFFFFFFFFFFFFFFFFFFFFFFFFFF AND PUSH20 0xFFFFFFFFFFFFFFFFFFFFFFFFFFFFFFFFFFFFFFFF AND EQ ISZERO ISZERO PUSH3 0xE0E JUMPI PUSH1 0x40 MLOAD PUSH32 0x8C379A000000000000000000000000000000000000000000000000000000000 DUP2 MSTORE PUSH1 0x4 ADD PUSH3 0xE05 SWAP1 PUSH3 0x2198 JUMP JUMPDEST PUSH1 0x40 MLOAD DUP1 SWAP2 SUB SWAP1 REVERT JUMPDEST DUP6 DUP5 DUP5 CALLER PUSH3 0xE1C PUSH3 0x1327 JUMP JUMPDEST PUSH3 0xE2B SWAP5 SWAP4 SWAP3 SWAP2 SWAP1 PUSH3 0x204F JUMP JUMPDEST PUSH1 0x40 MLOAD DUP1 SWAP2 SUB SWAP1 PUSH1 0x0 CREATE DUP1 ISZERO DUP1 ISZERO PUSH3 0xE48 JUMPI RETURNDATASIZE PUSH1 0x0 DUP1 RETURNDATACOPY RETURNDATASIZE PUSH1 0x0 REVERT JUMPDEST POP SWAP1 POP DUP1 PUSH1 0x3 PUSH1 0x0 DUP8 DUP2 MSTORE PUSH1 0x20 ADD SWAP1 DUP2 MSTORE PUSH1 0x20 ADD PUSH1 0x0 KECCAK256 PUSH1 0x0 PUSH2 0x100 EXP DUP2 SLOAD DUP2 PUSH20 0xFFFFFFFFFFFFFFFFFFFFFFFFFFFFFFFFFFFFFFFF MUL NOT AND SWAP1 DUP4 PUSH20 0xFFFFFFFFFFFFFFFFFFFFFFFFFFFFFFFFFFFFFFFF AND MUL OR SWAP1 SSTORE POP PUSH1 0x4 DUP6 SWAP1 DUP1 PUSH1 0x1 DUP2 SLOAD ADD DUP1 DUP3 SSTORE DUP1 SWAP2 POP POP SWAP1 PUSH1 0x1 DUP3 SUB SWAP1 PUSH1 0x0 MSTORE PUSH1 0x20 PUSH1 0x0 KECCAK256 ADD PUSH1 0x0 SWAP1 SWAP2 SWAP3 SWAP1 SWAP2 SWAP1 SWAP2 POP SSTORE POP DUP1 SWAP2 POP POP SWAP5 SWAP4 POP POP POP POP JUMP JUMPDEST PUSH3 0xEEB DUP2 PUSH1 0x2 PUSH3 0x11CA SWAP1 SWAP2 SWAP1 PUSH4 0xFFFFFFFF AND JUMP JUMPDEST DUP1 PUSH20 0xFFFFFFFFFFFFFFFFFFFFFFFFFFFFFFFFFFFFFFFF AND PUSH32 0x71AE26CAD02663E3D92EFD6EC56031A80D74A20C0AB4183FAA8BF262261C9BAA PUSH1 0x40 MLOAD PUSH1 0x40 MLOAD DUP1 SWAP2 SUB SWAP1 LOG2 POP JUMP JUMPDEST PUSH1 0x0 DUP1 PUSH20 0xFFFFFFFFFFFFFFFFFFFFFFFFFFFFFFFFFFFFFFFF AND DUP3 PUSH20 0xFFFFFFFFFFFFFFFFFFFFFFFFFFFFFFFFFFFFFFFF AND EQ ISZERO ISZERO ISZERO PUSH3 0xFA7 JUMPI PUSH1 0x40 MLOAD PUSH32 0x8C379A000000000000000000000000000000000000000000000000000000000 DUP2 MSTORE PUSH1 0x4 ADD PUSH3 0xF9E SWAP1 PUSH3 0x2154 JUMP JUMPDEST PUSH1 0x40 MLOAD DUP1 SWAP2 SUB SWAP1 REVERT JUMPDEST DUP3 PUSH1 0x0 ADD PUSH1 0x0 DUP4 PUSH20 0xFFFFFFFFFFFFFFFFFFFFFFFFFFFFFFFFFFFFFFFF AND PUSH20 0xFFFFFFFFFFFFFFFFFFFFFFFFFFFFFFFFFFFFFFFF AND DUP2 MSTORE PUSH1 0x20 ADD SWAP1 DUP2 MSTORE PUSH1 0x20 ADD PUSH1 0x0 KECCAK256 PUSH1 0x0 SWAP1 SLOAD SWAP1 PUSH2 0x100 EXP SWAP1 DIV PUSH1 0xFF AND SWAP1 POP SWAP3 SWAP2 POP POP JUMP JUMPDEST PUSH3 0x1014 DUP2 PUSH1 0x1 PUSH3 0x1279 SWAP1 SWAP2 SWAP1 PUSH4 0xFFFFFFFF AND JUMP JUMPDEST DUP1 PUSH20 0xFFFFFFFFFFFFFFFFFFFFFFFFFFFFFFFFFFFFFFFF AND PUSH32 0x126174F6CF49C81CDB4A9214C6B8F037BEF55B4EC31E4FC776CEA2A1C8A88D59 PUSH1 0x40 MLOAD PUSH1 0x40 MLOAD DUP1 SWAP2 SUB SWAP1 LOG2 POP JUMP JUMPDEST PUSH3 0x1070 DUP2 PUSH1 0x1 PUSH3 0x11CA SWAP1 SWAP2 SWAP1 PUSH4 0xFFFFFFFF AND JUMP JUMPDEST DUP1 PUSH20 0xFFFFFFFFFFFFFFFFFFFFFFFFFFFFFFFFFFFFFFFF AND PUSH32 0xDDBF200AA634DC3FB81CFD68583DD1040D1C751D335E1D86B631BDE3E977FEA8 PUSH1 0x40 MLOAD PUSH1 0x40 MLOAD DUP1 SWAP2 SUB SWAP1 LOG2 POP JUMP JUMPDEST PUSH3 0x10CC DUP2 PUSH1 0x2 PUSH3 0x1279 SWAP1 SWAP2 SWAP1 PUSH4 0xFFFFFFFF AND JUMP JUMPDEST DUP1 PUSH20 0xFFFFFFFFFFFFFFFFFFFFFFFFFFFFFFFFFFFFFFFF AND PUSH32 0xDB7176E79CFFEF81CB01767DD0447A0B24BB72CA9778D4B245581086B2A7E6DB PUSH1 0x40 MLOAD PUSH1 0x40 MLOAD DUP1 SWAP2 SUB SWAP1 LOG2 POP JUMP JUMPDEST PUSH3 0x1128 DUP2 PUSH1 0x0 PUSH3 0x11CA SWAP1 SWAP2 SWAP1 PUSH4 0xFFFFFFFF AND JUMP JUMPDEST DUP1 PUSH20 0xFFFFFFFFFFFFFFFFFFFFFFFFFFFFFFFFFFFFFFFF AND PUSH32 0x2977383B0207D39EF14220620B6CF3E6C9B6E78592AF90BAEEF6614ED2FCD2C6 PUSH1 0x40 MLOAD PUSH1 0x40 MLOAD DUP1 SWAP2 SUB SWAP1 LOG2 POP JUMP JUMPDEST PUSH3 0x1184 DUP2 PUSH1 0x0 PUSH3 0x1279 SWAP1 SWAP2 SWAP1 PUSH4 0xFFFFFFFF AND JUMP JUMPDEST DUP1 PUSH20 0xFFFFFFFFFFFFFFFFFFFFFFFFFFFFFFFFFFFFFFFF AND PUSH32 0xB78E9906C5BAE930CCF756A5214C9855B1782F0EB30F9566DE2384F034AF48F3 PUSH1 0x40 MLOAD PUSH1 0x40 MLOAD DUP1 SWAP2 SUB SWAP1 LOG2 POP JUMP JUMPDEST PUSH3 0x11D6 DUP3 DUP3 PUSH3 0xF31 JUMP JUMPDEST ISZERO ISZERO ISZERO PUSH3 0x121B JUMPI PUSH1 0x40 MLOAD PUSH32 0x8C379A000000000000000000000000000000000000000000000000000000000 DUP2 MSTORE PUSH1 0x4 ADD PUSH3 0x1212 SWAP1 PUSH3 0x2110 JUMP JUMPDEST PUSH1 0x40 MLOAD DUP1 SWAP2 SUB SWAP1 REVERT JUMPDEST PUSH1 0x1 DUP3 PUSH1 0x0 ADD PUSH1 0x0 DUP4 PUSH20 0xFFFFFFFFFFFFFFFFFFFFFFFFFFFFFFFFFFFFFFFF AND PUSH20 0xFFFFFFFFFFFFFFFFFFFFFFFFFFFFFFFFFFFFFFFF AND DUP2 MSTORE PUSH1 0x20 ADD SWAP1 DUP2 MSTORE PUSH1 0x20 ADD PUSH1 0x0 KECCAK256 PUSH1 0x0 PUSH2 0x100 EXP DUP2 SLOAD DUP2 PUSH1 0xFF MUL NOT AND SWAP1 DUP4 ISZERO ISZERO MUL OR SWAP1 SSTORE POP POP POP JUMP JUMPDEST PUSH3 0x1285 DUP3 DUP3 PUSH3 0xF31 JUMP JUMPDEST ISZERO ISZERO PUSH3 0x12C9 JUMPI PUSH1 0x40 MLOAD PUSH32 0x8C379A000000000000000000000000000000000000000000000000000000000 DUP2 MSTORE PUSH1 0x4 ADD PUSH3 0x12C0 SWAP1 PUSH3 0x21BA JUMP JUMPDEST PUSH1 0x40 MLOAD DUP1 SWAP2 SUB SWAP1 REVERT JUMPDEST PUSH1 0x0 DUP3 PUSH1 0x0 ADD PUSH1 0x0 DUP4 PUSH20 0xFFFFFFFFFFFFFFFFFFFFFFFFFFFFFFFFFFFFFFFF AND PUSH20 0xFFFFFFFFFFFFFFFFFFFFFFFFFFFFFFFFFFFFFFFF AND DUP2 MSTORE PUSH1 0x20 ADD SWAP1 DUP2 MSTORE PUSH1 0x20 ADD PUSH1 0x0 KECCAK256 PUSH1 0x0 PUSH2 0x100 EXP DUP2 SLOAD DUP2 PUSH1 0xFF MUL NOT AND SWAP1 DUP4 ISZERO ISZERO MUL OR SWAP1 SSTORE POP POP POP JUMP JUMPDEST PUSH1 0x40 MLOAD PUSH2 0x172F DUP1 PUSH3 0x2511 DUP4 CODECOPY ADD SWAP1 JUMP JUMPDEST PUSH1 0x0 PUSH3 0x1346 DUP3 CALLDATALOAD PUSH3 0x2477 JUMP JUMPDEST SWAP1 POP SWAP3 SWAP2 POP POP JUMP JUMPDEST PUSH1 0x0 PUSH3 0x135C DUP3 MLOAD PUSH3 0x2477 JUMP JUMPDEST SWAP1 POP SWAP3 SWAP2 POP POP JUMP JUMPDEST PUSH1 0x0 DUP3 PUSH1 0x1F DUP4 ADD SLT ISZERO ISZERO PUSH3 0x1378 JUMPI PUSH1 0x0 DUP1 REVERT JUMPDEST DUP2 MLOAD PUSH3 0x138F PUSH3 0x1389 DUP3 PUSH3 0x228C JUMP JUMPDEST PUSH3 0x225E JUMP JUMPDEST SWAP2 POP DUP2 DUP2 DUP4 MSTORE PUSH1 0x20 DUP5 ADD SWAP4 POP PUSH1 0x20 DUP2 ADD SWAP1 POP DUP4 DUP6 PUSH1 0x20 DUP5 MUL DUP3 ADD GT ISZERO PUSH3 0x13B5 JUMPI PUSH1 0x0 DUP1 REVERT JUMPDEST PUSH1 0x0 JUMPDEST DUP4 DUP2 LT ISZERO PUSH3 0x13E9 JUMPI DUP2 PUSH3 0x13CE DUP9 DUP3 PUSH3 0x134E JUMP JUMPDEST DUP5 MSTORE PUSH1 0x20 DUP5 ADD SWAP4 POP PUSH1 0x20 DUP4 ADD SWAP3 POP POP PUSH1 0x1 DUP2 ADD SWAP1 POP PUSH3 0x13B8 JUMP JUMPDEST POP POP POP POP SWAP3 SWAP2 POP POP JUMP JUMPDEST PUSH1 0x0 DUP3 PUSH1 0x1F DUP4 ADD SLT ISZERO ISZERO PUSH3 0x1407 JUMPI PUSH1 0x0 DUP1 REVERT JUMPDEST DUP2 MLOAD PUSH3 0x141E PUSH3 0x1418 DUP3 PUSH3 0x22B5 JUMP JUMPDEST PUSH3 0x225E JUMP JUMPDEST SWAP2 POP DUP2 DUP2 DUP4 MSTORE PUSH1 0x20 DUP5 ADD SWAP4 POP PUSH1 0x20 DUP2 ADD SWAP1 POP DUP4 PUSH1 0x0 JUMPDEST DUP4 DUP2 LT ISZERO PUSH3 0x1468 JUMPI DUP2 MLOAD DUP7 ADD PUSH3 0x144D DUP9 DUP3 PUSH3 0x15A6 JUMP JUMPDEST DUP5 MSTORE PUSH1 0x20 DUP5 ADD SWAP4 POP PUSH1 0x20 DUP4 ADD SWAP3 POP POP PUSH1 0x1 DUP2 ADD SWAP1 POP PUSH3 0x1434 JUMP JUMPDEST POP POP POP POP SWAP3 SWAP2 POP POP JUMP JUMPDEST PUSH1 0x0 DUP3 PUSH1 0x1F DUP4 ADD SLT ISZERO ISZERO PUSH3 0x1486 JUMPI PUSH1 0x0 DUP1 REVERT JUMPDEST DUP2 MLOAD PUSH3 0x149D PUSH3 0x1497 DUP3 PUSH3 0x22DE JUMP JUMPDEST PUSH3 0x225E JUMP JUMPDEST SWAP2 POP DUP2 DUP2 DUP4 MSTORE PUSH1 0x20 DUP5 ADD SWAP4 POP PUSH1 0x20 DUP2 ADD SWAP1 POP DUP4 DUP6 PUSH1 0x20 DUP5 MUL DUP3 ADD GT ISZERO PUSH3 0x14C3 JUMPI PUSH1 0x0 DUP1 REVERT JUMPDEST PUSH1 0x0 JUMPDEST DUP4 DUP2 LT ISZERO PUSH3 0x14F7 JUMPI DUP2 PUSH3 0x14DC DUP9 DUP3 PUSH3 0x16D6 JUMP JUMPDEST DUP5 MSTORE PUSH1 0x20 DUP5 ADD SWAP4 POP PUSH1 0x20 DUP4 ADD SWAP3 POP POP PUSH1 0x1 DUP2 ADD SWAP1 POP PUSH3 0x14C6 JUMP JUMPDEST POP POP POP POP SWAP3 SWAP2 POP POP JUMP JUMPDEST PUSH1 0x0 DUP3 PUSH1 0x1F DUP4 ADD SLT ISZERO ISZERO PUSH3 0x1515 JUMPI PUSH1 0x0 DUP1 REVERT JUMPDEST DUP2 MLOAD PUSH3 0x152C PUSH3 0x1526 DUP3 PUSH3 0x2307 JUMP JUMPDEST PUSH3 0x225E JUMP JUMPDEST SWAP2 POP DUP2 DUP2 DUP4 MSTORE PUSH1 0x20 DUP5 ADD SWAP4 POP PUSH1 0x20 DUP2 ADD SWAP1 POP DUP4 DUP6 PUSH1 0x20 DUP5 MUL DUP3 ADD GT ISZERO PUSH3 0x1552 JUMPI PUSH1 0x0 DUP1 REVERT JUMPDEST PUSH1 0x0 JUMPDEST DUP4 DUP2 LT ISZERO PUSH3 0x1586 JUMPI DUP2 PUSH3 0x156B DUP9 DUP3 PUSH3 0x1702 JUMP JUMPDEST DUP5 MSTORE PUSH1 0x20 DUP5 ADD SWAP4 POP PUSH1 0x20 DUP4 ADD SWAP3 POP POP PUSH1 0x1 DUP2 ADD SWAP1 POP PUSH3 0x1555 JUMP JUMPDEST POP POP POP POP SWAP3 SWAP2 POP POP JUMP JUMPDEST PUSH1 0x0 PUSH3 0x159E DUP3 MLOAD PUSH3 0x2497 JUMP JUMPDEST SWAP1 POP SWAP3 SWAP2 POP POP JUMP JUMPDEST PUSH1 0x0 DUP3 PUSH1 0x1F DUP4 ADD SLT ISZERO ISZERO PUSH3 0x15BA JUMPI PUSH1 0x0 DUP1 REVERT JUMPDEST DUP2 MLOAD PUSH3 0x15D1 PUSH3 0x15CB DUP3 PUSH3 0x2330 JUMP JUMPDEST PUSH3 0x225E JUMP JUMPDEST SWAP2 POP DUP1 DUP3 MSTORE PUSH1 0x20 DUP4 ADD PUSH1 0x20 DUP4 ADD DUP6 DUP4 DUP4 ADD GT ISZERO PUSH3 0x15EE JUMPI PUSH1 0x0 DUP1 REVERT JUMPDEST PUSH3 0x15FB DUP4 DUP3 DUP5 PUSH3 0x24C9 JUMP JUMPDEST POP POP POP SWAP3 SWAP2 POP POP JUMP JUMPDEST PUSH1 0x0 DUP3 PUSH1 0x1F DUP4 ADD SLT ISZERO ISZERO PUSH3 0x1618 JUMPI PUSH1 0x0 DUP1 REVERT JUMPDEST DUP2 CALLDATALOAD PUSH3 0x162F PUSH3 0x1629 DUP3 PUSH3 0x235D JUMP JUMPDEST PUSH3 0x225E JUMP JUMPDEST SWAP2 POP DUP1 DUP3 MSTORE PUSH1 0x20 DUP4 ADD PUSH1 0x20 DUP4 ADD DUP6 DUP4 DUP4 ADD GT ISZERO PUSH3 0x164C JUMPI PUSH1 0x0 DUP1 REVERT JUMPDEST PUSH3 0x1659 DUP4 DUP3 DUP5 PUSH3 0x24BA JUMP JUMPDEST POP POP POP SWAP3 SWAP2 POP POP JUMP JUMPDEST PUSH1 0x0 DUP3 PUSH1 0x1F DUP4 ADD SLT ISZERO ISZERO PUSH3 0x1676 JUMPI PUSH1 0x0 DUP1 REVERT JUMPDEST DUP2 MLOAD PUSH3 0x168D PUSH3 0x1687 DUP3 PUSH3 0x235D JUMP JUMPDEST PUSH3 0x225E JUMP JUMPDEST SWAP2 POP DUP1 DUP3 MSTORE PUSH1 0x20 DUP4 ADD PUSH1 0x20 DUP4 ADD DUP6 DUP4 DUP4 ADD GT ISZERO PUSH3 0x16AA JUMPI PUSH1 0x0 DUP1 REVERT JUMPDEST PUSH3 0x16B7 DUP4 DUP3 DUP5 PUSH3 0x24C9 JUMP JUMPDEST POP POP POP SWAP3 SWAP2 POP POP JUMP JUMPDEST PUSH1 0x0 PUSH3 0x16CE DUP3 CALLDATALOAD PUSH3 0x24A3 JUMP JUMPDEST SWAP1 POP SWAP3 SWAP2 POP POP JUMP JUMPDEST PUSH1 0x0 PUSH3 0x16E4 DUP3 MLOAD PUSH3 0x24A3 JUMP JUMPDEST SWAP1 POP SWAP3 SWAP2 POP POP JUMP JUMPDEST PUSH1 0x0 PUSH3 0x16FA DUP3 CALLDATALOAD PUSH3 0x24AD JUMP JUMPDEST SWAP1 POP SWAP3 SWAP2 POP POP JUMP JUMPDEST PUSH1 0x0 PUSH3 0x1710 DUP3 MLOAD PUSH3 0x24AD JUMP JUMPDEST SWAP1 POP SWAP3 SWAP2 POP POP JUMP JUMPDEST PUSH1 0x0 PUSH1 0x20 DUP3 DUP5 SUB SLT ISZERO PUSH3 0x172B JUMPI PUSH1 0x0 DUP1 REVERT JUMPDEST PUSH1 0x0 PUSH3 0x173B DUP5 DUP3 DUP6 ADD PUSH3 0x1338 JUMP JUMPDEST SWAP2 POP POP SWAP3 SWAP2 POP POP JUMP JUMPDEST PUSH1 0x0 DUP1 PUSH1 0x0 DUP1 PUSH1 0x80 DUP6 DUP8 SUB SLT ISZERO PUSH3 0x175B JUMPI PUSH1 0x0 DUP1 REVERT JUMPDEST PUSH1 0x0 DUP6 ADD MLOAD PUSH8 0xFFFFFFFFFFFFFFFF DUP2 GT ISZERO PUSH3 0x1776 JUMPI PUSH1 0x0 DUP1 REVERT JUMPDEST PUSH3 0x1784 DUP8 DUP3 DUP9 ADD PUSH3 0x1472 JUMP JUMPDEST SWAP5 POP POP PUSH1 0x20 DUP6 ADD MLOAD PUSH8 0xFFFFFFFFFFFFFFFF DUP2 GT ISZERO PUSH3 0x17A2 JUMPI PUSH1 0x0 DUP1 REVERT JUMPDEST PUSH3 0x17B0 DUP8 DUP3 DUP9 ADD PUSH3 0x13F3 JUMP JUMPDEST SWAP4 POP POP PUSH1 0x40 DUP6 ADD MLOAD PUSH8 0xFFFFFFFFFFFFFFFF DUP2 GT ISZERO PUSH3 0x17CE JUMPI PUSH1 0x0 DUP1 REVERT JUMPDEST PUSH3 0x17DC DUP8 DUP3 DUP9 ADD PUSH3 0x1364 JUMP JUMPDEST SWAP3 POP POP PUSH1 0x60 DUP6 ADD MLOAD PUSH8 0xFFFFFFFFFFFFFFFF DUP2 GT ISZERO PUSH3 0x17FA JUMPI PUSH1 0x0 DUP1 REVERT JUMPDEST PUSH3 0x1808 DUP8 DUP3 DUP9 ADD PUSH3 0x1501 JUMP JUMPDEST SWAP2 POP POP SWAP3 SWAP6 SWAP2 SWAP5 POP SWAP3 POP JUMP JUMPDEST PUSH1 0x0 PUSH1 0x20 DUP3 DUP5 SUB SLT ISZERO PUSH3 0x1827 JUMPI PUSH1 0x0 DUP1 REVERT JUMPDEST PUSH1 0x0 PUSH3 0x1837 DUP5 DUP3 DUP6 ADD PUSH3 0x1590 JUMP JUMPDEST SWAP2 POP POP SWAP3 SWAP2 POP POP JUMP JUMPDEST PUSH1 0x0 DUP1 PUSH1 0x0 DUP1 PUSH1 0x80 DUP6 DUP8 SUB SLT ISZERO PUSH3 0x1857 JUMPI PUSH1 0x0 DUP1 REVERT JUMPDEST PUSH1 0x0 DUP6 ADD CALLDATALOAD PUSH8 0xFFFFFFFFFFFFFFFF DUP2 GT ISZERO PUSH3 0x1872 JUMPI PUSH1 0x0 DUP1 REVERT JUMPDEST PUSH3 0x1880 DUP8 DUP3 DUP9 ADD PUSH3 0x1604 JUMP JUMPDEST SWAP5 POP POP PUSH1 0x20 PUSH3 0x1893 DUP8 DUP3 DUP9 ADD PUSH3 0x16C0 JUMP JUMPDEST SWAP4 POP POP PUSH1 0x40 DUP6 ADD CALLDATALOAD PUSH8 0xFFFFFFFFFFFFFFFF DUP2 GT ISZERO PUSH3 0x18B1 JUMPI PUSH1 0x0 DUP1 REVERT JUMPDEST PUSH3 0x18BF DUP8 DUP3 DUP9 ADD PUSH3 0x1604 JUMP JUMPDEST SWAP3 POP POP PUSH1 0x60 PUSH3 0x18D2 DUP8 DUP3 DUP9 ADD PUSH3 0x16EC JUMP JUMPDEST SWAP2 POP POP SWAP3 SWAP6 SWAP2 SWAP5 POP SWAP3 POP JUMP JUMPDEST PUSH1 0x0 PUSH1 0x20 DUP3 DUP5 SUB SLT ISZERO PUSH3 0x18F1 JUMPI PUSH1 0x0 DUP1 REVERT JUMPDEST PUSH1 0x0 PUSH3 0x1901 DUP5 DUP3 DUP6 ADD PUSH3 0x16C0 JUMP JUMPDEST SWAP2 POP POP SWAP3 SWAP2 POP POP JUMP JUMPDEST PUSH1 0x0 DUP1 PUSH1 0x0 DUP1 PUSH1 0x0 DUP1 PUSH1 0xC0 DUP8 DUP10 SUB SLT ISZERO PUSH3 0x1924 JUMPI PUSH1 0x0 DUP1 REVERT JUMPDEST PUSH1 0x0 PUSH3 0x1934 DUP10 DUP3 DUP11 ADD PUSH3 0x16D6 JUMP JUMPDEST SWAP7 POP POP PUSH1 0x20 DUP8 ADD MLOAD PUSH8 0xFFFFFFFFFFFFFFFF DUP2 GT ISZERO PUSH3 0x1952 JUMPI PUSH1 0x0 DUP1 REVERT JUMPDEST PUSH3 0x1960 DUP10 DUP3 DUP11 ADD PUSH3 0x1662 JUMP JUMPDEST SWAP6 POP POP PUSH1 0x40 DUP8 ADD MLOAD PUSH8 0xFFFFFFFFFFFFFFFF DUP2 GT ISZERO PUSH3 0x197E JUMPI PUSH1 0x0 DUP1 REVERT JUMPDEST PUSH3 0x198C DUP10 DUP3 DUP11 ADD PUSH3 0x1662 JUMP JUMPDEST SWAP5 POP POP PUSH1 0x60 DUP8 ADD MLOAD PUSH8 0xFFFFFFFFFFFFFFFF DUP2 GT ISZERO PUSH3 0x19AA JUMPI PUSH1 0x0 DUP1 REVERT JUMPDEST PUSH3 0x19B8 DUP10 DUP3 DUP11 ADD PUSH3 0x1662 JUMP JUMPDEST SWAP4 POP POP PUSH1 0x80 PUSH3 0x19CB DUP10 DUP3 DUP11 ADD PUSH3 0x134E JUMP JUMPDEST SWAP3 POP POP PUSH1 0xA0 PUSH3 0x19DE DUP10 DUP3 DUP11 ADD PUSH3 0x1702 JUMP JUMPDEST SWAP2 POP POP SWAP3 SWAP6 POP SWAP3 SWAP6 POP SWAP3 SWAP6 JUMP JUMPDEST PUSH1 0x0 DUP1 PUSH1 0x0 PUSH1 0x60 DUP5 DUP7 SUB SLT ISZERO PUSH3 0x1A01 JUMPI PUSH1 0x0 DUP1 REVERT JUMPDEST PUSH1 0x0 PUSH3 0x1A11 DUP7 DUP3 DUP8 ADD PUSH3 0x16C0 JUMP JUMPDEST SWAP4 POP POP PUSH1 0x20 DUP5 ADD CALLDATALOAD PUSH8 0xFFFFFFFFFFFFFFFF DUP2 GT ISZERO PUSH3 0x1A2F JUMPI PUSH1 0x0 DUP1 REVERT JUMPDEST PUSH3 0x1A3D DUP7 DUP3 DUP8 ADD PUSH3 0x1604 JUMP JUMPDEST SWAP3 POP POP PUSH1 0x40 PUSH3 0x1A50 DUP7 DUP3 DUP8 ADD PUSH3 0x16EC JUMP JUMPDEST SWAP2 POP POP SWAP3 POP SWAP3 POP SWAP3 JUMP JUMPDEST PUSH3 0x1A65 DUP2 PUSH3 0x2434 JUMP JUMPDEST DUP3 MSTORE POP POP JUMP JUMPDEST PUSH1 0x0 PUSH3 0x1A78 DUP3 PUSH3 0x23BE JUMP JUMPDEST DUP1 DUP5 MSTORE PUSH1 0x20 DUP5 ADD SWAP4 POP PUSH3 0x1A8C DUP4 PUSH3 0x238A JUMP JUMPDEST PUSH1 0x0 JUMPDEST DUP3 DUP2 LT ISZERO PUSH3 0x1AC4 JUMPI PUSH3 0x1AA5 DUP7 DUP4 MLOAD PUSH3 0x1A5A JUMP JUMPDEST PUSH3 0x1AB0 DUP3 PUSH3 0x2400 JUMP JUMPDEST SWAP2 POP PUSH1 0x20 DUP7 ADD SWAP6 POP PUSH1 0x1 DUP2 ADD SWAP1 POP PUSH3 0x1A8F JUMP JUMPDEST POP DUP5 SWAP3 POP POP POP SWAP3 SWAP2 POP POP JUMP JUMPDEST PUSH1 0x0 PUSH3 0x1ADD DUP3 PUSH3 0x23C9 JUMP JUMPDEST DUP1 DUP5 MSTORE PUSH1 0x20 DUP5 ADD SWAP4 POP DUP4 PUSH1 0x20 DUP3 MUL DUP6 ADD PUSH3 0x1AF8 DUP6 PUSH3 0x2397 JUMP JUMPDEST PUSH1 0x0 JUMPDEST DUP5 DUP2 LT ISZERO PUSH3 0x1B37 JUMPI DUP4 DUP4 SUB DUP9 MSTORE PUSH3 0x1B16 DUP4 DUP4 MLOAD PUSH3 0x1C5F JUMP JUMPDEST SWAP3 POP PUSH3 0x1B23 DUP3 PUSH3 0x240D JUMP JUMPDEST SWAP2 POP PUSH1 0x20 DUP9 ADD SWAP8 POP PUSH1 0x1 DUP2 ADD SWAP1 POP PUSH3 0x1AFB JUMP JUMPDEST POP DUP2 SWAP7 POP DUP7 SWAP5 POP POP POP POP POP SWAP3 SWAP2 POP POP JUMP JUMPDEST PUSH1 0x0 PUSH3 0x1B55 DUP3 PUSH3 0x23D4 JUMP JUMPDEST DUP1 DUP5 MSTORE PUSH1 0x20 DUP5 ADD SWAP4 POP PUSH3 0x1B69 DUP4 PUSH3 0x23A4 JUMP JUMPDEST PUSH1 0x0 JUMPDEST DUP3 DUP2 LT ISZERO PUSH3 0x1BA1 JUMPI PUSH3 0x1B82 DUP7 DUP4 MLOAD PUSH3 0x1F22 JUMP JUMPDEST PUSH3 0x1B8D DUP3 PUSH3 0x241A JUMP JUMPDEST SWAP2 POP PUSH1 0x20 DUP7 ADD SWAP6 POP PUSH1 0x1 DUP2 ADD SWAP1 POP PUSH3 0x1B6C JUMP JUMPDEST POP DUP5 SWAP3 POP POP POP SWAP3 SWAP2 POP POP JUMP JUMPDEST PUSH1 0x0 PUSH3 0x1BBA DUP3 PUSH3 0x23DF JUMP JUMPDEST DUP1 DUP5 MSTORE PUSH1 0x20 DUP5 ADD SWAP4 POP PUSH3 0x1BCE DUP4 PUSH3 0x23B1 JUMP JUMPDEST PUSH1 0x0 JUMPDEST DUP3 DUP2 LT ISZERO PUSH3 0x1C06 JUMPI PUSH3 0x1BE7 DUP7 DUP4 MLOAD PUSH3 0x1F33 JUMP JUMPDEST PUSH3 0x1BF2 DUP3 PUSH3 0x2427 JUMP JUMPDEST SWAP2 POP PUSH1 0x20 DUP7 ADD SWAP6 POP PUSH1 0x1 DUP2 ADD SWAP1 POP PUSH3 0x1BD1 JUMP JUMPDEST POP DUP5 SWAP3 POP POP POP SWAP3 SWAP2 POP POP JUMP JUMPDEST PUSH3 0x1C1D DUP2 PUSH3 0x2454 JUMP JUMPDEST DUP3 MSTORE POP POP JUMP JUMPDEST PUSH1 0x0 PUSH3 0x1C30 DUP3 PUSH3 0x23F5 JUMP JUMPDEST DUP1 DUP5 MSTORE PUSH3 0x1C46 DUP2 PUSH1 0x20 DUP7 ADD PUSH1 0x20 DUP7 ADD PUSH3 0x24C9 JUMP JUMPDEST PUSH3 0x1C51 DUP2 PUSH3 0x24FF JUMP JUMPDEST PUSH1 0x20 DUP6 ADD ADD SWAP2 POP POP SWAP3 SWAP2 POP POP JUMP JUMPDEST PUSH1 0x0 PUSH3 0x1C6C DUP3 PUSH3 0x23EA JUMP JUMPDEST DUP1 DUP5 MSTORE PUSH3 0x1C82 DUP2 PUSH1 0x20 DUP7 ADD PUSH1 0x20 DUP7 ADD PUSH3 0x24C9 JUMP JUMPDEST PUSH3 0x1C8D DUP2 PUSH3 0x24FF JUMP JUMPDEST PUSH1 0x20 DUP6 ADD ADD SWAP2 POP POP SWAP3 SWAP2 POP POP JUMP JUMPDEST PUSH1 0x0 PUSH1 0x19 DUP3 MSTORE PUSH32 0x747261634E756D62657220646F6573206E6F7420657869737400000000000000 PUSH1 0x20 DUP4 ADD MSTORE PUSH1 0x40 DUP3 ADD SWAP1 POP SWAP2 SWAP1 POP JUMP JUMPDEST PUSH1 0x0 PUSH1 0x33 DUP3 MSTORE PUSH32 0x50726F6475636572526F6C653A63616C6C657220646F6573206E6F7420686176 PUSH1 0x20 DUP4 ADD MSTORE PUSH32 0x65207468652050726F647563657220726F6C6500000000000000000000000000 PUSH1 0x40 DUP4 ADD MSTORE PUSH1 0x60 DUP3 ADD SWAP1 POP SWAP2 SWAP1 POP JUMP JUMPDEST PUSH1 0x0 PUSH1 0x1A DUP3 MSTORE PUSH32 0x74726163654E756D62657220646F6573206E6F74206578697374000000000000 PUSH1 0x20 DUP4 ADD MSTORE PUSH1 0x40 DUP3 ADD SWAP1 POP SWAP2 SWAP1 POP JUMP JUMPDEST PUSH1 0x0 PUSH1 0x1D DUP3 MSTORE PUSH32 0x526F6C65733A206163636F756E7420616C726561647920657869737473000000 PUSH1 0x20 DUP4 ADD MSTORE PUSH1 0x40 DUP3 ADD SWAP1 POP SWAP2 SWAP1 POP JUMP JUMPDEST PUSH1 0x0 PUSH1 0x32 DUP3 MSTORE PUSH32 0x52657461696C6572526F6C653A63616C6C657220646F6573206E6F7420686176 PUSH1 0x20 DUP4 ADD MSTORE PUSH32 0x652074686552657461696C657220726F6C650000000000000000000000000000 PUSH1 0x40 DUP4 ADD MSTORE PUSH1 0x60 DUP3 ADD SWAP1 POP SWAP2 SWAP1 POP JUMP JUMPDEST PUSH1 0x0 PUSH1 0x21 DUP3 MSTORE PUSH32 0x526F6C65733A6163636F756E7420697320746865207A65726F20616464726573 PUSH1 0x20 DUP4 ADD MSTORE PUSH32 0x7300000000000000000000000000000000000000000000000000000000000000 PUSH1 0x40 DUP4 ADD MSTORE PUSH1 0x60 DUP3 ADD SWAP1 POP SWAP2 SWAP1 POP JUMP JUMPDEST PUSH1 0x0 PUSH1 0x36 DUP3 MSTORE PUSH32 0x70726F6475636572526F6C653A63616C6C657220646F6573206E6F7420686176 PUSH1 0x20 DUP4 ADD MSTORE PUSH32 0x6520746865204469737472696275746F7220726F6C6500000000000000000000 PUSH1 0x40 DUP4 ADD MSTORE PUSH1 0x60 DUP3 ADD SWAP1 POP SWAP2 SWAP1 POP JUMP JUMPDEST PUSH1 0x0 PUSH1 0x19 DUP3 MSTORE PUSH32 0x74726163654E756D62657220616C726561647920657869737400000000000000 PUSH1 0x20 DUP4 ADD MSTORE PUSH1 0x40 DUP3 ADD SWAP1 POP SWAP2 SWAP1 POP JUMP JUMPDEST PUSH1 0x0 PUSH1 0x20 DUP3 MSTORE PUSH32 0x526F6C65733A6163636F756E7420646F6573206E6F74206861766520726F6C65 PUSH1 0x20 DUP4 ADD MSTORE PUSH1 0x40 DUP3 ADD SWAP1 POP SWAP2 SWAP1 POP JUMP JUMPDEST PUSH3 0x1F2D DUP2 PUSH3 0x2460 JUMP JUMPDEST DUP3 MSTORE POP POP JUMP JUMPDEST PUSH3 0x1F3E DUP2 PUSH3 0x246A JUMP JUMPDEST DUP3 MSTORE POP POP JUMP JUMPDEST PUSH1 0x0 PUSH1 0x20 DUP3 ADD SWAP1 POP PUSH3 0x1F5B PUSH1 0x0 DUP4 ADD DUP5 PUSH3 0x1A5A JUMP JUMPDEST SWAP3 SWAP2 POP POP JUMP JUMPDEST PUSH1 0x0 PUSH1 0x20 DUP3 ADD SWAP1 POP DUP2 DUP2 SUB PUSH1 0x0 DUP4 ADD MSTORE PUSH3 0x1F7D DUP2 DUP5 PUSH3 0x1B48 JUMP JUMPDEST SWAP1 POP SWAP3 SWAP2 POP POP JUMP JUMPDEST PUSH1 0x0 PUSH1 0x80 DUP3 ADD SWAP1 POP DUP2 DUP2 SUB PUSH1 0x0 DUP4 ADD MSTORE PUSH3 0x1FA1 DUP2 DUP8 PUSH3 0x1B48 JUMP JUMPDEST SWAP1 POP DUP2 DUP2 SUB PUSH1 0x20 DUP4 ADD MSTORE PUSH3 0x1FB7 DUP2 DUP7 PUSH3 0x1AD0 JUMP JUMPDEST SWAP1 POP DUP2 DUP2 SUB PUSH1 0x40 DUP4 ADD MSTORE PUSH3 0x1FCD DUP2 DUP6 PUSH3 0x1A6B JUMP JUMPDEST SWAP1 POP DUP2 DUP2 SUB PUSH1 0x60 DUP4 ADD MSTORE PUSH3 0x1FE3 DUP2 DUP5 PUSH3 0x1BAD JUMP JUMPDEST SWAP1 POP SWAP6 SWAP5 POP POP POP POP POP JUMP JUMPDEST PUSH1 0x0 PUSH1 0x20 DUP3 ADD SWAP1 POP PUSH3 0x2005 PUSH1 0x0 DUP4 ADD DUP5 PUSH3 0x1C12 JUMP JUMPDEST SWAP3 SWAP2 POP POP JUMP JUMPDEST PUSH1 0x0 PUSH1 0x60 DUP3 ADD SWAP1 POP DUP2 DUP2 SUB PUSH1 0x0 DUP4 ADD MSTORE PUSH3 0x2027 DUP2 DUP7 PUSH3 0x1C23 JUMP JUMPDEST SWAP1 POP PUSH3 0x2038 PUSH1 0x20 DUP4 ADD DUP6 PUSH3 0x1A5A JUMP JUMPDEST PUSH3 0x2047 PUSH1 0x40 DUP4 ADD DUP5 PUSH3 0x1F33 JUMP JUMPDEST SWAP5 SWAP4 POP POP POP POP JUMP JUMPDEST PUSH1 0x0 PUSH1 0x80 DUP3 ADD SWAP1 POP DUP2 DUP2 SUB PUSH1 0x0 DUP4 ADD MSTORE PUSH3 0x206B DUP2 DUP8 PUSH3 0x1C23 JUMP JUMPDEST SWAP1 POP DUP2 DUP2 SUB PUSH1 0x20 DUP4 ADD MSTORE PUSH3 0x2081 DUP2 DUP7 PUSH3 0x1C23 JUMP JUMPDEST SWAP1 POP PUSH3 0x2092 PUSH1 0x40 DUP4 ADD DUP6 PUSH3 0x1F33 JUMP JUMPDEST PUSH3 0x20A1 PUSH1 0x60 DUP4 ADD DUP5 PUSH3 0x1A5A JUMP JUMPDEST SWAP6 SWAP5 POP POP POP POP POP JUMP JUMPDEST PUSH1 0x0 PUSH1 0x20 DUP3 ADD SWAP1 POP DUP2 DUP2 SUB PUSH1 0x0 DUP4 ADD MSTORE PUSH3 0x20C5 DUP2 PUSH3 0x1C9B JUMP JUMPDEST SWAP1 POP SWAP2 SWAP1 POP JUMP JUMPDEST PUSH1 0x0 PUSH1 0x20 DUP3 ADD SWAP1 POP DUP2 DUP2 SUB PUSH1 0x0 DUP4 ADD MSTORE PUSH3 0x20E7 DUP2 PUSH3 0x1CD2 JUMP JUMPDEST SWAP1 POP SWAP2 SWAP1 POP JUMP JUMPDEST PUSH1 0x0 PUSH1 0x20 DUP3 ADD SWAP1 POP DUP2 DUP2 SUB PUSH1 0x0 DUP4 ADD MSTORE PUSH3 0x2109 DUP2 PUSH3 0x1D2F JUMP JUMPDEST SWAP1 POP SWAP2 SWAP1 POP JUMP JUMPDEST PUSH1 0x0 PUSH1 0x20 DUP3 ADD SWAP1 POP DUP2 DUP2 SUB PUSH1 0x0 DUP4 ADD MSTORE PUSH3 0x212B DUP2 PUSH3 0x1D66 JUMP JUMPDEST SWAP1 POP SWAP2 SWAP1 POP JUMP JUMPDEST PUSH1 0x0 PUSH1 0x20 DUP3 ADD SWAP1 POP DUP2 DUP2 SUB PUSH1 0x0 DUP4 ADD MSTORE PUSH3 0x214D DUP2 PUSH3 0x1D9D JUMP JUMPDEST SWAP1 POP SWAP2 SWAP1 POP JUMP JUMPDEST PUSH1 0x0 PUSH1 0x20 DUP3 ADD SWAP1 POP DUP2 DUP2 SUB PUSH1 0x0 DUP4 ADD MSTORE PUSH3 0x216F DUP2 PUSH3 0x1DFA JUMP JUMPDEST SWAP1 POP SWAP2 SWAP1 POP JUMP JUMPDEST PUSH1 0x0 PUSH1 0x20 DUP3 ADD SWAP1 POP DUP2 DUP2 SUB PUSH1 0x0 DUP4 ADD MSTORE PUSH3 0x2191 DUP2 PUSH3 0x1E57 JUMP JUMPDEST SWAP1 POP SWAP2 SWAP1 POP JUMP JUMPDEST PUSH1 0x0 PUSH1 0x20 DUP3 ADD SWAP1 POP DUP2 DUP2 SUB PUSH1 0x0 DUP4 ADD MSTORE PUSH3 0x21B3 DUP2 PUSH3 0x1EB4 JUMP JUMPDEST SWAP1 POP SWAP2 SWAP1 POP JUMP JUMPDEST PUSH1 0x0 PUSH1 0x20 DUP3 ADD SWAP1 POP DUP2 DUP2 SUB PUSH1 0x0 DUP4 ADD MSTORE PUSH3 0x21D5 DUP2 PUSH3 0x1EEB JUMP JUMPDEST SWAP1 POP SWAP2 SWAP1 POP JUMP JUMPDEST PUSH1 0x0 PUSH1 0xC0 DUP3 ADD SWAP1 POP PUSH3 0x21F3 PUSH1 0x0 DUP4 ADD DUP10 PUSH3 0x1F22 JUMP JUMPDEST DUP2 DUP2 SUB PUSH1 0x20 DUP4 ADD MSTORE PUSH3 0x2207 DUP2 DUP9 PUSH3 0x1C23 JUMP JUMPDEST SWAP1 POP DUP2 DUP2 SUB PUSH1 0x40 DUP4 ADD MSTORE PUSH3 0x221D DUP2 DUP8 PUSH3 0x1C23 JUMP JUMPDEST SWAP1 POP DUP2 DUP2 SUB PUSH1 0x60 DUP4 ADD MSTORE PUSH3 0x2233 DUP2 DUP7 PUSH3 0x1C23 JUMP JUMPDEST SWAP1 POP PUSH3 0x2244 PUSH1 0x80 DUP4 ADD DUP6 PUSH3 0x1A5A JUMP JUMPDEST PUSH3 0x2253 PUSH1 0xA0 DUP4 ADD DUP5 PUSH3 0x1F33 JUMP JUMPDEST SWAP8 SWAP7 POP POP POP POP POP POP POP JUMP JUMPDEST PUSH1 0x0 PUSH1 0x40 MLOAD SWAP1 POP DUP2 DUP2 ADD DUP2 DUP2 LT PUSH8 0xFFFFFFFFFFFFFFFF DUP3 GT OR ISZERO PUSH3 0x2282 JUMPI PUSH1 0x0 DUP1 REVERT JUMPDEST DUP1 PUSH1 0x40 MSTORE POP SWAP2 SWAP1 POP JUMP JUMPDEST PUSH1 0x0 PUSH8 0xFFFFFFFFFFFFFFFF DUP3 GT ISZERO PUSH3 0x22A4 JUMPI PUSH1 0x0 DUP1 REVERT JUMPDEST PUSH1 0x20 DUP3 MUL SWAP1 POP PUSH1 0x20 DUP2 ADD SWAP1 POP SWAP2 SWAP1 POP JUMP JUMPDEST PUSH1 0x0 PUSH8 0xFFFFFFFFFFFFFFFF DUP3 GT ISZERO PUSH3 0x22CD JUMPI PUSH1 0x0 DUP1 REVERT JUMPDEST PUSH1 0x20 DUP3 MUL SWAP1 POP PUSH1 0x20 DUP2 ADD SWAP1 POP SWAP2 SWAP1 POP JUMP JUMPDEST PUSH1 0x0 PUSH8 0xFFFFFFFFFFFFFFFF DUP3 GT ISZERO PUSH3 0x22F6 JUMPI PUSH1 0x0 DUP1 REVERT JUMPDEST PUSH1 0x20 DUP3 MUL SWAP1 POP PUSH1 0x20 DUP2 ADD SWAP1 POP SWAP2 SWAP1 POP JUMP JUMPDEST PUSH1 0x0 PUSH8 0xFFFFFFFFFFFFFFFF DUP3 GT ISZERO PUSH3 0x231F JUMPI PUSH1 0x0 DUP1 REVERT JUMPDEST PUSH1 0x20 DUP3 MUL SWAP1 POP PUSH1 0x20 DUP2 ADD SWAP1 POP SWAP2 SWAP1 POP JUMP JUMPDEST PUSH1 0x0 PUSH8 0xFFFFFFFFFFFFFFFF DUP3 GT ISZERO PUSH3 0x2348 JUMPI PUSH1 0x0 DUP1 REVERT JUMPDEST PUSH1 0x1F NOT PUSH1 0x1F DUP4 ADD AND SWAP1 POP PUSH1 0x20 DUP2 ADD SWAP1 POP SWAP2 SWAP1 POP JUMP JUMPDEST PUSH1 0x0 PUSH8 0xFFFFFFFFFFFFFFFF DUP3 GT ISZERO PUSH3 0x2375 JUMPI PUSH1 0x0 DUP1 REVERT JUMPDEST PUSH1 0x1F NOT PUSH1 0x1F DUP4 ADD AND SWAP1 POP PUSH1 0x20 DUP2 ADD SWAP1 POP SWAP2 SWAP1 POP JUMP JUMPDEST PUSH1 0x0 PUSH1 0x20 DUP3 ADD SWAP1 POP SWAP2 SWAP1 POP JUMP JUMPDEST PUSH1 0x0 PUSH1 0x20 DUP3 ADD SWAP1 POP SWAP2 SWAP1 POP JUMP JUMPDEST PUSH1 0x0 PUSH1 0x20 DUP3 ADD SWAP1 POP SWAP2 SWAP1 POP JUMP JUMPDEST PUSH1 0x0 PUSH1 0x20 DUP3 ADD SWAP1 POP SWAP2 SWAP1 POP JUMP JUMPDEST PUSH1 0x0 DUP2 MLOAD SWAP1 POP SWAP2 SWAP1 POP JUMP JUMPDEST PUSH1 0x0 DUP2 MLOAD SWAP1 POP SWAP2 SWAP1 POP JUMP JUMPDEST PUSH1 0x0 DUP2 MLOAD SWAP1 POP SWAP2 SWAP1 POP JUMP JUMPDEST PUSH1 0x0 DUP2 MLOAD SWAP1 POP SWAP2 SWAP1 POP JUMP JUMPDEST PUSH1 0x0 DUP2 MLOAD SWAP1 POP SWAP2 SWAP1 POP JUMP JUMPDEST PUSH1 0x0 DUP2 MLOAD SWAP1 POP SWAP2 SWAP1 POP JUMP JUMPDEST PUSH1 0x0 PUSH1 0x20 DUP3 ADD SWAP1 POP SWAP2 SWAP1 POP JUMP JUMPDEST PUSH1 0x0 PUSH1 0x20 DUP3 ADD SWAP1 POP SWAP2 SWAP1 POP JUMP JUMPDEST PUSH1 0x0 PUSH1 0x20 DUP3 ADD SWAP1 POP SWAP2 SWAP1 POP JUMP JUMPDEST PUSH1 0x0 PUSH1 0x20 DUP3 ADD SWAP1 POP SWAP2 SWAP1 POP JUMP JUMPDEST PUSH1 0x0 PUSH20 0xFFFFFFFFFFFFFFFFFFFFFFFFFFFFFFFFFFFFFFFF DUP3 AND SWAP1 POP SWAP2 SWAP1 POP JUMP JUMPDEST PUSH1 0x0 DUP2 ISZERO ISZERO SWAP1 POP SWAP2 SWAP1 POP JUMP JUMPDEST PUSH1 0x0 DUP2 SWAP1 POP SWAP2 SWAP1 POP JUMP JUMPDEST PUSH1 0x0 PUSH1 0xFF DUP3 AND SWAP1 POP SWAP2 SWAP1 POP JUMP JUMPDEST PUSH1 0x0 PUSH20 0xFFFFFFFFFFFFFFFFFFFFFFFFFFFFFFFFFFFFFFFF DUP3 AND SWAP1 POP SWAP2 SWAP1 POP JUMP JUMPDEST PUSH1 0x0 DUP2 ISZERO ISZERO SWAP1 POP SWAP2 SWAP1 POP JUMP JUMPDEST PUSH1 0x0 DUP2 SWAP1 POP SWAP2 SWAP1 POP JUMP JUMPDEST PUSH1 0x0 PUSH1 0xFF DUP3 AND SWAP1 POP SWAP2 SWAP1 POP JUMP JUMPDEST DUP3 DUP2 DUP4 CALLDATACOPY PUSH1 0x0 DUP4 DUP4 ADD MSTORE POP POP POP JUMP JUMPDEST PUSH1 0x0 JUMPDEST DUP4 DUP2 LT ISZERO PUSH3 0x24E9 JUMPI DUP1 DUP3 ADD MLOAD DUP2 DUP5 ADD MSTORE PUSH1 0x20 DUP2 ADD SWAP1 POP PUSH3 0x24CC JUMP JUMPDEST DUP4 DUP2 GT ISZERO PUSH3 0x24F9 JUMPI PUSH1 0x0 DUP5 DUP5 ADD MSTORE JUMPDEST POP POP POP POP JUMP JUMPDEST PUSH1 0x0 PUSH1 0x1F NOT PUSH1 0x1F DUP4 ADD AND SWAP1 POP SWAP2 SWAP1 POP JUMP STOP PUSH1 0x80 PUSH1 0x40 MSTORE CALLVALUE DUP1 ISZERO PUSH3 0x11 JUMPI PUSH1 0x0 DUP1 REVERT JUMPDEST POP PUSH1 0x40 MLOAD PUSH3 0x172F CODESIZE SUB DUP1 PUSH3 0x172F DUP4 CODECOPY DUP2 ADD DUP1 PUSH1 0x40 MSTORE PUSH3 0x37 SWAP2 SWAP1 DUP2 ADD SWAP1 PUSH3 0x33F JUMP JUMPDEST PUSH1 0x0 TIMESTAMP SWAP1 DUP1 PUSH1 0x1 DUP2 SLOAD ADD DUP1 DUP3 SSTORE DUP1 SWAP2 POP POP SWAP1 PUSH1 0x1 DUP3 SUB SWAP1 PUSH1 0x0 MSTORE PUSH1 0x20 PUSH1 0x0 KECCAK256 ADD PUSH1 0x0 SWAP1 SWAP2 SWAP3 SWAP1 SWAP2 SWAP1 SWAP2 POP SSTORE POP PUSH1 0x1 DUP4 SWAP1 DUP1 PUSH1 0x1 DUP2 SLOAD ADD DUP1 DUP3 SSTORE DUP1 SWAP2 POP POP SWAP1 PUSH1 0x1 DUP3 SUB SWAP1 PUSH1 0x0 MSTORE PUSH1 0x20 PUSH1 0x0 KECCAK256 ADD PUSH1 0x0 SWAP1 SWAP2 SWAP3 SWAP1 SWAP2 SWAP1 SWAP2 POP SWAP1 DUP1 MLOAD SWAP1 PUSH1 0x20 ADD SWAP1 PUSH3 0xA2 SWAP3 SWAP2 SWAP1 PUSH3 0x206 JUMP JUMPDEST POP POP PUSH1 0x2 DUP2 SWAP1 DUP1 PUSH1 0x1 DUP2 SLOAD ADD DUP1 DUP3 SSTORE DUP1 SWAP2 POP POP SWAP1 PUSH1 0x1 DUP3 SUB SWAP1 PUSH1 0x0 MSTORE PUSH1 0x20 PUSH1 0x0 KECCAK256 ADD PUSH1 0x0 SWAP1 SWAP2 SWAP3 SWAP1 SWAP2 SWAP1 SWAP2 PUSH2 0x100 EXP DUP2 SLOAD DUP2 PUSH20 0xFFFFFFFFFFFFFFFFFFFFFFFFFFFFFFFFFFFFFFFF MUL NOT AND SWAP1 DUP4 PUSH20 0xFFFFFFFFFFFFFFFFFFFFFFFFFFFFFFFFFFFFFFFF AND MUL OR SWAP1 SSTORE POP POP PUSH1 0x3 DUP3 SWAP1 DUP1 PUSH1 0x1 DUP2 SLOAD ADD DUP1 DUP3 SSTORE DUP1 SWAP2 POP POP SWAP1 PUSH1 0x1 DUP3 SUB SWAP1 PUSH1 0x0 MSTORE PUSH1 0x20 PUSH1 0x0 KECCAK256 SWAP1 PUSH1 0x20 SWAP2 DUP3 DUP3 DIV ADD SWAP2 SWAP1 MOD SWAP1 SWAP2 SWAP3 SWAP1 SWAP2 SWAP1 SWAP2 PUSH2 0x100 EXP DUP2 SLOAD DUP2 PUSH1 0xFF MUL NOT AND SWAP1 DUP4 PUSH1 0xFF AND MUL OR SWAP1 SSTORE POP POP DUP4 PUSH1 0x4 SWAP1 DUP1 MLOAD SWAP1 PUSH1 0x20 ADD SWAP1 PUSH3 0x16A SWAP3 SWAP2 SWAP1 PUSH3 0x206 JUMP JUMPDEST POP DUP3 PUSH1 0x5 SWAP1 DUP1 MLOAD SWAP1 PUSH1 0x20 ADD SWAP1 PUSH3 0x183 SWAP3 SWAP2 SWAP1 PUSH3 0x206 JUMP JUMPDEST POP DUP2 PUSH1 0x6 PUSH1 0x0 PUSH2 0x100 EXP DUP2 SLOAD DUP2 PUSH1 0xFF MUL NOT AND SWAP1 DUP4 PUSH1 0xFF AND MUL OR SWAP1 SSTORE POP PUSH1 0x0 PUSH1 0x6 PUSH1 0x1 PUSH2 0x100 EXP DUP2 SLOAD DUP2 PUSH1 0xFF MUL NOT AND SWAP1 DUP4 PUSH1 0xFF AND MUL OR SWAP1 SSTORE POP CALLER PUSH1 0x6 PUSH1 0x2 PUSH2 0x100 EXP DUP2 SLOAD DUP2 PUSH20 0xFFFFFFFFFFFFFFFFFFFFFFFFFFFFFFFFFFFFFFFF MUL NOT AND SWAP1 DUP4 PUSH20 0xFFFFFFFFFFFFFFFFFFFFFFFFFFFFFFFFFFFFFFFF AND MUL OR SWAP1 SSTORE POP POP POP POP POP PUSH3 0x49B JUMP JUMPDEST DUP3 DUP1 SLOAD PUSH1 0x1 DUP2 PUSH1 0x1 AND ISZERO PUSH2 0x100 MUL SUB AND PUSH1 0x2 SWAP1 DIV SWAP1 PUSH1 0x0 MSTORE PUSH1 0x20 PUSH1 0x0 KECCAK256 SWAP1 PUSH1 0x1F ADD PUSH1 0x20 SWAP1 DIV DUP2 ADD SWAP3 DUP3 PUSH1 0x1F LT PUSH3 0x249 JUMPI DUP1 MLOAD PUSH1 0xFF NOT AND DUP4 DUP1 ADD OR DUP6 SSTORE PUSH3 0x27A JUMP JUMPDEST DUP3 DUP1 ADD PUSH1 0x1 ADD DUP6 SSTORE DUP3 ISZERO PUSH3 0x27A JUMPI SWAP2 DUP3 ADD JUMPDEST DUP3 DUP2 GT ISZERO PUSH3 0x279 JUMPI DUP3 MLOAD DUP3 SSTORE SWAP2 PUSH1 0x20 ADD SWAP2 SWAP1 PUSH1 0x1 ADD SWAP1 PUSH3 0x25C JUMP JUMPDEST JUMPDEST POP SWAP1 POP PUSH3 0x289 SWAP2 SWAP1 PUSH3 0x28D JUMP JUMPDEST POP SWAP1 JUMP JUMPDEST PUSH3 0x2B2 SWAP2 SWAP1 JUMPDEST DUP1 DUP3 GT ISZERO PUSH3 0x2AE JUMPI PUSH1 0x0 DUP2 PUSH1 0x0 SWAP1 SSTORE POP PUSH1 0x1 ADD PUSH3 0x294 JUMP JUMPDEST POP SWAP1 JUMP JUMPDEST SWAP1 JUMP JUMPDEST PUSH1 0x0 PUSH3 0x2C3 DUP3 MLOAD PUSH3 0x438 JUMP JUMPDEST SWAP1 POP SWAP3 SWAP2 POP POP JUMP JUMPDEST PUSH1 0x0 DUP3 PUSH1 0x1F DUP4 ADD SLT ISZERO ISZERO PUSH3 0x2DF JUMPI PUSH1 0x0 DUP1 REVERT JUMPDEST DUP2 MLOAD PUSH3 0x2F6 PUSH3 0x2F0 DUP3 PUSH3 0x40B JUMP JUMPDEST PUSH3 0x3DD JUMP JUMPDEST SWAP2 POP DUP1 DUP3 MSTORE PUSH1 0x20 DUP4 ADD PUSH1 0x20 DUP4 ADD DUP6 DUP4 DUP4 ADD GT ISZERO PUSH3 0x313 JUMPI PUSH1 0x0 DUP1 REVERT JUMPDEST PUSH3 0x320 DUP4 DUP3 DUP5 PUSH3 0x465 JUMP JUMPDEST POP POP POP SWAP3 SWAP2 POP POP JUMP JUMPDEST PUSH1 0x0 PUSH3 0x337 DUP3 MLOAD PUSH3 0x458 JUMP JUMPDEST SWAP1 POP SWAP3 SWAP2 POP POP JUMP JUMPDEST PUSH1 0x0 DUP1 PUSH1 0x0 DUP1 PUSH1 0x80 DUP6 DUP8 SUB SLT ISZERO PUSH3 0x356 JUMPI PUSH1 0x0 DUP1 REVERT JUMPDEST PUSH1 0x0 DUP6 ADD MLOAD PUSH8 0xFFFFFFFFFFFFFFFF DUP2 GT ISZERO PUSH3 0x371 JUMPI PUSH1 0x0 DUP1 REVERT JUMPDEST PUSH3 0x37F DUP8 DUP3 DUP9 ADD PUSH3 0x2CB JUMP JUMPDEST SWAP5 POP POP PUSH1 0x20 DUP6 ADD MLOAD PUSH8 0xFFFFFFFFFFFFFFFF DUP2 GT ISZERO PUSH3 0x39D JUMPI PUSH1 0x0 DUP1 REVERT JUMPDEST PUSH3 0x3AB DUP8 DUP3 DUP9 ADD PUSH3 0x2CB JUMP JUMPDEST SWAP4 POP POP PUSH1 0x40 PUSH3 0x3BE DUP8 DUP3 DUP9 ADD PUSH3 0x329 JUMP JUMPDEST SWAP3 POP POP PUSH1 0x60 PUSH3 0x3D1 DUP8 DUP3 DUP9 ADD PUSH3 0x2B5 JUMP JUMPDEST SWAP2 POP POP SWAP3 SWAP6 SWAP2 SWAP5 POP SWAP3 POP JUMP JUMPDEST PUSH1 0x0 PUSH1 0x40 MLOAD SWAP1 POP DUP2 DUP2 ADD DUP2 DUP2 LT PUSH8 0xFFFFFFFFFFFFFFFF DUP3 GT OR ISZERO PUSH3 0x401 JUMPI PUSH1 0x0 DUP1 REVERT JUMPDEST DUP1 PUSH1 0x40 MSTORE POP SWAP2 SWAP1 POP JUMP JUMPDEST PUSH1 0x0 PUSH8 0xFFFFFFFFFFFFFFFF DUP3 GT ISZERO PUSH3 0x423 JUMPI PUSH1 0x0 DUP1 REVERT JUMPDEST PUSH1 0x1F NOT PUSH1 0x1F DUP4 ADD AND SWAP1 POP PUSH1 0x20 DUP2 ADD SWAP1 POP SWAP2 SWAP1 POP JUMP JUMPDEST PUSH1 0x0 PUSH20 0xFFFFFFFFFFFFFFFFFFFFFFFFFFFFFFFFFFFFFFFF DUP3 AND SWAP1 POP SWAP2 SWAP1 POP JUMP JUMPDEST PUSH1 0x0 PUSH1 0xFF DUP3 AND SWAP1 POP SWAP2 SWAP1 POP JUMP JUMPDEST PUSH1 0x0 JUMPDEST DUP4 DUP2 LT ISZERO PUSH3 0x485 JUMPI DUP1 DUP3 ADD MLOAD DUP2 DUP5 ADD MSTORE PUSH1 0x20 DUP2 ADD SWAP1 POP PUSH3 0x468 JUMP JUMPDEST DUP4 DUP2 GT ISZERO PUSH3 0x495 JUMPI PUSH1 0x0 DUP5 DUP5 ADD MSTORE JUMPDEST POP POP POP POP JUMP JUMPDEST PUSH2 0x1284 DUP1 PUSH3 0x4AB PUSH1 0x0 CODECOPY PUSH1 0x0 RETURN STOP PUSH1 0x80 PUSH1 0x40 MSTORE PUSH1 0x4 CALLDATASIZE LT PUSH2 0x62 JUMPI PUSH1 0x0 CALLDATALOAD PUSH29 0x100000000000000000000000000000000000000000000000000000000 SWAP1 DIV PUSH4 0xFFFFFFFF AND DUP1 PUSH4 0x6E72967 EQ PUSH2 0x67 JUMPI DUP1 PUSH4 0x1A772BAF EQ PUSH2 0xA4 JUMPI DUP1 PUSH4 0xF0D984E4 EQ PUSH2 0xD4 JUMPI DUP1 PUSH4 0xF650350D EQ PUSH2 0x102 JUMPI JUMPDEST PUSH1 0x0 DUP1 REVERT JUMPDEST CALLVALUE DUP1 ISZERO PUSH2 0x73 JUMPI PUSH1 0x0 DUP1 REVERT JUMPDEST POP PUSH2 0x8E PUSH1 0x4 DUP1 CALLDATASIZE SUB PUSH2 0x89 SWAP2 SWAP1 DUP2 ADD SWAP1 PUSH2 0xBFF JUMP JUMPDEST PUSH2 0x13F JUMP JUMPDEST PUSH1 0x40 MLOAD PUSH2 0x9B SWAP2 SWAP1 PUSH2 0xF93 JUMP JUMPDEST PUSH1 0x40 MLOAD DUP1 SWAP2 SUB SWAP1 RETURN JUMPDEST CALLVALUE DUP1 ISZERO PUSH2 0xB0 JUMPI PUSH1 0x0 DUP1 REVERT JUMPDEST POP PUSH2 0xB9 PUSH2 0x3AA JUMP JUMPDEST PUSH1 0x40 MLOAD PUSH2 0xCB SWAP7 SWAP6 SWAP5 SWAP4 SWAP3 SWAP2 SWAP1 PUSH2 0x100E JUMP JUMPDEST PUSH1 0x40 MLOAD DUP1 SWAP2 SUB SWAP1 RETURN JUMPDEST CALLVALUE DUP1 ISZERO PUSH2 0xE0 JUMPI PUSH1 0x0 DUP1 REVERT JUMPDEST POP PUSH2 0xE9 PUSH2 0x61F JUMP JUMPDEST PUSH1 0x40 MLOAD PUSH2 0xF9 SWAP5 SWAP4 SWAP3 SWAP2 SWAP1 PUSH2 0xF32 JUMP JUMPDEST PUSH1 0x40 MLOAD DUP1 SWAP2 SUB SWAP1 RETURN JUMPDEST CALLVALUE DUP1 ISZERO PUSH2 0x10E JUMPI PUSH1 0x0 DUP1 REVERT JUMPDEST POP PUSH2 0x129 PUSH1 0x4 DUP1 CALLDATASIZE SUB PUSH2 0x124 SWAP2 SWAP1 DUP2 ADD SWAP1 PUSH2 0xBFF JUMP JUMPDEST PUSH2 0x870 JUMP JUMPDEST PUSH1 0x40 MLOAD PUSH2 0x136 SWAP2 SWAP1 PUSH2 0xF93 JUMP JUMPDEST PUSH1 0x40 MLOAD DUP1 SWAP2 SUB SWAP1 RETURN JUMPDEST PUSH1 0x0 DUP1 PUSH1 0x6 PUSH1 0x1 SWAP1 SLOAD SWAP1 PUSH2 0x100 EXP SWAP1 DIV PUSH1 0xFF AND PUSH1 0xFF AND EQ ISZERO ISZERO PUSH2 0x197 JUMPI PUSH1 0x40 MLOAD PUSH32 0x8C379A000000000000000000000000000000000000000000000000000000000 DUP2 MSTORE PUSH1 0x4 ADD PUSH2 0x18E SWAP1 PUSH2 0xFCE JUMP JUMPDEST PUSH1 0x40 MLOAD DUP1 SWAP2 SUB SWAP1 REVERT JUMPDEST CALLER PUSH20 0xFFFFFFFFFFFFFFFFFFFFFFFFFFFFFFFFFFFFFFFF AND PUSH1 0x6 PUSH1 0x2 SWAP1 SLOAD SWAP1 PUSH2 0x100 EXP SWAP1 DIV PUSH20 0xFFFFFFFFFFFFFFFFFFFFFFFFFFFFFFFFFFFFFFFF AND PUSH20 0xFFFFFFFFFFFFFFFFFFFFFFFFFFFFFFFFFFFFFFFF AND EQ ISZERO ISZERO PUSH2 0x229 JUMPI PUSH1 0x40 MLOAD PUSH32 0x8C379A000000000000000000000000000000000000000000000000000000000 DUP2 MSTORE PUSH1 0x4 ADD PUSH2 0x220 SWAP1 PUSH2 0xFAE JUMP JUMPDEST PUSH1 0x40 MLOAD DUP1 SWAP2 SUB SWAP1 REVERT JUMPDEST PUSH1 0x0 TIMESTAMP SWAP1 DUP1 PUSH1 0x1 DUP2 SLOAD ADD DUP1 DUP3 SSTORE DUP1 SWAP2 POP POP SWAP1 PUSH1 0x1 DUP3 SUB SWAP1 PUSH1 0x0 MSTORE PUSH1 0x20 PUSH1 0x0 KECCAK256 ADD PUSH1 0x0 SWAP1 SWAP2 SWAP3 SWAP1 SWAP2 SWAP1 SWAP2 POP SSTORE POP PUSH1 0x1 DUP5 SWAP1 DUP1 PUSH1 0x1 DUP2 SLOAD ADD DUP1 DUP3 SSTORE DUP1 SWAP2 POP POP SWAP1 PUSH1 0x1 DUP3 SUB SWAP1 PUSH1 0x0 MSTORE PUSH1 0x20 PUSH1 0x0 KECCAK256 ADD PUSH1 0x0 SWAP1 SWAP2 SWAP3 SWAP1 SWAP2 SWAP1 SWAP2 POP SWAP1 DUP1 MLOAD SWAP1 PUSH1 0x20 ADD SWAP1 PUSH2 0x292 SWAP3 SWAP2 SWAP1 PUSH2 0xADC JUMP JUMPDEST POP POP DUP4 PUSH1 0x5 SWAP1 DUP1 MLOAD SWAP1 PUSH1 0x20 ADD SWAP1 PUSH2 0x2AA SWAP3 SWAP2 SWAP1 PUSH2 0xADC JUMP JUMPDEST POP PUSH1 0x2 DUP4 SWAP1 DUP1 PUSH1 0x1 DUP2 SLOAD ADD DUP1 DUP3 SSTORE DUP1 SWAP2 POP POP SWAP1 PUSH1 0x1 DUP3 SUB SWAP1 PUSH1 0x0 MSTORE PUSH1 0x20 PUSH1 0x0 KECCAK256 ADD PUSH1 0x0 SWAP1 SWAP2 SWAP3 SWAP1 SWAP2 SWAP1 SWAP2 PUSH2 0x100 EXP DUP2 SLOAD DUP2 PUSH20 0xFFFFFFFFFFFFFFFFFFFFFFFFFFFFFFFFFFFFFFFF MUL NOT AND SWAP1 DUP4 PUSH20 0xFFFFFFFFFFFFFFFFFFFFFFFFFFFFFFFFFFFFFFFF AND MUL OR SWAP1 SSTORE POP POP DUP2 PUSH1 0x6 PUSH1 0x0 PUSH2 0x100 EXP DUP2 SLOAD DUP2 PUSH1 0xFF MUL NOT AND SWAP1 DUP4 PUSH1 0xFF AND MUL OR SWAP1 SSTORE POP PUSH1 0x3 PUSH1 0x6 PUSH1 0x0 SWAP1 SLOAD SWAP1 PUSH2 0x100 EXP SWAP1 DIV PUSH1 0xFF AND SWAP1 DUP1 PUSH1 0x1 DUP2 SLOAD ADD DUP1 DUP3 SSTORE DUP1 SWAP2 POP POP SWAP1 PUSH1 0x1 DUP3 SUB SWAP1 PUSH1 0x0 MSTORE PUSH1 0x20 PUSH1 0x0 KECCAK256 SWAP1 PUSH1 0x20 SWAP2 DUP3 DUP3 DIV ADD SWAP2 SWAP1 MOD SWAP1 SWAP2 SWAP3 SWAP1 SWAP2 SWAP1 SWAP2 PUSH2 0x100 EXP DUP2 SLOAD DUP2 PUSH1 0xFF MUL NOT AND SWAP1 DUP4 PUSH1 0xFF AND MUL OR SWAP1 SSTORE POP POP PUSH1 0x1 PUSH1 0x6 PUSH1 0x1 PUSH2 0x100 EXP DUP2 SLOAD DUP2 PUSH1 0xFF MUL NOT AND SWAP1 DUP4 PUSH1 0xFF AND MUL OR SWAP1 SSTORE POP PUSH1 0x1 SWAP1 POP SWAP4 SWAP3 POP POP POP JUMP JUMPDEST PUSH1 0x0 PUSH1 0x60 DUP1 PUSH1 0x60 PUSH1 0x0 DUP1 PUSH1 0x0 DUP1 DUP2 SLOAD DUP2 LT ISZERO ISZERO PUSH2 0x3C3 JUMPI INVALID JUMPDEST SWAP1 PUSH1 0x0 MSTORE PUSH1 0x20 PUSH1 0x0 KECCAK256 ADD SLOAD PUSH1 0x1 PUSH1 0x0 DUP2 SLOAD DUP2 LT ISZERO ISZERO PUSH2 0x3DE JUMPI INVALID JUMPDEST SWAP1 PUSH1 0x0 MSTORE PUSH1 0x20 PUSH1 0x0 KECCAK256 ADD PUSH1 0x4 PUSH1 0x5 PUSH1 0x2 PUSH1 0x0 DUP2 SLOAD DUP2 LT ISZERO ISZERO PUSH2 0x3FC JUMPI INVALID JUMPDEST SWAP1 PUSH1 0x0 MSTORE PUSH1 0x20 PUSH1 0x0 KECCAK256 ADD PUSH1 0x0 SWAP1 SLOAD SWAP1 PUSH2 0x100 EXP SWAP1 DIV PUSH20 0xFFFFFFFFFFFFFFFFFFFFFFFFFFFFFFFFFFFFFFFF AND PUSH1 0x6 PUSH1 0x0 SWAP1 SLOAD SWAP1 PUSH2 0x100 EXP SWAP1 DIV PUSH1 0xFF AND DUP5 DUP1 SLOAD PUSH1 0x1 DUP2 PUSH1 0x1 AND ISZERO PUSH2 0x100 MUL SUB AND PUSH1 0x2 SWAP1 DIV DUP1 PUSH1 0x1F ADD PUSH1 0x20 DUP1 SWAP2 DIV MUL PUSH1 0x20 ADD PUSH1 0x40 MLOAD SWAP1 DUP2 ADD PUSH1 0x40 MSTORE DUP1 SWAP3 SWAP2 SWAP1 DUP2 DUP2 MSTORE PUSH1 0x20 ADD DUP3 DUP1 SLOAD PUSH1 0x1 DUP2 PUSH1 0x1 AND ISZERO PUSH2 0x100 MUL SUB AND PUSH1 0x2 SWAP1 DIV DUP1 ISZERO PUSH2 0x4CC JUMPI DUP1 PUSH1 0x1F LT PUSH2 0x4A1 JUMPI PUSH2 0x100 DUP1 DUP4 SLOAD DIV MUL DUP4 MSTORE SWAP2 PUSH1 0x20 ADD SWAP2 PUSH2 0x4CC JUMP JUMPDEST DUP3 ADD SWAP2 SWAP1 PUSH1 0x0 MSTORE PUSH1 0x20 PUSH1 0x0 KECCAK256 SWAP1 JUMPDEST DUP2 SLOAD DUP2 MSTORE SWAP1 PUSH1 0x1 ADD SWAP1 PUSH1 0x20 ADD DUP1 DUP4 GT PUSH2 0x4AF JUMPI DUP3 SWAP1 SUB PUSH1 0x1F AND DUP3 ADD SWAP2 JUMPDEST POP POP POP POP POP SWAP5 POP DUP4 DUP1 SLOAD PUSH1 0x1 DUP2 PUSH1 0x1 AND ISZERO PUSH2 0x100 MUL SUB AND PUSH1 0x2 SWAP1 DIV DUP1 PUSH1 0x1F ADD PUSH1 0x20 DUP1 SWAP2 DIV MUL PUSH1 0x20 ADD PUSH1 0x40 MLOAD SWAP1 DUP2 ADD PUSH1 0x40 MSTORE DUP1 SWAP3 SWAP2 SWAP1 DUP2 DUP2 MSTORE PUSH1 0x20 ADD DUP3 DUP1 SLOAD PUSH1 0x1 DUP2 PUSH1 0x1 AND ISZERO PUSH2 0x100 MUL SUB AND PUSH1 0x2 SWAP1 DIV DUP1 ISZERO PUSH2 0x568 JUMPI DUP1 PUSH1 0x1F LT PUSH2 0x53D JUMPI PUSH2 0x100 DUP1 DUP4 SLOAD DIV MUL DUP4 MSTORE SWAP2 PUSH1 0x20 ADD SWAP2 PUSH2 0x568 JUMP JUMPDEST DUP3 ADD SWAP2 SWAP1 PUSH1 0x0 MSTORE PUSH1 0x20 PUSH1 0x0 KECCAK256 SWAP1 JUMPDEST DUP2 SLOAD DUP2 MSTORE SWAP1 PUSH1 0x1 ADD SWAP1 PUSH1 0x20 ADD DUP1 DUP4 GT PUSH2 0x54B JUMPI DUP3 SWAP1 SUB PUSH1 0x1F AND DUP3 ADD SWAP2 JUMPDEST POP POP POP POP POP SWAP4 POP DUP3 DUP1 SLOAD PUSH1 0x1 DUP2 PUSH1 0x1 AND ISZERO PUSH2 0x100 MUL SUB AND PUSH1 0x2 SWAP1 DIV DUP1 PUSH1 0x1F ADD PUSH1 0x20 DUP1 SWAP2 DIV MUL PUSH1 0x20 ADD PUSH1 0x40 MLOAD SWAP1 DUP2 ADD PUSH1 0x40 MSTORE DUP1 SWAP3 SWAP2 SWAP1 DUP2 DUP2 MSTORE PUSH1 0x20 ADD DUP3 DUP1 SLOAD PUSH1 0x1 DUP2 PUSH1 0x1 AND ISZERO PUSH2 0x100 MUL SUB AND PUSH1 0x2 SWAP1 DIV DUP1 ISZERO PUSH2 0x604 JUMPI DUP1 PUSH1 0x1F LT PUSH2 0x5D9 JUMPI PUSH2 0x100 DUP1 DUP4 SLOAD DIV MUL DUP4 MSTORE SWAP2 PUSH1 0x20 ADD SWAP2 PUSH2 0x604 JUMP JUMPDEST DUP3 ADD SWAP2 SWAP1 PUSH1 0x0 MSTORE PUSH1 0x20 PUSH1 0x0 KECCAK256 SWAP1 JUMPDEST DUP2 SLOAD DUP2 MSTORE SWAP1 PUSH1 0x1 ADD SWAP1 PUSH1 0x20 ADD DUP1 DUP4 GT PUSH2 0x5E7 JUMPI DUP3 SWAP1 SUB PUSH1 0x1F AND DUP3 ADD SWAP2 JUMPDEST POP POP POP POP POP SWAP3 POP SWAP6 POP SWAP6 POP SWAP6 POP SWAP6 POP SWAP6 POP SWAP6 POP SWAP1 SWAP2 SWAP3 SWAP4 SWAP5 SWAP6 JUMP JUMPDEST PUSH1 0x60 DUP1 PUSH1 0x60 DUP1 PUSH1 0x0 PUSH1 0x1 PUSH1 0x2 PUSH1 0x3 DUP4 DUP1 SLOAD DUP1 PUSH1 0x20 MUL PUSH1 0x20 ADD PUSH1 0x40 MLOAD SWAP1 DUP2 ADD PUSH1 0x40 MSTORE DUP1 SWAP3 SWAP2 SWAP1 DUP2 DUP2 MSTORE PUSH1 0x20 ADD DUP3 DUP1 SLOAD DUP1 ISZERO PUSH2 0x678 JUMPI PUSH1 0x20 MUL DUP3 ADD SWAP2 SWAP1 PUSH1 0x0 MSTORE PUSH1 0x20 PUSH1 0x0 KECCAK256 SWAP1 JUMPDEST DUP2 SLOAD DUP2 MSTORE PUSH1 0x20 ADD SWAP1 PUSH1 0x1 ADD SWAP1 DUP1 DUP4 GT PUSH2 0x664 JUMPI JUMPDEST POP POP POP POP POP SWAP4 POP DUP3 DUP1 SLOAD DUP1 PUSH1 0x20 MUL PUSH1 0x20 ADD PUSH1 0x40 MLOAD SWAP1 DUP2 ADD PUSH1 0x40 MSTORE DUP1 SWAP3 SWAP2 SWAP1 DUP2 DUP2 MSTORE PUSH1 0x20 ADD PUSH1 0x0 SWAP1 JUMPDEST DUP3 DUP3 LT ISZERO PUSH2 0x75C JUMPI DUP4 DUP3 SWAP1 PUSH1 0x0 MSTORE PUSH1 0x20 PUSH1 0x0 KECCAK256 ADD DUP1 SLOAD PUSH1 0x1 DUP2 PUSH1 0x1 AND ISZERO PUSH2 0x100 MUL SUB AND PUSH1 0x2 SWAP1 DIV DUP1 PUSH1 0x1F ADD PUSH1 0x20 DUP1 SWAP2 DIV MUL PUSH1 0x20 ADD PUSH1 0x40 MLOAD SWAP1 DUP2 ADD PUSH1 0x40 MSTORE DUP1 SWAP3 SWAP2 SWAP1 DUP2 DUP2 MSTORE PUSH1 0x20 ADD DUP3 DUP1 SLOAD PUSH1 0x1 DUP2 PUSH1 0x1 AND ISZERO PUSH2 0x100 MUL SUB AND PUSH1 0x2 SWAP1 DIV DUP1 ISZERO PUSH2 0x748 JUMPI DUP1 PUSH1 0x1F LT PUSH2 0x71D JUMPI PUSH2 0x100 DUP1 DUP4 SLOAD DIV MUL DUP4 MSTORE SWAP2 PUSH1 0x20 ADD SWAP2 PUSH2 0x748 JUMP JUMPDEST DUP3 ADD SWAP2 SWAP1 PUSH1 0x0 MSTORE PUSH1 0x20 PUSH1 0x0 KECCAK256 SWAP1 JUMPDEST DUP2 SLOAD DUP2 MSTORE SWAP1 PUSH1 0x1 ADD SWAP1 PUSH1 0x20 ADD DUP1 DUP4 GT PUSH2 0x72B JUMPI DUP3 SWAP1 SUB PUSH1 0x1F AND DUP3 ADD SWAP2 JUMPDEST POP POP POP POP POP DUP2 MSTORE PUSH1 0x20 ADD SWAP1 PUSH1 0x1 ADD SWAP1 PUSH2 0x6A0 JUMP JUMPDEST POP POP POP POP SWAP3 POP DUP2 DUP1 SLOAD DUP1 PUSH1 0x20 MUL PUSH1 0x20 ADD PUSH1 0x40 MLOAD SWAP1 DUP2 ADD PUSH1 0x40 MSTORE DUP1 SWAP3 SWAP2 SWAP1 DUP2 DUP2 MSTORE PUSH1 0x20 ADD DUP3 DUP1 SLOAD DUP1 ISZERO PUSH2 0x7E3 JUMPI PUSH1 0x20 MUL DUP3 ADD SWAP2 SWAP1 PUSH1 0x0 MSTORE PUSH1 0x20 PUSH1 0x0 KECCAK256 SWAP1 JUMPDEST DUP2 PUSH1 0x0 SWAP1 SLOAD SWAP1 PUSH2 0x100 EXP SWAP1 DIV PUSH20 0xFFFFFFFFFFFFFFFFFFFFFFFFFFFFFFFFFFFFFFFF AND PUSH20 0xFFFFFFFFFFFFFFFFFFFFFFFFFFFFFFFFFFFFFFFF AND DUP2 MSTORE PUSH1 0x20 ADD SWAP1 PUSH1 0x1 ADD SWAP1 DUP1 DUP4 GT PUSH2 0x799 JUMPI JUMPDEST POP POP POP POP POP SWAP2 POP DUP1 DUP1 SLOAD DUP1 PUSH1 0x20 MUL PUSH1 0x20 ADD PUSH1 0x40 MLOAD SWAP1 DUP2 ADD PUSH1 0x40 MSTORE DUP1 SWAP3 SWAP2 SWAP1 DUP2 DUP2 MSTORE PUSH1 0x20 ADD DUP3 DUP1 SLOAD DUP1 ISZERO PUSH2 0x85B JUMPI PUSH1 0x20 MUL DUP3 ADD SWAP2 SWAP1 PUSH1 0x0 MSTORE PUSH1 0x20 PUSH1 0x0 KECCAK256 SWAP1 PUSH1 0x0 SWAP1 JUMPDEST DUP3 DUP3 SWAP1 SLOAD SWAP1 PUSH2 0x100 EXP SWAP1 DIV PUSH1 0xFF AND PUSH1 0xFF AND DUP2 MSTORE PUSH1 0x20 ADD SWAP1 PUSH1 0x1 ADD SWAP1 PUSH1 0x20 DUP3 PUSH1 0x0 ADD DIV SWAP3 DUP4 ADD SWAP3 PUSH1 0x1 SUB DUP3 MUL SWAP2 POP DUP1 DUP5 GT PUSH2 0x824 JUMPI SWAP1 POP JUMPDEST POP POP POP POP POP SWAP1 POP SWAP4 POP SWAP4 POP SWAP4 POP SWAP4 POP SWAP1 SWAP2 SWAP3 SWAP4 JUMP JUMPDEST PUSH1 0x0 PUSH1 0x1 PUSH1 0x6 PUSH1 0x1 SWAP1 SLOAD SWAP1 PUSH2 0x100 EXP SWAP1 DIV PUSH1 0xFF AND PUSH1 0xFF AND EQ ISZERO ISZERO PUSH2 0x8C9 JUMPI PUSH1 0x40 MLOAD PUSH32 0x8C379A000000000000000000000000000000000000000000000000000000000 DUP2 MSTORE PUSH1 0x4 ADD PUSH2 0x8C0 SWAP1 PUSH2 0xFEE JUMP JUMPDEST PUSH1 0x40 MLOAD DUP1 SWAP2 SUB SWAP1 REVERT JUMPDEST CALLER PUSH20 0xFFFFFFFFFFFFFFFFFFFFFFFFFFFFFFFFFFFFFFFF AND PUSH1 0x6 PUSH1 0x2 SWAP1 SLOAD SWAP1 PUSH2 0x100 EXP SWAP1 DIV PUSH20 0xFFFFFFFFFFFFFFFFFFFFFFFFFFFFFFFFFFFFFFFF AND PUSH20 0xFFFFFFFFFFFFFFFFFFFFFFFFFFFFFFFFFFFFFFFF AND EQ ISZERO ISZERO PUSH2 0x95B JUMPI PUSH1 0x40 MLOAD PUSH32 0x8C379A000000000000000000000000000000000000000000000000000000000 DUP2 MSTORE PUSH1 0x4 ADD PUSH2 0x952 SWAP1 PUSH2 0xFAE JUMP JUMPDEST PUSH1 0x40 MLOAD DUP1 SWAP2 SUB SWAP1 REVERT JUMPDEST PUSH1 0x0 TIMESTAMP SWAP1 DUP1 PUSH1 0x1 DUP2 SLOAD ADD DUP1 DUP3 SSTORE DUP1 SWAP2 POP POP SWAP1 PUSH1 0x1 DUP3 SUB SWAP1 PUSH1 0x0 MSTORE PUSH1 0x20 PUSH1 0x0 KECCAK256 ADD PUSH1 0x0 SWAP1 SWAP2 SWAP3 SWAP1 SWAP2 SWAP1 SWAP2 POP SSTORE POP PUSH1 0x1 DUP5 SWAP1 DUP1 PUSH1 0x1 DUP2 SLOAD ADD DUP1 DUP3 SSTORE DUP1 SWAP2 POP POP SWAP1 PUSH1 0x1 DUP3 SUB SWAP1 PUSH1 0x0 MSTORE PUSH1 0x20 PUSH1 0x0 KECCAK256 ADD PUSH1 0x0 SWAP1 SWAP2 SWAP3 SWAP1 SWAP2 SWAP1 SWAP2 POP SWAP1 DUP1 MLOAD SWAP1 PUSH1 0x20 ADD SWAP1 PUSH2 0x9C4 SWAP3 SWAP2 SWAP1 PUSH2 0xADC JUMP JUMPDEST POP POP DUP4 PUSH1 0x5 SWAP1 DUP1 MLOAD SWAP1 PUSH1 0x20 ADD SWAP1 PUSH2 0x9DC SWAP3 SWAP2 SWAP1 PUSH2 0xADC JUMP JUMPDEST POP PUSH1 0x2 DUP4 SWAP1 DUP1 PUSH1 0x1 DUP2 SLOAD ADD DUP1 DUP3 SSTORE DUP1 SWAP2 POP POP SWAP1 PUSH1 0x1 DUP3 SUB SWAP1 PUSH1 0x0 MSTORE PUSH1 0x20 PUSH1 0x0 KECCAK256 ADD PUSH1 0x0 SWAP1 SWAP2 SWAP3 SWAP1 SWAP2 SWAP1 SWAP2 PUSH2 0x100 EXP DUP2 SLOAD DUP2 PUSH20 0xFFFFFFFFFFFFFFFFFFFFFFFFFFFFFFFFFFFFFFFF MUL NOT AND SWAP1 DUP4 PUSH20 0xFFFFFFFFFFFFFFFFFFFFFFFFFFFFFFFFFFFFFFFF AND MUL OR SWAP1 SSTORE POP POP DUP2 PUSH1 0x6 PUSH1 0x0 PUSH2 0x100 EXP DUP2 SLOAD DUP2 PUSH1 0xFF MUL NOT AND SWAP1 DUP4 PUSH1 0xFF AND MUL OR SWAP1 SSTORE POP PUSH1 0x3 PUSH1 0x6 PUSH1 0x0 SWAP1 SLOAD SWAP1 PUSH2 0x100 EXP SWAP1 DIV PUSH1 0xFF AND SWAP1 DUP1 PUSH1 0x1 DUP2 SLOAD ADD DUP1 DUP3 SSTORE DUP1 SWAP2 POP POP SWAP1 PUSH1 0x1 DUP3 SUB SWAP1 PUSH1 0x0 MSTORE PUSH1 0x20 PUSH1 0x0 KECCAK256 SWAP1 PUSH1 0x20 SWAP2 DUP3 DUP3 DIV ADD SWAP2 SWAP1 MOD SWAP1 SWAP2 SWAP3 SWAP1 SWAP2 SWAP1 SWAP2 PUSH2 0x100 EXP DUP2 SLOAD DUP2 PUSH1 0xFF MUL NOT AND SWAP1 DUP4 PUSH1 0xFF AND MUL OR SWAP1 SSTORE POP POP PUSH1 0x2 PUSH1 0x6 PUSH1 0x1 PUSH2 0x100 EXP DUP2 SLOAD DUP2 PUSH1 0xFF MUL NOT AND SWAP1 DUP4 PUSH1 0xFF AND MUL OR SWAP1 SSTORE POP PUSH1 0x1 SWAP1 POP SWAP4 SWAP3 POP POP POP JUMP JUMPDEST DUP3 DUP1 SLOAD PUSH1 0x1 DUP2 PUSH1 0x1 AND ISZERO PUSH2 0x100 MUL SUB AND PUSH1 0x2 SWAP1 DIV SWAP1 PUSH1 0x0 MSTORE PUSH1 0x20 PUSH1 0x0 KECCAK256 SWAP1 PUSH1 0x1F ADD PUSH1 0x20 SWAP1 DIV DUP2 ADD SWAP3 DUP3 PUSH1 0x1F LT PUSH2 0xB1D JUMPI DUP1 MLOAD PUSH1 0xFF NOT AND DUP4 DUP1 ADD OR DUP6 SSTORE PUSH2 0xB4B JUMP JUMPDEST DUP3 DUP1 ADD PUSH1 0x1 ADD DUP6 SSTORE DUP3 ISZERO PUSH2 0xB4B JUMPI SWAP2 DUP3 ADD JUMPDEST DUP3 DUP2 GT ISZERO PUSH2 0xB4A JUMPI DUP3 MLOAD DUP3 SSTORE SWAP2 PUSH1 0x20 ADD SWAP2 SWAP1 PUSH1 0x1 ADD SWAP1 PUSH2 0xB2F JUMP JUMPDEST JUMPDEST POP SWAP1 POP PUSH2 0xB58 SWAP2 SWAP1 PUSH2 0xB5C JUMP JUMPDEST POP SWAP1 JUMP JUMPDEST PUSH2 0xB7E SWAP2 SWAP1 JUMPDEST DUP1 DUP3 GT ISZERO PUSH2 0xB7A JUMPI PUSH1 0x0 DUP2 PUSH1 0x0 SWAP1 SSTORE POP PUSH1 0x1 ADD PUSH2 0xB62 JUMP JUMPDEST POP SWAP1 JUMP JUMPDEST SWAP1 JUMP JUMPDEST PUSH1 0x0 PUSH2 0xB8D DUP3 CALLDATALOAD PUSH2 0x11CA JUMP JUMPDEST SWAP1 POP SWAP3 SWAP2 POP POP JUMP JUMPDEST PUSH1 0x0 DUP3 PUSH1 0x1F DUP4 ADD SLT ISZERO ISZERO PUSH2 0xBA8 JUMPI PUSH1 0x0 DUP1 REVERT JUMPDEST DUP2 CALLDATALOAD PUSH2 0xBBB PUSH2 0xBB6 DUP3 PUSH2 0x10B1 JUMP JUMPDEST PUSH2 0x1084 JUMP JUMPDEST SWAP2 POP DUP1 DUP3 MSTORE PUSH1 0x20 DUP4 ADD PUSH1 0x20 DUP4 ADD DUP6 DUP4 DUP4 ADD GT ISZERO PUSH2 0xBD7 JUMPI PUSH1 0x0 DUP1 REVERT JUMPDEST PUSH2 0xBE2 DUP4 DUP3 DUP5 PUSH2 0x11F7 JUMP JUMPDEST POP POP POP SWAP3 SWAP2 POP POP JUMP JUMPDEST PUSH1 0x0 PUSH2 0xBF7 DUP3 CALLDATALOAD PUSH2 0x11EA JUMP JUMPDEST SWAP1 POP SWAP3 SWAP2 POP POP JUMP JUMPDEST PUSH1 0x0 DUP1 PUSH1 0x0 PUSH1 0x60 DUP5 DUP7 SUB SLT ISZERO PUSH2 0xC14 JUMPI PUSH1 0x0 DUP1 REVERT JUMPDEST PUSH1 0x0 DUP5 ADD CALLDATALOAD PUSH8 0xFFFFFFFFFFFFFFFF DUP2 GT ISZERO PUSH2 0xC2E JUMPI PUSH1 0x0 DUP1 REVERT JUMPDEST PUSH2 0xC3A DUP7 DUP3 DUP8 ADD PUSH2 0xB95 JUMP JUMPDEST SWAP4 POP POP PUSH1 0x20 PUSH2 0xC4B DUP7 DUP3 DUP8 ADD PUSH2 0xB81 JUMP JUMPDEST SWAP3 POP POP PUSH1 0x40 PUSH2 0xC5C DUP7 DUP3 DUP8 ADD PUSH2 0xBEB JUMP JUMPDEST SWAP2 POP POP SWAP3 POP SWAP3 POP SWAP3 JUMP JUMPDEST PUSH2 0xC6F DUP2 PUSH2 0x1187 JUMP JUMPDEST DUP3 MSTORE POP POP JUMP JUMPDEST PUSH1 0x0 PUSH2 0xC80 DUP3 PUSH2 0x1111 JUMP JUMPDEST DUP1 DUP5 MSTORE PUSH1 0x20 DUP5 ADD SWAP4 POP PUSH2 0xC92 DUP4 PUSH2 0x10DD JUMP JUMPDEST PUSH1 0x0 JUMPDEST DUP3 DUP2 LT ISZERO PUSH2 0xCC4 JUMPI PUSH2 0xCA8 DUP7 DUP4 MLOAD PUSH2 0xC66 JUMP JUMPDEST PUSH2 0xCB1 DUP3 PUSH2 0x1153 JUMP JUMPDEST SWAP2 POP PUSH1 0x20 DUP7 ADD SWAP6 POP PUSH1 0x1 DUP2 ADD SWAP1 POP PUSH2 0xC95 JUMP JUMPDEST POP DUP5 SWAP3 POP POP POP SWAP3 SWAP2 POP POP JUMP JUMPDEST PUSH1 0x0 PUSH2 0xCDB DUP3 PUSH2 0x111C JUMP JUMPDEST DUP1 DUP5 MSTORE PUSH1 0x20 DUP5 ADD SWAP4 POP DUP4 PUSH1 0x20 DUP3 MUL DUP6 ADD PUSH2 0xCF4 DUP6 PUSH2 0x10EA JUMP JUMPDEST PUSH1 0x0 JUMPDEST DUP5 DUP2 LT ISZERO PUSH2 0xD2D JUMPI DUP4 DUP4 SUB DUP9 MSTORE PUSH2 0xD0F DUP4 DUP4 MLOAD PUSH2 0xE39 JUMP JUMPDEST SWAP3 POP PUSH2 0xD1A DUP3 PUSH2 0x1160 JUMP JUMPDEST SWAP2 POP PUSH1 0x20 DUP9 ADD SWAP8 POP PUSH1 0x1 DUP2 ADD SWAP1 POP PUSH2 0xCF7 JUMP JUMPDEST POP DUP2 SWAP7 POP DUP7 SWAP5 POP POP POP POP POP SWAP3 SWAP2 POP POP JUMP JUMPDEST PUSH1 0x0 PUSH2 0xD49 DUP3 PUSH2 0x1127 JUMP JUMPDEST DUP1 DUP5 MSTORE PUSH1 0x20 DUP5 ADD SWAP4 POP PUSH2 0xD5B DUP4 PUSH2 0x10F7 JUMP JUMPDEST PUSH1 0x0 JUMPDEST DUP3 DUP2 LT ISZERO PUSH2 0xD8D JUMPI PUSH2 0xD71 DUP7 DUP4 MLOAD PUSH2 0xF14 JUMP JUMPDEST PUSH2 0xD7A DUP3 PUSH2 0x116D JUMP JUMPDEST SWAP2 POP PUSH1 0x20 DUP7 ADD SWAP6 POP PUSH1 0x1 DUP2 ADD SWAP1 POP PUSH2 0xD5E JUMP JUMPDEST POP DUP5 SWAP3 POP POP POP SWAP3 SWAP2 POP POP JUMP JUMPDEST PUSH1 0x0 PUSH2 0xDA4 DUP3 PUSH2 0x1132 JUMP JUMPDEST DUP1 DUP5 MSTORE PUSH1 0x20 DUP5 ADD SWAP4 POP PUSH2 0xDB6 DUP4 PUSH2 0x1104 JUMP JUMPDEST PUSH1 0x0 JUMPDEST DUP3 DUP2 LT ISZERO PUSH2 0xDE8 JUMPI PUSH2 0xDCC DUP7 DUP4 MLOAD PUSH2 0xF23 JUMP JUMPDEST PUSH2 0xDD5 DUP3 PUSH2 0x117A JUMP JUMPDEST SWAP2 POP PUSH1 0x20 DUP7 ADD SWAP6 POP PUSH1 0x1 DUP2 ADD SWAP1 POP PUSH2 0xDB9 JUMP JUMPDEST POP DUP5 SWAP3 POP POP POP SWAP3 SWAP2 POP POP JUMP JUMPDEST PUSH2 0xDFD DUP2 PUSH2 0x11A7 JUMP JUMPDEST DUP3 MSTORE POP POP JUMP JUMPDEST PUSH1 0x0 PUSH2 0xE0E DUP3 PUSH2 0x1148 JUMP JUMPDEST DUP1 DUP5 MSTORE PUSH2 0xE22 DUP2 PUSH1 0x20 DUP7 ADD PUSH1 0x20 DUP7 ADD PUSH2 0x1206 JUMP JUMPDEST PUSH2 0xE2B DUP2 PUSH2 0x1239 JUMP JUMPDEST PUSH1 0x20 DUP6 ADD ADD SWAP2 POP POP SWAP3 SWAP2 POP POP JUMP JUMPDEST PUSH1 0x0 PUSH2 0xE44 DUP3 PUSH2 0x113D JUMP JUMPDEST DUP1 DUP5 MSTORE PUSH2 0xE58 DUP2 PUSH1 0x20 DUP7 ADD PUSH1 0x20 DUP7 ADD PUSH2 0x1206 JUMP JUMPDEST PUSH2 0xE61 DUP2 PUSH2 0x1239 JUMP JUMPDEST PUSH1 0x20 DUP6 ADD ADD SWAP2 POP POP SWAP3 SWAP2 POP POP JUMP JUMPDEST PUSH1 0x0 PUSH1 0x1E DUP3 MSTORE PUSH32 0x6F6E6C7920747261636520636F6E74726163742063616E20696E766F6B650000 PUSH1 0x20 DUP4 ADD MSTORE PUSH1 0x40 DUP3 ADD SWAP1 POP SWAP2 SWAP1 POP JUMP JUMPDEST PUSH1 0x0 PUSH1 0x18 DUP3 MSTORE PUSH32 0x737461747573206D7573742062652070726F647563696E670000000000000000 PUSH1 0x20 DUP4 ADD MSTORE PUSH1 0x40 DUP3 ADD SWAP1 POP SWAP2 SWAP1 POP JUMP JUMPDEST PUSH1 0x0 PUSH1 0x1B DUP3 MSTORE PUSH32 0x737461747573206D75737420626520646973747269627574696E670000000000 PUSH1 0x20 DUP4 ADD MSTORE PUSH1 0x40 DUP3 ADD SWAP1 POP SWAP2 SWAP1 POP JUMP JUMPDEST PUSH2 0xF1D DUP2 PUSH2 0x11B3 JUMP JUMPDEST DUP3 MSTORE POP POP JUMP JUMPDEST PUSH2 0xF2C DUP2 PUSH2 0x11BD JUMP JUMPDEST DUP3 MSTORE POP POP JUMP JUMPDEST PUSH1 0x0 PUSH1 0x80 DUP3 ADD SWAP1 POP DUP2 DUP2 SUB PUSH1 0x0 DUP4 ADD MSTORE PUSH2 0xF4C DUP2 DUP8 PUSH2 0xD3E JUMP JUMPDEST SWAP1 POP DUP2 DUP2 SUB PUSH1 0x20 DUP4 ADD MSTORE PUSH2 0xF60 DUP2 DUP7 PUSH2 0xCD0 JUMP JUMPDEST SWAP1 POP DUP2 DUP2 SUB PUSH1 0x40 DUP4 ADD MSTORE PUSH2 0xF74 DUP2 DUP6 PUSH2 0xC75 JUMP JUMPDEST SWAP1 POP DUP2 DUP2 SUB PUSH1 0x60 DUP4 ADD MSTORE PUSH2 0xF88 DUP2 DUP5 PUSH2 0xD99 JUMP JUMPDEST SWAP1 POP SWAP6 SWAP5 POP POP POP POP POP JUMP JUMPDEST PUSH1 0x0 PUSH1 0x20 DUP3 ADD SWAP1 POP PUSH2 0xFA8 PUSH1 0x0 DUP4 ADD DUP5 PUSH2 0xDF4 JUMP JUMPDEST SWAP3 SWAP2 POP POP JUMP JUMPDEST PUSH1 0x0 PUSH1 0x20 DUP3 ADD SWAP1 POP DUP2 DUP2 SUB PUSH1 0x0 DUP4 ADD MSTORE PUSH2 0xFC7 DUP2 PUSH2 0xE6F JUMP JUMPDEST SWAP1 POP SWAP2 SWAP1 POP JUMP JUMPDEST PUSH1 0x0 PUSH1 0x20 DUP3 ADD SWAP1 POP DUP2 DUP2 SUB PUSH1 0x0 DUP4 ADD MSTORE PUSH2 0xFE7 DUP2 PUSH2 0xEA6 JUMP JUMPDEST SWAP1 POP SWAP2 SWAP1 POP JUMP JUMPDEST PUSH1 0x0 PUSH1 0x20 DUP3 ADD SWAP1 POP DUP2 DUP2 SUB PUSH1 0x0 DUP4 ADD MSTORE PUSH2 0x1007 DUP2 PUSH2 0xEDD JUMP JUMPDEST SWAP1 POP SWAP2 SWAP1 POP JUMP JUMPDEST PUSH1 0x0 PUSH1 0xC0 DUP3 ADD SWAP1 POP PUSH2 0x1023 PUSH1 0x0 DUP4 ADD DUP10 PUSH2 0xF14 JUMP JUMPDEST DUP2 DUP2 SUB PUSH1 0x20 DUP4 ADD MSTORE PUSH2 0x1035 DUP2 DUP9 PUSH2 0xE03 JUMP JUMPDEST SWAP1 POP DUP2 DUP2 SUB PUSH1 0x40 DUP4 ADD MSTORE PUSH2 0x1049 DUP2 DUP8 PUSH2 0xE03 JUMP JUMPDEST SWAP1 POP DUP2 DUP2 SUB PUSH1 0x60 DUP4 ADD MSTORE PUSH2 0x105D DUP2 DUP7 PUSH2 0xE03 JUMP JUMPDEST SWAP1 POP PUSH2 0x106C PUSH1 0x80 DUP4 ADD DUP6 PUSH2 0xC66 JUMP JUMPDEST PUSH2 0x1079 PUSH1 0xA0 DUP4 ADD DUP5 PUSH2 0xF23 JUMP JUMPDEST SWAP8 SWAP7 POP POP POP POP POP POP POP JUMP JUMPDEST PUSH1 0x0 PUSH1 0x40 MLOAD SWAP1 POP DUP2 DUP2 ADD DUP2 DUP2 LT PUSH8 0xFFFFFFFFFFFFFFFF DUP3 GT OR ISZERO PUSH2 0x10A7 JUMPI PUSH1 0x0 DUP1 REVERT JUMPDEST DUP1 PUSH1 0x40 MSTORE POP SWAP2 SWAP1 POP JUMP JUMPDEST PUSH1 0x0 PUSH8 0xFFFFFFFFFFFFFFFF DUP3 GT ISZERO PUSH2 0x10C8 JUMPI PUSH1 0x0 DUP1 REVERT JUMPDEST PUSH1 0x1F NOT PUSH1 0x1F DUP4 ADD AND SWAP1 POP PUSH1 0x20 DUP2 ADD SWAP1 POP SWAP2 SWAP1 POP JUMP JUMPDEST PUSH1 0x0 PUSH1 0x20 DUP3 ADD SWAP1 POP SWAP2 SWAP1 POP JUMP JUMPDEST PUSH1 0x0 PUSH1 0x20 DUP3 ADD SWAP1 POP SWAP2 SWAP1 POP JUMP JUMPDEST PUSH1 0x0 PUSH1 0x20 DUP3 ADD SWAP1 POP SWAP2 SWAP1 POP JUMP JUMPDEST PUSH1 0x0 PUSH1 0x20 DUP3 ADD SWAP1 POP SWAP2 SWAP1 POP JUMP JUMPDEST PUSH1 0x0 DUP2 MLOAD SWAP1 POP SWAP2 SWAP1 POP JUMP JUMPDEST PUSH1 0x0 DUP2 MLOAD SWAP1 POP SWAP2 SWAP1 POP JUMP JUMPDEST PUSH1 0x0 DUP2 MLOAD SWAP1 POP SWAP2 SWAP1 POP JUMP JUMPDEST PUSH1 0x0 DUP2 MLOAD SWAP1 POP SWAP2 SWAP1 POP JUMP JUMPDEST PUSH1 0x0 DUP2 MLOAD SWAP1 POP SWAP2 SWAP1 POP JUMP JUMPDEST PUSH1 0x0 DUP2 MLOAD SWAP1 POP SWAP2 SWAP1 POP JUMP JUMPDEST PUSH1 0x0 PUSH1 0x20 DUP3 ADD SWAP1 POP SWAP2 SWAP1 POP JUMP JUMPDEST PUSH1 0x0 PUSH1 0x20 DUP3 ADD SWAP1 POP SWAP2 SWAP1 POP JUMP JUMPDEST PUSH1 0x0 PUSH1 0x20 DUP3 ADD SWAP1 POP SWAP2 SWAP1 POP JUMP JUMPDEST PUSH1 0x0 PUSH1 0x20 DUP3 ADD SWAP1 POP SWAP2 SWAP1 POP JUMP JUMPDEST PUSH1 0x0 PUSH20 0xFFFFFFFFFFFFFFFFFFFFFFFFFFFFFFFFFFFFFFFF DUP3 AND SWAP1 POP SWAP2 SWAP1 POP JUMP JUMPDEST PUSH1 0x0 DUP2 ISZERO ISZERO SWAP1 POP SWAP2 SWAP1 POP JUMP JUMPDEST PUSH1 0x0 DUP2 SWAP1 POP SWAP2 SWAP1 POP JUMP JUMPDEST PUSH1 0x0 PUSH1 0xFF DUP3 AND SWAP1 POP SWAP2 SWAP1 POP JUMP JUMPDEST PUSH1 0x0 PUSH20 0xFFFFFFFFFFFFFFFFFFFFFFFFFFFFFFFFFFFFFFFF DUP3 AND SWAP1 POP SWAP2 SWAP1 POP JUMP JUMPDEST PUSH1 0x0 PUSH1 0xFF DUP3 AND SWAP1 POP SWAP2 SWAP1 POP JUMP JUMPDEST DUP3 DUP2 DUP4 CALLDATACOPY PUSH1 0x0 DUP4 DUP4 ADD MSTORE POP POP POP JUMP JUMPDEST PUSH1 0x0 JUMPDEST DUP4 DUP2 LT ISZERO PUSH2 0x1224 JUMPI DUP1 DUP3 ADD MLOAD DUP2 DUP5 ADD MSTORE PUSH1 0x20 DUP2 ADD SWAP1 POP PUSH2 0x1209 JUMP JUMPDEST DUP4 DUP2 GT ISZERO PUSH2 0x1233 JUMPI PUSH1 0x0 DUP5 DUP5 ADD MSTORE JUMPDEST POP POP POP POP JUMP JUMPDEST PUSH1 0x0 PUSH1 0x1F NOT PUSH1 0x1F DUP4 ADD AND SWAP1 POP SWAP2 SWAP1 POP JUMP STOP LOG2 PUSH6 0x627A7A723058 KECCAK256 PUSH1 0xC6 0x4c MUL 0xce JUMPDEST 0x21 SWAP2 0x5d CALLCODE 0xbe 0xe9 0xc6 SWAP9 0xd 0xaf 0xb9 DUP9 DUP13 LOG4 0xe 0xa7 0xc1 PUSH13 0x643D725DAC287C336C65787065 PUSH19 0x696D656E74616CF50037A265627A7A72305820 PUSH5 0xD1EB2AFD79 BLOCKHASH 0xcf 0xe8 0xd1 LOG2 PUSH19 0xC24EBA5324CC9F76EF0ABFB6B1D02AFC03BF6B GAS PUSH13 0x6578706572696D656E74616CF5 STOP CALLDATACOPY "
				},
				"gasEstimates": {
					"creation": {
						"codeDepositCost": "3096200",
						"executionCost": "infinite",
						"totalCost": "infinite"
					},
					"external": {
						"addDistributor(address)": "infinite",
						"addProducer(address)": "infinite",
						"addReatiler(address)": "infinite",
						"addTraceInfoByDistributor(uint256,string,uint8)": "infinite",
						"addTraceInfoByRetailer(uint256,string,uint8)": "infinite",
						"getAllEproducts()": "infinite",
						"getEproduct(uint256)": "infinite",
						"getaTraceInfo(uint256)": "infinite",
						"isDistributor(address)": "infinite",
						"isProducer(address)": "infinite",
						"isRetailer(address)": "infinite",
						"newEproducts(string,uint256,string,uint8)": "infinite",
						"renounceDistributor()": "infinite",
						"renounceProducer()": "infinite",
						"renounceRetailer()": "infinite"
					}
				},
				"methodIdentifiers": {
					"addDistributor(address)": "7250e224",
					"addProducer(address)": "ddf80166",
					"addReatiler(address)": "1765372a",
					"addTraceInfoByDistributor(uint256,string,uint8)": "51d17e00",
					"addTraceInfoByRetailer(uint256,string,uint8)": "a2d12a39",
					"getAllEproducts()": "5cc91ead",
					"getEproduct(uint256)": "12cbc707",
					"getaTraceInfo(uint256)": "f76b81e6",
					"isDistributor(address)": "8f0c86fa",
					"isProducer(address)": "f5521022",
					"isRetailer(address)": "5da09b88",
					"newEproducts(string,uint256,string,uint8)": "fb751d0d",
					"renounceDistributor()": "644241db",
					"renounceProducer()": "f9b867d8",
					"renounceRetailer()": "db0e6a2f"
				}
			},
			"userdoc": {
				"methods": {}
			}
		}
	}
}