{
	"fisco/EproductsInfoItem.sol": {
		"EproductsInfoItem": {
			"abi": [
				{
					"constant": false,
					"inputs": [
						{
							"name": "traceName",
							"type": "string"
						},
						{
							"name": "distributor",
							"type": "address"
						},
						{
							"name": "quality",
							"type": "uint8"
						}
					],
					"name": "addTraceInfoByDistributor",
					"outputs": [
						{
							"name": "",
							"type": "bool"
						}
					],
					"payable": false,
					"stateMutability": "nonpayable",
					"type": "function"
				},
				{
					"constant": true,
					"inputs": [],
					"name": "getEproducts",
					"outputs": [
						{
							"name": "",
							"type": "uint256"
						},
						{
							"name": "",
							"type": "string"
						},
						{
							"name": "",
							"type": "string"
						},
						{
							"name": "",
							"type": "string"
						},
						{
							"name": "",
							"type": "address"
						},
						{
							"name": "",
							"type": "uint8"
						}
					],
					"payable": false,
					"stateMutability": "view",
					"type": "function"
				},
				{
					"constant": true,
					"inputs": [],
					"name": "getTraceInfo",
					"outputs": [
						{
							"name": "",
							"type": "uint256[]"
						},
						{
							"name": "",
							"type": "string[]"
						},
						{
							"name": "",
							"type": "address[]"
						},
						{
							"name": "",
							"type": "uint8[]"
						}
					],
					"payable": false,
					"stateMutability": "view",
					"type": "function"
				},
				{
					"constant": false,
					"inputs": [
						{
							"name": "traceName",
							"type": "string"
						},
						{
							"name": "retailer",
							"type": "address"
						},
						{
							"name": "quality",
							"type": "uint8"
						}
					],
					"name": "addTraceInfoByRetailer",
					"outputs": [
						{
							"name": "",
							"type": "bool"
						}
					],
					"payable": false,
					"stateMutability": "nonpayable",
					"type": "function"
				},
				{
					"inputs": [
						{
							"name": "name",
							"type": "string"
						},
						{
							"name": "traceName",
							"type": "string"
						},
						{
							"name": "quality",
							"type": "uint8"
						},
						{
							"name": "producer",
							"type": "address"
						}
					],
					"payable": false,
					"stateMutability": "nonpayable",
					"type": "constructor"
				}
			],
			"devdoc": {
				"methods": {}
			},
			"evm": {
				"assembly": "    /* \"fisco/EproductsInfoItem.sol\":131:2512  contract EproductsInfoItem{... */\n  mstore(0x40, 0x80)\n    /* \"fisco/EproductsInfoItem.sol\":792:1154  constructor(string name,string traceName,uint8 quality,address producer)public{... */\n  callvalue\n    /* \"--CODEGEN--\":8:17   */\n  dup1\n    /* \"--CODEGEN--\":5:7   */\n  iszero\n  tag_1\n  jumpi\n    /* \"--CODEGEN--\":30:31   */\n  0x0\n    /* \"--CODEGEN--\":27:28   */\n  dup1\n    /* \"--CODEGEN--\":20:32   */\n  revert\n    /* \"--CODEGEN--\":5:7   */\ntag_1:\n    /* \"fisco/EproductsInfoItem.sol\":792:1154  constructor(string name,string traceName,uint8 quality,address producer)public{... */\n  pop\n  mload(0x40)\n  sub(codesize, bytecodeSize)\n  dup1\n  bytecodeSize\n  dup4\n  codecopy\n  dup2\n  add\n  dup1\n  0x40\n  mstore\n  tag_2\n  swap2\n  swap1\n  dup2\n  add\n  swap1\n  jump(tag_3)\ntag_2:\n    /* \"fisco/EproductsInfoItem.sol\":880:890  _timestamp */\n  0x0\n    /* \"fisco/EproductsInfoItem.sol\":896:899  now */\n  timestamp\n    /* \"fisco/EproductsInfoItem.sol\":880:900  _timestamp.push(now) */\n  swap1\n  dup1\n    /* \"--CODEGEN--\":39:40   */\n  0x1\n    /* \"--CODEGEN--\":33:36   */\n  dup2\n    /* \"--CODEGEN--\":27:37   */\n  sload\n    /* \"--CODEGEN--\":23:41   */\n  add\n    /* \"--CODEGEN--\":57:67   */\n  dup1\n    /* \"--CODEGEN--\":52:55   */\n  dup3\n    /* \"--CODEGEN--\":45:68   */\n  sstore\n    /* \"--CODEGEN--\":79:89   */\n  dup1\n    /* \"--CODEGEN--\":72:89   */\n  swap2\n  pop\n    /* \"--CODEGEN--\":0:93   */\n  pop\n    /* \"fisco/EproductsInfoItem.sol\":880:900  _timestamp.push(now) */\n  swap1\n  0x1\n  dup3\n  sub\n  swap1\n  0x0\n  mstore\n  keccak256(0x0, 0x20)\n  add\n  0x0\n  swap1\n  swap2\n  swap3\n  swap1\n  swap2\n  swap1\n  swap2\n  pop\n  sstore\n  pop\n    /* \"fisco/EproductsInfoItem.sol\":910:920  _traceName */\n  0x1\n    /* \"fisco/EproductsInfoItem.sol\":926:935  traceName */\n  dup4\n    /* \"fisco/EproductsInfoItem.sol\":910:936  _traceName.push(traceName) */\n  swap1\n  dup1\n    /* \"--CODEGEN--\":39:40   */\n  0x1\n    /* \"--CODEGEN--\":33:36   */\n  dup2\n    /* \"--CODEGEN--\":27:37   */\n  sload\n    /* \"--CODEGEN--\":23:41   */\n  add\n    /* \"--CODEGEN--\":57:67   */\n  dup1\n    /* \"--CODEGEN--\":52:55   */\n  dup3\n    /* \"--CODEGEN--\":45:68   */\n  sstore\n    /* \"--CODEGEN--\":79:89   */\n  dup1\n    /* \"--CODEGEN--\":72:89   */\n  swap2\n  pop\n    /* \"--CODEGEN--\":0:93   */\n  pop\n    /* \"fisco/EproductsInfoItem.sol\":910:936  _traceName.push(traceName) */\n  swap1\n  0x1\n  dup3\n  sub\n  swap1\n  0x0\n  mstore\n  keccak256(0x0, 0x20)\n  add\n  0x0\n  swap1\n  swap2\n  swap3\n  swap1\n  swap2\n  swap1\n  swap2\n  pop\n  swap1\n  dup1\n  mload\n  swap1\n  0x20\n  add\n  swap1\n  tag_8\n  swap3\n  swap2\n  swap1\n  jump\t// in(tag_9)\ntag_8:\n  pop\n  pop\n    /* \"fisco/EproductsInfoItem.sol\":946:959  _traceAddress */\n  0x2\n    /* \"fisco/EproductsInfoItem.sol\":965:973  producer */\n  dup2\n    /* \"fisco/EproductsInfoItem.sol\":946:974  _traceAddress.push(producer) */\n  swap1\n  dup1\n    /* \"--CODEGEN--\":39:40   */\n  0x1\n    /* \"--CODEGEN--\":33:36   */\n  dup2\n    /* \"--CODEGEN--\":27:37   */\n  sload\n    /* \"--CODEGEN--\":23:41   */\n  add\n    /* \"--CODEGEN--\":57:67   */\n  dup1\n    /* \"--CODEGEN--\":52:55   */\n  dup3\n    /* \"--CODEGEN--\":45:68   */\n  sstore\n    /* \"--CODEGEN--\":79:89   */\n  dup1\n    /* \"--CODEGEN--\":72:89   */\n  swap2\n  pop\n    /* \"--CODEGEN--\":0:93   */\n  pop\n    /* \"fisco/EproductsInfoItem.sol\":946:974  _traceAddress.push(producer) */\n  swap1\n  0x1\n  dup3\n  sub\n  swap1\n  0x0\n  mstore\n  keccak256(0x0, 0x20)\n  add\n  0x0\n  swap1\n  swap2\n  swap3\n  swap1\n  swap2\n  swap1\n  swap2\n  0x100\n  exp\n  dup2\n  sload\n  dup2\n  0xffffffffffffffffffffffffffffffffffffffff\n  mul\n  not\n  and\n  swap1\n  dup4\n  0xffffffffffffffffffffffffffffffffffffffff\n  and\n  mul\n  or\n  swap1\n  sstore\n  pop\n  pop\n    /* \"fisco/EproductsInfoItem.sol\":984:997  _traceQuality */\n  0x3\n    /* \"fisco/EproductsInfoItem.sol\":1003:1010  quality */\n  dup3\n    /* \"fisco/EproductsInfoItem.sol\":984:1011  _traceQuality.push(quality) */\n  swap1\n  dup1\n    /* \"--CODEGEN--\":39:40   */\n  0x1\n    /* \"--CODEGEN--\":33:36   */\n  dup2\n    /* \"--CODEGEN--\":27:37   */\n  sload\n    /* \"--CODEGEN--\":23:41   */\n  add\n    /* \"--CODEGEN--\":57:67   */\n  dup1\n    /* \"--CODEGEN--\":52:55   */\n  dup3\n    /* \"--CODEGEN--\":45:68   */\n  sstore\n    /* \"--CODEGEN--\":79:89   */\n  dup1\n    /* \"--CODEGEN--\":72:89   */\n  swap2\n  pop\n    /* \"--CODEGEN--\":0:93   */\n  pop\n    /* \"fisco/EproductsInfoItem.sol\":984:1011  _traceQuality.push(quality) */\n  swap1\n  0x1\n  dup3\n  sub\n  swap1\n  0x0\n  mstore\n  keccak256(0x0, 0x20)\n  swap1\n  0x20\n  swap2\n  dup3\n  dup3\n  div\n  add\n  swap2\n  swap1\n  mod\n  swap1\n  swap2\n  swap3\n  swap1\n  swap2\n  swap1\n  swap2\n  0x100\n  exp\n  dup2\n  sload\n  dup2\n  0xff\n  mul\n  not\n  and\n  swap1\n  dup4\n  0xff\n  and\n  mul\n  or\n  swap1\n  sstore\n  pop\n  pop\n    /* \"fisco/EproductsInfoItem.sol\":1029:1033  name */\n  dup4\n    /* \"fisco/EproductsInfoItem.sol\":1021:1026  _name */\n  0x4\n    /* \"fisco/EproductsInfoItem.sol\":1021:1033  _name = name */\n  swap1\n  dup1\n  mload\n  swap1\n  0x20\n  add\n  swap1\n  tag_12\n  swap3\n  swap2\n  swap1\n  jump\t// in(tag_9)\ntag_12:\n  pop\n    /* \"fisco/EproductsInfoItem.sol\":1061:1070  traceName */\n  dup3\n    /* \"fisco/EproductsInfoItem.sol\":1043:1060  _currentTraceName */\n  0x5\n    /* \"fisco/EproductsInfoItem.sol\":1043:1070  _currentTraceName=traceName */\n  swap1\n  dup1\n  mload\n  swap1\n  0x20\n  add\n  swap1\n  tag_13\n  swap3\n  swap2\n  swap1\n  jump\t// in(tag_9)\ntag_13:\n  pop\n    /* \"fisco/EproductsInfoItem.sol\":1091:1098  quality */\n  dup2\n    /* \"fisco/EproductsInfoItem.sol\":1080:1088  _quality */\n  0x6\n  0x0\n    /* \"fisco/EproductsInfoItem.sol\":1080:1098  _quality = quality */\n  0x100\n  exp\n  dup2\n  sload\n  dup2\n  0xff\n  mul\n  not\n  and\n  swap1\n  dup4\n  0xff\n  and\n  mul\n  or\n  swap1\n  sstore\n  pop\n    /* \"fisco/EproductsInfoItem.sol\":1117:1118  0 */\n  0x0\n    /* \"fisco/EproductsInfoItem.sol\":1108:1115  _status */\n  0x6\n  0x1\n    /* \"fisco/EproductsInfoItem.sol\":1108:1118  _status= 0 */\n  0x100\n  exp\n  dup2\n  sload\n  dup2\n  0xff\n  mul\n  not\n  and\n  swap1\n  dup4\n  0xff\n  and\n  mul\n  or\n  swap1\n  sstore\n  pop\n    /* \"fisco/EproductsInfoItem.sol\":1137:1147  msg.sender */\n  caller\n    /* \"fisco/EproductsInfoItem.sol\":1128:1134  _owner */\n  0x6\n  0x2\n    /* \"fisco/EproductsInfoItem.sol\":1128:1147  _owner = msg.sender */\n  0x100\n  exp\n  dup2\n  sload\n  dup2\n  0xffffffffffffffffffffffffffffffffffffffff\n  mul\n  not\n  and\n  swap1\n  dup4\n  0xffffffffffffffffffffffffffffffffffffffff\n  and\n  mul\n  or\n  swap1\n  sstore\n  pop\n    /* \"fisco/EproductsInfoItem.sol\":792:1154  constructor(string name,string traceName,uint8 quality,address producer)public{... */\n  pop\n  pop\n  pop\n  pop\n    /* \"fisco/EproductsInfoItem.sol\":131:2512  contract EproductsInfoItem{... */\n  jump(tag_14)\ntag_9:\n  dup3\n  dup1\n  sload\n  0x1\n  dup2\n  0x1\n  and\n  iszero\n  0x100\n  mul\n  sub\n  and\n  0x2\n  swap1\n  div\n  swap1\n  0x0\n  mstore\n  keccak256(0x0, 0x20)\n  swap1\n  0x1f\n  add\n  0x20\n  swap1\n  div\n  dup2\n  add\n  swap3\n  dup3\n  0x1f\n  lt\n  tag_16\n  jumpi\n  dup1\n  mload\n  not(0xff)\n  and\n  dup4\n  dup1\n  add\n  or\n  dup6\n  sstore\n  jump(tag_15)\ntag_16:\n  dup3\n  dup1\n  add\n  0x1\n  add\n  dup6\n  sstore\n  dup3\n  iszero\n  tag_15\n  jumpi\n  swap2\n  dup3\n  add\ntag_17:\n  dup3\n  dup2\n  gt\n  iszero\n  tag_18\n  jumpi\n  dup3\n  mload\n  dup3\n  sstore\n  swap2\n  0x20\n  add\n  swap2\n  swap1\n  0x1\n  add\n  swap1\n  jump(tag_17)\ntag_18:\ntag_15:\n  pop\n  swap1\n  pop\n  tag_19\n  swap2\n  swap1\n  jump\t// in(tag_20)\ntag_19:\n  pop\n  swap1\n  jump\t// out\ntag_20:\n  tag_21\n  swap2\n  swap1\ntag_22:\n  dup1\n  dup3\n  gt\n  iszero\n  tag_23\n  jumpi\n  0x0\n  dup2\n  0x0\n  swap1\n  sstore\n  pop\n  0x1\n  add\n  jump(tag_22)\ntag_23:\n  pop\n  swap1\n  jump\ntag_21:\n  swap1\n  jump\t// out\n    /* \"--CODEGEN--\":5:127   */\ntag_25:\n  0x0\n    /* \"--CODEGEN--\":83:122   */\n  tag_26\n    /* \"--CODEGEN--\":114:120   */\n  dup3\n    /* \"--CODEGEN--\":108:121   */\n  mload\n    /* \"--CODEGEN--\":83:122   */\n  jump(tag_27)\ntag_26:\n    /* \"--CODEGEN--\":74:122   */\n  swap1\n  pop\n    /* \"--CODEGEN--\":68:127   */\n  swap3\n  swap2\n  pop\n  pop\n  jump\n    /* \"--CODEGEN--\":135:579   */\ntag_29:\n  0x0\n    /* \"--CODEGEN--\":248:251   */\n  dup3\n    /* \"--CODEGEN--\":241:245   */\n  0x1f\n    /* \"--CODEGEN--\":233:239   */\n  dup4\n    /* \"--CODEGEN--\":229:246   */\n  add\n    /* \"--CODEGEN--\":225:252   */\n  slt\n    /* \"--CODEGEN--\":218:253   */\n  iszero\n    /* \"--CODEGEN--\":215:217   */\n  iszero\n  tag_30\n  jumpi\n    /* \"--CODEGEN--\":266:267   */\n  0x0\n    /* \"--CODEGEN--\":263:264   */\n  dup1\n    /* \"--CODEGEN--\":256:268   */\n  revert\n    /* \"--CODEGEN--\":215:217   */\ntag_30:\n    /* \"--CODEGEN--\":296:302   */\n  dup2\n    /* \"--CODEGEN--\":290:303   */\n  mload\n    /* \"--CODEGEN--\":318:383   */\n  tag_31\n    /* \"--CODEGEN--\":333:382   */\n  tag_32\n    /* \"--CODEGEN--\":375:381   */\n  dup3\n    /* \"--CODEGEN--\":333:382   */\n  jump(tag_33)\ntag_32:\n    /* \"--CODEGEN--\":318:383   */\n  jump(tag_34)\ntag_31:\n    /* \"--CODEGEN--\":309:383   */\n  swap2\n  pop\n    /* \"--CODEGEN--\":403:409   */\n  dup1\n    /* \"--CODEGEN--\":396:401   */\n  dup3\n    /* \"--CODEGEN--\":389:410   */\n  mstore\n    /* \"--CODEGEN--\":439:443   */\n  0x20\n    /* \"--CODEGEN--\":431:437   */\n  dup4\n    /* \"--CODEGEN--\":427:444   */\n  add\n    /* \"--CODEGEN--\":472:476   */\n  0x20\n    /* \"--CODEGEN--\":465:470   */\n  dup4\n    /* \"--CODEGEN--\":461:477   */\n  add\n    /* \"--CODEGEN--\":507:510   */\n  dup6\n    /* \"--CODEGEN--\":498:504   */\n  dup4\n    /* \"--CODEGEN--\":493:496   */\n  dup4\n    /* \"--CODEGEN--\":489:505   */\n  add\n    /* \"--CODEGEN--\":486:511   */\n  gt\n    /* \"--CODEGEN--\":483:485   */\n  iszero\n  tag_35\n  jumpi\n    /* \"--CODEGEN--\":524:525   */\n  0x0\n    /* \"--CODEGEN--\":521:522   */\n  dup1\n    /* \"--CODEGEN--\":514:526   */\n  revert\n    /* \"--CODEGEN--\":483:485   */\ntag_35:\n    /* \"--CODEGEN--\":534:573   */\n  tag_36\n    /* \"--CODEGEN--\":566:572   */\n  dup4\n    /* \"--CODEGEN--\":561:564   */\n  dup3\n    /* \"--CODEGEN--\":556:559   */\n  dup5\n    /* \"--CODEGEN--\":534:573   */\n  jump(tag_37)\ntag_36:\n    /* \"--CODEGEN--\":208:579   */\n  pop\n  pop\n  pop\n  swap3\n  swap2\n  pop\n  pop\n  jump\n    /* \"--CODEGEN--\":587:705   */\ntag_39:\n  0x0\n    /* \"--CODEGEN--\":663:700   */\n  tag_40\n    /* \"--CODEGEN--\":692:698   */\n  dup3\n    /* \"--CODEGEN--\":686:699   */\n  mload\n    /* \"--CODEGEN--\":663:700   */\n  jump(tag_41)\ntag_40:\n    /* \"--CODEGEN--\":654:700   */\n  swap1\n  pop\n    /* \"--CODEGEN--\":648:705   */\n  swap3\n  swap2\n  pop\n  pop\n  jump\n    /* \"--CODEGEN--\":712:1578   */\ntag_3:\n  0x0\n  dup1\n  0x0\n  dup1\n    /* \"--CODEGEN--\":896:899   */\n  0x80\n    /* \"--CODEGEN--\":884:893   */\n  dup6\n    /* \"--CODEGEN--\":875:882   */\n  dup8\n    /* \"--CODEGEN--\":871:894   */\n  sub\n    /* \"--CODEGEN--\":867:900   */\n  slt\n    /* \"--CODEGEN--\":864:866   */\n  iszero\n  tag_43\n  jumpi\n    /* \"--CODEGEN--\":913:914   */\n  0x0\n    /* \"--CODEGEN--\":910:911   */\n  dup1\n    /* \"--CODEGEN--\":903:915   */\n  revert\n    /* \"--CODEGEN--\":864:866   */\ntag_43:\n    /* \"--CODEGEN--\":969:970   */\n  0x0\n    /* \"--CODEGEN--\":958:967   */\n  dup6\n    /* \"--CODEGEN--\":954:971   */\n  add\n    /* \"--CODEGEN--\":948:972   */\n  mload\n    /* \"--CODEGEN--\":992:1010   */\n  0xffffffffffffffff\n    /* \"--CODEGEN--\":984:990   */\n  dup2\n    /* \"--CODEGEN--\":981:1011   */\n  gt\n    /* \"--CODEGEN--\":978:980   */\n  iszero\n  tag_44\n  jumpi\n    /* \"--CODEGEN--\":1024:1025   */\n  0x0\n    /* \"--CODEGEN--\":1021:1022   */\n  dup1\n    /* \"--CODEGEN--\":1014:1026   */\n  revert\n    /* \"--CODEGEN--\":978:980   */\ntag_44:\n    /* \"--CODEGEN--\":1044:1118   */\n  tag_45\n    /* \"--CODEGEN--\":1110:1117   */\n  dup8\n    /* \"--CODEGEN--\":1101:1107   */\n  dup3\n    /* \"--CODEGEN--\":1090:1099   */\n  dup9\n    /* \"--CODEGEN--\":1086:1108   */\n  add\n    /* \"--CODEGEN--\":1044:1118   */\n  jump(tag_29)\ntag_45:\n    /* \"--CODEGEN--\":1034:1118   */\n  swap5\n  pop\n    /* \"--CODEGEN--\":927:1124   */\n  pop\n    /* \"--CODEGEN--\":1176:1178   */\n  0x20\n    /* \"--CODEGEN--\":1165:1174   */\n  dup6\n    /* \"--CODEGEN--\":1161:1179   */\n  add\n    /* \"--CODEGEN--\":1155:1180   */\n  mload\n    /* \"--CODEGEN--\":1200:1218   */\n  0xffffffffffffffff\n    /* \"--CODEGEN--\":1192:1198   */\n  dup2\n    /* \"--CODEGEN--\":1189:1219   */\n  gt\n    /* \"--CODEGEN--\":1186:1188   */\n  iszero\n  tag_46\n  jumpi\n    /* \"--CODEGEN--\":1232:1233   */\n  0x0\n    /* \"--CODEGEN--\":1229:1230   */\n  dup1\n    /* \"--CODEGEN--\":1222:1234   */\n  revert\n    /* \"--CODEGEN--\":1186:1188   */\ntag_46:\n    /* \"--CODEGEN--\":1252:1326   */\n  tag_47\n    /* \"--CODEGEN--\":1318:1325   */\n  dup8\n    /* \"--CODEGEN--\":1309:1315   */\n  dup3\n    /* \"--CODEGEN--\":1298:1307   */\n  dup9\n    /* \"--CODEGEN--\":1294:1316   */\n  add\n    /* \"--CODEGEN--\":1252:1326   */\n  jump(tag_29)\ntag_47:\n    /* \"--CODEGEN--\":1242:1326   */\n  swap4\n  pop\n    /* \"--CODEGEN--\":1134:1332   */\n  pop\n    /* \"--CODEGEN--\":1363:1365   */\n  0x40\n    /* \"--CODEGEN--\":1381:1443   */\n  tag_48\n    /* \"--CODEGEN--\":1435:1442   */\n  dup8\n    /* \"--CODEGEN--\":1426:1432   */\n  dup3\n    /* \"--CODEGEN--\":1415:1424   */\n  dup9\n    /* \"--CODEGEN--\":1411:1433   */\n  add\n    /* \"--CODEGEN--\":1381:1443   */\n  jump(tag_39)\ntag_48:\n    /* \"--CODEGEN--\":1371:1443   */\n  swap3\n  pop\n    /* \"--CODEGEN--\":1342:1449   */\n  pop\n    /* \"--CODEGEN--\":1480:1482   */\n  0x60\n    /* \"--CODEGEN--\":1498:1562   */\n  tag_49\n    /* \"--CODEGEN--\":1554:1561   */\n  dup8\n    /* \"--CODEGEN--\":1545:1551   */\n  dup3\n    /* \"--CODEGEN--\":1534:1543   */\n  dup9\n    /* \"--CODEGEN--\":1530:1552   */\n  add\n    /* \"--CODEGEN--\":1498:1562   */\n  jump(tag_25)\ntag_49:\n    /* \"--CODEGEN--\":1488:1562   */\n  swap2\n  pop\n    /* \"--CODEGEN--\":1459:1568   */\n  pop\n    /* \"--CODEGEN--\":858:1578   */\n  swap3\n  swap6\n  swap2\n  swap5\n  pop\n  swap3\n  pop\n  jump\n    /* \"--CODEGEN--\":1585:1841   */\ntag_34:\n  0x0\n    /* \"--CODEGEN--\":1647:1649   */\n  0x40\n    /* \"--CODEGEN--\":1641:1650   */\n  mload\n    /* \"--CODEGEN--\":1631:1650   */\n  swap1\n  pop\n    /* \"--CODEGEN--\":1685:1689   */\n  dup2\n    /* \"--CODEGEN--\":1677:1683   */\n  dup2\n    /* \"--CODEGEN--\":1673:1690   */\n  add\n    /* \"--CODEGEN--\":1784:1790   */\n  dup2\n    /* \"--CODEGEN--\":1772:1782   */\n  dup2\n    /* \"--CODEGEN--\":1769:1791   */\n  lt\n    /* \"--CODEGEN--\":1748:1766   */\n  0xffffffffffffffff\n    /* \"--CODEGEN--\":1736:1746   */\n  dup3\n    /* \"--CODEGEN--\":1733:1767   */\n  gt\n    /* \"--CODEGEN--\":1730:1792   */\n  or\n    /* \"--CODEGEN--\":1727:1729   */\n  iszero\n  tag_51\n  jumpi\n    /* \"--CODEGEN--\":1805:1806   */\n  0x0\n    /* \"--CODEGEN--\":1802:1803   */\n  dup1\n    /* \"--CODEGEN--\":1795:1807   */\n  revert\n    /* \"--CODEGEN--\":1727:1729   */\ntag_51:\n    /* \"--CODEGEN--\":1825:1835   */\n  dup1\n    /* \"--CODEGEN--\":1821:1823   */\n  0x40\n    /* \"--CODEGEN--\":1814:1836   */\n  mstore\n    /* \"--CODEGEN--\":1625:1841   */\n  pop\n  swap2\n  swap1\n  pop\n  jump\n    /* \"--CODEGEN--\":1848:2107   */\ntag_33:\n  0x0\n    /* \"--CODEGEN--\":1992:2010   */\n  0xffffffffffffffff\n    /* \"--CODEGEN--\":1984:1990   */\n  dup3\n    /* \"--CODEGEN--\":1981:2011   */\n  gt\n    /* \"--CODEGEN--\":1978:1980   */\n  iszero\n  tag_53\n  jumpi\n    /* \"--CODEGEN--\":2024:2025   */\n  0x0\n    /* \"--CODEGEN--\":2021:2022   */\n  dup1\n    /* \"--CODEGEN--\":2014:2026   */\n  revert\n    /* \"--CODEGEN--\":1978:1980   */\ntag_53:\n    /* \"--CODEGEN--\":2068:2072   */\n  0x1f\n    /* \"--CODEGEN--\":2064:2073   */\n  not\n    /* \"--CODEGEN--\":2057:2061   */\n  0x1f\n    /* \"--CODEGEN--\":2049:2055   */\n  dup4\n    /* \"--CODEGEN--\":2045:2062   */\n  add\n    /* \"--CODEGEN--\":2041:2074   */\n  and\n    /* \"--CODEGEN--\":2033:2074   */\n  swap1\n  pop\n    /* \"--CODEGEN--\":2097:2101   */\n  0x20\n    /* \"--CODEGEN--\":2091:2095   */\n  dup2\n    /* \"--CODEGEN--\":2087:2102   */\n  add\n    /* \"--CODEGEN--\":2079:2102   */\n  swap1\n  pop\n    /* \"--CODEGEN--\":1915:2107   */\n  swap2\n  swap1\n  pop\n  jump\n    /* \"--CODEGEN--\":2114:2242   */\ntag_27:\n  0x0\n    /* \"--CODEGEN--\":2194:2236   */\n  0xffffffffffffffffffffffffffffffffffffffff\n    /* \"--CODEGEN--\":2187:2192   */\n  dup3\n    /* \"--CODEGEN--\":2183:2237   */\n  and\n    /* \"--CODEGEN--\":2172:2237   */\n  swap1\n  pop\n    /* \"--CODEGEN--\":2166:2242   */\n  swap2\n  swap1\n  pop\n  jump\n    /* \"--CODEGEN--\":2249:2337   */\ntag_41:\n  0x0\n    /* \"--CODEGEN--\":2327:2331   */\n  0xff\n    /* \"--CODEGEN--\":2320:2325   */\n  dup3\n    /* \"--CODEGEN--\":2316:2332   */\n  and\n    /* \"--CODEGEN--\":2305:2332   */\n  swap1\n  pop\n    /* \"--CODEGEN--\":2299:2337   */\n  swap2\n  swap1\n  pop\n  jump\n    /* \"--CODEGEN--\":2345:2613   */\ntag_37:\n    /* \"--CODEGEN--\":2410:2411   */\n  0x0\n    /* \"--CODEGEN--\":2417:2518   */\ntag_57:\n    /* \"--CODEGEN--\":2431:2437   */\n  dup4\n    /* \"--CODEGEN--\":2428:2429   */\n  dup2\n    /* \"--CODEGEN--\":2425:2438   */\n  lt\n    /* \"--CODEGEN--\":2417:2518   */\n  iszero\n  tag_58\n  jumpi\n    /* \"--CODEGEN--\":2507:2508   */\n  dup1\n    /* \"--CODEGEN--\":2502:2505   */\n  dup3\n    /* \"--CODEGEN--\":2498:2509   */\n  add\n    /* \"--CODEGEN--\":2492:2510   */\n  mload\n    /* \"--CODEGEN--\":2488:2489   */\n  dup2\n    /* \"--CODEGEN--\":2483:2486   */\n  dup5\n    /* \"--CODEGEN--\":2479:2490   */\n  add\n    /* \"--CODEGEN--\":2472:2511   */\n  mstore\n    /* \"--CODEGEN--\":2453:2455   */\n  0x20\n    /* \"--CODEGEN--\":2450:2451   */\n  dup2\n    /* \"--CODEGEN--\":2446:2456   */\n  add\n    /* \"--CODEGEN--\":2441:2456   */\n  swap1\n  pop\n    /* \"--CODEGEN--\":2417:2518   */\n  jump(tag_57)\ntag_58:\n    /* \"--CODEGEN--\":2533:2539   */\n  dup4\n    /* \"--CODEGEN--\":2530:2531   */\n  dup2\n    /* \"--CODEGEN--\":2527:2540   */\n  gt\n    /* \"--CODEGEN--\":2524:2526   */\n  iszero\n  tag_60\n  jumpi\n    /* \"--CODEGEN--\":2598:2599   */\n  0x0\n    /* \"--CODEGEN--\":2589:2595   */\n  dup5\n    /* \"--CODEGEN--\":2584:2587   */\n  dup5\n    /* \"--CODEGEN--\":2580:2596   */\n  add\n    /* \"--CODEGEN--\":2573:2600   */\n  mstore\n    /* \"--CODEGEN--\":2524:2526   */\ntag_60:\n    /* \"--CODEGEN--\":2394:2613   */\n  pop\n  pop\n  pop\n  pop\n  jump\n    /* \"fisco/EproductsInfoItem.sol\":131:2512  contract EproductsInfoItem{... */\ntag_14:\n  dataSize(sub_0)\n  dup1\n  dataOffset(sub_0)\n  0x0\n  codecopy\n  0x0\n  return\nstop\n\nsub_0: assembly {\n        /* \"fisco/EproductsInfoItem.sol\":131:2512  contract EproductsInfoItem{... */\n      mstore(0x40, 0x80)\n      jumpi(tag_1, lt(calldatasize, 0x4))\n      calldataload(0x0)\n      0x100000000000000000000000000000000000000000000000000000000\n      swap1\n      div\n      0xffffffff\n      and\n      dup1\n      0x6e72967\n      eq\n      tag_2\n      jumpi\n      dup1\n      0x1a772baf\n      eq\n      tag_3\n      jumpi\n      dup1\n      0xf0d984e4\n      eq\n      tag_4\n      jumpi\n      dup1\n      0xf650350d\n      eq\n      tag_5\n      jumpi\n    tag_1:\n      0x0\n      dup1\n      revert\n        /* \"fisco/EproductsInfoItem.sol\":1159:1648  function addTraceInfoByDistributor(string traceName,address distributor,uint8 quality)public returns(bool){... */\n    tag_2:\n      callvalue\n        /* \"--CODEGEN--\":8:17   */\n      dup1\n        /* \"--CODEGEN--\":5:7   */\n      iszero\n      tag_6\n      jumpi\n        /* \"--CODEGEN--\":30:31   */\n      0x0\n        /* \"--CODEGEN--\":27:28   */\n      dup1\n        /* \"--CODEGEN--\":20:32   */\n      revert\n        /* \"--CODEGEN--\":5:7   */\n    tag_6:\n        /* \"fisco/EproductsInfoItem.sol\":1159:1648  function addTraceInfoByDistributor(string traceName,address distributor,uint8 quality)public returns(bool){... */\n      pop\n      tag_7\n      0x4\n      dup1\n      calldatasize\n      sub\n      tag_8\n      swap2\n      swap1\n      dup2\n      add\n      swap1\n      jump(tag_9)\n    tag_8:\n      jump(tag_10)\n    tag_7:\n      mload(0x40)\n      tag_11\n      swap2\n      swap1\n      jump(tag_12)\n    tag_11:\n      mload(0x40)\n      dup1\n      swap2\n      sub\n      swap1\n      return\n        /* \"fisco/EproductsInfoItem.sol\":2317:2507  function getEproducts()public constant returns(uint,string,string,string,address,uint8){... */\n    tag_3:\n      callvalue\n        /* \"--CODEGEN--\":8:17   */\n      dup1\n        /* \"--CODEGEN--\":5:7   */\n      iszero\n      tag_13\n      jumpi\n        /* \"--CODEGEN--\":30:31   */\n      0x0\n        /* \"--CODEGEN--\":27:28   */\n      dup1\n        /* \"--CODEGEN--\":20:32   */\n      revert\n        /* \"--CODEGEN--\":5:7   */\n    tag_13:\n        /* \"fisco/EproductsInfoItem.sol\":2317:2507  function getEproducts()public constant returns(uint,string,string,string,address,uint8){... */\n      pop\n      tag_14\n      jump(tag_15)\n    tag_14:\n      mload(0x40)\n      tag_16\n      swap7\n      swap6\n      swap5\n      swap4\n      swap3\n      swap2\n      swap1\n      jump(tag_17)\n    tag_16:\n      mload(0x40)\n      dup1\n      swap2\n      sub\n      swap1\n      return\n        /* \"fisco/EproductsInfoItem.sol\":2149:2310  function getTraceInfo()public constant returns(uint[],string[],address[],uint8[]){... */\n    tag_4:\n      callvalue\n        /* \"--CODEGEN--\":8:17   */\n      dup1\n        /* \"--CODEGEN--\":5:7   */\n      iszero\n      tag_18\n      jumpi\n        /* \"--CODEGEN--\":30:31   */\n      0x0\n        /* \"--CODEGEN--\":27:28   */\n      dup1\n        /* \"--CODEGEN--\":20:32   */\n      revert\n        /* \"--CODEGEN--\":5:7   */\n    tag_18:\n        /* \"fisco/EproductsInfoItem.sol\":2149:2310  function getTraceInfo()public constant returns(uint[],string[],address[],uint8[]){... */\n      pop\n      tag_19\n      jump(tag_20)\n    tag_19:\n      mload(0x40)\n      tag_21\n      swap5\n      swap4\n      swap3\n      swap2\n      swap1\n      jump(tag_22)\n    tag_21:\n      mload(0x40)\n      dup1\n      swap2\n      sub\n      swap1\n      return\n        /* \"fisco/EproductsInfoItem.sol\":1654:2140  function addTraceInfoByRetailer(string traceName, address retailer,uint8 quality)public returns(bool){... */\n    tag_5:\n      callvalue\n        /* \"--CODEGEN--\":8:17   */\n      dup1\n        /* \"--CODEGEN--\":5:7   */\n      iszero\n      tag_23\n      jumpi\n        /* \"--CODEGEN--\":30:31   */\n      0x0\n        /* \"--CODEGEN--\":27:28   */\n      dup1\n        /* \"--CODEGEN--\":20:32   */\n      revert\n        /* \"--CODEGEN--\":5:7   */\n    tag_23:\n        /* \"fisco/EproductsInfoItem.sol\":1654:2140  function addTraceInfoByRetailer(string traceName, address retailer,uint8 quality)public returns(bool){... */\n      pop\n      tag_24\n      0x4\n      dup1\n      calldatasize\n      sub\n      tag_25\n      swap2\n      swap1\n      dup2\n      add\n      swap1\n      jump(tag_9)\n    tag_25:\n      jump(tag_26)\n    tag_24:\n      mload(0x40)\n      tag_27\n      swap2\n      swap1\n      jump(tag_12)\n    tag_27:\n      mload(0x40)\n      dup1\n      swap2\n      sub\n      swap1\n      return\n        /* \"fisco/EproductsInfoItem.sol\":1159:1648  function addTraceInfoByDistributor(string traceName,address distributor,uint8 quality)public returns(bool){... */\n    tag_10:\n        /* \"fisco/EproductsInfoItem.sol\":1260:1264  bool */\n      0x0\n        /* \"fisco/EproductsInfoItem.sol\":1293:1294  0 */\n      dup1\n        /* \"fisco/EproductsInfoItem.sol\":1284:1291  _status */\n      0x6\n      0x1\n      swap1\n      sload\n      swap1\n      0x100\n      exp\n      swap1\n      div\n      0xff\n      and\n        /* \"fisco/EproductsInfoItem.sol\":1284:1294  _status==0 */\n      0xff\n      and\n      eq\n        /* \"fisco/EproductsInfoItem.sol\":1276:1322  require(_status==0,\"status must be producing\") */\n      iszero\n      iszero\n      tag_29\n      jumpi\n      mload(0x40)\n      0x8c379a000000000000000000000000000000000000000000000000000000000\n      dup2\n      mstore\n      0x4\n      add\n      tag_30\n      swap1\n      jump(tag_31)\n    tag_30:\n      mload(0x40)\n      dup1\n      swap2\n      sub\n      swap1\n      revert\n    tag_29:\n        /* \"fisco/EproductsInfoItem.sol\":1348:1358  msg.sender */\n      caller\n        /* \"fisco/EproductsInfoItem.sol\":1340:1358  _owner==msg.sender */\n      0xffffffffffffffffffffffffffffffffffffffff\n      and\n        /* \"fisco/EproductsInfoItem.sol\":1340:1346  _owner */\n      0x6\n      0x2\n      swap1\n      sload\n      swap1\n      0x100\n      exp\n      swap1\n      div\n      0xffffffffffffffffffffffffffffffffffffffff\n      and\n        /* \"fisco/EproductsInfoItem.sol\":1340:1358  _owner==msg.sender */\n      0xffffffffffffffffffffffffffffffffffffffff\n      and\n      eq\n        /* \"fisco/EproductsInfoItem.sol\":1332:1392  require(_owner==msg.sender,\"only trace contract can invoke\") */\n      iszero\n      iszero\n      tag_32\n      jumpi\n      mload(0x40)\n      0x8c379a000000000000000000000000000000000000000000000000000000000\n      dup2\n      mstore\n      0x4\n      add\n      tag_33\n      swap1\n      jump(tag_34)\n    tag_33:\n      mload(0x40)\n      dup1\n      swap2\n      sub\n      swap1\n      revert\n    tag_32:\n        /* \"fisco/EproductsInfoItem.sol\":1402:1412  _timestamp */\n      0x0\n        /* \"fisco/EproductsInfoItem.sol\":1418:1421  now */\n      timestamp\n        /* \"fisco/EproductsInfoItem.sol\":1402:1422  _timestamp.push(now) */\n      swap1\n      dup1\n        /* \"--CODEGEN--\":39:40   */\n      0x1\n        /* \"--CODEGEN--\":33:36   */\n      dup2\n        /* \"--CODEGEN--\":27:37   */\n      sload\n        /* \"--CODEGEN--\":23:41   */\n      add\n        /* \"--CODEGEN--\":57:67   */\n      dup1\n        /* \"--CODEGEN--\":52:55   */\n      dup3\n        /* \"--CODEGEN--\":45:68   */\n      sstore\n        /* \"--CODEGEN--\":79:89   */\n      dup1\n        /* \"--CODEGEN--\":72:89   */\n      swap2\n      pop\n        /* \"--CODEGEN--\":0:93   */\n      pop\n        /* \"fisco/EproductsInfoItem.sol\":1402:1422  _timestamp.push(now) */\n      swap1\n      0x1\n      dup3\n      sub\n      swap1\n      0x0\n      mstore\n      keccak256(0x0, 0x20)\n      add\n      0x0\n      swap1\n      swap2\n      swap3\n      swap1\n      swap2\n      swap1\n      swap2\n      pop\n      sstore\n      pop\n        /* \"fisco/EproductsInfoItem.sol\":1432:1442  _traceName */\n      0x1\n        /* \"fisco/EproductsInfoItem.sol\":1448:1457  traceName */\n      dup5\n        /* \"fisco/EproductsInfoItem.sol\":1432:1458  _traceName.push(traceName) */\n      swap1\n      dup1\n        /* \"--CODEGEN--\":39:40   */\n      0x1\n        /* \"--CODEGEN--\":33:36   */\n      dup2\n        /* \"--CODEGEN--\":27:37   */\n      sload\n        /* \"--CODEGEN--\":23:41   */\n      add\n        /* \"--CODEGEN--\":57:67   */\n      dup1\n        /* \"--CODEGEN--\":52:55   */\n      dup3\n        /* \"--CODEGEN--\":45:68   */\n      sstore\n        /* \"--CODEGEN--\":79:89   */\n      dup1\n        /* \"--CODEGEN--\":72:89   */\n      swap2\n      pop\n        /* \"--CODEGEN--\":0:93   */\n      pop\n        /* \"fisco/EproductsInfoItem.sol\":1432:1458  _traceName.push(traceName) */\n      swap1\n      0x1\n      dup3\n      sub\n      swap1\n      0x0\n      mstore\n      keccak256(0x0, 0x20)\n      add\n      0x0\n      swap1\n      swap2\n      swap3\n      swap1\n      swap2\n      swap1\n      swap2\n      pop\n      swap1\n      dup1\n      mload\n      swap1\n      0x20\n      add\n      swap1\n      tag_37\n      swap3\n      swap2\n      swap1\n      jump\t// in(tag_38)\n    tag_37:\n      pop\n      pop\n        /* \"fisco/EproductsInfoItem.sol\":1486:1495  traceName */\n      dup4\n        /* \"fisco/EproductsInfoItem.sol\":1468:1485  _currentTraceName */\n      0x5\n        /* \"fisco/EproductsInfoItem.sol\":1468:1495  _currentTraceName=traceName */\n      swap1\n      dup1\n      mload\n      swap1\n      0x20\n      add\n      swap1\n      tag_39\n      swap3\n      swap2\n      swap1\n      jump\t// in(tag_38)\n    tag_39:\n      pop\n        /* \"fisco/EproductsInfoItem.sol\":1505:1518  _traceAddress */\n      0x2\n        /* \"fisco/EproductsInfoItem.sol\":1524:1535  distributor */\n      dup4\n        /* \"fisco/EproductsInfoItem.sol\":1505:1536  _traceAddress.push(distributor) */\n      swap1\n      dup1\n        /* \"--CODEGEN--\":39:40   */\n      0x1\n        /* \"--CODEGEN--\":33:36   */\n      dup2\n        /* \"--CODEGEN--\":27:37   */\n      sload\n        /* \"--CODEGEN--\":23:41   */\n      add\n        /* \"--CODEGEN--\":57:67   */\n      dup1\n        /* \"--CODEGEN--\":52:55   */\n      dup3\n        /* \"--CODEGEN--\":45:68   */\n      sstore\n        /* \"--CODEGEN--\":79:89   */\n      dup1\n        /* \"--CODEGEN--\":72:89   */\n      swap2\n      pop\n        /* \"--CODEGEN--\":0:93   */\n      pop\n        /* \"fisco/EproductsInfoItem.sol\":1505:1536  _traceAddress.push(distributor) */\n      swap1\n      0x1\n      dup3\n      sub\n      swap1\n      0x0\n      mstore\n      keccak256(0x0, 0x20)\n      add\n      0x0\n      swap1\n      swap2\n      swap3\n      swap1\n      swap2\n      swap1\n      swap2\n      0x100\n      exp\n      dup2\n      sload\n      dup2\n      0xffffffffffffffffffffffffffffffffffffffff\n      mul\n      not\n      and\n      swap1\n      dup4\n      0xffffffffffffffffffffffffffffffffffffffff\n      and\n      mul\n      or\n      swap1\n      sstore\n      pop\n      pop\n        /* \"fisco/EproductsInfoItem.sol\":1555:1562  quality */\n      dup2\n        /* \"fisco/EproductsInfoItem.sol\":1546:1554  _quality */\n      0x6\n      0x0\n        /* \"fisco/EproductsInfoItem.sol\":1546:1562  _quality=quality */\n      0x100\n      exp\n      dup2\n      sload\n      dup2\n      0xff\n      mul\n      not\n      and\n      swap1\n      dup4\n      0xff\n      and\n      mul\n      or\n      swap1\n      sstore\n      pop\n        /* \"fisco/EproductsInfoItem.sol\":1572:1585  _traceQuality */\n      0x3\n        /* \"fisco/EproductsInfoItem.sol\":1591:1599  _quality */\n      0x6\n      0x0\n      swap1\n      sload\n      swap1\n      0x100\n      exp\n      swap1\n      div\n      0xff\n      and\n        /* \"fisco/EproductsInfoItem.sol\":1572:1600  _traceQuality.push(_quality) */\n      swap1\n      dup1\n        /* \"--CODEGEN--\":39:40   */\n      0x1\n        /* \"--CODEGEN--\":33:36   */\n      dup2\n        /* \"--CODEGEN--\":27:37   */\n      sload\n        /* \"--CODEGEN--\":23:41   */\n      add\n        /* \"--CODEGEN--\":57:67   */\n      dup1\n        /* \"--CODEGEN--\":52:55   */\n      dup3\n        /* \"--CODEGEN--\":45:68   */\n      sstore\n        /* \"--CODEGEN--\":79:89   */\n      dup1\n        /* \"--CODEGEN--\":72:89   */\n      swap2\n      pop\n        /* \"--CODEGEN--\":0:93   */\n      pop\n        /* \"fisco/EproductsInfoItem.sol\":1572:1600  _traceQuality.push(_quality) */\n      swap1\n      0x1\n      dup3\n      sub\n      swap1\n      0x0\n      mstore\n      keccak256(0x0, 0x20)\n      swap1\n      0x20\n      swap2\n      dup3\n      dup3\n      div\n      add\n      swap2\n      swap1\n      mod\n      swap1\n      swap2\n      swap3\n      swap1\n      swap2\n      swap1\n      swap2\n      0x100\n      exp\n      dup2\n      sload\n      dup2\n      0xff\n      mul\n      not\n      and\n      swap1\n      dup4\n      0xff\n      and\n      mul\n      or\n      swap1\n      sstore\n      pop\n      pop\n        /* \"fisco/EproductsInfoItem.sol\":1618:1619  1 */\n      0x1\n        /* \"fisco/EproductsInfoItem.sol\":1610:1617  _status */\n      0x6\n      0x1\n        /* \"fisco/EproductsInfoItem.sol\":1610:1619  _status=1 */\n      0x100\n      exp\n      dup2\n      sload\n      dup2\n      0xff\n      mul\n      not\n      and\n      swap1\n      dup4\n      0xff\n      and\n      mul\n      or\n      swap1\n      sstore\n      pop\n        /* \"fisco/EproductsInfoItem.sol\":1636:1640  true */\n      0x1\n        /* \"fisco/EproductsInfoItem.sol\":1629:1640  return true */\n      swap1\n      pop\n        /* \"fisco/EproductsInfoItem.sol\":1159:1648  function addTraceInfoByDistributor(string traceName,address distributor,uint8 quality)public returns(bool){... */\n      swap4\n      swap3\n      pop\n      pop\n      pop\n      jump\t// out\n        /* \"fisco/EproductsInfoItem.sol\":2317:2507  function getEproducts()public constant returns(uint,string,string,string,address,uint8){... */\n    tag_15:\n        /* \"fisco/EproductsInfoItem.sol\":2364:2368  uint */\n      0x0\n        /* \"fisco/EproductsInfoItem.sol\":2369:2375  string */\n      0x60\n        /* \"fisco/EproductsInfoItem.sol\":2376:2382  string */\n      dup1\n        /* \"fisco/EproductsInfoItem.sol\":2383:2389  string */\n      0x60\n        /* \"fisco/EproductsInfoItem.sol\":2390:2397  address */\n      0x0\n        /* \"fisco/EproductsInfoItem.sol\":2398:2403  uint8 */\n      dup1\n        /* \"fisco/EproductsInfoItem.sol\":2421:2431  _timestamp */\n      0x0\n        /* \"fisco/EproductsInfoItem.sol\":2432:2433  0 */\n      dup1\n        /* \"fisco/EproductsInfoItem.sol\":2421:2434  _timestamp[0] */\n      dup2\n      sload\n      dup2\n      lt\n      iszero\n      iszero\n      tag_43\n      jumpi\n      invalid\n    tag_43:\n      swap1\n      0x0\n      mstore\n      keccak256(0x0, 0x20)\n      add\n      sload\n        /* \"fisco/EproductsInfoItem.sol\":2435:2445  _traceName */\n      0x1\n        /* \"fisco/EproductsInfoItem.sol\":2446:2447  0 */\n      0x0\n        /* \"fisco/EproductsInfoItem.sol\":2435:2448  _traceName[0] */\n      dup2\n      sload\n      dup2\n      lt\n      iszero\n      iszero\n      tag_45\n      jumpi\n      invalid\n    tag_45:\n      swap1\n      0x0\n      mstore\n      keccak256(0x0, 0x20)\n      add\n        /* \"fisco/EproductsInfoItem.sol\":2449:2454  _name */\n      0x4\n        /* \"fisco/EproductsInfoItem.sol\":2455:2472  _currentTraceName */\n      0x5\n        /* \"fisco/EproductsInfoItem.sol\":2473:2486  _traceAddress */\n      0x2\n        /* \"fisco/EproductsInfoItem.sol\":2487:2488  0 */\n      0x0\n        /* \"fisco/EproductsInfoItem.sol\":2473:2489  _traceAddress[0] */\n      dup2\n      sload\n      dup2\n      lt\n      iszero\n      iszero\n      tag_47\n      jumpi\n      invalid\n    tag_47:\n      swap1\n      0x0\n      mstore\n      keccak256(0x0, 0x20)\n      add\n      0x0\n      swap1\n      sload\n      swap1\n      0x100\n      exp\n      swap1\n      div\n      0xffffffffffffffffffffffffffffffffffffffff\n      and\n        /* \"fisco/EproductsInfoItem.sol\":2490:2498  _quality */\n      0x6\n      0x0\n      swap1\n      sload\n      swap1\n      0x100\n      exp\n      swap1\n      div\n      0xff\n      and\n        /* \"fisco/EproductsInfoItem.sol\":2414:2499  return(_timestamp[0],_traceName[0],_name,_currentTraceName,_traceAddress[0],_quality) */\n      dup5\n      dup1\n      sload\n      0x1\n      dup2\n      0x1\n      and\n      iszero\n      0x100\n      mul\n      sub\n      and\n      0x2\n      swap1\n      div\n      dup1\n      0x1f\n      add\n      0x20\n      dup1\n      swap2\n      div\n      mul\n      0x20\n      add\n      mload(0x40)\n      swap1\n      dup2\n      add\n      0x40\n      mstore\n      dup1\n      swap3\n      swap2\n      swap1\n      dup2\n      dup2\n      mstore\n      0x20\n      add\n      dup3\n      dup1\n      sload\n      0x1\n      dup2\n      0x1\n      and\n      iszero\n      0x100\n      mul\n      sub\n      and\n      0x2\n      swap1\n      div\n      dup1\n      iszero\n      tag_49\n      jumpi\n      dup1\n      0x1f\n      lt\n      tag_50\n      jumpi\n      0x100\n      dup1\n      dup4\n      sload\n      div\n      mul\n      dup4\n      mstore\n      swap2\n      0x20\n      add\n      swap2\n      jump(tag_49)\n    tag_50:\n      dup3\n      add\n      swap2\n      swap1\n      0x0\n      mstore\n      keccak256(0x0, 0x20)\n      swap1\n    tag_51:\n      dup2\n      sload\n      dup2\n      mstore\n      swap1\n      0x1\n      add\n      swap1\n      0x20\n      add\n      dup1\n      dup4\n      gt\n      tag_51\n      jumpi\n      dup3\n      swap1\n      sub\n      0x1f\n      and\n      dup3\n      add\n      swap2\n    tag_49:\n      pop\n      pop\n      pop\n      pop\n      pop\n      swap5\n      pop\n      dup4\n      dup1\n      sload\n      0x1\n      dup2\n      0x1\n      and\n      iszero\n      0x100\n      mul\n      sub\n      and\n      0x2\n      swap1\n      div\n      dup1\n      0x1f\n      add\n      0x20\n      dup1\n      swap2\n      div\n      mul\n      0x20\n      add\n      mload(0x40)\n      swap1\n      dup2\n      add\n      0x40\n      mstore\n      dup1\n      swap3\n      swap2\n      swap1\n      dup2\n      dup2\n      mstore\n      0x20\n      add\n      dup3\n      dup1\n      sload\n      0x1\n      dup2\n      0x1\n      and\n      iszero\n      0x100\n      mul\n      sub\n      and\n      0x2\n      swap1\n      div\n      dup1\n      iszero\n      tag_52\n      jumpi\n      dup1\n      0x1f\n      lt\n      tag_53\n      jumpi\n      0x100\n      dup1\n      dup4\n      sload\n      div\n      mul\n      dup4\n      mstore\n      swap2\n      0x20\n      add\n      swap2\n      jump(tag_52)\n    tag_53:\n      dup3\n      add\n      swap2\n      swap1\n      0x0\n      mstore\n      keccak256(0x0, 0x20)\n      swap1\n    tag_54:\n      dup2\n      sload\n      dup2\n      mstore\n      swap1\n      0x1\n      add\n      swap1\n      0x20\n      add\n      dup1\n      dup4\n      gt\n      tag_54\n      jumpi\n      dup3\n      swap1\n      sub\n      0x1f\n      and\n      dup3\n      add\n      swap2\n    tag_52:\n      pop\n      pop\n      pop\n      pop\n      pop\n      swap4\n      pop\n      dup3\n      dup1\n      sload\n      0x1\n      dup2\n      0x1\n      and\n      iszero\n      0x100\n      mul\n      sub\n      and\n      0x2\n      swap1\n      div\n      dup1\n      0x1f\n      add\n      0x20\n      dup1\n      swap2\n      div\n      mul\n      0x20\n      add\n      mload(0x40)\n      swap1\n      dup2\n      add\n      0x40\n      mstore\n      dup1\n      swap3\n      swap2\n      swap1\n      dup2\n      dup2\n      mstore\n      0x20\n      add\n      dup3\n      dup1\n      sload\n      0x1\n      dup2\n      0x1\n      and\n      iszero\n      0x100\n      mul\n      sub\n      and\n      0x2\n      swap1\n      div\n      dup1\n      iszero\n      tag_55\n      jumpi\n      dup1\n      0x1f\n      lt\n      tag_56\n      jumpi\n      0x100\n      dup1\n      dup4\n      sload\n      div\n      mul\n      dup4\n      mstore\n      swap2\n      0x20\n      add\n      swap2\n      jump(tag_55)\n    tag_56:\n      dup3\n      add\n      swap2\n      swap1\n      0x0\n      mstore\n      keccak256(0x0, 0x20)\n      swap1\n    tag_57:\n      dup2\n      sload\n      dup2\n      mstore\n      swap1\n      0x1\n      add\n      swap1\n      0x20\n      add\n      dup1\n      dup4\n      gt\n      tag_57\n      jumpi\n      dup3\n      swap1\n      sub\n      0x1f\n      and\n      dup3\n      add\n      swap2\n    tag_55:\n      pop\n      pop\n      pop\n      pop\n      pop\n      swap3\n      pop\n      swap6\n      pop\n      swap6\n      pop\n      swap6\n      pop\n      swap6\n      pop\n      swap6\n      pop\n      swap6\n      pop\n        /* \"fisco/EproductsInfoItem.sol\":2317:2507  function getEproducts()public constant returns(uint,string,string,string,address,uint8){... */\n      swap1\n      swap2\n      swap3\n      swap4\n      swap5\n      swap6\n      jump\t// out\n        /* \"fisco/EproductsInfoItem.sol\":2149:2310  function getTraceInfo()public constant returns(uint[],string[],address[],uint8[]){... */\n    tag_20:\n        /* \"fisco/EproductsInfoItem.sol\":2196:2202  uint[] */\n      0x60\n        /* \"fisco/EproductsInfoItem.sol\":2203:2211  string[] */\n      dup1\n        /* \"fisco/EproductsInfoItem.sol\":2212:2221  address[] */\n      0x60\n        /* \"fisco/EproductsInfoItem.sol\":2222:2229  uint8[] */\n      dup1\n        /* \"fisco/EproductsInfoItem.sol\":2248:2258  _timestamp */\n      0x0\n        /* \"fisco/EproductsInfoItem.sol\":2259:2269  _traceName */\n      0x1\n        /* \"fisco/EproductsInfoItem.sol\":2270:2283  _traceAddress */\n      0x2\n        /* \"fisco/EproductsInfoItem.sol\":2284:2297  _traceQuality */\n      0x3\n        /* \"fisco/EproductsInfoItem.sol\":2240:2298  return (_timestamp,_traceName,_traceAddress,_traceQuality) */\n      dup4\n      dup1\n      sload\n      dup1\n      0x20\n      mul\n      0x20\n      add\n      mload(0x40)\n      swap1\n      dup2\n      add\n      0x40\n      mstore\n      dup1\n      swap3\n      swap2\n      swap1\n      dup2\n      dup2\n      mstore\n      0x20\n      add\n      dup3\n      dup1\n      sload\n      dup1\n      iszero\n      tag_59\n      jumpi\n      0x20\n      mul\n      dup3\n      add\n      swap2\n      swap1\n      0x0\n      mstore\n      keccak256(0x0, 0x20)\n      swap1\n    tag_60:\n      dup2\n      sload\n      dup2\n      mstore\n      0x20\n      add\n      swap1\n      0x1\n      add\n      swap1\n      dup1\n      dup4\n      gt\n      tag_60\n      jumpi\n    tag_59:\n      pop\n      pop\n      pop\n      pop\n      pop\n      swap4\n      pop\n      dup3\n      dup1\n      sload\n      dup1\n      0x20\n      mul\n      0x20\n      add\n      mload(0x40)\n      swap1\n      dup2\n      add\n      0x40\n      mstore\n      dup1\n      swap3\n      swap2\n      swap1\n      dup2\n      dup2\n      mstore\n      0x20\n      add\n      0x0\n      swap1\n    tag_61:\n      dup3\n      dup3\n      lt\n      iszero\n      tag_62\n      jumpi\n      dup4\n      dup3\n      swap1\n      0x0\n      mstore\n      keccak256(0x0, 0x20)\n      add\n      dup1\n      sload\n      0x1\n      dup2\n      0x1\n      and\n      iszero\n      0x100\n      mul\n      sub\n      and\n      0x2\n      swap1\n      div\n      dup1\n      0x1f\n      add\n      0x20\n      dup1\n      swap2\n      div\n      mul\n      0x20\n      add\n      mload(0x40)\n      swap1\n      dup2\n      add\n      0x40\n      mstore\n      dup1\n      swap3\n      swap2\n      swap1\n      dup2\n      dup2\n      mstore\n      0x20\n      add\n      dup3\n      dup1\n      sload\n      0x1\n      dup2\n      0x1\n      and\n      iszero\n      0x100\n      mul\n      sub\n      and\n      0x2\n      swap1\n      div\n      dup1\n      iszero\n      tag_64\n      jumpi\n      dup1\n      0x1f\n      lt\n      tag_65\n      jumpi\n      0x100\n      dup1\n      dup4\n      sload\n      div\n      mul\n      dup4\n      mstore\n      swap2\n      0x20\n      add\n      swap2\n      jump(tag_64)\n    tag_65:\n      dup3\n      add\n      swap2\n      swap1\n      0x0\n      mstore\n      keccak256(0x0, 0x20)\n      swap1\n    tag_66:\n      dup2\n      sload\n      dup2\n      mstore\n      swap1\n      0x1\n      add\n      swap1\n      0x20\n      add\n      dup1\n      dup4\n      gt\n      tag_66\n      jumpi\n      dup3\n      swap1\n      sub\n      0x1f\n      and\n      dup3\n      add\n      swap2\n    tag_64:\n      pop\n      pop\n      pop\n      pop\n      pop\n      dup2\n      mstore\n      0x20\n      add\n      swap1\n      0x1\n      add\n      swap1\n      jump(tag_61)\n    tag_62:\n      pop\n      pop\n      pop\n      pop\n      swap3\n      pop\n      dup2\n      dup1\n      sload\n      dup1\n      0x20\n      mul\n      0x20\n      add\n      mload(0x40)\n      swap1\n      dup2\n      add\n      0x40\n      mstore\n      dup1\n      swap3\n      swap2\n      swap1\n      dup2\n      dup2\n      mstore\n      0x20\n      add\n      dup3\n      dup1\n      sload\n      dup1\n      iszero\n      tag_67\n      jumpi\n      0x20\n      mul\n      dup3\n      add\n      swap2\n      swap1\n      0x0\n      mstore\n      keccak256(0x0, 0x20)\n      swap1\n    tag_68:\n      dup2\n      0x0\n      swap1\n      sload\n      swap1\n      0x100\n      exp\n      swap1\n      div\n      0xffffffffffffffffffffffffffffffffffffffff\n      and\n      0xffffffffffffffffffffffffffffffffffffffff\n      and\n      dup2\n      mstore\n      0x20\n      add\n      swap1\n      0x1\n      add\n      swap1\n      dup1\n      dup4\n      gt\n      tag_68\n      jumpi\n    tag_67:\n      pop\n      pop\n      pop\n      pop\n      pop\n      swap2\n      pop\n      dup1\n      dup1\n      sload\n      dup1\n      0x20\n      mul\n      0x20\n      add\n      mload(0x40)\n      swap1\n      dup2\n      add\n      0x40\n      mstore\n      dup1\n      swap3\n      swap2\n      swap1\n      dup2\n      dup2\n      mstore\n      0x20\n      add\n      dup3\n      dup1\n      sload\n      dup1\n      iszero\n      tag_69\n      jumpi\n      0x20\n      mul\n      dup3\n      add\n      swap2\n      swap1\n      0x0\n      mstore\n      keccak256(0x0, 0x20)\n      swap1\n      0x0\n      swap1\n    tag_70:\n      dup3\n      dup3\n      swap1\n      sload\n      swap1\n      0x100\n      exp\n      swap1\n      div\n      0xff\n      and\n      0xff\n      and\n      dup2\n      mstore\n      0x20\n      add\n      swap1\n      0x1\n      add\n      swap1\n      0x20\n      dup3\n      0x0\n      add\n      div\n      swap3\n      dup4\n      add\n      swap3\n      0x1\n      sub\n      dup3\n      mul\n      swap2\n      pop\n      dup1\n      dup5\n      gt\n      tag_70\n      jumpi\n      swap1\n      pop\n    tag_69:\n      pop\n      pop\n      pop\n      pop\n      pop\n      swap1\n      pop\n      swap4\n      pop\n      swap4\n      pop\n      swap4\n      pop\n      swap4\n      pop\n        /* \"fisco/EproductsInfoItem.sol\":2149:2310  function getTraceInfo()public constant returns(uint[],string[],address[],uint8[]){... */\n      swap1\n      swap2\n      swap3\n      swap4\n      jump\t// out\n        /* \"fisco/EproductsInfoItem.sol\":1654:2140  function addTraceInfoByRetailer(string traceName, address retailer,uint8 quality)public returns(bool){... */\n    tag_26:\n        /* \"fisco/EproductsInfoItem.sol\":1750:1754  bool */\n      0x0\n        /* \"fisco/EproductsInfoItem.sol\":1782:1783  1 */\n      0x1\n        /* \"fisco/EproductsInfoItem.sol\":1773:1780  _status */\n      0x6\n      0x1\n      swap1\n      sload\n      swap1\n      0x100\n      exp\n      swap1\n      div\n      0xff\n      and\n        /* \"fisco/EproductsInfoItem.sol\":1773:1783  _status==1 */\n      0xff\n      and\n      eq\n        /* \"fisco/EproductsInfoItem.sol\":1765:1814  require(_status==1,\"status must be distributing\") */\n      iszero\n      iszero\n      tag_72\n      jumpi\n      mload(0x40)\n      0x8c379a000000000000000000000000000000000000000000000000000000000\n      dup2\n      mstore\n      0x4\n      add\n      tag_73\n      swap1\n      jump(tag_74)\n    tag_73:\n      mload(0x40)\n      dup1\n      swap2\n      sub\n      swap1\n      revert\n    tag_72:\n        /* \"fisco/EproductsInfoItem.sol\":1840:1850  msg.sender */\n      caller\n        /* \"fisco/EproductsInfoItem.sol\":1832:1850  _owner==msg.sender */\n      0xffffffffffffffffffffffffffffffffffffffff\n      and\n        /* \"fisco/EproductsInfoItem.sol\":1832:1838  _owner */\n      0x6\n      0x2\n      swap1\n      sload\n      swap1\n      0x100\n      exp\n      swap1\n      div\n      0xffffffffffffffffffffffffffffffffffffffff\n      and\n        /* \"fisco/EproductsInfoItem.sol\":1832:1850  _owner==msg.sender */\n      0xffffffffffffffffffffffffffffffffffffffff\n      and\n      eq\n        /* \"fisco/EproductsInfoItem.sol\":1824:1884  require(_owner==msg.sender,\"only trace contract can invoke\") */\n      iszero\n      iszero\n      tag_75\n      jumpi\n      mload(0x40)\n      0x8c379a000000000000000000000000000000000000000000000000000000000\n      dup2\n      mstore\n      0x4\n      add\n      tag_76\n      swap1\n      jump(tag_34)\n    tag_76:\n      mload(0x40)\n      dup1\n      swap2\n      sub\n      swap1\n      revert\n    tag_75:\n        /* \"fisco/EproductsInfoItem.sol\":1894:1904  _timestamp */\n      0x0\n        /* \"fisco/EproductsInfoItem.sol\":1910:1913  now */\n      timestamp\n        /* \"fisco/EproductsInfoItem.sol\":1894:1914  _timestamp.push(now) */\n      swap1\n      dup1\n        /* \"--CODEGEN--\":39:40   */\n      0x1\n        /* \"--CODEGEN--\":33:36   */\n      dup2\n        /* \"--CODEGEN--\":27:37   */\n      sload\n        /* \"--CODEGEN--\":23:41   */\n      add\n        /* \"--CODEGEN--\":57:67   */\n      dup1\n        /* \"--CODEGEN--\":52:55   */\n      dup3\n        /* \"--CODEGEN--\":45:68   */\n      sstore\n        /* \"--CODEGEN--\":79:89   */\n      dup1\n        /* \"--CODEGEN--\":72:89   */\n      swap2\n      pop\n        /* \"--CODEGEN--\":0:93   */\n      pop\n        /* \"fisco/EproductsInfoItem.sol\":1894:1914  _timestamp.push(now) */\n      swap1\n      0x1\n      dup3\n      sub\n      swap1\n      0x0\n      mstore\n      keccak256(0x0, 0x20)\n      add\n      0x0\n      swap1\n      swap2\n      swap3\n      swap1\n      swap2\n      swap1\n      swap2\n      pop\n      sstore\n      pop\n        /* \"fisco/EproductsInfoItem.sol\":1924:1934  _traceName */\n      0x1\n        /* \"fisco/EproductsInfoItem.sol\":1940:1949  traceName */\n      dup5\n        /* \"fisco/EproductsInfoItem.sol\":1924:1950  _traceName.push(traceName) */\n      swap1\n      dup1\n        /* \"--CODEGEN--\":39:40   */\n      0x1\n        /* \"--CODEGEN--\":33:36   */\n      dup2\n        /* \"--CODEGEN--\":27:37   */\n      sload\n        /* \"--CODEGEN--\":23:41   */\n      add\n        /* \"--CODEGEN--\":57:67   */\n      dup1\n        /* \"--CODEGEN--\":52:55   */\n      dup3\n        /* \"--CODEGEN--\":45:68   */\n      sstore\n        /* \"--CODEGEN--\":79:89   */\n      dup1\n        /* \"--CODEGEN--\":72:89   */\n      swap2\n      pop\n        /* \"--CODEGEN--\":0:93   */\n      pop\n        /* \"fisco/EproductsInfoItem.sol\":1924:1950  _traceName.push(traceName) */\n      swap1\n      0x1\n      dup3\n      sub\n      swap1\n      0x0\n      mstore\n      keccak256(0x0, 0x20)\n      add\n      0x0\n      swap1\n      swap2\n      swap3\n      swap1\n      swap2\n      swap1\n      swap2\n      pop\n      swap1\n      dup1\n      mload\n      swap1\n      0x20\n      add\n      swap1\n      tag_79\n      swap3\n      swap2\n      swap1\n      jump\t// in(tag_38)\n    tag_79:\n      pop\n      pop\n        /* \"fisco/EproductsInfoItem.sol\":1978:1987  traceName */\n      dup4\n        /* \"fisco/EproductsInfoItem.sol\":1960:1977  _currentTraceName */\n      0x5\n        /* \"fisco/EproductsInfoItem.sol\":1960:1987  _currentTraceName=traceName */\n      swap1\n      dup1\n      mload\n      swap1\n      0x20\n      add\n      swap1\n      tag_80\n      swap3\n      swap2\n      swap1\n      jump\t// in(tag_38)\n    tag_80:\n      pop\n        /* \"fisco/EproductsInfoItem.sol\":1997:2010  _traceAddress */\n      0x2\n        /* \"fisco/EproductsInfoItem.sol\":2016:2024  retailer */\n      dup4\n        /* \"fisco/EproductsInfoItem.sol\":1997:2025  _traceAddress.push(retailer) */\n      swap1\n      dup1\n        /* \"--CODEGEN--\":39:40   */\n      0x1\n        /* \"--CODEGEN--\":33:36   */\n      dup2\n        /* \"--CODEGEN--\":27:37   */\n      sload\n        /* \"--CODEGEN--\":23:41   */\n      add\n        /* \"--CODEGEN--\":57:67   */\n      dup1\n        /* \"--CODEGEN--\":52:55   */\n      dup3\n        /* \"--CODEGEN--\":45:68   */\n      sstore\n        /* \"--CODEGEN--\":79:89   */\n      dup1\n        /* \"--CODEGEN--\":72:89   */\n      swap2\n      pop\n        /* \"--CODEGEN--\":0:93   */\n      pop\n        /* \"fisco/EproductsInfoItem.sol\":1997:2025  _traceAddress.push(retailer) */\n      swap1\n      0x1\n      dup3\n      sub\n      swap1\n      0x0\n      mstore\n      keccak256(0x0, 0x20)\n      add\n      0x0\n      swap1\n      swap2\n      swap3\n      swap1\n      swap2\n      swap1\n      swap2\n      0x100\n      exp\n      dup2\n      sload\n      dup2\n      0xffffffffffffffffffffffffffffffffffffffff\n      mul\n      not\n      and\n      swap1\n      dup4\n      0xffffffffffffffffffffffffffffffffffffffff\n      and\n      mul\n      or\n      swap1\n      sstore\n      pop\n      pop\n        /* \"fisco/EproductsInfoItem.sol\":2046:2053  quality */\n      dup2\n        /* \"fisco/EproductsInfoItem.sol\":2035:2043  _quality */\n      0x6\n      0x0\n        /* \"fisco/EproductsInfoItem.sol\":2035:2053  _quality = quality */\n      0x100\n      exp\n      dup2\n      sload\n      dup2\n      0xff\n      mul\n      not\n      and\n      swap1\n      dup4\n      0xff\n      and\n      mul\n      or\n      swap1\n      sstore\n      pop\n        /* \"fisco/EproductsInfoItem.sol\":2063:2076  _traceQuality */\n      0x3\n        /* \"fisco/EproductsInfoItem.sol\":2082:2090  _quality */\n      0x6\n      0x0\n      swap1\n      sload\n      swap1\n      0x100\n      exp\n      swap1\n      div\n      0xff\n      and\n        /* \"fisco/EproductsInfoItem.sol\":2063:2091  _traceQuality.push(_quality) */\n      swap1\n      dup1\n        /* \"--CODEGEN--\":39:40   */\n      0x1\n        /* \"--CODEGEN--\":33:36   */\n      dup2\n        /* \"--CODEGEN--\":27:37   */\n      sload\n        /* \"--CODEGEN--\":23:41   */\n      add\n        /* \"--CODEGEN--\":57:67   */\n      dup1\n        /* \"--CODEGEN--\":52:55   */\n      dup3\n        /* \"--CODEGEN--\":45:68   */\n      sstore\n        /* \"--CODEGEN--\":79:89   */\n      dup1\n        /* \"--CODEGEN--\":72:89   */\n      swap2\n      pop\n        /* \"--CODEGEN--\":0:93   */\n      pop\n        /* \"fisco/EproductsInfoItem.sol\":2063:2091  _traceQuality.push(_quality) */\n      swap1\n      0x1\n      dup3\n      sub\n      swap1\n      0x0\n      mstore\n      keccak256(0x0, 0x20)\n      swap1\n      0x20\n      swap2\n      dup3\n      dup3\n      div\n      add\n      swap2\n      swap1\n      mod\n      swap1\n      swap2\n      swap3\n      swap1\n      swap2\n      swap1\n      swap2\n      0x100\n      exp\n      dup2\n      sload\n      dup2\n      0xff\n      mul\n      not\n      and\n      swap1\n      dup4\n      0xff\n      and\n      mul\n      or\n      swap1\n      sstore\n      pop\n      pop\n        /* \"fisco/EproductsInfoItem.sol\":2111:2112  2 */\n      0x2\n        /* \"fisco/EproductsInfoItem.sol\":2101:2108  _status */\n      0x6\n      0x1\n        /* \"fisco/EproductsInfoItem.sol\":2101:2112  _status = 2 */\n      0x100\n      exp\n      dup2\n      sload\n      dup2\n      0xff\n      mul\n      not\n      and\n      swap1\n      dup4\n      0xff\n      and\n      mul\n      or\n      swap1\n      sstore\n      pop\n        /* \"fisco/EproductsInfoItem.sol\":2129:2133  true */\n      0x1\n        /* \"fisco/EproductsInfoItem.sol\":2122:2133  return true */\n      swap1\n      pop\n        /* \"fisco/EproductsInfoItem.sol\":1654:2140  function addTraceInfoByRetailer(string traceName, address retailer,uint8 quality)public returns(bool){... */\n      swap4\n      swap3\n      pop\n      pop\n      pop\n      jump\t// out\n        /* \"fisco/EproductsInfoItem.sol\":131:2512  contract EproductsInfoItem{... */\n    tag_38:\n      dup3\n      dup1\n      sload\n      0x1\n      dup2\n      0x1\n      and\n      iszero\n      0x100\n      mul\n      sub\n      and\n      0x2\n      swap1\n      div\n      swap1\n      0x0\n      mstore\n      keccak256(0x0, 0x20)\n      swap1\n      0x1f\n      add\n      0x20\n      swap1\n      div\n      dup2\n      add\n      swap3\n      dup3\n      0x1f\n      lt\n      tag_84\n      jumpi\n      dup1\n      mload\n      not(0xff)\n      and\n      dup4\n      dup1\n      add\n      or\n      dup6\n      sstore\n      jump(tag_83)\n    tag_84:\n      dup3\n      dup1\n      add\n      0x1\n      add\n      dup6\n      sstore\n      dup3\n      iszero\n      tag_83\n      jumpi\n      swap2\n      dup3\n      add\n    tag_85:\n      dup3\n      dup2\n      gt\n      iszero\n      tag_86\n      jumpi\n      dup3\n      mload\n      dup3\n      sstore\n      swap2\n      0x20\n      add\n      swap2\n      swap1\n      0x1\n      add\n      swap1\n      jump(tag_85)\n    tag_86:\n    tag_83:\n      pop\n      swap1\n      pop\n      tag_87\n      swap2\n      swap1\n      jump\t// in(tag_88)\n    tag_87:\n      pop\n      swap1\n      jump\t// out\n    tag_88:\n      tag_89\n      swap2\n      swap1\n    tag_90:\n      dup1\n      dup3\n      gt\n      iszero\n      tag_91\n      jumpi\n      0x0\n      dup2\n      0x0\n      swap1\n      sstore\n      pop\n      0x1\n      add\n      jump(tag_90)\n    tag_91:\n      pop\n      swap1\n      jump\n    tag_89:\n      swap1\n      jump\t// out\n        /* \"--CODEGEN--\":5:123   */\n    tag_93:\n      0x0\n        /* \"--CODEGEN--\":72:118   */\n      tag_94\n        /* \"--CODEGEN--\":110:116   */\n      dup3\n        /* \"--CODEGEN--\":97:117   */\n      calldataload\n        /* \"--CODEGEN--\":72:118   */\n      jump(tag_95)\n    tag_94:\n        /* \"--CODEGEN--\":63:118   */\n      swap1\n      pop\n        /* \"--CODEGEN--\":57:123   */\n      swap3\n      swap2\n      pop\n      pop\n      jump\n        /* \"--CODEGEN--\":131:573   */\n    tag_97:\n      0x0\n        /* \"--CODEGEN--\":233:236   */\n      dup3\n        /* \"--CODEGEN--\":226:230   */\n      0x1f\n        /* \"--CODEGEN--\":218:224   */\n      dup4\n        /* \"--CODEGEN--\":214:231   */\n      add\n        /* \"--CODEGEN--\":210:237   */\n      slt\n        /* \"--CODEGEN--\":203:238   */\n      iszero\n        /* \"--CODEGEN--\":200:202   */\n      iszero\n      tag_98\n      jumpi\n        /* \"--CODEGEN--\":251:252   */\n      0x0\n        /* \"--CODEGEN--\":248:249   */\n      dup1\n        /* \"--CODEGEN--\":241:253   */\n      revert\n        /* \"--CODEGEN--\":200:202   */\n    tag_98:\n        /* \"--CODEGEN--\":288:294   */\n      dup2\n        /* \"--CODEGEN--\":275:295   */\n      calldataload\n        /* \"--CODEGEN--\":310:375   */\n      tag_99\n        /* \"--CODEGEN--\":325:374   */\n      tag_100\n        /* \"--CODEGEN--\":367:373   */\n      dup3\n        /* \"--CODEGEN--\":325:374   */\n      jump(tag_101)\n    tag_100:\n        /* \"--CODEGEN--\":310:375   */\n      jump(tag_102)\n    tag_99:\n        /* \"--CODEGEN--\":301:375   */\n      swap2\n      pop\n        /* \"--CODEGEN--\":395:401   */\n      dup1\n        /* \"--CODEGEN--\":388:393   */\n      dup3\n        /* \"--CODEGEN--\":381:402   */\n      mstore\n        /* \"--CODEGEN--\":431:435   */\n      0x20\n        /* \"--CODEGEN--\":423:429   */\n      dup4\n        /* \"--CODEGEN--\":419:436   */\n      add\n        /* \"--CODEGEN--\":464:468   */\n      0x20\n        /* \"--CODEGEN--\":457:462   */\n      dup4\n        /* \"--CODEGEN--\":453:469   */\n      add\n        /* \"--CODEGEN--\":499:502   */\n      dup6\n        /* \"--CODEGEN--\":490:496   */\n      dup4\n        /* \"--CODEGEN--\":485:488   */\n      dup4\n        /* \"--CODEGEN--\":481:497   */\n      add\n        /* \"--CODEGEN--\":478:503   */\n      gt\n        /* \"--CODEGEN--\":475:477   */\n      iszero\n      tag_103\n      jumpi\n        /* \"--CODEGEN--\":516:517   */\n      0x0\n        /* \"--CODEGEN--\":513:514   */\n      dup1\n        /* \"--CODEGEN--\":506:518   */\n      revert\n        /* \"--CODEGEN--\":475:477   */\n    tag_103:\n        /* \"--CODEGEN--\":526:567   */\n      tag_104\n        /* \"--CODEGEN--\":560:566   */\n      dup4\n        /* \"--CODEGEN--\":555:558   */\n      dup3\n        /* \"--CODEGEN--\":550:553   */\n      dup5\n        /* \"--CODEGEN--\":526:567   */\n      jump(tag_105)\n    tag_104:\n        /* \"--CODEGEN--\":193:573   */\n      pop\n      pop\n      pop\n      swap3\n      swap2\n      pop\n      pop\n      jump\n        /* \"--CODEGEN--\":581:695   */\n    tag_107:\n      0x0\n        /* \"--CODEGEN--\":646:690   */\n      tag_108\n        /* \"--CODEGEN--\":682:688   */\n      dup3\n        /* \"--CODEGEN--\":669:689   */\n      calldataload\n        /* \"--CODEGEN--\":646:690   */\n      jump(tag_109)\n    tag_108:\n        /* \"--CODEGEN--\":637:690   */\n      swap1\n      pop\n        /* \"--CODEGEN--\":631:695   */\n      swap3\n      swap2\n      pop\n      pop\n      jump\n        /* \"--CODEGEN--\":702:1295   */\n    tag_9:\n      0x0\n      dup1\n      0x0\n        /* \"--CODEGEN--\":848:850   */\n      0x60\n        /* \"--CODEGEN--\":836:845   */\n      dup5\n        /* \"--CODEGEN--\":827:834   */\n      dup7\n        /* \"--CODEGEN--\":823:846   */\n      sub\n        /* \"--CODEGEN--\":819:851   */\n      slt\n        /* \"--CODEGEN--\":816:818   */\n      iszero\n      tag_111\n      jumpi\n        /* \"--CODEGEN--\":864:865   */\n      0x0\n        /* \"--CODEGEN--\":861:862   */\n      dup1\n        /* \"--CODEGEN--\":854:866   */\n      revert\n        /* \"--CODEGEN--\":816:818   */\n    tag_111:\n        /* \"--CODEGEN--\":927:928   */\n      0x0\n        /* \"--CODEGEN--\":916:925   */\n      dup5\n        /* \"--CODEGEN--\":912:929   */\n      add\n        /* \"--CODEGEN--\":899:930   */\n      calldataload\n        /* \"--CODEGEN--\":950:968   */\n      0xffffffffffffffff\n        /* \"--CODEGEN--\":942:948   */\n      dup2\n        /* \"--CODEGEN--\":939:969   */\n      gt\n        /* \"--CODEGEN--\":936:938   */\n      iszero\n      tag_112\n      jumpi\n        /* \"--CODEGEN--\":982:983   */\n      0x0\n        /* \"--CODEGEN--\":979:980   */\n      dup1\n        /* \"--CODEGEN--\":972:984   */\n      revert\n        /* \"--CODEGEN--\":936:938   */\n    tag_112:\n        /* \"--CODEGEN--\":1002:1065   */\n      tag_113\n        /* \"--CODEGEN--\":1057:1064   */\n      dup7\n        /* \"--CODEGEN--\":1048:1054   */\n      dup3\n        /* \"--CODEGEN--\":1037:1046   */\n      dup8\n        /* \"--CODEGEN--\":1033:1055   */\n      add\n        /* \"--CODEGEN--\":1002:1065   */\n      jump(tag_97)\n    tag_113:\n        /* \"--CODEGEN--\":992:1065   */\n      swap4\n      pop\n        /* \"--CODEGEN--\":878:1071   */\n      pop\n        /* \"--CODEGEN--\":1102:1104   */\n      0x20\n        /* \"--CODEGEN--\":1120:1173   */\n      tag_114\n        /* \"--CODEGEN--\":1165:1172   */\n      dup7\n        /* \"--CODEGEN--\":1156:1162   */\n      dup3\n        /* \"--CODEGEN--\":1145:1154   */\n      dup8\n        /* \"--CODEGEN--\":1141:1163   */\n      add\n        /* \"--CODEGEN--\":1120:1173   */\n      jump(tag_93)\n    tag_114:\n        /* \"--CODEGEN--\":1110:1173   */\n      swap3\n      pop\n        /* \"--CODEGEN--\":1081:1179   */\n      pop\n        /* \"--CODEGEN--\":1210:1212   */\n      0x40\n        /* \"--CODEGEN--\":1228:1279   */\n      tag_115\n        /* \"--CODEGEN--\":1271:1278   */\n      dup7\n        /* \"--CODEGEN--\":1262:1268   */\n      dup3\n        /* \"--CODEGEN--\":1251:1260   */\n      dup8\n        /* \"--CODEGEN--\":1247:1269   */\n      add\n        /* \"--CODEGEN--\":1228:1279   */\n      jump(tag_107)\n    tag_115:\n        /* \"--CODEGEN--\":1218:1279   */\n      swap2\n      pop\n        /* \"--CODEGEN--\":1189:1285   */\n      pop\n        /* \"--CODEGEN--\":810:1295   */\n      swap3\n      pop\n      swap3\n      pop\n      swap3\n      jump\n        /* \"--CODEGEN--\":1302:1412   */\n    tag_117:\n        /* \"--CODEGEN--\":1375:1406   */\n      tag_118\n        /* \"--CODEGEN--\":1400:1405   */\n      dup2\n        /* \"--CODEGEN--\":1375:1406   */\n      jump(tag_119)\n    tag_118:\n        /* \"--CODEGEN--\":1370:1373   */\n      dup3\n        /* \"--CODEGEN--\":1363:1407   */\n      mstore\n        /* \"--CODEGEN--\":1357:1412   */\n      pop\n      pop\n      jump\n        /* \"--CODEGEN--\":1450:2040   */\n    tag_121:\n      0x0\n        /* \"--CODEGEN--\":1585:1639   */\n      tag_122\n        /* \"--CODEGEN--\":1633:1638   */\n      dup3\n        /* \"--CODEGEN--\":1585:1639   */\n      jump(tag_123)\n    tag_122:\n        /* \"--CODEGEN--\":1657:1663   */\n      dup1\n        /* \"--CODEGEN--\":1652:1655   */\n      dup5\n        /* \"--CODEGEN--\":1645:1664   */\n      mstore\n        /* \"--CODEGEN--\":1681:1685   */\n      0x20\n        /* \"--CODEGEN--\":1676:1679   */\n      dup5\n        /* \"--CODEGEN--\":1672:1686   */\n      add\n        /* \"--CODEGEN--\":1665:1686   */\n      swap4\n      pop\n        /* \"--CODEGEN--\":1726:1782   */\n      tag_124\n        /* \"--CODEGEN--\":1776:1781   */\n      dup4\n        /* \"--CODEGEN--\":1726:1782   */\n      jump(tag_125)\n    tag_124:\n        /* \"--CODEGEN--\":1803:1804   */\n      0x0\n        /* \"--CODEGEN--\":1788:2018   */\n    tag_126:\n        /* \"--CODEGEN--\":1813:1819   */\n      dup3\n        /* \"--CODEGEN--\":1810:1811   */\n      dup2\n        /* \"--CODEGEN--\":1807:1820   */\n      lt\n        /* \"--CODEGEN--\":1788:2018   */\n      iszero\n      tag_127\n      jumpi\n        /* \"--CODEGEN--\":1853:1906   */\n      tag_129\n        /* \"--CODEGEN--\":1902:1905   */\n      dup7\n        /* \"--CODEGEN--\":1893:1899   */\n      dup4\n        /* \"--CODEGEN--\":1887:1900   */\n      mload\n        /* \"--CODEGEN--\":1853:1906   */\n      jump(tag_117)\n    tag_129:\n        /* \"--CODEGEN--\":1923:1983   */\n      tag_130\n        /* \"--CODEGEN--\":1976:1982   */\n      dup3\n        /* \"--CODEGEN--\":1923:1983   */\n      jump(tag_131)\n    tag_130:\n        /* \"--CODEGEN--\":1913:1983   */\n      swap2\n      pop\n        /* \"--CODEGEN--\":2006:2010   */\n      0x20\n        /* \"--CODEGEN--\":2001:2004   */\n      dup7\n        /* \"--CODEGEN--\":1997:2011   */\n      add\n        /* \"--CODEGEN--\":1990:2011   */\n      swap6\n      pop\n        /* \"--CODEGEN--\":1835:1836   */\n      0x1\n        /* \"--CODEGEN--\":1832:1833   */\n      dup2\n        /* \"--CODEGEN--\":1828:1837   */\n      add\n        /* \"--CODEGEN--\":1823:1837   */\n      swap1\n      pop\n        /* \"--CODEGEN--\":1788:2018   */\n      jump(tag_126)\n    tag_127:\n        /* \"--CODEGEN--\":1792:1806   */\n      pop\n        /* \"--CODEGEN--\":2031:2034   */\n      dup5\n        /* \"--CODEGEN--\":2024:2034   */\n      swap3\n      pop\n        /* \"--CODEGEN--\":1564:2040   */\n      pop\n      pop\n      swap3\n      swap2\n      pop\n      pop\n      jump\n        /* \"--CODEGEN--\":2077:2850   */\n    tag_133:\n      0x0\n        /* \"--CODEGEN--\":2224:2284   */\n      tag_134\n        /* \"--CODEGEN--\":2278:2283   */\n      dup3\n        /* \"--CODEGEN--\":2224:2284   */\n      jump(tag_135)\n    tag_134:\n        /* \"--CODEGEN--\":2302:2308   */\n      dup1\n        /* \"--CODEGEN--\":2297:2300   */\n      dup5\n        /* \"--CODEGEN--\":2290:2309   */\n      mstore\n        /* \"--CODEGEN--\":2326:2330   */\n      0x20\n        /* \"--CODEGEN--\":2321:2324   */\n      dup5\n        /* \"--CODEGEN--\":2317:2331   */\n      add\n        /* \"--CODEGEN--\":2310:2331   */\n      swap4\n      pop\n        /* \"--CODEGEN--\":2374:2377   */\n      dup4\n        /* \"--CODEGEN--\":2416:2420   */\n      0x20\n        /* \"--CODEGEN--\":2408:2414   */\n      dup3\n        /* \"--CODEGEN--\":2404:2421   */\n      mul\n        /* \"--CODEGEN--\":2399:2402   */\n      dup6\n        /* \"--CODEGEN--\":2395:2422   */\n      add\n        /* \"--CODEGEN--\":2442:2504   */\n      tag_136\n        /* \"--CODEGEN--\":2498:2503   */\n      dup6\n        /* \"--CODEGEN--\":2442:2504   */\n      jump(tag_137)\n    tag_136:\n        /* \"--CODEGEN--\":2525:2526   */\n      0x0\n        /* \"--CODEGEN--\":2510:2811   */\n    tag_138:\n        /* \"--CODEGEN--\":2535:2541   */\n      dup5\n        /* \"--CODEGEN--\":2532:2533   */\n      dup2\n        /* \"--CODEGEN--\":2529:2542   */\n      lt\n        /* \"--CODEGEN--\":2510:2811   */\n      iszero\n      tag_139\n      jumpi\n        /* \"--CODEGEN--\":2597:2606   */\n      dup4\n        /* \"--CODEGEN--\":2591:2595   */\n      dup4\n        /* \"--CODEGEN--\":2587:2607   */\n      sub\n        /* \"--CODEGEN--\":2582:2585   */\n      dup9\n        /* \"--CODEGEN--\":2575:2608   */\n      mstore\n        /* \"--CODEGEN--\":2623:2693   */\n      tag_141\n        /* \"--CODEGEN--\":2688:2692   */\n      dup4\n        /* \"--CODEGEN--\":2679:2685   */\n      dup4\n        /* \"--CODEGEN--\":2673:2686   */\n      mload\n        /* \"--CODEGEN--\":2623:2693   */\n      jump(tag_142)\n    tag_141:\n        /* \"--CODEGEN--\":2615:2693   */\n      swap3\n      pop\n        /* \"--CODEGEN--\":2710:2776   */\n      tag_143\n        /* \"--CODEGEN--\":2769:2775   */\n      dup3\n        /* \"--CODEGEN--\":2710:2776   */\n      jump(tag_144)\n    tag_143:\n        /* \"--CODEGEN--\":2700:2776   */\n      swap2\n      pop\n        /* \"--CODEGEN--\":2799:2803   */\n      0x20\n        /* \"--CODEGEN--\":2794:2797   */\n      dup9\n        /* \"--CODEGEN--\":2790:2804   */\n      add\n        /* \"--CODEGEN--\":2783:2804   */\n      swap8\n      pop\n        /* \"--CODEGEN--\":2557:2558   */\n      0x1\n        /* \"--CODEGEN--\":2554:2555   */\n      dup2\n        /* \"--CODEGEN--\":2550:2559   */\n      add\n        /* \"--CODEGEN--\":2545:2559   */\n      swap1\n      pop\n        /* \"--CODEGEN--\":2510:2811   */\n      jump(tag_138)\n    tag_139:\n        /* \"--CODEGEN--\":2514:2528   */\n      pop\n        /* \"--CODEGEN--\":2824:2828   */\n      dup2\n        /* \"--CODEGEN--\":2817:2828   */\n      swap7\n      pop\n        /* \"--CODEGEN--\":2841:2844   */\n      dup7\n        /* \"--CODEGEN--\":2834:2844   */\n      swap5\n      pop\n        /* \"--CODEGEN--\":2203:2850   */\n      pop\n      pop\n      pop\n      pop\n      swap3\n      swap2\n      pop\n      pop\n      jump\n        /* \"--CODEGEN--\":2889:3479   */\n    tag_146:\n      0x0\n        /* \"--CODEGEN--\":3024:3078   */\n      tag_147\n        /* \"--CODEGEN--\":3072:3077   */\n      dup3\n        /* \"--CODEGEN--\":3024:3078   */\n      jump(tag_148)\n    tag_147:\n        /* \"--CODEGEN--\":3096:3102   */\n      dup1\n        /* \"--CODEGEN--\":3091:3094   */\n      dup5\n        /* \"--CODEGEN--\":3084:3103   */\n      mstore\n        /* \"--CODEGEN--\":3120:3124   */\n      0x20\n        /* \"--CODEGEN--\":3115:3118   */\n      dup5\n        /* \"--CODEGEN--\":3111:3125   */\n      add\n        /* \"--CODEGEN--\":3104:3125   */\n      swap4\n      pop\n        /* \"--CODEGEN--\":3165:3221   */\n      tag_149\n        /* \"--CODEGEN--\":3215:3220   */\n      dup4\n        /* \"--CODEGEN--\":3165:3221   */\n      jump(tag_150)\n    tag_149:\n        /* \"--CODEGEN--\":3242:3243   */\n      0x0\n        /* \"--CODEGEN--\":3227:3457   */\n    tag_151:\n        /* \"--CODEGEN--\":3252:3258   */\n      dup3\n        /* \"--CODEGEN--\":3249:3250   */\n      dup2\n        /* \"--CODEGEN--\":3246:3259   */\n      lt\n        /* \"--CODEGEN--\":3227:3457   */\n      iszero\n      tag_152\n      jumpi\n        /* \"--CODEGEN--\":3292:3345   */\n      tag_154\n        /* \"--CODEGEN--\":3341:3344   */\n      dup7\n        /* \"--CODEGEN--\":3332:3338   */\n      dup4\n        /* \"--CODEGEN--\":3326:3339   */\n      mload\n        /* \"--CODEGEN--\":3292:3345   */\n      jump(tag_155)\n    tag_154:\n        /* \"--CODEGEN--\":3362:3422   */\n      tag_156\n        /* \"--CODEGEN--\":3415:3421   */\n      dup3\n        /* \"--CODEGEN--\":3362:3422   */\n      jump(tag_157)\n    tag_156:\n        /* \"--CODEGEN--\":3352:3422   */\n      swap2\n      pop\n        /* \"--CODEGEN--\":3445:3449   */\n      0x20\n        /* \"--CODEGEN--\":3440:3443   */\n      dup7\n        /* \"--CODEGEN--\":3436:3450   */\n      add\n        /* \"--CODEGEN--\":3429:3450   */\n      swap6\n      pop\n        /* \"--CODEGEN--\":3274:3275   */\n      0x1\n        /* \"--CODEGEN--\":3271:3272   */\n      dup2\n        /* \"--CODEGEN--\":3267:3276   */\n      add\n        /* \"--CODEGEN--\":3262:3276   */\n      swap1\n      pop\n        /* \"--CODEGEN--\":3227:3457   */\n      jump(tag_151)\n    tag_152:\n        /* \"--CODEGEN--\":3231:3245   */\n      pop\n        /* \"--CODEGEN--\":3470:3473   */\n      dup5\n        /* \"--CODEGEN--\":3463:3473   */\n      swap3\n      pop\n        /* \"--CODEGEN--\":3003:3479   */\n      pop\n      pop\n      swap3\n      swap2\n      pop\n      pop\n      jump\n        /* \"--CODEGEN--\":3514:4090   */\n    tag_159:\n      0x0\n        /* \"--CODEGEN--\":3645:3697   */\n      tag_160\n        /* \"--CODEGEN--\":3691:3696   */\n      dup3\n        /* \"--CODEGEN--\":3645:3697   */\n      jump(tag_161)\n    tag_160:\n        /* \"--CODEGEN--\":3715:3721   */\n      dup1\n        /* \"--CODEGEN--\":3710:3713   */\n      dup5\n        /* \"--CODEGEN--\":3703:3722   */\n      mstore\n        /* \"--CODEGEN--\":3739:3743   */\n      0x20\n        /* \"--CODEGEN--\":3734:3737   */\n      dup5\n        /* \"--CODEGEN--\":3730:3744   */\n      add\n        /* \"--CODEGEN--\":3723:3744   */\n      swap4\n      pop\n        /* \"--CODEGEN--\":3784:3838   */\n      tag_162\n        /* \"--CODEGEN--\":3832:3837   */\n      dup4\n        /* \"--CODEGEN--\":3784:3838   */\n      jump(tag_163)\n    tag_162:\n        /* \"--CODEGEN--\":3859:3860   */\n      0x0\n        /* \"--CODEGEN--\":3844:4068   */\n    tag_164:\n        /* \"--CODEGEN--\":3869:3875   */\n      dup3\n        /* \"--CODEGEN--\":3866:3867   */\n      dup2\n        /* \"--CODEGEN--\":3863:3876   */\n      lt\n        /* \"--CODEGEN--\":3844:4068   */\n      iszero\n      tag_165\n      jumpi\n        /* \"--CODEGEN--\":3909:3958   */\n      tag_167\n        /* \"--CODEGEN--\":3954:3957   */\n      dup7\n        /* \"--CODEGEN--\":3945:3951   */\n      dup4\n        /* \"--CODEGEN--\":3939:3952   */\n      mload\n        /* \"--CODEGEN--\":3909:3958   */\n      jump(tag_168)\n    tag_167:\n        /* \"--CODEGEN--\":3975:4033   */\n      tag_169\n        /* \"--CODEGEN--\":4026:4032   */\n      dup3\n        /* \"--CODEGEN--\":3975:4033   */\n      jump(tag_170)\n    tag_169:\n        /* \"--CODEGEN--\":3965:4033   */\n      swap2\n      pop\n        /* \"--CODEGEN--\":4056:4060   */\n      0x20\n        /* \"--CODEGEN--\":4051:4054   */\n      dup7\n        /* \"--CODEGEN--\":4047:4061   */\n      add\n        /* \"--CODEGEN--\":4040:4061   */\n      swap6\n      pop\n        /* \"--CODEGEN--\":3891:3892   */\n      0x1\n        /* \"--CODEGEN--\":3888:3889   */\n      dup2\n        /* \"--CODEGEN--\":3884:3893   */\n      add\n        /* \"--CODEGEN--\":3879:3893   */\n      swap1\n      pop\n        /* \"--CODEGEN--\":3844:4068   */\n      jump(tag_164)\n    tag_165:\n        /* \"--CODEGEN--\":3848:3862   */\n      pop\n        /* \"--CODEGEN--\":4081:4084   */\n      dup5\n        /* \"--CODEGEN--\":4074:4084   */\n      swap3\n      pop\n        /* \"--CODEGEN--\":3624:4090   */\n      pop\n      pop\n      swap3\n      swap2\n      pop\n      pop\n      jump\n        /* \"--CODEGEN--\":4098:4199   */\n    tag_172:\n        /* \"--CODEGEN--\":4165:4193   */\n      tag_173\n        /* \"--CODEGEN--\":4187:4192   */\n      dup2\n        /* \"--CODEGEN--\":4165:4193   */\n      jump(tag_174)\n    tag_173:\n        /* \"--CODEGEN--\":4160:4163   */\n      dup3\n        /* \"--CODEGEN--\":4153:4194   */\n      mstore\n        /* \"--CODEGEN--\":4147:4199   */\n      pop\n      pop\n      jump\n        /* \"--CODEGEN--\":4206:4506   */\n    tag_176:\n      0x0\n        /* \"--CODEGEN--\":4308:4347   */\n      tag_177\n        /* \"--CODEGEN--\":4341:4346   */\n      dup3\n        /* \"--CODEGEN--\":4308:4347   */\n      jump(tag_178)\n    tag_177:\n        /* \"--CODEGEN--\":4364:4370   */\n      dup1\n        /* \"--CODEGEN--\":4359:4362   */\n      dup5\n        /* \"--CODEGEN--\":4352:4371   */\n      mstore\n        /* \"--CODEGEN--\":4376:4439   */\n      tag_179\n        /* \"--CODEGEN--\":4432:4438   */\n      dup2\n        /* \"--CODEGEN--\":4425:4429   */\n      0x20\n        /* \"--CODEGEN--\":4420:4423   */\n      dup7\n        /* \"--CODEGEN--\":4416:4430   */\n      add\n        /* \"--CODEGEN--\":4409:4413   */\n      0x20\n        /* \"--CODEGEN--\":4402:4407   */\n      dup7\n        /* \"--CODEGEN--\":4398:4414   */\n      add\n        /* \"--CODEGEN--\":4376:4439   */\n      jump(tag_180)\n    tag_179:\n        /* \"--CODEGEN--\":4471:4500   */\n      tag_181\n        /* \"--CODEGEN--\":4493:4499   */\n      dup2\n        /* \"--CODEGEN--\":4471:4500   */\n      jump(tag_182)\n    tag_181:\n        /* \"--CODEGEN--\":4464:4468   */\n      0x20\n        /* \"--CODEGEN--\":4459:4462   */\n      dup6\n        /* \"--CODEGEN--\":4455:4469   */\n      add\n        /* \"--CODEGEN--\":4451:4501   */\n      add\n        /* \"--CODEGEN--\":4444:4501   */\n      swap2\n      pop\n        /* \"--CODEGEN--\":4288:4506   */\n      pop\n      swap3\n      swap2\n      pop\n      pop\n      jump\n        /* \"--CODEGEN--\":4513:4805   */\n    tag_142:\n      0x0\n        /* \"--CODEGEN--\":4611:4646   */\n      tag_184\n        /* \"--CODEGEN--\":4640:4645   */\n      dup3\n        /* \"--CODEGEN--\":4611:4646   */\n      jump(tag_185)\n    tag_184:\n        /* \"--CODEGEN--\":4663:4669   */\n      dup1\n        /* \"--CODEGEN--\":4658:4661   */\n      dup5\n        /* \"--CODEGEN--\":4651:4670   */\n      mstore\n        /* \"--CODEGEN--\":4675:4738   */\n      tag_186\n        /* \"--CODEGEN--\":4731:4737   */\n      dup2\n        /* \"--CODEGEN--\":4724:4728   */\n      0x20\n        /* \"--CODEGEN--\":4719:4722   */\n      dup7\n        /* \"--CODEGEN--\":4715:4729   */\n      add\n        /* \"--CODEGEN--\":4708:4712   */\n      0x20\n        /* \"--CODEGEN--\":4701:4706   */\n      dup7\n        /* \"--CODEGEN--\":4697:4713   */\n      add\n        /* \"--CODEGEN--\":4675:4738   */\n      jump(tag_180)\n    tag_186:\n        /* \"--CODEGEN--\":4770:4799   */\n      tag_187\n        /* \"--CODEGEN--\":4792:4798   */\n      dup2\n        /* \"--CODEGEN--\":4770:4799   */\n      jump(tag_182)\n    tag_187:\n        /* \"--CODEGEN--\":4763:4767   */\n      0x20\n        /* \"--CODEGEN--\":4758:4761   */\n      dup6\n        /* \"--CODEGEN--\":4754:4768   */\n      add\n        /* \"--CODEGEN--\":4750:4800   */\n      add\n        /* \"--CODEGEN--\":4743:4800   */\n      swap2\n      pop\n        /* \"--CODEGEN--\":4591:4805   */\n      pop\n      swap3\n      swap2\n      pop\n      pop\n      jump\n        /* \"--CODEGEN--\":4813:5109   */\n    tag_189:\n      0x0\n        /* \"--CODEGEN--\":4968:4970   */\n      0x1e\n        /* \"--CODEGEN--\":4963:4966   */\n      dup3\n        /* \"--CODEGEN--\":4956:4971   */\n      mstore\n        /* \"--CODEGEN--\":5005:5071   */\n      0x6f6e6c7920747261636520636f6e74726163742063616e20696e766f6b650000\n        /* \"--CODEGEN--\":5000:5002   */\n      0x20\n        /* \"--CODEGEN--\":4995:4998   */\n      dup4\n        /* \"--CODEGEN--\":4991:5003   */\n      add\n        /* \"--CODEGEN--\":4984:5072   */\n      mstore\n        /* \"--CODEGEN--\":5100:5102   */\n      0x40\n        /* \"--CODEGEN--\":5095:5098   */\n      dup3\n        /* \"--CODEGEN--\":5091:5103   */\n      add\n        /* \"--CODEGEN--\":5084:5103   */\n      swap1\n      pop\n        /* \"--CODEGEN--\":4949:5109   */\n      swap2\n      swap1\n      pop\n      jump\n        /* \"--CODEGEN--\":5118:5414   */\n    tag_191:\n      0x0\n        /* \"--CODEGEN--\":5273:5275   */\n      0x18\n        /* \"--CODEGEN--\":5268:5271   */\n      dup3\n        /* \"--CODEGEN--\":5261:5276   */\n      mstore\n        /* \"--CODEGEN--\":5310:5376   */\n      0x737461747573206d7573742062652070726f647563696e670000000000000000\n        /* \"--CODEGEN--\":5305:5307   */\n      0x20\n        /* \"--CODEGEN--\":5300:5303   */\n      dup4\n        /* \"--CODEGEN--\":5296:5308   */\n      add\n        /* \"--CODEGEN--\":5289:5377   */\n      mstore\n        /* \"--CODEGEN--\":5405:5407   */\n      0x40\n        /* \"--CODEGEN--\":5400:5403   */\n      dup3\n        /* \"--CODEGEN--\":5396:5408   */\n      add\n        /* \"--CODEGEN--\":5389:5408   */\n      swap1\n      pop\n        /* \"--CODEGEN--\":5254:5414   */\n      swap2\n      swap1\n      pop\n      jump\n        /* \"--CODEGEN--\":5423:5719   */\n    tag_193:\n      0x0\n        /* \"--CODEGEN--\":5578:5580   */\n      0x1b\n        /* \"--CODEGEN--\":5573:5576   */\n      dup3\n        /* \"--CODEGEN--\":5566:5581   */\n      mstore\n        /* \"--CODEGEN--\":5615:5681   */\n      0x737461747573206d75737420626520646973747269627574696e670000000000\n        /* \"--CODEGEN--\":5610:5612   */\n      0x20\n        /* \"--CODEGEN--\":5605:5608   */\n      dup4\n        /* \"--CODEGEN--\":5601:5613   */\n      add\n        /* \"--CODEGEN--\":5594:5682   */\n      mstore\n        /* \"--CODEGEN--\":5710:5712   */\n      0x40\n        /* \"--CODEGEN--\":5705:5708   */\n      dup3\n        /* \"--CODEGEN--\":5701:5713   */\n      add\n        /* \"--CODEGEN--\":5694:5713   */\n      swap1\n      pop\n        /* \"--CODEGEN--\":5559:5719   */\n      swap2\n      swap1\n      pop\n      jump\n        /* \"--CODEGEN--\":5727:5837   */\n    tag_155:\n        /* \"--CODEGEN--\":5800:5831   */\n      tag_195\n        /* \"--CODEGEN--\":5825:5830   */\n      dup2\n        /* \"--CODEGEN--\":5800:5831   */\n      jump(tag_196)\n    tag_195:\n        /* \"--CODEGEN--\":5795:5798   */\n      dup3\n        /* \"--CODEGEN--\":5788:5832   */\n      mstore\n        /* \"--CODEGEN--\":5782:5837   */\n      pop\n      pop\n      jump\n        /* \"--CODEGEN--\":5844:5948   */\n    tag_168:\n        /* \"--CODEGEN--\":5913:5942   */\n      tag_198\n        /* \"--CODEGEN--\":5936:5941   */\n      dup2\n        /* \"--CODEGEN--\":5913:5942   */\n      jump(tag_199)\n    tag_198:\n        /* \"--CODEGEN--\":5908:5911   */\n      dup3\n        /* \"--CODEGEN--\":5901:5943   */\n      mstore\n        /* \"--CODEGEN--\":5895:5948   */\n      pop\n      pop\n      jump\n        /* \"--CODEGEN--\":5955:7060   */\n    tag_22:\n      0x0\n        /* \"--CODEGEN--\":6355:6358   */\n      0x80\n        /* \"--CODEGEN--\":6344:6353   */\n      dup3\n        /* \"--CODEGEN--\":6340:6359   */\n      add\n        /* \"--CODEGEN--\":6332:6359   */\n      swap1\n      pop\n        /* \"--CODEGEN--\":6406:6415   */\n      dup2\n        /* \"--CODEGEN--\":6400:6404   */\n      dup2\n        /* \"--CODEGEN--\":6396:6416   */\n      sub\n        /* \"--CODEGEN--\":6392:6393   */\n      0x0\n        /* \"--CODEGEN--\":6381:6390   */\n      dup4\n        /* \"--CODEGEN--\":6377:6394   */\n      add\n        /* \"--CODEGEN--\":6370:6417   */\n      mstore\n        /* \"--CODEGEN--\":6431:6529   */\n      tag_201\n        /* \"--CODEGEN--\":6524:6528   */\n      dup2\n        /* \"--CODEGEN--\":6515:6521   */\n      dup8\n        /* \"--CODEGEN--\":6431:6529   */\n      jump(tag_146)\n    tag_201:\n        /* \"--CODEGEN--\":6423:6529   */\n      swap1\n      pop\n        /* \"--CODEGEN--\":6577:6586   */\n      dup2\n        /* \"--CODEGEN--\":6571:6575   */\n      dup2\n        /* \"--CODEGEN--\":6567:6587   */\n      sub\n        /* \"--CODEGEN--\":6562:6564   */\n      0x20\n        /* \"--CODEGEN--\":6551:6560   */\n      dup4\n        /* \"--CODEGEN--\":6547:6565   */\n      add\n        /* \"--CODEGEN--\":6540:6588   */\n      mstore\n        /* \"--CODEGEN--\":6602:6712   */\n      tag_202\n        /* \"--CODEGEN--\":6707:6711   */\n      dup2\n        /* \"--CODEGEN--\":6698:6704   */\n      dup7\n        /* \"--CODEGEN--\":6602:6712   */\n      jump(tag_133)\n    tag_202:\n        /* \"--CODEGEN--\":6594:6712   */\n      swap1\n      pop\n        /* \"--CODEGEN--\":6760:6769   */\n      dup2\n        /* \"--CODEGEN--\":6754:6758   */\n      dup2\n        /* \"--CODEGEN--\":6750:6770   */\n      sub\n        /* \"--CODEGEN--\":6745:6747   */\n      0x40\n        /* \"--CODEGEN--\":6734:6743   */\n      dup4\n        /* \"--CODEGEN--\":6730:6748   */\n      add\n        /* \"--CODEGEN--\":6723:6771   */\n      mstore\n        /* \"--CODEGEN--\":6785:6883   */\n      tag_203\n        /* \"--CODEGEN--\":6878:6882   */\n      dup2\n        /* \"--CODEGEN--\":6869:6875   */\n      dup6\n        /* \"--CODEGEN--\":6785:6883   */\n      jump(tag_121)\n    tag_203:\n        /* \"--CODEGEN--\":6777:6883   */\n      swap1\n      pop\n        /* \"--CODEGEN--\":6931:6940   */\n      dup2\n        /* \"--CODEGEN--\":6925:6929   */\n      dup2\n        /* \"--CODEGEN--\":6921:6941   */\n      sub\n        /* \"--CODEGEN--\":6916:6918   */\n      0x60\n        /* \"--CODEGEN--\":6905:6914   */\n      dup4\n        /* \"--CODEGEN--\":6901:6919   */\n      add\n        /* \"--CODEGEN--\":6894:6942   */\n      mstore\n        /* \"--CODEGEN--\":6956:7050   */\n      tag_204\n        /* \"--CODEGEN--\":7045:7049   */\n      dup2\n        /* \"--CODEGEN--\":7036:7042   */\n      dup5\n        /* \"--CODEGEN--\":6956:7050   */\n      jump(tag_159)\n    tag_204:\n        /* \"--CODEGEN--\":6948:7050   */\n      swap1\n      pop\n        /* \"--CODEGEN--\":6326:7060   */\n      swap6\n      swap5\n      pop\n      pop\n      pop\n      pop\n      pop\n      jump\n        /* \"--CODEGEN--\":7067:7248   */\n    tag_12:\n      0x0\n        /* \"--CODEGEN--\":7169:7171   */\n      0x20\n        /* \"--CODEGEN--\":7158:7167   */\n      dup3\n        /* \"--CODEGEN--\":7154:7172   */\n      add\n        /* \"--CODEGEN--\":7146:7172   */\n      swap1\n      pop\n        /* \"--CODEGEN--\":7183:7238   */\n      tag_206\n        /* \"--CODEGEN--\":7235:7236   */\n      0x0\n        /* \"--CODEGEN--\":7224:7233   */\n      dup4\n        /* \"--CODEGEN--\":7220:7237   */\n      add\n        /* \"--CODEGEN--\":7211:7217   */\n      dup5\n        /* \"--CODEGEN--\":7183:7238   */\n      jump(tag_172)\n    tag_206:\n        /* \"--CODEGEN--\":7140:7248   */\n      swap3\n      swap2\n      pop\n      pop\n      jump\n        /* \"--CODEGEN--\":7255:7642   */\n    tag_34:\n      0x0\n        /* \"--CODEGEN--\":7436:7438   */\n      0x20\n        /* \"--CODEGEN--\":7425:7434   */\n      dup3\n        /* \"--CODEGEN--\":7421:7439   */\n      add\n        /* \"--CODEGEN--\":7413:7439   */\n      swap1\n      pop\n        /* \"--CODEGEN--\":7486:7495   */\n      dup2\n        /* \"--CODEGEN--\":7480:7484   */\n      dup2\n        /* \"--CODEGEN--\":7476:7496   */\n      sub\n        /* \"--CODEGEN--\":7472:7473   */\n      0x0\n        /* \"--CODEGEN--\":7461:7470   */\n      dup4\n        /* \"--CODEGEN--\":7457:7474   */\n      add\n        /* \"--CODEGEN--\":7450:7497   */\n      mstore\n        /* \"--CODEGEN--\":7511:7632   */\n      tag_208\n        /* \"--CODEGEN--\":7627:7631   */\n      dup2\n        /* \"--CODEGEN--\":7511:7632   */\n      jump(tag_189)\n    tag_208:\n        /* \"--CODEGEN--\":7503:7632   */\n      swap1\n      pop\n        /* \"--CODEGEN--\":7407:7642   */\n      swap2\n      swap1\n      pop\n      jump\n        /* \"--CODEGEN--\":7649:8036   */\n    tag_31:\n      0x0\n        /* \"--CODEGEN--\":7830:7832   */\n      0x20\n        /* \"--CODEGEN--\":7819:7828   */\n      dup3\n        /* \"--CODEGEN--\":7815:7833   */\n      add\n        /* \"--CODEGEN--\":7807:7833   */\n      swap1\n      pop\n        /* \"--CODEGEN--\":7880:7889   */\n      dup2\n        /* \"--CODEGEN--\":7874:7878   */\n      dup2\n        /* \"--CODEGEN--\":7870:7890   */\n      sub\n        /* \"--CODEGEN--\":7866:7867   */\n      0x0\n        /* \"--CODEGEN--\":7855:7864   */\n      dup4\n        /* \"--CODEGEN--\":7851:7868   */\n      add\n        /* \"--CODEGEN--\":7844:7891   */\n      mstore\n        /* \"--CODEGEN--\":7905:8026   */\n      tag_210\n        /* \"--CODEGEN--\":8021:8025   */\n      dup2\n        /* \"--CODEGEN--\":7905:8026   */\n      jump(tag_191)\n    tag_210:\n        /* \"--CODEGEN--\":7897:8026   */\n      swap1\n      pop\n        /* \"--CODEGEN--\":7801:8036   */\n      swap2\n      swap1\n      pop\n      jump\n        /* \"--CODEGEN--\":8043:8430   */\n    tag_74:\n      0x0\n        /* \"--CODEGEN--\":8224:8226   */\n      0x20\n        /* \"--CODEGEN--\":8213:8222   */\n      dup3\n        /* \"--CODEGEN--\":8209:8227   */\n      add\n        /* \"--CODEGEN--\":8201:8227   */\n      swap1\n      pop\n        /* \"--CODEGEN--\":8274:8283   */\n      dup2\n        /* \"--CODEGEN--\":8268:8272   */\n      dup2\n        /* \"--CODEGEN--\":8264:8284   */\n      sub\n        /* \"--CODEGEN--\":8260:8261   */\n      0x0\n        /* \"--CODEGEN--\":8249:8258   */\n      dup4\n        /* \"--CODEGEN--\":8245:8262   */\n      add\n        /* \"--CODEGEN--\":8238:8285   */\n      mstore\n        /* \"--CODEGEN--\":8299:8420   */\n      tag_212\n        /* \"--CODEGEN--\":8415:8419   */\n      dup2\n        /* \"--CODEGEN--\":8299:8420   */\n      jump(tag_193)\n    tag_212:\n        /* \"--CODEGEN--\":8291:8420   */\n      swap1\n      pop\n        /* \"--CODEGEN--\":8195:8430   */\n      swap2\n      swap1\n      pop\n      jump\n        /* \"--CODEGEN--\":8437:9394   */\n    tag_17:\n      0x0\n        /* \"--CODEGEN--\":8741:8744   */\n      0xc0\n        /* \"--CODEGEN--\":8730:8739   */\n      dup3\n        /* \"--CODEGEN--\":8726:8745   */\n      add\n        /* \"--CODEGEN--\":8718:8745   */\n      swap1\n      pop\n        /* \"--CODEGEN--\":8756:8817   */\n      tag_214\n        /* \"--CODEGEN--\":8814:8815   */\n      0x0\n        /* \"--CODEGEN--\":8803:8812   */\n      dup4\n        /* \"--CODEGEN--\":8799:8816   */\n      add\n        /* \"--CODEGEN--\":8790:8796   */\n      dup10\n        /* \"--CODEGEN--\":8756:8817   */\n      jump(tag_155)\n    tag_214:\n        /* \"--CODEGEN--\":8865:8874   */\n      dup2\n        /* \"--CODEGEN--\":8859:8863   */\n      dup2\n        /* \"--CODEGEN--\":8855:8875   */\n      sub\n        /* \"--CODEGEN--\":8850:8852   */\n      0x20\n        /* \"--CODEGEN--\":8839:8848   */\n      dup4\n        /* \"--CODEGEN--\":8835:8853   */\n      add\n        /* \"--CODEGEN--\":8828:8876   */\n      mstore\n        /* \"--CODEGEN--\":8890:8958   */\n      tag_215\n        /* \"--CODEGEN--\":8953:8957   */\n      dup2\n        /* \"--CODEGEN--\":8944:8950   */\n      dup9\n        /* \"--CODEGEN--\":8890:8958   */\n      jump(tag_176)\n    tag_215:\n        /* \"--CODEGEN--\":8882:8958   */\n      swap1\n      pop\n        /* \"--CODEGEN--\":9006:9015   */\n      dup2\n        /* \"--CODEGEN--\":9000:9004   */\n      dup2\n        /* \"--CODEGEN--\":8996:9016   */\n      sub\n        /* \"--CODEGEN--\":8991:8993   */\n      0x40\n        /* \"--CODEGEN--\":8980:8989   */\n      dup4\n        /* \"--CODEGEN--\":8976:8994   */\n      add\n        /* \"--CODEGEN--\":8969:9017   */\n      mstore\n        /* \"--CODEGEN--\":9031:9099   */\n      tag_216\n        /* \"--CODEGEN--\":9094:9098   */\n      dup2\n        /* \"--CODEGEN--\":9085:9091   */\n      dup8\n        /* \"--CODEGEN--\":9031:9099   */\n      jump(tag_176)\n    tag_216:\n        /* \"--CODEGEN--\":9023:9099   */\n      swap1\n      pop\n        /* \"--CODEGEN--\":9147:9156   */\n      dup2\n        /* \"--CODEGEN--\":9141:9145   */\n      dup2\n        /* \"--CODEGEN--\":9137:9157   */\n      sub\n        /* \"--CODEGEN--\":9132:9134   */\n      0x60\n        /* \"--CODEGEN--\":9121:9130   */\n      dup4\n        /* \"--CODEGEN--\":9117:9135   */\n      add\n        /* \"--CODEGEN--\":9110:9158   */\n      mstore\n        /* \"--CODEGEN--\":9172:9240   */\n      tag_217\n        /* \"--CODEGEN--\":9235:9239   */\n      dup2\n        /* \"--CODEGEN--\":9226:9232   */\n      dup7\n        /* \"--CODEGEN--\":9172:9240   */\n      jump(tag_176)\n    tag_217:\n        /* \"--CODEGEN--\":9164:9240   */\n      swap1\n      pop\n        /* \"--CODEGEN--\":9251:9314   */\n      tag_218\n        /* \"--CODEGEN--\":9309:9312   */\n      0x80\n        /* \"--CODEGEN--\":9298:9307   */\n      dup4\n        /* \"--CODEGEN--\":9294:9313   */\n      add\n        /* \"--CODEGEN--\":9285:9291   */\n      dup6\n        /* \"--CODEGEN--\":9251:9314   */\n      jump(tag_117)\n    tag_218:\n        /* \"--CODEGEN--\":9325:9384   */\n      tag_219\n        /* \"--CODEGEN--\":9379:9382   */\n      0xa0\n        /* \"--CODEGEN--\":9368:9377   */\n      dup4\n        /* \"--CODEGEN--\":9364:9383   */\n      add\n        /* \"--CODEGEN--\":9355:9361   */\n      dup5\n        /* \"--CODEGEN--\":9325:9384   */\n      jump(tag_168)\n    tag_219:\n        /* \"--CODEGEN--\":8712:9394   */\n      swap8\n      swap7\n      pop\n      pop\n      pop\n      pop\n      pop\n      pop\n      pop\n      jump\n        /* \"--CODEGEN--\":9401:9657   */\n    tag_102:\n      0x0\n        /* \"--CODEGEN--\":9463:9465   */\n      0x40\n        /* \"--CODEGEN--\":9457:9466   */\n      mload\n        /* \"--CODEGEN--\":9447:9466   */\n      swap1\n      pop\n        /* \"--CODEGEN--\":9501:9505   */\n      dup2\n        /* \"--CODEGEN--\":9493:9499   */\n      dup2\n        /* \"--CODEGEN--\":9489:9506   */\n      add\n        /* \"--CODEGEN--\":9600:9606   */\n      dup2\n        /* \"--CODEGEN--\":9588:9598   */\n      dup2\n        /* \"--CODEGEN--\":9585:9607   */\n      lt\n        /* \"--CODEGEN--\":9564:9582   */\n      0xffffffffffffffff\n        /* \"--CODEGEN--\":9552:9562   */\n      dup3\n        /* \"--CODEGEN--\":9549:9583   */\n      gt\n        /* \"--CODEGEN--\":9546:9608   */\n      or\n        /* \"--CODEGEN--\":9543:9545   */\n      iszero\n      tag_221\n      jumpi\n        /* \"--CODEGEN--\":9621:9622   */\n      0x0\n        /* \"--CODEGEN--\":9618:9619   */\n      dup1\n        /* \"--CODEGEN--\":9611:9623   */\n      revert\n        /* \"--CODEGEN--\":9543:9545   */\n    tag_221:\n        /* \"--CODEGEN--\":9641:9651   */\n      dup1\n        /* \"--CODEGEN--\":9637:9639   */\n      0x40\n        /* \"--CODEGEN--\":9630:9652   */\n      mstore\n        /* \"--CODEGEN--\":9441:9657   */\n      pop\n      swap2\n      swap1\n      pop\n      jump\n        /* \"--CODEGEN--\":9664:9923   */\n    tag_101:\n      0x0\n        /* \"--CODEGEN--\":9808:9826   */\n      0xffffffffffffffff\n        /* \"--CODEGEN--\":9800:9806   */\n      dup3\n        /* \"--CODEGEN--\":9797:9827   */\n      gt\n        /* \"--CODEGEN--\":9794:9796   */\n      iszero\n      tag_223\n      jumpi\n        /* \"--CODEGEN--\":9840:9841   */\n      0x0\n        /* \"--CODEGEN--\":9837:9838   */\n      dup1\n        /* \"--CODEGEN--\":9830:9842   */\n      revert\n        /* \"--CODEGEN--\":9794:9796   */\n    tag_223:\n        /* \"--CODEGEN--\":9884:9888   */\n      0x1f\n        /* \"--CODEGEN--\":9880:9889   */\n      not\n        /* \"--CODEGEN--\":9873:9877   */\n      0x1f\n        /* \"--CODEGEN--\":9865:9871   */\n      dup4\n        /* \"--CODEGEN--\":9861:9878   */\n      add\n        /* \"--CODEGEN--\":9857:9890   */\n      and\n        /* \"--CODEGEN--\":9849:9890   */\n      swap1\n      pop\n        /* \"--CODEGEN--\":9913:9917   */\n      0x20\n        /* \"--CODEGEN--\":9907:9911   */\n      dup2\n        /* \"--CODEGEN--\":9903:9918   */\n      add\n        /* \"--CODEGEN--\":9895:9918   */\n      swap1\n      pop\n        /* \"--CODEGEN--\":9731:9923   */\n      swap2\n      swap1\n      pop\n      jump\n        /* \"--CODEGEN--\":9932:10053   */\n    tag_125:\n      0x0\n        /* \"--CODEGEN--\":10041:10045   */\n      0x20\n        /* \"--CODEGEN--\":10033:10039   */\n      dup3\n        /* \"--CODEGEN--\":10029:10046   */\n      add\n        /* \"--CODEGEN--\":10018:10046   */\n      swap1\n      pop\n        /* \"--CODEGEN--\":10010:10053   */\n      swap2\n      swap1\n      pop\n      jump\n        /* \"--CODEGEN--\":10064:10191   */\n    tag_137:\n      0x0\n        /* \"--CODEGEN--\":10179:10183   */\n      0x20\n        /* \"--CODEGEN--\":10171:10177   */\n      dup3\n        /* \"--CODEGEN--\":10167:10184   */\n      add\n        /* \"--CODEGEN--\":10156:10184   */\n      swap1\n      pop\n        /* \"--CODEGEN--\":10148:10191   */\n      swap2\n      swap1\n      pop\n      jump\n        /* \"--CODEGEN--\":10202:10323   */\n    tag_150:\n      0x0\n        /* \"--CODEGEN--\":10311:10315   */\n      0x20\n        /* \"--CODEGEN--\":10303:10309   */\n      dup3\n        /* \"--CODEGEN--\":10299:10316   */\n      add\n        /* \"--CODEGEN--\":10288:10316   */\n      swap1\n      pop\n        /* \"--CODEGEN--\":10280:10323   */\n      swap2\n      swap1\n      pop\n      jump\n        /* \"--CODEGEN--\":10334:10453   */\n    tag_163:\n      0x0\n        /* \"--CODEGEN--\":10441:10445   */\n      0x20\n        /* \"--CODEGEN--\":10433:10439   */\n      dup3\n        /* \"--CODEGEN--\":10429:10446   */\n      add\n        /* \"--CODEGEN--\":10418:10446   */\n      swap1\n      pop\n        /* \"--CODEGEN--\":10410:10453   */\n      swap2\n      swap1\n      pop\n      jump\n        /* \"--CODEGEN--\":10462:10569   */\n    tag_123:\n      0x0\n        /* \"--CODEGEN--\":10558:10563   */\n      dup2\n        /* \"--CODEGEN--\":10552:10564   */\n      mload\n        /* \"--CODEGEN--\":10542:10564   */\n      swap1\n      pop\n        /* \"--CODEGEN--\":10536:10569   */\n      swap2\n      swap1\n      pop\n      jump\n        /* \"--CODEGEN--\":10576:10689   */\n    tag_135:\n      0x0\n        /* \"--CODEGEN--\":10678:10683   */\n      dup2\n        /* \"--CODEGEN--\":10672:10684   */\n      mload\n        /* \"--CODEGEN--\":10662:10684   */\n      swap1\n      pop\n        /* \"--CODEGEN--\":10656:10689   */\n      swap2\n      swap1\n      pop\n      jump\n        /* \"--CODEGEN--\":10696:10803   */\n    tag_148:\n      0x0\n        /* \"--CODEGEN--\":10792:10797   */\n      dup2\n        /* \"--CODEGEN--\":10786:10798   */\n      mload\n        /* \"--CODEGEN--\":10776:10798   */\n      swap1\n      pop\n        /* \"--CODEGEN--\":10770:10803   */\n      swap2\n      swap1\n      pop\n      jump\n        /* \"--CODEGEN--\":10810:10915   */\n    tag_161:\n      0x0\n        /* \"--CODEGEN--\":10904:10909   */\n      dup2\n        /* \"--CODEGEN--\":10898:10910   */\n      mload\n        /* \"--CODEGEN--\":10888:10910   */\n      swap1\n      pop\n        /* \"--CODEGEN--\":10882:10915   */\n      swap2\n      swap1\n      pop\n      jump\n        /* \"--CODEGEN--\":10922:11010   */\n    tag_185:\n      0x0\n        /* \"--CODEGEN--\":10999:11004   */\n      dup2\n        /* \"--CODEGEN--\":10993:11005   */\n      mload\n        /* \"--CODEGEN--\":10983:11005   */\n      swap1\n      pop\n        /* \"--CODEGEN--\":10977:11010   */\n      swap2\n      swap1\n      pop\n      jump\n        /* \"--CODEGEN--\":11017:11109   */\n    tag_178:\n      0x0\n        /* \"--CODEGEN--\":11098:11103   */\n      dup2\n        /* \"--CODEGEN--\":11092:11104   */\n      mload\n        /* \"--CODEGEN--\":11082:11104   */\n      swap1\n      pop\n        /* \"--CODEGEN--\":11076:11109   */\n      swap2\n      swap1\n      pop\n      jump\n        /* \"--CODEGEN--\":11117:11239   */\n    tag_131:\n      0x0\n        /* \"--CODEGEN--\":11228:11232   */\n      0x20\n        /* \"--CODEGEN--\":11220:11226   */\n      dup3\n        /* \"--CODEGEN--\":11216:11233   */\n      add\n        /* \"--CODEGEN--\":11205:11233   */\n      swap1\n      pop\n        /* \"--CODEGEN--\":11198:11239   */\n      swap2\n      swap1\n      pop\n      jump\n        /* \"--CODEGEN--\":11248:11376   */\n    tag_144:\n      0x0\n        /* \"--CODEGEN--\":11365:11369   */\n      0x20\n        /* \"--CODEGEN--\":11357:11363   */\n      dup3\n        /* \"--CODEGEN--\":11353:11370   */\n      add\n        /* \"--CODEGEN--\":11342:11370   */\n      swap1\n      pop\n        /* \"--CODEGEN--\":11335:11376   */\n      swap2\n      swap1\n      pop\n      jump\n        /* \"--CODEGEN--\":11385:11507   */\n    tag_157:\n      0x0\n        /* \"--CODEGEN--\":11496:11500   */\n      0x20\n        /* \"--CODEGEN--\":11488:11494   */\n      dup3\n        /* \"--CODEGEN--\":11484:11501   */\n      add\n        /* \"--CODEGEN--\":11473:11501   */\n      swap1\n      pop\n        /* \"--CODEGEN--\":11466:11507   */\n      swap2\n      swap1\n      pop\n      jump\n        /* \"--CODEGEN--\":11516:11636   */\n    tag_170:\n      0x0\n        /* \"--CODEGEN--\":11625:11629   */\n      0x20\n        /* \"--CODEGEN--\":11617:11623   */\n      dup3\n        /* \"--CODEGEN--\":11613:11630   */\n      add\n        /* \"--CODEGEN--\":11602:11630   */\n      swap1\n      pop\n        /* \"--CODEGEN--\":11595:11636   */\n      swap2\n      swap1\n      pop\n      jump\n        /* \"--CODEGEN--\":11644:11772   */\n    tag_119:\n      0x0\n        /* \"--CODEGEN--\":11724:11766   */\n      0xffffffffffffffffffffffffffffffffffffffff\n        /* \"--CODEGEN--\":11717:11722   */\n      dup3\n        /* \"--CODEGEN--\":11713:11767   */\n      and\n        /* \"--CODEGEN--\":11702:11767   */\n      swap1\n      pop\n        /* \"--CODEGEN--\":11696:11772   */\n      swap2\n      swap1\n      pop\n      jump\n        /* \"--CODEGEN--\":11779:11871   */\n    tag_174:\n      0x0\n        /* \"--CODEGEN--\":11859:11864   */\n      dup2\n        /* \"--CODEGEN--\":11852:11865   */\n      iszero\n        /* \"--CODEGEN--\":11845:11866   */\n      iszero\n        /* \"--CODEGEN--\":11834:11866   */\n      swap1\n      pop\n        /* \"--CODEGEN--\":11828:11871   */\n      swap2\n      swap1\n      pop\n      jump\n        /* \"--CODEGEN--\":11878:11957   */\n    tag_196:\n      0x0\n        /* \"--CODEGEN--\":11947:11952   */\n      dup2\n        /* \"--CODEGEN--\":11936:11952   */\n      swap1\n      pop\n        /* \"--CODEGEN--\":11930:11957   */\n      swap2\n      swap1\n      pop\n      jump\n        /* \"--CODEGEN--\":11964:12052   */\n    tag_199:\n      0x0\n        /* \"--CODEGEN--\":12042:12046   */\n      0xff\n        /* \"--CODEGEN--\":12035:12040   */\n      dup3\n        /* \"--CODEGEN--\":12031:12047   */\n      and\n        /* \"--CODEGEN--\":12020:12047   */\n      swap1\n      pop\n        /* \"--CODEGEN--\":12014:12052   */\n      swap2\n      swap1\n      pop\n      jump\n        /* \"--CODEGEN--\":12059:12187   */\n    tag_95:\n      0x0\n        /* \"--CODEGEN--\":12139:12181   */\n      0xffffffffffffffffffffffffffffffffffffffff\n        /* \"--CODEGEN--\":12132:12137   */\n      dup3\n        /* \"--CODEGEN--\":12128:12182   */\n      and\n        /* \"--CODEGEN--\":12117:12182   */\n      swap1\n      pop\n        /* \"--CODEGEN--\":12111:12187   */\n      swap2\n      swap1\n      pop\n      jump\n        /* \"--CODEGEN--\":12194:12282   */\n    tag_109:\n      0x0\n        /* \"--CODEGEN--\":12272:12276   */\n      0xff\n        /* \"--CODEGEN--\":12265:12270   */\n      dup3\n        /* \"--CODEGEN--\":12261:12277   */\n      and\n        /* \"--CODEGEN--\":12250:12277   */\n      swap1\n      pop\n        /* \"--CODEGEN--\":12244:12282   */\n      swap2\n      swap1\n      pop\n      jump\n        /* \"--CODEGEN--\":12290:12435   */\n    tag_105:\n        /* \"--CODEGEN--\":12371:12377   */\n      dup3\n        /* \"--CODEGEN--\":12366:12369   */\n      dup2\n        /* \"--CODEGEN--\":12361:12364   */\n      dup4\n        /* \"--CODEGEN--\":12348:12378   */\n      calldatacopy\n        /* \"--CODEGEN--\":12427:12428   */\n      0x0\n        /* \"--CODEGEN--\":12418:12424   */\n      dup4\n        /* \"--CODEGEN--\":12413:12416   */\n      dup4\n        /* \"--CODEGEN--\":12409:12425   */\n      add\n        /* \"--CODEGEN--\":12402:12429   */\n      mstore\n        /* \"--CODEGEN--\":12341:12435   */\n      pop\n      pop\n      pop\n      jump\n        /* \"--CODEGEN--\":12444:12712   */\n    tag_180:\n        /* \"--CODEGEN--\":12509:12510   */\n      0x0\n        /* \"--CODEGEN--\":12516:12617   */\n    tag_246:\n        /* \"--CODEGEN--\":12530:12536   */\n      dup4\n        /* \"--CODEGEN--\":12527:12528   */\n      dup2\n        /* \"--CODEGEN--\":12524:12537   */\n      lt\n        /* \"--CODEGEN--\":12516:12617   */\n      iszero\n      tag_247\n      jumpi\n        /* \"--CODEGEN--\":12606:12607   */\n      dup1\n        /* \"--CODEGEN--\":12601:12604   */\n      dup3\n        /* \"--CODEGEN--\":12597:12608   */\n      add\n        /* \"--CODEGEN--\":12591:12609   */\n      mload\n        /* \"--CODEGEN--\":12587:12588   */\n      dup2\n        /* \"--CODEGEN--\":12582:12585   */\n      dup5\n        /* \"--CODEGEN--\":12578:12589   */\n      add\n        /* \"--CODEGEN--\":12571:12610   */\n      mstore\n        /* \"--CODEGEN--\":12552:12554   */\n      0x20\n        /* \"--CODEGEN--\":12549:12550   */\n      dup2\n        /* \"--CODEGEN--\":12545:12555   */\n      add\n        /* \"--CODEGEN--\":12540:12555   */\n      swap1\n      pop\n        /* \"--CODEGEN--\":12516:12617   */\n      jump(tag_246)\n    tag_247:\n        /* \"--CODEGEN--\":12632:12638   */\n      dup4\n        /* \"--CODEGEN--\":12629:12630   */\n      dup2\n        /* \"--CODEGEN--\":12626:12639   */\n      gt\n        /* \"--CODEGEN--\":12623:12625   */\n      iszero\n      tag_249\n      jumpi\n        /* \"--CODEGEN--\":12697:12698   */\n      0x0\n        /* \"--CODEGEN--\":12688:12694   */\n      dup5\n        /* \"--CODEGEN--\":12683:12686   */\n      dup5\n        /* \"--CODEGEN--\":12679:12695   */\n      add\n        /* \"--CODEGEN--\":12672:12699   */\n      mstore\n        /* \"--CODEGEN--\":12623:12625   */\n    tag_249:\n        /* \"--CODEGEN--\":12493:12712   */\n      pop\n      pop\n      pop\n      pop\n      jump\n        /* \"--CODEGEN--\":12720:12817   */\n    tag_182:\n      0x0\n        /* \"--CODEGEN--\":12808:12810   */\n      0x1f\n        /* \"--CODEGEN--\":12804:12811   */\n      not\n        /* \"--CODEGEN--\":12799:12801   */\n      0x1f\n        /* \"--CODEGEN--\":12792:12797   */\n      dup4\n        /* \"--CODEGEN--\":12788:12802   */\n      add\n        /* \"--CODEGEN--\":12784:12812   */\n      and\n        /* \"--CODEGEN--\":12774:12812   */\n      swap1\n      pop\n        /* \"--CODEGEN--\":12768:12817   */\n      swap2\n      swap1\n      pop\n      jump\n\n    auxdata: 0xa265627a7a723058209e2301d4a3eda5a76fa5e7ca88ec3942d5bee99dbd7f40a344c3e2c59c39114b6c6578706572696d656e74616cf50037\n}\n",
				"bytecode": {
					"linkReferences": {},
					"object": "60806040523480156200001157600080fd5b506040516200172f3803806200172f83398101806040526200003791908101906200033f565b60004290806001815401808255809150509060018203906000526020600020016000909192909190915055506001839080600181540180825580915050906001820390600052602060002001600090919290919091509080519060200190620000a292919062000206565b505060028190806001815401808255809150509060018203906000526020600020016000909192909190916101000a81548173ffffffffffffffffffffffffffffffffffffffff021916908373ffffffffffffffffffffffffffffffffffffffff16021790555050600382908060018154018082558091505090600182039060005260206000209060209182820401919006909192909190916101000a81548160ff021916908360ff1602179055505083600490805190602001906200016a92919062000206565b5082600590805190602001906200018392919062000206565b5081600660006101000a81548160ff021916908360ff1602179055506000600660016101000a81548160ff021916908360ff16021790555033600660026101000a81548173ffffffffffffffffffffffffffffffffffffffff021916908373ffffffffffffffffffffffffffffffffffffffff160217905550505050506200049b565b828054600181600116156101000203166002900490600052602060002090601f016020900481019282601f106200024957805160ff19168380011785556200027a565b828001600101855582156200027a579182015b82811115620002795782518255916020019190600101906200025c565b5b5090506200028991906200028d565b5090565b620002b291905b80821115620002ae57600081600090555060010162000294565b5090565b90565b6000620002c3825162000438565b905092915050565b600082601f8301121515620002df57600080fd5b8151620002f6620002f0826200040b565b620003dd565b915080825260208301602083018583830111156200031357600080fd5b6200032083828462000465565b50505092915050565b600062000337825162000458565b905092915050565b600080600080608085870312156200035657600080fd5b600085015167ffffffffffffffff8111156200037157600080fd5b6200037f87828801620002cb565b945050602085015167ffffffffffffffff8111156200039d57600080fd5b620003ab87828801620002cb565b9350506040620003be8782880162000329565b9250506060620003d187828801620002b5565b91505092959194509250565b6000604051905081810181811067ffffffffffffffff821117156200040157600080fd5b8060405250919050565b600067ffffffffffffffff8211156200042357600080fd5b601f19601f8301169050602081019050919050565b600073ffffffffffffffffffffffffffffffffffffffff82169050919050565b600060ff82169050919050565b60005b838110156200048557808201518184015260208101905062000468565b8381111562000495576000848401525b50505050565b61128480620004ab6000396000f300608060405260043610610062576000357c0100000000000000000000000000000000000000000000000000000000900463ffffffff16806306e72967146100675780631a772baf146100a4578063f0d984e4146100d4578063f650350d14610102575b600080fd5b34801561007357600080fd5b5061008e60048036036100899190810190610bff565b61013f565b60405161009b9190610f93565b60405180910390f35b3480156100b057600080fd5b506100b96103aa565b6040516100cb9695949392919061100e565b60405180910390f35b3480156100e057600080fd5b506100e961061f565b6040516100f99493929190610f32565b60405180910390f35b34801561010e57600080fd5b5061012960048036036101249190810190610bff565b610870565b6040516101369190610f93565b60405180910390f35b600080600660019054906101000a900460ff1660ff16141515610197576040517f08c379a000000000000000000000000000000000000000000000000000000000815260040161018e90610fce565b60405180910390fd5b3373ffffffffffffffffffffffffffffffffffffffff16600660029054906101000a900473ffffffffffffffffffffffffffffffffffffffff1673ffffffffffffffffffffffffffffffffffffffff16141515610229576040517f08c379a000000000000000000000000000000000000000000000000000000000815260040161022090610fae565b60405180910390fd5b60004290806001815401808255809150509060018203906000526020600020016000909192909190915055506001849080600181540180825580915050906001820390600052602060002001600090919290919091509080519060200190610292929190610adc565b505083600590805190602001906102aa929190610adc565b5060028390806001815401808255809150509060018203906000526020600020016000909192909190916101000a81548173ffffffffffffffffffffffffffffffffffffffff021916908373ffffffffffffffffffffffffffffffffffffffff1602179055505081600660006101000a81548160ff021916908360ff1602179055506003600660009054906101000a900460ff16908060018154018082558091505090600182039060005260206000209060209182820401919006909192909190916101000a81548160ff021916908360ff160217905550506001600660016101000a81548160ff021916908360ff160217905550600190509392505050565b600060608060606000806000808154811015156103c357fe5b9060005260206000200154600160008154811015156103de57fe5b9060005260206000200160046005600260008154811015156103fc57fe5b9060005260206000200160009054906101000a900473ffffffffffffffffffffffffffffffffffffffff16600660009054906101000a900460ff16848054600181600116156101000203166002900480601f0160208091040260200160405190810160405280929190818152602001828054600181600116156101000203166002900480156104cc5780601f106104a1576101008083540402835291602001916104cc565b820191906000526020600020905b8154815290600101906020018083116104af57829003601f168201915b50505050509450838054600181600116156101000203166002900480601f0160208091040260200160405190810160405280929190818152602001828054600181600116156101000203166002900480156105685780601f1061053d57610100808354040283529160200191610568565b820191906000526020600020905b81548152906001019060200180831161054b57829003601f168201915b50505050509350828054600181600116156101000203166002900480601f0160208091040260200160405190810160405280929190818152602001828054600181600116156101000203166002900480156106045780601f106105d957610100808354040283529160200191610604565b820191906000526020600020905b8154815290600101906020018083116105e757829003601f168201915b50505050509250955095509550955095509550909192939495565b60608060608060006001600260038380548060200260200160405190810160405280929190818152602001828054801561067857602002820191906000526020600020905b815481526020019060010190808311610664575b5050505050935082805480602002602001604051908101604052809291908181526020016000905b8282101561075c578382906000526020600020018054600181600116156101000203166002900480601f0160208091040260200160405190810160405280929190818152602001828054600181600116156101000203166002900480156107485780601f1061071d57610100808354040283529160200191610748565b820191906000526020600020905b81548152906001019060200180831161072b57829003601f168201915b5050505050815260200190600101906106a0565b505050509250818054806020026020016040519081016040528092919081815260200182805480156107e357602002820191906000526020600020905b8160009054906101000a900473ffffffffffffffffffffffffffffffffffffffff1673ffffffffffffffffffffffffffffffffffffffff1681526020019060010190808311610799575b505050505091508080548060200260200160405190810160405280929190818152602001828054801561085b57602002820191906000526020600020906000905b82829054906101000a900460ff1660ff16815260200190600101906020826000010492830192600103820291508084116108245790505b50505050509050935093509350935090919293565b60006001600660019054906101000a900460ff1660ff161415156108c9576040517f08c379a00000000000000000000000000000000000000000000000000000000081526004016108c090610fee565b60405180910390fd5b3373ffffffffffffffffffffffffffffffffffffffff16600660029054906101000a900473ffffffffffffffffffffffffffffffffffffffff1673ffffffffffffffffffffffffffffffffffffffff1614151561095b576040517f08c379a000000000000000000000000000000000000000000000000000000000815260040161095290610fae565b60405180910390fd5b600042908060018154018082558091505090600182039060005260206000200160009091929091909150555060018490806001815401808255809150509060018203906000526020600020016000909192909190915090805190602001906109c4929190610adc565b505083600590805190602001906109dc929190610adc565b5060028390806001815401808255809150509060018203906000526020600020016000909192909190916101000a81548173ffffffffffffffffffffffffffffffffffffffff021916908373ffffffffffffffffffffffffffffffffffffffff1602179055505081600660006101000a81548160ff021916908360ff1602179055506003600660009054906101000a900460ff16908060018154018082558091505090600182039060005260206000209060209182820401919006909192909190916101000a81548160ff021916908360ff160217905550506002600660016101000a81548160ff021916908360ff160217905550600190509392505050565b828054600181600116156101000203166002900490600052602060002090601f016020900481019282601f10610b1d57805160ff1916838001178555610b4b565b82800160010185558215610b4b579182015b82811115610b4a578251825591602001919060010190610b2f565b5b509050610b589190610b5c565b5090565b610b7e91905b80821115610b7a576000816000905550600101610b62565b5090565b90565b6000610b8d82356111ca565b905092915050565b600082601f8301121515610ba857600080fd5b8135610bbb610bb6826110b1565b611084565b91508082526020830160208301858383011115610bd757600080fd5b610be28382846111f7565b50505092915050565b6000610bf782356111ea565b905092915050565b600080600060608486031215610c1457600080fd5b600084013567ffffffffffffffff811115610c2e57600080fd5b610c3a86828701610b95565b9350506020610c4b86828701610b81565b9250506040610c5c86828701610beb565b9150509250925092565b610c6f81611187565b82525050565b6000610c8082611111565b808452602084019350610c92836110dd565b60005b82811015610cc457610ca8868351610c66565b610cb182611153565b9150602086019550600181019050610c95565b50849250505092915050565b6000610cdb8261111c565b80845260208401935083602082028501610cf4856110ea565b60005b84811015610d2d578383038852610d0f838351610e39565b9250610d1a82611160565b9150602088019750600181019050610cf7565b508196508694505050505092915050565b6000610d4982611127565b808452602084019350610d5b836110f7565b60005b82811015610d8d57610d71868351610f14565b610d7a8261116d565b9150602086019550600181019050610d5e565b50849250505092915050565b6000610da482611132565b808452602084019350610db683611104565b60005b82811015610de857610dcc868351610f23565b610dd58261117a565b9150602086019550600181019050610db9565b50849250505092915050565b610dfd816111a7565b82525050565b6000610e0e82611148565b808452610e22816020860160208601611206565b610e2b81611239565b602085010191505092915050565b6000610e448261113d565b808452610e58816020860160208601611206565b610e6181611239565b602085010191505092915050565b6000601e82527f6f6e6c7920747261636520636f6e74726163742063616e20696e766f6b6500006020830152604082019050919050565b6000601882527f737461747573206d7573742062652070726f647563696e6700000000000000006020830152604082019050919050565b6000601b82527f737461747573206d75737420626520646973747269627574696e6700000000006020830152604082019050919050565b610f1d816111b3565b82525050565b610f2c816111bd565b82525050565b60006080820190508181036000830152610f4c8187610d3e565b90508181036020830152610f608186610cd0565b90508181036040830152610f748185610c75565b90508181036060830152610f888184610d99565b905095945050505050565b6000602082019050610fa86000830184610df4565b92915050565b60006020820190508181036000830152610fc781610e6f565b9050919050565b60006020820190508181036000830152610fe781610ea6565b9050919050565b6000602082019050818103600083015261100781610edd565b9050919050565b600060c0820190506110236000830189610f14565b81810360208301526110358188610e03565b905081810360408301526110498187610e03565b9050818103606083015261105d8186610e03565b905061106c6080830185610c66565b61107960a0830184610f23565b979650505050505050565b6000604051905081810181811067ffffffffffffffff821117156110a757600080fd5b8060405250919050565b600067ffffffffffffffff8211156110c857600080fd5b601f19601f8301169050602081019050919050565b6000602082019050919050565b6000602082019050919050565b6000602082019050919050565b6000602082019050919050565b600081519050919050565b600081519050919050565b600081519050919050565b600081519050919050565b600081519050919050565b600081519050919050565b6000602082019050919050565b6000602082019050919050565b6000602082019050919050565b6000602082019050919050565b600073ffffffffffffffffffffffffffffffffffffffff82169050919050565b60008115159050919050565b6000819050919050565b600060ff82169050919050565b600073ffffffffffffffffffffffffffffffffffffffff82169050919050565b600060ff82169050919050565b82818337600083830152505050565b60005b83811015611224578082015181840152602081019050611209565b83811115611233576000848401525b50505050565b6000601f19601f83011690509190505600a265627a7a723058209e2301d4a3eda5a76fa5e7ca88ec3942d5bee99dbd7f40a344c3e2c59c39114b6c6578706572696d656e74616cf50037",
					"opcodes": "PUSH1 0x80 PUSH1 0x40 MSTORE CALLVALUE DUP1 ISZERO PUSH3 0x11 JUMPI PUSH1 0x0 DUP1 REVERT JUMPDEST POP PUSH1 0x40 MLOAD PUSH3 0x172F CODESIZE SUB DUP1 PUSH3 0x172F DUP4 CODECOPY DUP2 ADD DUP1 PUSH1 0x40 MSTORE PUSH3 0x37 SWAP2 SWAP1 DUP2 ADD SWAP1 PUSH3 0x33F JUMP JUMPDEST PUSH1 0x0 TIMESTAMP SWAP1 DUP1 PUSH1 0x1 DUP2 SLOAD ADD DUP1 DUP3 SSTORE DUP1 SWAP2 POP POP SWAP1 PUSH1 0x1 DUP3 SUB SWAP1 PUSH1 0x0 MSTORE PUSH1 0x20 PUSH1 0x0 KECCAK256 ADD PUSH1 0x0 SWAP1 SWAP2 SWAP3 SWAP1 SWAP2 SWAP1 SWAP2 POP SSTORE POP PUSH1 0x1 DUP4 SWAP1 DUP1 PUSH1 0x1 DUP2 SLOAD ADD DUP1 DUP3 SSTORE DUP1 SWAP2 POP POP SWAP1 PUSH1 0x1 DUP3 SUB SWAP1 PUSH1 0x0 MSTORE PUSH1 0x20 PUSH1 0x0 KECCAK256 ADD PUSH1 0x0 SWAP1 SWAP2 SWAP3 SWAP1 SWAP2 SWAP1 SWAP2 POP SWAP1 DUP1 MLOAD SWAP1 PUSH1 0x20 ADD SWAP1 PUSH3 0xA2 SWAP3 SWAP2 SWAP1 PUSH3 0x206 JUMP JUMPDEST POP POP PUSH1 0x2 DUP2 SWAP1 DUP1 PUSH1 0x1 DUP2 SLOAD ADD DUP1 DUP3 SSTORE DUP1 SWAP2 POP POP SWAP1 PUSH1 0x1 DUP3 SUB SWAP1 PUSH1 0x0 MSTORE PUSH1 0x20 PUSH1 0x0 KECCAK256 ADD PUSH1 0x0 SWAP1 SWAP2 SWAP3 SWAP1 SWAP2 SWAP1 SWAP2 PUSH2 0x100 EXP DUP2 SLOAD DUP2 PUSH20 0xFFFFFFFFFFFFFFFFFFFFFFFFFFFFFFFFFFFFFFFF MUL NOT AND SWAP1 DUP4 PUSH20 0xFFFFFFFFFFFFFFFFFFFFFFFFFFFFFFFFFFFFFFFF AND MUL OR SWAP1 SSTORE POP POP PUSH1 0x3 DUP3 SWAP1 DUP1 PUSH1 0x1 DUP2 SLOAD ADD DUP1 DUP3 SSTORE DUP1 SWAP2 POP POP SWAP1 PUSH1 0x1 DUP3 SUB SWAP1 PUSH1 0x0 MSTORE PUSH1 0x20 PUSH1 0x0 KECCAK256 SWAP1 PUSH1 0x20 SWAP2 DUP3 DUP3 DIV ADD SWAP2 SWAP1 MOD SWAP1 SWAP2 SWAP3 SWAP1 SWAP2 SWAP1 SWAP2 PUSH2 0x100 EXP DUP2 SLOAD DUP2 PUSH1 0xFF MUL NOT AND SWAP1 DUP4 PUSH1 0xFF AND MUL OR SWAP1 SSTORE POP POP DUP4 PUSH1 0x4 SWAP1 DUP1 MLOAD SWAP1 PUSH1 0x20 ADD SWAP1 PUSH3 0x16A SWAP3 SWAP2 SWAP1 PUSH3 0x206 JUMP JUMPDEST POP DUP3 PUSH1 0x5 SWAP1 DUP1 MLOAD SWAP1 PUSH1 0x20 ADD SWAP1 PUSH3 0x183 SWAP3 SWAP2 SWAP1 PUSH3 0x206 JUMP JUMPDEST POP DUP2 PUSH1 0x6 PUSH1 0x0 PUSH2 0x100 EXP DUP2 SLOAD DUP2 PUSH1 0xFF MUL NOT AND SWAP1 DUP4 PUSH1 0xFF AND MUL OR SWAP1 SSTORE POP PUSH1 0x0 PUSH1 0x6 PUSH1 0x1 PUSH2 0x100 EXP DUP2 SLOAD DUP2 PUSH1 0xFF MUL NOT AND SWAP1 DUP4 PUSH1 0xFF AND MUL OR SWAP1 SSTORE POP CALLER PUSH1 0x6 PUSH1 0x2 PUSH2 0x100 EXP DUP2 SLOAD DUP2 PUSH20 0xFFFFFFFFFFFFFFFFFFFFFFFFFFFFFFFFFFFFFFFF MUL NOT AND SWAP1 DUP4 PUSH20 0xFFFFFFFFFFFFFFFFFFFFFFFFFFFFFFFFFFFFFFFF AND MUL OR SWAP1 SSTORE POP POP POP POP POP PUSH3 0x49B JUMP JUMPDEST DUP3 DUP1 SLOAD PUSH1 0x1 DUP2 PUSH1 0x1 AND ISZERO PUSH2 0x100 MUL SUB AND PUSH1 0x2 SWAP1 DIV SWAP1 PUSH1 0x0 MSTORE PUSH1 0x20 PUSH1 0x0 KECCAK256 SWAP1 PUSH1 0x1F ADD PUSH1 0x20 SWAP1 DIV DUP2 ADD SWAP3 DUP3 PUSH1 0x1F LT PUSH3 0x249 JUMPI DUP1 MLOAD PUSH1 0xFF NOT AND DUP4 DUP1 ADD OR DUP6 SSTORE PUSH3 0x27A JUMP JUMPDEST DUP3 DUP1 ADD PUSH1 0x1 ADD DUP6 SSTORE DUP3 ISZERO PUSH3 0x27A JUMPI SWAP2 DUP3 ADD JUMPDEST DUP3 DUP2 GT ISZERO PUSH3 0x279 JUMPI DUP3 MLOAD DUP3 SSTORE SWAP2 PUSH1 0x20 ADD SWAP2 SWAP1 PUSH1 0x1 ADD SWAP1 PUSH3 0x25C JUMP JUMPDEST JUMPDEST POP SWAP1 POP PUSH3 0x289 SWAP2 SWAP1 PUSH3 0x28D JUMP JUMPDEST POP SWAP1 JUMP JUMPDEST PUSH3 0x2B2 SWAP2 SWAP1 JUMPDEST DUP1 DUP3 GT ISZERO PUSH3 0x2AE JUMPI PUSH1 0x0 DUP2 PUSH1 0x0 SWAP1 SSTORE POP PUSH1 0x1 ADD PUSH3 0x294 JUMP JUMPDEST POP SWAP1 JUMP JUMPDEST SWAP1 JUMP JUMPDEST PUSH1 0x0 PUSH3 0x2C3 DUP3 MLOAD PUSH3 0x438 JUMP JUMPDEST SWAP1 POP SWAP3 SWAP2 POP POP JUMP JUMPDEST PUSH1 0x0 DUP3 PUSH1 0x1F DUP4 ADD SLT ISZERO ISZERO PUSH3 0x2DF JUMPI PUSH1 0x0 DUP1 REVERT JUMPDEST DUP2 MLOAD PUSH3 0x2F6 PUSH3 0x2F0 DUP3 PUSH3 0x40B JUMP JUMPDEST PUSH3 0x3DD JUMP JUMPDEST SWAP2 POP DUP1 DUP3 MSTORE PUSH1 0x20 DUP4 ADD PUSH1 0x20 DUP4 ADD DUP6 DUP4 DUP4 ADD GT ISZERO PUSH3 0x313 JUMPI PUSH1 0x0 DUP1 REVERT JUMPDEST PUSH3 0x320 DUP4 DUP3 DUP5 PUSH3 0x465 JUMP JUMPDEST POP POP POP SWAP3 SWAP2 POP POP JUMP JUMPDEST PUSH1 0x0 PUSH3 0x337 DUP3 MLOAD PUSH3 0x458 JUMP JUMPDEST SWAP1 POP SWAP3 SWAP2 POP POP JUMP JUMPDEST PUSH1 0x0 DUP1 PUSH1 0x0 DUP1 PUSH1 0x80 DUP6 DUP8 SUB SLT ISZERO PUSH3 0x356 JUMPI PUSH1 0x0 DUP1 REVERT JUMPDEST PUSH1 0x0 DUP6 ADD MLOAD PUSH8 0xFFFFFFFFFFFFFFFF DUP2 GT ISZERO PUSH3 0x371 JUMPI PUSH1 0x0 DUP1 REVERT JUMPDEST PUSH3 0x37F DUP8 DUP3 DUP9 ADD PUSH3 0x2CB JUMP JUMPDEST SWAP5 POP POP PUSH1 0x20 DUP6 ADD MLOAD PUSH8 0xFFFFFFFFFFFFFFFF DUP2 GT ISZERO PUSH3 0x39D JUMPI PUSH1 0x0 DUP1 REVERT JUMPDEST PUSH3 0x3AB DUP8 DUP3 DUP9 ADD PUSH3 0x2CB JUMP JUMPDEST SWAP4 POP POP PUSH1 0x40 PUSH3 0x3BE DUP8 DUP3 DUP9 ADD PUSH3 0x329 JUMP JUMPDEST SWAP3 POP POP PUSH1 0x60 PUSH3 0x3D1 DUP8 DUP3 DUP9 ADD PUSH3 0x2B5 JUMP JUMPDEST SWAP2 POP POP SWAP3 SWAP6 SWAP2 SWAP5 POP SWAP3 POP JUMP JUMPDEST PUSH1 0x0 PUSH1 0x40 MLOAD SWAP1 POP DUP2 DUP2 ADD DUP2 DUP2 LT PUSH8 0xFFFFFFFFFFFFFFFF DUP3 GT OR ISZERO PUSH3 0x401 JUMPI PUSH1 0x0 DUP1 REVERT JUMPDEST DUP1 PUSH1 0x40 MSTORE POP SWAP2 SWAP1 POP JUMP JUMPDEST PUSH1 0x0 PUSH8 0xFFFFFFFFFFFFFFFF DUP3 GT ISZERO PUSH3 0x423 JUMPI PUSH1 0x0 DUP1 REVERT JUMPDEST PUSH1 0x1F NOT PUSH1 0x1F DUP4 ADD AND SWAP1 POP PUSH1 0x20 DUP2 ADD SWAP1 POP SWAP2 SWAP1 POP JUMP JUMPDEST PUSH1 0x0 PUSH20 0xFFFFFFFFFFFFFFFFFFFFFFFFFFFFFFFFFFFFFFFF DUP3 AND SWAP1 POP SWAP2 SWAP1 POP JUMP JUMPDEST PUSH1 0x0 PUSH1 0xFF DUP3 AND SWAP1 POP SWAP2 SWAP1 POP JUMP JUMPDEST PUSH1 0x0 JUMPDEST DUP4 DUP2 LT ISZERO PUSH3 0x485 JUMPI DUP1 DUP3 ADD MLOAD DUP2 DUP5 ADD MSTORE PUSH1 0x20 DUP2 ADD SWAP1 POP PUSH3 0x468 JUMP JUMPDEST DUP4 DUP2 GT ISZERO PUSH3 0x495 JUMPI PUSH1 0x0 DUP5 DUP5 ADD MSTORE JUMPDEST POP POP POP POP JUMP JUMPDEST PUSH2 0x1284 DUP1 PUSH3 0x4AB PUSH1 0x0 CODECOPY PUSH1 0x0 RETURN STOP PUSH1 0x80 PUSH1 0x40 MSTORE PUSH1 0x4 CALLDATASIZE LT PUSH2 0x62 JUMPI PUSH1 0x0 CALLDATALOAD PUSH29 0x100000000000000000000000000000000000000000000000000000000 SWAP1 DIV PUSH4 0xFFFFFFFF AND DUP1 PUSH4 0x6E72967 EQ PUSH2 0x67 JUMPI DUP1 PUSH4 0x1A772BAF EQ PUSH2 0xA4 JUMPI DUP1 PUSH4 0xF0D984E4 EQ PUSH2 0xD4 JUMPI DUP1 PUSH4 0xF650350D EQ PUSH2 0x102 JUMPI JUMPDEST PUSH1 0x0 DUP1 REVERT JUMPDEST CALLVALUE DUP1 ISZERO PUSH2 0x73 JUMPI PUSH1 0x0 DUP1 REVERT JUMPDEST POP PUSH2 0x8E PUSH1 0x4 DUP1 CALLDATASIZE SUB PUSH2 0x89 SWAP2 SWAP1 DUP2 ADD SWAP1 PUSH2 0xBFF JUMP JUMPDEST PUSH2 0x13F JUMP JUMPDEST PUSH1 0x40 MLOAD PUSH2 0x9B SWAP2 SWAP1 PUSH2 0xF93 JUMP JUMPDEST PUSH1 0x40 MLOAD DUP1 SWAP2 SUB SWAP1 RETURN JUMPDEST CALLVALUE DUP1 ISZERO PUSH2 0xB0 JUMPI PUSH1 0x0 DUP1 REVERT JUMPDEST POP PUSH2 0xB9 PUSH2 0x3AA JUMP JUMPDEST PUSH1 0x40 MLOAD PUSH2 0xCB SWAP7 SWAP6 SWAP5 SWAP4 SWAP3 SWAP2 SWAP1 PUSH2 0x100E JUMP JUMPDEST PUSH1 0x40 MLOAD DUP1 SWAP2 SUB SWAP1 RETURN JUMPDEST CALLVALUE DUP1 ISZERO PUSH2 0xE0 JUMPI PUSH1 0x0 DUP1 REVERT JUMPDEST POP PUSH2 0xE9 PUSH2 0x61F JUMP JUMPDEST PUSH1 0x40 MLOAD PUSH2 0xF9 SWAP5 SWAP4 SWAP3 SWAP2 SWAP1 PUSH2 0xF32 JUMP JUMPDEST PUSH1 0x40 MLOAD DUP1 SWAP2 SUB SWAP1 RETURN JUMPDEST CALLVALUE DUP1 ISZERO PUSH2 0x10E JUMPI PUSH1 0x0 DUP1 REVERT JUMPDEST POP PUSH2 0x129 PUSH1 0x4 DUP1 CALLDATASIZE SUB PUSH2 0x124 SWAP2 SWAP1 DUP2 ADD SWAP1 PUSH2 0xBFF JUMP JUMPDEST PUSH2 0x870 JUMP JUMPDEST PUSH1 0x40 MLOAD PUSH2 0x136 SWAP2 SWAP1 PUSH2 0xF93 JUMP JUMPDEST PUSH1 0x40 MLOAD DUP1 SWAP2 SUB SWAP1 RETURN JUMPDEST PUSH1 0x0 DUP1 PUSH1 0x6 PUSH1 0x1 SWAP1 SLOAD SWAP1 PUSH2 0x100 EXP SWAP1 DIV PUSH1 0xFF AND PUSH1 0xFF AND EQ ISZERO ISZERO PUSH2 0x197 JUMPI PUSH1 0x40 MLOAD PUSH32 0x8C379A000000000000000000000000000000000000000000000000000000000 DUP2 MSTORE PUSH1 0x4 ADD PUSH2 0x18E SWAP1 PUSH2 0xFCE JUMP JUMPDEST PUSH1 0x40 MLOAD DUP1 SWAP2 SUB SWAP1 REVERT JUMPDEST CALLER PUSH20 0xFFFFFFFFFFFFFFFFFFFFFFFFFFFFFFFFFFFFFFFF AND PUSH1 0x6 PUSH1 0x2 SWAP1 SLOAD SWAP1 PUSH2 0x100 EXP SWAP1 DIV PUSH20 0xFFFFFFFFFFFFFFFFFFFFFFFFFFFFFFFFFFFFFFFF AND PUSH20 0xFFFFFFFFFFFFFFFFFFFFFFFFFFFFFFFFFFFFFFFF AND EQ ISZERO ISZERO PUSH2 0x229 JUMPI PUSH1 0x40 MLOAD PUSH32 0x8C379A000000000000000000000000000000000000000000000000000000000 DUP2 MSTORE PUSH1 0x4 ADD PUSH2 0x220 SWAP1 PUSH2 0xFAE JUMP JUMPDEST PUSH1 0x40 MLOAD DUP1 SWAP2 SUB SWAP1 REVERT JUMPDEST PUSH1 0x0 TIMESTAMP SWAP1 DUP1 PUSH1 0x1 DUP2 SLOAD ADD DUP1 DUP3 SSTORE DUP1 SWAP2 POP POP SWAP1 PUSH1 0x1 DUP3 SUB SWAP1 PUSH1 0x0 MSTORE PUSH1 0x20 PUSH1 0x0 KECCAK256 ADD PUSH1 0x0 SWAP1 SWAP2 SWAP3 SWAP1 SWAP2 SWAP1 SWAP2 POP SSTORE POP PUSH1 0x1 DUP5 SWAP1 DUP1 PUSH1 0x1 DUP2 SLOAD ADD DUP1 DUP3 SSTORE DUP1 SWAP2 POP POP SWAP1 PUSH1 0x1 DUP3 SUB SWAP1 PUSH1 0x0 MSTORE PUSH1 0x20 PUSH1 0x0 KECCAK256 ADD PUSH1 0x0 SWAP1 SWAP2 SWAP3 SWAP1 SWAP2 SWAP1 SWAP2 POP SWAP1 DUP1 MLOAD SWAP1 PUSH1 0x20 ADD SWAP1 PUSH2 0x292 SWAP3 SWAP2 SWAP1 PUSH2 0xADC JUMP JUMPDEST POP POP DUP4 PUSH1 0x5 SWAP1 DUP1 MLOAD SWAP1 PUSH1 0x20 ADD SWAP1 PUSH2 0x2AA SWAP3 SWAP2 SWAP1 PUSH2 0xADC JUMP JUMPDEST POP PUSH1 0x2 DUP4 SWAP1 DUP1 PUSH1 0x1 DUP2 SLOAD ADD DUP1 DUP3 SSTORE DUP1 SWAP2 POP POP SWAP1 PUSH1 0x1 DUP3 SUB SWAP1 PUSH1 0x0 MSTORE PUSH1 0x20 PUSH1 0x0 KECCAK256 ADD PUSH1 0x0 SWAP1 SWAP2 SWAP3 SWAP1 SWAP2 SWAP1 SWAP2 PUSH2 0x100 EXP DUP2 SLOAD DUP2 PUSH20 0xFFFFFFFFFFFFFFFFFFFFFFFFFFFFFFFFFFFFFFFF MUL NOT AND SWAP1 DUP4 PUSH20 0xFFFFFFFFFFFFFFFFFFFFFFFFFFFFFFFFFFFFFFFF AND MUL OR SWAP1 SSTORE POP POP DUP2 PUSH1 0x6 PUSH1 0x0 PUSH2 0x100 EXP DUP2 SLOAD DUP2 PUSH1 0xFF MUL NOT AND SWAP1 DUP4 PUSH1 0xFF AND MUL OR SWAP1 SSTORE POP PUSH1 0x3 PUSH1 0x6 PUSH1 0x0 SWAP1 SLOAD SWAP1 PUSH2 0x100 EXP SWAP1 DIV PUSH1 0xFF AND SWAP1 DUP1 PUSH1 0x1 DUP2 SLOAD ADD DUP1 DUP3 SSTORE DUP1 SWAP2 POP POP SWAP1 PUSH1 0x1 DUP3 SUB SWAP1 PUSH1 0x0 MSTORE PUSH1 0x20 PUSH1 0x0 KECCAK256 SWAP1 PUSH1 0x20 SWAP2 DUP3 DUP3 DIV ADD SWAP2 SWAP1 MOD SWAP1 SWAP2 SWAP3 SWAP1 SWAP2 SWAP1 SWAP2 PUSH2 0x100 EXP DUP2 SLOAD DUP2 PUSH1 0xFF MUL NOT AND SWAP1 DUP4 PUSH1 0xFF AND MUL OR SWAP1 SSTORE POP POP PUSH1 0x1 PUSH1 0x6 PUSH1 0x1 PUSH2 0x100 EXP DUP2 SLOAD DUP2 PUSH1 0xFF MUL NOT AND SWAP1 DUP4 PUSH1 0xFF AND MUL OR SWAP1 SSTORE POP PUSH1 0x1 SWAP1 POP SWAP4 SWAP3 POP POP POP JUMP JUMPDEST PUSH1 0x0 PUSH1 0x60 DUP1 PUSH1 0x60 PUSH1 0x0 DUP1 PUSH1 0x0 DUP1 DUP2 SLOAD DUP2 LT ISZERO ISZERO PUSH2 0x3C3 JUMPI INVALID JUMPDEST SWAP1 PUSH1 0x0 MSTORE PUSH1 0x20 PUSH1 0x0 KECCAK256 ADD SLOAD PUSH1 0x1 PUSH1 0x0 DUP2 SLOAD DUP2 LT ISZERO ISZERO PUSH2 0x3DE JUMPI INVALID JUMPDEST SWAP1 PUSH1 0x0 MSTORE PUSH1 0x20 PUSH1 0x0 KECCAK256 ADD PUSH1 0x4 PUSH1 0x5 PUSH1 0x2 PUSH1 0x0 DUP2 SLOAD DUP2 LT ISZERO ISZERO PUSH2 0x3FC JUMPI INVALID JUMPDEST SWAP1 PUSH1 0x0 MSTORE PUSH1 0x20 PUSH1 0x0 KECCAK256 ADD PUSH1 0x0 SWAP1 SLOAD SWAP1 PUSH2 0x100 EXP SWAP1 DIV PUSH20 0xFFFFFFFFFFFFFFFFFFFFFFFFFFFFFFFFFFFFFFFF AND PUSH1 0x6 PUSH1 0x0 SWAP1 SLOAD SWAP1 PUSH2 0x100 EXP SWAP1 DIV PUSH1 0xFF AND DUP5 DUP1 SLOAD PUSH1 0x1 DUP2 PUSH1 0x1 AND ISZERO PUSH2 0x100 MUL SUB AND PUSH1 0x2 SWAP1 DIV DUP1 PUSH1 0x1F ADD PUSH1 0x20 DUP1 SWAP2 DIV MUL PUSH1 0x20 ADD PUSH1 0x40 MLOAD SWAP1 DUP2 ADD PUSH1 0x40 MSTORE DUP1 SWAP3 SWAP2 SWAP1 DUP2 DUP2 MSTORE PUSH1 0x20 ADD DUP3 DUP1 SLOAD PUSH1 0x1 DUP2 PUSH1 0x1 AND ISZERO PUSH2 0x100 MUL SUB AND PUSH1 0x2 SWAP1 DIV DUP1 ISZERO PUSH2 0x4CC JUMPI DUP1 PUSH1 0x1F LT PUSH2 0x4A1 JUMPI PUSH2 0x100 DUP1 DUP4 SLOAD DIV MUL DUP4 MSTORE SWAP2 PUSH1 0x20 ADD SWAP2 PUSH2 0x4CC JUMP JUMPDEST DUP3 ADD SWAP2 SWAP1 PUSH1 0x0 MSTORE PUSH1 0x20 PUSH1 0x0 KECCAK256 SWAP1 JUMPDEST DUP2 SLOAD DUP2 MSTORE SWAP1 PUSH1 0x1 ADD SWAP1 PUSH1 0x20 ADD DUP1 DUP4 GT PUSH2 0x4AF JUMPI DUP3 SWAP1 SUB PUSH1 0x1F AND DUP3 ADD SWAP2 JUMPDEST POP POP POP POP POP SWAP5 POP DUP4 DUP1 SLOAD PUSH1 0x1 DUP2 PUSH1 0x1 AND ISZERO PUSH2 0x100 MUL SUB AND PUSH1 0x2 SWAP1 DIV DUP1 PUSH1 0x1F ADD PUSH1 0x20 DUP1 SWAP2 DIV MUL PUSH1 0x20 ADD PUSH1 0x40 MLOAD SWAP1 DUP2 ADD PUSH1 0x40 MSTORE DUP1 SWAP3 SWAP2 SWAP1 DUP2 DUP2 MSTORE PUSH1 0x20 ADD DUP3 DUP1 SLOAD PUSH1 0x1 DUP2 PUSH1 0x1 AND ISZERO PUSH2 0x100 MUL SUB AND PUSH1 0x2 SWAP1 DIV DUP1 ISZERO PUSH2 0x568 JUMPI DUP1 PUSH1 0x1F LT PUSH2 0x53D JUMPI PUSH2 0x100 DUP1 DUP4 SLOAD DIV MUL DUP4 MSTORE SWAP2 PUSH1 0x20 ADD SWAP2 PUSH2 0x568 JUMP JUMPDEST DUP3 ADD SWAP2 SWAP1 PUSH1 0x0 MSTORE PUSH1 0x20 PUSH1 0x0 KECCAK256 SWAP1 JUMPDEST DUP2 SLOAD DUP2 MSTORE SWAP1 PUSH1 0x1 ADD SWAP1 PUSH1 0x20 ADD DUP1 DUP4 GT PUSH2 0x54B JUMPI DUP3 SWAP1 SUB PUSH1 0x1F AND DUP3 ADD SWAP2 JUMPDEST POP POP POP POP POP SWAP4 POP DUP3 DUP1 SLOAD PUSH1 0x1 DUP2 PUSH1 0x1 AND ISZERO PUSH2 0x100 MUL SUB AND PUSH1 0x2 SWAP1 DIV DUP1 PUSH1 0x1F ADD PUSH1 0x20 DUP1 SWAP2 DIV MUL PUSH1 0x20 ADD PUSH1 0x40 MLOAD SWAP1 DUP2 ADD PUSH1 0x40 MSTORE DUP1 SWAP3 SWAP2 SWAP1 DUP2 DUP2 MSTORE PUSH1 0x20 ADD DUP3 DUP1 SLOAD PUSH1 0x1 DUP2 PUSH1 0x1 AND ISZERO PUSH2 0x100 MUL SUB AND PUSH1 0x2 SWAP1 DIV DUP1 ISZERO PUSH2 0x604 JUMPI DUP1 PUSH1 0x1F LT PUSH2 0x5D9 JUMPI PUSH2 0x100 DUP1 DUP4 SLOAD DIV MUL DUP4 MSTORE SWAP2 PUSH1 0x20 ADD SWAP2 PUSH2 0x604 JUMP JUMPDEST DUP3 ADD SWAP2 SWAP1 PUSH1 0x0 MSTORE PUSH1 0x20 PUSH1 0x0 KECCAK256 SWAP1 JUMPDEST DUP2 SLOAD DUP2 MSTORE SWAP1 PUSH1 0x1 ADD SWAP1 PUSH1 0x20 ADD DUP1 DUP4 GT PUSH2 0x5E7 JUMPI DUP3 SWAP1 SUB PUSH1 0x1F AND DUP3 ADD SWAP2 JUMPDEST POP POP POP POP POP SWAP3 POP SWAP6 POP SWAP6 POP SWAP6 POP SWAP6 POP SWAP6 POP SWAP6 POP SWAP1 SWAP2 SWAP3 SWAP4 SWAP5 SWAP6 JUMP JUMPDEST PUSH1 0x60 DUP1 PUSH1 0x60 DUP1 PUSH1 0x0 PUSH1 0x1 PUSH1 0x2 PUSH1 0x3 DUP4 DUP1 SLOAD DUP1 PUSH1 0x20 MUL PUSH1 0x20 ADD PUSH1 0x40 MLOAD SWAP1 DUP2 ADD PUSH1 0x40 MSTORE DUP1 SWAP3 SWAP2 SWAP1 DUP2 DUP2 MSTORE PUSH1 0x20 ADD DUP3 DUP1 SLOAD DUP1 ISZERO PUSH2 0x678 JUMPI PUSH1 0x20 MUL DUP3 ADD SWAP2 SWAP1 PUSH1 0x0 MSTORE PUSH1 0x20 PUSH1 0x0 KECCAK256 SWAP1 JUMPDEST DUP2 SLOAD DUP2 MSTORE PUSH1 0x20 ADD SWAP1 PUSH1 0x1 ADD SWAP1 DUP1 DUP4 GT PUSH2 0x664 JUMPI JUMPDEST POP POP POP POP POP SWAP4 POP DUP3 DUP1 SLOAD DUP1 PUSH1 0x20 MUL PUSH1 0x20 ADD PUSH1 0x40 MLOAD SWAP1 DUP2 ADD PUSH1 0x40 MSTORE DUP1 SWAP3 SWAP2 SWAP1 DUP2 DUP2 MSTORE PUSH1 0x20 ADD PUSH1 0x0 SWAP1 JUMPDEST DUP3 DUP3 LT ISZERO PUSH2 0x75C JUMPI DUP4 DUP3 SWAP1 PUSH1 0x0 MSTORE PUSH1 0x20 PUSH1 0x0 KECCAK256 ADD DUP1 SLOAD PUSH1 0x1 DUP2 PUSH1 0x1 AND ISZERO PUSH2 0x100 MUL SUB AND PUSH1 0x2 SWAP1 DIV DUP1 PUSH1 0x1F ADD PUSH1 0x20 DUP1 SWAP2 DIV MUL PUSH1 0x20 ADD PUSH1 0x40 MLOAD SWAP1 DUP2 ADD PUSH1 0x40 MSTORE DUP1 SWAP3 SWAP2 SWAP1 DUP2 DUP2 MSTORE PUSH1 0x20 ADD DUP3 DUP1 SLOAD PUSH1 0x1 DUP2 PUSH1 0x1 AND ISZERO PUSH2 0x100 MUL SUB AND PUSH1 0x2 SWAP1 DIV DUP1 ISZERO PUSH2 0x748 JUMPI DUP1 PUSH1 0x1F LT PUSH2 0x71D JUMPI PUSH2 0x100 DUP1 DUP4 SLOAD DIV MUL DUP4 MSTORE SWAP2 PUSH1 0x20 ADD SWAP2 PUSH2 0x748 JUMP JUMPDEST DUP3 ADD SWAP2 SWAP1 PUSH1 0x0 MSTORE PUSH1 0x20 PUSH1 0x0 KECCAK256 SWAP1 JUMPDEST DUP2 SLOAD DUP2 MSTORE SWAP1 PUSH1 0x1 ADD SWAP1 PUSH1 0x20 ADD DUP1 DUP4 GT PUSH2 0x72B JUMPI DUP3 SWAP1 SUB PUSH1 0x1F AND DUP3 ADD SWAP2 JUMPDEST POP POP POP POP POP DUP2 MSTORE PUSH1 0x20 ADD SWAP1 PUSH1 0x1 ADD SWAP1 PUSH2 0x6A0 JUMP JUMPDEST POP POP POP POP SWAP3 POP DUP2 DUP1 SLOAD DUP1 PUSH1 0x20 MUL PUSH1 0x20 ADD PUSH1 0x40 MLOAD SWAP1 DUP2 ADD PUSH1 0x40 MSTORE DUP1 SWAP3 SWAP2 SWAP1 DUP2 DUP2 MSTORE PUSH1 0x20 ADD DUP3 DUP1 SLOAD DUP1 ISZERO PUSH2 0x7E3 JUMPI PUSH1 0x20 MUL DUP3 ADD SWAP2 SWAP1 PUSH1 0x0 MSTORE PUSH1 0x20 PUSH1 0x0 KECCAK256 SWAP1 JUMPDEST DUP2 PUSH1 0x0 SWAP1 SLOAD SWAP1 PUSH2 0x100 EXP SWAP1 DIV PUSH20 0xFFFFFFFFFFFFFFFFFFFFFFFFFFFFFFFFFFFFFFFF AND PUSH20 0xFFFFFFFFFFFFFFFFFFFFFFFFFFFFFFFFFFFFFFFF AND DUP2 MSTORE PUSH1 0x20 ADD SWAP1 PUSH1 0x1 ADD SWAP1 DUP1 DUP4 GT PUSH2 0x799 JUMPI JUMPDEST POP POP POP POP POP SWAP2 POP DUP1 DUP1 SLOAD DUP1 PUSH1 0x20 MUL PUSH1 0x20 ADD PUSH1 0x40 MLOAD SWAP1 DUP2 ADD PUSH1 0x40 MSTORE DUP1 SWAP3 SWAP2 SWAP1 DUP2 DUP2 MSTORE PUSH1 0x20 ADD DUP3 DUP1 SLOAD DUP1 ISZERO PUSH2 0x85B JUMPI PUSH1 0x20 MUL DUP3 ADD SWAP2 SWAP1 PUSH1 0x0 MSTORE PUSH1 0x20 PUSH1 0x0 KECCAK256 SWAP1 PUSH1 0x0 SWAP1 JUMPDEST DUP3 DUP3 SWAP1 SLOAD SWAP1 PUSH2 0x100 EXP SWAP1 DIV PUSH1 0xFF AND PUSH1 0xFF AND DUP2 MSTORE PUSH1 0x20 ADD SWAP1 PUSH1 0x1 ADD SWAP1 PUSH1 0x20 DUP3 PUSH1 0x0 ADD DIV SWAP3 DUP4 ADD SWAP3 PUSH1 0x1 SUB DUP3 MUL SWAP2 POP DUP1 DUP5 GT PUSH2 0x824 JUMPI SWAP1 POP JUMPDEST POP POP POP POP POP SWAP1 POP SWAP4 POP SWAP4 POP SWAP4 POP SWAP4 POP SWAP1 SWAP2 SWAP3 SWAP4 JUMP JUMPDEST PUSH1 0x0 PUSH1 0x1 PUSH1 0x6 PUSH1 0x1 SWAP1 SLOAD SWAP1 PUSH2 0x100 EXP SWAP1 DIV PUSH1 0xFF AND PUSH1 0xFF AND EQ ISZERO ISZERO PUSH2 0x8C9 JUMPI PUSH1 0x40 MLOAD PUSH32 0x8C379A000000000000000000000000000000000000000000000000000000000 DUP2 MSTORE PUSH1 0x4 ADD PUSH2 0x8C0 SWAP1 PUSH2 0xFEE JUMP JUMPDEST PUSH1 0x40 MLOAD DUP1 SWAP2 SUB SWAP1 REVERT JUMPDEST CALLER PUSH20 0xFFFFFFFFFFFFFFFFFFFFFFFFFFFFFFFFFFFFFFFF AND PUSH1 0x6 PUSH1 0x2 SWAP1 SLOAD SWAP1 PUSH2 0x100 EXP SWAP1 DIV PUSH20 0xFFFFFFFFFFFFFFFFFFFFFFFFFFFFFFFFFFFFFFFF AND PUSH20 0xFFFFFFFFFFFFFFFFFFFFFFFFFFFFFFFFFFFFFFFF AND EQ ISZERO ISZERO PUSH2 0x95B JUMPI PUSH1 0x40 MLOAD PUSH32 0x8C379A000000000000000000000000000000000000000000000000000000000 DUP2 MSTORE PUSH1 0x4 ADD PUSH2 0x952 SWAP1 PUSH2 0xFAE JUMP JUMPDEST PUSH1 0x40 MLOAD DUP1 SWAP2 SUB SWAP1 REVERT JUMPDEST PUSH1 0x0 TIMESTAMP SWAP1 DUP1 PUSH1 0x1 DUP2 SLOAD ADD DUP1 DUP3 SSTORE DUP1 SWAP2 POP POP SWAP1 PUSH1 0x1 DUP3 SUB SWAP1 PUSH1 0x0 MSTORE PUSH1 0x20 PUSH1 0x0 KECCAK256 ADD PUSH1 0x0 SWAP1 SWAP2 SWAP3 SWAP1 SWAP2 SWAP1 SWAP2 POP SSTORE POP PUSH1 0x1 DUP5 SWAP1 DUP1 PUSH1 0x1 DUP2 SLOAD ADD DUP1 DUP3 SSTORE DUP1 SWAP2 POP POP SWAP1 PUSH1 0x1 DUP3 SUB SWAP1 PUSH1 0x0 MSTORE PUSH1 0x20 PUSH1 0x0 KECCAK256 ADD PUSH1 0x0 SWAP1 SWAP2 SWAP3 SWAP1 SWAP2 SWAP1 SWAP2 POP SWAP1 DUP1 MLOAD SWAP1 PUSH1 0x20 ADD SWAP1 PUSH2 0x9C4 SWAP3 SWAP2 SWAP1 PUSH2 0xADC JUMP JUMPDEST POP POP DUP4 PUSH1 0x5 SWAP1 DUP1 MLOAD SWAP1 PUSH1 0x20 ADD SWAP1 PUSH2 0x9DC SWAP3 SWAP2 SWAP1 PUSH2 0xADC JUMP JUMPDEST POP PUSH1 0x2 DUP4 SWAP1 DUP1 PUSH1 0x1 DUP2 SLOAD ADD DUP1 DUP3 SSTORE DUP1 SWAP2 POP POP SWAP1 PUSH1 0x1 DUP3 SUB SWAP1 PUSH1 0x0 MSTORE PUSH1 0x20 PUSH1 0x0 KECCAK256 ADD PUSH1 0x0 SWAP1 SWAP2 SWAP3 SWAP1 SWAP2 SWAP1 SWAP2 PUSH2 0x100 EXP DUP2 SLOAD DUP2 PUSH20 0xFFFFFFFFFFFFFFFFFFFFFFFFFFFFFFFFFFFFFFFF MUL NOT AND SWAP1 DUP4 PUSH20 0xFFFFFFFFFFFFFFFFFFFFFFFFFFFFFFFFFFFFFFFF AND MUL OR SWAP1 SSTORE POP POP DUP2 PUSH1 0x6 PUSH1 0x0 PUSH2 0x100 EXP DUP2 SLOAD DUP2 PUSH1 0xFF MUL NOT AND SWAP1 DUP4 PUSH1 0xFF AND MUL OR SWAP1 SSTORE POP PUSH1 0x3 PUSH1 0x6 PUSH1 0x0 SWAP1 SLOAD SWAP1 PUSH2 0x100 EXP SWAP1 DIV PUSH1 0xFF AND SWAP1 DUP1 PUSH1 0x1 DUP2 SLOAD ADD DUP1 DUP3 SSTORE DUP1 SWAP2 POP POP SWAP1 PUSH1 0x1 DUP3 SUB SWAP1 PUSH1 0x0 MSTORE PUSH1 0x20 PUSH1 0x0 KECCAK256 SWAP1 PUSH1 0x20 SWAP2 DUP3 DUP3 DIV ADD SWAP2 SWAP1 MOD SWAP1 SWAP2 SWAP3 SWAP1 SWAP2 SWAP1 SWAP2 PUSH2 0x100 EXP DUP2 SLOAD DUP2 PUSH1 0xFF MUL NOT AND SWAP1 DUP4 PUSH1 0xFF AND MUL OR SWAP1 SSTORE POP POP PUSH1 0x2 PUSH1 0x6 PUSH1 0x1 PUSH2 0x100 EXP DUP2 SLOAD DUP2 PUSH1 0xFF MUL NOT AND SWAP1 DUP4 PUSH1 0xFF AND MUL OR SWAP1 SSTORE POP PUSH1 0x1 SWAP1 POP SWAP4 SWAP3 POP POP POP JUMP JUMPDEST DUP3 DUP1 SLOAD PUSH1 0x1 DUP2 PUSH1 0x1 AND ISZERO PUSH2 0x100 MUL SUB AND PUSH1 0x2 SWAP1 DIV SWAP1 PUSH1 0x0 MSTORE PUSH1 0x20 PUSH1 0x0 KECCAK256 SWAP1 PUSH1 0x1F ADD PUSH1 0x20 SWAP1 DIV DUP2 ADD SWAP3 DUP3 PUSH1 0x1F LT PUSH2 0xB1D JUMPI DUP1 MLOAD PUSH1 0xFF NOT AND DUP4 DUP1 ADD OR DUP6 SSTORE PUSH2 0xB4B JUMP JUMPDEST DUP3 DUP1 ADD PUSH1 0x1 ADD DUP6 SSTORE DUP3 ISZERO PUSH2 0xB4B JUMPI SWAP2 DUP3 ADD JUMPDEST DUP3 DUP2 GT ISZERO PUSH2 0xB4A JUMPI DUP3 MLOAD DUP3 SSTORE SWAP2 PUSH1 0x20 ADD SWAP2 SWAP1 PUSH1 0x1 ADD SWAP1 PUSH2 0xB2F JUMP JUMPDEST JUMPDEST POP SWAP1 POP PUSH2 0xB58 SWAP2 SWAP1 PUSH2 0xB5C JUMP JUMPDEST POP SWAP1 JUMP JUMPDEST PUSH2 0xB7E SWAP2 SWAP1 JUMPDEST DUP1 DUP3 GT ISZERO PUSH2 0xB7A JUMPI PUSH1 0x0 DUP2 PUSH1 0x0 SWAP1 SSTORE POP PUSH1 0x1 ADD PUSH2 0xB62 JUMP JUMPDEST POP SWAP1 JUMP JUMPDEST SWAP1 JUMP JUMPDEST PUSH1 0x0 PUSH2 0xB8D DUP3 CALLDATALOAD PUSH2 0x11CA JUMP JUMPDEST SWAP1 POP SWAP3 SWAP2 POP POP JUMP JUMPDEST PUSH1 0x0 DUP3 PUSH1 0x1F DUP4 ADD SLT ISZERO ISZERO PUSH2 0xBA8 JUMPI PUSH1 0x0 DUP1 REVERT JUMPDEST DUP2 CALLDATALOAD PUSH2 0xBBB PUSH2 0xBB6 DUP3 PUSH2 0x10B1 JUMP JUMPDEST PUSH2 0x1084 JUMP JUMPDEST SWAP2 POP DUP1 DUP3 MSTORE PUSH1 0x20 DUP4 ADD PUSH1 0x20 DUP4 ADD DUP6 DUP4 DUP4 ADD GT ISZERO PUSH2 0xBD7 JUMPI PUSH1 0x0 DUP1 REVERT JUMPDEST PUSH2 0xBE2 DUP4 DUP3 DUP5 PUSH2 0x11F7 JUMP JUMPDEST POP POP POP SWAP3 SWAP2 POP POP JUMP JUMPDEST PUSH1 0x0 PUSH2 0xBF7 DUP3 CALLDATALOAD PUSH2 0x11EA JUMP JUMPDEST SWAP1 POP SWAP3 SWAP2 POP POP JUMP JUMPDEST PUSH1 0x0 DUP1 PUSH1 0x0 PUSH1 0x60 DUP5 DUP7 SUB SLT ISZERO PUSH2 0xC14 JUMPI PUSH1 0x0 DUP1 REVERT JUMPDEST PUSH1 0x0 DUP5 ADD CALLDATALOAD PUSH8 0xFFFFFFFFFFFFFFFF DUP2 GT ISZERO PUSH2 0xC2E JUMPI PUSH1 0x0 DUP1 REVERT JUMPDEST PUSH2 0xC3A DUP7 DUP3 DUP8 ADD PUSH2 0xB95 JUMP JUMPDEST SWAP4 POP POP PUSH1 0x20 PUSH2 0xC4B DUP7 DUP3 DUP8 ADD PUSH2 0xB81 JUMP JUMPDEST SWAP3 POP POP PUSH1 0x40 PUSH2 0xC5C DUP7 DUP3 DUP8 ADD PUSH2 0xBEB JUMP JUMPDEST SWAP2 POP POP SWAP3 POP SWAP3 POP SWAP3 JUMP JUMPDEST PUSH2 0xC6F DUP2 PUSH2 0x1187 JUMP JUMPDEST DUP3 MSTORE POP POP JUMP JUMPDEST PUSH1 0x0 PUSH2 0xC80 DUP3 PUSH2 0x1111 JUMP JUMPDEST DUP1 DUP5 MSTORE PUSH1 0x20 DUP5 ADD SWAP4 POP PUSH2 0xC92 DUP4 PUSH2 0x10DD JUMP JUMPDEST PUSH1 0x0 JUMPDEST DUP3 DUP2 LT ISZERO PUSH2 0xCC4 JUMPI PUSH2 0xCA8 DUP7 DUP4 MLOAD PUSH2 0xC66 JUMP JUMPDEST PUSH2 0xCB1 DUP3 PUSH2 0x1153 JUMP JUMPDEST SWAP2 POP PUSH1 0x20 DUP7 ADD SWAP6 POP PUSH1 0x1 DUP2 ADD SWAP1 POP PUSH2 0xC95 JUMP JUMPDEST POP DUP5 SWAP3 POP POP POP SWAP3 SWAP2 POP POP JUMP JUMPDEST PUSH1 0x0 PUSH2 0xCDB DUP3 PUSH2 0x111C JUMP JUMPDEST DUP1 DUP5 MSTORE PUSH1 0x20 DUP5 ADD SWAP4 POP DUP4 PUSH1 0x20 DUP3 MUL DUP6 ADD PUSH2 0xCF4 DUP6 PUSH2 0x10EA JUMP JUMPDEST PUSH1 0x0 JUMPDEST DUP5 DUP2 LT ISZERO PUSH2 0xD2D JUMPI DUP4 DUP4 SUB DUP9 MSTORE PUSH2 0xD0F DUP4 DUP4 MLOAD PUSH2 0xE39 JUMP JUMPDEST SWAP3 POP PUSH2 0xD1A DUP3 PUSH2 0x1160 JUMP JUMPDEST SWAP2 POP PUSH1 0x20 DUP9 ADD SWAP8 POP PUSH1 0x1 DUP2 ADD SWAP1 POP PUSH2 0xCF7 JUMP JUMPDEST POP DUP2 SWAP7 POP DUP7 SWAP5 POP POP POP POP POP SWAP3 SWAP2 POP POP JUMP JUMPDEST PUSH1 0x0 PUSH2 0xD49 DUP3 PUSH2 0x1127 JUMP JUMPDEST DUP1 DUP5 MSTORE PUSH1 0x20 DUP5 ADD SWAP4 POP PUSH2 0xD5B DUP4 PUSH2 0x10F7 JUMP JUMPDEST PUSH1 0x0 JUMPDEST DUP3 DUP2 LT ISZERO PUSH2 0xD8D JUMPI PUSH2 0xD71 DUP7 DUP4 MLOAD PUSH2 0xF14 JUMP JUMPDEST PUSH2 0xD7A DUP3 PUSH2 0x116D JUMP JUMPDEST SWAP2 POP PUSH1 0x20 DUP7 ADD SWAP6 POP PUSH1 0x1 DUP2 ADD SWAP1 POP PUSH2 0xD5E JUMP JUMPDEST POP DUP5 SWAP3 POP POP POP SWAP3 SWAP2 POP POP JUMP JUMPDEST PUSH1 0x0 PUSH2 0xDA4 DUP3 PUSH2 0x1132 JUMP JUMPDEST DUP1 DUP5 MSTORE PUSH1 0x20 DUP5 ADD SWAP4 POP PUSH2 0xDB6 DUP4 PUSH2 0x1104 JUMP JUMPDEST PUSH1 0x0 JUMPDEST DUP3 DUP2 LT ISZERO PUSH2 0xDE8 JUMPI PUSH2 0xDCC DUP7 DUP4 MLOAD PUSH2 0xF23 JUMP JUMPDEST PUSH2 0xDD5 DUP3 PUSH2 0x117A JUMP JUMPDEST SWAP2 POP PUSH1 0x20 DUP7 ADD SWAP6 POP PUSH1 0x1 DUP2 ADD SWAP1 POP PUSH2 0xDB9 JUMP JUMPDEST POP DUP5 SWAP3 POP POP POP SWAP3 SWAP2 POP POP JUMP JUMPDEST PUSH2 0xDFD DUP2 PUSH2 0x11A7 JUMP JUMPDEST DUP3 MSTORE POP POP JUMP JUMPDEST PUSH1 0x0 PUSH2 0xE0E DUP3 PUSH2 0x1148 JUMP JUMPDEST DUP1 DUP5 MSTORE PUSH2 0xE22 DUP2 PUSH1 0x20 DUP7 ADD PUSH1 0x20 DUP7 ADD PUSH2 0x1206 JUMP JUMPDEST PUSH2 0xE2B DUP2 PUSH2 0x1239 JUMP JUMPDEST PUSH1 0x20 DUP6 ADD ADD SWAP2 POP POP SWAP3 SWAP2 POP POP JUMP JUMPDEST PUSH1 0x0 PUSH2 0xE44 DUP3 PUSH2 0x113D JUMP JUMPDEST DUP1 DUP5 MSTORE PUSH2 0xE58 DUP2 PUSH1 0x20 DUP7 ADD PUSH1 0x20 DUP7 ADD PUSH2 0x1206 JUMP JUMPDEST PUSH2 0xE61 DUP2 PUSH2 0x1239 JUMP JUMPDEST PUSH1 0x20 DUP6 ADD ADD SWAP2 POP POP SWAP3 SWAP2 POP POP JUMP JUMPDEST PUSH1 0x0 PUSH1 0x1E DUP3 MSTORE PUSH32 0x6F6E6C7920747261636520636F6E74726163742063616E20696E766F6B650000 PUSH1 0x20 DUP4 ADD MSTORE PUSH1 0x40 DUP3 ADD SWAP1 POP SWAP2 SWAP1 POP JUMP JUMPDEST PUSH1 0x0 PUSH1 0x18 DUP3 MSTORE PUSH32 0x737461747573206D7573742062652070726F647563696E670000000000000000 PUSH1 0x20 DUP4 ADD MSTORE PUSH1 0x40 DUP3 ADD SWAP1 POP SWAP2 SWAP1 POP JUMP JUMPDEST PUSH1 0x0 PUSH1 0x1B DUP3 MSTORE PUSH32 0x737461747573206D75737420626520646973747269627574696E670000000000 PUSH1 0x20 DUP4 ADD MSTORE PUSH1 0x40 DUP3 ADD SWAP1 POP SWAP2 SWAP1 POP JUMP JUMPDEST PUSH2 0xF1D DUP2 PUSH2 0x11B3 JUMP JUMPDEST DUP3 MSTORE POP POP JUMP JUMPDEST PUSH2 0xF2C DUP2 PUSH2 0x11BD JUMP JUMPDEST DUP3 MSTORE POP POP JUMP JUMPDEST PUSH1 0x0 PUSH1 0x80 DUP3 ADD SWAP1 POP DUP2 DUP2 SUB PUSH1 0x0 DUP4 ADD MSTORE PUSH2 0xF4C DUP2 DUP8 PUSH2 0xD3E JUMP JUMPDEST SWAP1 POP DUP2 DUP2 SUB PUSH1 0x20 DUP4 ADD MSTORE PUSH2 0xF60 DUP2 DUP7 PUSH2 0xCD0 JUMP JUMPDEST SWAP1 POP DUP2 DUP2 SUB PUSH1 0x40 DUP4 ADD MSTORE PUSH2 0xF74 DUP2 DUP6 PUSH2 0xC75 JUMP JUMPDEST SWAP1 POP DUP2 DUP2 SUB PUSH1 0x60 DUP4 ADD MSTORE PUSH2 0xF88 DUP2 DUP5 PUSH2 0xD99 JUMP JUMPDEST SWAP1 POP SWAP6 SWAP5 POP POP POP POP POP JUMP JUMPDEST PUSH1 0x0 PUSH1 0x20 DUP3 ADD SWAP1 POP PUSH2 0xFA8 PUSH1 0x0 DUP4 ADD DUP5 PUSH2 0xDF4 JUMP JUMPDEST SWAP3 SWAP2 POP POP JUMP JUMPDEST PUSH1 0x0 PUSH1 0x20 DUP3 ADD SWAP1 POP DUP2 DUP2 SUB PUSH1 0x0 DUP4 ADD MSTORE PUSH2 0xFC7 DUP2 PUSH2 0xE6F JUMP JUMPDEST SWAP1 POP SWAP2 SWAP1 POP JUMP JUMPDEST PUSH1 0x0 PUSH1 0x20 DUP3 ADD SWAP1 POP DUP2 DUP2 SUB PUSH1 0x0 DUP4 ADD MSTORE PUSH2 0xFE7 DUP2 PUSH2 0xEA6 JUMP JUMPDEST SWAP1 POP SWAP2 SWAP1 POP JUMP JUMPDEST PUSH1 0x0 PUSH1 0x20 DUP3 ADD SWAP1 POP DUP2 DUP2 SUB PUSH1 0x0 DUP4 ADD MSTORE PUSH2 0x1007 DUP2 PUSH2 0xEDD JUMP JUMPDEST SWAP1 POP SWAP2 SWAP1 POP JUMP JUMPDEST PUSH1 0x0 PUSH1 0xC0 DUP3 ADD SWAP1 POP PUSH2 0x1023 PUSH1 0x0 DUP4 ADD DUP10 PUSH2 0xF14 JUMP JUMPDEST DUP2 DUP2 SUB PUSH1 0x20 DUP4 ADD MSTORE PUSH2 0x1035 DUP2 DUP9 PUSH2 0xE03 JUMP JUMPDEST SWAP1 POP DUP2 DUP2 SUB PUSH1 0x40 DUP4 ADD MSTORE PUSH2 0x1049 DUP2 DUP8 PUSH2 0xE03 JUMP JUMPDEST SWAP1 POP DUP2 DUP2 SUB PUSH1 0x60 DUP4 ADD MSTORE PUSH2 0x105D DUP2 DUP7 PUSH2 0xE03 JUMP JUMPDEST SWAP1 POP PUSH2 0x106C PUSH1 0x80 DUP4 ADD DUP6 PUSH2 0xC66 JUMP JUMPDEST PUSH2 0x1079 PUSH1 0xA0 DUP4 ADD DUP5 PUSH2 0xF23 JUMP JUMPDEST SWAP8 SWAP7 POP POP POP POP POP POP POP JUMP JUMPDEST PUSH1 0x0 PUSH1 0x40 MLOAD SWAP1 POP DUP2 DUP2 ADD DUP2 DUP2 LT PUSH8 0xFFFFFFFFFFFFFFFF DUP3 GT OR ISZERO PUSH2 0x10A7 JUMPI PUSH1 0x0 DUP1 REVERT JUMPDEST DUP1 PUSH1 0x40 MSTORE POP SWAP2 SWAP1 POP JUMP JUMPDEST PUSH1 0x0 PUSH8 0xFFFFFFFFFFFFFFFF DUP3 GT ISZERO PUSH2 0x10C8 JUMPI PUSH1 0x0 DUP1 REVERT JUMPDEST PUSH1 0x1F NOT PUSH1 0x1F DUP4 ADD AND SWAP1 POP PUSH1 0x20 DUP2 ADD SWAP1 POP SWAP2 SWAP1 POP JUMP JUMPDEST PUSH1 0x0 PUSH1 0x20 DUP3 ADD SWAP1 POP SWAP2 SWAP1 POP JUMP JUMPDEST PUSH1 0x0 PUSH1 0x20 DUP3 ADD SWAP1 POP SWAP2 SWAP1 POP JUMP JUMPDEST PUSH1 0x0 PUSH1 0x20 DUP3 ADD SWAP1 POP SWAP2 SWAP1 POP JUMP JUMPDEST PUSH1 0x0 PUSH1 0x20 DUP3 ADD SWAP1 POP SWAP2 SWAP1 POP JUMP JUMPDEST PUSH1 0x0 DUP2 MLOAD SWAP1 POP SWAP2 SWAP1 POP JUMP JUMPDEST PUSH1 0x0 DUP2 MLOAD SWAP1 POP SWAP2 SWAP1 POP JUMP JUMPDEST PUSH1 0x0 DUP2 MLOAD SWAP1 POP SWAP2 SWAP1 POP JUMP JUMPDEST PUSH1 0x0 DUP2 MLOAD SWAP1 POP SWAP2 SWAP1 POP JUMP JUMPDEST PUSH1 0x0 DUP2 MLOAD SWAP1 POP SWAP2 SWAP1 POP JUMP JUMPDEST PUSH1 0x0 DUP2 MLOAD SWAP1 POP SWAP2 SWAP1 POP JUMP JUMPDEST PUSH1 0x0 PUSH1 0x20 DUP3 ADD SWAP1 POP SWAP2 SWAP1 POP JUMP JUMPDEST PUSH1 0x0 PUSH1 0x20 DUP3 ADD SWAP1 POP SWAP2 SWAP1 POP JUMP JUMPDEST PUSH1 0x0 PUSH1 0x20 DUP3 ADD SWAP1 POP SWAP2 SWAP1 POP JUMP JUMPDEST PUSH1 0x0 PUSH1 0x20 DUP3 ADD SWAP1 POP SWAP2 SWAP1 POP JUMP JUMPDEST PUSH1 0x0 PUSH20 0xFFFFFFFFFFFFFFFFFFFFFFFFFFFFFFFFFFFFFFFF DUP3 AND SWAP1 POP SWAP2 SWAP1 POP JUMP JUMPDEST PUSH1 0x0 DUP2 ISZERO ISZERO SWAP1 POP SWAP2 SWAP1 POP JUMP JUMPDEST PUSH1 0x0 DUP2 SWAP1 POP SWAP2 SWAP1 POP JUMP JUMPDEST PUSH1 0x0 PUSH1 0xFF DUP3 AND SWAP1 POP SWAP2 SWAP1 POP JUMP JUMPDEST PUSH1 0x0 PUSH20 0xFFFFFFFFFFFFFFFFFFFFFFFFFFFFFFFFFFFFFFFF DUP3 AND SWAP1 POP SWAP2 SWAP1 POP JUMP JUMPDEST PUSH1 0x0 PUSH1 0xFF DUP3 AND SWAP1 POP SWAP2 SWAP1 POP JUMP JUMPDEST DUP3 DUP2 DUP4 CALLDATACOPY PUSH1 0x0 DUP4 DUP4 ADD MSTORE POP POP POP JUMP JUMPDEST PUSH1 0x0 JUMPDEST DUP4 DUP2 LT ISZERO PUSH2 0x1224 JUMPI DUP1 DUP3 ADD MLOAD DUP2 DUP5 ADD MSTORE PUSH1 0x20 DUP2 ADD SWAP1 POP PUSH2 0x1209 JUMP JUMPDEST DUP4 DUP2 GT ISZERO PUSH2 0x1233 JUMPI PUSH1 0x0 DUP5 DUP5 ADD MSTORE JUMPDEST POP POP POP POP JUMP JUMPDEST PUSH1 0x0 PUSH1 0x1F NOT PUSH1 0x1F DUP4 ADD AND SWAP1 POP SWAP2 SWAP1 POP JUMP STOP LOG2 PUSH6 0x627A7A723058 KECCAK256 SWAP15 0x23 ADD 0xd4 LOG3 0xed 0xa5 0xa7 PUSH16 0xA5E7CA88EC3942D5BEE99DBD7F40A344 0xc3 0xe2 0xc5 SWAP13 CODECOPY GT 0x4b PUSH13 0x6578706572696D656E74616CF5 STOP CALLDATACOPY "
				},
				"gasEstimates": {
					"creation": {
						"codeDepositCost": "948000",
						"executionCost": "infinite",
						"totalCost": "infinite"
					},
					"external": {
						"addTraceInfoByDistributor(string,address,uint8)": "infinite",
						"addTraceInfoByRetailer(string,address,uint8)": "infinite",
						"getEproducts()": "infinite",
						"getTraceInfo()": "infinite"
					}
				},
				"methodIdentifiers": {
					"addTraceInfoByDistributor(string,address,uint8)": "06e72967",
					"addTraceInfoByRetailer(string,address,uint8)": "f650350d",
					"getEproducts()": "1a772baf",
					"getTraceInfo()": "f0d984e4"
				}
			},
			"userdoc": {
				"methods": {}
			}
		}
	}
}