{
	"data": {
		"bytecode": {
			"linkReferences": {},
			"object": "608060405260025f806101000a81548160ff021916908360ff1602179055506040518060400160405280600d81526020017f62696e5363686f6f6c2e617070000000000000000000000000000000000000008152506001908161006291906102ae565b5034801561006e575f80fd5b5061037d565b5f81519050919050565b7f4e487b71000000000000000000000000000000000000000000000000000000005f52604160045260245ffd5b7f4e487b71000000000000000000000000000000000000000000000000000000005f52602260045260245ffd5b5f60028204905060018216806100ef57607f821691505b602082108103610102576101016100ab565b5b50919050565b5f819050815f5260205f209050919050565b5f6020601f8301049050919050565b5f82821b905092915050565b5f600883026101647fffffffffffffffffffffffffffffffffffffffffffffffffffffffffffffffff82610129565b61016e8683610129565b95508019841693508086168417925050509392505050565b5f819050919050565b5f819050919050565b5f6101b26101ad6101a884610186565b61018f565b610186565b9050919050565b5f819050919050565b6101cb83610198565b6101df6101d7826101b9565b848454610135565b825550505050565b5f90565b6101f36101e7565b6101fe8184846101c2565b505050565b5b81811015610221576102165f826101eb565b600181019050610204565b5050565b601f8211156102665761023781610108565b6102408461011a565b8101602085101561024f578190505b61026361025b8561011a565b830182610203565b50505b505050565b5f82821c905092915050565b5f6102865f198460080261026b565b1980831691505092915050565b5f61029e8383610277565b9150826002028217905092915050565b6102b782610074565b67ffffffffffffffff8111156102d0576102cf61007e565b5b6102da82546100d8565b6102e5828285610225565b5f60209050601f831160018114610316575f8415610304578287015190505b61030e8582610293565b865550610375565b601f19841661032486610108565b5f5b8281101561034b57848901518255600182019150602085019450602081019050610326565b868310156103685784890151610364601f891682610277565b8355505b6001600288020188555050505b505050505050565b6105308061038a5f395ff3fe608060405234801561000f575f80fd5b5060043610610034575f3560e01c8063bd14598f14610038578063c0f8940c14610056575b5f80fd5b610040610075565b60405161004d919061016e565b60405180910390f35b61005e6100ab565b60405161006c9291906101fb565b60405180910390f35b60605f8054906101000a900460ff166001604051602001610097929190610319565b604051602081830303815290604052905090565b5f60605f805f9054906101000a900460ff1660016040516020016100d0929190610319565b6040516020818303038152906040529050808060200190518101906100f591906104a0565b92509250509091565b5f81519050919050565b5f82825260208201905092915050565b8281835e5f83830152505050565b5f601f19601f8301169050919050565b5f610140826100fe565b61014a8185610108565b935061015a818560208601610118565b61016381610126565b840191505092915050565b5f6020820190508181035f8301526101868184610136565b905092915050565b5f60ff82169050919050565b6101a38161018e565b82525050565b5f81519050919050565b5f82825260208201905092915050565b5f6101cd826101a9565b6101d781856101b3565b93506101e7818560208601610118565b6101f081610126565b840191505092915050565b5f60408201905061020e5f83018561019a565b818103602083015261022081846101c3565b90509392505050565b7f4e487b71000000000000000000000000000000000000000000000000000000005f52602260045260245ffd5b5f600282049050600182168061026d57607f821691505b6020821081036102805761027f610229565b5b50919050565b5f819050815f5260205f209050919050565b5f81546102a481610256565b6102ae81866101b3565b9450600182165f81146102c857600181146102de57610310565b60ff198316865281151560200286019350610310565b6102e785610286565b5f5b83811015610308578154818901526001820191506020810190506102e9565b808801955050505b50505092915050565b5f60408201905061032c5f83018561019a565b818103602083015261033e8184610298565b90509392505050565b5f604051905090565b5f80fd5b5f80fd5b6103618161018e565b811461036b575f80fd5b50565b5f8151905061037c81610358565b92915050565b5f80fd5b5f80fd5b7f4e487b71000000000000000000000000000000000000000000000000000000005f52604160045260245ffd5b6103c082610126565b810181811067ffffffffffffffff821117156103df576103de61038a565b5b80604052505050565b5f6103f1610347565b90506103fd82826103b7565b919050565b5f67ffffffffffffffff82111561041c5761041b61038a565b5b61042582610126565b9050602081019050919050565b5f61044461043f84610402565b6103e8565b9050828152602081018484840111156104605761045f610386565b5b61046b848285610118565b509392505050565b5f82601f83011261048757610486610382565b5b8151610497848260208601610432565b91505092915050565b5f80604083850312156104b6576104b5610350565b5b5f6104c38582860161036e565b925050602083015167ffffffffffffffff8111156104e4576104e3610354565b5b6104f085828601610473565b915050925092905056fea26469706673582212204562be371d2468d313393ecd4a2eba33af76a3d854d75767afeda17423a756ae64736f6c634300081a0033",
			"opcodes": "PUSH1 0x80 PUSH1 0x40 MSTORE PUSH1 0x2 PUSH0 DUP1 PUSH2 0x100 EXP DUP2 SLOAD DUP2 PUSH1 0xFF MUL NOT AND SWAP1 DUP4 PUSH1 0xFF AND MUL OR SWAP1 SSTORE POP PUSH1 0x40 MLOAD DUP1 PUSH1 0x40 ADD PUSH1 0x40 MSTORE DUP1 PUSH1 0xD DUP2 MSTORE PUSH1 0x20 ADD PUSH32 0x62696E5363686F6F6C2E61707000000000000000000000000000000000000000 DUP2 MSTORE POP PUSH1 0x1 SWAP1 DUP2 PUSH2 0x62 SWAP2 SWAP1 PUSH2 0x2AE JUMP JUMPDEST POP CALLVALUE DUP1 ISZERO PUSH2 0x6E JUMPI PUSH0 DUP1 REVERT JUMPDEST POP PUSH2 0x37D JUMP JUMPDEST PUSH0 DUP2 MLOAD SWAP1 POP SWAP2 SWAP1 POP JUMP JUMPDEST PUSH32 0x4E487B7100000000000000000000000000000000000000000000000000000000 PUSH0 MSTORE PUSH1 0x41 PUSH1 0x4 MSTORE PUSH1 0x24 PUSH0 REVERT JUMPDEST PUSH32 0x4E487B7100000000000000000000000000000000000000000000000000000000 PUSH0 MSTORE PUSH1 0x22 PUSH1 0x4 MSTORE PUSH1 0x24 PUSH0 REVERT JUMPDEST PUSH0 PUSH1 0x2 DUP3 DIV SWAP1 POP PUSH1 0x1 DUP3 AND DUP1 PUSH2 0xEF JUMPI PUSH1 0x7F DUP3 AND SWAP2 POP JUMPDEST PUSH1 0x20 DUP3 LT DUP2 SUB PUSH2 0x102 JUMPI PUSH2 0x101 PUSH2 0xAB JUMP JUMPDEST JUMPDEST POP SWAP2 SWAP1 POP JUMP JUMPDEST PUSH0 DUP2 SWAP1 POP DUP2 PUSH0 MSTORE PUSH1 0x20 PUSH0 KECCAK256 SWAP1 POP SWAP2 SWAP1 POP JUMP JUMPDEST PUSH0 PUSH1 0x20 PUSH1 0x1F DUP4 ADD DIV SWAP1 POP SWAP2 SWAP1 POP JUMP JUMPDEST PUSH0 DUP3 DUP3 SHL SWAP1 POP SWAP3 SWAP2 POP POP JUMP JUMPDEST PUSH0 PUSH1 0x8 DUP4 MUL PUSH2 0x164 PUSH32 0xFFFFFFFFFFFFFFFFFFFFFFFFFFFFFFFFFFFFFFFFFFFFFFFFFFFFFFFFFFFFFFFF DUP3 PUSH2 0x129 JUMP JUMPDEST PUSH2 0x16E DUP7 DUP4 PUSH2 0x129 JUMP JUMPDEST SWAP6 POP DUP1 NOT DUP5 AND SWAP4 POP DUP1 DUP7 AND DUP5 OR SWAP3 POP POP POP SWAP4 SWAP3 POP POP POP JUMP JUMPDEST PUSH0 DUP2 SWAP1 POP SWAP2 SWAP1 POP JUMP JUMPDEST PUSH0 DUP2 SWAP1 POP SWAP2 SWAP1 POP JUMP JUMPDEST PUSH0 PUSH2 0x1B2 PUSH2 0x1AD PUSH2 0x1A8 DUP5 PUSH2 0x186 JUMP JUMPDEST PUSH2 0x18F JUMP JUMPDEST PUSH2 0x186 JUMP JUMPDEST SWAP1 POP SWAP2 SWAP1 POP JUMP JUMPDEST PUSH0 DUP2 SWAP1 POP SWAP2 SWAP1 POP JUMP JUMPDEST PUSH2 0x1CB DUP4 PUSH2 0x198 JUMP JUMPDEST PUSH2 0x1DF PUSH2 0x1D7 DUP3 PUSH2 0x1B9 JUMP JUMPDEST DUP5 DUP5 SLOAD PUSH2 0x135 JUMP JUMPDEST DUP3 SSTORE POP POP POP POP JUMP JUMPDEST PUSH0 SWAP1 JUMP JUMPDEST PUSH2 0x1F3 PUSH2 0x1E7 JUMP JUMPDEST PUSH2 0x1FE DUP2 DUP5 DUP5 PUSH2 0x1C2 JUMP JUMPDEST POP POP POP JUMP JUMPDEST JUMPDEST DUP2 DUP2 LT ISZERO PUSH2 0x221 JUMPI PUSH2 0x216 PUSH0 DUP3 PUSH2 0x1EB JUMP JUMPDEST PUSH1 0x1 DUP2 ADD SWAP1 POP PUSH2 0x204 JUMP JUMPDEST POP POP JUMP JUMPDEST PUSH1 0x1F DUP3 GT ISZERO PUSH2 0x266 JUMPI PUSH2 0x237 DUP2 PUSH2 0x108 JUMP JUMPDEST PUSH2 0x240 DUP5 PUSH2 0x11A JUMP JUMPDEST DUP2 ADD PUSH1 0x20 DUP6 LT ISZERO PUSH2 0x24F JUMPI DUP2 SWAP1 POP JUMPDEST PUSH2 0x263 PUSH2 0x25B DUP6 PUSH2 0x11A JUMP JUMPDEST DUP4 ADD DUP3 PUSH2 0x203 JUMP JUMPDEST POP POP JUMPDEST POP POP POP JUMP JUMPDEST PUSH0 DUP3 DUP3 SHR SWAP1 POP SWAP3 SWAP2 POP POP JUMP JUMPDEST PUSH0 PUSH2 0x286 PUSH0 NOT DUP5 PUSH1 0x8 MUL PUSH2 0x26B JUMP JUMPDEST NOT DUP1 DUP4 AND SWAP2 POP POP SWAP3 SWAP2 POP POP JUMP JUMPDEST PUSH0 PUSH2 0x29E DUP4 DUP4 PUSH2 0x277 JUMP JUMPDEST SWAP2 POP DUP3 PUSH1 0x2 MUL DUP3 OR SWAP1 POP SWAP3 SWAP2 POP POP JUMP JUMPDEST PUSH2 0x2B7 DUP3 PUSH2 0x74 JUMP JUMPDEST PUSH8 0xFFFFFFFFFFFFFFFF DUP2 GT ISZERO PUSH2 0x2D0 JUMPI PUSH2 0x2CF PUSH2 0x7E JUMP JUMPDEST JUMPDEST PUSH2 0x2DA DUP3 SLOAD PUSH2 0xD8 JUMP JUMPDEST PUSH2 0x2E5 DUP3 DUP3 DUP6 PUSH2 0x225 JUMP JUMPDEST PUSH0 PUSH1 0x20 SWAP1 POP PUSH1 0x1F DUP4 GT PUSH1 0x1 DUP2 EQ PUSH2 0x316 JUMPI PUSH0 DUP5 ISZERO PUSH2 0x304 JUMPI DUP3 DUP8 ADD MLOAD SWAP1 POP JUMPDEST PUSH2 0x30E DUP6 DUP3 PUSH2 0x293 JUMP JUMPDEST DUP7 SSTORE POP PUSH2 0x375 JUMP JUMPDEST PUSH1 0x1F NOT DUP5 AND PUSH2 0x324 DUP7 PUSH2 0x108 JUMP JUMPDEST PUSH0 JUMPDEST DUP3 DUP2 LT ISZERO PUSH2 0x34B JUMPI DUP5 DUP10 ADD MLOAD DUP3 SSTORE PUSH1 0x1 DUP3 ADD SWAP2 POP PUSH1 0x20 DUP6 ADD SWAP5 POP PUSH1 0x20 DUP2 ADD SWAP1 POP PUSH2 0x326 JUMP JUMPDEST DUP7 DUP4 LT ISZERO PUSH2 0x368 JUMPI DUP5 DUP10 ADD MLOAD PUSH2 0x364 PUSH1 0x1F DUP10 AND DUP3 PUSH2 0x277 JUMP JUMPDEST DUP4 SSTORE POP JUMPDEST PUSH1 0x1 PUSH1 0x2 DUP9 MUL ADD DUP9 SSTORE POP POP POP JUMPDEST POP POP POP POP POP POP JUMP JUMPDEST PUSH2 0x530 DUP1 PUSH2 0x38A PUSH0 CODECOPY PUSH0 RETURN INVALID PUSH1 0x80 PUSH1 0x40 MSTORE CALLVALUE DUP1 ISZERO PUSH2 0xF JUMPI PUSH0 DUP1 REVERT JUMPDEST POP PUSH1 0x4 CALLDATASIZE LT PUSH2 0x34 JUMPI PUSH0 CALLDATALOAD PUSH1 0xE0 SHR DUP1 PUSH4 0xBD14598F EQ PUSH2 0x38 JUMPI DUP1 PUSH4 0xC0F8940C EQ PUSH2 0x56 JUMPI JUMPDEST PUSH0 DUP1 REVERT JUMPDEST PUSH2 0x40 PUSH2 0x75 JUMP JUMPDEST PUSH1 0x40 MLOAD PUSH2 0x4D SWAP2 SWAP1 PUSH2 0x16E JUMP JUMPDEST PUSH1 0x40 MLOAD DUP1 SWAP2 SUB SWAP1 RETURN JUMPDEST PUSH2 0x5E PUSH2 0xAB JUMP JUMPDEST PUSH1 0x40 MLOAD PUSH2 0x6C SWAP3 SWAP2 SWAP1 PUSH2 0x1FB JUMP JUMPDEST PUSH1 0x40 MLOAD DUP1 SWAP2 SUB SWAP1 RETURN JUMPDEST PUSH1 0x60 PUSH0 DUP1 SLOAD SWAP1 PUSH2 0x100 EXP SWAP1 DIV PUSH1 0xFF AND PUSH1 0x1 PUSH1 0x40 MLOAD PUSH1 0x20 ADD PUSH2 0x97 SWAP3 SWAP2 SWAP1 PUSH2 0x319 JUMP JUMPDEST PUSH1 0x40 MLOAD PUSH1 0x20 DUP2 DUP4 SUB SUB DUP2 MSTORE SWAP1 PUSH1 0x40 MSTORE SWAP1 POP SWAP1 JUMP JUMPDEST PUSH0 PUSH1 0x60 PUSH0 DUP1 PUSH0 SWAP1 SLOAD SWAP1 PUSH2 0x100 EXP SWAP1 DIV PUSH1 0xFF AND PUSH1 0x1 PUSH1 0x40 MLOAD PUSH1 0x20 ADD PUSH2 0xD0 SWAP3 SWAP2 SWAP1 PUSH2 0x319 JUMP JUMPDEST PUSH1 0x40 MLOAD PUSH1 0x20 DUP2 DUP4 SUB SUB DUP2 MSTORE SWAP1 PUSH1 0x40 MSTORE SWAP1 POP DUP1 DUP1 PUSH1 0x20 ADD SWAP1 MLOAD DUP2 ADD SWAP1 PUSH2 0xF5 SWAP2 SWAP1 PUSH2 0x4A0 JUMP JUMPDEST SWAP3 POP SWAP3 POP POP SWAP1 SWAP2 JUMP JUMPDEST PUSH0 DUP2 MLOAD SWAP1 POP SWAP2 SWAP1 POP JUMP JUMPDEST PUSH0 DUP3 DUP3 MSTORE PUSH1 0x20 DUP3 ADD SWAP1 POP SWAP3 SWAP2 POP POP JUMP JUMPDEST DUP3 DUP2 DUP4 MCOPY PUSH0 DUP4 DUP4 ADD MSTORE POP POP POP JUMP JUMPDEST PUSH0 PUSH1 0x1F NOT PUSH1 0x1F DUP4 ADD AND SWAP1 POP SWAP2 SWAP1 POP JUMP JUMPDEST PUSH0 PUSH2 0x140 DUP3 PUSH2 0xFE JUMP JUMPDEST PUSH2 0x14A DUP2 DUP6 PUSH2 0x108 JUMP JUMPDEST SWAP4 POP PUSH2 0x15A DUP2 DUP6 PUSH1 0x20 DUP7 ADD PUSH2 0x118 JUMP JUMPDEST PUSH2 0x163 DUP2 PUSH2 0x126 JUMP JUMPDEST DUP5 ADD SWAP2 POP POP SWAP3 SWAP2 POP POP JUMP JUMPDEST PUSH0 PUSH1 0x20 DUP3 ADD SWAP1 POP DUP2 DUP2 SUB PUSH0 DUP4 ADD MSTORE PUSH2 0x186 DUP2 DUP5 PUSH2 0x136 JUMP JUMPDEST SWAP1 POP SWAP3 SWAP2 POP POP JUMP JUMPDEST PUSH0 PUSH1 0xFF DUP3 AND SWAP1 POP SWAP2 SWAP1 POP JUMP JUMPDEST PUSH2 0x1A3 DUP2 PUSH2 0x18E JUMP JUMPDEST DUP3 MSTORE POP POP JUMP JUMPDEST PUSH0 DUP2 MLOAD SWAP1 POP SWAP2 SWAP1 POP JUMP JUMPDEST PUSH0 DUP3 DUP3 MSTORE PUSH1 0x20 DUP3 ADD SWAP1 POP SWAP3 SWAP2 POP POP JUMP JUMPDEST PUSH0 PUSH2 0x1CD DUP3 PUSH2 0x1A9 JUMP JUMPDEST PUSH2 0x1D7 DUP2 DUP6 PUSH2 0x1B3 JUMP JUMPDEST SWAP4 POP PUSH2 0x1E7 DUP2 DUP6 PUSH1 0x20 DUP7 ADD PUSH2 0x118 JUMP JUMPDEST PUSH2 0x1F0 DUP2 PUSH2 0x126 JUMP JUMPDEST DUP5 ADD SWAP2 POP POP SWAP3 SWAP2 POP POP JUMP JUMPDEST PUSH0 PUSH1 0x40 DUP3 ADD SWAP1 POP PUSH2 0x20E PUSH0 DUP4 ADD DUP6 PUSH2 0x19A JUMP JUMPDEST DUP2 DUP2 SUB PUSH1 0x20 DUP4 ADD MSTORE PUSH2 0x220 DUP2 DUP5 PUSH2 0x1C3 JUMP JUMPDEST SWAP1 POP SWAP4 SWAP3 POP POP POP JUMP JUMPDEST PUSH32 0x4E487B7100000000000000000000000000000000000000000000000000000000 PUSH0 MSTORE PUSH1 0x22 PUSH1 0x4 MSTORE PUSH1 0x24 PUSH0 REVERT JUMPDEST PUSH0 PUSH1 0x2 DUP3 DIV SWAP1 POP PUSH1 0x1 DUP3 AND DUP1 PUSH2 0x26D JUMPI PUSH1 0x7F DUP3 AND SWAP2 POP JUMPDEST PUSH1 0x20 DUP3 LT DUP2 SUB PUSH2 0x280 JUMPI PUSH2 0x27F PUSH2 0x229 JUMP JUMPDEST JUMPDEST POP SWAP2 SWAP1 POP JUMP JUMPDEST PUSH0 DUP2 SWAP1 POP DUP2 PUSH0 MSTORE PUSH1 0x20 PUSH0 KECCAK256 SWAP1 POP SWAP2 SWAP1 POP JUMP JUMPDEST PUSH0 DUP2 SLOAD PUSH2 0x2A4 DUP2 PUSH2 0x256 JUMP JUMPDEST PUSH2 0x2AE DUP2 DUP7 PUSH2 0x1B3 JUMP JUMPDEST SWAP5 POP PUSH1 0x1 DUP3 AND PUSH0 DUP2 EQ PUSH2 0x2C8 JUMPI PUSH1 0x1 DUP2 EQ PUSH2 0x2DE JUMPI PUSH2 0x310 JUMP JUMPDEST PUSH1 0xFF NOT DUP4 AND DUP7 MSTORE DUP2 ISZERO ISZERO PUSH1 0x20 MUL DUP7 ADD SWAP4 POP PUSH2 0x310 JUMP JUMPDEST PUSH2 0x2E7 DUP6 PUSH2 0x286 JUMP JUMPDEST PUSH0 JUMPDEST DUP4 DUP2 LT ISZERO PUSH2 0x308 JUMPI DUP2 SLOAD DUP2 DUP10 ADD MSTORE PUSH1 0x1 DUP3 ADD SWAP2 POP PUSH1 0x20 DUP2 ADD SWAP1 POP PUSH2 0x2E9 JUMP JUMPDEST DUP1 DUP9 ADD SWAP6 POP POP POP JUMPDEST POP POP POP SWAP3 SWAP2 POP POP JUMP JUMPDEST PUSH0 PUSH1 0x40 DUP3 ADD SWAP1 POP PUSH2 0x32C PUSH0 DUP4 ADD DUP6 PUSH2 0x19A JUMP JUMPDEST DUP2 DUP2 SUB PUSH1 0x20 DUP4 ADD MSTORE PUSH2 0x33E DUP2 DUP5 PUSH2 0x298 JUMP JUMPDEST SWAP1 POP SWAP4 SWAP3 POP POP POP JUMP JUMPDEST PUSH0 PUSH1 0x40 MLOAD SWAP1 POP SWAP1 JUMP JUMPDEST PUSH0 DUP1 REVERT JUMPDEST PUSH0 DUP1 REVERT JUMPDEST PUSH2 0x361 DUP2 PUSH2 0x18E JUMP JUMPDEST DUP2 EQ PUSH2 0x36B JUMPI PUSH0 DUP1 REVERT JUMPDEST POP JUMP JUMPDEST PUSH0 DUP2 MLOAD SWAP1 POP PUSH2 0x37C DUP2 PUSH2 0x358 JUMP JUMPDEST SWAP3 SWAP2 POP POP JUMP JUMPDEST PUSH0 DUP1 REVERT JUMPDEST PUSH0 DUP1 REVERT JUMPDEST PUSH32 0x4E487B7100000000000000000000000000000000000000000000000000000000 PUSH0 MSTORE PUSH1 0x41 PUSH1 0x4 MSTORE PUSH1 0x24 PUSH0 REVERT JUMPDEST PUSH2 0x3C0 DUP3 PUSH2 0x126 JUMP JUMPDEST DUP2 ADD DUP2 DUP2 LT PUSH8 0xFFFFFFFFFFFFFFFF DUP3 GT OR ISZERO PUSH2 0x3DF JUMPI PUSH2 0x3DE PUSH2 0x38A JUMP JUMPDEST JUMPDEST DUP1 PUSH1 0x40 MSTORE POP POP POP JUMP JUMPDEST PUSH0 PUSH2 0x3F1 PUSH2 0x347 JUMP JUMPDEST SWAP1 POP PUSH2 0x3FD DUP3 DUP3 PUSH2 0x3B7 JUMP JUMPDEST SWAP2 SWAP1 POP JUMP JUMPDEST PUSH0 PUSH8 0xFFFFFFFFFFFFFFFF DUP3 GT ISZERO PUSH2 0x41C JUMPI PUSH2 0x41B PUSH2 0x38A JUMP JUMPDEST JUMPDEST PUSH2 0x425 DUP3 PUSH2 0x126 JUMP JUMPDEST SWAP1 POP PUSH1 0x20 DUP2 ADD SWAP1 POP SWAP2 SWAP1 POP JUMP JUMPDEST PUSH0 PUSH2 0x444 PUSH2 0x43F DUP5 PUSH2 0x402 JUMP JUMPDEST PUSH2 0x3E8 JUMP JUMPDEST SWAP1 POP DUP3 DUP2 MSTORE PUSH1 0x20 DUP2 ADD DUP5 DUP5 DUP5 ADD GT ISZERO PUSH2 0x460 JUMPI PUSH2 0x45F PUSH2 0x386 JUMP JUMPDEST JUMPDEST PUSH2 0x46B DUP5 DUP3 DUP6 PUSH2 0x118 JUMP JUMPDEST POP SWAP4 SWAP3 POP POP POP JUMP JUMPDEST PUSH0 DUP3 PUSH1 0x1F DUP4 ADD SLT PUSH2 0x487 JUMPI PUSH2 0x486 PUSH2 0x382 JUMP JUMPDEST JUMPDEST DUP2 MLOAD PUSH2 0x497 DUP5 DUP3 PUSH1 0x20 DUP7 ADD PUSH2 0x432 JUMP JUMPDEST SWAP2 POP POP SWAP3 SWAP2 POP POP JUMP JUMPDEST PUSH0 DUP1 PUSH1 0x40 DUP4 DUP6 SUB SLT ISZERO PUSH2 0x4B6 JUMPI PUSH2 0x4B5 PUSH2 0x350 JUMP JUMPDEST JUMPDEST PUSH0 PUSH2 0x4C3 DUP6 DUP3 DUP7 ADD PUSH2 0x36E JUMP JUMPDEST SWAP3 POP POP PUSH1 0x20 DUP4 ADD MLOAD PUSH8 0xFFFFFFFFFFFFFFFF DUP2 GT ISZERO PUSH2 0x4E4 JUMPI PUSH2 0x4E3 PUSH2 0x354 JUMP JUMPDEST JUMPDEST PUSH2 0x4F0 DUP6 DUP3 DUP7 ADD PUSH2 0x473 JUMP JUMPDEST SWAP2 POP POP SWAP3 POP SWAP3 SWAP1 POP JUMP INVALID LOG2 PUSH5 0x6970667358 0x22 SLT KECCAK256 GASLIMIT PUSH3 0xBE371D 0x24 PUSH9 0xD313393ECD4A2EBA33 0xAF PUSH23 0xA3D854D75767AFEDA17423A756AE64736F6C634300081A STOP CALLER "
		},
		"gasEstimates": {
			"creation": {
				"codeDepositCost": "265600",
				"executionCost": "infinite",
				"totalCost": "infinite"
			},
			"external": {
				"decode()": "infinite",
				"encode()": "infinite"
			}
		},
		"methodIdentifiers": {
			"decode()": "c0f8940c",
			"encode()": "bd14598f"
		}
	},
	"abi": [
		{
			"anonymous": false,
			"inputs": [
				{
					"indexed": false,
					"internalType": "string",
					"name": "name",
					"type": "string"
				}
			],
			"name": "logString",
			"type": "event"
		},
		{
			"inputs": [],
			"name": "decode",
			"outputs": [
				{
					"internalType": "uint8",
					"name": "",
					"type": "uint8"
				},
				{
					"internalType": "string",
					"name": "",
					"type": "string"
				}
			],
			"stateMutability": "view",
			"type": "function"
		},
		{
			"inputs": [],
			"name": "encode",
			"outputs": [
				{
					"internalType": "bytes",
					"name": "",
					"type": "bytes"
				}
			],
			"stateMutability": "view",
			"type": "function"
		}
	]
}