{
	"data": {
		"bytecode": {
			"linkReferences": {},
			"object": "608060405260145f553480156012575f80fd5b506104f2806100205f395ff3fe608060405234801561000f575f80fd5b5060043610610034575f3560e01c806306661abd14610038578063e9e1c15714610056575b5f80fd5b610040610087565b60405161004d9190610259565b60405180910390f35b610070600480360381019061006b91906102d0565b61008c565b60405161007e929190610385565b60405180910390f35b5f5481565b5f60605f6040518060400160405280600c81526020017f696e632875696e743235362900000000000000000000000000000000000000008152508051906020012090505f60086040516024016100e29190610401565b6040516020818303038152906040527f812600df000000000000000000000000000000000000000000000000000000007bffffffffffffffffffffffffffffffffffffffffffffffffffffffff19166020820180517bffffffffffffffffffffffffffffffffffffffffffffffffffffffff8381831617835250505050905081600a6040516024016101749190610453565b604051602081830303815290604052907bffffffffffffffffffffffffffffffffffffffffffffffffffffffff19166020820180517bffffffffffffffffffffffffffffffffffffffffffffffffffffffff838183161783525050505090508473ffffffffffffffffffffffffffffffffffffffff16816040516101f891906104a6565b5f60405180830381855af49150503d805f8114610230576040519150601f19603f3d011682016040523d82523d5f602084013e610235565b606091505b50935093505050915091565b5f819050919050565b61025381610241565b82525050565b5f60208201905061026c5f83018461024a565b92915050565b5f80fd5b5f73ffffffffffffffffffffffffffffffffffffffff82169050919050565b5f61029f82610276565b9050919050565b6102af81610295565b81146102b9575f80fd5b50565b5f813590506102ca816102a6565b92915050565b5f602082840312156102e5576102e4610272565b5b5f6102f2848285016102bc565b91505092915050565b5f8115159050919050565b61030f816102fb565b82525050565b5f81519050919050565b5f82825260208201905092915050565b8281835e5f83830152505050565b5f601f19601f8301169050919050565b5f61035782610315565b610361818561031f565b935061037181856020860161032f565b61037a8161033d565b840191505092915050565b5f6040820190506103985f830185610306565b81810360208301526103aa818461034d565b90509392505050565b5f819050919050565b5f60ff82169050919050565b5f819050919050565b5f6103eb6103e66103e1846103b3565b6103c8565b6103bc565b9050919050565b6103fb816103d1565b82525050565b5f6020820190506104145f8301846103f2565b92915050565b5f819050919050565b5f61043d6104386104338461041a565b6103c8565b6103bc565b9050919050565b61044d81610423565b82525050565b5f6020820190506104665f830184610444565b92915050565b5f81905092915050565b5f61048082610315565b61048a818561046c565b935061049a81856020860161032f565b80840191505092915050565b5f6104b18284610476565b91508190509291505056fea26469706673582212201a2970e31277c30a11a3f1e3f5b084f5adbe601d42a97491801542aefc0a5beb64736f6c634300081a0033",
			"opcodes": "PUSH1 0x80 PUSH1 0x40 MSTORE PUSH1 0x14 PUSH0 SSTORE CALLVALUE DUP1 ISZERO PUSH1 0x12 JUMPI PUSH0 DUP1 REVERT JUMPDEST POP PUSH2 0x4F2 DUP1 PUSH2 0x20 PUSH0 CODECOPY PUSH0 RETURN INVALID PUSH1 0x80 PUSH1 0x40 MSTORE CALLVALUE DUP1 ISZERO PUSH2 0xF JUMPI PUSH0 DUP1 REVERT JUMPDEST POP PUSH1 0x4 CALLDATASIZE LT PUSH2 0x34 JUMPI PUSH0 CALLDATALOAD PUSH1 0xE0 SHR DUP1 PUSH4 0x6661ABD EQ PUSH2 0x38 JUMPI DUP1 PUSH4 0xE9E1C157 EQ PUSH2 0x56 JUMPI JUMPDEST PUSH0 DUP1 REVERT JUMPDEST PUSH2 0x40 PUSH2 0x87 JUMP JUMPDEST PUSH1 0x40 MLOAD PUSH2 0x4D SWAP2 SWAP1 PUSH2 0x259 JUMP JUMPDEST PUSH1 0x40 MLOAD DUP1 SWAP2 SUB SWAP1 RETURN JUMPDEST PUSH2 0x70 PUSH1 0x4 DUP1 CALLDATASIZE SUB DUP2 ADD SWAP1 PUSH2 0x6B SWAP2 SWAP1 PUSH2 0x2D0 JUMP JUMPDEST PUSH2 0x8C JUMP JUMPDEST PUSH1 0x40 MLOAD PUSH2 0x7E SWAP3 SWAP2 SWAP1 PUSH2 0x385 JUMP JUMPDEST PUSH1 0x40 MLOAD DUP1 SWAP2 SUB SWAP1 RETURN JUMPDEST PUSH0 SLOAD DUP2 JUMP JUMPDEST PUSH0 PUSH1 0x60 PUSH0 PUSH1 0x40 MLOAD DUP1 PUSH1 0x40 ADD PUSH1 0x40 MSTORE DUP1 PUSH1 0xC DUP2 MSTORE PUSH1 0x20 ADD PUSH32 0x696E632875696E74323536290000000000000000000000000000000000000000 DUP2 MSTORE POP DUP1 MLOAD SWAP1 PUSH1 0x20 ADD KECCAK256 SWAP1 POP PUSH0 PUSH1 0x8 PUSH1 0x40 MLOAD PUSH1 0x24 ADD PUSH2 0xE2 SWAP2 SWAP1 PUSH2 0x401 JUMP JUMPDEST PUSH1 0x40 MLOAD PUSH1 0x20 DUP2 DUP4 SUB SUB DUP2 MSTORE SWAP1 PUSH1 0x40 MSTORE PUSH32 0x812600DF00000000000000000000000000000000000000000000000000000000 PUSH28 0xFFFFFFFFFFFFFFFFFFFFFFFFFFFFFFFFFFFFFFFFFFFFFFFFFFFFFFFF NOT AND PUSH1 0x20 DUP3 ADD DUP1 MLOAD PUSH28 0xFFFFFFFFFFFFFFFFFFFFFFFFFFFFFFFFFFFFFFFFFFFFFFFFFFFFFFFF DUP4 DUP2 DUP4 AND OR DUP4 MSTORE POP POP POP POP SWAP1 POP DUP2 PUSH1 0xA PUSH1 0x40 MLOAD PUSH1 0x24 ADD PUSH2 0x174 SWAP2 SWAP1 PUSH2 0x453 JUMP JUMPDEST PUSH1 0x40 MLOAD PUSH1 0x20 DUP2 DUP4 SUB SUB DUP2 MSTORE SWAP1 PUSH1 0x40 MSTORE SWAP1 PUSH28 0xFFFFFFFFFFFFFFFFFFFFFFFFFFFFFFFFFFFFFFFFFFFFFFFFFFFFFFFF NOT AND PUSH1 0x20 DUP3 ADD DUP1 MLOAD PUSH28 0xFFFFFFFFFFFFFFFFFFFFFFFFFFFFFFFFFFFFFFFFFFFFFFFFFFFFFFFF DUP4 DUP2 DUP4 AND OR DUP4 MSTORE POP POP POP POP SWAP1 POP DUP5 PUSH20 0xFFFFFFFFFFFFFFFFFFFFFFFFFFFFFFFFFFFFFFFF AND DUP2 PUSH1 0x40 MLOAD PUSH2 0x1F8 SWAP2 SWAP1 PUSH2 0x4A6 JUMP JUMPDEST PUSH0 PUSH1 0x40 MLOAD DUP1 DUP4 SUB DUP2 DUP6 GAS DELEGATECALL SWAP2 POP POP RETURNDATASIZE DUP1 PUSH0 DUP2 EQ PUSH2 0x230 JUMPI PUSH1 0x40 MLOAD SWAP2 POP PUSH1 0x1F NOT PUSH1 0x3F RETURNDATASIZE ADD AND DUP3 ADD PUSH1 0x40 MSTORE RETURNDATASIZE DUP3 MSTORE RETURNDATASIZE PUSH0 PUSH1 0x20 DUP5 ADD RETURNDATACOPY PUSH2 0x235 JUMP JUMPDEST PUSH1 0x60 SWAP2 POP JUMPDEST POP SWAP4 POP SWAP4 POP POP POP SWAP2 POP SWAP2 JUMP JUMPDEST PUSH0 DUP2 SWAP1 POP SWAP2 SWAP1 POP JUMP JUMPDEST PUSH2 0x253 DUP2 PUSH2 0x241 JUMP JUMPDEST DUP3 MSTORE POP POP JUMP JUMPDEST PUSH0 PUSH1 0x20 DUP3 ADD SWAP1 POP PUSH2 0x26C PUSH0 DUP4 ADD DUP5 PUSH2 0x24A JUMP JUMPDEST SWAP3 SWAP2 POP POP JUMP JUMPDEST PUSH0 DUP1 REVERT JUMPDEST PUSH0 PUSH20 0xFFFFFFFFFFFFFFFFFFFFFFFFFFFFFFFFFFFFFFFF DUP3 AND SWAP1 POP SWAP2 SWAP1 POP JUMP JUMPDEST PUSH0 PUSH2 0x29F DUP3 PUSH2 0x276 JUMP JUMPDEST SWAP1 POP SWAP2 SWAP1 POP JUMP JUMPDEST PUSH2 0x2AF DUP2 PUSH2 0x295 JUMP JUMPDEST DUP2 EQ PUSH2 0x2B9 JUMPI PUSH0 DUP1 REVERT JUMPDEST POP JUMP JUMPDEST PUSH0 DUP2 CALLDATALOAD SWAP1 POP PUSH2 0x2CA DUP2 PUSH2 0x2A6 JUMP JUMPDEST SWAP3 SWAP2 POP POP JUMP JUMPDEST PUSH0 PUSH1 0x20 DUP3 DUP5 SUB SLT ISZERO PUSH2 0x2E5 JUMPI PUSH2 0x2E4 PUSH2 0x272 JUMP JUMPDEST JUMPDEST PUSH0 PUSH2 0x2F2 DUP5 DUP3 DUP6 ADD PUSH2 0x2BC JUMP JUMPDEST SWAP2 POP POP SWAP3 SWAP2 POP POP JUMP JUMPDEST PUSH0 DUP2 ISZERO ISZERO SWAP1 POP SWAP2 SWAP1 POP JUMP JUMPDEST PUSH2 0x30F DUP2 PUSH2 0x2FB JUMP JUMPDEST DUP3 MSTORE POP POP JUMP JUMPDEST PUSH0 DUP2 MLOAD SWAP1 POP SWAP2 SWAP1 POP JUMP JUMPDEST PUSH0 DUP3 DUP3 MSTORE PUSH1 0x20 DUP3 ADD SWAP1 POP SWAP3 SWAP2 POP POP JUMP JUMPDEST DUP3 DUP2 DUP4 MCOPY PUSH0 DUP4 DUP4 ADD MSTORE POP POP POP JUMP JUMPDEST PUSH0 PUSH1 0x1F NOT PUSH1 0x1F DUP4 ADD AND SWAP1 POP SWAP2 SWAP1 POP JUMP JUMPDEST PUSH0 PUSH2 0x357 DUP3 PUSH2 0x315 JUMP JUMPDEST PUSH2 0x361 DUP2 DUP6 PUSH2 0x31F JUMP JUMPDEST SWAP4 POP PUSH2 0x371 DUP2 DUP6 PUSH1 0x20 DUP7 ADD PUSH2 0x32F JUMP JUMPDEST PUSH2 0x37A DUP2 PUSH2 0x33D JUMP JUMPDEST DUP5 ADD SWAP2 POP POP SWAP3 SWAP2 POP POP JUMP JUMPDEST PUSH0 PUSH1 0x40 DUP3 ADD SWAP1 POP PUSH2 0x398 PUSH0 DUP4 ADD DUP6 PUSH2 0x306 JUMP JUMPDEST DUP2 DUP2 SUB PUSH1 0x20 DUP4 ADD MSTORE PUSH2 0x3AA DUP2 DUP5 PUSH2 0x34D JUMP JUMPDEST SWAP1 POP SWAP4 SWAP3 POP POP POP JUMP JUMPDEST PUSH0 DUP2 SWAP1 POP SWAP2 SWAP1 POP JUMP JUMPDEST PUSH0 PUSH1 0xFF DUP3 AND SWAP1 POP SWAP2 SWAP1 POP JUMP JUMPDEST PUSH0 DUP2 SWAP1 POP SWAP2 SWAP1 POP JUMP JUMPDEST PUSH0 PUSH2 0x3EB PUSH2 0x3E6 PUSH2 0x3E1 DUP5 PUSH2 0x3B3 JUMP JUMPDEST PUSH2 0x3C8 JUMP JUMPDEST PUSH2 0x3BC JUMP JUMPDEST SWAP1 POP SWAP2 SWAP1 POP JUMP JUMPDEST PUSH2 0x3FB DUP2 PUSH2 0x3D1 JUMP JUMPDEST DUP3 MSTORE POP POP JUMP JUMPDEST PUSH0 PUSH1 0x20 DUP3 ADD SWAP1 POP PUSH2 0x414 PUSH0 DUP4 ADD DUP5 PUSH2 0x3F2 JUMP JUMPDEST SWAP3 SWAP2 POP POP JUMP JUMPDEST PUSH0 DUP2 SWAP1 POP SWAP2 SWAP1 POP JUMP JUMPDEST PUSH0 PUSH2 0x43D PUSH2 0x438 PUSH2 0x433 DUP5 PUSH2 0x41A JUMP JUMPDEST PUSH2 0x3C8 JUMP JUMPDEST PUSH2 0x3BC JUMP JUMPDEST SWAP1 POP SWAP2 SWAP1 POP JUMP JUMPDEST PUSH2 0x44D DUP2 PUSH2 0x423 JUMP JUMPDEST DUP3 MSTORE POP POP JUMP JUMPDEST PUSH0 PUSH1 0x20 DUP3 ADD SWAP1 POP PUSH2 0x466 PUSH0 DUP4 ADD DUP5 PUSH2 0x444 JUMP JUMPDEST SWAP3 SWAP2 POP POP JUMP JUMPDEST PUSH0 DUP2 SWAP1 POP SWAP3 SWAP2 POP POP JUMP JUMPDEST PUSH0 PUSH2 0x480 DUP3 PUSH2 0x315 JUMP JUMPDEST PUSH2 0x48A DUP2 DUP6 PUSH2 0x46C JUMP JUMPDEST SWAP4 POP PUSH2 0x49A DUP2 DUP6 PUSH1 0x20 DUP7 ADD PUSH2 0x32F JUMP JUMPDEST DUP1 DUP5 ADD SWAP2 POP POP SWAP3 SWAP2 POP POP JUMP JUMPDEST PUSH0 PUSH2 0x4B1 DUP3 DUP5 PUSH2 0x476 JUMP JUMPDEST SWAP2 POP DUP2 SWAP1 POP SWAP3 SWAP2 POP POP JUMP INVALID LOG2 PUSH5 0x6970667358 0x22 SLT KECCAK256 BYTE 0x29 PUSH17 0xE31277C30A11A3F1E3F5B084F5ADBE601D TIMESTAMP 0xA9 PUSH21 0x91801542AEFC0A5BEB64736F6C634300081A003300 "
		},
		"gasEstimates": {
			"creation": {
				"codeDepositCost": "253200",
				"executionCost": "22397",
				"totalCost": "275597"
			},
			"external": {
				"callByAddr(address)": "infinite",
				"count()": "2402"
			}
		},
		"methodIdentifiers": {
			"callByAddr(address)": "e9e1c157",
			"count()": "06661abd"
		}
	},
	"abi": [
		{
			"inputs": [
				{
					"internalType": "address",
					"name": "addr",
					"type": "address"
				}
			],
			"name": "callByAddr",
			"outputs": [
				{
					"internalType": "bool",
					"name": "",
					"type": "bool"
				},
				{
					"internalType": "bytes",
					"name": "",
					"type": "bytes"
				}
			],
			"stateMutability": "nonpayable",
			"type": "function"
		},
		{
			"inputs": [],
			"name": "count",
			"outputs": [
				{
					"internalType": "uint256",
					"name": "",
					"type": "uint256"
				}
			],
			"stateMutability": "view",
			"type": "function"
		}
	]
}