{
	"data": {
		"bytecode": {
			"linkReferences": {},
			"object": "6080604052348015600e575f80fd5b5061038f8061001c5f395ff3fe608060405234801561000f575f80fd5b5060043610610029575f3560e01c80633c3560491461002d575b5f80fd5b610047600480360381019061004291906101bf565b61005e565b604051610055929190610274565b60405180910390f35b5f60605f600860405160240161007491906102f0565b6040516020818303038152906040527f55241077000000000000000000000000000000000000000000000000000000007bffffffffffffffffffffffffffffffffffffffffffffffffffffffff19166020820180517bffffffffffffffffffffffffffffffffffffffffffffffffffffffff838183161783525050505090508373ffffffffffffffffffffffffffffffffffffffff16816040516101189190610343565b5f604051808303815f865af19150503d805f8114610151576040519150601f19603f3d011682016040523d82523d5f602084013e610156565b606091505b509250925050915091565b5f80fd5b5f73ffffffffffffffffffffffffffffffffffffffff82169050919050565b5f61018e82610165565b9050919050565b61019e81610184565b81146101a8575f80fd5b50565b5f813590506101b981610195565b92915050565b5f602082840312156101d4576101d3610161565b5b5f6101e1848285016101ab565b91505092915050565b5f8115159050919050565b6101fe816101ea565b82525050565b5f81519050919050565b5f82825260208201905092915050565b8281835e5f83830152505050565b5f601f19601f8301169050919050565b5f61024682610204565b610250818561020e565b935061026081856020860161021e565b6102698161022c565b840191505092915050565b5f6040820190506102875f8301856101f5565b8181036020830152610299818461023c565b90509392505050565b5f819050919050565b5f60ff82169050919050565b5f819050919050565b5f6102da6102d56102d0846102a2565b6102b7565b6102ab565b9050919050565b6102ea816102c0565b82525050565b5f6020820190506103035f8301846102e1565b92915050565b5f81905092915050565b5f61031d82610204565b6103278185610309565b935061033781856020860161021e565b80840191505092915050565b5f61034e8284610313565b91508190509291505056fea264697066735822122063c363a2547cadd13a6c0cca8852aa0b4b2ed46a8d2f295b5ce3aff8c9c3329b64736f6c634300081a0033",
			"opcodes": "PUSH1 0x80 PUSH1 0x40 MSTORE CALLVALUE DUP1 ISZERO PUSH1 0xE JUMPI PUSH0 DUP1 REVERT JUMPDEST POP PUSH2 0x38F DUP1 PUSH2 0x1C PUSH0 CODECOPY PUSH0 RETURN INVALID PUSH1 0x80 PUSH1 0x40 MSTORE CALLVALUE DUP1 ISZERO PUSH2 0xF JUMPI PUSH0 DUP1 REVERT JUMPDEST POP PUSH1 0x4 CALLDATASIZE LT PUSH2 0x29 JUMPI PUSH0 CALLDATALOAD PUSH1 0xE0 SHR DUP1 PUSH4 0x3C356049 EQ PUSH2 0x2D JUMPI JUMPDEST PUSH0 DUP1 REVERT JUMPDEST PUSH2 0x47 PUSH1 0x4 DUP1 CALLDATASIZE SUB DUP2 ADD SWAP1 PUSH2 0x42 SWAP2 SWAP1 PUSH2 0x1BF JUMP JUMPDEST PUSH2 0x5E JUMP JUMPDEST PUSH1 0x40 MLOAD PUSH2 0x55 SWAP3 SWAP2 SWAP1 PUSH2 0x274 JUMP JUMPDEST PUSH1 0x40 MLOAD DUP1 SWAP2 SUB SWAP1 RETURN JUMPDEST PUSH0 PUSH1 0x60 PUSH0 PUSH1 0x8 PUSH1 0x40 MLOAD PUSH1 0x24 ADD PUSH2 0x74 SWAP2 SWAP1 PUSH2 0x2F0 JUMP JUMPDEST PUSH1 0x40 MLOAD PUSH1 0x20 DUP2 DUP4 SUB SUB DUP2 MSTORE SWAP1 PUSH1 0x40 MSTORE PUSH32 0x5524107700000000000000000000000000000000000000000000000000000000 PUSH28 0xFFFFFFFFFFFFFFFFFFFFFFFFFFFFFFFFFFFFFFFFFFFFFFFFFFFFFFFF NOT AND PUSH1 0x20 DUP3 ADD DUP1 MLOAD PUSH28 0xFFFFFFFFFFFFFFFFFFFFFFFFFFFFFFFFFFFFFFFFFFFFFFFFFFFFFFFF DUP4 DUP2 DUP4 AND OR DUP4 MSTORE POP POP POP POP SWAP1 POP DUP4 PUSH20 0xFFFFFFFFFFFFFFFFFFFFFFFFFFFFFFFFFFFFFFFF AND DUP2 PUSH1 0x40 MLOAD PUSH2 0x118 SWAP2 SWAP1 PUSH2 0x343 JUMP JUMPDEST PUSH0 PUSH1 0x40 MLOAD DUP1 DUP4 SUB DUP2 PUSH0 DUP7 GAS CALL SWAP2 POP POP RETURNDATASIZE DUP1 PUSH0 DUP2 EQ PUSH2 0x151 JUMPI PUSH1 0x40 MLOAD SWAP2 POP PUSH1 0x1F NOT PUSH1 0x3F RETURNDATASIZE ADD AND DUP3 ADD PUSH1 0x40 MSTORE RETURNDATASIZE DUP3 MSTORE RETURNDATASIZE PUSH0 PUSH1 0x20 DUP5 ADD RETURNDATACOPY PUSH2 0x156 JUMP JUMPDEST PUSH1 0x60 SWAP2 POP JUMPDEST POP SWAP3 POP SWAP3 POP POP SWAP2 POP SWAP2 JUMP JUMPDEST PUSH0 DUP1 REVERT JUMPDEST PUSH0 PUSH20 0xFFFFFFFFFFFFFFFFFFFFFFFFFFFFFFFFFFFFFFFF DUP3 AND SWAP1 POP SWAP2 SWAP1 POP JUMP JUMPDEST PUSH0 PUSH2 0x18E DUP3 PUSH2 0x165 JUMP JUMPDEST SWAP1 POP SWAP2 SWAP1 POP JUMP JUMPDEST PUSH2 0x19E DUP2 PUSH2 0x184 JUMP JUMPDEST DUP2 EQ PUSH2 0x1A8 JUMPI PUSH0 DUP1 REVERT JUMPDEST POP JUMP JUMPDEST PUSH0 DUP2 CALLDATALOAD SWAP1 POP PUSH2 0x1B9 DUP2 PUSH2 0x195 JUMP JUMPDEST SWAP3 SWAP2 POP POP JUMP JUMPDEST PUSH0 PUSH1 0x20 DUP3 DUP5 SUB SLT ISZERO PUSH2 0x1D4 JUMPI PUSH2 0x1D3 PUSH2 0x161 JUMP JUMPDEST JUMPDEST PUSH0 PUSH2 0x1E1 DUP5 DUP3 DUP6 ADD PUSH2 0x1AB JUMP JUMPDEST SWAP2 POP POP SWAP3 SWAP2 POP POP JUMP JUMPDEST PUSH0 DUP2 ISZERO ISZERO SWAP1 POP SWAP2 SWAP1 POP JUMP JUMPDEST PUSH2 0x1FE DUP2 PUSH2 0x1EA JUMP JUMPDEST DUP3 MSTORE POP POP JUMP JUMPDEST PUSH0 DUP2 MLOAD SWAP1 POP SWAP2 SWAP1 POP JUMP JUMPDEST PUSH0 DUP3 DUP3 MSTORE PUSH1 0x20 DUP3 ADD SWAP1 POP SWAP3 SWAP2 POP POP JUMP JUMPDEST DUP3 DUP2 DUP4 MCOPY PUSH0 DUP4 DUP4 ADD MSTORE POP POP POP JUMP JUMPDEST PUSH0 PUSH1 0x1F NOT PUSH1 0x1F DUP4 ADD AND SWAP1 POP SWAP2 SWAP1 POP JUMP JUMPDEST PUSH0 PUSH2 0x246 DUP3 PUSH2 0x204 JUMP JUMPDEST PUSH2 0x250 DUP2 DUP6 PUSH2 0x20E JUMP JUMPDEST SWAP4 POP PUSH2 0x260 DUP2 DUP6 PUSH1 0x20 DUP7 ADD PUSH2 0x21E JUMP JUMPDEST PUSH2 0x269 DUP2 PUSH2 0x22C JUMP JUMPDEST DUP5 ADD SWAP2 POP POP SWAP3 SWAP2 POP POP JUMP JUMPDEST PUSH0 PUSH1 0x40 DUP3 ADD SWAP1 POP PUSH2 0x287 PUSH0 DUP4 ADD DUP6 PUSH2 0x1F5 JUMP JUMPDEST DUP2 DUP2 SUB PUSH1 0x20 DUP4 ADD MSTORE PUSH2 0x299 DUP2 DUP5 PUSH2 0x23C JUMP JUMPDEST SWAP1 POP SWAP4 SWAP3 POP POP POP JUMP JUMPDEST PUSH0 DUP2 SWAP1 POP SWAP2 SWAP1 POP JUMP JUMPDEST PUSH0 PUSH1 0xFF DUP3 AND SWAP1 POP SWAP2 SWAP1 POP JUMP JUMPDEST PUSH0 DUP2 SWAP1 POP SWAP2 SWAP1 POP JUMP JUMPDEST PUSH0 PUSH2 0x2DA PUSH2 0x2D5 PUSH2 0x2D0 DUP5 PUSH2 0x2A2 JUMP JUMPDEST PUSH2 0x2B7 JUMP JUMPDEST PUSH2 0x2AB JUMP JUMPDEST SWAP1 POP SWAP2 SWAP1 POP JUMP JUMPDEST PUSH2 0x2EA DUP2 PUSH2 0x2C0 JUMP JUMPDEST DUP3 MSTORE POP POP JUMP JUMPDEST PUSH0 PUSH1 0x20 DUP3 ADD SWAP1 POP PUSH2 0x303 PUSH0 DUP4 ADD DUP5 PUSH2 0x2E1 JUMP JUMPDEST SWAP3 SWAP2 POP POP JUMP JUMPDEST PUSH0 DUP2 SWAP1 POP SWAP3 SWAP2 POP POP JUMP JUMPDEST PUSH0 PUSH2 0x31D DUP3 PUSH2 0x204 JUMP JUMPDEST PUSH2 0x327 DUP2 DUP6 PUSH2 0x309 JUMP JUMPDEST SWAP4 POP PUSH2 0x337 DUP2 DUP6 PUSH1 0x20 DUP7 ADD PUSH2 0x21E JUMP JUMPDEST DUP1 DUP5 ADD SWAP2 POP POP SWAP3 SWAP2 POP POP JUMP JUMPDEST PUSH0 PUSH2 0x34E DUP3 DUP5 PUSH2 0x313 JUMP JUMPDEST SWAP2 POP DUP2 SWAP1 POP SWAP3 SWAP2 POP POP JUMP INVALID LOG2 PUSH5 0x6970667358 0x22 SLT KECCAK256 PUSH4 0xC363A254 PUSH29 0xADD13A6C0CCA8852AA0B4B2ED46A8D2F295B5CE3AFF8C9C3329B64736F PUSH13 0x634300081A0033000000000000 "
		},
		"gasEstimates": {
			"creation": {
				"codeDepositCost": "182200",
				"executionCost": "224",
				"totalCost": "182424"
			},
			"external": {
				"callExternalFunc(address)": "infinite"
			}
		},
		"methodIdentifiers": {
			"callExternalFunc(address)": "3c356049"
		}
	},
	"abi": [
		{
			"inputs": [
				{
					"internalType": "address",
					"name": "contractAddress",
					"type": "address"
				}
			],
			"name": "callExternalFunc",
			"outputs": [
				{
					"internalType": "bool",
					"name": "",
					"type": "bool"
				},
				{
					"internalType": "bytes",
					"name": "",
					"type": "bytes"
				}
			],
			"stateMutability": "nonpayable",
			"type": "function"
		}
	]
}