{
	"data": {
		"bytecode": {
			"linkReferences": {},
			"object": "6080604052348015600e575f80fd5b506103048061001c5f395ff3fe608060405234801561000f575f80fd5b5060043610610055575f3560e01c80630bfc516b1461005957806323fc07f51461007757806374322ad914610095578063c2985578146100b3578063eee079df146100d1575b5f80fd5b6100616100ef565b60405161006e91906102ae565b60405180910390f35b61007f61012c565b60405161008c91906102ae565b60405180910390f35b61009d61013b565b6040516100aa91906102ae565b60405180910390f35b6100bb610178565b6040516100c891906102ae565b60405180910390f35b6100d9610187565b6040516100e691906102ae565b60405180910390f35b60606040518060400160405280601081526020017f68656c6c6f20636f6e7472616374204200000000000000000000000000000000815250905090565b60606101366101c4565b905090565b60606040518060400160405280601081526020017f68656c6c6f20636f6e7472616374204100000000000000000000000000000000815250905090565b6060610182610201565b905090565b60606040518060400160405280600e81526020017f6f7665727269646520666f6f4242000000000000000000000000000000000000815250905090565b60606040518060400160405280601181526020017f68656c6c6f20636f6e7472616374204242000000000000000000000000000000815250905090565b60606040518060400160405280601081526020017f68656c6c6f20636f6e7472616374422000000000000000000000000000000000815250905090565b5f81519050919050565b5f82825260208201905092915050565b8281835e5f83830152505050565b5f601f19601f8301169050919050565b5f6102808261023e565b61028a8185610248565b935061029a818560208601610258565b6102a381610266565b840191505092915050565b5f6020820190508181035f8301526102c68184610276565b90509291505056fea26469706673582212209666fc32318ad4d98fb243a80147a147090fdcc782d72d837f49dca0559c5c2364736f6c634300081a0033",
			"opcodes": "PUSH1 0x80 PUSH1 0x40 MSTORE CALLVALUE DUP1 ISZERO PUSH1 0xE JUMPI PUSH0 DUP1 REVERT JUMPDEST POP PUSH2 0x304 DUP1 PUSH2 0x1C PUSH0 CODECOPY PUSH0 RETURN INVALID PUSH1 0x80 PUSH1 0x40 MSTORE CALLVALUE DUP1 ISZERO PUSH2 0xF JUMPI PUSH0 DUP1 REVERT JUMPDEST POP PUSH1 0x4 CALLDATASIZE LT PUSH2 0x55 JUMPI PUSH0 CALLDATALOAD PUSH1 0xE0 SHR DUP1 PUSH4 0xBFC516B EQ PUSH2 0x59 JUMPI DUP1 PUSH4 0x23FC07F5 EQ PUSH2 0x77 JUMPI DUP1 PUSH4 0x74322AD9 EQ PUSH2 0x95 JUMPI DUP1 PUSH4 0xC2985578 EQ PUSH2 0xB3 JUMPI DUP1 PUSH4 0xEEE079DF EQ PUSH2 0xD1 JUMPI JUMPDEST PUSH0 DUP1 REVERT JUMPDEST PUSH2 0x61 PUSH2 0xEF JUMP JUMPDEST PUSH1 0x40 MLOAD PUSH2 0x6E SWAP2 SWAP1 PUSH2 0x2AE JUMP JUMPDEST PUSH1 0x40 MLOAD DUP1 SWAP2 SUB SWAP1 RETURN JUMPDEST PUSH2 0x7F PUSH2 0x12C JUMP JUMPDEST PUSH1 0x40 MLOAD PUSH2 0x8C SWAP2 SWAP1 PUSH2 0x2AE JUMP JUMPDEST PUSH1 0x40 MLOAD DUP1 SWAP2 SUB SWAP1 RETURN JUMPDEST PUSH2 0x9D PUSH2 0x13B JUMP JUMPDEST PUSH1 0x40 MLOAD PUSH2 0xAA SWAP2 SWAP1 PUSH2 0x2AE JUMP JUMPDEST PUSH1 0x40 MLOAD DUP1 SWAP2 SUB SWAP1 RETURN JUMPDEST PUSH2 0xBB PUSH2 0x178 JUMP JUMPDEST PUSH1 0x40 MLOAD PUSH2 0xC8 SWAP2 SWAP1 PUSH2 0x2AE JUMP JUMPDEST PUSH1 0x40 MLOAD DUP1 SWAP2 SUB SWAP1 RETURN JUMPDEST PUSH2 0xD9 PUSH2 0x187 JUMP JUMPDEST PUSH1 0x40 MLOAD PUSH2 0xE6 SWAP2 SWAP1 PUSH2 0x2AE JUMP JUMPDEST PUSH1 0x40 MLOAD DUP1 SWAP2 SUB SWAP1 RETURN JUMPDEST PUSH1 0x60 PUSH1 0x40 MLOAD DUP1 PUSH1 0x40 ADD PUSH1 0x40 MSTORE DUP1 PUSH1 0x10 DUP2 MSTORE PUSH1 0x20 ADD PUSH32 0x68656C6C6F20636F6E7472616374204200000000000000000000000000000000 DUP2 MSTORE POP SWAP1 POP SWAP1 JUMP JUMPDEST PUSH1 0x60 PUSH2 0x136 PUSH2 0x1C4 JUMP JUMPDEST SWAP1 POP SWAP1 JUMP JUMPDEST PUSH1 0x60 PUSH1 0x40 MLOAD DUP1 PUSH1 0x40 ADD PUSH1 0x40 MSTORE DUP1 PUSH1 0x10 DUP2 MSTORE PUSH1 0x20 ADD PUSH32 0x68656C6C6F20636F6E7472616374204100000000000000000000000000000000 DUP2 MSTORE POP SWAP1 POP SWAP1 JUMP JUMPDEST PUSH1 0x60 PUSH2 0x182 PUSH2 0x201 JUMP JUMPDEST SWAP1 POP SWAP1 JUMP JUMPDEST PUSH1 0x60 PUSH1 0x40 MLOAD DUP1 PUSH1 0x40 ADD PUSH1 0x40 MSTORE DUP1 PUSH1 0xE DUP2 MSTORE PUSH1 0x20 ADD PUSH32 0x6F7665727269646520666F6F4242000000000000000000000000000000000000 DUP2 MSTORE POP SWAP1 POP SWAP1 JUMP JUMPDEST PUSH1 0x60 PUSH1 0x40 MLOAD DUP1 PUSH1 0x40 ADD PUSH1 0x40 MSTORE DUP1 PUSH1 0x11 DUP2 MSTORE PUSH1 0x20 ADD PUSH32 0x68656C6C6F20636F6E7472616374204242000000000000000000000000000000 DUP2 MSTORE POP SWAP1 POP SWAP1 JUMP JUMPDEST PUSH1 0x60 PUSH1 0x40 MLOAD DUP1 PUSH1 0x40 ADD PUSH1 0x40 MSTORE DUP1 PUSH1 0x10 DUP2 MSTORE PUSH1 0x20 ADD PUSH32 0x68656C6C6F20636F6E7472616374422000000000000000000000000000000000 DUP2 MSTORE POP SWAP1 POP SWAP1 JUMP JUMPDEST PUSH0 DUP2 MLOAD SWAP1 POP SWAP2 SWAP1 POP JUMP JUMPDEST PUSH0 DUP3 DUP3 MSTORE PUSH1 0x20 DUP3 ADD SWAP1 POP SWAP3 SWAP2 POP POP JUMP JUMPDEST DUP3 DUP2 DUP4 MCOPY PUSH0 DUP4 DUP4 ADD MSTORE POP POP POP JUMP JUMPDEST PUSH0 PUSH1 0x1F NOT PUSH1 0x1F DUP4 ADD AND SWAP1 POP SWAP2 SWAP1 POP JUMP JUMPDEST PUSH0 PUSH2 0x280 DUP3 PUSH2 0x23E JUMP JUMPDEST PUSH2 0x28A DUP2 DUP6 PUSH2 0x248 JUMP JUMPDEST SWAP4 POP PUSH2 0x29A DUP2 DUP6 PUSH1 0x20 DUP7 ADD PUSH2 0x258 JUMP JUMPDEST PUSH2 0x2A3 DUP2 PUSH2 0x266 JUMP JUMPDEST DUP5 ADD SWAP2 POP POP SWAP3 SWAP2 POP POP JUMP JUMPDEST PUSH0 PUSH1 0x20 DUP3 ADD SWAP1 POP DUP2 DUP2 SUB PUSH0 DUP4 ADD MSTORE PUSH2 0x2C6 DUP2 DUP5 PUSH2 0x276 JUMP JUMPDEST SWAP1 POP SWAP3 SWAP2 POP POP JUMP INVALID LOG2 PUSH5 0x6970667358 0x22 SLT KECCAK256 SWAP7 PUSH7 0xFC32318AD4D98F 0xB2 NUMBER 0xA8 ADD SELFBALANCE LOG1 SELFBALANCE MULMOD 0xF 0xDC 0xC7 DUP3 0xD7 0x2D DUP4 PUSH32 0x49DCA0559C5C2364736F6C634300081A00330000000000000000000000000000 "
		},
		"gasEstimates": {
			"creation": {
				"codeDepositCost": "154400",
				"executionCost": "200",
				"totalCost": "154600"
			},
			"external": {
				"foo()": "infinite",
				"fooA()": "infinite",
				"fooB()": "infinite",
				"fooBB()": "infinite",
				"fooC()": "infinite"
			}
		},
		"methodIdentifiers": {
			"foo()": "c2985578",
			"fooA()": "74322ad9",
			"fooB()": "0bfc516b",
			"fooBB()": "eee079df",
			"fooC()": "23fc07f5"
		}
	},
	"abi": [
		{
			"inputs": [],
			"name": "foo",
			"outputs": [
				{
					"internalType": "string",
					"name": "",
					"type": "string"
				}
			],
			"stateMutability": "pure",
			"type": "function"
		},
		{
			"inputs": [],
			"name": "fooA",
			"outputs": [
				{
					"internalType": "string",
					"name": "",
					"type": "string"
				}
			],
			"stateMutability": "pure",
			"type": "function"
		},
		{
			"inputs": [],
			"name": "fooB",
			"outputs": [
				{
					"internalType": "string",
					"name": "",
					"type": "string"
				}
			],
			"stateMutability": "pure",
			"type": "function"
		},
		{
			"inputs": [],
			"name": "fooBB",
			"outputs": [
				{
					"internalType": "string",
					"name": "",
					"type": "string"
				}
			],
			"stateMutability": "pure",
			"type": "function"
		},
		{
			"inputs": [],
			"name": "fooC",
			"outputs": [
				{
					"internalType": "string",
					"name": "",
					"type": "string"
				}
			],
			"stateMutability": "pure",
			"type": "function"
		}
	]
}