{
	"data": {
		"bytecode": {
			"linkReferences": {},
			"object": "6080604052600367ffffffffffffffff81111561001f5761001e6101c2565b5b60405190808252806020026020018201604052801561004d5781602001602082028036833780820191505090505b505f9080519060200190610062929190610111565b506040518060a00160405280600181526020016002815260200160038152602001600481526020016005815250600190600561009f92919061015c565b50600367ffffffffffffffff8111156100bb576100ba6101c2565b5b6040519080825280602002602001820160405280156100e95781602001602082028036833780820191505090505b50600290805190602001906100ff929190610111565b5034801561010b575f5ffd5b506101ef565b828054828255905f5260205f2090810192821561014b579160200282015b8281111561014a57825182559160200191906001019061012f565b5b50905061015891906101a7565b5090565b828054828255905f5260205f20908101928215610196579160200282015b8281111561019557825182559160200191906001019061017a565b5b5090506101a391906101a7565b5090565b5b808211156101be575f815f9055506001016101a8565b5090565b7f4e487b71000000000000000000000000000000000000000000000000000000005f52604160045260245ffd5b6104fe806101fc5f395ff3fe608060405234801561000f575f5ffd5b5060043610610029575f3560e01c80630e77e0241461002d575b5f5ffd5b61003561004e565b6040516100459493929190610416565b60405180910390f35b5f60608060605f6040518060400160405280600581526020017f68656c6c6f000000000000000000000000000000000000000000000000000000815250905060015f5f815481106100a2576100a161046e565b5b905f5260205f2001819055505f8054806100bf576100be61049b565b5b600190038181905f5260205f20015f905590555f6005908060018154018082558091505060019003905f5260205f20015f90919091909150555f6006908060018154018082558091505060019003905f5260205f20015f909190919091505560016006908060018154018082558091505060019003905f5260205f20015f909190919091505560016007908060018154018082558091505060019003905f5260205f20015f909190919091505560016005815481106101815761018061046e565b5b905f5260205f20015f90555f60016006815481106101a2576101a161046e565b5b905f5260205f200154905060018054806101bf576101be61049b565b5b600190038181905f5260205f20015f9055905560018054806101e4576101e361049b565b5b600190038181905f5260205f20015f90559055600181908060018154018082558091505060019003905f5260205f20015f90919091909150556001805490505f8360028280548060200260200160405190810160405280929190818152602001828054801561027057602002820191905f5260205f20905b81548152602001906001019080831161025c575b50505050509250808054806020026020016040519081016040528092919081815260200182805480156102c057602002820191905f5260205f20905b8154815260200190600101908083116102ac575b505050505090509550955095509550505090919293565b5f819050919050565b6102e9816102d7565b82525050565b5f81519050919050565b5f82825260208201905092915050565b5f819050602082019050919050565b610321816102d7565b82525050565b5f6103328383610318565b60208301905092915050565b5f602082019050919050565b5f610354826102ef565b61035e81856102f9565b935061036983610309565b805f5b838110156103995781516103808882610327565b975061038b8361033e565b92505060018101905061036c565b5085935050505092915050565b5f81519050919050565b5f82825260208201905092915050565b8281835e5f83830152505050565b5f601f19601f8301169050919050565b5f6103e8826103a6565b6103f281856103b0565b93506104028185602086016103c0565b61040b816103ce565b840191505092915050565b5f6080820190506104295f8301876102e0565b818103602083015261043b818661034a565b9050818103604083015261044f81856103de565b90508181036060830152610463818461034a565b905095945050505050565b7f4e487b71000000000000000000000000000000000000000000000000000000005f52603260045260245ffd5b7f4e487b71000000000000000000000000000000000000000000000000000000005f52603160045260245ffdfea2646970667358221220ee2cf826f9f330416f7e22bad4e8782dca1a804110b23082d8af7d605bd28c0264736f6c634300081c0033",
			"opcodes": "PUSH1 0x80 PUSH1 0x40 MSTORE PUSH1 0x3 PUSH8 0xFFFFFFFFFFFFFFFF DUP2 GT ISZERO PUSH2 0x1F JUMPI PUSH2 0x1E PUSH2 0x1C2 JUMP JUMPDEST JUMPDEST PUSH1 0x40 MLOAD SWAP1 DUP1 DUP3 MSTORE DUP1 PUSH1 0x20 MUL PUSH1 0x20 ADD DUP3 ADD PUSH1 0x40 MSTORE DUP1 ISZERO PUSH2 0x4D JUMPI DUP2 PUSH1 0x20 ADD PUSH1 0x20 DUP3 MUL DUP1 CALLDATASIZE DUP4 CALLDATACOPY DUP1 DUP3 ADD SWAP2 POP POP SWAP1 POP JUMPDEST POP PUSH0 SWAP1 DUP1 MLOAD SWAP1 PUSH1 0x20 ADD SWAP1 PUSH2 0x62 SWAP3 SWAP2 SWAP1 PUSH2 0x111 JUMP JUMPDEST POP PUSH1 0x40 MLOAD DUP1 PUSH1 0xA0 ADD PUSH1 0x40 MSTORE DUP1 PUSH1 0x1 DUP2 MSTORE PUSH1 0x20 ADD PUSH1 0x2 DUP2 MSTORE PUSH1 0x20 ADD PUSH1 0x3 DUP2 MSTORE PUSH1 0x20 ADD PUSH1 0x4 DUP2 MSTORE PUSH1 0x20 ADD PUSH1 0x5 DUP2 MSTORE POP PUSH1 0x1 SWAP1 PUSH1 0x5 PUSH2 0x9F SWAP3 SWAP2 SWAP1 PUSH2 0x15C JUMP JUMPDEST POP PUSH1 0x3 PUSH8 0xFFFFFFFFFFFFFFFF DUP2 GT ISZERO PUSH2 0xBB JUMPI PUSH2 0xBA PUSH2 0x1C2 JUMP JUMPDEST JUMPDEST PUSH1 0x40 MLOAD SWAP1 DUP1 DUP3 MSTORE DUP1 PUSH1 0x20 MUL PUSH1 0x20 ADD DUP3 ADD PUSH1 0x40 MSTORE DUP1 ISZERO PUSH2 0xE9 JUMPI DUP2 PUSH1 0x20 ADD PUSH1 0x20 DUP3 MUL DUP1 CALLDATASIZE DUP4 CALLDATACOPY DUP1 DUP3 ADD SWAP2 POP POP SWAP1 POP JUMPDEST POP PUSH1 0x2 SWAP1 DUP1 MLOAD SWAP1 PUSH1 0x20 ADD SWAP1 PUSH2 0xFF SWAP3 SWAP2 SWAP1 PUSH2 0x111 JUMP JUMPDEST POP CALLVALUE DUP1 ISZERO PUSH2 0x10B JUMPI PUSH0 PUSH0 REVERT JUMPDEST POP PUSH2 0x1EF JUMP JUMPDEST DUP3 DUP1 SLOAD DUP3 DUP3 SSTORE SWAP1 PUSH0 MSTORE PUSH1 0x20 PUSH0 KECCAK256 SWAP1 DUP2 ADD SWAP3 DUP3 ISZERO PUSH2 0x14B JUMPI SWAP2 PUSH1 0x20 MUL DUP3 ADD JUMPDEST DUP3 DUP2 GT ISZERO PUSH2 0x14A JUMPI DUP3 MLOAD DUP3 SSTORE SWAP2 PUSH1 0x20 ADD SWAP2 SWAP1 PUSH1 0x1 ADD SWAP1 PUSH2 0x12F JUMP JUMPDEST JUMPDEST POP SWAP1 POP PUSH2 0x158 SWAP2 SWAP1 PUSH2 0x1A7 JUMP JUMPDEST POP SWAP1 JUMP JUMPDEST DUP3 DUP1 SLOAD DUP3 DUP3 SSTORE SWAP1 PUSH0 MSTORE PUSH1 0x20 PUSH0 KECCAK256 SWAP1 DUP2 ADD SWAP3 DUP3 ISZERO PUSH2 0x196 JUMPI SWAP2 PUSH1 0x20 MUL DUP3 ADD JUMPDEST DUP3 DUP2 GT ISZERO PUSH2 0x195 JUMPI DUP3 MLOAD DUP3 SSTORE SWAP2 PUSH1 0x20 ADD SWAP2 SWAP1 PUSH1 0x1 ADD SWAP1 PUSH2 0x17A JUMP JUMPDEST JUMPDEST POP SWAP1 POP PUSH2 0x1A3 SWAP2 SWAP1 PUSH2 0x1A7 JUMP JUMPDEST POP SWAP1 JUMP JUMPDEST JUMPDEST DUP1 DUP3 GT ISZERO PUSH2 0x1BE JUMPI PUSH0 DUP2 PUSH0 SWAP1 SSTORE POP PUSH1 0x1 ADD PUSH2 0x1A8 JUMP JUMPDEST POP SWAP1 JUMP JUMPDEST PUSH32 0x4E487B7100000000000000000000000000000000000000000000000000000000 PUSH0 MSTORE PUSH1 0x41 PUSH1 0x4 MSTORE PUSH1 0x24 PUSH0 REVERT JUMPDEST PUSH2 0x4FE DUP1 PUSH2 0x1FC PUSH0 CODECOPY PUSH0 RETURN INVALID PUSH1 0x80 PUSH1 0x40 MSTORE CALLVALUE DUP1 ISZERO PUSH2 0xF JUMPI PUSH0 PUSH0 REVERT JUMPDEST POP PUSH1 0x4 CALLDATASIZE LT PUSH2 0x29 JUMPI PUSH0 CALLDATALOAD PUSH1 0xE0 SHR DUP1 PUSH4 0xE77E024 EQ PUSH2 0x2D JUMPI JUMPDEST PUSH0 PUSH0 REVERT JUMPDEST PUSH2 0x35 PUSH2 0x4E JUMP JUMPDEST PUSH1 0x40 MLOAD PUSH2 0x45 SWAP5 SWAP4 SWAP3 SWAP2 SWAP1 PUSH2 0x416 JUMP JUMPDEST PUSH1 0x40 MLOAD DUP1 SWAP2 SUB SWAP1 RETURN JUMPDEST PUSH0 PUSH1 0x60 DUP1 PUSH1 0x60 PUSH0 PUSH1 0x40 MLOAD DUP1 PUSH1 0x40 ADD PUSH1 0x40 MSTORE DUP1 PUSH1 0x5 DUP2 MSTORE PUSH1 0x20 ADD PUSH32 0x68656C6C6F000000000000000000000000000000000000000000000000000000 DUP2 MSTORE POP SWAP1 POP PUSH1 0x1 PUSH0 PUSH0 DUP2 SLOAD DUP2 LT PUSH2 0xA2 JUMPI PUSH2 0xA1 PUSH2 0x46E JUMP JUMPDEST JUMPDEST SWAP1 PUSH0 MSTORE PUSH1 0x20 PUSH0 KECCAK256 ADD DUP2 SWAP1 SSTORE POP PUSH0 DUP1 SLOAD DUP1 PUSH2 0xBF JUMPI PUSH2 0xBE PUSH2 0x49B JUMP JUMPDEST JUMPDEST PUSH1 0x1 SWAP1 SUB DUP2 DUP2 SWAP1 PUSH0 MSTORE PUSH1 0x20 PUSH0 KECCAK256 ADD PUSH0 SWAP1 SSTORE SWAP1 SSTORE PUSH0 PUSH1 0x5 SWAP1 DUP1 PUSH1 0x1 DUP2 SLOAD ADD DUP1 DUP3 SSTORE DUP1 SWAP2 POP POP PUSH1 0x1 SWAP1 SUB SWAP1 PUSH0 MSTORE PUSH1 0x20 PUSH0 KECCAK256 ADD PUSH0 SWAP1 SWAP2 SWAP1 SWAP2 SWAP1 SWAP2 POP SSTORE PUSH0 PUSH1 0x6 SWAP1 DUP1 PUSH1 0x1 DUP2 SLOAD ADD DUP1 DUP3 SSTORE DUP1 SWAP2 POP POP PUSH1 0x1 SWAP1 SUB SWAP1 PUSH0 MSTORE PUSH1 0x20 PUSH0 KECCAK256 ADD PUSH0 SWAP1 SWAP2 SWAP1 SWAP2 SWAP1 SWAP2 POP SSTORE PUSH1 0x1 PUSH1 0x6 SWAP1 DUP1 PUSH1 0x1 DUP2 SLOAD ADD DUP1 DUP3 SSTORE DUP1 SWAP2 POP POP PUSH1 0x1 SWAP1 SUB SWAP1 PUSH0 MSTORE PUSH1 0x20 PUSH0 KECCAK256 ADD PUSH0 SWAP1 SWAP2 SWAP1 SWAP2 SWAP1 SWAP2 POP SSTORE PUSH1 0x1 PUSH1 0x7 SWAP1 DUP1 PUSH1 0x1 DUP2 SLOAD ADD DUP1 DUP3 SSTORE DUP1 SWAP2 POP POP PUSH1 0x1 SWAP1 SUB SWAP1 PUSH0 MSTORE PUSH1 0x20 PUSH0 KECCAK256 ADD PUSH0 SWAP1 SWAP2 SWAP1 SWAP2 SWAP1 SWAP2 POP SSTORE PUSH1 0x1 PUSH1 0x5 DUP2 SLOAD DUP2 LT PUSH2 0x181 JUMPI PUSH2 0x180 PUSH2 0x46E JUMP JUMPDEST JUMPDEST SWAP1 PUSH0 MSTORE PUSH1 0x20 PUSH0 KECCAK256 ADD PUSH0 SWAP1 SSTORE PUSH0 PUSH1 0x1 PUSH1 0x6 DUP2 SLOAD DUP2 LT PUSH2 0x1A2 JUMPI PUSH2 0x1A1 PUSH2 0x46E JUMP JUMPDEST JUMPDEST SWAP1 PUSH0 MSTORE PUSH1 0x20 PUSH0 KECCAK256 ADD SLOAD SWAP1 POP PUSH1 0x1 DUP1 SLOAD DUP1 PUSH2 0x1BF JUMPI PUSH2 0x1BE PUSH2 0x49B JUMP JUMPDEST JUMPDEST PUSH1 0x1 SWAP1 SUB DUP2 DUP2 SWAP1 PUSH0 MSTORE PUSH1 0x20 PUSH0 KECCAK256 ADD PUSH0 SWAP1 SSTORE SWAP1 SSTORE PUSH1 0x1 DUP1 SLOAD DUP1 PUSH2 0x1E4 JUMPI PUSH2 0x1E3 PUSH2 0x49B JUMP JUMPDEST JUMPDEST PUSH1 0x1 SWAP1 SUB DUP2 DUP2 SWAP1 PUSH0 MSTORE PUSH1 0x20 PUSH0 KECCAK256 ADD PUSH0 SWAP1 SSTORE SWAP1 SSTORE PUSH1 0x1 DUP2 SWAP1 DUP1 PUSH1 0x1 DUP2 SLOAD ADD DUP1 DUP3 SSTORE DUP1 SWAP2 POP POP PUSH1 0x1 SWAP1 SUB SWAP1 PUSH0 MSTORE PUSH1 0x20 PUSH0 KECCAK256 ADD PUSH0 SWAP1 SWAP2 SWAP1 SWAP2 SWAP1 SWAP2 POP SSTORE PUSH1 0x1 DUP1 SLOAD SWAP1 POP PUSH0 DUP4 PUSH1 0x2 DUP3 DUP1 SLOAD DUP1 PUSH1 0x20 MUL PUSH1 0x20 ADD PUSH1 0x40 MLOAD SWAP1 DUP2 ADD PUSH1 0x40 MSTORE DUP1 SWAP3 SWAP2 SWAP1 DUP2 DUP2 MSTORE PUSH1 0x20 ADD DUP3 DUP1 SLOAD DUP1 ISZERO PUSH2 0x270 JUMPI PUSH1 0x20 MUL DUP3 ADD SWAP2 SWAP1 PUSH0 MSTORE PUSH1 0x20 PUSH0 KECCAK256 SWAP1 JUMPDEST DUP2 SLOAD DUP2 MSTORE PUSH1 0x20 ADD SWAP1 PUSH1 0x1 ADD SWAP1 DUP1 DUP4 GT PUSH2 0x25C JUMPI JUMPDEST POP POP POP POP POP SWAP3 POP DUP1 DUP1 SLOAD DUP1 PUSH1 0x20 MUL PUSH1 0x20 ADD PUSH1 0x40 MLOAD SWAP1 DUP2 ADD PUSH1 0x40 MSTORE DUP1 SWAP3 SWAP2 SWAP1 DUP2 DUP2 MSTORE PUSH1 0x20 ADD DUP3 DUP1 SLOAD DUP1 ISZERO PUSH2 0x2C0 JUMPI PUSH1 0x20 MUL DUP3 ADD SWAP2 SWAP1 PUSH0 MSTORE PUSH1 0x20 PUSH0 KECCAK256 SWAP1 JUMPDEST DUP2 SLOAD DUP2 MSTORE PUSH1 0x20 ADD SWAP1 PUSH1 0x1 ADD SWAP1 DUP1 DUP4 GT PUSH2 0x2AC JUMPI JUMPDEST POP POP POP POP POP SWAP1 POP SWAP6 POP SWAP6 POP SWAP6 POP SWAP6 POP POP POP SWAP1 SWAP2 SWAP3 SWAP4 JUMP JUMPDEST PUSH0 DUP2 SWAP1 POP SWAP2 SWAP1 POP JUMP JUMPDEST PUSH2 0x2E9 DUP2 PUSH2 0x2D7 JUMP JUMPDEST DUP3 MSTORE POP POP JUMP JUMPDEST PUSH0 DUP2 MLOAD SWAP1 POP SWAP2 SWAP1 POP JUMP JUMPDEST PUSH0 DUP3 DUP3 MSTORE PUSH1 0x20 DUP3 ADD SWAP1 POP SWAP3 SWAP2 POP POP JUMP JUMPDEST PUSH0 DUP2 SWAP1 POP PUSH1 0x20 DUP3 ADD SWAP1 POP SWAP2 SWAP1 POP JUMP JUMPDEST PUSH2 0x321 DUP2 PUSH2 0x2D7 JUMP JUMPDEST DUP3 MSTORE POP POP JUMP JUMPDEST PUSH0 PUSH2 0x332 DUP4 DUP4 PUSH2 0x318 JUMP JUMPDEST PUSH1 0x20 DUP4 ADD SWAP1 POP SWAP3 SWAP2 POP POP JUMP JUMPDEST PUSH0 PUSH1 0x20 DUP3 ADD SWAP1 POP SWAP2 SWAP1 POP JUMP JUMPDEST PUSH0 PUSH2 0x354 DUP3 PUSH2 0x2EF JUMP JUMPDEST PUSH2 0x35E DUP2 DUP6 PUSH2 0x2F9 JUMP JUMPDEST SWAP4 POP PUSH2 0x369 DUP4 PUSH2 0x309 JUMP JUMPDEST DUP1 PUSH0 JUMPDEST DUP4 DUP2 LT ISZERO PUSH2 0x399 JUMPI DUP2 MLOAD PUSH2 0x380 DUP9 DUP3 PUSH2 0x327 JUMP JUMPDEST SWAP8 POP PUSH2 0x38B DUP4 PUSH2 0x33E JUMP JUMPDEST SWAP3 POP POP PUSH1 0x1 DUP2 ADD SWAP1 POP PUSH2 0x36C JUMP JUMPDEST POP DUP6 SWAP4 POP POP POP POP SWAP3 SWAP2 POP POP JUMP JUMPDEST PUSH0 DUP2 MLOAD SWAP1 POP SWAP2 SWAP1 POP JUMP JUMPDEST PUSH0 DUP3 DUP3 MSTORE PUSH1 0x20 DUP3 ADD SWAP1 POP SWAP3 SWAP2 POP POP JUMP JUMPDEST DUP3 DUP2 DUP4 MCOPY PUSH0 DUP4 DUP4 ADD MSTORE POP POP POP JUMP JUMPDEST PUSH0 PUSH1 0x1F NOT PUSH1 0x1F DUP4 ADD AND SWAP1 POP SWAP2 SWAP1 POP JUMP JUMPDEST PUSH0 PUSH2 0x3E8 DUP3 PUSH2 0x3A6 JUMP JUMPDEST PUSH2 0x3F2 DUP2 DUP6 PUSH2 0x3B0 JUMP JUMPDEST SWAP4 POP PUSH2 0x402 DUP2 DUP6 PUSH1 0x20 DUP7 ADD PUSH2 0x3C0 JUMP JUMPDEST PUSH2 0x40B DUP2 PUSH2 0x3CE JUMP JUMPDEST DUP5 ADD SWAP2 POP POP SWAP3 SWAP2 POP POP JUMP JUMPDEST PUSH0 PUSH1 0x80 DUP3 ADD SWAP1 POP PUSH2 0x429 PUSH0 DUP4 ADD DUP8 PUSH2 0x2E0 JUMP JUMPDEST DUP2 DUP2 SUB PUSH1 0x20 DUP4 ADD MSTORE PUSH2 0x43B DUP2 DUP7 PUSH2 0x34A JUMP JUMPDEST SWAP1 POP DUP2 DUP2 SUB PUSH1 0x40 DUP4 ADD MSTORE PUSH2 0x44F DUP2 DUP6 PUSH2 0x3DE JUMP JUMPDEST SWAP1 POP DUP2 DUP2 SUB PUSH1 0x60 DUP4 ADD MSTORE PUSH2 0x463 DUP2 DUP5 PUSH2 0x34A JUMP JUMPDEST SWAP1 POP SWAP6 SWAP5 POP POP POP POP POP JUMP JUMPDEST PUSH32 0x4E487B7100000000000000000000000000000000000000000000000000000000 PUSH0 MSTORE PUSH1 0x32 PUSH1 0x4 MSTORE PUSH1 0x24 PUSH0 REVERT JUMPDEST PUSH32 0x4E487B7100000000000000000000000000000000000000000000000000000000 PUSH0 MSTORE PUSH1 0x31 PUSH1 0x4 MSTORE PUSH1 0x24 PUSH0 REVERT INVALID LOG2 PUSH5 0x6970667358 0x22 SLT KECCAK256 0xEE 0x2C 0xF8 0x26 0xF9 RETURN ADDRESS COINBASE PUSH16 0x7E22BAD4E8782DCA1A804110B23082D8 0xAF PUSH30 0x605BD28C0264736F6C634300081C00330000000000000000000000000000 "
		},
		"gasEstimates": {
			"creation": {
				"codeDepositCost": "255600",
				"executionCost": "infinite",
				"totalCost": "infinite"
			},
			"external": {
				"dynamicArray()": "infinite"
			}
		},
		"methodIdentifiers": {
			"dynamicArray()": "0e77e024"
		}
	},
	"abi": [
		{
			"inputs": [],
			"name": "dynamicArray",
			"outputs": [
				{
					"internalType": "uint256",
					"name": "",
					"type": "uint256"
				},
				{
					"internalType": "uint256[]",
					"name": "",
					"type": "uint256[]"
				},
				{
					"internalType": "string",
					"name": "",
					"type": "string"
				},
				{
					"internalType": "uint256[]",
					"name": "",
					"type": "uint256[]"
				}
			],
			"stateMutability": "nonpayable",
			"type": "function"
		}
	]
}