{
	"data": {
		"bytecode": {
			"linkReferences": {},
			"object": "6080604052348015600e575f80fd5b50610b3a8061001c5f395ff3fe6080604052600436106100c1575f3560e01c8063868875441161007e578063b9d92de811610058578063b9d92de814610213578063f4bb6e6b1461024f578063f91e89e514610277578063ffa91f801461028d576100c1565b806386887544146101a55780639b71dce2146101d1578063adb4d990146101e7576100c1565b80631990532b146100c557806345f907a8146100ef5780634b79e4d81461011b578063688734401461013157806371e5ee5f1461015f578063835c19f31461019b575b5f80fd5b3480156100d0575f80fd5b506100d96102c9565b6040516100e69190610647565b60405180910390f35b3480156100fa575f80fd5b5061010361031e565b60405161011293929190610690565b60405180910390f35b348015610126575f80fd5b5061012f610331565b005b34801561013c575f80fd5b50610145610333565b6040516101569594939291906106c5565b60405180910390f35b34801561016a575f80fd5b5061018560048036038101906101809190610751565b61036e565b604051610192919061077c565b60405180910390f35b6101a361038d565b005b3480156101b0575f80fd5b506101b96103c8565b6040516101c893929190610690565b60405180910390f35b3480156101dc575f80fd5b506101e56103dc565b005b3480156101f2575f80fd5b506101fb6104a2565b60405161020a93929190610690565b60405180910390f35b34801561021e575f80fd5b5061023960048036038101906102349190610751565b6104b6565b604051610246919061077c565b60405180910390f35b34801561025a575f80fd5b50610275600480360381019061027091906108e5565b6104cb565b005b348015610282575f80fd5b5061028b6104ce565b005b348015610298575f80fd5b506102b360048036038101906102ae9190610985565b6104d0565b6040516102c0919061077c565b60405180910390f35b60605f80548060200260200160405190810160405280929190818152602001828054801561031457602002820191905f5260205f20905b815481526020019060010190808311610300575b5050505050905090565b5f805f6001806002925092509250909192565b565b5f805f805f805f806103436103c8565b9250925092505f80600460059150915084848484849950995099509950995050505050509091929394565b5f818154811061037c575f80fd5b905f5260205f20015f915090505481565b7f6ef95f06320e7a25a04a175ca677b7052bdd97131872c2192525a629f51be77033346040516103be929190610a0f565b60405180910390a1565b5f805f600560016002925092509250909192565b600567ffffffffffffffff8111156103f7576103f66107a9565b5b6040519080825280602002602001820160405280156104255781602001602082028036833780820191505090505b505f908051906020019061043a929190610521565b5060015f80815481106104505761044f610a36565b5b905f5260205f20018190555060055f60048154811061047257610471610a36565b5b905f5260205f20018190555060075f60028154811061049457610493610a36565b5b905f5260205f200181905550565b5f805f600192506001915060029050909192565b5f6002826104c49190610a90565b9050919050565b50565b565b5f805f90505f5b84849050811015610516578484828181106104f5576104f4610a36565b5b90506020020135826105079190610ad1565b915080806001019150506104d7565b508091505092915050565b828054828255905f5260205f2090810192821561055b579160200282015b8281111561055a57825182559160200191906001019061053f565b5b509050610568919061056c565b5090565b5b80821115610583575f815f90555060010161056d565b5090565b5f81519050919050565b5f82825260208201905092915050565b5f819050602082019050919050565b5f819050919050565b6105c2816105b0565b82525050565b5f6105d383836105b9565b60208301905092915050565b5f602082019050919050565b5f6105f582610587565b6105ff8185610591565b935061060a836105a1565b805f5b8381101561063a57815161062188826105c8565b975061062c836105df565b92505060018101905061060d565b5085935050505092915050565b5f6020820190508181035f83015261065f81846105eb565b905092915050565b610670816105b0565b82525050565b5f8115159050919050565b61068a81610676565b82525050565b5f6060820190506106a35f830186610667565b6106b06020830185610681565b6106bd6040830184610667565b949350505050565b5f60a0820190506106d85f830188610667565b6106e56020830187610681565b6106f26040830186610667565b6106ff6060830185610667565b61070c6080830184610667565b9695505050505050565b5f604051905090565b5f80fd5b5f80fd5b610730816105b0565b811461073a575f80fd5b50565b5f8135905061074b81610727565b92915050565b5f602082840312156107665761076561071f565b5b5f6107738482850161073d565b91505092915050565b5f60208201905061078f5f830184610667565b92915050565b5f80fd5b5f601f19601f8301169050919050565b7f4e487b71000000000000000000000000000000000000000000000000000000005f52604160045260245ffd5b6107df82610799565b810181811067ffffffffffffffff821117156107fe576107fd6107a9565b5b80604052505050565b5f610810610716565b905061081c82826107d6565b919050565b5f67ffffffffffffffff82111561083b5761083a6107a9565b5b602082029050602081019050919050565b5f80fd5b5f61086261085d84610821565b610807565b905080838252602082019050602084028301858111156108855761088461084c565b5b835b818110156108ae578061089a888261073d565b845260208401935050602081019050610887565b5050509392505050565b5f82601f8301126108cc576108cb610795565b5b81356108dc848260208601610850565b91505092915050565b5f602082840312156108fa576108f961071f565b5b5f82013567ffffffffffffffff81111561091757610916610723565b5b610923848285016108b8565b91505092915050565b5f80fd5b5f8083601f84011261094557610944610795565b5b8235905067ffffffffffffffff8111156109625761096161092c565b5b60208301915083602082028301111561097e5761097d61084c565b5b9250929050565b5f806020838503121561099b5761099a61071f565b5b5f83013567ffffffffffffffff8111156109b8576109b7610723565b5b6109c485828601610930565b92509250509250929050565b5f73ffffffffffffffffffffffffffffffffffffffff82169050919050565b5f6109f9826109d0565b9050919050565b610a09816109ef565b82525050565b5f604082019050610a225f830185610a00565b610a2f6020830184610667565b9392505050565b7f4e487b71000000000000000000000000000000000000000000000000000000005f52603260045260245ffd5b7f4e487b71000000000000000000000000000000000000000000000000000000005f52601160045260245ffd5b5f610a9a826105b0565b9150610aa5836105b0565b9250828202610ab3816105b0565b91508282048414831517610aca57610ac9610a63565b5b5092915050565b5f610adb826105b0565b9150610ae6836105b0565b9250828201905080821115610afe57610afd610a63565b5b9291505056fea2646970667358221220b3659dcc7bb8707f6124b9e12e9e9d69c0788c579e9d1df114c4070b5c53f06e64736f6c634300081a0033",
			"opcodes": "PUSH1 0x80 PUSH1 0x40 MSTORE CALLVALUE DUP1 ISZERO PUSH1 0xE JUMPI PUSH0 DUP1 REVERT JUMPDEST POP PUSH2 0xB3A DUP1 PUSH2 0x1C PUSH0 CODECOPY PUSH0 RETURN INVALID PUSH1 0x80 PUSH1 0x40 MSTORE PUSH1 0x4 CALLDATASIZE LT PUSH2 0xC1 JUMPI PUSH0 CALLDATALOAD PUSH1 0xE0 SHR DUP1 PUSH4 0x86887544 GT PUSH2 0x7E JUMPI DUP1 PUSH4 0xB9D92DE8 GT PUSH2 0x58 JUMPI DUP1 PUSH4 0xB9D92DE8 EQ PUSH2 0x213 JUMPI DUP1 PUSH4 0xF4BB6E6B EQ PUSH2 0x24F JUMPI DUP1 PUSH4 0xF91E89E5 EQ PUSH2 0x277 JUMPI DUP1 PUSH4 0xFFA91F80 EQ PUSH2 0x28D JUMPI PUSH2 0xC1 JUMP JUMPDEST DUP1 PUSH4 0x86887544 EQ PUSH2 0x1A5 JUMPI DUP1 PUSH4 0x9B71DCE2 EQ PUSH2 0x1D1 JUMPI DUP1 PUSH4 0xADB4D990 EQ PUSH2 0x1E7 JUMPI PUSH2 0xC1 JUMP JUMPDEST DUP1 PUSH4 0x1990532B EQ PUSH2 0xC5 JUMPI DUP1 PUSH4 0x45F907A8 EQ PUSH2 0xEF JUMPI DUP1 PUSH4 0x4B79E4D8 EQ PUSH2 0x11B JUMPI DUP1 PUSH4 0x68873440 EQ PUSH2 0x131 JUMPI DUP1 PUSH4 0x71E5EE5F EQ PUSH2 0x15F JUMPI DUP1 PUSH4 0x835C19F3 EQ PUSH2 0x19B JUMPI JUMPDEST PUSH0 DUP1 REVERT JUMPDEST CALLVALUE DUP1 ISZERO PUSH2 0xD0 JUMPI PUSH0 DUP1 REVERT JUMPDEST POP PUSH2 0xD9 PUSH2 0x2C9 JUMP JUMPDEST PUSH1 0x40 MLOAD PUSH2 0xE6 SWAP2 SWAP1 PUSH2 0x647 JUMP JUMPDEST PUSH1 0x40 MLOAD DUP1 SWAP2 SUB SWAP1 RETURN JUMPDEST CALLVALUE DUP1 ISZERO PUSH2 0xFA JUMPI PUSH0 DUP1 REVERT JUMPDEST POP PUSH2 0x103 PUSH2 0x31E JUMP JUMPDEST PUSH1 0x40 MLOAD PUSH2 0x112 SWAP4 SWAP3 SWAP2 SWAP1 PUSH2 0x690 JUMP JUMPDEST PUSH1 0x40 MLOAD DUP1 SWAP2 SUB SWAP1 RETURN JUMPDEST CALLVALUE DUP1 ISZERO PUSH2 0x126 JUMPI PUSH0 DUP1 REVERT JUMPDEST POP PUSH2 0x12F PUSH2 0x331 JUMP JUMPDEST STOP JUMPDEST CALLVALUE DUP1 ISZERO PUSH2 0x13C JUMPI PUSH0 DUP1 REVERT JUMPDEST POP PUSH2 0x145 PUSH2 0x333 JUMP JUMPDEST PUSH1 0x40 MLOAD PUSH2 0x156 SWAP6 SWAP5 SWAP4 SWAP3 SWAP2 SWAP1 PUSH2 0x6C5 JUMP JUMPDEST PUSH1 0x40 MLOAD DUP1 SWAP2 SUB SWAP1 RETURN JUMPDEST CALLVALUE DUP1 ISZERO PUSH2 0x16A JUMPI PUSH0 DUP1 REVERT JUMPDEST POP PUSH2 0x185 PUSH1 0x4 DUP1 CALLDATASIZE SUB DUP2 ADD SWAP1 PUSH2 0x180 SWAP2 SWAP1 PUSH2 0x751 JUMP JUMPDEST PUSH2 0x36E JUMP JUMPDEST PUSH1 0x40 MLOAD PUSH2 0x192 SWAP2 SWAP1 PUSH2 0x77C JUMP JUMPDEST PUSH1 0x40 MLOAD DUP1 SWAP2 SUB SWAP1 RETURN JUMPDEST PUSH2 0x1A3 PUSH2 0x38D JUMP JUMPDEST STOP JUMPDEST CALLVALUE DUP1 ISZERO PUSH2 0x1B0 JUMPI PUSH0 DUP1 REVERT JUMPDEST POP PUSH2 0x1B9 PUSH2 0x3C8 JUMP JUMPDEST PUSH1 0x40 MLOAD PUSH2 0x1C8 SWAP4 SWAP3 SWAP2 SWAP1 PUSH2 0x690 JUMP JUMPDEST PUSH1 0x40 MLOAD DUP1 SWAP2 SUB SWAP1 RETURN JUMPDEST CALLVALUE DUP1 ISZERO PUSH2 0x1DC JUMPI PUSH0 DUP1 REVERT JUMPDEST POP PUSH2 0x1E5 PUSH2 0x3DC JUMP JUMPDEST STOP JUMPDEST CALLVALUE DUP1 ISZERO PUSH2 0x1F2 JUMPI PUSH0 DUP1 REVERT JUMPDEST POP PUSH2 0x1FB PUSH2 0x4A2 JUMP JUMPDEST PUSH1 0x40 MLOAD PUSH2 0x20A SWAP4 SWAP3 SWAP2 SWAP1 PUSH2 0x690 JUMP JUMPDEST PUSH1 0x40 MLOAD DUP1 SWAP2 SUB SWAP1 RETURN JUMPDEST CALLVALUE DUP1 ISZERO PUSH2 0x21E JUMPI PUSH0 DUP1 REVERT JUMPDEST POP PUSH2 0x239 PUSH1 0x4 DUP1 CALLDATASIZE SUB DUP2 ADD SWAP1 PUSH2 0x234 SWAP2 SWAP1 PUSH2 0x751 JUMP JUMPDEST PUSH2 0x4B6 JUMP JUMPDEST PUSH1 0x40 MLOAD PUSH2 0x246 SWAP2 SWAP1 PUSH2 0x77C JUMP JUMPDEST PUSH1 0x40 MLOAD DUP1 SWAP2 SUB SWAP1 RETURN JUMPDEST CALLVALUE DUP1 ISZERO PUSH2 0x25A JUMPI PUSH0 DUP1 REVERT JUMPDEST POP PUSH2 0x275 PUSH1 0x4 DUP1 CALLDATASIZE SUB DUP2 ADD SWAP1 PUSH2 0x270 SWAP2 SWAP1 PUSH2 0x8E5 JUMP JUMPDEST PUSH2 0x4CB JUMP JUMPDEST STOP JUMPDEST CALLVALUE DUP1 ISZERO PUSH2 0x282 JUMPI PUSH0 DUP1 REVERT JUMPDEST POP PUSH2 0x28B PUSH2 0x4CE JUMP JUMPDEST STOP JUMPDEST CALLVALUE DUP1 ISZERO PUSH2 0x298 JUMPI PUSH0 DUP1 REVERT JUMPDEST POP PUSH2 0x2B3 PUSH1 0x4 DUP1 CALLDATASIZE SUB DUP2 ADD SWAP1 PUSH2 0x2AE SWAP2 SWAP1 PUSH2 0x985 JUMP JUMPDEST PUSH2 0x4D0 JUMP JUMPDEST PUSH1 0x40 MLOAD PUSH2 0x2C0 SWAP2 SWAP1 PUSH2 0x77C JUMP JUMPDEST PUSH1 0x40 MLOAD DUP1 SWAP2 SUB SWAP1 RETURN JUMPDEST PUSH1 0x60 PUSH0 DUP1 SLOAD DUP1 PUSH1 0x20 MUL PUSH1 0x20 ADD PUSH1 0x40 MLOAD SWAP1 DUP2 ADD PUSH1 0x40 MSTORE DUP1 SWAP3 SWAP2 SWAP1 DUP2 DUP2 MSTORE PUSH1 0x20 ADD DUP3 DUP1 SLOAD DUP1 ISZERO PUSH2 0x314 JUMPI PUSH1 0x20 MUL DUP3 ADD SWAP2 SWAP1 PUSH0 MSTORE PUSH1 0x20 PUSH0 KECCAK256 SWAP1 JUMPDEST DUP2 SLOAD DUP2 MSTORE PUSH1 0x20 ADD SWAP1 PUSH1 0x1 ADD SWAP1 DUP1 DUP4 GT PUSH2 0x300 JUMPI JUMPDEST POP POP POP POP POP SWAP1 POP SWAP1 JUMP JUMPDEST PUSH0 DUP1 PUSH0 PUSH1 0x1 DUP1 PUSH1 0x2 SWAP3 POP SWAP3 POP SWAP3 POP SWAP1 SWAP2 SWAP3 JUMP JUMPDEST JUMP JUMPDEST PUSH0 DUP1 PUSH0 DUP1 PUSH0 DUP1 PUSH0 DUP1 PUSH2 0x343 PUSH2 0x3C8 JUMP JUMPDEST SWAP3 POP SWAP3 POP SWAP3 POP PUSH0 DUP1 PUSH1 0x4 PUSH1 0x5 SWAP2 POP SWAP2 POP DUP5 DUP5 DUP5 DUP5 DUP5 SWAP10 POP SWAP10 POP SWAP10 POP SWAP10 POP SWAP10 POP POP POP POP POP POP SWAP1 SWAP2 SWAP3 SWAP4 SWAP5 JUMP JUMPDEST PUSH0 DUP2 DUP2 SLOAD DUP2 LT PUSH2 0x37C JUMPI PUSH0 DUP1 REVERT JUMPDEST SWAP1 PUSH0 MSTORE PUSH1 0x20 PUSH0 KECCAK256 ADD PUSH0 SWAP2 POP SWAP1 POP SLOAD DUP2 JUMP JUMPDEST PUSH32 0x6EF95F06320E7A25A04A175CA677B7052BDD97131872C2192525A629F51BE770 CALLER CALLVALUE PUSH1 0x40 MLOAD PUSH2 0x3BE SWAP3 SWAP2 SWAP1 PUSH2 0xA0F JUMP JUMPDEST PUSH1 0x40 MLOAD DUP1 SWAP2 SUB SWAP1 LOG1 JUMP JUMPDEST PUSH0 DUP1 PUSH0 PUSH1 0x5 PUSH1 0x1 PUSH1 0x2 SWAP3 POP SWAP3 POP SWAP3 POP SWAP1 SWAP2 SWAP3 JUMP JUMPDEST PUSH1 0x5 PUSH8 0xFFFFFFFFFFFFFFFF DUP2 GT ISZERO PUSH2 0x3F7 JUMPI PUSH2 0x3F6 PUSH2 0x7A9 JUMP JUMPDEST JUMPDEST PUSH1 0x40 MLOAD SWAP1 DUP1 DUP3 MSTORE DUP1 PUSH1 0x20 MUL PUSH1 0x20 ADD DUP3 ADD PUSH1 0x40 MSTORE DUP1 ISZERO PUSH2 0x425 JUMPI DUP2 PUSH1 0x20 ADD PUSH1 0x20 DUP3 MUL DUP1 CALLDATASIZE DUP4 CALLDATACOPY DUP1 DUP3 ADD SWAP2 POP POP SWAP1 POP JUMPDEST POP PUSH0 SWAP1 DUP1 MLOAD SWAP1 PUSH1 0x20 ADD SWAP1 PUSH2 0x43A SWAP3 SWAP2 SWAP1 PUSH2 0x521 JUMP JUMPDEST POP PUSH1 0x1 PUSH0 DUP1 DUP2 SLOAD DUP2 LT PUSH2 0x450 JUMPI PUSH2 0x44F PUSH2 0xA36 JUMP JUMPDEST JUMPDEST SWAP1 PUSH0 MSTORE PUSH1 0x20 PUSH0 KECCAK256 ADD DUP2 SWAP1 SSTORE POP PUSH1 0x5 PUSH0 PUSH1 0x4 DUP2 SLOAD DUP2 LT PUSH2 0x472 JUMPI PUSH2 0x471 PUSH2 0xA36 JUMP JUMPDEST JUMPDEST SWAP1 PUSH0 MSTORE PUSH1 0x20 PUSH0 KECCAK256 ADD DUP2 SWAP1 SSTORE POP PUSH1 0x7 PUSH0 PUSH1 0x2 DUP2 SLOAD DUP2 LT PUSH2 0x494 JUMPI PUSH2 0x493 PUSH2 0xA36 JUMP JUMPDEST JUMPDEST SWAP1 PUSH0 MSTORE PUSH1 0x20 PUSH0 KECCAK256 ADD DUP2 SWAP1 SSTORE POP JUMP JUMPDEST PUSH0 DUP1 PUSH0 PUSH1 0x1 SWAP3 POP PUSH1 0x1 SWAP2 POP PUSH1 0x2 SWAP1 POP SWAP1 SWAP2 SWAP3 JUMP JUMPDEST PUSH0 PUSH1 0x2 DUP3 PUSH2 0x4C4 SWAP2 SWAP1 PUSH2 0xA90 JUMP JUMPDEST SWAP1 POP SWAP2 SWAP1 POP JUMP JUMPDEST POP JUMP JUMPDEST JUMP JUMPDEST PUSH0 DUP1 PUSH0 SWAP1 POP PUSH0 JUMPDEST DUP5 DUP5 SWAP1 POP DUP2 LT ISZERO PUSH2 0x516 JUMPI DUP5 DUP5 DUP3 DUP2 DUP2 LT PUSH2 0x4F5 JUMPI PUSH2 0x4F4 PUSH2 0xA36 JUMP JUMPDEST JUMPDEST SWAP1 POP PUSH1 0x20 MUL ADD CALLDATALOAD DUP3 PUSH2 0x507 SWAP2 SWAP1 PUSH2 0xAD1 JUMP JUMPDEST SWAP2 POP DUP1 DUP1 PUSH1 0x1 ADD SWAP2 POP POP PUSH2 0x4D7 JUMP JUMPDEST POP DUP1 SWAP2 POP POP SWAP3 SWAP2 POP POP JUMP JUMPDEST DUP3 DUP1 SLOAD DUP3 DUP3 SSTORE SWAP1 PUSH0 MSTORE PUSH1 0x20 PUSH0 KECCAK256 SWAP1 DUP2 ADD SWAP3 DUP3 ISZERO PUSH2 0x55B JUMPI SWAP2 PUSH1 0x20 MUL DUP3 ADD JUMPDEST DUP3 DUP2 GT ISZERO PUSH2 0x55A JUMPI DUP3 MLOAD DUP3 SSTORE SWAP2 PUSH1 0x20 ADD SWAP2 SWAP1 PUSH1 0x1 ADD SWAP1 PUSH2 0x53F JUMP JUMPDEST JUMPDEST POP SWAP1 POP PUSH2 0x568 SWAP2 SWAP1 PUSH2 0x56C JUMP JUMPDEST POP SWAP1 JUMP JUMPDEST JUMPDEST DUP1 DUP3 GT ISZERO PUSH2 0x583 JUMPI PUSH0 DUP2 PUSH0 SWAP1 SSTORE POP PUSH1 0x1 ADD PUSH2 0x56D JUMP JUMPDEST POP SWAP1 JUMP JUMPDEST PUSH0 DUP2 MLOAD SWAP1 POP SWAP2 SWAP1 POP JUMP JUMPDEST PUSH0 DUP3 DUP3 MSTORE PUSH1 0x20 DUP3 ADD SWAP1 POP SWAP3 SWAP2 POP POP JUMP JUMPDEST PUSH0 DUP2 SWAP1 POP PUSH1 0x20 DUP3 ADD SWAP1 POP SWAP2 SWAP1 POP JUMP JUMPDEST PUSH0 DUP2 SWAP1 POP SWAP2 SWAP1 POP JUMP JUMPDEST PUSH2 0x5C2 DUP2 PUSH2 0x5B0 JUMP JUMPDEST DUP3 MSTORE POP POP JUMP JUMPDEST PUSH0 PUSH2 0x5D3 DUP4 DUP4 PUSH2 0x5B9 JUMP JUMPDEST PUSH1 0x20 DUP4 ADD SWAP1 POP SWAP3 SWAP2 POP POP JUMP JUMPDEST PUSH0 PUSH1 0x20 DUP3 ADD SWAP1 POP SWAP2 SWAP1 POP JUMP JUMPDEST PUSH0 PUSH2 0x5F5 DUP3 PUSH2 0x587 JUMP JUMPDEST PUSH2 0x5FF DUP2 DUP6 PUSH2 0x591 JUMP JUMPDEST SWAP4 POP PUSH2 0x60A DUP4 PUSH2 0x5A1 JUMP JUMPDEST DUP1 PUSH0 JUMPDEST DUP4 DUP2 LT ISZERO PUSH2 0x63A JUMPI DUP2 MLOAD PUSH2 0x621 DUP9 DUP3 PUSH2 0x5C8 JUMP JUMPDEST SWAP8 POP PUSH2 0x62C DUP4 PUSH2 0x5DF JUMP JUMPDEST SWAP3 POP POP PUSH1 0x1 DUP2 ADD SWAP1 POP PUSH2 0x60D JUMP JUMPDEST POP DUP6 SWAP4 POP POP POP POP SWAP3 SWAP2 POP POP JUMP JUMPDEST PUSH0 PUSH1 0x20 DUP3 ADD SWAP1 POP DUP2 DUP2 SUB PUSH0 DUP4 ADD MSTORE PUSH2 0x65F DUP2 DUP5 PUSH2 0x5EB JUMP JUMPDEST SWAP1 POP SWAP3 SWAP2 POP POP JUMP JUMPDEST PUSH2 0x670 DUP2 PUSH2 0x5B0 JUMP JUMPDEST DUP3 MSTORE POP POP JUMP JUMPDEST PUSH0 DUP2 ISZERO ISZERO SWAP1 POP SWAP2 SWAP1 POP JUMP JUMPDEST PUSH2 0x68A DUP2 PUSH2 0x676 JUMP JUMPDEST DUP3 MSTORE POP POP JUMP JUMPDEST PUSH0 PUSH1 0x60 DUP3 ADD SWAP1 POP PUSH2 0x6A3 PUSH0 DUP4 ADD DUP7 PUSH2 0x667 JUMP JUMPDEST PUSH2 0x6B0 PUSH1 0x20 DUP4 ADD DUP6 PUSH2 0x681 JUMP JUMPDEST PUSH2 0x6BD PUSH1 0x40 DUP4 ADD DUP5 PUSH2 0x667 JUMP JUMPDEST SWAP5 SWAP4 POP POP POP POP JUMP JUMPDEST PUSH0 PUSH1 0xA0 DUP3 ADD SWAP1 POP PUSH2 0x6D8 PUSH0 DUP4 ADD DUP9 PUSH2 0x667 JUMP JUMPDEST PUSH2 0x6E5 PUSH1 0x20 DUP4 ADD DUP8 PUSH2 0x681 JUMP JUMPDEST PUSH2 0x6F2 PUSH1 0x40 DUP4 ADD DUP7 PUSH2 0x667 JUMP JUMPDEST PUSH2 0x6FF PUSH1 0x60 DUP4 ADD DUP6 PUSH2 0x667 JUMP JUMPDEST PUSH2 0x70C PUSH1 0x80 DUP4 ADD DUP5 PUSH2 0x667 JUMP JUMPDEST SWAP7 SWAP6 POP POP POP POP POP POP JUMP JUMPDEST PUSH0 PUSH1 0x40 MLOAD SWAP1 POP SWAP1 JUMP JUMPDEST PUSH0 DUP1 REVERT JUMPDEST PUSH0 DUP1 REVERT JUMPDEST PUSH2 0x730 DUP2 PUSH2 0x5B0 JUMP JUMPDEST DUP2 EQ PUSH2 0x73A JUMPI PUSH0 DUP1 REVERT JUMPDEST POP JUMP JUMPDEST PUSH0 DUP2 CALLDATALOAD SWAP1 POP PUSH2 0x74B DUP2 PUSH2 0x727 JUMP JUMPDEST SWAP3 SWAP2 POP POP JUMP JUMPDEST PUSH0 PUSH1 0x20 DUP3 DUP5 SUB SLT ISZERO PUSH2 0x766 JUMPI PUSH2 0x765 PUSH2 0x71F JUMP JUMPDEST JUMPDEST PUSH0 PUSH2 0x773 DUP5 DUP3 DUP6 ADD PUSH2 0x73D JUMP JUMPDEST SWAP2 POP POP SWAP3 SWAP2 POP POP JUMP JUMPDEST PUSH0 PUSH1 0x20 DUP3 ADD SWAP1 POP PUSH2 0x78F PUSH0 DUP4 ADD DUP5 PUSH2 0x667 JUMP JUMPDEST SWAP3 SWAP2 POP POP JUMP JUMPDEST PUSH0 DUP1 REVERT JUMPDEST PUSH0 PUSH1 0x1F NOT PUSH1 0x1F DUP4 ADD AND SWAP1 POP SWAP2 SWAP1 POP JUMP JUMPDEST PUSH32 0x4E487B7100000000000000000000000000000000000000000000000000000000 PUSH0 MSTORE PUSH1 0x41 PUSH1 0x4 MSTORE PUSH1 0x24 PUSH0 REVERT JUMPDEST PUSH2 0x7DF DUP3 PUSH2 0x799 JUMP JUMPDEST DUP2 ADD DUP2 DUP2 LT PUSH8 0xFFFFFFFFFFFFFFFF DUP3 GT OR ISZERO PUSH2 0x7FE JUMPI PUSH2 0x7FD PUSH2 0x7A9 JUMP JUMPDEST JUMPDEST DUP1 PUSH1 0x40 MSTORE POP POP POP JUMP JUMPDEST PUSH0 PUSH2 0x810 PUSH2 0x716 JUMP JUMPDEST SWAP1 POP PUSH2 0x81C DUP3 DUP3 PUSH2 0x7D6 JUMP JUMPDEST SWAP2 SWAP1 POP JUMP JUMPDEST PUSH0 PUSH8 0xFFFFFFFFFFFFFFFF DUP3 GT ISZERO PUSH2 0x83B JUMPI PUSH2 0x83A PUSH2 0x7A9 JUMP JUMPDEST JUMPDEST PUSH1 0x20 DUP3 MUL SWAP1 POP PUSH1 0x20 DUP2 ADD SWAP1 POP SWAP2 SWAP1 POP JUMP JUMPDEST PUSH0 DUP1 REVERT JUMPDEST PUSH0 PUSH2 0x862 PUSH2 0x85D DUP5 PUSH2 0x821 JUMP JUMPDEST PUSH2 0x807 JUMP JUMPDEST SWAP1 POP DUP1 DUP4 DUP3 MSTORE PUSH1 0x20 DUP3 ADD SWAP1 POP PUSH1 0x20 DUP5 MUL DUP4 ADD DUP6 DUP2 GT ISZERO PUSH2 0x885 JUMPI PUSH2 0x884 PUSH2 0x84C JUMP JUMPDEST JUMPDEST DUP4 JUMPDEST DUP2 DUP2 LT ISZERO PUSH2 0x8AE JUMPI DUP1 PUSH2 0x89A DUP9 DUP3 PUSH2 0x73D JUMP JUMPDEST DUP5 MSTORE PUSH1 0x20 DUP5 ADD SWAP4 POP POP PUSH1 0x20 DUP2 ADD SWAP1 POP PUSH2 0x887 JUMP JUMPDEST POP POP POP SWAP4 SWAP3 POP POP POP JUMP JUMPDEST PUSH0 DUP3 PUSH1 0x1F DUP4 ADD SLT PUSH2 0x8CC JUMPI PUSH2 0x8CB PUSH2 0x795 JUMP JUMPDEST JUMPDEST DUP2 CALLDATALOAD PUSH2 0x8DC DUP5 DUP3 PUSH1 0x20 DUP7 ADD PUSH2 0x850 JUMP JUMPDEST SWAP2 POP POP SWAP3 SWAP2 POP POP JUMP JUMPDEST PUSH0 PUSH1 0x20 DUP3 DUP5 SUB SLT ISZERO PUSH2 0x8FA JUMPI PUSH2 0x8F9 PUSH2 0x71F JUMP JUMPDEST JUMPDEST PUSH0 DUP3 ADD CALLDATALOAD PUSH8 0xFFFFFFFFFFFFFFFF DUP2 GT ISZERO PUSH2 0x917 JUMPI PUSH2 0x916 PUSH2 0x723 JUMP JUMPDEST JUMPDEST PUSH2 0x923 DUP5 DUP3 DUP6 ADD PUSH2 0x8B8 JUMP JUMPDEST SWAP2 POP POP SWAP3 SWAP2 POP POP JUMP JUMPDEST PUSH0 DUP1 REVERT JUMPDEST PUSH0 DUP1 DUP4 PUSH1 0x1F DUP5 ADD SLT PUSH2 0x945 JUMPI PUSH2 0x944 PUSH2 0x795 JUMP JUMPDEST JUMPDEST DUP3 CALLDATALOAD SWAP1 POP PUSH8 0xFFFFFFFFFFFFFFFF DUP2 GT ISZERO PUSH2 0x962 JUMPI PUSH2 0x961 PUSH2 0x92C JUMP JUMPDEST JUMPDEST PUSH1 0x20 DUP4 ADD SWAP2 POP DUP4 PUSH1 0x20 DUP3 MUL DUP4 ADD GT ISZERO PUSH2 0x97E JUMPI PUSH2 0x97D PUSH2 0x84C JUMP JUMPDEST JUMPDEST SWAP3 POP SWAP3 SWAP1 POP JUMP JUMPDEST PUSH0 DUP1 PUSH1 0x20 DUP4 DUP6 SUB SLT ISZERO PUSH2 0x99B JUMPI PUSH2 0x99A PUSH2 0x71F JUMP JUMPDEST JUMPDEST PUSH0 DUP4 ADD CALLDATALOAD PUSH8 0xFFFFFFFFFFFFFFFF DUP2 GT ISZERO PUSH2 0x9B8 JUMPI PUSH2 0x9B7 PUSH2 0x723 JUMP JUMPDEST JUMPDEST PUSH2 0x9C4 DUP6 DUP3 DUP7 ADD PUSH2 0x930 JUMP JUMPDEST SWAP3 POP SWAP3 POP POP SWAP3 POP SWAP3 SWAP1 POP JUMP JUMPDEST PUSH0 PUSH20 0xFFFFFFFFFFFFFFFFFFFFFFFFFFFFFFFFFFFFFFFF DUP3 AND SWAP1 POP SWAP2 SWAP1 POP JUMP JUMPDEST PUSH0 PUSH2 0x9F9 DUP3 PUSH2 0x9D0 JUMP JUMPDEST SWAP1 POP SWAP2 SWAP1 POP JUMP JUMPDEST PUSH2 0xA09 DUP2 PUSH2 0x9EF JUMP JUMPDEST DUP3 MSTORE POP POP JUMP JUMPDEST PUSH0 PUSH1 0x40 DUP3 ADD SWAP1 POP PUSH2 0xA22 PUSH0 DUP4 ADD DUP6 PUSH2 0xA00 JUMP JUMPDEST PUSH2 0xA2F PUSH1 0x20 DUP4 ADD DUP5 PUSH2 0x667 JUMP JUMPDEST SWAP4 SWAP3 POP POP POP JUMP JUMPDEST PUSH32 0x4E487B7100000000000000000000000000000000000000000000000000000000 PUSH0 MSTORE PUSH1 0x32 PUSH1 0x4 MSTORE PUSH1 0x24 PUSH0 REVERT JUMPDEST PUSH32 0x4E487B7100000000000000000000000000000000000000000000000000000000 PUSH0 MSTORE PUSH1 0x11 PUSH1 0x4 MSTORE PUSH1 0x24 PUSH0 REVERT JUMPDEST PUSH0 PUSH2 0xA9A DUP3 PUSH2 0x5B0 JUMP JUMPDEST SWAP2 POP PUSH2 0xAA5 DUP4 PUSH2 0x5B0 JUMP JUMPDEST SWAP3 POP DUP3 DUP3 MUL PUSH2 0xAB3 DUP2 PUSH2 0x5B0 JUMP JUMPDEST SWAP2 POP DUP3 DUP3 DIV DUP5 EQ DUP4 ISZERO OR PUSH2 0xACA JUMPI PUSH2 0xAC9 PUSH2 0xA63 JUMP JUMPDEST JUMPDEST POP SWAP3 SWAP2 POP POP JUMP JUMPDEST PUSH0 PUSH2 0xADB DUP3 PUSH2 0x5B0 JUMP JUMPDEST SWAP2 POP PUSH2 0xAE6 DUP4 PUSH2 0x5B0 JUMP JUMPDEST SWAP3 POP DUP3 DUP3 ADD SWAP1 POP DUP1 DUP3 GT ISZERO PUSH2 0xAFE JUMPI PUSH2 0xAFD PUSH2 0xA63 JUMP JUMPDEST JUMPDEST SWAP3 SWAP2 POP POP JUMP INVALID LOG2 PUSH5 0x6970667358 0x22 SLT KECCAK256 0xB3 PUSH6 0x9DCC7BB8707F PUSH2 0x24B9 0xE1 0x2E SWAP15 SWAP14 PUSH10 0xC0788C579E9D1DF114C4 SMOD SIGNEXTEND TLOAD MSTORE8 CREATE PUSH15 0x64736F6C634300081A003300000000 "
		},
		"gasEstimates": {
			"creation": {
				"codeDepositCost": "574800",
				"executionCost": "604",
				"totalCost": "575404"
			},
			"external": {
				"arr(uint256)": "infinite",
				"arrayInitializer()": "infinite",
				"arrayInput(uint256[])": "infinite",
				"arrayOutput()": "infinite",
				"assigned()": "infinite",
				"calculate(uint256)": "infinite",
				"calculate2(uint256[])": "infinite",
				"destructuringAssignments()": "infinite",
				"myExternalFunction()": "209",
				"myPublicFunction()": "188",
				"named()": "infinite",
				"receivePayment()": "1822",
				"returnMany()": "infinite"
			},
			"internal": {
				"myInternalFunction()": "infinite",
				"myPrivateFunction()": "infinite"
			}
		},
		"methodIdentifiers": {
			"arr(uint256)": "71e5ee5f",
			"arrayInitializer()": "9b71dce2",
			"arrayInput(uint256[])": "f4bb6e6b",
			"arrayOutput()": "1990532b",
			"assigned()": "adb4d990",
			"calculate(uint256)": "b9d92de8",
			"calculate2(uint256[])": "ffa91f80",
			"destructuringAssignments()": "68873440",
			"myExternalFunction()": "f91e89e5",
			"myPublicFunction()": "4b79e4d8",
			"named()": "45f907a8",
			"receivePayment()": "835c19f3",
			"returnMany()": "86887544"
		}
	},
	"abi": [
		{
			"anonymous": false,
			"inputs": [
				{
					"indexed": false,
					"internalType": "address",
					"name": "from",
					"type": "address"
				},
				{
					"indexed": false,
					"internalType": "uint256",
					"name": "amount",
					"type": "uint256"
				}
			],
			"name": "PaymentReceived",
			"type": "event"
		},
		{
			"inputs": [
				{
					"internalType": "uint256",
					"name": "",
					"type": "uint256"
				}
			],
			"name": "arr",
			"outputs": [
				{
					"internalType": "uint256",
					"name": "",
					"type": "uint256"
				}
			],
			"stateMutability": "view",
			"type": "function"
		},
		{
			"inputs": [],
			"name": "arrayInitializer",
			"outputs": [],
			"stateMutability": "nonpayable",
			"type": "function"
		},
		{
			"inputs": [
				{
					"internalType": "uint256[]",
					"name": "_arr",
					"type": "uint256[]"
				}
			],
			"name": "arrayInput",
			"outputs": [],
			"stateMutability": "nonpayable",
			"type": "function"
		},
		{
			"inputs": [],
			"name": "arrayOutput",
			"outputs": [
				{
					"internalType": "uint256[]",
					"name": "",
					"type": "uint256[]"
				}
			],
			"stateMutability": "view",
			"type": "function"
		},
		{
			"inputs": [],
			"name": "assigned",
			"outputs": [
				{
					"internalType": "uint256",
					"name": "x",
					"type": "uint256"
				},
				{
					"internalType": "bool",
					"name": "b",
					"type": "bool"
				},
				{
					"internalType": "uint256",
					"name": "y",
					"type": "uint256"
				}
			],
			"stateMutability": "pure",
			"type": "function"
		},
		{
			"inputs": [
				{
					"internalType": "uint256",
					"name": "x",
					"type": "uint256"
				}
			],
			"name": "calculate",
			"outputs": [
				{
					"internalType": "uint256",
					"name": "",
					"type": "uint256"
				}
			],
			"stateMutability": "pure",
			"type": "function"
		},
		{
			"inputs": [
				{
					"internalType": "uint256[]",
					"name": "_numbers",
					"type": "uint256[]"
				}
			],
			"name": "calculate2",
			"outputs": [
				{
					"internalType": "uint256",
					"name": "",
					"type": "uint256"
				}
			],
			"stateMutability": "pure",
			"type": "function"
		},
		{
			"inputs": [],
			"name": "destructuringAssignments",
			"outputs": [
				{
					"internalType": "uint256",
					"name": "",
					"type": "uint256"
				},
				{
					"internalType": "bool",
					"name": "",
					"type": "bool"
				},
				{
					"internalType": "uint256",
					"name": "",
					"type": "uint256"
				},
				{
					"internalType": "uint256",
					"name": "",
					"type": "uint256"
				},
				{
					"internalType": "uint256",
					"name": "",
					"type": "uint256"
				}
			],
			"stateMutability": "pure",
			"type": "function"
		},
		{
			"inputs": [],
			"name": "myExternalFunction",
			"outputs": [],
			"stateMutability": "nonpayable",
			"type": "function"
		},
		{
			"inputs": [],
			"name": "myPublicFunction",
			"outputs": [],
			"stateMutability": "nonpayable",
			"type": "function"
		},
		{
			"inputs": [],
			"name": "named",
			"outputs": [
				{
					"internalType": "uint256",
					"name": "x",
					"type": "uint256"
				},
				{
					"internalType": "bool",
					"name": "b",
					"type": "bool"
				},
				{
					"internalType": "uint256",
					"name": "y",
					"type": "uint256"
				}
			],
			"stateMutability": "pure",
			"type": "function"
		},
		{
			"inputs": [],
			"name": "receivePayment",
			"outputs": [],
			"stateMutability": "payable",
			"type": "function"
		},
		{
			"inputs": [],
			"name": "returnMany",
			"outputs": [
				{
					"internalType": "uint256",
					"name": "",
					"type": "uint256"
				},
				{
					"internalType": "bool",
					"name": "",
					"type": "bool"
				},
				{
					"internalType": "uint256",
					"name": "",
					"type": "uint256"
				}
			],
			"stateMutability": "pure",
			"type": "function"
		}
	]
}