{
	"data": {
		"bytecode": {
			"linkReferences": {},
			"object": "60806040525f80553480156011575f80fd5b5061026c8061001f5f395ff3fe608060405234801561000f575f80fd5b5060043610610034575f3560e01c80639ff9a60314610038578063e5aa3d5814610056575b5f80fd5b610040610074565b60405161004d91906100f8565b60405180910390f35b61005e6100db565b60405161006b91906100f8565b60405180910390f35b5f5b6103e85f541161009d5760015f80828254610091919061013e565b92505081905550610076565b7f23ff2cbf303c2dc1620fed9ea31ef19367ebdad6946f6eaf0064b579b661ac19336040516100cc919061020a565b60405180910390a15f54905090565b5f5481565b5f819050919050565b6100f2816100e0565b82525050565b5f60208201905061010b5f8301846100e9565b92915050565b7f4e487b71000000000000000000000000000000000000000000000000000000005f52601160045260245ffd5b5f610148826100e0565b9150610153836100e0565b925082820190508082111561016b5761016a610111565b5b92915050565b5f73ffffffffffffffffffffffffffffffffffffffff82169050919050565b5f61019a82610171565b9050919050565b6101aa81610190565b82525050565b5f82825260208201905092915050565b7f6e69636520746f206d65657420796f75000000000000000000000000000000005f82015250565b5f6101f46010836101b0565b91506101ff826101c0565b602082019050919050565b5f60408201905061021d5f8301846101a1565b818103602083015261022e816101e8565b90509291505056fea2646970667358221220ae823062bfc5a17e2ce851ef31ebe7ce862f816f4209e4a8db7904391e68d52464736f6c634300081a0033",
			"opcodes": "PUSH1 0x80 PUSH1 0x40 MSTORE PUSH0 DUP1 SSTORE CALLVALUE DUP1 ISZERO PUSH1 0x11 JUMPI PUSH0 DUP1 REVERT JUMPDEST POP PUSH2 0x26C DUP1 PUSH2 0x1F PUSH0 CODECOPY PUSH0 RETURN INVALID PUSH1 0x80 PUSH1 0x40 MSTORE CALLVALUE DUP1 ISZERO PUSH2 0xF JUMPI PUSH0 DUP1 REVERT JUMPDEST POP PUSH1 0x4 CALLDATASIZE LT PUSH2 0x34 JUMPI PUSH0 CALLDATALOAD PUSH1 0xE0 SHR DUP1 PUSH4 0x9FF9A603 EQ PUSH2 0x38 JUMPI DUP1 PUSH4 0xE5AA3D58 EQ PUSH2 0x56 JUMPI JUMPDEST PUSH0 DUP1 REVERT JUMPDEST PUSH2 0x40 PUSH2 0x74 JUMP JUMPDEST PUSH1 0x40 MLOAD PUSH2 0x4D SWAP2 SWAP1 PUSH2 0xF8 JUMP JUMPDEST PUSH1 0x40 MLOAD DUP1 SWAP2 SUB SWAP1 RETURN JUMPDEST PUSH2 0x5E PUSH2 0xDB JUMP JUMPDEST PUSH1 0x40 MLOAD PUSH2 0x6B SWAP2 SWAP1 PUSH2 0xF8 JUMP JUMPDEST PUSH1 0x40 MLOAD DUP1 SWAP2 SUB SWAP1 RETURN JUMPDEST PUSH0 JUMPDEST PUSH2 0x3E8 PUSH0 SLOAD GT PUSH2 0x9D JUMPI PUSH1 0x1 PUSH0 DUP1 DUP3 DUP3 SLOAD PUSH2 0x91 SWAP2 SWAP1 PUSH2 0x13E JUMP JUMPDEST SWAP3 POP POP DUP2 SWAP1 SSTORE POP PUSH2 0x76 JUMP JUMPDEST PUSH32 0x23FF2CBF303C2DC1620FED9EA31EF19367EBDAD6946F6EAF0064B579B661AC19 CALLER PUSH1 0x40 MLOAD PUSH2 0xCC SWAP2 SWAP1 PUSH2 0x20A JUMP JUMPDEST PUSH1 0x40 MLOAD DUP1 SWAP2 SUB SWAP1 LOG1 PUSH0 SLOAD SWAP1 POP SWAP1 JUMP JUMPDEST PUSH0 SLOAD DUP2 JUMP JUMPDEST PUSH0 DUP2 SWAP1 POP SWAP2 SWAP1 POP JUMP JUMPDEST PUSH2 0xF2 DUP2 PUSH2 0xE0 JUMP JUMPDEST DUP3 MSTORE POP POP JUMP JUMPDEST PUSH0 PUSH1 0x20 DUP3 ADD SWAP1 POP PUSH2 0x10B PUSH0 DUP4 ADD DUP5 PUSH2 0xE9 JUMP JUMPDEST SWAP3 SWAP2 POP POP JUMP JUMPDEST PUSH32 0x4E487B7100000000000000000000000000000000000000000000000000000000 PUSH0 MSTORE PUSH1 0x11 PUSH1 0x4 MSTORE PUSH1 0x24 PUSH0 REVERT JUMPDEST PUSH0 PUSH2 0x148 DUP3 PUSH2 0xE0 JUMP JUMPDEST SWAP2 POP PUSH2 0x153 DUP4 PUSH2 0xE0 JUMP JUMPDEST SWAP3 POP DUP3 DUP3 ADD SWAP1 POP DUP1 DUP3 GT ISZERO PUSH2 0x16B JUMPI PUSH2 0x16A PUSH2 0x111 JUMP JUMPDEST JUMPDEST SWAP3 SWAP2 POP POP JUMP JUMPDEST PUSH0 PUSH20 0xFFFFFFFFFFFFFFFFFFFFFFFFFFFFFFFFFFFFFFFF DUP3 AND SWAP1 POP SWAP2 SWAP1 POP JUMP JUMPDEST PUSH0 PUSH2 0x19A DUP3 PUSH2 0x171 JUMP JUMPDEST SWAP1 POP SWAP2 SWAP1 POP JUMP JUMPDEST PUSH2 0x1AA DUP2 PUSH2 0x190 JUMP JUMPDEST DUP3 MSTORE POP POP JUMP JUMPDEST PUSH0 DUP3 DUP3 MSTORE PUSH1 0x20 DUP3 ADD SWAP1 POP SWAP3 SWAP2 POP POP JUMP JUMPDEST PUSH32 0x6E69636520746F206D65657420796F7500000000000000000000000000000000 PUSH0 DUP3 ADD MSTORE POP JUMP JUMPDEST PUSH0 PUSH2 0x1F4 PUSH1 0x10 DUP4 PUSH2 0x1B0 JUMP JUMPDEST SWAP2 POP PUSH2 0x1FF DUP3 PUSH2 0x1C0 JUMP JUMPDEST PUSH1 0x20 DUP3 ADD SWAP1 POP SWAP2 SWAP1 POP JUMP JUMPDEST PUSH0 PUSH1 0x40 DUP3 ADD SWAP1 POP PUSH2 0x21D PUSH0 DUP4 ADD DUP5 PUSH2 0x1A1 JUMP JUMPDEST DUP2 DUP2 SUB PUSH1 0x20 DUP4 ADD MSTORE PUSH2 0x22E DUP2 PUSH2 0x1E8 JUMP JUMPDEST SWAP1 POP SWAP3 SWAP2 POP POP JUMP INVALID LOG2 PUSH5 0x6970667358 0x22 SLT KECCAK256 0xAE DUP3 ADDRESS PUSH3 0xBFC5A1 PUSH31 0x2CE851EF31EBE7CE862F816F4209E4A8DB7904391E68D52464736F6C634300 ADDMOD BYTE STOP CALLER "
		},
		"gasEstimates": {
			"creation": {
				"codeDepositCost": "124000",
				"executionCost": "5174",
				"totalCost": "129174"
			},
			"external": {
				"forever()": "infinite",
				"i()": "2424"
			}
		},
		"methodIdentifiers": {
			"forever()": "9ff9a603",
			"i()": "e5aa3d58"
		}
	},
	"abi": [
		{
			"anonymous": false,
			"inputs": [
				{
					"indexed": false,
					"internalType": "address",
					"name": "",
					"type": "address"
				},
				{
					"indexed": false,
					"internalType": "string",
					"name": "",
					"type": "string"
				}
			],
			"name": "jilu",
			"type": "event"
		},
		{
			"inputs": [],
			"name": "forever",
			"outputs": [
				{
					"internalType": "uint256",
					"name": "",
					"type": "uint256"
				}
			],
			"stateMutability": "nonpayable",
			"type": "function"
		},
		{
			"inputs": [],
			"name": "i",
			"outputs": [
				{
					"internalType": "uint256",
					"name": "",
					"type": "uint256"
				}
			],
			"stateMutability": "view",
			"type": "function"
		}
	]
}