{
	"data": {
		"bytecode": {
			"linkReferences": {},
			"object": "60806040526104d0806100115f395ff3fe608060405260043610610037575f3560e01c80633bd9ef2814610042578063a9059cbb14610072578063d0679d34146100a25761003e565b3661003e57005b5f80fd5b61005c60048036038101906100579190610357565b6100d2565b60405161006991906103af565b60405180910390f35b61008c60048036038101906100879190610357565b610195565b60405161009991906103af565b60405180910390f35b6100bc60048036038101906100b79190610357565b610234565b6040516100c991906103af565b60405180910390f35b5f808373ffffffffffffffffffffffffffffffffffffffff16836040516100f8906103f5565b5f6040518083038185875af1925050503d805f8114610132576040519150601f19603f3d011682016040523d82523d5f602084013e610137565b606091505b505090507f5b12479c509b724d526516da1c1e8de10b1b2152e438085967de1f03707a7684848573ffffffffffffffffffffffffffffffffffffffff1631604051610183929190610473565b60405180910390a18091505092915050565b5f8273ffffffffffffffffffffffffffffffffffffffff166108fc8390811502906040515f60405180830381858888f193505050501580156101d9573d5f803e3d5ffd5b507f5b12479c509b724d526516da1c1e8de10b1b2152e438085967de1f03707a7684838473ffffffffffffffffffffffffffffffffffffffff1631604051610222929190610473565b60405180910390a16001905092915050565b5f808373ffffffffffffffffffffffffffffffffffffffff166108fc8490811502906040515f60405180830381858888f1935050505090507f5b12479c509b724d526516da1c1e8de10b1b2152e438085967de1f03707a7684848573ffffffffffffffffffffffffffffffffffffffff16316040516102b4929190610473565b60405180910390a18091505092915050565b5f80fd5b5f73ffffffffffffffffffffffffffffffffffffffff82169050919050565b5f6102f3826102ca565b9050919050565b610303816102e9565b811461030d575f80fd5b50565b5f8135905061031e816102fa565b92915050565b5f819050919050565b61033681610324565b8114610340575f80fd5b50565b5f813590506103518161032d565b92915050565b5f806040838503121561036d5761036c6102c6565b5b5f61037a85828601610310565b925050602061038b85828601610343565b9150509250929050565b5f8115159050919050565b6103a981610395565b82525050565b5f6020820190506103c25f8301846103a0565b92915050565b5f81905092915050565b50565b5f6103e05f836103c8565b91506103eb826103d2565b5f82019050919050565b5f6103ff826103d5565b9150819050919050565b5f819050919050565b5f61042c610427610422846102ca565b610409565b6102ca565b9050919050565b5f61043d82610412565b9050919050565b5f61044e82610433565b9050919050565b61045e81610444565b82525050565b61046d81610324565b82525050565b5f6040820190506104865f830185610455565b6104936020830184610464565b939250505056fea264697066735822122086e58a9c36889144b2efa85dfee720bb86d46245e8840e86ea5719749eaa1ae664736f6c634300081a0033",
			"opcodes": "PUSH1 0x80 PUSH1 0x40 MSTORE PUSH2 0x4D0 DUP1 PUSH2 0x11 PUSH0 CODECOPY PUSH0 RETURN INVALID PUSH1 0x80 PUSH1 0x40 MSTORE PUSH1 0x4 CALLDATASIZE LT PUSH2 0x37 JUMPI PUSH0 CALLDATALOAD PUSH1 0xE0 SHR DUP1 PUSH4 0x3BD9EF28 EQ PUSH2 0x42 JUMPI DUP1 PUSH4 0xA9059CBB EQ PUSH2 0x72 JUMPI DUP1 PUSH4 0xD0679D34 EQ PUSH2 0xA2 JUMPI PUSH2 0x3E JUMP JUMPDEST CALLDATASIZE PUSH2 0x3E JUMPI STOP JUMPDEST PUSH0 DUP1 REVERT JUMPDEST PUSH2 0x5C PUSH1 0x4 DUP1 CALLDATASIZE SUB DUP2 ADD SWAP1 PUSH2 0x57 SWAP2 SWAP1 PUSH2 0x357 JUMP JUMPDEST PUSH2 0xD2 JUMP JUMPDEST PUSH1 0x40 MLOAD PUSH2 0x69 SWAP2 SWAP1 PUSH2 0x3AF JUMP JUMPDEST PUSH1 0x40 MLOAD DUP1 SWAP2 SUB SWAP1 RETURN JUMPDEST PUSH2 0x8C PUSH1 0x4 DUP1 CALLDATASIZE SUB DUP2 ADD SWAP1 PUSH2 0x87 SWAP2 SWAP1 PUSH2 0x357 JUMP JUMPDEST PUSH2 0x195 JUMP JUMPDEST PUSH1 0x40 MLOAD PUSH2 0x99 SWAP2 SWAP1 PUSH2 0x3AF JUMP JUMPDEST PUSH1 0x40 MLOAD DUP1 SWAP2 SUB SWAP1 RETURN JUMPDEST PUSH2 0xBC PUSH1 0x4 DUP1 CALLDATASIZE SUB DUP2 ADD SWAP1 PUSH2 0xB7 SWAP2 SWAP1 PUSH2 0x357 JUMP JUMPDEST PUSH2 0x234 JUMP JUMPDEST PUSH1 0x40 MLOAD PUSH2 0xC9 SWAP2 SWAP1 PUSH2 0x3AF JUMP JUMPDEST PUSH1 0x40 MLOAD DUP1 SWAP2 SUB SWAP1 RETURN JUMPDEST PUSH0 DUP1 DUP4 PUSH20 0xFFFFFFFFFFFFFFFFFFFFFFFFFFFFFFFFFFFFFFFF AND DUP4 PUSH1 0x40 MLOAD PUSH2 0xF8 SWAP1 PUSH2 0x3F5 JUMP JUMPDEST PUSH0 PUSH1 0x40 MLOAD DUP1 DUP4 SUB DUP2 DUP6 DUP8 GAS CALL SWAP3 POP POP POP RETURNDATASIZE DUP1 PUSH0 DUP2 EQ PUSH2 0x132 JUMPI PUSH1 0x40 MLOAD SWAP2 POP PUSH1 0x1F NOT PUSH1 0x3F RETURNDATASIZE ADD AND DUP3 ADD PUSH1 0x40 MSTORE RETURNDATASIZE DUP3 MSTORE RETURNDATASIZE PUSH0 PUSH1 0x20 DUP5 ADD RETURNDATACOPY PUSH2 0x137 JUMP JUMPDEST PUSH1 0x60 SWAP2 POP JUMPDEST POP POP SWAP1 POP PUSH32 0x5B12479C509B724D526516DA1C1E8DE10B1B2152E438085967DE1F03707A7684 DUP5 DUP6 PUSH20 0xFFFFFFFFFFFFFFFFFFFFFFFFFFFFFFFFFFFFFFFF AND BALANCE PUSH1 0x40 MLOAD PUSH2 0x183 SWAP3 SWAP2 SWAP1 PUSH2 0x473 JUMP JUMPDEST PUSH1 0x40 MLOAD DUP1 SWAP2 SUB SWAP1 LOG1 DUP1 SWAP2 POP POP SWAP3 SWAP2 POP POP JUMP JUMPDEST PUSH0 DUP3 PUSH20 0xFFFFFFFFFFFFFFFFFFFFFFFFFFFFFFFFFFFFFFFF AND PUSH2 0x8FC DUP4 SWAP1 DUP2 ISZERO MUL SWAP1 PUSH1 0x40 MLOAD PUSH0 PUSH1 0x40 MLOAD DUP1 DUP4 SUB DUP2 DUP6 DUP9 DUP9 CALL SWAP4 POP POP POP POP ISZERO DUP1 ISZERO PUSH2 0x1D9 JUMPI RETURNDATASIZE PUSH0 DUP1 RETURNDATACOPY RETURNDATASIZE PUSH0 REVERT JUMPDEST POP PUSH32 0x5B12479C509B724D526516DA1C1E8DE10B1B2152E438085967DE1F03707A7684 DUP4 DUP5 PUSH20 0xFFFFFFFFFFFFFFFFFFFFFFFFFFFFFFFFFFFFFFFF AND BALANCE PUSH1 0x40 MLOAD PUSH2 0x222 SWAP3 SWAP2 SWAP1 PUSH2 0x473 JUMP JUMPDEST PUSH1 0x40 MLOAD DUP1 SWAP2 SUB SWAP1 LOG1 PUSH1 0x1 SWAP1 POP SWAP3 SWAP2 POP POP JUMP JUMPDEST PUSH0 DUP1 DUP4 PUSH20 0xFFFFFFFFFFFFFFFFFFFFFFFFFFFFFFFFFFFFFFFF AND PUSH2 0x8FC DUP5 SWAP1 DUP2 ISZERO MUL SWAP1 PUSH1 0x40 MLOAD PUSH0 PUSH1 0x40 MLOAD DUP1 DUP4 SUB DUP2 DUP6 DUP9 DUP9 CALL SWAP4 POP POP POP POP SWAP1 POP PUSH32 0x5B12479C509B724D526516DA1C1E8DE10B1B2152E438085967DE1F03707A7684 DUP5 DUP6 PUSH20 0xFFFFFFFFFFFFFFFFFFFFFFFFFFFFFFFFFFFFFFFF AND BALANCE PUSH1 0x40 MLOAD PUSH2 0x2B4 SWAP3 SWAP2 SWAP1 PUSH2 0x473 JUMP JUMPDEST PUSH1 0x40 MLOAD DUP1 SWAP2 SUB SWAP1 LOG1 DUP1 SWAP2 POP POP SWAP3 SWAP2 POP POP JUMP JUMPDEST PUSH0 DUP1 REVERT JUMPDEST PUSH0 PUSH20 0xFFFFFFFFFFFFFFFFFFFFFFFFFFFFFFFFFFFFFFFF DUP3 AND SWAP1 POP SWAP2 SWAP1 POP JUMP JUMPDEST PUSH0 PUSH2 0x2F3 DUP3 PUSH2 0x2CA JUMP JUMPDEST SWAP1 POP SWAP2 SWAP1 POP JUMP JUMPDEST PUSH2 0x303 DUP2 PUSH2 0x2E9 JUMP JUMPDEST DUP2 EQ PUSH2 0x30D JUMPI PUSH0 DUP1 REVERT JUMPDEST POP JUMP JUMPDEST PUSH0 DUP2 CALLDATALOAD SWAP1 POP PUSH2 0x31E DUP2 PUSH2 0x2FA JUMP JUMPDEST SWAP3 SWAP2 POP POP JUMP JUMPDEST PUSH0 DUP2 SWAP1 POP SWAP2 SWAP1 POP JUMP JUMPDEST PUSH2 0x336 DUP2 PUSH2 0x324 JUMP JUMPDEST DUP2 EQ PUSH2 0x340 JUMPI PUSH0 DUP1 REVERT JUMPDEST POP JUMP JUMPDEST PUSH0 DUP2 CALLDATALOAD SWAP1 POP PUSH2 0x351 DUP2 PUSH2 0x32D JUMP JUMPDEST SWAP3 SWAP2 POP POP JUMP JUMPDEST PUSH0 DUP1 PUSH1 0x40 DUP4 DUP6 SUB SLT ISZERO PUSH2 0x36D JUMPI PUSH2 0x36C PUSH2 0x2C6 JUMP JUMPDEST JUMPDEST PUSH0 PUSH2 0x37A DUP6 DUP3 DUP7 ADD PUSH2 0x310 JUMP JUMPDEST SWAP3 POP POP PUSH1 0x20 PUSH2 0x38B DUP6 DUP3 DUP7 ADD PUSH2 0x343 JUMP JUMPDEST SWAP2 POP POP SWAP3 POP SWAP3 SWAP1 POP JUMP JUMPDEST PUSH0 DUP2 ISZERO ISZERO SWAP1 POP SWAP2 SWAP1 POP JUMP JUMPDEST PUSH2 0x3A9 DUP2 PUSH2 0x395 JUMP JUMPDEST DUP3 MSTORE POP POP JUMP JUMPDEST PUSH0 PUSH1 0x20 DUP3 ADD SWAP1 POP PUSH2 0x3C2 PUSH0 DUP4 ADD DUP5 PUSH2 0x3A0 JUMP JUMPDEST SWAP3 SWAP2 POP POP JUMP JUMPDEST PUSH0 DUP2 SWAP1 POP SWAP3 SWAP2 POP POP JUMP JUMPDEST POP JUMP JUMPDEST PUSH0 PUSH2 0x3E0 PUSH0 DUP4 PUSH2 0x3C8 JUMP JUMPDEST SWAP2 POP PUSH2 0x3EB DUP3 PUSH2 0x3D2 JUMP JUMPDEST PUSH0 DUP3 ADD SWAP1 POP SWAP2 SWAP1 POP JUMP JUMPDEST PUSH0 PUSH2 0x3FF DUP3 PUSH2 0x3D5 JUMP JUMPDEST SWAP2 POP DUP2 SWAP1 POP SWAP2 SWAP1 POP JUMP JUMPDEST PUSH0 DUP2 SWAP1 POP SWAP2 SWAP1 POP JUMP JUMPDEST PUSH0 PUSH2 0x42C PUSH2 0x427 PUSH2 0x422 DUP5 PUSH2 0x2CA JUMP JUMPDEST PUSH2 0x409 JUMP JUMPDEST PUSH2 0x2CA JUMP JUMPDEST SWAP1 POP SWAP2 SWAP1 POP JUMP JUMPDEST PUSH0 PUSH2 0x43D DUP3 PUSH2 0x412 JUMP JUMPDEST SWAP1 POP SWAP2 SWAP1 POP JUMP JUMPDEST PUSH0 PUSH2 0x44E DUP3 PUSH2 0x433 JUMP JUMPDEST SWAP1 POP SWAP2 SWAP1 POP JUMP JUMPDEST PUSH2 0x45E DUP2 PUSH2 0x444 JUMP JUMPDEST DUP3 MSTORE POP POP JUMP JUMPDEST PUSH2 0x46D DUP2 PUSH2 0x324 JUMP JUMPDEST DUP3 MSTORE POP POP JUMP JUMPDEST PUSH0 PUSH1 0x40 DUP3 ADD SWAP1 POP PUSH2 0x486 PUSH0 DUP4 ADD DUP6 PUSH2 0x455 JUMP JUMPDEST PUSH2 0x493 PUSH1 0x20 DUP4 ADD DUP5 PUSH2 0x464 JUMP JUMPDEST SWAP4 SWAP3 POP POP POP JUMP INVALID LOG2 PUSH5 0x6970667358 0x22 SLT KECCAK256 DUP7 0xE5 DUP11 SWAP13 CALLDATASIZE DUP9 SWAP2 PREVRANDAO 0xB2 0xEF 0xA8 TSTORE INVALID 0xE7 KECCAK256 0xBB DUP7 0xD4 PUSH3 0x45E884 0xE DUP7 0xEA JUMPI NOT PUSH21 0x9EAA1AE664736F6C634300081A0033000000000000 "
		},
		"gasEstimates": {
			"creation": {
				"codeDepositCost": "246400",
				"executionCost": "261",
				"totalCost": "246661"
			},
			"external": {
				"call(address,uint256)": "infinite",
				"send(address,uint256)": "infinite",
				"transfer(address,uint256)": "infinite"
			}
		},
		"methodIdentifiers": {
			"call(address,uint256)": "3bd9ef28",
			"send(address,uint256)": "d0679d34",
			"transfer(address,uint256)": "a9059cbb"
		}
	},
	"abi": [
		{
			"inputs": [],
			"stateMutability": "payable",
			"type": "constructor"
		},
		{
			"anonymous": false,
			"inputs": [
				{
					"indexed": false,
					"internalType": "address",
					"name": "",
					"type": "address"
				},
				{
					"indexed": false,
					"internalType": "uint256",
					"name": "",
					"type": "uint256"
				}
			],
			"name": "showAddr_Balance",
			"type": "event"
		},
		{
			"inputs": [
				{
					"internalType": "address payable",
					"name": "receiver",
					"type": "address"
				},
				{
					"internalType": "uint256",
					"name": "amount",
					"type": "uint256"
				}
			],
			"name": "call",
			"outputs": [
				{
					"internalType": "bool",
					"name": "",
					"type": "bool"
				}
			],
			"stateMutability": "payable",
			"type": "function"
		},
		{
			"inputs": [
				{
					"internalType": "address payable",
					"name": "receiver",
					"type": "address"
				},
				{
					"internalType": "uint256",
					"name": "amount",
					"type": "uint256"
				}
			],
			"name": "send",
			"outputs": [
				{
					"internalType": "bool",
					"name": "",
					"type": "bool"
				}
			],
			"stateMutability": "payable",
			"type": "function"
		},
		{
			"inputs": [
				{
					"internalType": "address payable",
					"name": "receiver",
					"type": "address"
				},
				{
					"internalType": "uint256",
					"name": "amount",
					"type": "uint256"
				}
			],
			"name": "transfer",
			"outputs": [
				{
					"internalType": "bool",
					"name": "",
					"type": "bool"
				}
			],
			"stateMutability": "payable",
			"type": "function"
		},
		{
			"stateMutability": "payable",
			"type": "receive"
		}
	]
}