{
	"data": {
		"bytecode": {
			"linkReferences": {},
			"object": "6080604052348015600e575f80fd5b5061032f8061001c5f395ff3fe608060405234801561000f575f80fd5b5060043610610029575f3560e01c8063fdf80bda1461002d575b5f80fd5b610047600480360381019061004291906101bc565b61005e565b604051610055929190610271565b60405180910390f35b5f60605f6040516024016040516020818303038152906040527ffebb0f7e000000000000000000000000000000000000000000000000000000007bffffffffffffffffffffffffffffffffffffffffffffffffffffffff19166020820180517bffffffffffffffffffffffffffffffffffffffffffffffffffffffff838183161783525050505090505f808573ffffffffffffffffffffffffffffffffffffffff168360405161010e91906102e3565b5f60405180830381855afa9150503d805f8114610146576040519150601f19603f3d011682016040523d82523d5f602084013e61014b565b606091505b5091509150818194509450505050915091565b5f80fd5b5f73ffffffffffffffffffffffffffffffffffffffff82169050919050565b5f61018b82610162565b9050919050565b61019b81610181565b81146101a5575f80fd5b50565b5f813590506101b681610192565b92915050565b5f602082840312156101d1576101d061015e565b5b5f6101de848285016101a8565b91505092915050565b5f8115159050919050565b6101fb816101e7565b82525050565b5f81519050919050565b5f82825260208201905092915050565b8281835e5f83830152505050565b5f601f19601f8301169050919050565b5f61024382610201565b61024d818561020b565b935061025d81856020860161021b565b61026681610229565b840191505092915050565b5f6040820190506102845f8301856101f2565b81810360208301526102968184610239565b90509392505050565b5f81519050919050565b5f81905092915050565b5f6102bd8261029f565b6102c781856102a9565b93506102d781856020860161021b565b80840191505092915050565b5f6102ee82846102b3565b91508190509291505056fea2646970667358221220652edb0a6cb12090ee44bca8524d67d64eff6a56c6d79ea3a7fa4f5b5f319e8364736f6c634300081a0033",
			"opcodes": "PUSH1 0x80 PUSH1 0x40 MSTORE CALLVALUE DUP1 ISZERO PUSH1 0xE JUMPI PUSH0 DUP1 REVERT JUMPDEST POP PUSH2 0x32F DUP1 PUSH2 0x1C PUSH0 CODECOPY PUSH0 RETURN INVALID PUSH1 0x80 PUSH1 0x40 MSTORE CALLVALUE DUP1 ISZERO PUSH2 0xF JUMPI PUSH0 DUP1 REVERT JUMPDEST POP PUSH1 0x4 CALLDATASIZE LT PUSH2 0x29 JUMPI PUSH0 CALLDATALOAD PUSH1 0xE0 SHR DUP1 PUSH4 0xFDF80BDA EQ PUSH2 0x2D JUMPI JUMPDEST PUSH0 DUP1 REVERT JUMPDEST PUSH2 0x47 PUSH1 0x4 DUP1 CALLDATASIZE SUB DUP2 ADD SWAP1 PUSH2 0x42 SWAP2 SWAP1 PUSH2 0x1BC JUMP JUMPDEST PUSH2 0x5E JUMP JUMPDEST PUSH1 0x40 MLOAD PUSH2 0x55 SWAP3 SWAP2 SWAP1 PUSH2 0x271 JUMP JUMPDEST PUSH1 0x40 MLOAD DUP1 SWAP2 SUB SWAP1 RETURN JUMPDEST PUSH0 PUSH1 0x60 PUSH0 PUSH1 0x40 MLOAD PUSH1 0x24 ADD PUSH1 0x40 MLOAD PUSH1 0x20 DUP2 DUP4 SUB SUB DUP2 MSTORE SWAP1 PUSH1 0x40 MSTORE PUSH32 0xFEBB0F7E00000000000000000000000000000000000000000000000000000000 PUSH28 0xFFFFFFFFFFFFFFFFFFFFFFFFFFFFFFFFFFFFFFFFFFFFFFFFFFFFFFFF NOT AND PUSH1 0x20 DUP3 ADD DUP1 MLOAD PUSH28 0xFFFFFFFFFFFFFFFFFFFFFFFFFFFFFFFFFFFFFFFFFFFFFFFFFFFFFFFF DUP4 DUP2 DUP4 AND OR DUP4 MSTORE POP POP POP POP SWAP1 POP PUSH0 DUP1 DUP6 PUSH20 0xFFFFFFFFFFFFFFFFFFFFFFFFFFFFFFFFFFFFFFFF AND DUP4 PUSH1 0x40 MLOAD PUSH2 0x10E SWAP2 SWAP1 PUSH2 0x2E3 JUMP JUMPDEST PUSH0 PUSH1 0x40 MLOAD DUP1 DUP4 SUB DUP2 DUP6 GAS STATICCALL SWAP2 POP POP RETURNDATASIZE DUP1 PUSH0 DUP2 EQ PUSH2 0x146 JUMPI PUSH1 0x40 MLOAD SWAP2 POP PUSH1 0x1F NOT PUSH1 0x3F RETURNDATASIZE ADD AND DUP3 ADD PUSH1 0x40 MSTORE RETURNDATASIZE DUP3 MSTORE RETURNDATASIZE PUSH0 PUSH1 0x20 DUP5 ADD RETURNDATACOPY PUSH2 0x14B JUMP JUMPDEST PUSH1 0x60 SWAP2 POP JUMPDEST POP SWAP2 POP SWAP2 POP DUP2 DUP2 SWAP5 POP SWAP5 POP POP POP POP SWAP2 POP SWAP2 JUMP JUMPDEST PUSH0 DUP1 REVERT JUMPDEST PUSH0 PUSH20 0xFFFFFFFFFFFFFFFFFFFFFFFFFFFFFFFFFFFFFFFF DUP3 AND SWAP1 POP SWAP2 SWAP1 POP JUMP JUMPDEST PUSH0 PUSH2 0x18B DUP3 PUSH2 0x162 JUMP JUMPDEST SWAP1 POP SWAP2 SWAP1 POP JUMP JUMPDEST PUSH2 0x19B DUP2 PUSH2 0x181 JUMP JUMPDEST DUP2 EQ PUSH2 0x1A5 JUMPI PUSH0 DUP1 REVERT JUMPDEST POP JUMP JUMPDEST PUSH0 DUP2 CALLDATALOAD SWAP1 POP PUSH2 0x1B6 DUP2 PUSH2 0x192 JUMP JUMPDEST SWAP3 SWAP2 POP POP JUMP JUMPDEST PUSH0 PUSH1 0x20 DUP3 DUP5 SUB SLT ISZERO PUSH2 0x1D1 JUMPI PUSH2 0x1D0 PUSH2 0x15E JUMP JUMPDEST JUMPDEST PUSH0 PUSH2 0x1DE DUP5 DUP3 DUP6 ADD PUSH2 0x1A8 JUMP JUMPDEST SWAP2 POP POP SWAP3 SWAP2 POP POP JUMP JUMPDEST PUSH0 DUP2 ISZERO ISZERO SWAP1 POP SWAP2 SWAP1 POP JUMP JUMPDEST PUSH2 0x1FB DUP2 PUSH2 0x1E7 JUMP JUMPDEST DUP3 MSTORE POP POP JUMP JUMPDEST PUSH0 DUP2 MLOAD SWAP1 POP SWAP2 SWAP1 POP JUMP JUMPDEST PUSH0 DUP3 DUP3 MSTORE PUSH1 0x20 DUP3 ADD SWAP1 POP SWAP3 SWAP2 POP POP JUMP JUMPDEST DUP3 DUP2 DUP4 MCOPY PUSH0 DUP4 DUP4 ADD MSTORE POP POP POP JUMP JUMPDEST PUSH0 PUSH1 0x1F NOT PUSH1 0x1F DUP4 ADD AND SWAP1 POP SWAP2 SWAP1 POP JUMP JUMPDEST PUSH0 PUSH2 0x243 DUP3 PUSH2 0x201 JUMP JUMPDEST PUSH2 0x24D DUP2 DUP6 PUSH2 0x20B JUMP JUMPDEST SWAP4 POP PUSH2 0x25D DUP2 DUP6 PUSH1 0x20 DUP7 ADD PUSH2 0x21B JUMP JUMPDEST PUSH2 0x266 DUP2 PUSH2 0x229 JUMP JUMPDEST DUP5 ADD SWAP2 POP POP SWAP3 SWAP2 POP POP JUMP JUMPDEST PUSH0 PUSH1 0x40 DUP3 ADD SWAP1 POP PUSH2 0x284 PUSH0 DUP4 ADD DUP6 PUSH2 0x1F2 JUMP JUMPDEST DUP2 DUP2 SUB PUSH1 0x20 DUP4 ADD MSTORE PUSH2 0x296 DUP2 DUP5 PUSH2 0x239 JUMP JUMPDEST SWAP1 POP SWAP4 SWAP3 POP POP POP JUMP JUMPDEST PUSH0 DUP2 MLOAD SWAP1 POP SWAP2 SWAP1 POP JUMP JUMPDEST PUSH0 DUP2 SWAP1 POP SWAP3 SWAP2 POP POP JUMP JUMPDEST PUSH0 PUSH2 0x2BD DUP3 PUSH2 0x29F JUMP JUMPDEST PUSH2 0x2C7 DUP2 DUP6 PUSH2 0x2A9 JUMP JUMPDEST SWAP4 POP PUSH2 0x2D7 DUP2 DUP6 PUSH1 0x20 DUP7 ADD PUSH2 0x21B JUMP JUMPDEST DUP1 DUP5 ADD SWAP2 POP POP SWAP3 SWAP2 POP POP JUMP JUMPDEST PUSH0 PUSH2 0x2EE DUP3 DUP5 PUSH2 0x2B3 JUMP JUMPDEST SWAP2 POP DUP2 SWAP1 POP SWAP3 SWAP2 POP POP JUMP INVALID LOG2 PUSH5 0x6970667358 0x22 SLT KECCAK256 PUSH6 0x2EDB0A6CB120 SWAP1 0xEE PREVRANDAO 0xBC 0xA8 MSTORE 0x4D PUSH8 0xD64EFF6A56C6D79E LOG3 0xA7 STATICCALL 0x4F JUMPDEST PUSH0 BALANCE SWAP15 DUP4 PUSH5 0x736F6C6343 STOP ADDMOD BYTE STOP CALLER "
		},
		"gasEstimates": {
			"creation": {
				"codeDepositCost": "163000",
				"executionCost": "206",
				"totalCost": "163206"
			},
			"external": {
				"foo(address)": "infinite"
			}
		},
		"methodIdentifiers": {
			"foo(address)": "fdf80bda"
		}
	},
	"abi": [
		{
			"inputs": [
				{
					"internalType": "address",
					"name": "externalAddress",
					"type": "address"
				}
			],
			"name": "foo",
			"outputs": [
				{
					"internalType": "bool",
					"name": "",
					"type": "bool"
				},
				{
					"internalType": "string",
					"name": "",
					"type": "string"
				}
			],
			"stateMutability": "view",
			"type": "function"
		}
	]
}