{
	"data": {
		"bytecode": {
			"linkReferences": {},
			"object": "60806040526040518060600160405280600181526020016002815260200160038152505f906003602f929190603f565b50348015603a575f80fd5b506093565b8260038101928215606b579160200282015b82811115606a5782518255916020019190600101906051565b5b50905060769190607a565b5090565b5b80821115608f575f815f905550600101607b565b5090565b6104b8806100a05f395ff3fe608060405234801561000f575f80fd5b5060043610610029575f3560e01c806312cb326d1461002d575b5f80fd5b61003561004d565b604051610044939291906103ab565b60405180910390f35b5f6100566101cf565b61005e6101f1565b5f80600260038110610073576100726103e7565b5b01549050606060405180608001604052806040518060400160405280600381526020017f686a7800000000000000000000000000000000000000000000000000000000008152508152602001603c815260200160aa81526020016040518060400160405280600481526020017f6d616c6500000000000000000000000000000000000000000000000000000000815250815250815f81518110610119576101186103e7565b5b60200260200101819052506002826101319190610441565b5f600260038110610145576101446103e7565b5b018190555060035f6001600381106101605761015f6103e7565b5b018190555060035f825f8151811061017b5761017a6103e7565b5b6020026020010151816003806020026040519081016040528092919082600380156101bb576020028201915b8154815260200190600101908083116101a7575b505050505091509450945094505050909192565b6040518060600160405280600390602082028036833780820191505090505090565b6040518060800160405280606081526020015f81526020015f8152602001606081525090565b5f819050919050565b61022981610217565b82525050565b5f60039050919050565b5f81905092915050565b5f819050919050565b61025581610217565b82525050565b5f610266838361024c565b60208301905092915050565b5f602082019050919050565b6102878161022f565b6102918184610239565b925061029c82610243565b805f5b838110156102cc5781516102b3878261025b565b96506102be83610272565b92505060018101905061029f565b505050505050565b5f81519050919050565b5f82825260208201905092915050565b8281835e5f83830152505050565b5f601f19601f8301169050919050565b5f610316826102d4565b61032081856102de565b93506103308185602086016102ee565b610339816102fc565b840191505092915050565b5f608083015f8301518482035f86015261035e828261030c565b9150506020830151610373602086018261024c565b506040830151610386604086018261024c565b506060830151848203606086015261039e828261030c565b9150508091505092915050565b5f60a0820190506103be5f830186610220565b6103cb602083018561027e565b81810360808301526103dd8184610344565b9050949350505050565b7f4e487b71000000000000000000000000000000000000000000000000000000005f52603260045260245ffd5b7f4e487b71000000000000000000000000000000000000000000000000000000005f52601160045260245ffd5b5f61044b82610217565b915061045683610217565b925082820261046481610217565b9150828204841483151761047b5761047a610414565b5b509291505056fea2646970667358221220be799c5e1158f2a4067a97d6971d7ea08c73420d98d8f6d42cf5c2820312210864736f6c634300081a0033",
			"opcodes": "PUSH1 0x80 PUSH1 0x40 MSTORE PUSH1 0x40 MLOAD DUP1 PUSH1 0x60 ADD PUSH1 0x40 MSTORE DUP1 PUSH1 0x1 DUP2 MSTORE PUSH1 0x20 ADD PUSH1 0x2 DUP2 MSTORE PUSH1 0x20 ADD PUSH1 0x3 DUP2 MSTORE POP PUSH0 SWAP1 PUSH1 0x3 PUSH1 0x2F SWAP3 SWAP2 SWAP1 PUSH1 0x3F JUMP JUMPDEST POP CALLVALUE DUP1 ISZERO PUSH1 0x3A JUMPI PUSH0 DUP1 REVERT JUMPDEST POP PUSH1 0x93 JUMP JUMPDEST DUP3 PUSH1 0x3 DUP2 ADD SWAP3 DUP3 ISZERO PUSH1 0x6B JUMPI SWAP2 PUSH1 0x20 MUL DUP3 ADD JUMPDEST DUP3 DUP2 GT ISZERO PUSH1 0x6A JUMPI DUP3 MLOAD DUP3 SSTORE SWAP2 PUSH1 0x20 ADD SWAP2 SWAP1 PUSH1 0x1 ADD SWAP1 PUSH1 0x51 JUMP JUMPDEST JUMPDEST POP SWAP1 POP PUSH1 0x76 SWAP2 SWAP1 PUSH1 0x7A JUMP JUMPDEST POP SWAP1 JUMP JUMPDEST JUMPDEST DUP1 DUP3 GT ISZERO PUSH1 0x8F JUMPI PUSH0 DUP2 PUSH0 SWAP1 SSTORE POP PUSH1 0x1 ADD PUSH1 0x7B JUMP JUMPDEST POP SWAP1 JUMP JUMPDEST PUSH2 0x4B8 DUP1 PUSH2 0xA0 PUSH0 CODECOPY PUSH0 RETURN INVALID PUSH1 0x80 PUSH1 0x40 MSTORE CALLVALUE DUP1 ISZERO PUSH2 0xF JUMPI PUSH0 DUP1 REVERT JUMPDEST POP PUSH1 0x4 CALLDATASIZE LT PUSH2 0x29 JUMPI PUSH0 CALLDATALOAD PUSH1 0xE0 SHR DUP1 PUSH4 0x12CB326D EQ PUSH2 0x2D JUMPI JUMPDEST PUSH0 DUP1 REVERT JUMPDEST PUSH2 0x35 PUSH2 0x4D JUMP JUMPDEST PUSH1 0x40 MLOAD PUSH2 0x44 SWAP4 SWAP3 SWAP2 SWAP1 PUSH2 0x3AB JUMP JUMPDEST PUSH1 0x40 MLOAD DUP1 SWAP2 SUB SWAP1 RETURN JUMPDEST PUSH0 PUSH2 0x56 PUSH2 0x1CF JUMP JUMPDEST PUSH2 0x5E PUSH2 0x1F1 JUMP JUMPDEST PUSH0 DUP1 PUSH1 0x2 PUSH1 0x3 DUP2 LT PUSH2 0x73 JUMPI PUSH2 0x72 PUSH2 0x3E7 JUMP JUMPDEST JUMPDEST ADD SLOAD SWAP1 POP PUSH1 0x60 PUSH1 0x40 MLOAD DUP1 PUSH1 0x80 ADD PUSH1 0x40 MSTORE DUP1 PUSH1 0x40 MLOAD DUP1 PUSH1 0x40 ADD PUSH1 0x40 MSTORE DUP1 PUSH1 0x3 DUP2 MSTORE PUSH1 0x20 ADD PUSH32 0x686A780000000000000000000000000000000000000000000000000000000000 DUP2 MSTORE POP DUP2 MSTORE PUSH1 0x20 ADD PUSH1 0x3C DUP2 MSTORE PUSH1 0x20 ADD PUSH1 0xAA DUP2 MSTORE PUSH1 0x20 ADD PUSH1 0x40 MLOAD DUP1 PUSH1 0x40 ADD PUSH1 0x40 MSTORE DUP1 PUSH1 0x4 DUP2 MSTORE PUSH1 0x20 ADD PUSH32 0x6D616C6500000000000000000000000000000000000000000000000000000000 DUP2 MSTORE POP DUP2 MSTORE POP DUP2 PUSH0 DUP2 MLOAD DUP2 LT PUSH2 0x119 JUMPI PUSH2 0x118 PUSH2 0x3E7 JUMP JUMPDEST JUMPDEST PUSH1 0x20 MUL PUSH1 0x20 ADD ADD DUP2 SWAP1 MSTORE POP PUSH1 0x2 DUP3 PUSH2 0x131 SWAP2 SWAP1 PUSH2 0x441 JUMP JUMPDEST PUSH0 PUSH1 0x2 PUSH1 0x3 DUP2 LT PUSH2 0x145 JUMPI PUSH2 0x144 PUSH2 0x3E7 JUMP JUMPDEST JUMPDEST ADD DUP2 SWAP1 SSTORE POP PUSH1 0x3 PUSH0 PUSH1 0x1 PUSH1 0x3 DUP2 LT PUSH2 0x160 JUMPI PUSH2 0x15F PUSH2 0x3E7 JUMP JUMPDEST JUMPDEST ADD DUP2 SWAP1 SSTORE POP PUSH1 0x3 PUSH0 DUP3 PUSH0 DUP2 MLOAD DUP2 LT PUSH2 0x17B JUMPI PUSH2 0x17A PUSH2 0x3E7 JUMP JUMPDEST JUMPDEST PUSH1 0x20 MUL PUSH1 0x20 ADD ADD MLOAD DUP2 PUSH1 0x3 DUP1 PUSH1 0x20 MUL PUSH1 0x40 MLOAD SWAP1 DUP2 ADD PUSH1 0x40 MSTORE DUP1 SWAP3 SWAP2 SWAP1 DUP3 PUSH1 0x3 DUP1 ISZERO PUSH2 0x1BB JUMPI PUSH1 0x20 MUL DUP3 ADD SWAP2 JUMPDEST DUP2 SLOAD DUP2 MSTORE PUSH1 0x20 ADD SWAP1 PUSH1 0x1 ADD SWAP1 DUP1 DUP4 GT PUSH2 0x1A7 JUMPI JUMPDEST POP POP POP POP POP SWAP2 POP SWAP5 POP SWAP5 POP SWAP5 POP POP POP SWAP1 SWAP2 SWAP3 JUMP JUMPDEST PUSH1 0x40 MLOAD DUP1 PUSH1 0x60 ADD PUSH1 0x40 MSTORE DUP1 PUSH1 0x3 SWAP1 PUSH1 0x20 DUP3 MUL DUP1 CALLDATASIZE DUP4 CALLDATACOPY DUP1 DUP3 ADD SWAP2 POP POP SWAP1 POP POP SWAP1 JUMP JUMPDEST PUSH1 0x40 MLOAD DUP1 PUSH1 0x80 ADD PUSH1 0x40 MSTORE DUP1 PUSH1 0x60 DUP2 MSTORE PUSH1 0x20 ADD PUSH0 DUP2 MSTORE PUSH1 0x20 ADD PUSH0 DUP2 MSTORE PUSH1 0x20 ADD PUSH1 0x60 DUP2 MSTORE POP SWAP1 JUMP JUMPDEST PUSH0 DUP2 SWAP1 POP SWAP2 SWAP1 POP JUMP JUMPDEST PUSH2 0x229 DUP2 PUSH2 0x217 JUMP JUMPDEST DUP3 MSTORE POP POP JUMP JUMPDEST PUSH0 PUSH1 0x3 SWAP1 POP SWAP2 SWAP1 POP JUMP JUMPDEST PUSH0 DUP2 SWAP1 POP SWAP3 SWAP2 POP POP JUMP JUMPDEST PUSH0 DUP2 SWAP1 POP SWAP2 SWAP1 POP JUMP JUMPDEST PUSH2 0x255 DUP2 PUSH2 0x217 JUMP JUMPDEST DUP3 MSTORE POP POP JUMP JUMPDEST PUSH0 PUSH2 0x266 DUP4 DUP4 PUSH2 0x24C JUMP JUMPDEST PUSH1 0x20 DUP4 ADD SWAP1 POP SWAP3 SWAP2 POP POP JUMP JUMPDEST PUSH0 PUSH1 0x20 DUP3 ADD SWAP1 POP SWAP2 SWAP1 POP JUMP JUMPDEST PUSH2 0x287 DUP2 PUSH2 0x22F JUMP JUMPDEST PUSH2 0x291 DUP2 DUP5 PUSH2 0x239 JUMP JUMPDEST SWAP3 POP PUSH2 0x29C DUP3 PUSH2 0x243 JUMP JUMPDEST DUP1 PUSH0 JUMPDEST DUP4 DUP2 LT ISZERO PUSH2 0x2CC JUMPI DUP2 MLOAD PUSH2 0x2B3 DUP8 DUP3 PUSH2 0x25B JUMP JUMPDEST SWAP7 POP PUSH2 0x2BE DUP4 PUSH2 0x272 JUMP JUMPDEST SWAP3 POP POP PUSH1 0x1 DUP2 ADD SWAP1 POP PUSH2 0x29F JUMP JUMPDEST POP POP POP POP POP POP JUMP JUMPDEST PUSH0 DUP2 MLOAD SWAP1 POP SWAP2 SWAP1 POP JUMP JUMPDEST PUSH0 DUP3 DUP3 MSTORE PUSH1 0x20 DUP3 ADD SWAP1 POP SWAP3 SWAP2 POP POP JUMP JUMPDEST DUP3 DUP2 DUP4 MCOPY PUSH0 DUP4 DUP4 ADD MSTORE POP POP POP JUMP JUMPDEST PUSH0 PUSH1 0x1F NOT PUSH1 0x1F DUP4 ADD AND SWAP1 POP SWAP2 SWAP1 POP JUMP JUMPDEST PUSH0 PUSH2 0x316 DUP3 PUSH2 0x2D4 JUMP JUMPDEST PUSH2 0x320 DUP2 DUP6 PUSH2 0x2DE JUMP JUMPDEST SWAP4 POP PUSH2 0x330 DUP2 DUP6 PUSH1 0x20 DUP7 ADD PUSH2 0x2EE JUMP JUMPDEST PUSH2 0x339 DUP2 PUSH2 0x2FC JUMP JUMPDEST DUP5 ADD SWAP2 POP POP SWAP3 SWAP2 POP POP JUMP JUMPDEST PUSH0 PUSH1 0x80 DUP4 ADD PUSH0 DUP4 ADD MLOAD DUP5 DUP3 SUB PUSH0 DUP7 ADD MSTORE PUSH2 0x35E DUP3 DUP3 PUSH2 0x30C JUMP JUMPDEST SWAP2 POP POP PUSH1 0x20 DUP4 ADD MLOAD PUSH2 0x373 PUSH1 0x20 DUP7 ADD DUP3 PUSH2 0x24C JUMP JUMPDEST POP PUSH1 0x40 DUP4 ADD MLOAD PUSH2 0x386 PUSH1 0x40 DUP7 ADD DUP3 PUSH2 0x24C JUMP JUMPDEST POP PUSH1 0x60 DUP4 ADD MLOAD DUP5 DUP3 SUB PUSH1 0x60 DUP7 ADD MSTORE PUSH2 0x39E DUP3 DUP3 PUSH2 0x30C JUMP JUMPDEST SWAP2 POP POP DUP1 SWAP2 POP POP SWAP3 SWAP2 POP POP JUMP JUMPDEST PUSH0 PUSH1 0xA0 DUP3 ADD SWAP1 POP PUSH2 0x3BE PUSH0 DUP4 ADD DUP7 PUSH2 0x220 JUMP JUMPDEST PUSH2 0x3CB PUSH1 0x20 DUP4 ADD DUP6 PUSH2 0x27E JUMP JUMPDEST DUP2 DUP2 SUB PUSH1 0x80 DUP4 ADD MSTORE PUSH2 0x3DD DUP2 DUP5 PUSH2 0x344 JUMP JUMPDEST SWAP1 POP SWAP5 SWAP4 POP POP POP POP JUMP JUMPDEST PUSH32 0x4E487B7100000000000000000000000000000000000000000000000000000000 PUSH0 MSTORE PUSH1 0x32 PUSH1 0x4 MSTORE PUSH1 0x24 PUSH0 REVERT JUMPDEST PUSH32 0x4E487B7100000000000000000000000000000000000000000000000000000000 PUSH0 MSTORE PUSH1 0x11 PUSH1 0x4 MSTORE PUSH1 0x24 PUSH0 REVERT JUMPDEST PUSH0 PUSH2 0x44B DUP3 PUSH2 0x217 JUMP JUMPDEST SWAP2 POP PUSH2 0x456 DUP4 PUSH2 0x217 JUMP JUMPDEST SWAP3 POP DUP3 DUP3 MUL PUSH2 0x464 DUP2 PUSH2 0x217 JUMP JUMPDEST SWAP2 POP DUP3 DUP3 DIV DUP5 EQ DUP4 ISZERO OR PUSH2 0x47B JUMPI PUSH2 0x47A PUSH2 0x414 JUMP JUMPDEST JUMPDEST POP SWAP3 SWAP2 POP POP JUMP INVALID LOG2 PUSH5 0x6970667358 0x22 SLT KECCAK256 0xBE PUSH26 0x9C5E1158F2A4067A97D6971D7EA08C73420D98D8F6D42CF5C282 SUB SLT 0x21 ADDMOD PUSH5 0x736F6C6343 STOP ADDMOD BYTE STOP CALLER "
		},
		"gasEstimates": {
			"creation": {
				"codeDepositCost": "241600",
				"executionCost": "infinite",
				"totalCost": "infinite"
			},
			"external": {
				"staticArray()": "infinite"
			}
		},
		"methodIdentifiers": {
			"staticArray()": "12cb326d"
		}
	},
	"abi": [
		{
			"inputs": [],
			"name": "staticArray",
			"outputs": [
				{
					"internalType": "uint256",
					"name": "length",
					"type": "uint256"
				},
				{
					"internalType": "uint256[3]",
					"name": "array",
					"type": "uint256[3]"
				},
				{
					"components": [
						{
							"internalType": "string",
							"name": "name",
							"type": "string"
						},
						{
							"internalType": "uint256",
							"name": "weight",
							"type": "uint256"
						},
						{
							"internalType": "uint256",
							"name": "height",
							"type": "uint256"
						},
						{
							"internalType": "string",
							"name": "sex",
							"type": "string"
						}
					],
					"internalType": "struct StaticArray.Human",
					"name": "",
					"type": "tuple"
				}
			],
			"stateMutability": "nonpayable",
			"type": "function"
		}
	]
}