{
	"data": {
		"bytecode": {
			"linkReferences": {},
			"object": "60806040526040518060600160405280600181526020016002815260200160038152505f906003602f929190603f565b50348015603a575f80fd5b506093565b8260038101928215606b579160200282015b82811115606a5782518255916020019190600101906051565b5b50905060769190607a565b5090565b5b80821115608f575f815f905550600101607b565b5090565b610390806100a05f395ff3fe608060405234801561000f575f80fd5b5060043610610029575f3560e01c806312cb326d1461002d575b5f80fd5b61003561004b565b6040516100429190610296565b60405180910390f35b60605f80600260038110610062576100616102b6565b5b01549050606060405180608001604052806040518060400160405280600381526020017f686a7800000000000000000000000000000000000000000000000000000000008152508152602001603c815260200160aa81526020016040518060400160405280600481526020017f6d616c6500000000000000000000000000000000000000000000000000000000815250815250815f81518110610108576101076102b6565b5b602002602001018190525060405180608001604052806040518060400160405280600281526020017f7a7000000000000000000000000000000000000000000000000000000000000081525081526020016032815260200160a181526020016040518060400160405280600681526020017f66656d616c650000000000000000000000000000000000000000000000000000815250815250816001815181106101b4576101b36102b6565b5b60200260200101819052506002826101cc9190610319565b5f6002600381106101e0576101df6102b6565b5b018190555060035f6001600381106101fb576101fa6102b6565b5b018190555080600181518110610214576102136102b6565b5b60200260200101515f01519250505090565b5f81519050919050565b5f82825260208201905092915050565b8281835e5f83830152505050565b5f601f19601f8301169050919050565b5f61026882610226565b6102728185610230565b9350610282818560208601610240565b61028b8161024e565b840191505092915050565b5f6020820190508181035f8301526102ae818461025e565b905092915050565b7f4e487b71000000000000000000000000000000000000000000000000000000005f52603260045260245ffd5b5f819050919050565b7f4e487b71000000000000000000000000000000000000000000000000000000005f52601160045260245ffd5b5f610323826102e3565b915061032e836102e3565b925082820261033c816102e3565b91508282048414831517610353576103526102ec565b5b509291505056fea264697066735822122005459633d7b702741d73c56fa257055e94c14e0822d8066d2eb6535d1625a48564736f6c634300081a0033",
			"opcodes": "PUSH1 0x80 PUSH1 0x40 MSTORE PUSH1 0x40 MLOAD DUP1 PUSH1 0x60 ADD PUSH1 0x40 MSTORE DUP1 PUSH1 0x1 DUP2 MSTORE PUSH1 0x20 ADD PUSH1 0x2 DUP2 MSTORE PUSH1 0x20 ADD PUSH1 0x3 DUP2 MSTORE POP PUSH0 SWAP1 PUSH1 0x3 PUSH1 0x2F SWAP3 SWAP2 SWAP1 PUSH1 0x3F JUMP JUMPDEST POP CALLVALUE DUP1 ISZERO PUSH1 0x3A JUMPI PUSH0 DUP1 REVERT JUMPDEST POP PUSH1 0x93 JUMP JUMPDEST DUP3 PUSH1 0x3 DUP2 ADD SWAP3 DUP3 ISZERO PUSH1 0x6B JUMPI SWAP2 PUSH1 0x20 MUL DUP3 ADD JUMPDEST DUP3 DUP2 GT ISZERO PUSH1 0x6A JUMPI DUP3 MLOAD DUP3 SSTORE SWAP2 PUSH1 0x20 ADD SWAP2 SWAP1 PUSH1 0x1 ADD SWAP1 PUSH1 0x51 JUMP JUMPDEST JUMPDEST POP SWAP1 POP PUSH1 0x76 SWAP2 SWAP1 PUSH1 0x7A JUMP JUMPDEST POP SWAP1 JUMP JUMPDEST JUMPDEST DUP1 DUP3 GT ISZERO PUSH1 0x8F JUMPI PUSH0 DUP2 PUSH0 SWAP1 SSTORE POP PUSH1 0x1 ADD PUSH1 0x7B JUMP JUMPDEST POP SWAP1 JUMP JUMPDEST PUSH2 0x390 DUP1 PUSH2 0xA0 PUSH0 CODECOPY PUSH0 RETURN INVALID PUSH1 0x80 PUSH1 0x40 MSTORE CALLVALUE DUP1 ISZERO PUSH2 0xF JUMPI PUSH0 DUP1 REVERT JUMPDEST POP PUSH1 0x4 CALLDATASIZE LT PUSH2 0x29 JUMPI PUSH0 CALLDATALOAD PUSH1 0xE0 SHR DUP1 PUSH4 0x12CB326D EQ PUSH2 0x2D JUMPI JUMPDEST PUSH0 DUP1 REVERT JUMPDEST PUSH2 0x35 PUSH2 0x4B JUMP JUMPDEST PUSH1 0x40 MLOAD PUSH2 0x42 SWAP2 SWAP1 PUSH2 0x296 JUMP JUMPDEST PUSH1 0x40 MLOAD DUP1 SWAP2 SUB SWAP1 RETURN JUMPDEST PUSH1 0x60 PUSH0 DUP1 PUSH1 0x2 PUSH1 0x3 DUP2 LT PUSH2 0x62 JUMPI PUSH2 0x61 PUSH2 0x2B6 JUMP JUMPDEST JUMPDEST ADD SLOAD SWAP1 POP PUSH1 0x60 PUSH1 0x40 MLOAD DUP1 PUSH1 0x80 ADD PUSH1 0x40 MSTORE DUP1 PUSH1 0x40 MLOAD DUP1 PUSH1 0x40 ADD PUSH1 0x40 MSTORE DUP1 PUSH1 0x3 DUP2 MSTORE PUSH1 0x20 ADD PUSH32 0x686A780000000000000000000000000000000000000000000000000000000000 DUP2 MSTORE POP DUP2 MSTORE PUSH1 0x20 ADD PUSH1 0x3C DUP2 MSTORE PUSH1 0x20 ADD PUSH1 0xAA DUP2 MSTORE PUSH1 0x20 ADD PUSH1 0x40 MLOAD DUP1 PUSH1 0x40 ADD PUSH1 0x40 MSTORE DUP1 PUSH1 0x4 DUP2 MSTORE PUSH1 0x20 ADD PUSH32 0x6D616C6500000000000000000000000000000000000000000000000000000000 DUP2 MSTORE POP DUP2 MSTORE POP DUP2 PUSH0 DUP2 MLOAD DUP2 LT PUSH2 0x108 JUMPI PUSH2 0x107 PUSH2 0x2B6 JUMP JUMPDEST JUMPDEST PUSH1 0x20 MUL PUSH1 0x20 ADD ADD DUP2 SWAP1 MSTORE POP PUSH1 0x40 MLOAD DUP1 PUSH1 0x80 ADD PUSH1 0x40 MSTORE DUP1 PUSH1 0x40 MLOAD DUP1 PUSH1 0x40 ADD PUSH1 0x40 MSTORE DUP1 PUSH1 0x2 DUP2 MSTORE PUSH1 0x20 ADD PUSH32 0x7A70000000000000000000000000000000000000000000000000000000000000 DUP2 MSTORE POP DUP2 MSTORE PUSH1 0x20 ADD PUSH1 0x32 DUP2 MSTORE PUSH1 0x20 ADD PUSH1 0xA1 DUP2 MSTORE PUSH1 0x20 ADD PUSH1 0x40 MLOAD DUP1 PUSH1 0x40 ADD PUSH1 0x40 MSTORE DUP1 PUSH1 0x6 DUP2 MSTORE PUSH1 0x20 ADD PUSH32 0x66656D616C650000000000000000000000000000000000000000000000000000 DUP2 MSTORE POP DUP2 MSTORE POP DUP2 PUSH1 0x1 DUP2 MLOAD DUP2 LT PUSH2 0x1B4 JUMPI PUSH2 0x1B3 PUSH2 0x2B6 JUMP JUMPDEST JUMPDEST PUSH1 0x20 MUL PUSH1 0x20 ADD ADD DUP2 SWAP1 MSTORE POP PUSH1 0x2 DUP3 PUSH2 0x1CC SWAP2 SWAP1 PUSH2 0x319 JUMP JUMPDEST PUSH0 PUSH1 0x2 PUSH1 0x3 DUP2 LT PUSH2 0x1E0 JUMPI PUSH2 0x1DF PUSH2 0x2B6 JUMP JUMPDEST JUMPDEST ADD DUP2 SWAP1 SSTORE POP PUSH1 0x3 PUSH0 PUSH1 0x1 PUSH1 0x3 DUP2 LT PUSH2 0x1FB JUMPI PUSH2 0x1FA PUSH2 0x2B6 JUMP JUMPDEST JUMPDEST ADD DUP2 SWAP1 SSTORE POP DUP1 PUSH1 0x1 DUP2 MLOAD DUP2 LT PUSH2 0x214 JUMPI PUSH2 0x213 PUSH2 0x2B6 JUMP JUMPDEST JUMPDEST PUSH1 0x20 MUL PUSH1 0x20 ADD ADD MLOAD PUSH0 ADD MLOAD SWAP3 POP POP POP SWAP1 JUMP JUMPDEST PUSH0 DUP2 MLOAD SWAP1 POP SWAP2 SWAP1 POP JUMP JUMPDEST PUSH0 DUP3 DUP3 MSTORE PUSH1 0x20 DUP3 ADD SWAP1 POP SWAP3 SWAP2 POP POP JUMP JUMPDEST DUP3 DUP2 DUP4 MCOPY PUSH0 DUP4 DUP4 ADD MSTORE POP POP POP JUMP JUMPDEST PUSH0 PUSH1 0x1F NOT PUSH1 0x1F DUP4 ADD AND SWAP1 POP SWAP2 SWAP1 POP JUMP JUMPDEST PUSH0 PUSH2 0x268 DUP3 PUSH2 0x226 JUMP JUMPDEST PUSH2 0x272 DUP2 DUP6 PUSH2 0x230 JUMP JUMPDEST SWAP4 POP PUSH2 0x282 DUP2 DUP6 PUSH1 0x20 DUP7 ADD PUSH2 0x240 JUMP JUMPDEST PUSH2 0x28B DUP2 PUSH2 0x24E JUMP JUMPDEST DUP5 ADD SWAP2 POP POP SWAP3 SWAP2 POP POP JUMP JUMPDEST PUSH0 PUSH1 0x20 DUP3 ADD SWAP1 POP DUP2 DUP2 SUB PUSH0 DUP4 ADD MSTORE PUSH2 0x2AE DUP2 DUP5 PUSH2 0x25E JUMP JUMPDEST SWAP1 POP SWAP3 SWAP2 POP POP JUMP JUMPDEST PUSH32 0x4E487B7100000000000000000000000000000000000000000000000000000000 PUSH0 MSTORE PUSH1 0x32 PUSH1 0x4 MSTORE PUSH1 0x24 PUSH0 REVERT JUMPDEST PUSH0 DUP2 SWAP1 POP SWAP2 SWAP1 POP JUMP JUMPDEST PUSH32 0x4E487B7100000000000000000000000000000000000000000000000000000000 PUSH0 MSTORE PUSH1 0x11 PUSH1 0x4 MSTORE PUSH1 0x24 PUSH0 REVERT JUMPDEST PUSH0 PUSH2 0x323 DUP3 PUSH2 0x2E3 JUMP JUMPDEST SWAP2 POP PUSH2 0x32E DUP4 PUSH2 0x2E3 JUMP JUMPDEST SWAP3 POP DUP3 DUP3 MUL PUSH2 0x33C DUP2 PUSH2 0x2E3 JUMP JUMPDEST SWAP2 POP DUP3 DUP3 DIV DUP5 EQ DUP4 ISZERO OR PUSH2 0x353 JUMPI PUSH2 0x352 PUSH2 0x2EC JUMP JUMPDEST JUMPDEST POP SWAP3 SWAP2 POP POP JUMP INVALID LOG2 PUSH5 0x6970667358 0x22 SLT KECCAK256 SDIV GASLIMIT SWAP7 CALLER 0xD7 0xB7 MUL PUSH21 0x1D73C56FA257055E94C14E0822D8066D2EB6535D16 0x25 LOG4 DUP6 PUSH5 0x736F6C6343 STOP ADDMOD BYTE STOP CALLER "
		},
		"gasEstimates": {
			"creation": {
				"codeDepositCost": "182400",
				"executionCost": "infinite",
				"totalCost": "infinite"
			},
			"external": {
				"staticArray()": "infinite"
			}
		},
		"methodIdentifiers": {
			"staticArray()": "12cb326d"
		}
	},
	"abi": [
		{
			"inputs": [],
			"name": "staticArray",
			"outputs": [
				{
					"internalType": "string",
					"name": "",
					"type": "string"
				}
			],
			"stateMutability": "nonpayable",
			"type": "function"
		}
	]
}