{
	"data": {
		"bytecode": {
			"linkReferences": {},
			"object": "6080604052348015600e575f80fd5b50610ee78061001c5f395ff3fe608060405234801561000f575f80fd5b5060043610610055575f3560e01c806331184dc31461005957806353e76f2c1461008b5780636ea9487c146100bb5780639507d39a146100ed578063a6551d4b1461011d575b5f80fd5b610073600480360381019061006e91906106a6565b610139565b6040516100829392919061076a565b60405180910390f35b6100a560048036038101906100a091906108d2565b610247565b6040516100b291906109df565b60405180910390f35b6100d560048036038101906100d091906106a6565b6103a9565b6040516100e4939291906109ff565b60405180910390f35b610107600480360381019061010291906106a6565b61046f565b6040516101149190610a3b565b60405180910390f35b61013760048036038101906101329190610ae2565b610566565b005b60605f805f84815481106101505761014f610b53565b5b905f5260205f2090600302015f015f858154811061017157610170610b53565b5b905f5260205f2090600302016002015f9054906101000a900460ff165f86815481106101a05761019f610b53565b5b905f5260205f209060030201600101548280546101bc90610bad565b80601f01602080910402602001604051908101604052809291908181526020018280546101e890610bad565b80156102335780601f1061020a57610100808354040283529160200191610233565b820191905f5260205f20905b81548152906001019060200180831161021657829003601f168201915b505050505092509250925092509193909250565b61024f610641565b5f805490508310610295576040517f08c379a000000000000000000000000000000000000000000000000000000000815260040161028c90610c27565b60405180910390fd5b815f84815481106102a9576102a8610b53565b5b905f5260205f2090600302015f0190816102c39190610de2565b505f83815481106102d7576102d6610b53565b5b905f5260205f2090600302016040518060600160405290815f820180546102fd90610bad565b80601f016020809104026020016040519081016040528092919081815260200182805461032990610bad565b80156103745780601f1061034b57610100808354040283529160200191610374565b820191905f5260205f20905b81548152906001019060200180831161035757829003601f168201915b5050505050815260200160018201548152602001600282015f9054906101000a900460ff161515151581525050905092915050565b5f81815481106103b7575f80fd5b905f5260205f2090600302015f91509050805f0180546103d690610bad565b80601f016020809104026020016040519081016040528092919081815260200182805461040290610bad565b801561044d5780601f106104245761010080835404028352916020019161044d565b820191905f5260205f20905b81548152906001019060200180831161043057829003601f168201915b505050505090806001015490806002015f9054906101000a900460ff16905083565b60605f8054905082106104b7576040517f08c379a00000000000000000000000000000000000000000000000000000000081526004016104ae90610c27565b60405180910390fd5b5f82815481106104ca576104c9610b53565b5b905f5260205f2090600302015f0180546104e390610bad565b80601f016020809104026020016040519081016040528092919081815260200182805461050f90610bad565b801561055a5780601f106105315761010080835404028352916020019161055a565b820191905f5260205f20905b81548152906001019060200180831161053d57829003601f168201915b50505050509050919050565b61056e610641565b84848080601f0160208091040260200160405190810160405280939291908181526020018383808284375f81840152601f19601f82011690508083019250505050505050815f018190525082816020018181525050818160400190151590811515815250505f81908060018154018082558091505060019003905f5260205f2090600302015f909190919091505f820151815f01908161060e9190610de2565b50602082015181600101556040820151816002015f6101000a81548160ff02191690831515021790555050505050505050565b6040518060600160405280606081526020015f81526020015f151581525090565b5f604051905090565b5f80fd5b5f80fd5b5f819050919050565b61068581610673565b811461068f575f80fd5b50565b5f813590506106a08161067c565b92915050565b5f602082840312156106bb576106ba61066b565b5b5f6106c884828501610692565b91505092915050565b5f81519050919050565b5f82825260208201905092915050565b8281835e5f83830152505050565b5f601f19601f8301169050919050565b5f610713826106d1565b61071d81856106db565b935061072d8185602086016106eb565b610736816106f9565b840191505092915050565b5f8115159050919050565b61075581610741565b82525050565b61076481610673565b82525050565b5f6060820190508181035f8301526107828186610709565b9050610791602083018561074c565b61079e604083018461075b565b949350505050565b5f80fd5b5f80fd5b7f4e487b71000000000000000000000000000000000000000000000000000000005f52604160045260245ffd5b6107e4826106f9565b810181811067ffffffffffffffff82111715610803576108026107ae565b5b80604052505050565b5f610815610662565b905061082182826107db565b919050565b5f67ffffffffffffffff8211156108405761083f6107ae565b5b610849826106f9565b9050602081019050919050565b828183375f83830152505050565b5f61087661087184610826565b61080c565b905082815260208101848484011115610892576108916107aa565b5b61089d848285610856565b509392505050565b5f82601f8301126108b9576108b86107a6565b5b81356108c9848260208601610864565b91505092915050565b5f80604083850312156108e8576108e761066b565b5b5f6108f585828601610692565b925050602083013567ffffffffffffffff8111156109165761091561066f565b5b610922858286016108a5565b9150509250929050565b5f82825260208201905092915050565b5f610946826106d1565b610950818561092c565b93506109608185602086016106eb565b610969816106f9565b840191505092915050565b61097d81610673565b82525050565b61098c81610741565b82525050565b5f606083015f8301518482035f8601526109ac828261093c565b91505060208301516109c16020860182610974565b5060408301516109d46040860182610983565b508091505092915050565b5f6020820190508181035f8301526109f78184610992565b905092915050565b5f6060820190508181035f830152610a178186610709565b9050610a26602083018561075b565b610a33604083018461074c565b949350505050565b5f6020820190508181035f830152610a538184610709565b905092915050565b5f80fd5b5f80fd5b5f8083601f840112610a7857610a776107a6565b5b8235905067ffffffffffffffff811115610a9557610a94610a5b565b5b602083019150836001820283011115610ab157610ab0610a5f565b5b9250929050565b610ac181610741565b8114610acb575f80fd5b50565b5f81359050610adc81610ab8565b92915050565b5f805f8060608587031215610afa57610af961066b565b5b5f85013567ffffffffffffffff811115610b1757610b1661066f565b5b610b2387828801610a63565b94509450506020610b3687828801610692565b9250506040610b4787828801610ace565b91505092959194509250565b7f4e487b71000000000000000000000000000000000000000000000000000000005f52603260045260245ffd5b7f4e487b71000000000000000000000000000000000000000000000000000000005f52602260045260245ffd5b5f6002820490506001821680610bc457607f821691505b602082108103610bd757610bd6610b80565b5b50919050565b7f6f7574206f6620626f75647279000000000000000000000000000000000000005f82015250565b5f610c11600d836106db565b9150610c1c82610bdd565b602082019050919050565b5f6020820190508181035f830152610c3e81610c05565b9050919050565b5f819050815f5260205f209050919050565b5f6020601f8301049050919050565b5f82821b905092915050565b5f60088302610ca17fffffffffffffffffffffffffffffffffffffffffffffffffffffffffffffffff82610c66565b610cab8683610c66565b95508019841693508086168417925050509392505050565b5f819050919050565b5f610ce6610ce1610cdc84610673565b610cc3565b610673565b9050919050565b5f819050919050565b610cff83610ccc565b610d13610d0b82610ced565b848454610c72565b825550505050565b5f90565b610d27610d1b565b610d32818484610cf6565b505050565b5b81811015610d5557610d4a5f82610d1f565b600181019050610d38565b5050565b601f821115610d9a57610d6b81610c45565b610d7484610c57565b81016020851015610d83578190505b610d97610d8f85610c57565b830182610d37565b50505b505050565b5f82821c905092915050565b5f610dba5f1984600802610d9f565b1980831691505092915050565b5f610dd28383610dab565b9150826002028217905092915050565b610deb826106d1565b67ffffffffffffffff811115610e0457610e036107ae565b5b610e0e8254610bad565b610e19828285610d59565b5f60209050601f831160018114610e4a575f8415610e38578287015190505b610e428582610dc7565b865550610ea9565b601f198416610e5886610c45565b5f5b82811015610e7f57848901518255600182019150602085019450602081019050610e5a565b86831015610e9c5784890151610e98601f891682610dab565b8355505b6001600288020188555050505b50505050505056fea2646970667358221220a43e2e27d446d314fc44da775ebcfeca913f0ce3f42349f645a45ccb6455feb664736f6c634300081a0033",
			"opcodes": "PUSH1 0x80 PUSH1 0x40 MSTORE CALLVALUE DUP1 ISZERO PUSH1 0xE JUMPI PUSH0 DUP1 REVERT JUMPDEST POP PUSH2 0xEE7 DUP1 PUSH2 0x1C PUSH0 CODECOPY PUSH0 RETURN INVALID PUSH1 0x80 PUSH1 0x40 MSTORE CALLVALUE DUP1 ISZERO PUSH2 0xF JUMPI PUSH0 DUP1 REVERT JUMPDEST POP PUSH1 0x4 CALLDATASIZE LT PUSH2 0x55 JUMPI PUSH0 CALLDATALOAD PUSH1 0xE0 SHR DUP1 PUSH4 0x31184DC3 EQ PUSH2 0x59 JUMPI DUP1 PUSH4 0x53E76F2C EQ PUSH2 0x8B JUMPI DUP1 PUSH4 0x6EA9487C EQ PUSH2 0xBB JUMPI DUP1 PUSH4 0x9507D39A EQ PUSH2 0xED JUMPI DUP1 PUSH4 0xA6551D4B EQ PUSH2 0x11D JUMPI JUMPDEST PUSH0 DUP1 REVERT JUMPDEST PUSH2 0x73 PUSH1 0x4 DUP1 CALLDATASIZE SUB DUP2 ADD SWAP1 PUSH2 0x6E SWAP2 SWAP1 PUSH2 0x6A6 JUMP JUMPDEST PUSH2 0x139 JUMP JUMPDEST PUSH1 0x40 MLOAD PUSH2 0x82 SWAP4 SWAP3 SWAP2 SWAP1 PUSH2 0x76A JUMP JUMPDEST PUSH1 0x40 MLOAD DUP1 SWAP2 SUB SWAP1 RETURN JUMPDEST PUSH2 0xA5 PUSH1 0x4 DUP1 CALLDATASIZE SUB DUP2 ADD SWAP1 PUSH2 0xA0 SWAP2 SWAP1 PUSH2 0x8D2 JUMP JUMPDEST PUSH2 0x247 JUMP JUMPDEST PUSH1 0x40 MLOAD PUSH2 0xB2 SWAP2 SWAP1 PUSH2 0x9DF JUMP JUMPDEST PUSH1 0x40 MLOAD DUP1 SWAP2 SUB SWAP1 RETURN JUMPDEST PUSH2 0xD5 PUSH1 0x4 DUP1 CALLDATASIZE SUB DUP2 ADD SWAP1 PUSH2 0xD0 SWAP2 SWAP1 PUSH2 0x6A6 JUMP JUMPDEST PUSH2 0x3A9 JUMP JUMPDEST PUSH1 0x40 MLOAD PUSH2 0xE4 SWAP4 SWAP3 SWAP2 SWAP1 PUSH2 0x9FF JUMP JUMPDEST PUSH1 0x40 MLOAD DUP1 SWAP2 SUB SWAP1 RETURN JUMPDEST PUSH2 0x107 PUSH1 0x4 DUP1 CALLDATASIZE SUB DUP2 ADD SWAP1 PUSH2 0x102 SWAP2 SWAP1 PUSH2 0x6A6 JUMP JUMPDEST PUSH2 0x46F JUMP JUMPDEST PUSH1 0x40 MLOAD PUSH2 0x114 SWAP2 SWAP1 PUSH2 0xA3B JUMP JUMPDEST PUSH1 0x40 MLOAD DUP1 SWAP2 SUB SWAP1 RETURN JUMPDEST PUSH2 0x137 PUSH1 0x4 DUP1 CALLDATASIZE SUB DUP2 ADD SWAP1 PUSH2 0x132 SWAP2 SWAP1 PUSH2 0xAE2 JUMP JUMPDEST PUSH2 0x566 JUMP JUMPDEST STOP JUMPDEST PUSH1 0x60 PUSH0 DUP1 PUSH0 DUP5 DUP2 SLOAD DUP2 LT PUSH2 0x150 JUMPI PUSH2 0x14F PUSH2 0xB53 JUMP JUMPDEST JUMPDEST SWAP1 PUSH0 MSTORE PUSH1 0x20 PUSH0 KECCAK256 SWAP1 PUSH1 0x3 MUL ADD PUSH0 ADD PUSH0 DUP6 DUP2 SLOAD DUP2 LT PUSH2 0x171 JUMPI PUSH2 0x170 PUSH2 0xB53 JUMP JUMPDEST JUMPDEST SWAP1 PUSH0 MSTORE PUSH1 0x20 PUSH0 KECCAK256 SWAP1 PUSH1 0x3 MUL ADD PUSH1 0x2 ADD PUSH0 SWAP1 SLOAD SWAP1 PUSH2 0x100 EXP SWAP1 DIV PUSH1 0xFF AND PUSH0 DUP7 DUP2 SLOAD DUP2 LT PUSH2 0x1A0 JUMPI PUSH2 0x19F PUSH2 0xB53 JUMP JUMPDEST JUMPDEST SWAP1 PUSH0 MSTORE PUSH1 0x20 PUSH0 KECCAK256 SWAP1 PUSH1 0x3 MUL ADD PUSH1 0x1 ADD SLOAD DUP3 DUP1 SLOAD PUSH2 0x1BC SWAP1 PUSH2 0xBAD JUMP JUMPDEST DUP1 PUSH1 0x1F ADD PUSH1 0x20 DUP1 SWAP2 DIV MUL PUSH1 0x20 ADD PUSH1 0x40 MLOAD SWAP1 DUP2 ADD PUSH1 0x40 MSTORE DUP1 SWAP3 SWAP2 SWAP1 DUP2 DUP2 MSTORE PUSH1 0x20 ADD DUP3 DUP1 SLOAD PUSH2 0x1E8 SWAP1 PUSH2 0xBAD JUMP JUMPDEST DUP1 ISZERO PUSH2 0x233 JUMPI DUP1 PUSH1 0x1F LT PUSH2 0x20A JUMPI PUSH2 0x100 DUP1 DUP4 SLOAD DIV MUL DUP4 MSTORE SWAP2 PUSH1 0x20 ADD SWAP2 PUSH2 0x233 JUMP JUMPDEST DUP3 ADD SWAP2 SWAP1 PUSH0 MSTORE PUSH1 0x20 PUSH0 KECCAK256 SWAP1 JUMPDEST DUP2 SLOAD DUP2 MSTORE SWAP1 PUSH1 0x1 ADD SWAP1 PUSH1 0x20 ADD DUP1 DUP4 GT PUSH2 0x216 JUMPI DUP3 SWAP1 SUB PUSH1 0x1F AND DUP3 ADD SWAP2 JUMPDEST POP POP POP POP POP SWAP3 POP SWAP3 POP SWAP3 POP SWAP3 POP SWAP2 SWAP4 SWAP1 SWAP3 POP JUMP JUMPDEST PUSH2 0x24F PUSH2 0x641 JUMP JUMPDEST PUSH0 DUP1 SLOAD SWAP1 POP DUP4 LT PUSH2 0x295 JUMPI PUSH1 0x40 MLOAD PUSH32 0x8C379A000000000000000000000000000000000000000000000000000000000 DUP2 MSTORE PUSH1 0x4 ADD PUSH2 0x28C SWAP1 PUSH2 0xC27 JUMP JUMPDEST PUSH1 0x40 MLOAD DUP1 SWAP2 SUB SWAP1 REVERT JUMPDEST DUP2 PUSH0 DUP5 DUP2 SLOAD DUP2 LT PUSH2 0x2A9 JUMPI PUSH2 0x2A8 PUSH2 0xB53 JUMP JUMPDEST JUMPDEST SWAP1 PUSH0 MSTORE PUSH1 0x20 PUSH0 KECCAK256 SWAP1 PUSH1 0x3 MUL ADD PUSH0 ADD SWAP1 DUP2 PUSH2 0x2C3 SWAP2 SWAP1 PUSH2 0xDE2 JUMP JUMPDEST POP PUSH0 DUP4 DUP2 SLOAD DUP2 LT PUSH2 0x2D7 JUMPI PUSH2 0x2D6 PUSH2 0xB53 JUMP JUMPDEST JUMPDEST SWAP1 PUSH0 MSTORE PUSH1 0x20 PUSH0 KECCAK256 SWAP1 PUSH1 0x3 MUL ADD PUSH1 0x40 MLOAD DUP1 PUSH1 0x60 ADD PUSH1 0x40 MSTORE SWAP1 DUP2 PUSH0 DUP3 ADD DUP1 SLOAD PUSH2 0x2FD SWAP1 PUSH2 0xBAD JUMP JUMPDEST DUP1 PUSH1 0x1F ADD PUSH1 0x20 DUP1 SWAP2 DIV MUL PUSH1 0x20 ADD PUSH1 0x40 MLOAD SWAP1 DUP2 ADD PUSH1 0x40 MSTORE DUP1 SWAP3 SWAP2 SWAP1 DUP2 DUP2 MSTORE PUSH1 0x20 ADD DUP3 DUP1 SLOAD PUSH2 0x329 SWAP1 PUSH2 0xBAD JUMP JUMPDEST DUP1 ISZERO PUSH2 0x374 JUMPI DUP1 PUSH1 0x1F LT PUSH2 0x34B JUMPI PUSH2 0x100 DUP1 DUP4 SLOAD DIV MUL DUP4 MSTORE SWAP2 PUSH1 0x20 ADD SWAP2 PUSH2 0x374 JUMP JUMPDEST DUP3 ADD SWAP2 SWAP1 PUSH0 MSTORE PUSH1 0x20 PUSH0 KECCAK256 SWAP1 JUMPDEST DUP2 SLOAD DUP2 MSTORE SWAP1 PUSH1 0x1 ADD SWAP1 PUSH1 0x20 ADD DUP1 DUP4 GT PUSH2 0x357 JUMPI DUP3 SWAP1 SUB PUSH1 0x1F AND DUP3 ADD SWAP2 JUMPDEST POP POP POP POP POP DUP2 MSTORE PUSH1 0x20 ADD PUSH1 0x1 DUP3 ADD SLOAD DUP2 MSTORE PUSH1 0x20 ADD PUSH1 0x2 DUP3 ADD PUSH0 SWAP1 SLOAD SWAP1 PUSH2 0x100 EXP SWAP1 DIV PUSH1 0xFF AND ISZERO ISZERO ISZERO ISZERO DUP2 MSTORE POP POP SWAP1 POP SWAP3 SWAP2 POP POP JUMP JUMPDEST PUSH0 DUP2 DUP2 SLOAD DUP2 LT PUSH2 0x3B7 JUMPI PUSH0 DUP1 REVERT JUMPDEST SWAP1 PUSH0 MSTORE PUSH1 0x20 PUSH0 KECCAK256 SWAP1 PUSH1 0x3 MUL ADD PUSH0 SWAP2 POP SWAP1 POP DUP1 PUSH0 ADD DUP1 SLOAD PUSH2 0x3D6 SWAP1 PUSH2 0xBAD JUMP JUMPDEST DUP1 PUSH1 0x1F ADD PUSH1 0x20 DUP1 SWAP2 DIV MUL PUSH1 0x20 ADD PUSH1 0x40 MLOAD SWAP1 DUP2 ADD PUSH1 0x40 MSTORE DUP1 SWAP3 SWAP2 SWAP1 DUP2 DUP2 MSTORE PUSH1 0x20 ADD DUP3 DUP1 SLOAD PUSH2 0x402 SWAP1 PUSH2 0xBAD JUMP JUMPDEST DUP1 ISZERO PUSH2 0x44D JUMPI DUP1 PUSH1 0x1F LT PUSH2 0x424 JUMPI PUSH2 0x100 DUP1 DUP4 SLOAD DIV MUL DUP4 MSTORE SWAP2 PUSH1 0x20 ADD SWAP2 PUSH2 0x44D JUMP JUMPDEST DUP3 ADD SWAP2 SWAP1 PUSH0 MSTORE PUSH1 0x20 PUSH0 KECCAK256 SWAP1 JUMPDEST DUP2 SLOAD DUP2 MSTORE SWAP1 PUSH1 0x1 ADD SWAP1 PUSH1 0x20 ADD DUP1 DUP4 GT PUSH2 0x430 JUMPI DUP3 SWAP1 SUB PUSH1 0x1F AND DUP3 ADD SWAP2 JUMPDEST POP POP POP POP POP SWAP1 DUP1 PUSH1 0x1 ADD SLOAD SWAP1 DUP1 PUSH1 0x2 ADD PUSH0 SWAP1 SLOAD SWAP1 PUSH2 0x100 EXP SWAP1 DIV PUSH1 0xFF AND SWAP1 POP DUP4 JUMP JUMPDEST PUSH1 0x60 PUSH0 DUP1 SLOAD SWAP1 POP DUP3 LT PUSH2 0x4B7 JUMPI PUSH1 0x40 MLOAD PUSH32 0x8C379A000000000000000000000000000000000000000000000000000000000 DUP2 MSTORE PUSH1 0x4 ADD PUSH2 0x4AE SWAP1 PUSH2 0xC27 JUMP JUMPDEST PUSH1 0x40 MLOAD DUP1 SWAP2 SUB SWAP1 REVERT JUMPDEST PUSH0 DUP3 DUP2 SLOAD DUP2 LT PUSH2 0x4CA JUMPI PUSH2 0x4C9 PUSH2 0xB53 JUMP JUMPDEST JUMPDEST SWAP1 PUSH0 MSTORE PUSH1 0x20 PUSH0 KECCAK256 SWAP1 PUSH1 0x3 MUL ADD PUSH0 ADD DUP1 SLOAD PUSH2 0x4E3 SWAP1 PUSH2 0xBAD JUMP JUMPDEST DUP1 PUSH1 0x1F ADD PUSH1 0x20 DUP1 SWAP2 DIV MUL PUSH1 0x20 ADD PUSH1 0x40 MLOAD SWAP1 DUP2 ADD PUSH1 0x40 MSTORE DUP1 SWAP3 SWAP2 SWAP1 DUP2 DUP2 MSTORE PUSH1 0x20 ADD DUP3 DUP1 SLOAD PUSH2 0x50F SWAP1 PUSH2 0xBAD JUMP JUMPDEST DUP1 ISZERO PUSH2 0x55A JUMPI DUP1 PUSH1 0x1F LT PUSH2 0x531 JUMPI PUSH2 0x100 DUP1 DUP4 SLOAD DIV MUL DUP4 MSTORE SWAP2 PUSH1 0x20 ADD SWAP2 PUSH2 0x55A JUMP JUMPDEST DUP3 ADD SWAP2 SWAP1 PUSH0 MSTORE PUSH1 0x20 PUSH0 KECCAK256 SWAP1 JUMPDEST DUP2 SLOAD DUP2 MSTORE SWAP1 PUSH1 0x1 ADD SWAP1 PUSH1 0x20 ADD DUP1 DUP4 GT PUSH2 0x53D JUMPI DUP3 SWAP1 SUB PUSH1 0x1F AND DUP3 ADD SWAP2 JUMPDEST POP POP POP POP POP SWAP1 POP SWAP2 SWAP1 POP JUMP JUMPDEST PUSH2 0x56E PUSH2 0x641 JUMP JUMPDEST DUP5 DUP5 DUP1 DUP1 PUSH1 0x1F ADD PUSH1 0x20 DUP1 SWAP2 DIV MUL PUSH1 0x20 ADD PUSH1 0x40 MLOAD SWAP1 DUP2 ADD PUSH1 0x40 MSTORE DUP1 SWAP4 SWAP3 SWAP2 SWAP1 DUP2 DUP2 MSTORE PUSH1 0x20 ADD DUP4 DUP4 DUP1 DUP3 DUP5 CALLDATACOPY PUSH0 DUP2 DUP5 ADD MSTORE PUSH1 0x1F NOT PUSH1 0x1F DUP3 ADD AND SWAP1 POP DUP1 DUP4 ADD SWAP3 POP POP POP POP POP POP POP DUP2 PUSH0 ADD DUP2 SWAP1 MSTORE POP DUP3 DUP2 PUSH1 0x20 ADD DUP2 DUP2 MSTORE POP POP DUP2 DUP2 PUSH1 0x40 ADD SWAP1 ISZERO ISZERO SWAP1 DUP2 ISZERO ISZERO DUP2 MSTORE POP POP PUSH0 DUP2 SWAP1 DUP1 PUSH1 0x1 DUP2 SLOAD ADD DUP1 DUP3 SSTORE DUP1 SWAP2 POP POP PUSH1 0x1 SWAP1 SUB SWAP1 PUSH0 MSTORE PUSH1 0x20 PUSH0 KECCAK256 SWAP1 PUSH1 0x3 MUL ADD PUSH0 SWAP1 SWAP2 SWAP1 SWAP2 SWAP1 SWAP2 POP PUSH0 DUP3 ADD MLOAD DUP2 PUSH0 ADD SWAP1 DUP2 PUSH2 0x60E SWAP2 SWAP1 PUSH2 0xDE2 JUMP JUMPDEST POP PUSH1 0x20 DUP3 ADD MLOAD DUP2 PUSH1 0x1 ADD SSTORE PUSH1 0x40 DUP3 ADD MLOAD DUP2 PUSH1 0x2 ADD PUSH0 PUSH2 0x100 EXP DUP2 SLOAD DUP2 PUSH1 0xFF MUL NOT AND SWAP1 DUP4 ISZERO ISZERO MUL OR SWAP1 SSTORE POP POP POP POP POP POP POP POP JUMP JUMPDEST PUSH1 0x40 MLOAD DUP1 PUSH1 0x60 ADD PUSH1 0x40 MSTORE DUP1 PUSH1 0x60 DUP2 MSTORE PUSH1 0x20 ADD PUSH0 DUP2 MSTORE PUSH1 0x20 ADD PUSH0 ISZERO ISZERO DUP2 MSTORE POP SWAP1 JUMP JUMPDEST PUSH0 PUSH1 0x40 MLOAD SWAP1 POP SWAP1 JUMP JUMPDEST PUSH0 DUP1 REVERT JUMPDEST PUSH0 DUP1 REVERT JUMPDEST PUSH0 DUP2 SWAP1 POP SWAP2 SWAP1 POP JUMP JUMPDEST PUSH2 0x685 DUP2 PUSH2 0x673 JUMP JUMPDEST DUP2 EQ PUSH2 0x68F JUMPI PUSH0 DUP1 REVERT JUMPDEST POP JUMP JUMPDEST PUSH0 DUP2 CALLDATALOAD SWAP1 POP PUSH2 0x6A0 DUP2 PUSH2 0x67C JUMP JUMPDEST SWAP3 SWAP2 POP POP JUMP JUMPDEST PUSH0 PUSH1 0x20 DUP3 DUP5 SUB SLT ISZERO PUSH2 0x6BB JUMPI PUSH2 0x6BA PUSH2 0x66B JUMP JUMPDEST JUMPDEST PUSH0 PUSH2 0x6C8 DUP5 DUP3 DUP6 ADD PUSH2 0x692 JUMP JUMPDEST SWAP2 POP POP SWAP3 SWAP2 POP POP JUMP JUMPDEST PUSH0 DUP2 MLOAD SWAP1 POP SWAP2 SWAP1 POP JUMP JUMPDEST PUSH0 DUP3 DUP3 MSTORE PUSH1 0x20 DUP3 ADD SWAP1 POP SWAP3 SWAP2 POP POP JUMP JUMPDEST DUP3 DUP2 DUP4 MCOPY PUSH0 DUP4 DUP4 ADD MSTORE POP POP POP JUMP JUMPDEST PUSH0 PUSH1 0x1F NOT PUSH1 0x1F DUP4 ADD AND SWAP1 POP SWAP2 SWAP1 POP JUMP JUMPDEST PUSH0 PUSH2 0x713 DUP3 PUSH2 0x6D1 JUMP JUMPDEST PUSH2 0x71D DUP2 DUP6 PUSH2 0x6DB JUMP JUMPDEST SWAP4 POP PUSH2 0x72D DUP2 DUP6 PUSH1 0x20 DUP7 ADD PUSH2 0x6EB JUMP JUMPDEST PUSH2 0x736 DUP2 PUSH2 0x6F9 JUMP JUMPDEST DUP5 ADD SWAP2 POP POP SWAP3 SWAP2 POP POP JUMP JUMPDEST PUSH0 DUP2 ISZERO ISZERO SWAP1 POP SWAP2 SWAP1 POP JUMP JUMPDEST PUSH2 0x755 DUP2 PUSH2 0x741 JUMP JUMPDEST DUP3 MSTORE POP POP JUMP JUMPDEST PUSH2 0x764 DUP2 PUSH2 0x673 JUMP JUMPDEST DUP3 MSTORE POP POP JUMP JUMPDEST PUSH0 PUSH1 0x60 DUP3 ADD SWAP1 POP DUP2 DUP2 SUB PUSH0 DUP4 ADD MSTORE PUSH2 0x782 DUP2 DUP7 PUSH2 0x709 JUMP JUMPDEST SWAP1 POP PUSH2 0x791 PUSH1 0x20 DUP4 ADD DUP6 PUSH2 0x74C JUMP JUMPDEST PUSH2 0x79E PUSH1 0x40 DUP4 ADD DUP5 PUSH2 0x75B JUMP JUMPDEST SWAP5 SWAP4 POP POP POP POP JUMP JUMPDEST PUSH0 DUP1 REVERT JUMPDEST PUSH0 DUP1 REVERT JUMPDEST PUSH32 0x4E487B7100000000000000000000000000000000000000000000000000000000 PUSH0 MSTORE PUSH1 0x41 PUSH1 0x4 MSTORE PUSH1 0x24 PUSH0 REVERT JUMPDEST PUSH2 0x7E4 DUP3 PUSH2 0x6F9 JUMP JUMPDEST DUP2 ADD DUP2 DUP2 LT PUSH8 0xFFFFFFFFFFFFFFFF DUP3 GT OR ISZERO PUSH2 0x803 JUMPI PUSH2 0x802 PUSH2 0x7AE JUMP JUMPDEST JUMPDEST DUP1 PUSH1 0x40 MSTORE POP POP POP JUMP JUMPDEST PUSH0 PUSH2 0x815 PUSH2 0x662 JUMP JUMPDEST SWAP1 POP PUSH2 0x821 DUP3 DUP3 PUSH2 0x7DB JUMP JUMPDEST SWAP2 SWAP1 POP JUMP JUMPDEST PUSH0 PUSH8 0xFFFFFFFFFFFFFFFF DUP3 GT ISZERO PUSH2 0x840 JUMPI PUSH2 0x83F PUSH2 0x7AE JUMP JUMPDEST JUMPDEST PUSH2 0x849 DUP3 PUSH2 0x6F9 JUMP JUMPDEST SWAP1 POP PUSH1 0x20 DUP2 ADD SWAP1 POP SWAP2 SWAP1 POP JUMP JUMPDEST DUP3 DUP2 DUP4 CALLDATACOPY PUSH0 DUP4 DUP4 ADD MSTORE POP POP POP JUMP JUMPDEST PUSH0 PUSH2 0x876 PUSH2 0x871 DUP5 PUSH2 0x826 JUMP JUMPDEST PUSH2 0x80C JUMP JUMPDEST SWAP1 POP DUP3 DUP2 MSTORE PUSH1 0x20 DUP2 ADD DUP5 DUP5 DUP5 ADD GT ISZERO PUSH2 0x892 JUMPI PUSH2 0x891 PUSH2 0x7AA JUMP JUMPDEST JUMPDEST PUSH2 0x89D DUP5 DUP3 DUP6 PUSH2 0x856 JUMP JUMPDEST POP SWAP4 SWAP3 POP POP POP JUMP JUMPDEST PUSH0 DUP3 PUSH1 0x1F DUP4 ADD SLT PUSH2 0x8B9 JUMPI PUSH2 0x8B8 PUSH2 0x7A6 JUMP JUMPDEST JUMPDEST DUP2 CALLDATALOAD PUSH2 0x8C9 DUP5 DUP3 PUSH1 0x20 DUP7 ADD PUSH2 0x864 JUMP JUMPDEST SWAP2 POP POP SWAP3 SWAP2 POP POP JUMP JUMPDEST PUSH0 DUP1 PUSH1 0x40 DUP4 DUP6 SUB SLT ISZERO PUSH2 0x8E8 JUMPI PUSH2 0x8E7 PUSH2 0x66B JUMP JUMPDEST JUMPDEST PUSH0 PUSH2 0x8F5 DUP6 DUP3 DUP7 ADD PUSH2 0x692 JUMP JUMPDEST SWAP3 POP POP PUSH1 0x20 DUP4 ADD CALLDATALOAD PUSH8 0xFFFFFFFFFFFFFFFF DUP2 GT ISZERO PUSH2 0x916 JUMPI PUSH2 0x915 PUSH2 0x66F JUMP JUMPDEST JUMPDEST PUSH2 0x922 DUP6 DUP3 DUP7 ADD PUSH2 0x8A5 JUMP JUMPDEST SWAP2 POP POP SWAP3 POP SWAP3 SWAP1 POP JUMP JUMPDEST PUSH0 DUP3 DUP3 MSTORE PUSH1 0x20 DUP3 ADD SWAP1 POP SWAP3 SWAP2 POP POP JUMP JUMPDEST PUSH0 PUSH2 0x946 DUP3 PUSH2 0x6D1 JUMP JUMPDEST PUSH2 0x950 DUP2 DUP6 PUSH2 0x92C JUMP JUMPDEST SWAP4 POP PUSH2 0x960 DUP2 DUP6 PUSH1 0x20 DUP7 ADD PUSH2 0x6EB JUMP JUMPDEST PUSH2 0x969 DUP2 PUSH2 0x6F9 JUMP JUMPDEST DUP5 ADD SWAP2 POP POP SWAP3 SWAP2 POP POP JUMP JUMPDEST PUSH2 0x97D DUP2 PUSH2 0x673 JUMP JUMPDEST DUP3 MSTORE POP POP JUMP JUMPDEST PUSH2 0x98C DUP2 PUSH2 0x741 JUMP JUMPDEST DUP3 MSTORE POP POP JUMP JUMPDEST PUSH0 PUSH1 0x60 DUP4 ADD PUSH0 DUP4 ADD MLOAD DUP5 DUP3 SUB PUSH0 DUP7 ADD MSTORE PUSH2 0x9AC DUP3 DUP3 PUSH2 0x93C JUMP JUMPDEST SWAP2 POP POP PUSH1 0x20 DUP4 ADD MLOAD PUSH2 0x9C1 PUSH1 0x20 DUP7 ADD DUP3 PUSH2 0x974 JUMP JUMPDEST POP PUSH1 0x40 DUP4 ADD MLOAD PUSH2 0x9D4 PUSH1 0x40 DUP7 ADD DUP3 PUSH2 0x983 JUMP JUMPDEST POP DUP1 SWAP2 POP POP SWAP3 SWAP2 POP POP JUMP JUMPDEST PUSH0 PUSH1 0x20 DUP3 ADD SWAP1 POP DUP2 DUP2 SUB PUSH0 DUP4 ADD MSTORE PUSH2 0x9F7 DUP2 DUP5 PUSH2 0x992 JUMP JUMPDEST SWAP1 POP SWAP3 SWAP2 POP POP JUMP JUMPDEST PUSH0 PUSH1 0x60 DUP3 ADD SWAP1 POP DUP2 DUP2 SUB PUSH0 DUP4 ADD MSTORE PUSH2 0xA17 DUP2 DUP7 PUSH2 0x709 JUMP JUMPDEST SWAP1 POP PUSH2 0xA26 PUSH1 0x20 DUP4 ADD DUP6 PUSH2 0x75B JUMP JUMPDEST PUSH2 0xA33 PUSH1 0x40 DUP4 ADD DUP5 PUSH2 0x74C JUMP JUMPDEST SWAP5 SWAP4 POP POP POP POP JUMP JUMPDEST PUSH0 PUSH1 0x20 DUP3 ADD SWAP1 POP DUP2 DUP2 SUB PUSH0 DUP4 ADD MSTORE PUSH2 0xA53 DUP2 DUP5 PUSH2 0x709 JUMP JUMPDEST SWAP1 POP SWAP3 SWAP2 POP POP JUMP JUMPDEST PUSH0 DUP1 REVERT JUMPDEST PUSH0 DUP1 REVERT JUMPDEST PUSH0 DUP1 DUP4 PUSH1 0x1F DUP5 ADD SLT PUSH2 0xA78 JUMPI PUSH2 0xA77 PUSH2 0x7A6 JUMP JUMPDEST JUMPDEST DUP3 CALLDATALOAD SWAP1 POP PUSH8 0xFFFFFFFFFFFFFFFF DUP2 GT ISZERO PUSH2 0xA95 JUMPI PUSH2 0xA94 PUSH2 0xA5B JUMP JUMPDEST JUMPDEST PUSH1 0x20 DUP4 ADD SWAP2 POP DUP4 PUSH1 0x1 DUP3 MUL DUP4 ADD GT ISZERO PUSH2 0xAB1 JUMPI PUSH2 0xAB0 PUSH2 0xA5F JUMP JUMPDEST JUMPDEST SWAP3 POP SWAP3 SWAP1 POP JUMP JUMPDEST PUSH2 0xAC1 DUP2 PUSH2 0x741 JUMP JUMPDEST DUP2 EQ PUSH2 0xACB JUMPI PUSH0 DUP1 REVERT JUMPDEST POP JUMP JUMPDEST PUSH0 DUP2 CALLDATALOAD SWAP1 POP PUSH2 0xADC DUP2 PUSH2 0xAB8 JUMP JUMPDEST SWAP3 SWAP2 POP POP JUMP JUMPDEST PUSH0 DUP1 PUSH0 DUP1 PUSH1 0x60 DUP6 DUP8 SUB SLT ISZERO PUSH2 0xAFA JUMPI PUSH2 0xAF9 PUSH2 0x66B JUMP JUMPDEST JUMPDEST PUSH0 DUP6 ADD CALLDATALOAD PUSH8 0xFFFFFFFFFFFFFFFF DUP2 GT ISZERO PUSH2 0xB17 JUMPI PUSH2 0xB16 PUSH2 0x66F JUMP JUMPDEST JUMPDEST PUSH2 0xB23 DUP8 DUP3 DUP9 ADD PUSH2 0xA63 JUMP JUMPDEST SWAP5 POP SWAP5 POP POP PUSH1 0x20 PUSH2 0xB36 DUP8 DUP3 DUP9 ADD PUSH2 0x692 JUMP JUMPDEST SWAP3 POP POP PUSH1 0x40 PUSH2 0xB47 DUP8 DUP3 DUP9 ADD PUSH2 0xACE JUMP JUMPDEST SWAP2 POP POP SWAP3 SWAP6 SWAP2 SWAP5 POP SWAP3 POP JUMP JUMPDEST PUSH32 0x4E487B7100000000000000000000000000000000000000000000000000000000 PUSH0 MSTORE PUSH1 0x32 PUSH1 0x4 MSTORE PUSH1 0x24 PUSH0 REVERT JUMPDEST PUSH32 0x4E487B7100000000000000000000000000000000000000000000000000000000 PUSH0 MSTORE PUSH1 0x22 PUSH1 0x4 MSTORE PUSH1 0x24 PUSH0 REVERT JUMPDEST PUSH0 PUSH1 0x2 DUP3 DIV SWAP1 POP PUSH1 0x1 DUP3 AND DUP1 PUSH2 0xBC4 JUMPI PUSH1 0x7F DUP3 AND SWAP2 POP JUMPDEST PUSH1 0x20 DUP3 LT DUP2 SUB PUSH2 0xBD7 JUMPI PUSH2 0xBD6 PUSH2 0xB80 JUMP JUMPDEST JUMPDEST POP SWAP2 SWAP1 POP JUMP JUMPDEST PUSH32 0x6F7574206F6620626F7564727900000000000000000000000000000000000000 PUSH0 DUP3 ADD MSTORE POP JUMP JUMPDEST PUSH0 PUSH2 0xC11 PUSH1 0xD DUP4 PUSH2 0x6DB JUMP JUMPDEST SWAP2 POP PUSH2 0xC1C DUP3 PUSH2 0xBDD JUMP JUMPDEST PUSH1 0x20 DUP3 ADD SWAP1 POP SWAP2 SWAP1 POP JUMP JUMPDEST PUSH0 PUSH1 0x20 DUP3 ADD SWAP1 POP DUP2 DUP2 SUB PUSH0 DUP4 ADD MSTORE PUSH2 0xC3E DUP2 PUSH2 0xC05 JUMP JUMPDEST SWAP1 POP SWAP2 SWAP1 POP JUMP JUMPDEST PUSH0 DUP2 SWAP1 POP DUP2 PUSH0 MSTORE PUSH1 0x20 PUSH0 KECCAK256 SWAP1 POP SWAP2 SWAP1 POP JUMP JUMPDEST PUSH0 PUSH1 0x20 PUSH1 0x1F DUP4 ADD DIV SWAP1 POP SWAP2 SWAP1 POP JUMP JUMPDEST PUSH0 DUP3 DUP3 SHL SWAP1 POP SWAP3 SWAP2 POP POP JUMP JUMPDEST PUSH0 PUSH1 0x8 DUP4 MUL PUSH2 0xCA1 PUSH32 0xFFFFFFFFFFFFFFFFFFFFFFFFFFFFFFFFFFFFFFFFFFFFFFFFFFFFFFFFFFFFFFFF DUP3 PUSH2 0xC66 JUMP JUMPDEST PUSH2 0xCAB DUP7 DUP4 PUSH2 0xC66 JUMP JUMPDEST SWAP6 POP DUP1 NOT DUP5 AND SWAP4 POP DUP1 DUP7 AND DUP5 OR SWAP3 POP POP POP SWAP4 SWAP3 POP POP POP JUMP JUMPDEST PUSH0 DUP2 SWAP1 POP SWAP2 SWAP1 POP JUMP JUMPDEST PUSH0 PUSH2 0xCE6 PUSH2 0xCE1 PUSH2 0xCDC DUP5 PUSH2 0x673 JUMP JUMPDEST PUSH2 0xCC3 JUMP JUMPDEST PUSH2 0x673 JUMP JUMPDEST SWAP1 POP SWAP2 SWAP1 POP JUMP JUMPDEST PUSH0 DUP2 SWAP1 POP SWAP2 SWAP1 POP JUMP JUMPDEST PUSH2 0xCFF DUP4 PUSH2 0xCCC JUMP JUMPDEST PUSH2 0xD13 PUSH2 0xD0B DUP3 PUSH2 0xCED JUMP JUMPDEST DUP5 DUP5 SLOAD PUSH2 0xC72 JUMP JUMPDEST DUP3 SSTORE POP POP POP POP JUMP JUMPDEST PUSH0 SWAP1 JUMP JUMPDEST PUSH2 0xD27 PUSH2 0xD1B JUMP JUMPDEST PUSH2 0xD32 DUP2 DUP5 DUP5 PUSH2 0xCF6 JUMP JUMPDEST POP POP POP JUMP JUMPDEST JUMPDEST DUP2 DUP2 LT ISZERO PUSH2 0xD55 JUMPI PUSH2 0xD4A PUSH0 DUP3 PUSH2 0xD1F JUMP JUMPDEST PUSH1 0x1 DUP2 ADD SWAP1 POP PUSH2 0xD38 JUMP JUMPDEST POP POP JUMP JUMPDEST PUSH1 0x1F DUP3 GT ISZERO PUSH2 0xD9A JUMPI PUSH2 0xD6B DUP2 PUSH2 0xC45 JUMP JUMPDEST PUSH2 0xD74 DUP5 PUSH2 0xC57 JUMP JUMPDEST DUP2 ADD PUSH1 0x20 DUP6 LT ISZERO PUSH2 0xD83 JUMPI DUP2 SWAP1 POP JUMPDEST PUSH2 0xD97 PUSH2 0xD8F DUP6 PUSH2 0xC57 JUMP JUMPDEST DUP4 ADD DUP3 PUSH2 0xD37 JUMP JUMPDEST POP POP JUMPDEST POP POP POP JUMP JUMPDEST PUSH0 DUP3 DUP3 SHR SWAP1 POP SWAP3 SWAP2 POP POP JUMP JUMPDEST PUSH0 PUSH2 0xDBA PUSH0 NOT DUP5 PUSH1 0x8 MUL PUSH2 0xD9F JUMP JUMPDEST NOT DUP1 DUP4 AND SWAP2 POP POP SWAP3 SWAP2 POP POP JUMP JUMPDEST PUSH0 PUSH2 0xDD2 DUP4 DUP4 PUSH2 0xDAB JUMP JUMPDEST SWAP2 POP DUP3 PUSH1 0x2 MUL DUP3 OR SWAP1 POP SWAP3 SWAP2 POP POP JUMP JUMPDEST PUSH2 0xDEB DUP3 PUSH2 0x6D1 JUMP JUMPDEST PUSH8 0xFFFFFFFFFFFFFFFF DUP2 GT ISZERO PUSH2 0xE04 JUMPI PUSH2 0xE03 PUSH2 0x7AE JUMP JUMPDEST JUMPDEST PUSH2 0xE0E DUP3 SLOAD PUSH2 0xBAD JUMP JUMPDEST PUSH2 0xE19 DUP3 DUP3 DUP6 PUSH2 0xD59 JUMP JUMPDEST PUSH0 PUSH1 0x20 SWAP1 POP PUSH1 0x1F DUP4 GT PUSH1 0x1 DUP2 EQ PUSH2 0xE4A JUMPI PUSH0 DUP5 ISZERO PUSH2 0xE38 JUMPI DUP3 DUP8 ADD MLOAD SWAP1 POP JUMPDEST PUSH2 0xE42 DUP6 DUP3 PUSH2 0xDC7 JUMP JUMPDEST DUP7 SSTORE POP PUSH2 0xEA9 JUMP JUMPDEST PUSH1 0x1F NOT DUP5 AND PUSH2 0xE58 DUP7 PUSH2 0xC45 JUMP JUMPDEST PUSH0 JUMPDEST DUP3 DUP2 LT ISZERO PUSH2 0xE7F JUMPI DUP5 DUP10 ADD MLOAD DUP3 SSTORE PUSH1 0x1 DUP3 ADD SWAP2 POP PUSH1 0x20 DUP6 ADD SWAP5 POP PUSH1 0x20 DUP2 ADD SWAP1 POP PUSH2 0xE5A JUMP JUMPDEST DUP7 DUP4 LT ISZERO PUSH2 0xE9C JUMPI DUP5 DUP10 ADD MLOAD PUSH2 0xE98 PUSH1 0x1F DUP10 AND DUP3 PUSH2 0xDAB JUMP JUMPDEST DUP4 SSTORE POP JUMPDEST PUSH1 0x1 PUSH1 0x2 DUP9 MUL ADD DUP9 SSTORE POP POP POP JUMPDEST POP POP POP POP POP POP JUMP INVALID LOG2 PUSH5 0x6970667358 0x22 SLT KECCAK256 LOG4 RETURNDATACOPY 0x2E 0x27 0xD4 CHAINID 0xD3 EQ 0xFC PREVRANDAO 0xDA PUSH24 0x5EBCFECA913F0CE3F42349F645A45CCB6455FEB664736F6C PUSH4 0x4300081A STOP CALLER "
		},
		"gasEstimates": {
			"creation": {
				"codeDepositCost": "763000",
				"executionCost": "797",
				"totalCost": "763797"
			},
			"external": {
				"get(uint256)": "infinite",
				"get2(uint256)": "infinite",
				"set(string,uint256,bool)": "infinite",
				"stud(uint256)": "infinite",
				"updateName(uint256,string)": "infinite"
			}
		},
		"methodIdentifiers": {
			"get(uint256)": "9507d39a",
			"get2(uint256)": "31184dc3",
			"set(string,uint256,bool)": "a6551d4b",
			"stud(uint256)": "6ea9487c",
			"updateName(uint256,string)": "53e76f2c"
		}
	},
	"abi": [
		{
			"inputs": [
				{
					"internalType": "uint256",
					"name": "_index",
					"type": "uint256"
				}
			],
			"name": "get",
			"outputs": [
				{
					"internalType": "string",
					"name": "",
					"type": "string"
				}
			],
			"stateMutability": "view",
			"type": "function"
		},
		{
			"inputs": [
				{
					"internalType": "uint256",
					"name": "_index",
					"type": "uint256"
				}
			],
			"name": "get2",
			"outputs": [
				{
					"internalType": "string",
					"name": "",
					"type": "string"
				},
				{
					"internalType": "bool",
					"name": "",
					"type": "bool"
				},
				{
					"internalType": "uint256",
					"name": "",
					"type": "uint256"
				}
			],
			"stateMutability": "view",
			"type": "function"
		},
		{
			"inputs": [
				{
					"internalType": "string",
					"name": "_name",
					"type": "string"
				},
				{
					"internalType": "uint256",
					"name": "_grade",
					"type": "uint256"
				},
				{
					"internalType": "bool",
					"name": "_pass",
					"type": "bool"
				}
			],
			"name": "set",
			"outputs": [],
			"stateMutability": "nonpayable",
			"type": "function"
		},
		{
			"inputs": [
				{
					"internalType": "uint256",
					"name": "",
					"type": "uint256"
				}
			],
			"name": "stud",
			"outputs": [
				{
					"internalType": "string",
					"name": "name",
					"type": "string"
				},
				{
					"internalType": "uint256",
					"name": "grade",
					"type": "uint256"
				},
				{
					"internalType": "bool",
					"name": "pass",
					"type": "bool"
				}
			],
			"stateMutability": "view",
			"type": "function"
		},
		{
			"inputs": [
				{
					"internalType": "uint256",
					"name": "_index",
					"type": "uint256"
				},
				{
					"internalType": "string",
					"name": "_newname",
					"type": "string"
				}
			],
			"name": "updateName",
			"outputs": [
				{
					"components": [
						{
							"internalType": "string",
							"name": "name",
							"type": "string"
						},
						{
							"internalType": "uint256",
							"name": "grade",
							"type": "uint256"
						},
						{
							"internalType": "bool",
							"name": "pass",
							"type": "bool"
						}
					],
					"internalType": "struct Struct2.students",
					"name": "",
					"type": "tuple"
				}
			],
			"stateMutability": "nonpayable",
			"type": "function"
		}
	]
}