{
	"data": {
		"bytecode": {
			"linkReferences": {},
			"object": "608060405260085f553480156012575f80fd5b506102da806100205f395ff3fe608060405234801561000f575f80fd5b5060043610610034575f3560e01c8063b69ef8a814610038578063f8a8fd6d14610056575b5f80fd5b610040610060565b60405161004d9190610100565b60405180910390f35b61005e610065565b005b5f5481565b60055f54116100a9576040517f08c379a00000000000000000000000000000000000000000000000000000000081526004016100a090610173565b60405180910390fd5b7f256edf1a58ff06ec40e07960d93ff7240c4426d064749ca2641d86ca63bd23405f546006306040516100de9392919061025c565b60405180910390a1565b5f819050919050565b6100fa816100e8565b82525050565b5f6020820190506101135f8301846100f1565b92915050565b5f82825260208201905092915050565b7f62616c616e6365206d75737420677265617465722035000000000000000000005f82015250565b5f61015d601683610119565b915061016882610129565b602082019050919050565b5f6020820190508181035f83015261018a81610151565b9050919050565b7f74657374000000000000000000000000000000000000000000000000000000005f82015250565b5f6101c5600483610119565b91506101d082610191565b602082019050919050565b5f819050919050565b5f819050919050565b5f6102076102026101fd846101db565b6101e4565b6100e8565b9050919050565b610217816101ed565b82525050565b5f73ffffffffffffffffffffffffffffffffffffffff82169050919050565b5f6102468261021d565b9050919050565b6102568161023c565b82525050565b5f60808201905061026f5f8301866100f1565b8181036020830152610280816101b9565b905061028f604083018561020e565b61029c606083018461024d565b94935050505056fea2646970667358221220e8aed3a4a4e1ebc67f7e658882d4d319c33ba5a346dd4c4905f2d31abc1e1abf64736f6c634300081a0033",
			"opcodes": "PUSH1 0x80 PUSH1 0x40 MSTORE PUSH1 0x8 PUSH0 SSTORE CALLVALUE DUP1 ISZERO PUSH1 0x12 JUMPI PUSH0 DUP1 REVERT JUMPDEST POP PUSH2 0x2DA DUP1 PUSH2 0x20 PUSH0 CODECOPY PUSH0 RETURN INVALID PUSH1 0x80 PUSH1 0x40 MSTORE CALLVALUE DUP1 ISZERO PUSH2 0xF JUMPI PUSH0 DUP1 REVERT JUMPDEST POP PUSH1 0x4 CALLDATASIZE LT PUSH2 0x34 JUMPI PUSH0 CALLDATALOAD PUSH1 0xE0 SHR DUP1 PUSH4 0xB69EF8A8 EQ PUSH2 0x38 JUMPI DUP1 PUSH4 0xF8A8FD6D EQ PUSH2 0x56 JUMPI JUMPDEST PUSH0 DUP1 REVERT JUMPDEST PUSH2 0x40 PUSH2 0x60 JUMP JUMPDEST PUSH1 0x40 MLOAD PUSH2 0x4D SWAP2 SWAP1 PUSH2 0x100 JUMP JUMPDEST PUSH1 0x40 MLOAD DUP1 SWAP2 SUB SWAP1 RETURN JUMPDEST PUSH2 0x5E PUSH2 0x65 JUMP JUMPDEST STOP JUMPDEST PUSH0 SLOAD DUP2 JUMP JUMPDEST PUSH1 0x5 PUSH0 SLOAD GT PUSH2 0xA9 JUMPI PUSH1 0x40 MLOAD PUSH32 0x8C379A000000000000000000000000000000000000000000000000000000000 DUP2 MSTORE PUSH1 0x4 ADD PUSH2 0xA0 SWAP1 PUSH2 0x173 JUMP JUMPDEST PUSH1 0x40 MLOAD DUP1 SWAP2 SUB SWAP1 REVERT JUMPDEST PUSH32 0x256EDF1A58FF06EC40E07960D93FF7240C4426D064749CA2641D86CA63BD2340 PUSH0 SLOAD PUSH1 0x6 ADDRESS PUSH1 0x40 MLOAD PUSH2 0xDE SWAP4 SWAP3 SWAP2 SWAP1 PUSH2 0x25C JUMP JUMPDEST PUSH1 0x40 MLOAD DUP1 SWAP2 SUB SWAP1 LOG1 JUMP JUMPDEST PUSH0 DUP2 SWAP1 POP SWAP2 SWAP1 POP JUMP JUMPDEST PUSH2 0xFA DUP2 PUSH2 0xE8 JUMP JUMPDEST DUP3 MSTORE POP POP JUMP JUMPDEST PUSH0 PUSH1 0x20 DUP3 ADD SWAP1 POP PUSH2 0x113 PUSH0 DUP4 ADD DUP5 PUSH2 0xF1 JUMP JUMPDEST SWAP3 SWAP2 POP POP JUMP JUMPDEST PUSH0 DUP3 DUP3 MSTORE PUSH1 0x20 DUP3 ADD SWAP1 POP SWAP3 SWAP2 POP POP JUMP JUMPDEST PUSH32 0x62616C616E6365206D7573742067726561746572203500000000000000000000 PUSH0 DUP3 ADD MSTORE POP JUMP JUMPDEST PUSH0 PUSH2 0x15D PUSH1 0x16 DUP4 PUSH2 0x119 JUMP JUMPDEST SWAP2 POP PUSH2 0x168 DUP3 PUSH2 0x129 JUMP JUMPDEST PUSH1 0x20 DUP3 ADD SWAP1 POP SWAP2 SWAP1 POP JUMP JUMPDEST PUSH0 PUSH1 0x20 DUP3 ADD SWAP1 POP DUP2 DUP2 SUB PUSH0 DUP4 ADD MSTORE PUSH2 0x18A DUP2 PUSH2 0x151 JUMP JUMPDEST SWAP1 POP SWAP2 SWAP1 POP JUMP JUMPDEST PUSH32 0x7465737400000000000000000000000000000000000000000000000000000000 PUSH0 DUP3 ADD MSTORE POP JUMP JUMPDEST PUSH0 PUSH2 0x1C5 PUSH1 0x4 DUP4 PUSH2 0x119 JUMP JUMPDEST SWAP2 POP PUSH2 0x1D0 DUP3 PUSH2 0x191 JUMP JUMPDEST PUSH1 0x20 DUP3 ADD SWAP1 POP SWAP2 SWAP1 POP JUMP JUMPDEST PUSH0 DUP2 SWAP1 POP SWAP2 SWAP1 POP JUMP JUMPDEST PUSH0 DUP2 SWAP1 POP SWAP2 SWAP1 POP JUMP JUMPDEST PUSH0 PUSH2 0x207 PUSH2 0x202 PUSH2 0x1FD DUP5 PUSH2 0x1DB JUMP JUMPDEST PUSH2 0x1E4 JUMP JUMPDEST PUSH2 0xE8 JUMP JUMPDEST SWAP1 POP SWAP2 SWAP1 POP JUMP JUMPDEST PUSH2 0x217 DUP2 PUSH2 0x1ED JUMP JUMPDEST DUP3 MSTORE POP POP JUMP JUMPDEST PUSH0 PUSH20 0xFFFFFFFFFFFFFFFFFFFFFFFFFFFFFFFFFFFFFFFF DUP3 AND SWAP1 POP SWAP2 SWAP1 POP JUMP JUMPDEST PUSH0 PUSH2 0x246 DUP3 PUSH2 0x21D JUMP JUMPDEST SWAP1 POP SWAP2 SWAP1 POP JUMP JUMPDEST PUSH2 0x256 DUP2 PUSH2 0x23C JUMP JUMPDEST DUP3 MSTORE POP POP JUMP JUMPDEST PUSH0 PUSH1 0x80 DUP3 ADD SWAP1 POP PUSH2 0x26F PUSH0 DUP4 ADD DUP7 PUSH2 0xF1 JUMP JUMPDEST DUP2 DUP2 SUB PUSH1 0x20 DUP4 ADD MSTORE PUSH2 0x280 DUP2 PUSH2 0x1B9 JUMP JUMPDEST SWAP1 POP PUSH2 0x28F PUSH1 0x40 DUP4 ADD DUP6 PUSH2 0x20E JUMP JUMPDEST PUSH2 0x29C PUSH1 0x60 DUP4 ADD DUP5 PUSH2 0x24D JUMP JUMPDEST SWAP5 SWAP4 POP POP POP POP JUMP INVALID LOG2 PUSH5 0x6970667358 0x22 SLT KECCAK256 0xE8 0xAE 0xD3 LOG4 LOG4 0xE1 0xEB 0xC6 PUSH32 0x7E658882D4D319C33BA5A346DD4C4905F2D31ABC1E1ABF64736F6C634300081A STOP CALLER "
		},
		"gasEstimates": {
			"creation": {
				"codeDepositCost": "146000",
				"executionCost": "22293",
				"totalCost": "168293"
			},
			"external": {
				"balance()": "2402",
				"test()": "infinite"
			}
		},
		"methodIdentifiers": {
			"balance()": "b69ef8a8",
			"test()": "f8a8fd6d"
		}
	},
	"abi": [
		{
			"anonymous": false,
			"inputs": [
				{
					"indexed": false,
					"internalType": "uint256",
					"name": "",
					"type": "uint256"
				},
				{
					"indexed": false,
					"internalType": "string",
					"name": "",
					"type": "string"
				},
				{
					"indexed": false,
					"internalType": "uint256",
					"name": "",
					"type": "uint256"
				},
				{
					"indexed": false,
					"internalType": "address",
					"name": "",
					"type": "address"
				}
			],
			"name": "logVar",
			"type": "event"
		},
		{
			"inputs": [],
			"name": "balance",
			"outputs": [
				{
					"internalType": "uint256",
					"name": "",
					"type": "uint256"
				}
			],
			"stateMutability": "view",
			"type": "function"
		},
		{
			"inputs": [],
			"name": "test",
			"outputs": [],
			"stateMutability": "nonpayable",
			"type": "function"
		}
	]
}