{
	"data": {
		"bytecode": {
			"linkReferences": {},
			"object": "6080604052348015600e575f80fd5b5061040b8061001c5f395ff3fe60806040526004361061004d575f3560e01c806320987767146100585780632b813bc0146100805780634e70b1dc1461009657806375f7286c146100c0578063b8bd717f146100f057610054565b3661005457005b5f80fd5b348015610063575f80fd5b5061007e60048036038101906100799190610256565b610118565b005b34801561008b575f80fd5b5061009461015e565b005b3480156100a1575f80fd5b506100aa610171565b6040516100b79190610290565b60405180910390f35b6100da60048036038101906100d59190610256565b610176565b6040516100e79190610290565b60405180910390f35b3480156100fb575f80fd5b5061011660048036038101906101119190610256565b6101d9565b005b600a811161015b576040517f08c379a000000000000000000000000000000000000000000000000000000000815260040161015290610303565b60405180910390fd5b50565b5f80541461016f5761016e610321565b5b565b5f5481565b5f80479050808311156101c25780836040517fcf4791810000000000000000000000000000000000000000000000000000000081526004016101b992919061034e565b60405180910390fd5b82816101ce91906103a2565b905047915050919050565b600a811161021c576040517f08c379a000000000000000000000000000000000000000000000000000000000815260040161021390610303565b60405180910390fd5b50565b5f80fd5b5f819050919050565b61023581610223565b811461023f575f80fd5b50565b5f813590506102508161022c565b92915050565b5f6020828403121561026b5761026a61021f565b5b5f61027884828501610242565b91505092915050565b61028a81610223565b82525050565b5f6020820190506102a35f830184610281565b92915050565b5f82825260208201905092915050565b7f496e707574206d7573742062652067726561746572207468616e2031300000005f82015250565b5f6102ed601d836102a9565b91506102f8826102b9565b602082019050919050565b5f6020820190508181035f83015261031a816102e1565b9050919050565b7f4e487b71000000000000000000000000000000000000000000000000000000005f52600160045260245ffd5b5f6040820190506103615f830185610281565b61036e6020830184610281565b9392505050565b7f4e487b71000000000000000000000000000000000000000000000000000000005f52601160045260245ffd5b5f6103ac82610223565b91506103b783610223565b92508282039050818111156103cf576103ce610375565b5b9291505056fea26469706673582212203215315fcf845098760e4a4de99d200416bc7cf0e677339e67b4d541c727dd9a64736f6c634300081a0033",
			"opcodes": "PUSH1 0x80 PUSH1 0x40 MSTORE CALLVALUE DUP1 ISZERO PUSH1 0xE JUMPI PUSH0 DUP1 REVERT JUMPDEST POP PUSH2 0x40B DUP1 PUSH2 0x1C PUSH0 CODECOPY PUSH0 RETURN INVALID PUSH1 0x80 PUSH1 0x40 MSTORE PUSH1 0x4 CALLDATASIZE LT PUSH2 0x4D JUMPI PUSH0 CALLDATALOAD PUSH1 0xE0 SHR DUP1 PUSH4 0x20987767 EQ PUSH2 0x58 JUMPI DUP1 PUSH4 0x2B813BC0 EQ PUSH2 0x80 JUMPI DUP1 PUSH4 0x4E70B1DC EQ PUSH2 0x96 JUMPI DUP1 PUSH4 0x75F7286C EQ PUSH2 0xC0 JUMPI DUP1 PUSH4 0xB8BD717F EQ PUSH2 0xF0 JUMPI PUSH2 0x54 JUMP JUMPDEST CALLDATASIZE PUSH2 0x54 JUMPI STOP JUMPDEST PUSH0 DUP1 REVERT JUMPDEST CALLVALUE DUP1 ISZERO PUSH2 0x63 JUMPI PUSH0 DUP1 REVERT JUMPDEST POP PUSH2 0x7E PUSH1 0x4 DUP1 CALLDATASIZE SUB DUP2 ADD SWAP1 PUSH2 0x79 SWAP2 SWAP1 PUSH2 0x256 JUMP JUMPDEST PUSH2 0x118 JUMP JUMPDEST STOP JUMPDEST CALLVALUE DUP1 ISZERO PUSH2 0x8B JUMPI PUSH0 DUP1 REVERT JUMPDEST POP PUSH2 0x94 PUSH2 0x15E JUMP JUMPDEST STOP JUMPDEST CALLVALUE DUP1 ISZERO PUSH2 0xA1 JUMPI PUSH0 DUP1 REVERT JUMPDEST POP PUSH2 0xAA PUSH2 0x171 JUMP JUMPDEST PUSH1 0x40 MLOAD PUSH2 0xB7 SWAP2 SWAP1 PUSH2 0x290 JUMP JUMPDEST PUSH1 0x40 MLOAD DUP1 SWAP2 SUB SWAP1 RETURN JUMPDEST PUSH2 0xDA PUSH1 0x4 DUP1 CALLDATASIZE SUB DUP2 ADD SWAP1 PUSH2 0xD5 SWAP2 SWAP1 PUSH2 0x256 JUMP JUMPDEST PUSH2 0x176 JUMP JUMPDEST PUSH1 0x40 MLOAD PUSH2 0xE7 SWAP2 SWAP1 PUSH2 0x290 JUMP JUMPDEST PUSH1 0x40 MLOAD DUP1 SWAP2 SUB SWAP1 RETURN JUMPDEST CALLVALUE DUP1 ISZERO PUSH2 0xFB JUMPI PUSH0 DUP1 REVERT JUMPDEST POP PUSH2 0x116 PUSH1 0x4 DUP1 CALLDATASIZE SUB DUP2 ADD SWAP1 PUSH2 0x111 SWAP2 SWAP1 PUSH2 0x256 JUMP JUMPDEST PUSH2 0x1D9 JUMP JUMPDEST STOP JUMPDEST PUSH1 0xA DUP2 GT PUSH2 0x15B JUMPI PUSH1 0x40 MLOAD PUSH32 0x8C379A000000000000000000000000000000000000000000000000000000000 DUP2 MSTORE PUSH1 0x4 ADD PUSH2 0x152 SWAP1 PUSH2 0x303 JUMP JUMPDEST PUSH1 0x40 MLOAD DUP1 SWAP2 SUB SWAP1 REVERT JUMPDEST POP JUMP JUMPDEST PUSH0 DUP1 SLOAD EQ PUSH2 0x16F JUMPI PUSH2 0x16E PUSH2 0x321 JUMP JUMPDEST JUMPDEST JUMP JUMPDEST PUSH0 SLOAD DUP2 JUMP JUMPDEST PUSH0 DUP1 SELFBALANCE SWAP1 POP DUP1 DUP4 GT ISZERO PUSH2 0x1C2 JUMPI DUP1 DUP4 PUSH1 0x40 MLOAD PUSH32 0xCF47918100000000000000000000000000000000000000000000000000000000 DUP2 MSTORE PUSH1 0x4 ADD PUSH2 0x1B9 SWAP3 SWAP2 SWAP1 PUSH2 0x34E JUMP JUMPDEST PUSH1 0x40 MLOAD DUP1 SWAP2 SUB SWAP1 REVERT JUMPDEST DUP3 DUP2 PUSH2 0x1CE SWAP2 SWAP1 PUSH2 0x3A2 JUMP JUMPDEST SWAP1 POP SELFBALANCE SWAP2 POP POP SWAP2 SWAP1 POP JUMP JUMPDEST PUSH1 0xA DUP2 GT PUSH2 0x21C JUMPI PUSH1 0x40 MLOAD PUSH32 0x8C379A000000000000000000000000000000000000000000000000000000000 DUP2 MSTORE PUSH1 0x4 ADD PUSH2 0x213 SWAP1 PUSH2 0x303 JUMP JUMPDEST PUSH1 0x40 MLOAD DUP1 SWAP2 SUB SWAP1 REVERT JUMPDEST POP JUMP JUMPDEST PUSH0 DUP1 REVERT JUMPDEST PUSH0 DUP2 SWAP1 POP SWAP2 SWAP1 POP JUMP JUMPDEST PUSH2 0x235 DUP2 PUSH2 0x223 JUMP JUMPDEST DUP2 EQ PUSH2 0x23F JUMPI PUSH0 DUP1 REVERT JUMPDEST POP JUMP JUMPDEST PUSH0 DUP2 CALLDATALOAD SWAP1 POP PUSH2 0x250 DUP2 PUSH2 0x22C JUMP JUMPDEST SWAP3 SWAP2 POP POP JUMP JUMPDEST PUSH0 PUSH1 0x20 DUP3 DUP5 SUB SLT ISZERO PUSH2 0x26B JUMPI PUSH2 0x26A PUSH2 0x21F JUMP JUMPDEST JUMPDEST PUSH0 PUSH2 0x278 DUP5 DUP3 DUP6 ADD PUSH2 0x242 JUMP JUMPDEST SWAP2 POP POP SWAP3 SWAP2 POP POP JUMP JUMPDEST PUSH2 0x28A DUP2 PUSH2 0x223 JUMP JUMPDEST DUP3 MSTORE POP POP JUMP JUMPDEST PUSH0 PUSH1 0x20 DUP3 ADD SWAP1 POP PUSH2 0x2A3 PUSH0 DUP4 ADD DUP5 PUSH2 0x281 JUMP JUMPDEST SWAP3 SWAP2 POP POP JUMP JUMPDEST PUSH0 DUP3 DUP3 MSTORE PUSH1 0x20 DUP3 ADD SWAP1 POP SWAP3 SWAP2 POP POP JUMP JUMPDEST PUSH32 0x496E707574206D7573742062652067726561746572207468616E203130000000 PUSH0 DUP3 ADD MSTORE POP JUMP JUMPDEST PUSH0 PUSH2 0x2ED PUSH1 0x1D DUP4 PUSH2 0x2A9 JUMP JUMPDEST SWAP2 POP PUSH2 0x2F8 DUP3 PUSH2 0x2B9 JUMP JUMPDEST PUSH1 0x20 DUP3 ADD SWAP1 POP SWAP2 SWAP1 POP JUMP JUMPDEST PUSH0 PUSH1 0x20 DUP3 ADD SWAP1 POP DUP2 DUP2 SUB PUSH0 DUP4 ADD MSTORE PUSH2 0x31A DUP2 PUSH2 0x2E1 JUMP JUMPDEST SWAP1 POP SWAP2 SWAP1 POP JUMP JUMPDEST PUSH32 0x4E487B7100000000000000000000000000000000000000000000000000000000 PUSH0 MSTORE PUSH1 0x1 PUSH1 0x4 MSTORE PUSH1 0x24 PUSH0 REVERT JUMPDEST PUSH0 PUSH1 0x40 DUP3 ADD SWAP1 POP PUSH2 0x361 PUSH0 DUP4 ADD DUP6 PUSH2 0x281 JUMP JUMPDEST PUSH2 0x36E PUSH1 0x20 DUP4 ADD DUP5 PUSH2 0x281 JUMP JUMPDEST SWAP4 SWAP3 POP POP POP JUMP JUMPDEST PUSH32 0x4E487B7100000000000000000000000000000000000000000000000000000000 PUSH0 MSTORE PUSH1 0x11 PUSH1 0x4 MSTORE PUSH1 0x24 PUSH0 REVERT JUMPDEST PUSH0 PUSH2 0x3AC DUP3 PUSH2 0x223 JUMP JUMPDEST SWAP2 POP PUSH2 0x3B7 DUP4 PUSH2 0x223 JUMP JUMPDEST SWAP3 POP DUP3 DUP3 SUB SWAP1 POP DUP2 DUP2 GT ISZERO PUSH2 0x3CF JUMPI PUSH2 0x3CE PUSH2 0x375 JUMP JUMPDEST JUMPDEST SWAP3 SWAP2 POP POP JUMP INVALID LOG2 PUSH5 0x6970667358 0x22 SLT KECCAK256 ORIGIN ISZERO BALANCE PUSH0 0xCF DUP5 POP SWAP9 PUSH23 0xE4A4DE99D200416BC7CF0E677339E67B4D541C727DD9A PUSH5 0x736F6C6343 STOP ADDMOD BYTE STOP CALLER "
		},
		"gasEstimates": {
			"creation": {
				"codeDepositCost": "207000",
				"executionCost": "249",
				"totalCost": "207249"
			},
			"external": {
				"num()": "2446",
				"testAssert()": "2292",
				"testCustomError(uint256)": "infinite",
				"testRequire(uint256)": "772",
				"testRevert(uint256)": "684"
			}
		},
		"methodIdentifiers": {
			"num()": "4e70b1dc",
			"testAssert()": "2b813bc0",
			"testCustomError(uint256)": "75f7286c",
			"testRequire(uint256)": "b8bd717f",
			"testRevert(uint256)": "20987767"
		}
	},
	"abi": [
		{
			"inputs": [
				{
					"internalType": "uint256",
					"name": "balance",
					"type": "uint256"
				},
				{
					"internalType": "uint256",
					"name": "withdrawAmount",
					"type": "uint256"
				}
			],
			"name": "InsufficientBalance",
			"type": "error"
		},
		{
			"inputs": [],
			"name": "num",
			"outputs": [
				{
					"internalType": "uint256",
					"name": "",
					"type": "uint256"
				}
			],
			"stateMutability": "view",
			"type": "function"
		},
		{
			"inputs": [],
			"name": "testAssert",
			"outputs": [],
			"stateMutability": "view",
			"type": "function"
		},
		{
			"inputs": [
				{
					"internalType": "uint256",
					"name": "_withdrawAmount",
					"type": "uint256"
				}
			],
			"name": "testCustomError",
			"outputs": [
				{
					"internalType": "uint256",
					"name": "",
					"type": "uint256"
				}
			],
			"stateMutability": "payable",
			"type": "function"
		},
		{
			"inputs": [
				{
					"internalType": "uint256",
					"name": "_i",
					"type": "uint256"
				}
			],
			"name": "testRequire",
			"outputs": [],
			"stateMutability": "pure",
			"type": "function"
		},
		{
			"inputs": [
				{
					"internalType": "uint256",
					"name": "_i",
					"type": "uint256"
				}
			],
			"name": "testRevert",
			"outputs": [],
			"stateMutability": "pure",
			"type": "function"
		},
		{
			"stateMutability": "payable",
			"type": "receive"
		}
	]
}